{
  "abi": [
    {
      "inputs": [
        {
          "internalType": "address",
          "name": "_governance",
          "type": "address"
        }
      ],
      "payable": false,
      "stateMutability": "nonpayable",
      "type": "constructor"
    },
    {
      "constant": false,
      "inputs": [],
      "name": "acceptGovernance",
      "outputs": [],
      "payable": false,
      "stateMutability": "nonpayable",
      "type": "function"
    },
    {
      "constant": false,
      "inputs": [
        {
          "internalType": "address",
          "name": "_vault",
          "type": "address"
        }
      ],
      "name": "addDelegatedVault",
      "outputs": [],
      "payable": false,
      "stateMutability": "nonpayable",
      "type": "function"
    },
    {
      "constant": false,
      "inputs": [
        {
          "internalType": "address",
          "name": "_vault",
          "type": "address"
        }
      ],
      "name": "addVault",
      "outputs": [],
      "payable": false,
      "stateMutability": "nonpayable",
      "type": "function"
    },
    {
      "constant": false,
      "inputs": [
        {
          "internalType": "address",
          "name": "_vault",
          "type": "address"
        }
      ],
      "name": "addWrappedVault",
      "outputs": [],
      "payable": false,
      "stateMutability": "nonpayable",
      "type": "function"
    },
    {
      "constant": true,
      "inputs": [],
      "name": "getName",
      "outputs": [
        {
          "internalType": "string",
          "name": "",
          "type": "string"
        }
      ],
      "payable": false,
      "stateMutability": "pure",
      "type": "function"
    },
    {
      "constant": true,
      "inputs": [
        {
          "internalType": "uint256",
          "name": "index",
          "type": "uint256"
        }
      ],
      "name": "getVault",
      "outputs": [
        {
          "internalType": "address",
          "name": "vault",
          "type": "address"
        }
      ],
      "payable": false,
      "stateMutability": "view",
      "type": "function"
    },
    {
      "constant": true,
      "inputs": [
        {
          "internalType": "address",
          "name": "_vault",
          "type": "address"
        }
      ],
      "name": "getVaultInfo",
      "outputs": [
        {
          "internalType": "address",
          "name": "controller",
          "type": "address"
        },
        {
          "internalType": "address",
          "name": "token",
          "type": "address"
        },
        {
          "internalType": "address",
          "name": "strategy",
          "type": "address"
        },
        {
          "internalType": "bool",
          "name": "isWrapped",
          "type": "bool"
        },
        {
          "internalType": "bool",
          "name": "isDelegated",
          "type": "bool"
        }
      ],
      "payable": false,
      "stateMutability": "view",
      "type": "function"
    },
    {
      "constant": true,
      "inputs": [],
      "name": "getVaults",
      "outputs": [
        {
          "internalType": "address[]",
          "name": "",
          "type": "address[]"
        }
      ],
      "payable": false,
      "stateMutability": "view",
      "type": "function"
    },
    {
      "constant": true,
      "inputs": [],
      "name": "getVaultsInfo",
      "outputs": [
        {
          "internalType": "address[]",
          "name": "vaultsAddresses",
          "type": "address[]"
        },
        {
          "internalType": "address[]",
          "name": "controllerArray",
          "type": "address[]"
        },
        {
          "internalType": "address[]",
          "name": "tokenArray",
          "type": "address[]"
        },
        {
          "internalType": "address[]",
          "name": "strategyArray",
          "type": "address[]"
        },
        {
          "internalType": "bool[]",
          "name": "isWrappedArray",
          "type": "bool[]"
        },
        {
          "internalType": "bool[]",
          "name": "isDelegatedArray",
          "type": "bool[]"
        }
      ],
      "payable": false,
      "stateMutability": "view",
      "type": "function"
    },
    {
      "constant": true,
      "inputs": [],
      "name": "getVaultsLength",
      "outputs": [
        {
          "internalType": "uint256",
          "name": "",
          "type": "uint256"
        }
      ],
      "payable": false,
      "stateMutability": "view",
      "type": "function"
    },
    {
      "constant": true,
      "inputs": [],
      "name": "governance",
      "outputs": [
        {
          "internalType": "address",
          "name": "",
          "type": "address"
        }
      ],
      "payable": false,
      "stateMutability": "view",
      "type": "function"
    },
    {
      "constant": true,
      "inputs": [
        {
          "internalType": "address",
          "name": "",
          "type": "address"
        }
      ],
      "name": "isDelegatedVault",
      "outputs": [
        {
          "internalType": "bool",
          "name": "",
          "type": "bool"
        }
      ],
      "payable": false,
      "stateMutability": "view",
      "type": "function"
    },
    {
      "constant": true,
      "inputs": [],
      "name": "pendingGovernance",
      "outputs": [
        {
          "internalType": "address",
          "name": "",
          "type": "address"
        }
      ],
      "payable": false,
      "stateMutability": "view",
      "type": "function"
    },
    {
      "constant": false,
      "inputs": [
        {
          "internalType": "address",
          "name": "_vault",
          "type": "address"
        }
      ],
      "name": "removeVault",
      "outputs": [],
      "payable": false,
      "stateMutability": "nonpayable",
      "type": "function"
    },
    {
      "constant": false,
      "inputs": [
        {
          "internalType": "address",
          "name": "_pendingGovernance",
          "type": "address"
        }
      ],
      "name": "setPendingGovernance",
      "outputs": [],
      "payable": false,
      "stateMutability": "nonpayable",
      "type": "function"
    }
  ],
  "bytecode": "608060405234801561001057600080fd5b5060405161176b38038061176b8339818101604052602081101561003357600080fd5b50516001600160a01b038116610085576040805162461bcd60e51b81526020600482015260126024820152714d697373696e6720476f7665726e616e636560701b604482015290519081900360640190fd5b600080546001600160a01b039092166001600160a01b03199092169190911790556116b6806100b56000396000f3fe608060405234801561001057600080fd5b50600436106100f55760003560e01c806344d00f821161009757806390229af71161006657806390229af71461049e5780639403b63414610500578063ceb68c231461051d578063f39c38a014610543576100f5565b806344d00f82146102475780635aa6e6751461029f57806361de8389146102c35780636b708788146102e9576100f5565b8063238efcbc116100d3578063238efcbc146101c5578063256b5a02146101cd57806344064be7146101f357806344b19dfc1461022d576100f5565b80630abb6035146100fa57806317d7de7c146101225780632019c75a1461019f575b600080fd5b6101206004803603602081101561011057600080fd5b50356001600160a01b031661054b565b005b61012a6105b6565b6040805160208082528351818301528351919283929083019185019080838360005b8381101561016457818101518382015260200161014c565b50505050905090810190601f1680156101915780820380516001836020036101000a031916815260200191505b509250505060405180910390f35b610120600480360360208110156101b557600080fd5b50356001600160a01b03166105d9565b610120610652565b610120600480360360208110156101e357600080fd5b50356001600160a01b03166106af565b6102196004803603602081101561020957600080fd5b50356001600160a01b0316610701565b604080519115158252519081900360200190f35b610235610716565b60408051918252519081900360200190f35b61024f610727565b60408051602080825283518183015283519192839290830191858101910280838360005b8381101561028b578181015183820152602001610273565b505050509050019250505060405180910390f35b6102a76107b7565b604080516001600160a01b039092168252519081900360200190f35b610120600480360360208110156102d957600080fd5b50356001600160a01b03166107c6565b6102f16108aa565b6040518080602001806020018060200180602001806020018060200187810387528d818151815260200191508051906020019060200280838360005b8381101561034557818101518382015260200161032d565b5050505090500187810386528c818151815260200191508051906020019060200280838360005b8381101561038457818101518382015260200161036c565b5050505090500187810385528b818151815260200191508051906020019060200280838360005b838110156103c35781810151838201526020016103ab565b5050505090500187810384528a818151815260200191508051906020019060200280838360005b838110156104025781810151838201526020016103ea565b50505050905001878103835289818151815260200191508051906020019060200280838360005b83811015610441578181015183820152602001610429565b50505050905001878103825288818151815260200191508051906020019060200280838360005b83811015610480578181015183820152602001610468565b505050509050019c5050505050505050505050505060405180910390f35b6104c4600480360360208110156104b457600080fd5b50356001600160a01b0316610b46565b604080516001600160a01b0396871681529486166020860152929094168383015215156060830152911515608082015290519081900360a00190f35b6102a76004803603602081101561051657600080fd5b5035610b69565b6101206004803603602081101561053357600080fd5b50356001600160a01b0316610b82565b6102a7610bdc565b6000546001600160a01b031633146105945760405162461bcd60e51b815260040180806020018281038252602781526020018061165b6027913960400191505060405180910390fd5b600180546001600160a01b0319166001600160a01b0392909216919091179055565b60408051808201909152600981526859526567697374727960b81b602082015290565b6000546001600160a01b031633146106225760405162461bcd60e51b815260040180806020018281038252602781526020018061165b6027913960400191505060405180910390fd5b61062b81610beb565b61063481610cb9565b600061063f82610cdd565b50505050905061064e81611304565b5050565b6001546001600160a01b0316331461069b5760405162461bcd60e51b815260040180806020018281038252602e815260200180611606602e913960400191505060405180910390fd5b600080546001600160a01b03191633179055565b6000546001600160a01b031633146106f85760405162461bcd60e51b815260040180806020018281038252602781526020018061165b6027913960400191505060405180910390fd5b61063481610beb565b60076020526000908152604090205460ff1681565b6000610722600261132d565b905090565b606080610734600261132d565b60405190808252806020026020018201604052801561075d578160200160208202803883390190505b50905060005b61076d600261132d565b8110156107b15761078560028263ffffffff61133416565b82828151811061079157fe5b6001600160a01b0390921660209283029190910190910152600101610763565b50905090565b6000546001600160a01b031681565b6000546001600160a01b0316331461080f5760405162461bcd60e51b815260040180806020018281038252602781526020018061165b6027913960400191505060405180910390fd5b61081881610beb565b6000816001600160a01b031663fbfa77cf6040518163ffffffff1660e01b815260040160206040518083038186803b15801561085357600080fd5b505afa158015610867573d6000803e3d6000fd5b505050506040513d602081101561087d57600080fd5b5051905061088b8282611361565b600061089683610cdd565b5050505090506108a581611304565b505050565b6060806060806060806108bd600261132d565b6040519080825280602002602001820160405280156108e6578160200160208202803883390190505b5095506108f3600261132d565b60405190808252806020026020018201604052801561091c578160200160208202803883390190505b509450610929600261132d565b604051908082528060200260200182016040528015610952578160200160208202803883390190505b50935061095f600261132d565b604051908082528060200260200182016040528015610988578160200160208202803883390190505b509250610995600261132d565b6040519080825280602002602001820160405280156109be578160200160208202803883390190505b5091506109cb600261132d565b6040519080825280602002602001820160405280156109f4578160200160208202803883390190505b50905060005b610a04600261132d565b811015610b3d57610a1c60028263ffffffff61133416565b878281518110610a2857fe5b6001600160a01b0390921660209283029190910190910152600080808080610a5f610a5a60028863ffffffff61133416565b610cdd565b94509450945094509450848b8781518110610a7657fe5b60200260200101906001600160a01b031690816001600160a01b031681525050838a8781518110610aa357fe5b60200260200101906001600160a01b031690816001600160a01b03168152505082898781518110610ad057fe5b60200260200101906001600160a01b031690816001600160a01b03168152505081888781518110610afd57fe5b60200260200101901515908115158152505080878781518110610b1c57fe5b911515602092830291909101909101525050600190930192506109fa915050565b50909192939495565b6000806000806000610b5786610cdd565b939a9299509097509550909350915050565b6000610b7c60028363ffffffff61133416565b92915050565b6000546001600160a01b03163314610bcb5760405162461bcd60e51b815260040180806020018281038252602781526020018061165b6027913960400191505060405180910390fd5b61064e60028263ffffffff6113f216565b6001546001600160a01b031681565b610bfd816001600160a01b0316611505565b610c4e576040805162461bcd60e51b815260206004820152601760248201527f5661756c74206973206e6f74206120636f6e7472616374000000000000000000604482015290519081900360640190fd5b610c5f60028263ffffffff61154116565b15610ca8576040805162461bcd60e51b81526020600482015260146024820152735661756c7420616c72656164792065786973747360601b604482015290519081900360640190fd5b61064e60028263ffffffff61155f16565b6001600160a01b03166000908152600760205260409020805460ff19166001179055565b6001600160a01b03808216600090815260066020526040812054909182918291161580159082908690610d2757506001600160a01b03808716600090815260066020526040902054165b6001600160a01b03811660008181526007602090815260409182902054825163f77c479160e01b8152925160ff909116955063f77c4791926004808201939291829003018186803b158015610d7b57600080fd5b505afa158015610d8f573d6000803e3d6000fd5b505050506040513d6020811015610da557600080fd5b50519550828015610e2d575060006001600160a01b0316816001600160a01b0316636f307dc36040518163ffffffff1660e01b815260040160206040518083038186803b158015610df557600080fd5b505afa158015610e09573d6000803e3d6000fd5b505050506040513d6020811015610e1f57600080fd5b50516001600160a01b031614155b15610e9e57866001600160a01b031663fc0c546a6040518163ffffffff1660e01b815260040160206040518083038186803b158015610e6b57600080fd5b505afa158015610e7f573d6000803e3d6000fd5b505050506040513d6020811015610e9557600080fd5b50519450610f06565b806001600160a01b031663fc0c546a6040518163ffffffff1660e01b815260040160206040518083038186803b158015610ed757600080fd5b505afa158015610eeb573d6000803e3d6000fd5b505050506040513d6020811015610f0157600080fd5b505194505b8115610f9557856001600160a01b03166339ebf823826040518263ffffffff1660e01b815260040180826001600160a01b03166001600160a01b0316815260200191505060206040518083038186803b158015610f6257600080fd5b505afa158015610f76573d6000803e3d6000fd5b505050506040513d6020811015610f8c57600080fd5b5051935061101a565b856001600160a01b03166339ebf823866040518263ffffffff1660e01b815260040180826001600160a01b03166001600160a01b0316815260200191505060206040518083038186803b158015610feb57600080fd5b505afa158015610fff573d6000803e3d6000fd5b505050506040513d602081101561101557600080fd5b505193505b600082156110ab57866001600160a01b031663a622ee7c866040518263ffffffff1660e01b815260040180826001600160a01b03166001600160a01b0316815260200191505060206040518083038186803b15801561107857600080fd5b505afa15801561108c573d6000803e3d6000fd5b505050506040513d60208110156110a257600080fd5b50519050611130565b866001600160a01b031663a622ee7c876040518263ffffffff1660e01b815260040180826001600160a01b03166001600160a01b0316815260200191505060206040518083038186803b15801561110157600080fd5b505afa158015611115573d6000803e3d6000fd5b505050506040513d602081101561112b57600080fd5b505190505b816001600160a01b0316816001600160a01b0316146111805760405162461bcd60e51b81526004018080602001828103825260278152602001806116346027913960400191505060405180910390fd5b831561123f576000826001600160a01b0316636f307dc36040518163ffffffff1660e01b815260040160206040518083038186803b1580156111c157600080fd5b505afa1580156111d5573d6000803e3d6000fd5b505050506040513d60208110156111eb57600080fd5b505190506001600160a01b03808216908816146112395760405162461bcd60e51b81526004018080602001828103825260298152602001806115dd6029913960400191505060405180910390fd5b506112f9565b826112f9576000856001600160a01b0316631f1fcd516040518163ffffffff1660e01b815260040160206040518083038186803b15801561127f57600080fd5b505afa158015611293573d6000803e3d6000fd5b505050506040513d60208110156112a957600080fd5b505190506001600160a01b03878116908216146112f75760405162461bcd60e51b81526004018080602001828103825260258152602001806115b86025913960400191505060405180910390fd5b505b505091939590929450565b61131560048263ffffffff61154116565b61132a5761064e60048263ffffffff61155f16565b50565b6001015490565b600082600101828154811061134557fe5b6000918252602090912001546001600160a01b03169392505050565b611373816001600160a01b0316611505565b6113c4576040805162461bcd60e51b815260206004820152601e60248201527f577261707065645661756c74206973206e6f74206120636f6e74726163740000604482015290519081900360640190fd5b6001600160a01b03918216600090815260066020526040902080546001600160a01b03191691909216179055565b60006113fe8383611541565b156114fd576001600160a01b038216600090815260208490526040902054600184015460001991820191018082146114a957600085600101828154811061144157fe5b6000918252602090912001546001870180546001600160a01b03909216925082918590811061146c57fe5b600091825260208083209190910180546001600160a01b0319166001600160a01b0394851617905592909116815290869052604090206001830190555b6001600160a01b038416600090815260208690526040812055600185018054806114cf57fe5b600082815260209020810160001990810180546001600160a01b03191690550190555060019150610b7c9050565b506000610b7c565b6000813f7fc5d2460186f7233c927e7db2dcc703c0e500b653ca82273b7bfad8045d85a47081811480159061153957508115155b949350505050565b6001600160a01b031660009081526020919091526040902054151590565b600061156b8383611541565b6114fd5750600182810180548083018083556000928352602080842090920180546001600160a01b0319166001600160a01b038716908117909155835290859052604090912055610b7c56fe537472617465677920746f6b656e206164647265737320646f6573206e6f74206d61746368577261707065645661756c7420746f6b656e206164647265737320646f6573206e6f74206d617463684f6e6c792070656e64696e67476f7665726e616e63652063616e2063616c6c20746869732066756e6374696f6e2e436f6e74726f6c6c6572207661756c74206164647265737320646f6573206e6f74206d617463684f6e6c7920676f7665726e616e63652063616e2063616c6c20746869732066756e6374696f6e2ea265627a7a72315820ab309ad0a92c8bd00bd7a3bfa5cabd4fae61191c68fa518680a5a32defa0337464736f6c63430005110032",
  "bytecodeSha1": "25b57385479a394a8c15e970389a3c0e2d7778f5",
  "compiler": {
    "evm_version": "istanbul",
    "optimizer": {
      "enabled": true,
      "runs": 200
    },
    "version": "0.5.17+commit.d19bba13"
  },
  "contractName": "YRegistry",
  "language": "Solidity",
  "natspec": {
    "methods": {}
  },
  "opcodes": "PUSH1 0x80 PUSH1 0x40 MSTORE CALLVALUE DUP1 ISZERO PUSH2 0x10 JUMPI PUSH1 0x0 DUP1 REVERT JUMPDEST POP PUSH1 0x4 CALLDATASIZE LT PUSH2 0xF5 JUMPI PUSH1 0x0 CALLDATALOAD PUSH1 0xE0 SHR DUP1 PUSH4 0x44D00F82 GT PUSH2 0x97 JUMPI DUP1 PUSH4 0x90229AF7 GT PUSH2 0x66 JUMPI DUP1 PUSH4 0x90229AF7 EQ PUSH2 0x49E JUMPI DUP1 PUSH4 0x9403B634 EQ PUSH2 0x500 JUMPI DUP1 PUSH4 0xCEB68C23 EQ PUSH2 0x51D JUMPI DUP1 PUSH4 0xF39C38A0 EQ PUSH2 0x543 JUMPI PUSH2 0xF5 JUMP JUMPDEST DUP1 PUSH4 0x44D00F82 EQ PUSH2 0x247 JUMPI DUP1 PUSH4 0x5AA6E675 EQ PUSH2 0x29F JUMPI DUP1 PUSH4 0x61DE8389 EQ PUSH2 0x2C3 JUMPI DUP1 PUSH4 0x6B708788 EQ PUSH2 0x2E9 JUMPI PUSH2 0xF5 JUMP JUMPDEST DUP1 PUSH4 0x238EFCBC GT PUSH2 0xD3 JUMPI DUP1 PUSH4 0x238EFCBC EQ PUSH2 0x1C5 JUMPI DUP1 PUSH4 0x256B5A02 EQ PUSH2 0x1CD JUMPI DUP1 PUSH4 0x44064BE7 EQ PUSH2 0x1F3 JUMPI DUP1 PUSH4 0x44B19DFC EQ PUSH2 0x22D JUMPI PUSH2 0xF5 JUMP JUMPDEST DUP1 PUSH4 0xABB6035 EQ PUSH2 0xFA JUMPI DUP1 PUSH4 0x17D7DE7C EQ PUSH2 0x122 JUMPI DUP1 PUSH4 0x2019C75A EQ PUSH2 0x19F JUMPI JUMPDEST PUSH1 0x0 DUP1 REVERT JUMPDEST PUSH2 0x120 PUSH1 0x4 DUP1 CALLDATASIZE SUB PUSH1 0x20 DUP2 LT ISZERO PUSH2 0x110 JUMPI PUSH1 0x0 DUP1 REVERT JUMPDEST POP CALLDATALOAD PUSH1 0x1 PUSH1 0x1 PUSH1 0xA0 SHL SUB AND PUSH2 0x54B JUMP JUMPDEST STOP JUMPDEST PUSH2 0x12A PUSH2 0x5B6 JUMP JUMPDEST PUSH1 0x40 DUP1 MLOAD PUSH1 0x20 DUP1 DUP3 MSTORE DUP4 MLOAD DUP2 DUP4 ADD MSTORE DUP4 MLOAD SWAP2 SWAP3 DUP4 SWAP3 SWAP1 DUP4 ADD SWAP2 DUP6 ADD SWAP1 DUP1 DUP4 DUP4 PUSH1 0x0 JUMPDEST DUP4 DUP2 LT ISZERO PUSH2 0x164 JUMPI DUP2 DUP2 ADD MLOAD DUP4 DUP3 ADD MSTORE PUSH1 0x20 ADD PUSH2 0x14C JUMP JUMPDEST POP POP POP POP SWAP1 POP SWAP1 DUP2 ADD SWAP1 PUSH1 0x1F AND DUP1 ISZERO PUSH2 0x191 JUMPI DUP1 DUP3 SUB DUP1 MLOAD PUSH1 0x1 DUP4 PUSH1 0x20 SUB PUSH2 0x100 EXP SUB NOT AND DUP2 MSTORE PUSH1 0x20 ADD SWAP2 POP JUMPDEST POP SWAP3 POP POP POP PUSH1 0x40 MLOAD DUP1 SWAP2 SUB SWAP1 RETURN JUMPDEST PUSH2 0x120 PUSH1 0x4 DUP1 CALLDATASIZE SUB PUSH1 0x20 DUP2 LT ISZERO PUSH2 0x1B5 JUMPI PUSH1 0x0 DUP1 REVERT JUMPDEST POP CALLDATALOAD PUSH1 0x1 PUSH1 0x1 PUSH1 0xA0 SHL SUB AND PUSH2 0x5D9 JUMP JUMPDEST PUSH2 0x120 PUSH2 0x652 JUMP JUMPDEST PUSH2 0x120 PUSH1 0x4 DUP1 CALLDATASIZE SUB PUSH1 0x20 DUP2 LT ISZERO PUSH2 0x1E3 JUMPI PUSH1 0x0 DUP1 REVERT JUMPDEST POP CALLDATALOAD PUSH1 0x1 PUSH1 0x1 PUSH1 0xA0 SHL SUB AND PUSH2 0x6AF JUMP JUMPDEST PUSH2 0x219 PUSH1 0x4 DUP1 CALLDATASIZE SUB PUSH1 0x20 DUP2 LT ISZERO PUSH2 0x209 JUMPI PUSH1 0x0 DUP1 REVERT JUMPDEST POP CALLDATALOAD PUSH1 0x1 PUSH1 0x1 PUSH1 0xA0 SHL SUB AND PUSH2 0x701 JUMP JUMPDEST PUSH1 0x40 DUP1 MLOAD SWAP2 ISZERO ISZERO DUP3 MSTORE MLOAD SWAP1 DUP2 SWAP1 SUB PUSH1 0x20 ADD SWAP1 RETURN JUMPDEST PUSH2 0x235 PUSH2 0x716 JUMP JUMPDEST PUSH1 0x40 DUP1 MLOAD SWAP2 DUP3 MSTORE MLOAD SWAP1 DUP2 SWAP1 SUB PUSH1 0x20 ADD SWAP1 RETURN JUMPDEST PUSH2 0x24F PUSH2 0x727 JUMP JUMPDEST PUSH1 0x40 DUP1 MLOAD PUSH1 0x20 DUP1 DUP3 MSTORE DUP4 MLOAD DUP2 DUP4 ADD MSTORE DUP4 MLOAD SWAP2 SWAP3 DUP4 SWAP3 SWAP1 DUP4 ADD SWAP2 DUP6 DUP2 ADD SWAP2 MUL DUP1 DUP4 DUP4 PUSH1 0x0 JUMPDEST DUP4 DUP2 LT ISZERO PUSH2 0x28B JUMPI DUP2 DUP2 ADD MLOAD DUP4 DUP3 ADD MSTORE PUSH1 0x20 ADD PUSH2 0x273 JUMP JUMPDEST POP POP POP POP SWAP1 POP ADD SWAP3 POP POP POP PUSH1 0x40 MLOAD DUP1 SWAP2 SUB SWAP1 RETURN JUMPDEST PUSH2 0x2A7 PUSH2 0x7B7 JUMP JUMPDEST PUSH1 0x40 DUP1 MLOAD PUSH1 0x1 PUSH1 0x1 PUSH1 0xA0 SHL SUB SWAP1 SWAP3 AND DUP3 MSTORE MLOAD SWAP1 DUP2 SWAP1 SUB PUSH1 0x20 ADD SWAP1 RETURN JUMPDEST PUSH2 0x120 PUSH1 0x4 DUP1 CALLDATASIZE SUB PUSH1 0x20 DUP2 LT ISZERO PUSH2 0x2D9 JUMPI PUSH1 0x0 DUP1 REVERT JUMPDEST POP CALLDATALOAD PUSH1 0x1 PUSH1 0x1 PUSH1 0xA0 SHL SUB AND PUSH2 0x7C6 JUMP JUMPDEST PUSH2 0x2F1 PUSH2 0x8AA JUMP JUMPDEST PUSH1 0x40 MLOAD DUP1 DUP1 PUSH1 0x20 ADD DUP1 PUSH1 0x20 ADD DUP1 PUSH1 0x20 ADD DUP1 PUSH1 0x20 ADD DUP1 PUSH1 0x20 ADD DUP1 PUSH1 0x20 ADD DUP8 DUP2 SUB DUP8 MSTORE DUP14 DUP2 DUP2 MLOAD DUP2 MSTORE PUSH1 0x20 ADD SWAP2 POP DUP1 MLOAD SWAP1 PUSH1 0x20 ADD SWAP1 PUSH1 0x20 MUL DUP1 DUP4 DUP4 PUSH1 0x0 JUMPDEST DUP4 DUP2 LT ISZERO PUSH2 0x345 JUMPI DUP2 DUP2 ADD MLOAD DUP4 DUP3 ADD MSTORE PUSH1 0x20 ADD PUSH2 0x32D JUMP JUMPDEST POP POP POP POP SWAP1 POP ADD DUP8 DUP2 SUB DUP7 MSTORE DUP13 DUP2 DUP2 MLOAD DUP2 MSTORE PUSH1 0x20 ADD SWAP2 POP DUP1 MLOAD SWAP1 PUSH1 0x20 ADD SWAP1 PUSH1 0x20 MUL DUP1 DUP4 DUP4 PUSH1 0x0 JUMPDEST DUP4 DUP2 LT ISZERO PUSH2 0x384 JUMPI DUP2 DUP2 ADD MLOAD DUP4 DUP3 ADD MSTORE PUSH1 0x20 ADD PUSH2 0x36C JUMP JUMPDEST POP POP POP POP SWAP1 POP ADD DUP8 DUP2 SUB DUP6 MSTORE DUP12 DUP2 DUP2 MLOAD DUP2 MSTORE PUSH1 0x20 ADD SWAP2 POP DUP1 MLOAD SWAP1 PUSH1 0x20 ADD SWAP1 PUSH1 0x20 MUL DUP1 DUP4 DUP4 PUSH1 0x0 JUMPDEST DUP4 DUP2 LT ISZERO PUSH2 0x3C3 JUMPI DUP2 DUP2 ADD MLOAD DUP4 DUP3 ADD MSTORE PUSH1 0x20 ADD PUSH2 0x3AB JUMP JUMPDEST POP POP POP POP SWAP1 POP ADD DUP8 DUP2 SUB DUP5 MSTORE DUP11 DUP2 DUP2 MLOAD DUP2 MSTORE PUSH1 0x20 ADD SWAP2 POP DUP1 MLOAD SWAP1 PUSH1 0x20 ADD SWAP1 PUSH1 0x20 MUL DUP1 DUP4 DUP4 PUSH1 0x0 JUMPDEST DUP4 DUP2 LT ISZERO PUSH2 0x402 JUMPI DUP2 DUP2 ADD MLOAD DUP4 DUP3 ADD MSTORE PUSH1 0x20 ADD PUSH2 0x3EA JUMP JUMPDEST POP POP POP POP SWAP1 POP ADD DUP8 DUP2 SUB DUP4 MSTORE DUP10 DUP2 DUP2 MLOAD DUP2 MSTORE PUSH1 0x20 ADD SWAP2 POP DUP1 MLOAD SWAP1 PUSH1 0x20 ADD SWAP1 PUSH1 0x20 MUL DUP1 DUP4 DUP4 PUSH1 0x0 JUMPDEST DUP4 DUP2 LT ISZERO PUSH2 0x441 JUMPI DUP2 DUP2 ADD MLOAD DUP4 DUP3 ADD MSTORE PUSH1 0x20 ADD PUSH2 0x429 JUMP JUMPDEST POP POP POP POP SWAP1 POP ADD DUP8 DUP2 SUB DUP3 MSTORE DUP9 DUP2 DUP2 MLOAD DUP2 MSTORE PUSH1 0x20 ADD SWAP2 POP DUP1 MLOAD SWAP1 PUSH1 0x20 ADD SWAP1 PUSH1 0x20 MUL DUP1 DUP4 DUP4 PUSH1 0x0 JUMPDEST DUP4 DUP2 LT ISZERO PUSH2 0x480 JUMPI DUP2 DUP2 ADD MLOAD DUP4 DUP3 ADD MSTORE PUSH1 0x20 ADD PUSH2 0x468 JUMP JUMPDEST POP POP POP POP SWAP1 POP ADD SWAP13 POP POP POP POP POP POP POP POP POP POP POP POP POP PUSH1 0x40 MLOAD DUP1 SWAP2 SUB SWAP1 RETURN JUMPDEST PUSH2 0x4C4 PUSH1 0x4 DUP1 CALLDATASIZE SUB PUSH1 0x20 DUP2 LT ISZERO PUSH2 0x4B4 JUMPI PUSH1 0x0 DUP1 REVERT JUMPDEST POP CALLDATALOAD PUSH1 0x1 PUSH1 0x1 PUSH1 0xA0 SHL SUB AND PUSH2 0xB46 JUMP JUMPDEST PUSH1 0x40 DUP1 MLOAD PUSH1 0x1 PUSH1 0x1 PUSH1 0xA0 SHL SUB SWAP7 DUP8 AND DUP2 MSTORE SWAP5 DUP7 AND PUSH1 0x20 DUP7 ADD MSTORE SWAP3 SWAP1 SWAP5 AND DUP4 DUP4 ADD MSTORE ISZERO ISZERO PUSH1 0x60 DUP4 ADD MSTORE SWAP2 ISZERO ISZERO PUSH1 0x80 DUP3 ADD MSTORE SWAP1 MLOAD SWAP1 DUP2 SWAP1 SUB PUSH1 0xA0 ADD SWAP1 RETURN JUMPDEST PUSH2 0x2A7 PUSH1 0x4 DUP1 CALLDATASIZE SUB PUSH1 0x20 DUP2 LT ISZERO PUSH2 0x516 JUMPI PUSH1 0x0 DUP1 REVERT JUMPDEST POP CALLDATALOAD PUSH2 0xB69 JUMP JUMPDEST PUSH2 0x120 PUSH1 0x4 DUP1 CALLDATASIZE SUB PUSH1 0x20 DUP2 LT ISZERO PUSH2 0x533 JUMPI PUSH1 0x0 DUP1 REVERT JUMPDEST POP CALLDATALOAD PUSH1 0x1 PUSH1 0x1 PUSH1 0xA0 SHL SUB AND PUSH2 0xB82 JUMP JUMPDEST PUSH2 0x2A7 PUSH2 0xBDC JUMP JUMPDEST PUSH1 0x0 SLOAD PUSH1 0x1 PUSH1 0x1 PUSH1 0xA0 SHL SUB AND CALLER EQ PUSH2 0x594 JUMPI PUSH1 0x40 MLOAD PUSH3 0x461BCD PUSH1 0xE5 SHL DUP2 MSTORE PUSH1 0x4 ADD DUP1 DUP1 PUSH1 0x20 ADD DUP3 DUP2 SUB DUP3 MSTORE PUSH1 0x27 DUP2 MSTORE PUSH1 0x20 ADD DUP1 PUSH2 0x165B PUSH1 0x27 SWAP2 CODECOPY PUSH1 0x40 ADD SWAP2 POP POP PUSH1 0x40 MLOAD DUP1 SWAP2 SUB SWAP1 REVERT JUMPDEST PUSH1 0x1 DUP1 SLOAD PUSH1 0x1 PUSH1 0x1 PUSH1 0xA0 SHL SUB NOT AND PUSH1 0x1 PUSH1 0x1 PUSH1 0xA0 SHL SUB SWAP3 SWAP1 SWAP3 AND SWAP2 SWAP1 SWAP2 OR SWAP1 SSTORE JUMP JUMPDEST PUSH1 0x40 DUP1 MLOAD DUP1 DUP3 ADD SWAP1 SWAP2 MSTORE PUSH1 0x9 DUP2 MSTORE PUSH9 0x595265676973747279 PUSH1 0xB8 SHL PUSH1 0x20 DUP3 ADD MSTORE SWAP1 JUMP JUMPDEST PUSH1 0x0 SLOAD PUSH1 0x1 PUSH1 0x1 PUSH1 0xA0 SHL SUB AND CALLER EQ PUSH2 0x622 JUMPI PUSH1 0x40 MLOAD PUSH3 0x461BCD PUSH1 0xE5 SHL DUP2 MSTORE PUSH1 0x4 ADD DUP1 DUP1 PUSH1 0x20 ADD DUP3 DUP2 SUB DUP3 MSTORE PUSH1 0x27 DUP2 MSTORE PUSH1 0x20 ADD DUP1 PUSH2 0x165B PUSH1 0x27 SWAP2 CODECOPY PUSH1 0x40 ADD SWAP2 POP POP PUSH1 0x40 MLOAD DUP1 SWAP2 SUB SWAP1 REVERT JUMPDEST PUSH2 0x62B DUP2 PUSH2 0xBEB JUMP JUMPDEST PUSH2 0x634 DUP2 PUSH2 0xCB9 JUMP JUMPDEST PUSH1 0x0 PUSH2 0x63F DUP3 PUSH2 0xCDD JUMP JUMPDEST POP POP POP POP SWAP1 POP PUSH2 0x64E DUP2 PUSH2 0x1304 JUMP JUMPDEST POP POP JUMP JUMPDEST PUSH1 0x1 SLOAD PUSH1 0x1 PUSH1 0x1 PUSH1 0xA0 SHL SUB AND CALLER EQ PUSH2 0x69B JUMPI PUSH1 0x40 MLOAD PUSH3 0x461BCD PUSH1 0xE5 SHL DUP2 MSTORE PUSH1 0x4 ADD DUP1 DUP1 PUSH1 0x20 ADD DUP3 DUP2 SUB DUP3 MSTORE PUSH1 0x2E DUP2 MSTORE PUSH1 0x20 ADD DUP1 PUSH2 0x1606 PUSH1 0x2E SWAP2 CODECOPY PUSH1 0x40 ADD SWAP2 POP POP PUSH1 0x40 MLOAD DUP1 SWAP2 SUB SWAP1 REVERT JUMPDEST PUSH1 0x0 DUP1 SLOAD PUSH1 0x1 PUSH1 0x1 PUSH1 0xA0 SHL SUB NOT AND CALLER OR SWAP1 SSTORE JUMP JUMPDEST PUSH1 0x0 SLOAD PUSH1 0x1 PUSH1 0x1 PUSH1 0xA0 SHL SUB AND CALLER EQ PUSH2 0x6F8 JUMPI PUSH1 0x40 MLOAD PUSH3 0x461BCD PUSH1 0xE5 SHL DUP2 MSTORE PUSH1 0x4 ADD DUP1 DUP1 PUSH1 0x20 ADD DUP3 DUP2 SUB DUP3 MSTORE PUSH1 0x27 DUP2 MSTORE PUSH1 0x20 ADD DUP1 PUSH2 0x165B PUSH1 0x27 SWAP2 CODECOPY PUSH1 0x40 ADD SWAP2 POP POP PUSH1 0x40 MLOAD DUP1 SWAP2 SUB SWAP1 REVERT JUMPDEST PUSH2 0x634 DUP2 PUSH2 0xBEB JUMP JUMPDEST PUSH1 0x7 PUSH1 0x20 MSTORE PUSH1 0x0 SWAP1 DUP2 MSTORE PUSH1 0x40 SWAP1 KECCAK256 SLOAD PUSH1 0xFF AND DUP2 JUMP JUMPDEST PUSH1 0x0 PUSH2 0x722 PUSH1 0x2 PUSH2 0x132D JUMP JUMPDEST SWAP1 POP SWAP1 JUMP JUMPDEST PUSH1 0x60 DUP1 PUSH2 0x734 PUSH1 0x2 PUSH2 0x132D JUMP JUMPDEST PUSH1 0x40 MLOAD SWAP1 DUP1 DUP3 MSTORE DUP1 PUSH1 0x20 MUL PUSH1 0x20 ADD DUP3 ADD PUSH1 0x40 MSTORE DUP1 ISZERO PUSH2 0x75D JUMPI DUP2 PUSH1 0x20 ADD PUSH1 0x20 DUP3 MUL DUP1 CODESIZE DUP4 CODECOPY ADD SWAP1 POP JUMPDEST POP SWAP1 POP PUSH1 0x0 JUMPDEST PUSH2 0x76D PUSH1 0x2 PUSH2 0x132D JUMP JUMPDEST DUP2 LT ISZERO PUSH2 0x7B1 JUMPI PUSH2 0x785 PUSH1 0x2 DUP3 PUSH4 0xFFFFFFFF PUSH2 0x1334 AND JUMP JUMPDEST DUP3 DUP3 DUP2 MLOAD DUP2 LT PUSH2 0x791 JUMPI INVALID JUMPDEST PUSH1 0x1 PUSH1 0x1 PUSH1 0xA0 SHL SUB SWAP1 SWAP3 AND PUSH1 0x20 SWAP3 DUP4 MUL SWAP2 SWAP1 SWAP2 ADD SWAP1 SWAP2 ADD MSTORE PUSH1 0x1 ADD PUSH2 0x763 JUMP JUMPDEST POP SWAP1 POP SWAP1 JUMP JUMPDEST PUSH1 0x0 SLOAD PUSH1 0x1 PUSH1 0x1 PUSH1 0xA0 SHL SUB AND DUP2 JUMP JUMPDEST PUSH1 0x0 SLOAD PUSH1 0x1 PUSH1 0x1 PUSH1 0xA0 SHL SUB AND CALLER EQ PUSH2 0x80F JUMPI PUSH1 0x40 MLOAD PUSH3 0x461BCD PUSH1 0xE5 SHL DUP2 MSTORE PUSH1 0x4 ADD DUP1 DUP1 PUSH1 0x20 ADD DUP3 DUP2 SUB DUP3 MSTORE PUSH1 0x27 DUP2 MSTORE PUSH1 0x20 ADD DUP1 PUSH2 0x165B PUSH1 0x27 SWAP2 CODECOPY PUSH1 0x40 ADD SWAP2 POP POP PUSH1 0x40 MLOAD DUP1 SWAP2 SUB SWAP1 REVERT JUMPDEST PUSH2 0x818 DUP2 PUSH2 0xBEB JUMP JUMPDEST PUSH1 0x0 DUP2 PUSH1 0x1 PUSH1 0x1 PUSH1 0xA0 SHL SUB AND PUSH4 0xFBFA77CF PUSH1 0x40 MLOAD DUP2 PUSH4 0xFFFFFFFF AND PUSH1 0xE0 SHL DUP2 MSTORE PUSH1 0x4 ADD PUSH1 0x20 PUSH1 0x40 MLOAD DUP1 DUP4 SUB DUP2 DUP7 DUP1 EXTCODESIZE ISZERO DUP1 ISZERO PUSH2 0x853 JUMPI PUSH1 0x0 DUP1 REVERT JUMPDEST POP GAS STATICCALL ISZERO DUP1 ISZERO PUSH2 0x867 JUMPI RETURNDATASIZE PUSH1 0x0 DUP1 RETURNDATACOPY RETURNDATASIZE PUSH1 0x0 REVERT JUMPDEST POP POP POP POP PUSH1 0x40 MLOAD RETURNDATASIZE PUSH1 0x20 DUP2 LT ISZERO PUSH2 0x87D JUMPI PUSH1 0x0 DUP1 REVERT JUMPDEST POP MLOAD SWAP1 POP PUSH2 0x88B DUP3 DUP3 PUSH2 0x1361 JUMP JUMPDEST PUSH1 0x0 PUSH2 0x896 DUP4 PUSH2 0xCDD JUMP JUMPDEST POP POP POP POP SWAP1 POP PUSH2 0x8A5 DUP2 PUSH2 0x1304 JUMP JUMPDEST POP POP POP JUMP JUMPDEST PUSH1 0x60 DUP1 PUSH1 0x60 DUP1 PUSH1 0x60 DUP1 PUSH2 0x8BD PUSH1 0x2 PUSH2 0x132D JUMP JUMPDEST PUSH1 0x40 MLOAD SWAP1 DUP1 DUP3 MSTORE DUP1 PUSH1 0x20 MUL PUSH1 0x20 ADD DUP3 ADD PUSH1 0x40 MSTORE DUP1 ISZERO PUSH2 0x8E6 JUMPI DUP2 PUSH1 0x20 ADD PUSH1 0x20 DUP3 MUL DUP1 CODESIZE DUP4 CODECOPY ADD SWAP1 POP JUMPDEST POP SWAP6 POP PUSH2 0x8F3 PUSH1 0x2 PUSH2 0x132D JUMP JUMPDEST PUSH1 0x40 MLOAD SWAP1 DUP1 DUP3 MSTORE DUP1 PUSH1 0x20 MUL PUSH1 0x20 ADD DUP3 ADD PUSH1 0x40 MSTORE DUP1 ISZERO PUSH2 0x91C JUMPI DUP2 PUSH1 0x20 ADD PUSH1 0x20 DUP3 MUL DUP1 CODESIZE DUP4 CODECOPY ADD SWAP1 POP JUMPDEST POP SWAP5 POP PUSH2 0x929 PUSH1 0x2 PUSH2 0x132D JUMP JUMPDEST PUSH1 0x40 MLOAD SWAP1 DUP1 DUP3 MSTORE DUP1 PUSH1 0x20 MUL PUSH1 0x20 ADD DUP3 ADD PUSH1 0x40 MSTORE DUP1 ISZERO PUSH2 0x952 JUMPI DUP2 PUSH1 0x20 ADD PUSH1 0x20 DUP3 MUL DUP1 CODESIZE DUP4 CODECOPY ADD SWAP1 POP JUMPDEST POP SWAP4 POP PUSH2 0x95F PUSH1 0x2 PUSH2 0x132D JUMP JUMPDEST PUSH1 0x40 MLOAD SWAP1 DUP1 DUP3 MSTORE DUP1 PUSH1 0x20 MUL PUSH1 0x20 ADD DUP3 ADD PUSH1 0x40 MSTORE DUP1 ISZERO PUSH2 0x988 JUMPI DUP2 PUSH1 0x20 ADD PUSH1 0x20 DUP3 MUL DUP1 CODESIZE DUP4 CODECOPY ADD SWAP1 POP JUMPDEST POP SWAP3 POP PUSH2 0x995 PUSH1 0x2 PUSH2 0x132D JUMP JUMPDEST PUSH1 0x40 MLOAD SWAP1 DUP1 DUP3 MSTORE DUP1 PUSH1 0x20 MUL PUSH1 0x20 ADD DUP3 ADD PUSH1 0x40 MSTORE DUP1 ISZERO PUSH2 0x9BE JUMPI DUP2 PUSH1 0x20 ADD PUSH1 0x20 DUP3 MUL DUP1 CODESIZE DUP4 CODECOPY ADD SWAP1 POP JUMPDEST POP SWAP2 POP PUSH2 0x9CB PUSH1 0x2 PUSH2 0x132D JUMP JUMPDEST PUSH1 0x40 MLOAD SWAP1 DUP1 DUP3 MSTORE DUP1 PUSH1 0x20 MUL PUSH1 0x20 ADD DUP3 ADD PUSH1 0x40 MSTORE DUP1 ISZERO PUSH2 0x9F4 JUMPI DUP2 PUSH1 0x20 ADD PUSH1 0x20 DUP3 MUL DUP1 CODESIZE DUP4 CODECOPY ADD SWAP1 POP JUMPDEST POP SWAP1 POP PUSH1 0x0 JUMPDEST PUSH2 0xA04 PUSH1 0x2 PUSH2 0x132D JUMP JUMPDEST DUP2 LT ISZERO PUSH2 0xB3D JUMPI PUSH2 0xA1C PUSH1 0x2 DUP3 PUSH4 0xFFFFFFFF PUSH2 0x1334 AND JUMP JUMPDEST DUP8 DUP3 DUP2 MLOAD DUP2 LT PUSH2 0xA28 JUMPI INVALID JUMPDEST PUSH1 0x1 PUSH1 0x1 PUSH1 0xA0 SHL SUB SWAP1 SWAP3 AND PUSH1 0x20 SWAP3 DUP4 MUL SWAP2 SWAP1 SWAP2 ADD SWAP1 SWAP2 ADD MSTORE PUSH1 0x0 DUP1 DUP1 DUP1 DUP1 PUSH2 0xA5F PUSH2 0xA5A PUSH1 0x2 DUP9 PUSH4 0xFFFFFFFF PUSH2 0x1334 AND JUMP JUMPDEST PUSH2 0xCDD JUMP JUMPDEST SWAP5 POP SWAP5 POP SWAP5 POP SWAP5 POP SWAP5 POP DUP5 DUP12 DUP8 DUP2 MLOAD DUP2 LT PUSH2 0xA76 JUMPI INVALID JUMPDEST PUSH1 0x20 MUL PUSH1 0x20 ADD ADD SWAP1 PUSH1 0x1 PUSH1 0x1 PUSH1 0xA0 SHL SUB AND SWAP1 DUP2 PUSH1 0x1 PUSH1 0x1 PUSH1 0xA0 SHL SUB AND DUP2 MSTORE POP POP DUP4 DUP11 DUP8 DUP2 MLOAD DUP2 LT PUSH2 0xAA3 JUMPI INVALID JUMPDEST PUSH1 0x20 MUL PUSH1 0x20 ADD ADD SWAP1 PUSH1 0x1 PUSH1 0x1 PUSH1 0xA0 SHL SUB AND SWAP1 DUP2 PUSH1 0x1 PUSH1 0x1 PUSH1 0xA0 SHL SUB AND DUP2 MSTORE POP POP DUP3 DUP10 DUP8 DUP2 MLOAD DUP2 LT PUSH2 0xAD0 JUMPI INVALID JUMPDEST PUSH1 0x20 MUL PUSH1 0x20 ADD ADD SWAP1 PUSH1 0x1 PUSH1 0x1 PUSH1 0xA0 SHL SUB AND SWAP1 DUP2 PUSH1 0x1 PUSH1 0x1 PUSH1 0xA0 SHL SUB AND DUP2 MSTORE POP POP DUP2 DUP9 DUP8 DUP2 MLOAD DUP2 LT PUSH2 0xAFD JUMPI INVALID JUMPDEST PUSH1 0x20 MUL PUSH1 0x20 ADD ADD SWAP1 ISZERO ISZERO SWAP1 DUP2 ISZERO ISZERO DUP2 MSTORE POP POP DUP1 DUP8 DUP8 DUP2 MLOAD DUP2 LT PUSH2 0xB1C JUMPI INVALID JUMPDEST SWAP2 ISZERO ISZERO PUSH1 0x20 SWAP3 DUP4 MUL SWAP2 SWAP1 SWAP2 ADD SWAP1 SWAP2 ADD MSTORE POP POP PUSH1 0x1 SWAP1 SWAP4 ADD SWAP3 POP PUSH2 0x9FA SWAP2 POP POP JUMP JUMPDEST POP SWAP1 SWAP2 SWAP3 SWAP4 SWAP5 SWAP6 JUMP JUMPDEST PUSH1 0x0 DUP1 PUSH1 0x0 DUP1 PUSH1 0x0 PUSH2 0xB57 DUP7 PUSH2 0xCDD JUMP JUMPDEST SWAP4 SWAP11 SWAP3 SWAP10 POP SWAP1 SWAP8 POP SWAP6 POP SWAP1 SWAP4 POP SWAP2 POP POP JUMP JUMPDEST PUSH1 0x0 PUSH2 0xB7C PUSH1 0x2 DUP4 PUSH4 0xFFFFFFFF PUSH2 0x1334 AND JUMP JUMPDEST SWAP3 SWAP2 POP POP JUMP JUMPDEST PUSH1 0x0 SLOAD PUSH1 0x1 PUSH1 0x1 PUSH1 0xA0 SHL SUB AND CALLER EQ PUSH2 0xBCB JUMPI PUSH1 0x40 MLOAD PUSH3 0x461BCD PUSH1 0xE5 SHL DUP2 MSTORE PUSH1 0x4 ADD DUP1 DUP1 PUSH1 0x20 ADD DUP3 DUP2 SUB DUP3 MSTORE PUSH1 0x27 DUP2 MSTORE PUSH1 0x20 ADD DUP1 PUSH2 0x165B PUSH1 0x27 SWAP2 CODECOPY PUSH1 0x40 ADD SWAP2 POP POP PUSH1 0x40 MLOAD DUP1 SWAP2 SUB SWAP1 REVERT JUMPDEST PUSH2 0x64E PUSH1 0x2 DUP3 PUSH4 0xFFFFFFFF PUSH2 0x13F2 AND JUMP JUMPDEST PUSH1 0x1 SLOAD PUSH1 0x1 PUSH1 0x1 PUSH1 0xA0 SHL SUB AND DUP2 JUMP JUMPDEST PUSH2 0xBFD DUP2 PUSH1 0x1 PUSH1 0x1 PUSH1 0xA0 SHL SUB AND PUSH2 0x1505 JUMP JUMPDEST PUSH2 0xC4E JUMPI PUSH1 0x40 DUP1 MLOAD PUSH3 0x461BCD PUSH1 0xE5 SHL DUP2 MSTORE PUSH1 0x20 PUSH1 0x4 DUP3 ADD MSTORE PUSH1 0x17 PUSH1 0x24 DUP3 ADD MSTORE PUSH32 0x5661756C74206973206E6F74206120636F6E7472616374000000000000000000 PUSH1 0x44 DUP3 ADD MSTORE SWAP1 MLOAD SWAP1 DUP2 SWAP1 SUB PUSH1 0x64 ADD SWAP1 REVERT JUMPDEST PUSH2 0xC5F PUSH1 0x2 DUP3 PUSH4 0xFFFFFFFF PUSH2 0x1541 AND JUMP JUMPDEST ISZERO PUSH2 0xCA8 JUMPI PUSH1 0x40 DUP1 MLOAD PUSH3 0x461BCD PUSH1 0xE5 SHL DUP2 MSTORE PUSH1 0x20 PUSH1 0x4 DUP3 ADD MSTORE PUSH1 0x14 PUSH1 0x24 DUP3 ADD MSTORE PUSH20 0x5661756C7420616C726561647920657869737473 PUSH1 0x60 SHL PUSH1 0x44 DUP3 ADD MSTORE SWAP1 MLOAD SWAP1 DUP2 SWAP1 SUB PUSH1 0x64 ADD SWAP1 REVERT JUMPDEST PUSH2 0x64E PUSH1 0x2 DUP3 PUSH4 0xFFFFFFFF PUSH2 0x155F AND JUMP JUMPDEST PUSH1 0x1 PUSH1 0x1 PUSH1 0xA0 SHL SUB AND PUSH1 0x0 SWAP1 DUP2 MSTORE PUSH1 0x7 PUSH1 0x20 MSTORE PUSH1 0x40 SWAP1 KECCAK256 DUP1 SLOAD PUSH1 0xFF NOT AND PUSH1 0x1 OR SWAP1 SSTORE JUMP JUMPDEST PUSH1 0x1 PUSH1 0x1 PUSH1 0xA0 SHL SUB DUP1 DUP3 AND PUSH1 0x0 SWAP1 DUP2 MSTORE PUSH1 0x6 PUSH1 0x20 MSTORE PUSH1 0x40 DUP2 KECCAK256 SLOAD SWAP1 SWAP2 DUP3 SWAP2 DUP3 SWAP2 AND ISZERO DUP1 ISZERO SWAP1 DUP3 SWAP1 DUP7 SWAP1 PUSH2 0xD27 JUMPI POP PUSH1 0x1 PUSH1 0x1 PUSH1 0xA0 SHL SUB DUP1 DUP8 AND PUSH1 0x0 SWAP1 DUP2 MSTORE PUSH1 0x6 PUSH1 0x20 MSTORE PUSH1 0x40 SWAP1 KECCAK256 SLOAD AND JUMPDEST PUSH1 0x1 PUSH1 0x1 PUSH1 0xA0 SHL SUB DUP2 AND PUSH1 0x0 DUP2 DUP2 MSTORE PUSH1 0x7 PUSH1 0x20 SWAP1 DUP2 MSTORE PUSH1 0x40 SWAP2 DUP3 SWAP1 KECCAK256 SLOAD DUP3 MLOAD PUSH4 0xF77C4791 PUSH1 0xE0 SHL DUP2 MSTORE SWAP3 MLOAD PUSH1 0xFF SWAP1 SWAP2 AND SWAP6 POP PUSH4 0xF77C4791 SWAP3 PUSH1 0x4 DUP1 DUP3 ADD SWAP4 SWAP3 SWAP2 DUP3 SWAP1 SUB ADD DUP2 DUP7 DUP1 EXTCODESIZE ISZERO DUP1 ISZERO PUSH2 0xD7B JUMPI PUSH1 0x0 DUP1 REVERT JUMPDEST POP GAS STATICCALL ISZERO DUP1 ISZERO PUSH2 0xD8F JUMPI RETURNDATASIZE PUSH1 0x0 DUP1 RETURNDATACOPY RETURNDATASIZE PUSH1 0x0 REVERT JUMPDEST POP POP POP POP PUSH1 0x40 MLOAD RETURNDATASIZE PUSH1 0x20 DUP2 LT ISZERO PUSH2 0xDA5 JUMPI PUSH1 0x0 DUP1 REVERT JUMPDEST POP MLOAD SWAP6 POP DUP3 DUP1 ISZERO PUSH2 0xE2D JUMPI POP PUSH1 0x0 PUSH1 0x1 PUSH1 0x1 PUSH1 0xA0 SHL SUB AND DUP2 PUSH1 0x1 PUSH1 0x1 PUSH1 0xA0 SHL SUB AND PUSH4 0x6F307DC3 PUSH1 0x40 MLOAD DUP2 PUSH4 0xFFFFFFFF AND PUSH1 0xE0 SHL DUP2 MSTORE PUSH1 0x4 ADD PUSH1 0x20 PUSH1 0x40 MLOAD DUP1 DUP4 SUB DUP2 DUP7 DUP1 EXTCODESIZE ISZERO DUP1 ISZERO PUSH2 0xDF5 JUMPI PUSH1 0x0 DUP1 REVERT JUMPDEST POP GAS STATICCALL ISZERO DUP1 ISZERO PUSH2 0xE09 JUMPI RETURNDATASIZE PUSH1 0x0 DUP1 RETURNDATACOPY RETURNDATASIZE PUSH1 0x0 REVERT JUMPDEST POP POP POP POP PUSH1 0x40 MLOAD RETURNDATASIZE PUSH1 0x20 DUP2 LT ISZERO PUSH2 0xE1F JUMPI PUSH1 0x0 DUP1 REVERT JUMPDEST POP MLOAD PUSH1 0x1 PUSH1 0x1 PUSH1 0xA0 SHL SUB AND EQ ISZERO JUMPDEST ISZERO PUSH2 0xE9E JUMPI DUP7 PUSH1 0x1 PUSH1 0x1 PUSH1 0xA0 SHL SUB AND PUSH4 0xFC0C546A PUSH1 0x40 MLOAD DUP2 PUSH4 0xFFFFFFFF AND PUSH1 0xE0 SHL DUP2 MSTORE PUSH1 0x4 ADD PUSH1 0x20 PUSH1 0x40 MLOAD DUP1 DUP4 SUB DUP2 DUP7 DUP1 EXTCODESIZE ISZERO DUP1 ISZERO PUSH2 0xE6B JUMPI PUSH1 0x0 DUP1 REVERT JUMPDEST POP GAS STATICCALL ISZERO DUP1 ISZERO PUSH2 0xE7F JUMPI RETURNDATASIZE PUSH1 0x0 DUP1 RETURNDATACOPY RETURNDATASIZE PUSH1 0x0 REVERT JUMPDEST POP POP POP POP PUSH1 0x40 MLOAD RETURNDATASIZE PUSH1 0x20 DUP2 LT ISZERO PUSH2 0xE95 JUMPI PUSH1 0x0 DUP1 REVERT JUMPDEST POP MLOAD SWAP5 POP PUSH2 0xF06 JUMP JUMPDEST DUP1 PUSH1 0x1 PUSH1 0x1 PUSH1 0xA0 SHL SUB AND PUSH4 0xFC0C546A PUSH1 0x40 MLOAD DUP2 PUSH4 0xFFFFFFFF AND PUSH1 0xE0 SHL DUP2 MSTORE PUSH1 0x4 ADD PUSH1 0x20 PUSH1 0x40 MLOAD DUP1 DUP4 SUB DUP2 DUP7 DUP1 EXTCODESIZE ISZERO DUP1 ISZERO PUSH2 0xED7 JUMPI PUSH1 0x0 DUP1 REVERT JUMPDEST POP GAS STATICCALL ISZERO DUP1 ISZERO PUSH2 0xEEB JUMPI RETURNDATASIZE PUSH1 0x0 DUP1 RETURNDATACOPY RETURNDATASIZE PUSH1 0x0 REVERT JUMPDEST POP POP POP POP PUSH1 0x40 MLOAD RETURNDATASIZE PUSH1 0x20 DUP2 LT ISZERO PUSH2 0xF01 JUMPI PUSH1 0x0 DUP1 REVERT JUMPDEST POP MLOAD SWAP5 POP JUMPDEST DUP2 ISZERO PUSH2 0xF95 JUMPI DUP6 PUSH1 0x1 PUSH1 0x1 PUSH1 0xA0 SHL SUB AND PUSH4 0x39EBF823 DUP3 PUSH1 0x40 MLOAD DUP3 PUSH4 0xFFFFFFFF AND PUSH1 0xE0 SHL DUP2 MSTORE PUSH1 0x4 ADD DUP1 DUP3 PUSH1 0x1 PUSH1 0x1 PUSH1 0xA0 SHL SUB AND PUSH1 0x1 PUSH1 0x1 PUSH1 0xA0 SHL SUB AND DUP2 MSTORE PUSH1 0x20 ADD SWAP2 POP POP PUSH1 0x20 PUSH1 0x40 MLOAD DUP1 DUP4 SUB DUP2 DUP7 DUP1 EXTCODESIZE ISZERO DUP1 ISZERO PUSH2 0xF62 JUMPI PUSH1 0x0 DUP1 REVERT JUMPDEST POP GAS STATICCALL ISZERO DUP1 ISZERO PUSH2 0xF76 JUMPI RETURNDATASIZE PUSH1 0x0 DUP1 RETURNDATACOPY RETURNDATASIZE PUSH1 0x0 REVERT JUMPDEST POP POP POP POP PUSH1 0x40 MLOAD RETURNDATASIZE PUSH1 0x20 DUP2 LT ISZERO PUSH2 0xF8C JUMPI PUSH1 0x0 DUP1 REVERT JUMPDEST POP MLOAD SWAP4 POP PUSH2 0x101A JUMP JUMPDEST DUP6 PUSH1 0x1 PUSH1 0x1 PUSH1 0xA0 SHL SUB AND PUSH4 0x39EBF823 DUP7 PUSH1 0x40 MLOAD DUP3 PUSH4 0xFFFFFFFF AND PUSH1 0xE0 SHL DUP2 MSTORE PUSH1 0x4 ADD DUP1 DUP3 PUSH1 0x1 PUSH1 0x1 PUSH1 0xA0 SHL SUB AND PUSH1 0x1 PUSH1 0x1 PUSH1 0xA0 SHL SUB AND DUP2 MSTORE PUSH1 0x20 ADD SWAP2 POP POP PUSH1 0x20 PUSH1 0x40 MLOAD DUP1 DUP4 SUB DUP2 DUP7 DUP1 EXTCODESIZE ISZERO DUP1 ISZERO PUSH2 0xFEB JUMPI PUSH1 0x0 DUP1 REVERT JUMPDEST POP GAS STATICCALL ISZERO DUP1 ISZERO PUSH2 0xFFF JUMPI RETURNDATASIZE PUSH1 0x0 DUP1 RETURNDATACOPY RETURNDATASIZE PUSH1 0x0 REVERT JUMPDEST POP POP POP POP PUSH1 0x40 MLOAD RETURNDATASIZE PUSH1 0x20 DUP2 LT ISZERO PUSH2 0x1015 JUMPI PUSH1 0x0 DUP1 REVERT JUMPDEST POP MLOAD SWAP4 POP JUMPDEST PUSH1 0x0 DUP3 ISZERO PUSH2 0x10AB JUMPI DUP7 PUSH1 0x1 PUSH1 0x1 PUSH1 0xA0 SHL SUB AND PUSH4 0xA622EE7C DUP7 PUSH1 0x40 MLOAD DUP3 PUSH4 0xFFFFFFFF AND PUSH1 0xE0 SHL DUP2 MSTORE PUSH1 0x4 ADD DUP1 DUP3 PUSH1 0x1 PUSH1 0x1 PUSH1 0xA0 SHL SUB AND PUSH1 0x1 PUSH1 0x1 PUSH1 0xA0 SHL SUB AND DUP2 MSTORE PUSH1 0x20 ADD SWAP2 POP POP PUSH1 0x20 PUSH1 0x40 MLOAD DUP1 DUP4 SUB DUP2 DUP7 DUP1 EXTCODESIZE ISZERO DUP1 ISZERO PUSH2 0x1078 JUMPI PUSH1 0x0 DUP1 REVERT JUMPDEST POP GAS STATICCALL ISZERO DUP1 ISZERO PUSH2 0x108C JUMPI RETURNDATASIZE PUSH1 0x0 DUP1 RETURNDATACOPY RETURNDATASIZE PUSH1 0x0 REVERT JUMPDEST POP POP POP POP PUSH1 0x40 MLOAD RETURNDATASIZE PUSH1 0x20 DUP2 LT ISZERO PUSH2 0x10A2 JUMPI PUSH1 0x0 DUP1 REVERT JUMPDEST POP MLOAD SWAP1 POP PUSH2 0x1130 JUMP JUMPDEST DUP7 PUSH1 0x1 PUSH1 0x1 PUSH1 0xA0 SHL SUB AND PUSH4 0xA622EE7C DUP8 PUSH1 0x40 MLOAD DUP3 PUSH4 0xFFFFFFFF AND PUSH1 0xE0 SHL DUP2 MSTORE PUSH1 0x4 ADD DUP1 DUP3 PUSH1 0x1 PUSH1 0x1 PUSH1 0xA0 SHL SUB AND PUSH1 0x1 PUSH1 0x1 PUSH1 0xA0 SHL SUB AND DUP2 MSTORE PUSH1 0x20 ADD SWAP2 POP POP PUSH1 0x20 PUSH1 0x40 MLOAD DUP1 DUP4 SUB DUP2 DUP7 DUP1 EXTCODESIZE ISZERO DUP1 ISZERO PUSH2 0x1101 JUMPI PUSH1 0x0 DUP1 REVERT JUMPDEST POP GAS STATICCALL ISZERO DUP1 ISZERO PUSH2 0x1115 JUMPI RETURNDATASIZE PUSH1 0x0 DUP1 RETURNDATACOPY RETURNDATASIZE PUSH1 0x0 REVERT JUMPDEST POP POP POP POP PUSH1 0x40 MLOAD RETURNDATASIZE PUSH1 0x20 DUP2 LT ISZERO PUSH2 0x112B JUMPI PUSH1 0x0 DUP1 REVERT JUMPDEST POP MLOAD SWAP1 POP JUMPDEST DUP2 PUSH1 0x1 PUSH1 0x1 PUSH1 0xA0 SHL SUB AND DUP2 PUSH1 0x1 PUSH1 0x1 PUSH1 0xA0 SHL SUB AND EQ PUSH2 0x1180 JUMPI PUSH1 0x40 MLOAD PUSH3 0x461BCD PUSH1 0xE5 SHL DUP2 MSTORE PUSH1 0x4 ADD DUP1 DUP1 PUSH1 0x20 ADD DUP3 DUP2 SUB DUP3 MSTORE PUSH1 0x27 DUP2 MSTORE PUSH1 0x20 ADD DUP1 PUSH2 0x1634 PUSH1 0x27 SWAP2 CODECOPY PUSH1 0x40 ADD SWAP2 POP POP PUSH1 0x40 MLOAD DUP1 SWAP2 SUB SWAP1 REVERT JUMPDEST DUP4 ISZERO PUSH2 0x123F JUMPI PUSH1 0x0 DUP3 PUSH1 0x1 PUSH1 0x1 PUSH1 0xA0 SHL SUB AND PUSH4 0x6F307DC3 PUSH1 0x40 MLOAD DUP2 PUSH4 0xFFFFFFFF AND PUSH1 0xE0 SHL DUP2 MSTORE PUSH1 0x4 ADD PUSH1 0x20 PUSH1 0x40 MLOAD DUP1 DUP4 SUB DUP2 DUP7 DUP1 EXTCODESIZE ISZERO DUP1 ISZERO PUSH2 0x11C1 JUMPI PUSH1 0x0 DUP1 REVERT JUMPDEST POP GAS STATICCALL ISZERO DUP1 ISZERO PUSH2 0x11D5 JUMPI RETURNDATASIZE PUSH1 0x0 DUP1 RETURNDATACOPY RETURNDATASIZE PUSH1 0x0 REVERT JUMPDEST POP POP POP POP PUSH1 0x40 MLOAD RETURNDATASIZE PUSH1 0x20 DUP2 LT ISZERO PUSH2 0x11EB JUMPI PUSH1 0x0 DUP1 REVERT JUMPDEST POP MLOAD SWAP1 POP PUSH1 0x1 PUSH1 0x1 PUSH1 0xA0 SHL SUB DUP1 DUP3 AND SWAP1 DUP9 AND EQ PUSH2 0x1239 JUMPI PUSH1 0x40 MLOAD PUSH3 0x461BCD PUSH1 0xE5 SHL DUP2 MSTORE PUSH1 0x4 ADD DUP1 DUP1 PUSH1 0x20 ADD DUP3 DUP2 SUB DUP3 MSTORE PUSH1 0x29 DUP2 MSTORE PUSH1 0x20 ADD DUP1 PUSH2 0x15DD PUSH1 0x29 SWAP2 CODECOPY PUSH1 0x40 ADD SWAP2 POP POP PUSH1 0x40 MLOAD DUP1 SWAP2 SUB SWAP1 REVERT JUMPDEST POP PUSH2 0x12F9 JUMP JUMPDEST DUP3 PUSH2 0x12F9 JUMPI PUSH1 0x0 DUP6 PUSH1 0x1 PUSH1 0x1 PUSH1 0xA0 SHL SUB AND PUSH4 0x1F1FCD51 PUSH1 0x40 MLOAD DUP2 PUSH4 0xFFFFFFFF AND PUSH1 0xE0 SHL DUP2 MSTORE PUSH1 0x4 ADD PUSH1 0x20 PUSH1 0x40 MLOAD DUP1 DUP4 SUB DUP2 DUP7 DUP1 EXTCODESIZE ISZERO DUP1 ISZERO PUSH2 0x127F JUMPI PUSH1 0x0 DUP1 REVERT JUMPDEST POP GAS STATICCALL ISZERO DUP1 ISZERO PUSH2 0x1293 JUMPI RETURNDATASIZE PUSH1 0x0 DUP1 RETURNDATACOPY RETURNDATASIZE PUSH1 0x0 REVERT JUMPDEST POP POP POP POP PUSH1 0x40 MLOAD RETURNDATASIZE PUSH1 0x20 DUP2 LT ISZERO PUSH2 0x12A9 JUMPI PUSH1 0x0 DUP1 REVERT JUMPDEST POP MLOAD SWAP1 POP PUSH1 0x1 PUSH1 0x1 PUSH1 0xA0 SHL SUB DUP8 DUP2 AND SWAP1 DUP3 AND EQ PUSH2 0x12F7 JUMPI PUSH1 0x40 MLOAD PUSH3 0x461BCD PUSH1 0xE5 SHL DUP2 MSTORE PUSH1 0x4 ADD DUP1 DUP1 PUSH1 0x20 ADD DUP3 DUP2 SUB DUP3 MSTORE PUSH1 0x25 DUP2 MSTORE PUSH1 0x20 ADD DUP1 PUSH2 0x15B8 PUSH1 0x25 SWAP2 CODECOPY PUSH1 0x40 ADD SWAP2 POP POP PUSH1 0x40 MLOAD DUP1 SWAP2 SUB SWAP1 REVERT JUMPDEST POP JUMPDEST POP POP SWAP2 SWAP4 SWAP6 SWAP1 SWAP3 SWAP5 POP JUMP JUMPDEST PUSH2 0x1315 PUSH1 0x4 DUP3 PUSH4 0xFFFFFFFF PUSH2 0x1541 AND JUMP JUMPDEST PUSH2 0x132A JUMPI PUSH2 0x64E PUSH1 0x4 DUP3 PUSH4 0xFFFFFFFF PUSH2 0x155F AND JUMP JUMPDEST POP JUMP JUMPDEST PUSH1 0x1 ADD SLOAD SWAP1 JUMP JUMPDEST PUSH1 0x0 DUP3 PUSH1 0x1 ADD DUP3 DUP2 SLOAD DUP2 LT PUSH2 0x1345 JUMPI INVALID JUMPDEST PUSH1 0x0 SWAP2 DUP3 MSTORE PUSH1 0x20 SWAP1 SWAP2 KECCAK256 ADD SLOAD PUSH1 0x1 PUSH1 0x1 PUSH1 0xA0 SHL SUB AND SWAP4 SWAP3 POP POP POP JUMP JUMPDEST PUSH2 0x1373 DUP2 PUSH1 0x1 PUSH1 0x1 PUSH1 0xA0 SHL SUB AND PUSH2 0x1505 JUMP JUMPDEST PUSH2 0x13C4 JUMPI PUSH1 0x40 DUP1 MLOAD PUSH3 0x461BCD PUSH1 0xE5 SHL DUP2 MSTORE PUSH1 0x20 PUSH1 0x4 DUP3 ADD MSTORE PUSH1 0x1E PUSH1 0x24 DUP3 ADD MSTORE PUSH32 0x577261707065645661756C74206973206E6F74206120636F6E74726163740000 PUSH1 0x44 DUP3 ADD MSTORE SWAP1 MLOAD SWAP1 DUP2 SWAP1 SUB PUSH1 0x64 ADD SWAP1 REVERT JUMPDEST PUSH1 0x1 PUSH1 0x1 PUSH1 0xA0 SHL SUB SWAP2 DUP3 AND PUSH1 0x0 SWAP1 DUP2 MSTORE PUSH1 0x6 PUSH1 0x20 MSTORE PUSH1 0x40 SWAP1 KECCAK256 DUP1 SLOAD PUSH1 0x1 PUSH1 0x1 PUSH1 0xA0 SHL SUB NOT AND SWAP2 SWAP1 SWAP3 AND OR SWAP1 SSTORE JUMP JUMPDEST PUSH1 0x0 PUSH2 0x13FE DUP4 DUP4 PUSH2 0x1541 JUMP JUMPDEST ISZERO PUSH2 0x14FD JUMPI PUSH1 0x1 PUSH1 0x1 PUSH1 0xA0 SHL SUB DUP3 AND PUSH1 0x0 SWAP1 DUP2 MSTORE PUSH1 0x20 DUP5 SWAP1 MSTORE PUSH1 0x40 SWAP1 KECCAK256 SLOAD PUSH1 0x1 DUP5 ADD SLOAD PUSH1 0x0 NOT SWAP2 DUP3 ADD SWAP2 ADD DUP1 DUP3 EQ PUSH2 0x14A9 JUMPI PUSH1 0x0 DUP6 PUSH1 0x1 ADD DUP3 DUP2 SLOAD DUP2 LT PUSH2 0x1441 JUMPI INVALID JUMPDEST PUSH1 0x0 SWAP2 DUP3 MSTORE PUSH1 0x20 SWAP1 SWAP2 KECCAK256 ADD SLOAD PUSH1 0x1 DUP8 ADD DUP1 SLOAD PUSH1 0x1 PUSH1 0x1 PUSH1 0xA0 SHL SUB SWAP1 SWAP3 AND SWAP3 POP DUP3 SWAP2 DUP6 SWAP1 DUP2 LT PUSH2 0x146C JUMPI INVALID JUMPDEST PUSH1 0x0 SWAP2 DUP3 MSTORE PUSH1 0x20 DUP1 DUP4 KECCAK256 SWAP2 SWAP1 SWAP2 ADD DUP1 SLOAD PUSH1 0x1 PUSH1 0x1 PUSH1 0xA0 SHL SUB NOT AND PUSH1 0x1 PUSH1 0x1 PUSH1 0xA0 SHL SUB SWAP5 DUP6 AND OR SWAP1 SSTORE SWAP3 SWAP1 SWAP2 AND DUP2 MSTORE SWAP1 DUP7 SWAP1 MSTORE PUSH1 0x40 SWAP1 KECCAK256 PUSH1 0x1 DUP4 ADD SWAP1 SSTORE JUMPDEST PUSH1 0x1 PUSH1 0x1 PUSH1 0xA0 SHL SUB DUP5 AND PUSH1 0x0 SWAP1 DUP2 MSTORE PUSH1 0x20 DUP7 SWAP1 MSTORE PUSH1 0x40 DUP2 KECCAK256 SSTORE PUSH1 0x1 DUP6 ADD DUP1 SLOAD DUP1 PUSH2 0x14CF JUMPI INVALID JUMPDEST PUSH1 0x0 DUP3 DUP2 MSTORE PUSH1 0x20 SWAP1 KECCAK256 DUP2 ADD PUSH1 0x0 NOT SWAP1 DUP2 ADD DUP1 SLOAD PUSH1 0x1 PUSH1 0x1 PUSH1 0xA0 SHL SUB NOT AND SWAP1 SSTORE ADD SWAP1 SSTORE POP PUSH1 0x1 SWAP2 POP PUSH2 0xB7C SWAP1 POP JUMP JUMPDEST POP PUSH1 0x0 PUSH2 0xB7C JUMP JUMPDEST PUSH1 0x0 DUP2 EXTCODEHASH PUSH32 0xC5D2460186F7233C927E7DB2DCC703C0E500B653CA82273B7BFAD8045D85A470 DUP2 DUP2 EQ DUP1 ISZERO SWAP1 PUSH2 0x1539 JUMPI POP DUP2 ISZERO ISZERO JUMPDEST SWAP5 SWAP4 POP POP POP POP JUMP JUMPDEST PUSH1 0x1 PUSH1 0x1 PUSH1 0xA0 SHL SUB AND PUSH1 0x0 SWAP1 DUP2 MSTORE PUSH1 0x20 SWAP2 SWAP1 SWAP2 MSTORE PUSH1 0x40 SWAP1 KECCAK256 SLOAD ISZERO ISZERO SWAP1 JUMP JUMPDEST PUSH1 0x0 PUSH2 0x156B DUP4 DUP4 PUSH2 0x1541 JUMP JUMPDEST PUSH2 0x14FD JUMPI POP PUSH1 0x1 DUP3 DUP2 ADD DUP1 SLOAD DUP1 DUP4 ADD DUP1 DUP4 SSTORE PUSH1 0x0 SWAP3 DUP4 MSTORE PUSH1 0x20 DUP1 DUP5 KECCAK256 SWAP1 SWAP3 ADD DUP1 SLOAD PUSH1 0x1 PUSH1 0x1 PUSH1 0xA0 SHL SUB NOT AND PUSH1 0x1 PUSH1 0x1 PUSH1 0xA0 SHL SUB DUP8 AND SWAP1 DUP2 OR SWAP1 SWAP2 SSTORE DUP4 MSTORE SWAP1 DUP6 SWAP1 MSTORE PUSH1 0x40 SWAP1 SWAP2 KECCAK256 SSTORE PUSH2 0xB7C JUMP INVALID MSTORE8 PUSH21 0x72617465677920746F6B656E206164647265737320 PUSH5 0x6F6573206E PUSH16 0x74206D61746368577261707065645661 PUSH22 0x6C7420746F6B656E206164647265737320646F657320 PUSH15 0x6F74206D617463684F6E6C79207065 PUSH15 0x64696E67476F7665726E616E636520 PUSH4 0x616E2063 PUSH2 0x6C6C KECCAK256 PUSH21 0x6869732066756E6374696F6E2E436F6E74726F6C6C PUSH6 0x72207661756C PUSH21 0x206164647265737320646F6573206E6F74206D6174 PUSH4 0x684F6E6C PUSH26 0x20676F7665726E616E63652063616E2063616C6C207468697320 PUSH7 0x756E6374696F6E 0x2E LOG2 PUSH6 0x627A7A723158 KECCAK256 0xAB ADDRESS SWAP11 0xD0 0xA9 0x2C DUP12 0xD0 SIGNEXTEND 0xD7 LOG3 0xBF 0xA5 0xCA 0xBD 0x4F 0xAE PUSH2 0x191C PUSH9 0xFA518680A5A32DEFA0 CALLER PUSH21 0x64736F6C6343000511003200000000000000000000 ",
  "sha1": "97c8b152888039d18d571db751cf05893adf180a",
  "source": "// SPDX-License-Identifier: MIT\n\npragma solidity ^0.5.17;\n\nimport \"@openzeppelinV2/contracts/math/SafeMath.sol\";\nimport \"@openzeppelinV2/contracts/utils/Address.sol\";\nimport \"@openzeppelinV2/contracts/utils/EnumerableSet.sol\";\n\nimport \"../../interfaces/yearn/IController.sol\";\nimport \"../../interfaces/yearn/IStrategy.sol\";\nimport \"../../interfaces/yearn/IVault.sol\";\nimport \"../../interfaces/yearn/IWrappedVault.sol\";\n\ncontract YRegistry {\n    using Address for address;\n    using SafeMath for uint256;\n    using EnumerableSet for EnumerableSet.AddressSet;\n\n    address public governance;\n    address public pendingGovernance;\n\n    EnumerableSet.AddressSet private vaults;\n    EnumerableSet.AddressSet private controllers;\n\n    mapping(address => address) private wrappedVaults;\n\n    mapping(address => bool) public isDelegatedVault;\n\n    constructor(address _governance) public {\n        require(_governance != address(0), \"Missing Governance\");\n        governance = _governance;\n    }\n\n    function getName() external pure returns (string memory) {\n        return \"YRegistry\";\n    }\n\n    function addVault(address _vault) public onlyGovernance {\n        setVault(_vault);\n\n        (address controller, , , , ) = getVaultData(_vault);\n\n        setController(controller);\n    }\n\n    function addWrappedVault(address _vault) public onlyGovernance {\n        setVault(_vault);\n        address wrappedVault = IWrappedVault(_vault).vault();\n        setWrappedVault(_vault, wrappedVault);\n\n        (address controller, , , , ) = getVaultData(_vault);\n\n        // Adds to controllers array\n        setController(controller);\n        // TODO Add and track tokens and strategies? [historical]\n        // (current ones can be obtained via getVaults + getVaultInfo)\n    }\n\n    function addDelegatedVault(address _vault) public onlyGovernance {\n        setVault(_vault);\n        setDelegatedVault(_vault);\n\n        (address controller, , , , ) = getVaultData(_vault);\n\n        // Adds to controllers array\n        setController(controller);\n        // TODO Add and track tokens and strategies? [historical]\n        // (current ones can be obtained via getVaults + getVaultInfo)\n    }\n\n    function setVault(address _vault) internal {\n        require(_vault.isContract(), \"Vault is not a contract\");\n        // Checks if vault is already on the array\n        require(!vaults.contains(_vault), \"Vault already exists\");\n        // Adds unique _vault to vaults array\n        vaults.add(_vault);\n    }\n\n    function setWrappedVault(address _vault, address _wrappedVault) internal {\n        require(_wrappedVault.isContract(), \"WrappedVault is not a contract\");\n        wrappedVaults[_vault] = _wrappedVault;\n    }\n\n    function setDelegatedVault(address _vault) internal {\n        // TODO Is there any way to check if a vault is delegated\n        isDelegatedVault[_vault] = true;\n    }\n\n    function setController(address _controller) internal {\n        // Adds Controller to controllers array\n        if (!controllers.contains(_controller)) {\n            controllers.add(_controller);\n        }\n    }\n\n    function removeVault(address _vault) public onlyGovernance {\n        vaults.remove(_vault);\n    }\n\n    function getVaultData(address _vault)\n        internal\n        view\n        returns (\n            address controller,\n            address token,\n            address strategy,\n            bool isWrapped,\n            bool isDelegated\n        )\n    {\n        address vault = _vault;\n        isWrapped = wrappedVaults[_vault] != address(0);\n        if (isWrapped) {\n            vault = wrappedVaults[_vault];\n        }\n        isDelegated = isDelegatedVault[vault];\n\n        // Get values from controller\n        controller = IVault(vault).controller();\n        if (isWrapped && IVault(vault).underlying() != address(0)) {\n            token = IVault(_vault).token(); // Use non-wrapped vault\n        } else {\n            token = IVault(vault).token();\n        }\n\n        if (isDelegated) {\n            strategy = IController(controller).strategies(vault);\n        } else {\n            strategy = IController(controller).strategies(token);\n        }\n\n        // Check if vault is set on controller for token\n        address controllerVault = address(0);\n        if (isDelegated) {\n            controllerVault = IController(controller).vaults(strategy);\n        } else {\n            controllerVault = IController(controller).vaults(token);\n        }\n        require(controllerVault == vault, \"Controller vault address does not match\"); // Might happen on Proxy Vaults\n\n        // Check if strategy has the same token as vault\n        if (isWrapped) {\n            address underlying = IVault(vault).underlying();\n            require(underlying == token, \"WrappedVault token address does not match\"); // Might happen?\n        } else if (!isDelegated) {\n            address strategyToken = IStrategy(strategy).want();\n            require(token == strategyToken, \"Strategy token address does not match\"); // Might happen?\n        }\n\n        return (controller, token, strategy, isWrapped, isDelegated);\n    }\n\n    // Vaults getters\n    function getVault(uint256 index) external view returns (address vault) {\n        return vaults.get(index);\n    }\n\n    function getVaultsLength() external view returns (uint256) {\n        return vaults.length();\n    }\n\n    function getVaults() external view returns (address[] memory) {\n        address[] memory vaultsArray = new address[](vaults.length());\n        for (uint256 i = 0; i < vaults.length(); i++) {\n            vaultsArray[i] = vaults.get(i);\n        }\n        return vaultsArray;\n    }\n\n    function getVaultInfo(address _vault)\n        external\n        view\n        returns (\n            address controller,\n            address token,\n            address strategy,\n            bool isWrapped,\n            bool isDelegated\n        )\n    {\n        (controller, token, strategy, isWrapped, isDelegated) = getVaultData(_vault);\n        return (controller, token, strategy, isWrapped, isDelegated);\n    }\n\n    function getVaultsInfo()\n        external\n        view\n        returns (\n            address[] memory vaultsAddresses,\n            address[] memory controllerArray,\n            address[] memory tokenArray,\n            address[] memory strategyArray,\n            bool[] memory isWrappedArray,\n            bool[] memory isDelegatedArray\n        )\n    {\n        vaultsAddresses = new address[](vaults.length());\n        controllerArray = new address[](vaults.length());\n        tokenArray = new address[](vaults.length());\n        strategyArray = new address[](vaults.length());\n        isWrappedArray = new bool[](vaults.length());\n        isDelegatedArray = new bool[](vaults.length());\n\n        for (uint256 i = 0; i < vaults.length(); i++) {\n            vaultsAddresses[i] = vaults.get(i);\n            (address _controller, address _token, address _strategy, bool _isWrapped, bool _isDelegated) = getVaultData(vaults.get(i));\n            controllerArray[i] = _controller;\n            tokenArray[i] = _token;\n            strategyArray[i] = _strategy;\n            isWrappedArray[i] = _isWrapped;\n            isDelegatedArray[i] = _isDelegated;\n        }\n    }\n\n    // Governance setters\n    function setPendingGovernance(address _pendingGovernance) external onlyGovernance {\n        pendingGovernance = _pendingGovernance;\n    }\n\n    function acceptGovernance() external onlyPendingGovernance {\n        governance = msg.sender;\n    }\n\n    modifier onlyGovernance {\n        require(msg.sender == governance, \"Only governance can call this function.\");\n        _;\n    }\n    modifier onlyPendingGovernance {\n        require(msg.sender == pendingGovernance, \"Only pendingGovernance can call this function.\");\n        _;\n    }\n}\n",
  "sourcePath": "contracts/registries/YRegistry.sol",
  "type": "contract"
}