{
  "abi": [
    {
      "inputs": [
        {
          "internalType": "address",
          "name": "_weth",
          "type": "address"
        },
        {
          "internalType": "address",
          "name": "_registry",
          "type": "address"
        }
      ],
      "stateMutability": "nonpayable",
      "type": "constructor"
    },
    {
      "anonymous": false,
      "inputs": [
        {
          "indexed": true,
          "internalType": "address",
          "name": "owner",
          "type": "address"
        },
        {
          "indexed": true,
          "internalType": "address",
          "name": "spender",
          "type": "address"
        },
        {
          "indexed": false,
          "internalType": "uint256",
          "name": "value",
          "type": "uint256"
        }
      ],
      "name": "Approval",
      "type": "event"
    },
    {
      "anonymous": false,
      "inputs": [
        {
          "indexed": true,
          "internalType": "address",
          "name": "from",
          "type": "address"
        },
        {
          "indexed": true,
          "internalType": "address",
          "name": "to",
          "type": "address"
        },
        {
          "indexed": false,
          "internalType": "uint256",
          "name": "value",
          "type": "uint256"
        }
      ],
      "name": "Transfer",
      "type": "event"
    },
    {
      "inputs": [],
      "name": "allVaults",
      "outputs": [
        {
          "internalType": "contract VaultAPI[]",
          "name": "",
          "type": "address[]"
        }
      ],
      "stateMutability": "view",
      "type": "function"
    },
    {
      "inputs": [
        {
          "internalType": "address",
          "name": "",
          "type": "address"
        },
        {
          "internalType": "address",
          "name": "",
          "type": "address"
        }
      ],
      "name": "allowance",
      "outputs": [
        {
          "internalType": "uint256",
          "name": "",
          "type": "uint256"
        }
      ],
      "stateMutability": "view",
      "type": "function"
    },
    {
      "inputs": [
        {
          "internalType": "address",
          "name": "spender",
          "type": "address"
        },
        {
          "internalType": "uint256",
          "name": "amount",
          "type": "uint256"
        }
      ],
      "name": "approve",
      "outputs": [
        {
          "internalType": "bool",
          "name": "",
          "type": "bool"
        }
      ],
      "stateMutability": "nonpayable",
      "type": "function"
    },
    {
      "inputs": [
        {
          "internalType": "address",
          "name": "account",
          "type": "address"
        }
      ],
      "name": "balanceOf",
      "outputs": [
        {
          "internalType": "uint256",
          "name": "balance",
          "type": "uint256"
        }
      ],
      "stateMutability": "view",
      "type": "function"
    },
    {
      "inputs": [],
      "name": "bestVault",
      "outputs": [
        {
          "internalType": "contract VaultAPI",
          "name": "",
          "type": "address"
        }
      ],
      "stateMutability": "view",
      "type": "function"
    },
    {
      "inputs": [],
      "name": "decimals",
      "outputs": [
        {
          "internalType": "uint256",
          "name": "",
          "type": "uint256"
        }
      ],
      "stateMutability": "view",
      "type": "function"
    },
    {
      "inputs": [
        {
          "internalType": "address",
          "name": "spender",
          "type": "address"
        },
        {
          "internalType": "uint256",
          "name": "subtractedValue",
          "type": "uint256"
        }
      ],
      "name": "decreaseAllowance",
      "outputs": [
        {
          "internalType": "bool",
          "name": "",
          "type": "bool"
        }
      ],
      "stateMutability": "nonpayable",
      "type": "function"
    },
    {
      "inputs": [
        {
          "internalType": "uint256",
          "name": "amount",
          "type": "uint256"
        }
      ],
      "name": "deposit",
      "outputs": [
        {
          "internalType": "uint256",
          "name": "",
          "type": "uint256"
        }
      ],
      "stateMutability": "nonpayable",
      "type": "function"
    },
    {
      "inputs": [],
      "name": "depositETH",
      "outputs": [
        {
          "internalType": "uint256",
          "name": "",
          "type": "uint256"
        }
      ],
      "stateMutability": "payable",
      "type": "function"
    },
    {
      "inputs": [
        {
          "internalType": "address",
          "name": "spender",
          "type": "address"
        },
        {
          "internalType": "uint256",
          "name": "addedValue",
          "type": "uint256"
        }
      ],
      "name": "increaseAllowance",
      "outputs": [
        {
          "internalType": "bool",
          "name": "",
          "type": "bool"
        }
      ],
      "stateMutability": "nonpayable",
      "type": "function"
    },
    {
      "inputs": [
        {
          "internalType": "contract VaultAPI[]",
          "name": "vaults",
          "type": "address[]"
        },
        {
          "internalType": "bytes[]",
          "name": "signatures",
          "type": "bytes[]"
        }
      ],
      "name": "migrate",
      "outputs": [
        {
          "internalType": "uint256",
          "name": "",
          "type": "uint256"
        }
      ],
      "stateMutability": "nonpayable",
      "type": "function"
    },
    {
      "inputs": [
        {
          "internalType": "uint256",
          "name": "amount",
          "type": "uint256"
        },
        {
          "internalType": "uint256",
          "name": "maxMigrationLoss",
          "type": "uint256"
        }
      ],
      "name": "migrate",
      "outputs": [
        {
          "internalType": "uint256",
          "name": "",
          "type": "uint256"
        }
      ],
      "stateMutability": "nonpayable",
      "type": "function"
    },
    {
      "inputs": [
        {
          "internalType": "contract VaultAPI[]",
          "name": "vaults",
          "type": "address[]"
        },
        {
          "internalType": "bytes[]",
          "name": "signatures",
          "type": "bytes[]"
        },
        {
          "internalType": "uint256",
          "name": "amount",
          "type": "uint256"
        }
      ],
      "name": "migrate",
      "outputs": [
        {
          "internalType": "uint256",
          "name": "",
          "type": "uint256"
        }
      ],
      "stateMutability": "nonpayable",
      "type": "function"
    },
    {
      "inputs": [
        {
          "internalType": "uint256",
          "name": "amount",
          "type": "uint256"
        }
      ],
      "name": "migrate",
      "outputs": [
        {
          "internalType": "uint256",
          "name": "",
          "type": "uint256"
        }
      ],
      "stateMutability": "nonpayable",
      "type": "function"
    },
    {
      "inputs": [],
      "name": "migrate",
      "outputs": [
        {
          "internalType": "uint256",
          "name": "",
          "type": "uint256"
        }
      ],
      "stateMutability": "nonpayable",
      "type": "function"
    },
    {
      "inputs": [
        {
          "internalType": "contract VaultAPI[]",
          "name": "vaults",
          "type": "address[]"
        },
        {
          "internalType": "bytes[]",
          "name": "signatures",
          "type": "bytes[]"
        },
        {
          "internalType": "address",
          "name": "user",
          "type": "address"
        },
        {
          "internalType": "uint256",
          "name": "amount",
          "type": "uint256"
        }
      ],
      "name": "migrate",
      "outputs": [
        {
          "internalType": "uint256",
          "name": "",
          "type": "uint256"
        }
      ],
      "stateMutability": "nonpayable",
      "type": "function"
    },
    {
      "inputs": [],
      "name": "name",
      "outputs": [
        {
          "internalType": "string",
          "name": "",
          "type": "string"
        }
      ],
      "stateMutability": "view",
      "type": "function"
    },
    {
      "inputs": [
        {
          "internalType": "contract VaultAPI[]",
          "name": "vaults",
          "type": "address[]"
        },
        {
          "internalType": "bytes[]",
          "name": "signatures",
          "type": "bytes[]"
        }
      ],
      "name": "permitAll",
      "outputs": [],
      "stateMutability": "nonpayable",
      "type": "function"
    },
    {
      "inputs": [],
      "name": "registry",
      "outputs": [
        {
          "internalType": "contract RegistryAPI",
          "name": "",
          "type": "address"
        }
      ],
      "stateMutability": "view",
      "type": "function"
    },
    {
      "inputs": [
        {
          "internalType": "contract VaultAPI[]",
          "name": "vaults",
          "type": "address[]"
        },
        {
          "internalType": "bytes[]",
          "name": "signatures",
          "type": "bytes[]"
        }
      ],
      "name": "revokeAll",
      "outputs": [],
      "stateMutability": "nonpayable",
      "type": "function"
    },
    {
      "inputs": [
        {
          "internalType": "address",
          "name": "_registry",
          "type": "address"
        }
      ],
      "name": "setRegistry",
      "outputs": [],
      "stateMutability": "nonpayable",
      "type": "function"
    },
    {
      "inputs": [],
      "name": "symbol",
      "outputs": [
        {
          "internalType": "string",
          "name": "",
          "type": "string"
        }
      ],
      "stateMutability": "view",
      "type": "function"
    },
    {
      "inputs": [],
      "name": "token",
      "outputs": [
        {
          "internalType": "contract IERC20",
          "name": "",
          "type": "address"
        }
      ],
      "stateMutability": "view",
      "type": "function"
    },
    {
      "inputs": [],
      "name": "totalAssets",
      "outputs": [
        {
          "internalType": "uint256",
          "name": "assets",
          "type": "uint256"
        }
      ],
      "stateMutability": "view",
      "type": "function"
    },
    {
      "inputs": [],
      "name": "totalSupply",
      "outputs": [
        {
          "internalType": "uint256",
          "name": "total",
          "type": "uint256"
        }
      ],
      "stateMutability": "view",
      "type": "function"
    },
    {
      "inputs": [
        {
          "internalType": "address",
          "name": "account",
          "type": "address"
        }
      ],
      "name": "totalVaultBalance",
      "outputs": [
        {
          "internalType": "uint256",
          "name": "balance",
          "type": "uint256"
        }
      ],
      "stateMutability": "view",
      "type": "function"
    },
    {
      "inputs": [
        {
          "internalType": "address",
          "name": "receiver",
          "type": "address"
        },
        {
          "internalType": "uint256",
          "name": "amount",
          "type": "uint256"
        }
      ],
      "name": "transfer",
      "outputs": [
        {
          "internalType": "bool",
          "name": "",
          "type": "bool"
        }
      ],
      "stateMutability": "nonpayable",
      "type": "function"
    },
    {
      "inputs": [
        {
          "internalType": "address",
          "name": "sender",
          "type": "address"
        },
        {
          "internalType": "address",
          "name": "receiver",
          "type": "address"
        },
        {
          "internalType": "uint256",
          "name": "amount",
          "type": "uint256"
        }
      ],
      "name": "transferFrom",
      "outputs": [
        {
          "internalType": "bool",
          "name": "",
          "type": "bool"
        }
      ],
      "stateMutability": "nonpayable",
      "type": "function"
    },
    {
      "inputs": [
        {
          "internalType": "uint256",
          "name": "amount",
          "type": "uint256"
        }
      ],
      "name": "withdraw",
      "outputs": [
        {
          "internalType": "uint256",
          "name": "",
          "type": "uint256"
        }
      ],
      "stateMutability": "nonpayable",
      "type": "function"
    },
    {
      "inputs": [
        {
          "internalType": "uint256",
          "name": "amount",
          "type": "uint256"
        }
      ],
      "name": "withdrawETH",
      "outputs": [
        {
          "internalType": "uint256",
          "name": "withdrawn",
          "type": "uint256"
        }
      ],
      "stateMutability": "nonpayable",
      "type": "function"
    },
    {
      "stateMutability": "payable",
      "type": "receive"
    }
  ],
  "bytecode": "60806040523480156200001157600080fd5b50604051620031833803806200318383398101604081905262000034916200006b565b6001600081905580546001600160a01b039384166001600160a01b03199182161790915560038054929093169116179055620000c2565b600080604083850312156200007e578182fd5b82516200008b81620000a9565b60208401519092506200009e81620000a9565b809150509250929050565b6001600160a01b0381168114620000bf57600080fd5b50565b6130b180620000d26000396000f3fe6080604052600436106101d15760003560e01c80637b103999116100f7578063b02b7cc311610095578063e95b2de811610064578063e95b2de81461052b578063f14210a614610540578063f6326fb314610560578063fc0c546a14610568576101f4565b8063b02b7cc3146104ab578063b6b55f25146104cb578063c8e801ed146104eb578063dd62ed3e1461050b576101f4565b806395d89b41116100d157806395d89b4114610436578063a457c2d71461044b578063a9059cbb1461046b578063a91ee0dc1461048b576101f4565b80637b103999146103df57806380134801146104015780638fd3ab8014610421576101f4565b80632e1a7d4d1161016f5780633e54bacb1161013e5780633e54bacb1461035f5780633f7046f91461037f578063454b06081461039f57806370a08231146103bf576101f4565b80632e1a7d4d146102ea57806330e5065e1461030a578063313ce5671461032a578063395093511461033f576101f4565b806306fdde03116101ab57806306fdde0314610266578063095ea7b31461028857806318160ddd146102b557806323b872dd146102ca576101f4565b806301e1d114146101f95780630309beaf14610224578063063effeb14610244576101f4565b366101f4576001546001600160a01b031633146101f2576101f061057d565b505b005b600080fd5b34801561020557600080fd5b5061020e6105f5565b60405161021b9190612fd5565b60405180910390f35b34801561023057600080fd5b5061020e61023f366004612892565b6106ac565b34801561025057600080fd5b506102596106cf565b60405161021b9190612c67565b34801561027257600080fd5b5061027b610937565b60405161021b9190612cbf565b34801561029457600080fd5b506102a86102a3366004612867565b6109dc565b60405161021b9190612cb4565b3480156102c157600080fd5b5061020e6109f3565b3480156102d657600080fd5b506102a86102e5366004612827565b610a02565b3480156102f657600080fd5b5061020e610305366004612aa6565b610a54565b34801561031657600080fd5b5061020e6103253660046127b7565b610a63565b34801561033657600080fd5b5061020e610c3d565b34801561034b57600080fd5b506102a861035a366004612867565b610cc2565b34801561036b57600080fd5b5061020e61037a366004612ad6565b610cf8565b34801561038b57600080fd5b5061020e61039a366004612984565b610d05565b3480156103ab57600080fd5b5061020e6103ba366004612aa6565b610d28565b3480156103cb57600080fd5b5061020e6103da3660046127b7565b610d34565b3480156103eb57600080fd5b506103f4610d3f565b60405161021b9190612bb5565b34801561040d57600080fd5b506101f261041c366004612892565b610d4e565b34801561042d57600080fd5b5061020e610e42565b34801561044257600080fd5b5061027b610e4d565b34801561045757600080fd5b506102a8610466366004612867565b610ede565b34801561047757600080fd5b506102a8610486366004612867565b610f14565b34801561049757600080fd5b506101f26104a63660046127b7565b610f21565b3480156104b757600080fd5b5061020e6104c63660046128fb565b611078565b3480156104d757600080fd5b5061020e6104e6366004612aa6565b61109c565b3480156104f757600080fd5b506101f2610506366004612892565b6110ab565b34801561051757600080fd5b5061020e6105263660046127ef565b6110be565b34801561053757600080fd5b506103f46110db565b34801561054c57600080fd5b5061020e61055b366004612aa6565b611163565b61020e61057d565b34801561057457600080fd5b506103f461121d565b60015460408051630d0e30db60e41b8152905160009234926001600160a01b039091169163d0e30db09184916004808301928892919082900301818588803b1580156105c857600080fd5b505af11580156105dc573d6000803e3d6000fd5b50505050506105ee303383600061122c565b9150505b90565b600060606106016106cf565b905060005b81518110156106a75761069d82828151811061061e57fe5b60200260200101516001600160a01b03166301e1d1146040518163ffffffff1660e01b815260040160206040518083038186803b15801561065e57600080fd5b505afa158015610672573d6000803e3d6000fd5b505050506040513d601f19601f820116820180604052508101906106969190612abe565b849061162f565b9250600101610606565b505090565b60006106bb3386868686611654565b6106c43361174b565b90505b949350505050565b60025460035460015460405163f9c7bba560e01b8152606093926000926001600160a01b039182169263f9c7bba59261070c921690600401612bb5565b60206040518083038186803b15801561072457600080fd5b505afa158015610738573d6000803e3d6000fd5b505050506040513d601f19601f8201168201806040525081019061075c9190612abe565b9050808214156107ca5760028054806020026020016040519081016040528092919081815260200182805480156107bc57602002820191906000526020600020905b81546001600160a01b0316815260019091019060200180831161079e575b5050505050925050506105f2565b60608167ffffffffffffffff811180156107e357600080fd5b5060405190808252806020026020018201604052801561080d578160200160208202803683370190505b50905060005b83811015610872576002818154811061082857fe5b9060005260206000200160009054906101000a90046001600160a01b031682828151811061085257fe5b6001600160a01b0390921660209283029190910190910152600101610813565b50825b8281101561092f57600354600154604051633ddfe34f60e11b81526001600160a01b0392831692637bbfc69e926108b3929116908590600401612c4e565b60206040518083038186803b1580156108cb57600080fd5b505afa1580156108df573d6000803e3d6000fd5b505050506040513d601f19601f8201168201806040525081019061090391906127d3565b82828151811061090f57fe5b6001600160a01b0390921660209283029190910190910152600101610875565b509250505090565b600154604080516306fdde0360e01b815290516060926001600160a01b0316916306fdde03916004808301926000929190829003018186803b15801561097c57600080fd5b505afa158015610990573d6000803e3d6000fd5b505050506040513d6000823e601f3d908101601f191682016040526109b89190810190612a15565b6040516020016109c89190612b5e565b604051602081830303815290604052905090565b60006109e9338484611759565b5060015b92915050565b60006109fd6105f5565b905090565b6000610a0f84848461180d565b6001600160a01b038416600090815260046020908152604080832033808552925290912054610a49918691610a44908661188e565b611759565b5060015b9392505050565b60006109ed33338460016118d0565b60006060610a6f6106cf565b905060005b8151811015610c3657610c2c610696838381518110610a8f57fe5b60200260200101516001600160a01b031663313ce5676040518163ffffffff1660e01b815260040160206040518083038186803b158015610acf57600080fd5b505afa158015610ae3573d6000803e3d6000fd5b505050506040513d601f19601f82011682018060405250810190610b079190612abe565b600a0a610c26858581518110610b1957fe5b60200260200101516001600160a01b03166399530b066040518163ffffffff1660e01b815260040160206040518083038186803b158015610b5957600080fd5b505afa158015610b6d573d6000803e3d6000fd5b505050506040513d601f19601f82011682018060405250810190610b919190612abe565b868681518110610b9d57fe5b60200260200101516001600160a01b03166370a082318a6040518263ffffffff1660e01b8152600401610bd09190612bb5565b60206040518083038186803b158015610be857600080fd5b505afa158015610bfc573d6000803e3d6000fd5b505050506040513d601f19601f82011682018060405250810190610c209190612abe565b906120ba565b906120f4565b9250600101610a74565b5050919050565b6001546040805163313ce56760e01b815290516000926001600160a01b03169163313ce567916004808301926020929190829003018186803b158015610c8257600080fd5b505afa158015610c96573d6000803e3d6000fd5b505050506040513d601f19601f82011682018060405250810190610cba9190612af7565b60ff16905090565b3360008181526004602090815260408083206001600160a01b038716845290915281205490916109e9918590610a44908661162f565b6000610a4d338484612136565b6000610d143387878787611654565b610d1e33836122d0565b9695505050505050565b60006109ed33836122d0565b60006109ed82610a63565b6003546001600160a01b031681565b828114610d5a57600080fd5b60005b83811015610e3b57848482818110610d7157fe5b9050602002016020810190610d8691906127b7565b6001600160a01b0316639fd5a6cf3330600080888888818110610da557fe5b9050602002810190610db79190612ff5565b6040518763ffffffff1660e01b8152600401610dd896959493929190612bc9565b602060405180830381600087803b158015610df257600080fd5b505af1158015610e06573d6000803e3d6000fd5b505050506040513d601f19601f82011682018060405250810190610e2a91906129f5565b610e3357600080fd5b600101610d5d565b5050505050565b60006109fd3361174b565b600154604080516395d89b4160e01b815290516060926001600160a01b0316916395d89b41916004808301926000929190829003018186803b158015610e9257600080fd5b505afa158015610ea6573d6000803e3d6000fd5b505050506040513d6000823e601f3d908101601f19168201604052610ece9190810190612a15565b6040516020016109c89190612b8c565b3360008181526004602090815260408083206001600160a01b038716845290915281205490916109e9918590610a44908661188e565b60006109e933848461180d565b600360009054906101000a90046001600160a01b03166001600160a01b0316635aa6e6756040518163ffffffff1660e01b815260040160206040518083038186803b158015610f6f57600080fd5b505afa158015610f83573d6000803e3d6000fd5b505050506040513d601f19601f82011682018060405250810190610fa791906127d3565b6001600160a01b0316336001600160a01b031614610fc457600080fd5b600380546001600160a01b0319166001600160a01b03838116919091179182905560408051635aa6e67560e01b815290519290911691635aa6e67591600480820192602092909190829003018186803b15801561102057600080fd5b505afa158015611034573d6000803e3d6000fd5b505050506040513d601f19601f8201168201806040525081019061105891906127d3565b6001600160a01b0316336001600160a01b03161461107557600080fd5b50565b60006110878388888888611654565b61109183836122d0565b979650505050505050565b60006109ed333384600161122c565b6110b83385858585611654565b50505050565b600460209081526000928352604080842090915290825290205481565b600354600154604051630e177dc760e41b81526000926001600160a01b039081169263e177dc70926111139290911690600401612bb5565b60206040518083038186803b15801561112b57600080fd5b505afa15801561113f573d6000803e3d6000fd5b505050506040513d601f19601f820116820180604052508101906109fd91906127d3565b6000600260005414156111915760405162461bcd60e51b815260040161118890612f48565b60405180910390fd5b60026000556111a333308460016118d0565b600154604051632e1a7d4d60e01b81529192506001600160a01b031690632e1a7d4d906111d4908490600401612fd5565b600060405180830381600087803b1580156111ee57600080fd5b505af1158015611202573d6000803e3d6000fd5b5061121392503391504790506122de565b6001600055919050565b6001546001600160a01b031681565b6000806112376110db565b905082156112e4576000198414156112cc576001546040516370a0823160e01b81526001600160a01b03909116906370a0823190611279908990600401612bb5565b60206040518083038186803b15801561129157600080fd5b505afa1580156112a5573d6000803e3d6000fd5b505050506040513d601f19601f820116820180604052508101906112c99190612abe565b93505b6001546112e4906001600160a01b031687308761237f565b600154604051636eb1769f60e11b815285916001600160a01b03169063dd62ed3e906113169030908690600401612c10565b60206040518083038186803b15801561132e57600080fd5b505afa158015611342573d6000803e3d6000fd5b505050506040513d601f19601f820116820180604052508101906113669190612abe565b101561139d57600154611384906001600160a01b03168260006123d7565b60015461139d906001600160a01b0316826000196123d7565b6001546040516370a0823160e01b81526000916001600160a01b0316906370a08231906113ce903090600401612bb5565b60206040518083038186803b1580156113e657600080fd5b505afa1580156113fa573d6000803e3d6000fd5b505050506040513d601f19601f8201168201806040525081019061141e9190612abe565b90506001600160a01b03861630146114b657604051636e553f6560e01b81526001600160a01b03831690636e553f659061145e9088908a90600401612fde565b602060405180830381600087803b15801561147857600080fd5b505af115801561148c573d6000803e3d6000fd5b505050506040513d601f19601f820116820180604052508101906114b09190612abe565b50611560565b60001985146114eb5760405163b6b55f2560e01b81526001600160a01b0383169063b6b55f259061145e908890600401612fd5565b816001600160a01b031663d0e30db06040518163ffffffff1660e01b8152600401602060405180830381600087803b15801561152657600080fd5b505af115801561153a573d6000803e3d6000fd5b505050506040513d601f19601f8201168201806040525081019061155e9190612abe565b505b6001546040516370a0823160e01b81526000916001600160a01b0316906370a0823190611591903090600401612bb5565b60206040518083038186803b1580156115a957600080fd5b505afa1580156115bd573d6000803e3d6000fd5b505050506040513d601f19601f820116820180604052508101906115e19190612abe565b90506115ed828261188e565b93506001600160a01b03881630148015906116085750600081115b1561162457600154611624906001600160a01b0316898361249a565b505050949350505050565b600082820183811015610a4d5760405162461bcd60e51b815260040161118890612d77565b82811461166057600080fd5b60005b838110156117435784848281811061167757fe5b905060200201602081019061168c91906127b7565b6001600160a01b0316639fd5a6cf873060001960008888888181106116ad57fe5b90506020028101906116bf9190612ff5565b6040518763ffffffff1660e01b81526004016116e096959493929190612bc9565b602060405180830381600087803b1580156116fa57600080fd5b505af115801561170e573d6000803e3d6000fd5b505050506040513d601f19601f8201168201806040525081019061173291906129f5565b61173b57600080fd5b600101611663565b505050505050565b60006109ed826000196122d0565b6001600160a01b03831661177f5760405162461bcd60e51b815260040161118890612e83565b6001600160a01b0382166117a55760405162461bcd60e51b815260040161118890612d35565b6001600160a01b0380841660008181526004602090815260408083209487168084529490915290819020849055517f8c5be1e5ebec7d5bd14f71427d1e84f3dd0314c0f7b2291e5b200ac8c7c3b92590611800908590612fd5565b60405180910390a3505050565b6001600160a01b0382166118335760405162461bcd60e51b815260040161118890612cf2565b61184083838360016118d0565b811461184b57600080fd5b816001600160a01b0316836001600160a01b03167fddf252ad1be2c89b69c2b068fc378daa952ba7f163c4a11628f55a4df523b3ef836040516118009190612fd5565b6000610a4d83836040518060400160405280601e81526020017f536166654d6174683a207375627472616374696f6e206f766572666c6f7700008152506124b9565b6000806118db6110db565b905060606118e76106cf565b90506118f2816124e5565b60005b8151811015611e4c57841580156119305750826001600160a01b031682828151811061191d57fe5b60200260200101516001600160a01b0316145b1561193a57611e44565b600082828151811061194857fe5b60200260200101516001600160a01b03166370a082318a6040518263ffffffff1660e01b815260040161197b9190612bb5565b60206040518083038186803b15801561199357600080fd5b505afa1580156119a7573d6000803e3d6000fd5b505050506040513d601f19601f820116820180604052508101906119cb9190612abe565b90506001600160a01b0389163014611a7a57611a77818484815181106119ed57fe5b60200260200101516001600160a01b031663dd62ed3e8c306040518363ffffffff1660e01b8152600401611a22929190612c10565b60206040518083038186803b158015611a3a57600080fd5b505afa158015611a4e573d6000803e3d6000fd5b505050506040513d601f19601f82011682018060405250810190611a729190612abe565b612507565b90505b611aca81848481518110611a8a57fe5b60200260200101516001600160a01b03166375de29026040518163ffffffff1660e01b815260040160206040518083038186803b158015611a3a57600080fd5b90508015611e42576001600160a01b0389163014611b7957828281518110611aee57fe5b60200260200101516001600160a01b03166323b872dd8a30846040518463ffffffff1660e01b8152600401611b2593929190612c2a565b602060405180830381600087803b158015611b3f57600080fd5b505af1158015611b53573d6000803e3d6000fd5b505050506040513d601f19601f82011682018060405250810190611b7791906129f5565b505b6000198714611da2576000611c9f848481518110611b9357fe5b60200260200101516001600160a01b03166399530b066040518163ffffffff1660e01b815260040160206040518083038186803b158015611bd357600080fd5b505afa158015611be7573d6000803e3d6000fd5b505050506040513d601f19601f82011682018060405250810190611c0b9190612abe565b610c26868681518110611c1a57fe5b60200260200101516001600160a01b031663313ce5676040518163ffffffff1660e01b815260040160206040518083038186803b158015611c5a57600080fd5b505afa158015611c6e573d6000803e3d6000fd5b505050506040513d601f19601f82011682018060405250810190611c929190612abe565b600a0a610c208c8b61188e565b9050600081118015611cb057508181105b15611d5757611d50848481518110611cc457fe5b60200260200101516001600160a01b0316632e1a7d4d836040518263ffffffff1660e01b8152600401611cf79190612fd5565b602060405180830381600087803b158015611d1157600080fd5b505af1158015611d25573d6000803e3d6000fd5b505050506040513d601f19601f82011682018060405250810190611d499190612abe565b879061162f565b9550611d9c565b611d99848481518110611d6657fe5b60200260200101516001600160a01b0316632e1a7d4d846040518263ffffffff1660e01b8152600401611cf79190612fd5565b95505b50611e35565b611e32838381518110611db157fe5b60200260200101516001600160a01b0316633ccfd60b6040518163ffffffff1660e01b8152600401602060405180830381600087803b158015611df357600080fd5b505af1158015611e07573d6000803e3d6000fd5b505050506040513d601f19601f82011682018060405250810190611e2b9190612abe565b869061162f565b94505b848711611e425750611e4c565b505b6001016118f5565b508483118015611f4b5750611f3f826001600160a01b031663313ce5676040518163ffffffff1660e01b815260040160206040518083038186803b158015611e9357600080fd5b505afa158015611ea7573d6000803e3d6000fd5b505050506040513d601f19601f82011682018060405250810190611ecb9190612abe565b600a0a836001600160a01b03166399530b066040518163ffffffff1660e01b815260040160206040518083038186803b158015611f0757600080fd5b505afa158015611f1b573d6000803e3d6000fd5b505050506040513d601f19601f82011682018060405250810190610c269190612abe565b611f49848761188e565b115b1561208957611f5a838661188e565b600154604051636eb1769f60e11b81526001600160a01b039091169063dd62ed3e90611f8c9030908790600401612c10565b60206040518083038186803b158015611fa457600080fd5b505afa158015611fb8573d6000803e3d6000fd5b505050506040513d601f19601f82011682018060405250810190611fdc9190612abe565b1015611ffb57600154611ffb906001600160a01b0316836000196123d7565b6001600160a01b038216636e553f65612014858861188e565b896040518363ffffffff1660e01b8152600401612032929190612fde565b602060405180830381600087803b15801561204c57600080fd5b505af1158015612060573d6000803e3d6000fd5b505050506040513d601f19601f820116820180604052508101906120849190612abe565b508492505b6001600160a01b03861630146120b0576001546120b0906001600160a01b0316878561249a565b5050949350505050565b6000826120c9575060006109ed565b828202828482816120d657fe5b0414610a4d5760405162461bcd60e51b815260040161118890612e42565b6000610a4d83836040518060400160405280601a81526020017f536166654d6174683a206469766973696f6e206279207a65726f00000000000081525061251d565b6000806121416110db565b90506000816001600160a01b031663ecf708586040518163ffffffff1660e01b815260040160206040518083038186803b15801561217e57600080fd5b505afa158015612192573d6000803e3d6000fd5b505050506040513d601f19601f820116820180604052508101906121b69190612abe565b90506000826001600160a01b03166301e1d1146040518163ffffffff1660e01b815260040160206040518083038186803b1580156121f357600080fd5b505afa158015612207573d6000803e3d6000fd5b505050506040513d601f19601f8201168201806040525081019061222b9190612abe565b90508082116122405760009350505050610a4d565b8560001983108015612253575060001981105b15612274576000612264848461188e565b905080821115612272578091505b505b80156122c557600061228989308460006118d0565b90508061229e57600095505050505050610a4d565b6122ab308a83600061122c565b9550866122b8828861188e565b11156122c357600080fd5b505b505050509392505050565b6000610a4d83836000612136565b804710156122fe5760405162461bcd60e51b815260040161118890612e0b565b6000826001600160a01b031682604051612317906105f2565b60006040518083038185875af1925050503d8060008114612354576040519150601f19603f3d011682016040523d82523d6000602084013e612359565b606091505b505090508061237a5760405162461bcd60e51b815260040161118890612dae565b505050565b6110b8846323b872dd60e01b8585856040516024016123a093929190612c2a565b60408051601f198184030181529190526020810180516001600160e01b03166001600160e01b031990931692909217909152612554565b80158061245f5750604051636eb1769f60e11b81526001600160a01b0384169063dd62ed3e9061240d9030908690600401612c10565b60206040518083038186803b15801561242557600080fd5b505afa158015612439573d6000803e3d6000fd5b505050506040513d601f19601f8201168201806040525081019061245d9190612abe565b155b61247b5760405162461bcd60e51b815260040161118890612f7f565b61237a8363095ea7b360e01b84846040516024016123a0929190612c4e565b61237a8363a9059cbb60e01b84846040516024016123a0929190612c4e565b600081848411156124dd5760405162461bcd60e51b81526004016111889190612cbf565b505050900390565b600254815111156110755780516125039060029060208401906126ea565b5050565b60008183106125165781610a4d565b5090919050565b6000818361253e5760405162461bcd60e51b81526004016111889190612cbf565b50600083858161254a57fe5b0495945050505050565b60606125a9826040518060400160405280602081526020017f5361666545524332303a206c6f772d6c6576656c2063616c6c206661696c6564815250856001600160a01b03166125e39092919063ffffffff16565b80519091501561237a57808060200190518101906125c791906129f5565b61237a5760405162461bcd60e51b815260040161118890612efe565b60606106c7848460008560606125f8856126b1565b6126145760405162461bcd60e51b815260040161118890612ec7565b60006060866001600160a01b031685876040516126319190612b42565b60006040518083038185875af1925050503d806000811461266e576040519150601f19603f3d011682016040523d82523d6000602084013e612673565b606091505b509150915081156126875791506106c79050565b8051156126975780518082602001fd5b8360405162461bcd60e51b81526004016111889190612cbf565b6000813f7fc5d2460186f7233c927e7db2dcc703c0e500b653ca82273b7bfad8045d85a4708181148015906106c7575050151592915050565b82805482825590600052602060002090810192821561273f579160200282015b8281111561273f57825182546001600160a01b0319166001600160a01b0390911617825560209092019160019091019061270a565b5061274b92915061274f565b5090565b5b8082111561274b5780546001600160a01b0319168155600101612750565b60008083601f84011261277f578182fd5b50813567ffffffffffffffff811115612796578182fd5b60208301915083602080830285010111156127b057600080fd5b9250929050565b6000602082840312156127c8578081fd5b8135610a4d81613066565b6000602082840312156127e4578081fd5b8151610a4d81613066565b60008060408385031215612801578081fd5b823561280c81613066565b9150602083013561281c81613066565b809150509250929050565b60008060006060848603121561283b578081fd5b833561284681613066565b9250602084013561285681613066565b929592945050506040919091013590565b60008060408385031215612879578182fd5b823561288481613066565b946020939093013593505050565b600080600080604085870312156128a7578081fd5b843567ffffffffffffffff808211156128be578283fd5b6128ca8883890161276e565b909650945060208701359150808211156128e2578283fd5b506128ef8782880161276e565b95989497509550505050565b60008060008060008060808789031215612913578182fd5b863567ffffffffffffffff8082111561292a578384fd5b6129368a838b0161276e565b9098509650602089013591508082111561294e578384fd5b5061295b89828a0161276e565b909550935050604087013561296f81613066565b80925050606087013590509295509295509295565b60008060008060006060868803121561299b578081fd5b853567ffffffffffffffff808211156129b2578283fd5b6129be89838a0161276e565b909750955060208801359150808211156129d6578283fd5b506129e38882890161276e565b96999598509660400135949350505050565b600060208284031215612a06578081fd5b81518015158114610a4d578182fd5b600060208284031215612a26578081fd5b815167ffffffffffffffff80821115612a3d578283fd5b818401915084601f830112612a50578283fd5b815181811115612a5e578384fd5b604051601f8201601f191681016020018381118282101715612a7e578586fd5b604052818152838201602001871015612a95578485fd5b610d1e82602083016020870161303a565b600060208284031215612ab7578081fd5b5035919050565b600060208284031215612acf578081fd5b5051919050565b60008060408385031215612ae8578182fd5b50508035926020909101359150565b600060208284031215612b08578081fd5b815160ff81168114610a4d578182fd5b60008284528282602086013780602084860101526020601f19601f85011685010190509392505050565b60008251612b5481846020870161303a565b9190910192915050565b60006502cb2b0b937160d51b82528251612b7f81600685016020870161303a565b9190910160060192915050565b6000607960f81b82528251612ba881600185016020870161303a565b9190910160010192915050565b6001600160a01b0391909116815260200190565b6001600160a01b03878116825286166020820152604081018590526060810184905260a060808201819052600090612c049083018486612b18565b98975050505050505050565b6001600160a01b0392831681529116602082015260400190565b6001600160a01b039384168152919092166020820152604081019190915260600190565b6001600160a01b03929092168252602082015260400190565b6020808252825182820181905260009190848201906040850190845b81811015612ca85783516001600160a01b031683529284019291840191600101612c83565b50909695505050505050565b901515815260200190565b6000602082528251806020840152612cde81604085016020870161303a565b601f01601f19169190910160400192915050565b60208082526023908201527f45524332303a207472616e7366657220746f20746865207a65726f206164647260408201526265737360e81b606082015260800190565b60208082526022908201527f45524332303a20617070726f766520746f20746865207a65726f206164647265604082015261737360f01b606082015260800190565b6020808252601b908201527f536166654d6174683a206164646974696f6e206f766572666c6f770000000000604082015260600190565b6020808252603a908201527f416464726573733a20756e61626c6520746f2073656e642076616c75652c207260408201527f6563697069656e74206d61792068617665207265766572746564000000000000606082015260800190565b6020808252601d908201527f416464726573733a20696e73756666696369656e742062616c616e6365000000604082015260600190565b60208082526021908201527f536166654d6174683a206d756c7469706c69636174696f6e206f766572666c6f6040820152607760f81b606082015260800190565b60208082526024908201527f45524332303a20617070726f76652066726f6d20746865207a65726f206164646040820152637265737360e01b606082015260800190565b6020808252601d908201527f416464726573733a2063616c6c20746f206e6f6e2d636f6e7472616374000000604082015260600190565b6020808252602a908201527f5361666545524332303a204552433230206f7065726174696f6e20646964206e6040820152691bdd081cdd58d8d9595960b21b606082015260800190565b6020808252601f908201527f5265656e7472616e637947756172643a207265656e7472616e742063616c6c00604082015260600190565b60208082526036908201527f5361666545524332303a20617070726f76652066726f6d206e6f6e2d7a65726f60408201527520746f206e6f6e2d7a65726f20616c6c6f77616e636560501b606082015260800190565b90815260200190565b9182526001600160a01b0316602082015260400190565b6000808335601e1984360301811261300b578283fd5b83018035915067ffffffffffffffff821115613025578283fd5b6020019150368190038213156127b057600080fd5b60005b8381101561305557818101518382015260200161303d565b838111156110b85750506000910152565b6001600160a01b038116811461107557600080fdfea2646970667358221220a8f41485f1faf7e12f5d7fe72d80e852999ade6006c7969bfecd97375869cb8664736f6c634300060c0033",
  "bytecodeSha1": "310470149dcfd251002680c3ade183e9f41413a6",
  "compiler": {
    "evm_version": "istanbul",
    "optimizer": {
      "enabled": true,
      "runs": 200
    },
    "version": "0.6.12+commit.27d51765"
  },
  "contractName": "yWETH",
  "language": "Solidity",
  "natspec": {
    "kind": "dev",
    "methods": {
      "allVaults()": {
        "notice": "Used to get all vaults from the registery for the token",
        "returns": {
          "_0": "An array containing instances of VaultAPI"
        }
      },
      "approve(address,uint256)": {
        "details": "Sets `amount` as the allowance of `spender` over the caller's tokens. Returns a boolean value indicating whether the operation succeeded. IMPORTANT: Beware that changing an allowance with this method brings the risk that someone may use both the old and the new allowance by unfortunate transaction ordering. One possible solution to mitigate this race condition is to first reduce the spender's allowance to 0 and set the desired value afterwards: https://github.com/ethereum/EIPs/issues/20#issuecomment-263524729 Emits an {Approval} event."
      },
      "balanceOf(address)": {
        "details": "Returns the amount of tokens owned by `account`."
      },
      "bestVault()": {
        "notice": "Used to get the most revent vault for the token using the registry.",
        "returns": {
          "_0": "An instance of a VaultAPI"
        }
      },
      "setRegistry(address)": {
        "notice": "Used to update the yearn registry.",
        "params": {
          "_registry": "The new _registry address."
        }
      },
      "totalAssets()": {
        "notice": "Used to get the TVL on the underlying vaults.",
        "returns": {
          "assets": "the sum of all the assets managed by the underlying vaults."
        }
      },
      "totalSupply()": {
        "details": "Returns the amount of tokens in existence."
      },
      "totalVaultBalance(address)": {
        "details": "will be used to get the wrapper balance using totalVaultBalance(address(this)).",
        "notice": "Used to get the balance of an account accross all the vaults for a token.",
        "params": {
          "account": "The address of the account."
        },
        "returns": {
          "balance": "of token for the account accross all the vaults."
        }
      }
    },
    "version": 1
  },
  "opcodes": "PUSH1 0x80 PUSH1 0x40 MSTORE PUSH1 0x4 CALLDATASIZE LT PUSH2 0x1D1 JUMPI PUSH1 0x0 CALLDATALOAD PUSH1 0xE0 SHR DUP1 PUSH4 0x7B103999 GT PUSH2 0xF7 JUMPI DUP1 PUSH4 0xB02B7CC3 GT PUSH2 0x95 JUMPI DUP1 PUSH4 0xE95B2DE8 GT PUSH2 0x64 JUMPI DUP1 PUSH4 0xE95B2DE8 EQ PUSH2 0x52B JUMPI DUP1 PUSH4 0xF14210A6 EQ PUSH2 0x540 JUMPI DUP1 PUSH4 0xF6326FB3 EQ PUSH2 0x560 JUMPI DUP1 PUSH4 0xFC0C546A EQ PUSH2 0x568 JUMPI PUSH2 0x1F4 JUMP JUMPDEST DUP1 PUSH4 0xB02B7CC3 EQ PUSH2 0x4AB JUMPI DUP1 PUSH4 0xB6B55F25 EQ PUSH2 0x4CB JUMPI DUP1 PUSH4 0xC8E801ED EQ PUSH2 0x4EB JUMPI DUP1 PUSH4 0xDD62ED3E EQ PUSH2 0x50B JUMPI PUSH2 0x1F4 JUMP JUMPDEST DUP1 PUSH4 0x95D89B41 GT PUSH2 0xD1 JUMPI DUP1 PUSH4 0x95D89B41 EQ PUSH2 0x436 JUMPI DUP1 PUSH4 0xA457C2D7 EQ PUSH2 0x44B JUMPI DUP1 PUSH4 0xA9059CBB EQ PUSH2 0x46B JUMPI DUP1 PUSH4 0xA91EE0DC EQ PUSH2 0x48B JUMPI PUSH2 0x1F4 JUMP JUMPDEST DUP1 PUSH4 0x7B103999 EQ PUSH2 0x3DF JUMPI DUP1 PUSH4 0x80134801 EQ PUSH2 0x401 JUMPI DUP1 PUSH4 0x8FD3AB80 EQ PUSH2 0x421 JUMPI PUSH2 0x1F4 JUMP JUMPDEST DUP1 PUSH4 0x2E1A7D4D GT PUSH2 0x16F JUMPI DUP1 PUSH4 0x3E54BACB GT PUSH2 0x13E JUMPI DUP1 PUSH4 0x3E54BACB EQ PUSH2 0x35F JUMPI DUP1 PUSH4 0x3F7046F9 EQ PUSH2 0x37F JUMPI DUP1 PUSH4 0x454B0608 EQ PUSH2 0x39F JUMPI DUP1 PUSH4 0x70A08231 EQ PUSH2 0x3BF JUMPI PUSH2 0x1F4 JUMP JUMPDEST DUP1 PUSH4 0x2E1A7D4D EQ PUSH2 0x2EA JUMPI DUP1 PUSH4 0x30E5065E EQ PUSH2 0x30A JUMPI DUP1 PUSH4 0x313CE567 EQ PUSH2 0x32A JUMPI DUP1 PUSH4 0x39509351 EQ PUSH2 0x33F JUMPI PUSH2 0x1F4 JUMP JUMPDEST DUP1 PUSH4 0x6FDDE03 GT PUSH2 0x1AB JUMPI DUP1 PUSH4 0x6FDDE03 EQ PUSH2 0x266 JUMPI DUP1 PUSH4 0x95EA7B3 EQ PUSH2 0x288 JUMPI DUP1 PUSH4 0x18160DDD EQ PUSH2 0x2B5 JUMPI DUP1 PUSH4 0x23B872DD EQ PUSH2 0x2CA JUMPI PUSH2 0x1F4 JUMP JUMPDEST DUP1 PUSH4 0x1E1D114 EQ PUSH2 0x1F9 JUMPI DUP1 PUSH4 0x309BEAF EQ PUSH2 0x224 JUMPI DUP1 PUSH4 0x63EFFEB EQ PUSH2 0x244 JUMPI PUSH2 0x1F4 JUMP JUMPDEST CALLDATASIZE PUSH2 0x1F4 JUMPI PUSH1 0x1 SLOAD PUSH1 0x1 PUSH1 0x1 PUSH1 0xA0 SHL SUB AND CALLER EQ PUSH2 0x1F2 JUMPI PUSH2 0x1F0 PUSH2 0x57D JUMP JUMPDEST POP JUMPDEST STOP JUMPDEST PUSH1 0x0 DUP1 REVERT JUMPDEST CALLVALUE DUP1 ISZERO PUSH2 0x205 JUMPI PUSH1 0x0 DUP1 REVERT JUMPDEST POP PUSH2 0x20E PUSH2 0x5F5 JUMP JUMPDEST PUSH1 0x40 MLOAD PUSH2 0x21B SWAP2 SWAP1 PUSH2 0x2FD5 JUMP JUMPDEST PUSH1 0x40 MLOAD DUP1 SWAP2 SUB SWAP1 RETURN JUMPDEST CALLVALUE DUP1 ISZERO PUSH2 0x230 JUMPI PUSH1 0x0 DUP1 REVERT JUMPDEST POP PUSH2 0x20E PUSH2 0x23F CALLDATASIZE PUSH1 0x4 PUSH2 0x2892 JUMP JUMPDEST PUSH2 0x6AC JUMP JUMPDEST CALLVALUE DUP1 ISZERO PUSH2 0x250 JUMPI PUSH1 0x0 DUP1 REVERT JUMPDEST POP PUSH2 0x259 PUSH2 0x6CF JUMP JUMPDEST PUSH1 0x40 MLOAD PUSH2 0x21B SWAP2 SWAP1 PUSH2 0x2C67 JUMP JUMPDEST CALLVALUE DUP1 ISZERO PUSH2 0x272 JUMPI PUSH1 0x0 DUP1 REVERT JUMPDEST POP PUSH2 0x27B PUSH2 0x937 JUMP JUMPDEST PUSH1 0x40 MLOAD PUSH2 0x21B SWAP2 SWAP1 PUSH2 0x2CBF JUMP JUMPDEST CALLVALUE DUP1 ISZERO PUSH2 0x294 JUMPI PUSH1 0x0 DUP1 REVERT JUMPDEST POP PUSH2 0x2A8 PUSH2 0x2A3 CALLDATASIZE PUSH1 0x4 PUSH2 0x2867 JUMP JUMPDEST PUSH2 0x9DC JUMP JUMPDEST PUSH1 0x40 MLOAD PUSH2 0x21B SWAP2 SWAP1 PUSH2 0x2CB4 JUMP JUMPDEST CALLVALUE DUP1 ISZERO PUSH2 0x2C1 JUMPI PUSH1 0x0 DUP1 REVERT JUMPDEST POP PUSH2 0x20E PUSH2 0x9F3 JUMP JUMPDEST CALLVALUE DUP1 ISZERO PUSH2 0x2D6 JUMPI PUSH1 0x0 DUP1 REVERT JUMPDEST POP PUSH2 0x2A8 PUSH2 0x2E5 CALLDATASIZE PUSH1 0x4 PUSH2 0x2827 JUMP JUMPDEST PUSH2 0xA02 JUMP JUMPDEST CALLVALUE DUP1 ISZERO PUSH2 0x2F6 JUMPI PUSH1 0x0 DUP1 REVERT JUMPDEST POP PUSH2 0x20E PUSH2 0x305 CALLDATASIZE PUSH1 0x4 PUSH2 0x2AA6 JUMP JUMPDEST PUSH2 0xA54 JUMP JUMPDEST CALLVALUE DUP1 ISZERO PUSH2 0x316 JUMPI PUSH1 0x0 DUP1 REVERT JUMPDEST POP PUSH2 0x20E PUSH2 0x325 CALLDATASIZE PUSH1 0x4 PUSH2 0x27B7 JUMP JUMPDEST PUSH2 0xA63 JUMP JUMPDEST CALLVALUE DUP1 ISZERO PUSH2 0x336 JUMPI PUSH1 0x0 DUP1 REVERT JUMPDEST POP PUSH2 0x20E PUSH2 0xC3D JUMP JUMPDEST CALLVALUE DUP1 ISZERO PUSH2 0x34B JUMPI PUSH1 0x0 DUP1 REVERT JUMPDEST POP PUSH2 0x2A8 PUSH2 0x35A CALLDATASIZE PUSH1 0x4 PUSH2 0x2867 JUMP JUMPDEST PUSH2 0xCC2 JUMP JUMPDEST CALLVALUE DUP1 ISZERO PUSH2 0x36B JUMPI PUSH1 0x0 DUP1 REVERT JUMPDEST POP PUSH2 0x20E PUSH2 0x37A CALLDATASIZE PUSH1 0x4 PUSH2 0x2AD6 JUMP JUMPDEST PUSH2 0xCF8 JUMP JUMPDEST CALLVALUE DUP1 ISZERO PUSH2 0x38B JUMPI PUSH1 0x0 DUP1 REVERT JUMPDEST POP PUSH2 0x20E PUSH2 0x39A CALLDATASIZE PUSH1 0x4 PUSH2 0x2984 JUMP JUMPDEST PUSH2 0xD05 JUMP JUMPDEST CALLVALUE DUP1 ISZERO PUSH2 0x3AB JUMPI PUSH1 0x0 DUP1 REVERT JUMPDEST POP PUSH2 0x20E PUSH2 0x3BA CALLDATASIZE PUSH1 0x4 PUSH2 0x2AA6 JUMP JUMPDEST PUSH2 0xD28 JUMP JUMPDEST CALLVALUE DUP1 ISZERO PUSH2 0x3CB JUMPI PUSH1 0x0 DUP1 REVERT JUMPDEST POP PUSH2 0x20E PUSH2 0x3DA CALLDATASIZE PUSH1 0x4 PUSH2 0x27B7 JUMP JUMPDEST PUSH2 0xD34 JUMP JUMPDEST CALLVALUE DUP1 ISZERO PUSH2 0x3EB JUMPI PUSH1 0x0 DUP1 REVERT JUMPDEST POP PUSH2 0x3F4 PUSH2 0xD3F JUMP JUMPDEST PUSH1 0x40 MLOAD PUSH2 0x21B SWAP2 SWAP1 PUSH2 0x2BB5 JUMP JUMPDEST CALLVALUE DUP1 ISZERO PUSH2 0x40D JUMPI PUSH1 0x0 DUP1 REVERT JUMPDEST POP PUSH2 0x1F2 PUSH2 0x41C CALLDATASIZE PUSH1 0x4 PUSH2 0x2892 JUMP JUMPDEST PUSH2 0xD4E JUMP JUMPDEST CALLVALUE DUP1 ISZERO PUSH2 0x42D JUMPI PUSH1 0x0 DUP1 REVERT JUMPDEST POP PUSH2 0x20E PUSH2 0xE42 JUMP JUMPDEST CALLVALUE DUP1 ISZERO PUSH2 0x442 JUMPI PUSH1 0x0 DUP1 REVERT JUMPDEST POP PUSH2 0x27B PUSH2 0xE4D JUMP JUMPDEST CALLVALUE DUP1 ISZERO PUSH2 0x457 JUMPI PUSH1 0x0 DUP1 REVERT JUMPDEST POP PUSH2 0x2A8 PUSH2 0x466 CALLDATASIZE PUSH1 0x4 PUSH2 0x2867 JUMP JUMPDEST PUSH2 0xEDE JUMP JUMPDEST CALLVALUE DUP1 ISZERO PUSH2 0x477 JUMPI PUSH1 0x0 DUP1 REVERT JUMPDEST POP PUSH2 0x2A8 PUSH2 0x486 CALLDATASIZE PUSH1 0x4 PUSH2 0x2867 JUMP JUMPDEST PUSH2 0xF14 JUMP JUMPDEST CALLVALUE DUP1 ISZERO PUSH2 0x497 JUMPI PUSH1 0x0 DUP1 REVERT JUMPDEST POP PUSH2 0x1F2 PUSH2 0x4A6 CALLDATASIZE PUSH1 0x4 PUSH2 0x27B7 JUMP JUMPDEST PUSH2 0xF21 JUMP JUMPDEST CALLVALUE DUP1 ISZERO PUSH2 0x4B7 JUMPI PUSH1 0x0 DUP1 REVERT JUMPDEST POP PUSH2 0x20E PUSH2 0x4C6 CALLDATASIZE PUSH1 0x4 PUSH2 0x28FB JUMP JUMPDEST PUSH2 0x1078 JUMP JUMPDEST CALLVALUE DUP1 ISZERO PUSH2 0x4D7 JUMPI PUSH1 0x0 DUP1 REVERT JUMPDEST POP PUSH2 0x20E PUSH2 0x4E6 CALLDATASIZE PUSH1 0x4 PUSH2 0x2AA6 JUMP JUMPDEST PUSH2 0x109C JUMP JUMPDEST CALLVALUE DUP1 ISZERO PUSH2 0x4F7 JUMPI PUSH1 0x0 DUP1 REVERT JUMPDEST POP PUSH2 0x1F2 PUSH2 0x506 CALLDATASIZE PUSH1 0x4 PUSH2 0x2892 JUMP JUMPDEST PUSH2 0x10AB JUMP JUMPDEST CALLVALUE DUP1 ISZERO PUSH2 0x517 JUMPI PUSH1 0x0 DUP1 REVERT JUMPDEST POP PUSH2 0x20E PUSH2 0x526 CALLDATASIZE PUSH1 0x4 PUSH2 0x27EF JUMP JUMPDEST PUSH2 0x10BE JUMP JUMPDEST CALLVALUE DUP1 ISZERO PUSH2 0x537 JUMPI PUSH1 0x0 DUP1 REVERT JUMPDEST POP PUSH2 0x3F4 PUSH2 0x10DB JUMP JUMPDEST CALLVALUE DUP1 ISZERO PUSH2 0x54C JUMPI PUSH1 0x0 DUP1 REVERT JUMPDEST POP PUSH2 0x20E PUSH2 0x55B CALLDATASIZE PUSH1 0x4 PUSH2 0x2AA6 JUMP JUMPDEST PUSH2 0x1163 JUMP JUMPDEST PUSH2 0x20E PUSH2 0x57D JUMP JUMPDEST CALLVALUE DUP1 ISZERO PUSH2 0x574 JUMPI PUSH1 0x0 DUP1 REVERT JUMPDEST POP PUSH2 0x3F4 PUSH2 0x121D JUMP JUMPDEST PUSH1 0x1 SLOAD PUSH1 0x40 DUP1 MLOAD PUSH4 0xD0E30DB PUSH1 0xE4 SHL DUP2 MSTORE SWAP1 MLOAD PUSH1 0x0 SWAP3 CALLVALUE SWAP3 PUSH1 0x1 PUSH1 0x1 PUSH1 0xA0 SHL SUB SWAP1 SWAP2 AND SWAP2 PUSH4 0xD0E30DB0 SWAP2 DUP5 SWAP2 PUSH1 0x4 DUP1 DUP4 ADD SWAP3 DUP9 SWAP3 SWAP2 SWAP1 DUP3 SWAP1 SUB ADD DUP2 DUP6 DUP9 DUP1 EXTCODESIZE ISZERO DUP1 ISZERO PUSH2 0x5C8 JUMPI PUSH1 0x0 DUP1 REVERT JUMPDEST POP GAS CALL ISZERO DUP1 ISZERO PUSH2 0x5DC JUMPI RETURNDATASIZE PUSH1 0x0 DUP1 RETURNDATACOPY RETURNDATASIZE PUSH1 0x0 REVERT JUMPDEST POP POP POP POP POP PUSH2 0x5EE ADDRESS CALLER DUP4 PUSH1 0x0 PUSH2 0x122C JUMP JUMPDEST SWAP2 POP POP JUMPDEST SWAP1 JUMP JUMPDEST PUSH1 0x0 PUSH1 0x60 PUSH2 0x601 PUSH2 0x6CF JUMP JUMPDEST SWAP1 POP PUSH1 0x0 JUMPDEST DUP2 MLOAD DUP2 LT ISZERO PUSH2 0x6A7 JUMPI PUSH2 0x69D DUP3 DUP3 DUP2 MLOAD DUP2 LT PUSH2 0x61E JUMPI INVALID JUMPDEST PUSH1 0x20 MUL PUSH1 0x20 ADD ADD MLOAD PUSH1 0x1 PUSH1 0x1 PUSH1 0xA0 SHL SUB AND PUSH4 0x1E1D114 PUSH1 0x40 MLOAD DUP2 PUSH4 0xFFFFFFFF AND PUSH1 0xE0 SHL DUP2 MSTORE PUSH1 0x4 ADD PUSH1 0x20 PUSH1 0x40 MLOAD DUP1 DUP4 SUB DUP2 DUP7 DUP1 EXTCODESIZE ISZERO DUP1 ISZERO PUSH2 0x65E JUMPI PUSH1 0x0 DUP1 REVERT JUMPDEST POP GAS STATICCALL ISZERO DUP1 ISZERO PUSH2 0x672 JUMPI RETURNDATASIZE PUSH1 0x0 DUP1 RETURNDATACOPY RETURNDATASIZE PUSH1 0x0 REVERT JUMPDEST POP POP POP POP PUSH1 0x40 MLOAD RETURNDATASIZE PUSH1 0x1F NOT PUSH1 0x1F DUP3 ADD AND DUP3 ADD DUP1 PUSH1 0x40 MSTORE POP DUP2 ADD SWAP1 PUSH2 0x696 SWAP2 SWAP1 PUSH2 0x2ABE JUMP JUMPDEST DUP5 SWAP1 PUSH2 0x162F JUMP JUMPDEST SWAP3 POP PUSH1 0x1 ADD PUSH2 0x606 JUMP JUMPDEST POP POP SWAP1 JUMP JUMPDEST PUSH1 0x0 PUSH2 0x6BB CALLER DUP7 DUP7 DUP7 DUP7 PUSH2 0x1654 JUMP JUMPDEST PUSH2 0x6C4 CALLER PUSH2 0x174B JUMP JUMPDEST SWAP1 POP JUMPDEST SWAP5 SWAP4 POP POP POP POP JUMP JUMPDEST PUSH1 0x2 SLOAD PUSH1 0x3 SLOAD PUSH1 0x1 SLOAD PUSH1 0x40 MLOAD PUSH4 0xF9C7BBA5 PUSH1 0xE0 SHL DUP2 MSTORE PUSH1 0x60 SWAP4 SWAP3 PUSH1 0x0 SWAP3 PUSH1 0x1 PUSH1 0x1 PUSH1 0xA0 SHL SUB SWAP2 DUP3 AND SWAP3 PUSH4 0xF9C7BBA5 SWAP3 PUSH2 0x70C SWAP3 AND SWAP1 PUSH1 0x4 ADD PUSH2 0x2BB5 JUMP JUMPDEST PUSH1 0x20 PUSH1 0x40 MLOAD DUP1 DUP4 SUB DUP2 DUP7 DUP1 EXTCODESIZE ISZERO DUP1 ISZERO PUSH2 0x724 JUMPI PUSH1 0x0 DUP1 REVERT JUMPDEST POP GAS STATICCALL ISZERO DUP1 ISZERO PUSH2 0x738 JUMPI RETURNDATASIZE PUSH1 0x0 DUP1 RETURNDATACOPY RETURNDATASIZE PUSH1 0x0 REVERT JUMPDEST POP POP POP POP PUSH1 0x40 MLOAD RETURNDATASIZE PUSH1 0x1F NOT PUSH1 0x1F DUP3 ADD AND DUP3 ADD DUP1 PUSH1 0x40 MSTORE POP DUP2 ADD SWAP1 PUSH2 0x75C SWAP2 SWAP1 PUSH2 0x2ABE JUMP JUMPDEST SWAP1 POP DUP1 DUP3 EQ ISZERO PUSH2 0x7CA JUMPI PUSH1 0x2 DUP1 SLOAD DUP1 PUSH1 0x20 MUL PUSH1 0x20 ADD PUSH1 0x40 MLOAD SWAP1 DUP2 ADD PUSH1 0x40 MSTORE DUP1 SWAP3 SWAP2 SWAP1 DUP2 DUP2 MSTORE PUSH1 0x20 ADD DUP3 DUP1 SLOAD DUP1 ISZERO PUSH2 0x7BC JUMPI PUSH1 0x20 MUL DUP3 ADD SWAP2 SWAP1 PUSH1 0x0 MSTORE PUSH1 0x20 PUSH1 0x0 KECCAK256 SWAP1 JUMPDEST DUP2 SLOAD PUSH1 0x1 PUSH1 0x1 PUSH1 0xA0 SHL SUB AND DUP2 MSTORE PUSH1 0x1 SWAP1 SWAP2 ADD SWAP1 PUSH1 0x20 ADD DUP1 DUP4 GT PUSH2 0x79E JUMPI JUMPDEST POP POP POP POP POP SWAP3 POP POP POP PUSH2 0x5F2 JUMP JUMPDEST PUSH1 0x60 DUP2 PUSH8 0xFFFFFFFFFFFFFFFF DUP2 GT DUP1 ISZERO PUSH2 0x7E3 JUMPI PUSH1 0x0 DUP1 REVERT JUMPDEST POP PUSH1 0x40 MLOAD SWAP1 DUP1 DUP3 MSTORE DUP1 PUSH1 0x20 MUL PUSH1 0x20 ADD DUP3 ADD PUSH1 0x40 MSTORE DUP1 ISZERO PUSH2 0x80D JUMPI DUP2 PUSH1 0x20 ADD PUSH1 0x20 DUP3 MUL DUP1 CALLDATASIZE DUP4 CALLDATACOPY ADD SWAP1 POP JUMPDEST POP SWAP1 POP PUSH1 0x0 JUMPDEST DUP4 DUP2 LT ISZERO PUSH2 0x872 JUMPI PUSH1 0x2 DUP2 DUP2 SLOAD DUP2 LT PUSH2 0x828 JUMPI INVALID JUMPDEST SWAP1 PUSH1 0x0 MSTORE PUSH1 0x20 PUSH1 0x0 KECCAK256 ADD PUSH1 0x0 SWAP1 SLOAD SWAP1 PUSH2 0x100 EXP SWAP1 DIV PUSH1 0x1 PUSH1 0x1 PUSH1 0xA0 SHL SUB AND DUP3 DUP3 DUP2 MLOAD DUP2 LT PUSH2 0x852 JUMPI INVALID JUMPDEST PUSH1 0x1 PUSH1 0x1 PUSH1 0xA0 SHL SUB SWAP1 SWAP3 AND PUSH1 0x20 SWAP3 DUP4 MUL SWAP2 SWAP1 SWAP2 ADD SWAP1 SWAP2 ADD MSTORE PUSH1 0x1 ADD PUSH2 0x813 JUMP JUMPDEST POP DUP3 JUMPDEST DUP3 DUP2 LT ISZERO PUSH2 0x92F JUMPI PUSH1 0x3 SLOAD PUSH1 0x1 SLOAD PUSH1 0x40 MLOAD PUSH4 0x3DDFE34F PUSH1 0xE1 SHL DUP2 MSTORE PUSH1 0x1 PUSH1 0x1 PUSH1 0xA0 SHL SUB SWAP3 DUP4 AND SWAP3 PUSH4 0x7BBFC69E SWAP3 PUSH2 0x8B3 SWAP3 SWAP2 AND SWAP1 DUP6 SWAP1 PUSH1 0x4 ADD PUSH2 0x2C4E JUMP JUMPDEST PUSH1 0x20 PUSH1 0x40 MLOAD DUP1 DUP4 SUB DUP2 DUP7 DUP1 EXTCODESIZE ISZERO DUP1 ISZERO PUSH2 0x8CB JUMPI PUSH1 0x0 DUP1 REVERT JUMPDEST POP GAS STATICCALL ISZERO DUP1 ISZERO PUSH2 0x8DF JUMPI RETURNDATASIZE PUSH1 0x0 DUP1 RETURNDATACOPY RETURNDATASIZE PUSH1 0x0 REVERT JUMPDEST POP POP POP POP PUSH1 0x40 MLOAD RETURNDATASIZE PUSH1 0x1F NOT PUSH1 0x1F DUP3 ADD AND DUP3 ADD DUP1 PUSH1 0x40 MSTORE POP DUP2 ADD SWAP1 PUSH2 0x903 SWAP2 SWAP1 PUSH2 0x27D3 JUMP JUMPDEST DUP3 DUP3 DUP2 MLOAD DUP2 LT PUSH2 0x90F JUMPI INVALID JUMPDEST PUSH1 0x1 PUSH1 0x1 PUSH1 0xA0 SHL SUB SWAP1 SWAP3 AND PUSH1 0x20 SWAP3 DUP4 MUL SWAP2 SWAP1 SWAP2 ADD SWAP1 SWAP2 ADD MSTORE PUSH1 0x1 ADD PUSH2 0x875 JUMP JUMPDEST POP SWAP3 POP POP POP SWAP1 JUMP JUMPDEST PUSH1 0x1 SLOAD PUSH1 0x40 DUP1 MLOAD PUSH4 0x6FDDE03 PUSH1 0xE0 SHL DUP2 MSTORE SWAP1 MLOAD PUSH1 0x60 SWAP3 PUSH1 0x1 PUSH1 0x1 PUSH1 0xA0 SHL SUB AND SWAP2 PUSH4 0x6FDDE03 SWAP2 PUSH1 0x4 DUP1 DUP4 ADD SWAP3 PUSH1 0x0 SWAP3 SWAP2 SWAP1 DUP3 SWAP1 SUB ADD DUP2 DUP7 DUP1 EXTCODESIZE ISZERO DUP1 ISZERO PUSH2 0x97C JUMPI PUSH1 0x0 DUP1 REVERT JUMPDEST POP GAS STATICCALL ISZERO DUP1 ISZERO PUSH2 0x990 JUMPI RETURNDATASIZE PUSH1 0x0 DUP1 RETURNDATACOPY RETURNDATASIZE PUSH1 0x0 REVERT JUMPDEST POP POP POP POP PUSH1 0x40 MLOAD RETURNDATASIZE PUSH1 0x0 DUP3 RETURNDATACOPY PUSH1 0x1F RETURNDATASIZE SWAP1 DUP2 ADD PUSH1 0x1F NOT AND DUP3 ADD PUSH1 0x40 MSTORE PUSH2 0x9B8 SWAP2 SWAP1 DUP2 ADD SWAP1 PUSH2 0x2A15 JUMP JUMPDEST PUSH1 0x40 MLOAD PUSH1 0x20 ADD PUSH2 0x9C8 SWAP2 SWAP1 PUSH2 0x2B5E JUMP JUMPDEST PUSH1 0x40 MLOAD PUSH1 0x20 DUP2 DUP4 SUB SUB DUP2 MSTORE SWAP1 PUSH1 0x40 MSTORE SWAP1 POP SWAP1 JUMP JUMPDEST PUSH1 0x0 PUSH2 0x9E9 CALLER DUP5 DUP5 PUSH2 0x1759 JUMP JUMPDEST POP PUSH1 0x1 JUMPDEST SWAP3 SWAP2 POP POP JUMP JUMPDEST PUSH1 0x0 PUSH2 0x9FD PUSH2 0x5F5 JUMP JUMPDEST SWAP1 POP SWAP1 JUMP JUMPDEST PUSH1 0x0 PUSH2 0xA0F DUP5 DUP5 DUP5 PUSH2 0x180D JUMP JUMPDEST PUSH1 0x1 PUSH1 0x1 PUSH1 0xA0 SHL SUB DUP5 AND PUSH1 0x0 SWAP1 DUP2 MSTORE PUSH1 0x4 PUSH1 0x20 SWAP1 DUP2 MSTORE PUSH1 0x40 DUP1 DUP4 KECCAK256 CALLER DUP1 DUP6 MSTORE SWAP3 MSTORE SWAP1 SWAP2 KECCAK256 SLOAD PUSH2 0xA49 SWAP2 DUP7 SWAP2 PUSH2 0xA44 SWAP1 DUP7 PUSH2 0x188E JUMP JUMPDEST PUSH2 0x1759 JUMP JUMPDEST POP PUSH1 0x1 JUMPDEST SWAP4 SWAP3 POP POP POP JUMP JUMPDEST PUSH1 0x0 PUSH2 0x9ED CALLER CALLER DUP5 PUSH1 0x1 PUSH2 0x18D0 JUMP JUMPDEST PUSH1 0x0 PUSH1 0x60 PUSH2 0xA6F PUSH2 0x6CF JUMP JUMPDEST SWAP1 POP PUSH1 0x0 JUMPDEST DUP2 MLOAD DUP2 LT ISZERO PUSH2 0xC36 JUMPI PUSH2 0xC2C PUSH2 0x696 DUP4 DUP4 DUP2 MLOAD DUP2 LT PUSH2 0xA8F JUMPI INVALID JUMPDEST PUSH1 0x20 MUL PUSH1 0x20 ADD ADD MLOAD PUSH1 0x1 PUSH1 0x1 PUSH1 0xA0 SHL SUB AND PUSH4 0x313CE567 PUSH1 0x40 MLOAD DUP2 PUSH4 0xFFFFFFFF AND PUSH1 0xE0 SHL DUP2 MSTORE PUSH1 0x4 ADD PUSH1 0x20 PUSH1 0x40 MLOAD DUP1 DUP4 SUB DUP2 DUP7 DUP1 EXTCODESIZE ISZERO DUP1 ISZERO PUSH2 0xACF JUMPI PUSH1 0x0 DUP1 REVERT JUMPDEST POP GAS STATICCALL ISZERO DUP1 ISZERO PUSH2 0xAE3 JUMPI RETURNDATASIZE PUSH1 0x0 DUP1 RETURNDATACOPY RETURNDATASIZE PUSH1 0x0 REVERT JUMPDEST POP POP POP POP PUSH1 0x40 MLOAD RETURNDATASIZE PUSH1 0x1F NOT PUSH1 0x1F DUP3 ADD AND DUP3 ADD DUP1 PUSH1 0x40 MSTORE POP DUP2 ADD SWAP1 PUSH2 0xB07 SWAP2 SWAP1 PUSH2 0x2ABE JUMP JUMPDEST PUSH1 0xA EXP PUSH2 0xC26 DUP6 DUP6 DUP2 MLOAD DUP2 LT PUSH2 0xB19 JUMPI INVALID JUMPDEST PUSH1 0x20 MUL PUSH1 0x20 ADD ADD MLOAD PUSH1 0x1 PUSH1 0x1 PUSH1 0xA0 SHL SUB AND PUSH4 0x99530B06 PUSH1 0x40 MLOAD DUP2 PUSH4 0xFFFFFFFF AND PUSH1 0xE0 SHL DUP2 MSTORE PUSH1 0x4 ADD PUSH1 0x20 PUSH1 0x40 MLOAD DUP1 DUP4 SUB DUP2 DUP7 DUP1 EXTCODESIZE ISZERO DUP1 ISZERO PUSH2 0xB59 JUMPI PUSH1 0x0 DUP1 REVERT JUMPDEST POP GAS STATICCALL ISZERO DUP1 ISZERO PUSH2 0xB6D JUMPI RETURNDATASIZE PUSH1 0x0 DUP1 RETURNDATACOPY RETURNDATASIZE PUSH1 0x0 REVERT JUMPDEST POP POP POP POP PUSH1 0x40 MLOAD RETURNDATASIZE PUSH1 0x1F NOT PUSH1 0x1F DUP3 ADD AND DUP3 ADD DUP1 PUSH1 0x40 MSTORE POP DUP2 ADD SWAP1 PUSH2 0xB91 SWAP2 SWAP1 PUSH2 0x2ABE JUMP JUMPDEST DUP7 DUP7 DUP2 MLOAD DUP2 LT PUSH2 0xB9D JUMPI INVALID JUMPDEST PUSH1 0x20 MUL PUSH1 0x20 ADD ADD MLOAD PUSH1 0x1 PUSH1 0x1 PUSH1 0xA0 SHL SUB AND PUSH4 0x70A08231 DUP11 PUSH1 0x40 MLOAD DUP3 PUSH4 0xFFFFFFFF AND PUSH1 0xE0 SHL DUP2 MSTORE PUSH1 0x4 ADD PUSH2 0xBD0 SWAP2 SWAP1 PUSH2 0x2BB5 JUMP JUMPDEST PUSH1 0x20 PUSH1 0x40 MLOAD DUP1 DUP4 SUB DUP2 DUP7 DUP1 EXTCODESIZE ISZERO DUP1 ISZERO PUSH2 0xBE8 JUMPI PUSH1 0x0 DUP1 REVERT JUMPDEST POP GAS STATICCALL ISZERO DUP1 ISZERO PUSH2 0xBFC JUMPI RETURNDATASIZE PUSH1 0x0 DUP1 RETURNDATACOPY RETURNDATASIZE PUSH1 0x0 REVERT JUMPDEST POP POP POP POP PUSH1 0x40 MLOAD RETURNDATASIZE PUSH1 0x1F NOT PUSH1 0x1F DUP3 ADD AND DUP3 ADD DUP1 PUSH1 0x40 MSTORE POP DUP2 ADD SWAP1 PUSH2 0xC20 SWAP2 SWAP1 PUSH2 0x2ABE JUMP JUMPDEST SWAP1 PUSH2 0x20BA JUMP JUMPDEST SWAP1 PUSH2 0x20F4 JUMP JUMPDEST SWAP3 POP PUSH1 0x1 ADD PUSH2 0xA74 JUMP JUMPDEST POP POP SWAP2 SWAP1 POP JUMP JUMPDEST PUSH1 0x1 SLOAD PUSH1 0x40 DUP1 MLOAD PUSH4 0x313CE567 PUSH1 0xE0 SHL DUP2 MSTORE SWAP1 MLOAD PUSH1 0x0 SWAP3 PUSH1 0x1 PUSH1 0x1 PUSH1 0xA0 SHL SUB AND SWAP2 PUSH4 0x313CE567 SWAP2 PUSH1 0x4 DUP1 DUP4 ADD SWAP3 PUSH1 0x20 SWAP3 SWAP2 SWAP1 DUP3 SWAP1 SUB ADD DUP2 DUP7 DUP1 EXTCODESIZE ISZERO DUP1 ISZERO PUSH2 0xC82 JUMPI PUSH1 0x0 DUP1 REVERT JUMPDEST POP GAS STATICCALL ISZERO DUP1 ISZERO PUSH2 0xC96 JUMPI RETURNDATASIZE PUSH1 0x0 DUP1 RETURNDATACOPY RETURNDATASIZE PUSH1 0x0 REVERT JUMPDEST POP POP POP POP PUSH1 0x40 MLOAD RETURNDATASIZE PUSH1 0x1F NOT PUSH1 0x1F DUP3 ADD AND DUP3 ADD DUP1 PUSH1 0x40 MSTORE POP DUP2 ADD SWAP1 PUSH2 0xCBA SWAP2 SWAP1 PUSH2 0x2AF7 JUMP JUMPDEST PUSH1 0xFF AND SWAP1 POP SWAP1 JUMP JUMPDEST CALLER PUSH1 0x0 DUP2 DUP2 MSTORE PUSH1 0x4 PUSH1 0x20 SWAP1 DUP2 MSTORE PUSH1 0x40 DUP1 DUP4 KECCAK256 PUSH1 0x1 PUSH1 0x1 PUSH1 0xA0 SHL SUB DUP8 AND DUP5 MSTORE SWAP1 SWAP2 MSTORE DUP2 KECCAK256 SLOAD SWAP1 SWAP2 PUSH2 0x9E9 SWAP2 DUP6 SWAP1 PUSH2 0xA44 SWAP1 DUP7 PUSH2 0x162F JUMP JUMPDEST PUSH1 0x0 PUSH2 0xA4D CALLER DUP5 DUP5 PUSH2 0x2136 JUMP JUMPDEST PUSH1 0x0 PUSH2 0xD14 CALLER DUP8 DUP8 DUP8 DUP8 PUSH2 0x1654 JUMP JUMPDEST PUSH2 0xD1E CALLER DUP4 PUSH2 0x22D0 JUMP JUMPDEST SWAP7 SWAP6 POP POP POP POP POP POP JUMP JUMPDEST PUSH1 0x0 PUSH2 0x9ED CALLER DUP4 PUSH2 0x22D0 JUMP JUMPDEST PUSH1 0x0 PUSH2 0x9ED DUP3 PUSH2 0xA63 JUMP JUMPDEST PUSH1 0x3 SLOAD PUSH1 0x1 PUSH1 0x1 PUSH1 0xA0 SHL SUB AND DUP2 JUMP JUMPDEST DUP3 DUP2 EQ PUSH2 0xD5A JUMPI PUSH1 0x0 DUP1 REVERT JUMPDEST PUSH1 0x0 JUMPDEST DUP4 DUP2 LT ISZERO PUSH2 0xE3B JUMPI DUP5 DUP5 DUP3 DUP2 DUP2 LT PUSH2 0xD71 JUMPI INVALID JUMPDEST SWAP1 POP PUSH1 0x20 MUL ADD PUSH1 0x20 DUP2 ADD SWAP1 PUSH2 0xD86 SWAP2 SWAP1 PUSH2 0x27B7 JUMP JUMPDEST PUSH1 0x1 PUSH1 0x1 PUSH1 0xA0 SHL SUB AND PUSH4 0x9FD5A6CF CALLER ADDRESS PUSH1 0x0 DUP1 DUP9 DUP9 DUP9 DUP2 DUP2 LT PUSH2 0xDA5 JUMPI INVALID JUMPDEST SWAP1 POP PUSH1 0x20 MUL DUP2 ADD SWAP1 PUSH2 0xDB7 SWAP2 SWAP1 PUSH2 0x2FF5 JUMP JUMPDEST PUSH1 0x40 MLOAD DUP8 PUSH4 0xFFFFFFFF AND PUSH1 0xE0 SHL DUP2 MSTORE PUSH1 0x4 ADD PUSH2 0xDD8 SWAP7 SWAP6 SWAP5 SWAP4 SWAP3 SWAP2 SWAP1 PUSH2 0x2BC9 JUMP JUMPDEST PUSH1 0x20 PUSH1 0x40 MLOAD DUP1 DUP4 SUB DUP2 PUSH1 0x0 DUP8 DUP1 EXTCODESIZE ISZERO DUP1 ISZERO PUSH2 0xDF2 JUMPI PUSH1 0x0 DUP1 REVERT JUMPDEST POP GAS CALL ISZERO DUP1 ISZERO PUSH2 0xE06 JUMPI RETURNDATASIZE PUSH1 0x0 DUP1 RETURNDATACOPY RETURNDATASIZE PUSH1 0x0 REVERT JUMPDEST POP POP POP POP PUSH1 0x40 MLOAD RETURNDATASIZE PUSH1 0x1F NOT PUSH1 0x1F DUP3 ADD AND DUP3 ADD DUP1 PUSH1 0x40 MSTORE POP DUP2 ADD SWAP1 PUSH2 0xE2A SWAP2 SWAP1 PUSH2 0x29F5 JUMP JUMPDEST PUSH2 0xE33 JUMPI PUSH1 0x0 DUP1 REVERT JUMPDEST PUSH1 0x1 ADD PUSH2 0xD5D JUMP JUMPDEST POP POP POP POP POP JUMP JUMPDEST PUSH1 0x0 PUSH2 0x9FD CALLER PUSH2 0x174B JUMP JUMPDEST PUSH1 0x1 SLOAD PUSH1 0x40 DUP1 MLOAD PUSH4 0x95D89B41 PUSH1 0xE0 SHL DUP2 MSTORE SWAP1 MLOAD PUSH1 0x60 SWAP3 PUSH1 0x1 PUSH1 0x1 PUSH1 0xA0 SHL SUB AND SWAP2 PUSH4 0x95D89B41 SWAP2 PUSH1 0x4 DUP1 DUP4 ADD SWAP3 PUSH1 0x0 SWAP3 SWAP2 SWAP1 DUP3 SWAP1 SUB ADD DUP2 DUP7 DUP1 EXTCODESIZE ISZERO DUP1 ISZERO PUSH2 0xE92 JUMPI PUSH1 0x0 DUP1 REVERT JUMPDEST POP GAS STATICCALL ISZERO DUP1 ISZERO PUSH2 0xEA6 JUMPI RETURNDATASIZE PUSH1 0x0 DUP1 RETURNDATACOPY RETURNDATASIZE PUSH1 0x0 REVERT JUMPDEST POP POP POP POP PUSH1 0x40 MLOAD RETURNDATASIZE PUSH1 0x0 DUP3 RETURNDATACOPY PUSH1 0x1F RETURNDATASIZE SWAP1 DUP2 ADD PUSH1 0x1F NOT AND DUP3 ADD PUSH1 0x40 MSTORE PUSH2 0xECE SWAP2 SWAP1 DUP2 ADD SWAP1 PUSH2 0x2A15 JUMP JUMPDEST PUSH1 0x40 MLOAD PUSH1 0x20 ADD PUSH2 0x9C8 SWAP2 SWAP1 PUSH2 0x2B8C JUMP JUMPDEST CALLER PUSH1 0x0 DUP2 DUP2 MSTORE PUSH1 0x4 PUSH1 0x20 SWAP1 DUP2 MSTORE PUSH1 0x40 DUP1 DUP4 KECCAK256 PUSH1 0x1 PUSH1 0x1 PUSH1 0xA0 SHL SUB DUP8 AND DUP5 MSTORE SWAP1 SWAP2 MSTORE DUP2 KECCAK256 SLOAD SWAP1 SWAP2 PUSH2 0x9E9 SWAP2 DUP6 SWAP1 PUSH2 0xA44 SWAP1 DUP7 PUSH2 0x188E JUMP JUMPDEST PUSH1 0x0 PUSH2 0x9E9 CALLER DUP5 DUP5 PUSH2 0x180D JUMP JUMPDEST PUSH1 0x3 PUSH1 0x0 SWAP1 SLOAD SWAP1 PUSH2 0x100 EXP SWAP1 DIV PUSH1 0x1 PUSH1 0x1 PUSH1 0xA0 SHL SUB AND PUSH1 0x1 PUSH1 0x1 PUSH1 0xA0 SHL SUB AND PUSH4 0x5AA6E675 PUSH1 0x40 MLOAD DUP2 PUSH4 0xFFFFFFFF AND PUSH1 0xE0 SHL DUP2 MSTORE PUSH1 0x4 ADD PUSH1 0x20 PUSH1 0x40 MLOAD DUP1 DUP4 SUB DUP2 DUP7 DUP1 EXTCODESIZE ISZERO DUP1 ISZERO PUSH2 0xF6F JUMPI PUSH1 0x0 DUP1 REVERT JUMPDEST POP GAS STATICCALL ISZERO DUP1 ISZERO PUSH2 0xF83 JUMPI RETURNDATASIZE PUSH1 0x0 DUP1 RETURNDATACOPY RETURNDATASIZE PUSH1 0x0 REVERT JUMPDEST POP POP POP POP PUSH1 0x40 MLOAD RETURNDATASIZE PUSH1 0x1F NOT PUSH1 0x1F DUP3 ADD AND DUP3 ADD DUP1 PUSH1 0x40 MSTORE POP DUP2 ADD SWAP1 PUSH2 0xFA7 SWAP2 SWAP1 PUSH2 0x27D3 JUMP JUMPDEST PUSH1 0x1 PUSH1 0x1 PUSH1 0xA0 SHL SUB AND CALLER PUSH1 0x1 PUSH1 0x1 PUSH1 0xA0 SHL SUB AND EQ PUSH2 0xFC4 JUMPI PUSH1 0x0 DUP1 REVERT JUMPDEST PUSH1 0x3 DUP1 SLOAD PUSH1 0x1 PUSH1 0x1 PUSH1 0xA0 SHL SUB NOT AND PUSH1 0x1 PUSH1 0x1 PUSH1 0xA0 SHL SUB DUP4 DUP2 AND SWAP2 SWAP1 SWAP2 OR SWAP2 DUP3 SWAP1 SSTORE PUSH1 0x40 DUP1 MLOAD PUSH4 0x5AA6E675 PUSH1 0xE0 SHL DUP2 MSTORE SWAP1 MLOAD SWAP3 SWAP1 SWAP2 AND SWAP2 PUSH4 0x5AA6E675 SWAP2 PUSH1 0x4 DUP1 DUP3 ADD SWAP3 PUSH1 0x20 SWAP3 SWAP1 SWAP2 SWAP1 DUP3 SWAP1 SUB ADD DUP2 DUP7 DUP1 EXTCODESIZE ISZERO DUP1 ISZERO PUSH2 0x1020 JUMPI PUSH1 0x0 DUP1 REVERT JUMPDEST POP GAS STATICCALL ISZERO DUP1 ISZERO PUSH2 0x1034 JUMPI RETURNDATASIZE PUSH1 0x0 DUP1 RETURNDATACOPY RETURNDATASIZE PUSH1 0x0 REVERT JUMPDEST POP POP POP POP PUSH1 0x40 MLOAD RETURNDATASIZE PUSH1 0x1F NOT PUSH1 0x1F DUP3 ADD AND DUP3 ADD DUP1 PUSH1 0x40 MSTORE POP DUP2 ADD SWAP1 PUSH2 0x1058 SWAP2 SWAP1 PUSH2 0x27D3 JUMP JUMPDEST PUSH1 0x1 PUSH1 0x1 PUSH1 0xA0 SHL SUB AND CALLER PUSH1 0x1 PUSH1 0x1 PUSH1 0xA0 SHL SUB AND EQ PUSH2 0x1075 JUMPI PUSH1 0x0 DUP1 REVERT JUMPDEST POP JUMP JUMPDEST PUSH1 0x0 PUSH2 0x1087 DUP4 DUP9 DUP9 DUP9 DUP9 PUSH2 0x1654 JUMP JUMPDEST PUSH2 0x1091 DUP4 DUP4 PUSH2 0x22D0 JUMP JUMPDEST SWAP8 SWAP7 POP POP POP POP POP POP POP JUMP JUMPDEST PUSH1 0x0 PUSH2 0x9ED CALLER CALLER DUP5 PUSH1 0x1 PUSH2 0x122C JUMP JUMPDEST PUSH2 0x10B8 CALLER DUP6 DUP6 DUP6 DUP6 PUSH2 0x1654 JUMP JUMPDEST POP POP POP POP JUMP JUMPDEST PUSH1 0x4 PUSH1 0x20 SWAP1 DUP2 MSTORE PUSH1 0x0 SWAP3 DUP4 MSTORE PUSH1 0x40 DUP1 DUP5 KECCAK256 SWAP1 SWAP2 MSTORE SWAP1 DUP3 MSTORE SWAP1 KECCAK256 SLOAD DUP2 JUMP JUMPDEST PUSH1 0x3 SLOAD PUSH1 0x1 SLOAD PUSH1 0x40 MLOAD PUSH4 0xE177DC7 PUSH1 0xE4 SHL DUP2 MSTORE PUSH1 0x0 SWAP3 PUSH1 0x1 PUSH1 0x1 PUSH1 0xA0 SHL SUB SWAP1 DUP2 AND SWAP3 PUSH4 0xE177DC70 SWAP3 PUSH2 0x1113 SWAP3 SWAP1 SWAP2 AND SWAP1 PUSH1 0x4 ADD PUSH2 0x2BB5 JUMP JUMPDEST PUSH1 0x20 PUSH1 0x40 MLOAD DUP1 DUP4 SUB DUP2 DUP7 DUP1 EXTCODESIZE ISZERO DUP1 ISZERO PUSH2 0x112B JUMPI PUSH1 0x0 DUP1 REVERT JUMPDEST POP GAS STATICCALL ISZERO DUP1 ISZERO PUSH2 0x113F JUMPI RETURNDATASIZE PUSH1 0x0 DUP1 RETURNDATACOPY RETURNDATASIZE PUSH1 0x0 REVERT JUMPDEST POP POP POP POP PUSH1 0x40 MLOAD RETURNDATASIZE PUSH1 0x1F NOT PUSH1 0x1F DUP3 ADD AND DUP3 ADD DUP1 PUSH1 0x40 MSTORE POP DUP2 ADD SWAP1 PUSH2 0x9FD SWAP2 SWAP1 PUSH2 0x27D3 JUMP JUMPDEST PUSH1 0x0 PUSH1 0x2 PUSH1 0x0 SLOAD EQ ISZERO PUSH2 0x1191 JUMPI PUSH1 0x40 MLOAD PUSH3 0x461BCD PUSH1 0xE5 SHL DUP2 MSTORE PUSH1 0x4 ADD PUSH2 0x1188 SWAP1 PUSH2 0x2F48 JUMP JUMPDEST PUSH1 0x40 MLOAD DUP1 SWAP2 SUB SWAP1 REVERT JUMPDEST PUSH1 0x2 PUSH1 0x0 SSTORE PUSH2 0x11A3 CALLER ADDRESS DUP5 PUSH1 0x1 PUSH2 0x18D0 JUMP JUMPDEST PUSH1 0x1 SLOAD PUSH1 0x40 MLOAD PUSH4 0x2E1A7D4D PUSH1 0xE0 SHL DUP2 MSTORE SWAP2 SWAP3 POP PUSH1 0x1 PUSH1 0x1 PUSH1 0xA0 SHL SUB AND SWAP1 PUSH4 0x2E1A7D4D SWAP1 PUSH2 0x11D4 SWAP1 DUP5 SWAP1 PUSH1 0x4 ADD PUSH2 0x2FD5 JUMP JUMPDEST PUSH1 0x0 PUSH1 0x40 MLOAD DUP1 DUP4 SUB DUP2 PUSH1 0x0 DUP8 DUP1 EXTCODESIZE ISZERO DUP1 ISZERO PUSH2 0x11EE JUMPI PUSH1 0x0 DUP1 REVERT JUMPDEST POP GAS CALL ISZERO DUP1 ISZERO PUSH2 0x1202 JUMPI RETURNDATASIZE PUSH1 0x0 DUP1 RETURNDATACOPY RETURNDATASIZE PUSH1 0x0 REVERT JUMPDEST POP PUSH2 0x1213 SWAP3 POP CALLER SWAP2 POP SELFBALANCE SWAP1 POP PUSH2 0x22DE JUMP JUMPDEST PUSH1 0x1 PUSH1 0x0 SSTORE SWAP2 SWAP1 POP JUMP JUMPDEST PUSH1 0x1 SLOAD PUSH1 0x1 PUSH1 0x1 PUSH1 0xA0 SHL SUB AND DUP2 JUMP JUMPDEST PUSH1 0x0 DUP1 PUSH2 0x1237 PUSH2 0x10DB JUMP JUMPDEST SWAP1 POP DUP3 ISZERO PUSH2 0x12E4 JUMPI PUSH1 0x0 NOT DUP5 EQ ISZERO PUSH2 0x12CC JUMPI PUSH1 0x1 SLOAD PUSH1 0x40 MLOAD PUSH4 0x70A08231 PUSH1 0xE0 SHL DUP2 MSTORE PUSH1 0x1 PUSH1 0x1 PUSH1 0xA0 SHL SUB SWAP1 SWAP2 AND SWAP1 PUSH4 0x70A08231 SWAP1 PUSH2 0x1279 SWAP1 DUP10 SWAP1 PUSH1 0x4 ADD PUSH2 0x2BB5 JUMP JUMPDEST PUSH1 0x20 PUSH1 0x40 MLOAD DUP1 DUP4 SUB DUP2 DUP7 DUP1 EXTCODESIZE ISZERO DUP1 ISZERO PUSH2 0x1291 JUMPI PUSH1 0x0 DUP1 REVERT JUMPDEST POP GAS STATICCALL ISZERO DUP1 ISZERO PUSH2 0x12A5 JUMPI RETURNDATASIZE PUSH1 0x0 DUP1 RETURNDATACOPY RETURNDATASIZE PUSH1 0x0 REVERT JUMPDEST POP POP POP POP PUSH1 0x40 MLOAD RETURNDATASIZE PUSH1 0x1F NOT PUSH1 0x1F DUP3 ADD AND DUP3 ADD DUP1 PUSH1 0x40 MSTORE POP DUP2 ADD SWAP1 PUSH2 0x12C9 SWAP2 SWAP1 PUSH2 0x2ABE JUMP JUMPDEST SWAP4 POP JUMPDEST PUSH1 0x1 SLOAD PUSH2 0x12E4 SWAP1 PUSH1 0x1 PUSH1 0x1 PUSH1 0xA0 SHL SUB AND DUP8 ADDRESS DUP8 PUSH2 0x237F JUMP JUMPDEST PUSH1 0x1 SLOAD PUSH1 0x40 MLOAD PUSH4 0x6EB1769F PUSH1 0xE1 SHL DUP2 MSTORE DUP6 SWAP2 PUSH1 0x1 PUSH1 0x1 PUSH1 0xA0 SHL SUB AND SWAP1 PUSH4 0xDD62ED3E SWAP1 PUSH2 0x1316 SWAP1 ADDRESS SWAP1 DUP7 SWAP1 PUSH1 0x4 ADD PUSH2 0x2C10 JUMP JUMPDEST PUSH1 0x20 PUSH1 0x40 MLOAD DUP1 DUP4 SUB DUP2 DUP7 DUP1 EXTCODESIZE ISZERO DUP1 ISZERO PUSH2 0x132E JUMPI PUSH1 0x0 DUP1 REVERT JUMPDEST POP GAS STATICCALL ISZERO DUP1 ISZERO PUSH2 0x1342 JUMPI RETURNDATASIZE PUSH1 0x0 DUP1 RETURNDATACOPY RETURNDATASIZE PUSH1 0x0 REVERT JUMPDEST POP POP POP POP PUSH1 0x40 MLOAD RETURNDATASIZE PUSH1 0x1F NOT PUSH1 0x1F DUP3 ADD AND DUP3 ADD DUP1 PUSH1 0x40 MSTORE POP DUP2 ADD SWAP1 PUSH2 0x1366 SWAP2 SWAP1 PUSH2 0x2ABE JUMP JUMPDEST LT ISZERO PUSH2 0x139D JUMPI PUSH1 0x1 SLOAD PUSH2 0x1384 SWAP1 PUSH1 0x1 PUSH1 0x1 PUSH1 0xA0 SHL SUB AND DUP3 PUSH1 0x0 PUSH2 0x23D7 JUMP JUMPDEST PUSH1 0x1 SLOAD PUSH2 0x139D SWAP1 PUSH1 0x1 PUSH1 0x1 PUSH1 0xA0 SHL SUB AND DUP3 PUSH1 0x0 NOT PUSH2 0x23D7 JUMP JUMPDEST PUSH1 0x1 SLOAD PUSH1 0x40 MLOAD PUSH4 0x70A08231 PUSH1 0xE0 SHL DUP2 MSTORE PUSH1 0x0 SWAP2 PUSH1 0x1 PUSH1 0x1 PUSH1 0xA0 SHL SUB AND SWAP1 PUSH4 0x70A08231 SWAP1 PUSH2 0x13CE SWAP1 ADDRESS SWAP1 PUSH1 0x4 ADD PUSH2 0x2BB5 JUMP JUMPDEST PUSH1 0x20 PUSH1 0x40 MLOAD DUP1 DUP4 SUB DUP2 DUP7 DUP1 EXTCODESIZE ISZERO DUP1 ISZERO PUSH2 0x13E6 JUMPI PUSH1 0x0 DUP1 REVERT JUMPDEST POP GAS STATICCALL ISZERO DUP1 ISZERO PUSH2 0x13FA JUMPI RETURNDATASIZE PUSH1 0x0 DUP1 RETURNDATACOPY RETURNDATASIZE PUSH1 0x0 REVERT JUMPDEST POP POP POP POP PUSH1 0x40 MLOAD RETURNDATASIZE PUSH1 0x1F NOT PUSH1 0x1F DUP3 ADD AND DUP3 ADD DUP1 PUSH1 0x40 MSTORE POP DUP2 ADD SWAP1 PUSH2 0x141E SWAP2 SWAP1 PUSH2 0x2ABE JUMP JUMPDEST SWAP1 POP PUSH1 0x1 PUSH1 0x1 PUSH1 0xA0 SHL SUB DUP7 AND ADDRESS EQ PUSH2 0x14B6 JUMPI PUSH1 0x40 MLOAD PUSH4 0x6E553F65 PUSH1 0xE0 SHL DUP2 MSTORE PUSH1 0x1 PUSH1 0x1 PUSH1 0xA0 SHL SUB DUP4 AND SWAP1 PUSH4 0x6E553F65 SWAP1 PUSH2 0x145E SWAP1 DUP9 SWAP1 DUP11 SWAP1 PUSH1 0x4 ADD PUSH2 0x2FDE JUMP JUMPDEST PUSH1 0x20 PUSH1 0x40 MLOAD DUP1 DUP4 SUB DUP2 PUSH1 0x0 DUP8 DUP1 EXTCODESIZE ISZERO DUP1 ISZERO PUSH2 0x1478 JUMPI PUSH1 0x0 DUP1 REVERT JUMPDEST POP GAS CALL ISZERO DUP1 ISZERO PUSH2 0x148C JUMPI RETURNDATASIZE PUSH1 0x0 DUP1 RETURNDATACOPY RETURNDATASIZE PUSH1 0x0 REVERT JUMPDEST POP POP POP POP PUSH1 0x40 MLOAD RETURNDATASIZE PUSH1 0x1F NOT PUSH1 0x1F DUP3 ADD AND DUP3 ADD DUP1 PUSH1 0x40 MSTORE POP DUP2 ADD SWAP1 PUSH2 0x14B0 SWAP2 SWAP1 PUSH2 0x2ABE JUMP JUMPDEST POP PUSH2 0x1560 JUMP JUMPDEST PUSH1 0x0 NOT DUP6 EQ PUSH2 0x14EB JUMPI PUSH1 0x40 MLOAD PUSH4 0xB6B55F25 PUSH1 0xE0 SHL DUP2 MSTORE PUSH1 0x1 PUSH1 0x1 PUSH1 0xA0 SHL SUB DUP4 AND SWAP1 PUSH4 0xB6B55F25 SWAP1 PUSH2 0x145E SWAP1 DUP9 SWAP1 PUSH1 0x4 ADD PUSH2 0x2FD5 JUMP JUMPDEST DUP2 PUSH1 0x1 PUSH1 0x1 PUSH1 0xA0 SHL SUB AND PUSH4 0xD0E30DB0 PUSH1 0x40 MLOAD DUP2 PUSH4 0xFFFFFFFF AND PUSH1 0xE0 SHL DUP2 MSTORE PUSH1 0x4 ADD PUSH1 0x20 PUSH1 0x40 MLOAD DUP1 DUP4 SUB DUP2 PUSH1 0x0 DUP8 DUP1 EXTCODESIZE ISZERO DUP1 ISZERO PUSH2 0x1526 JUMPI PUSH1 0x0 DUP1 REVERT JUMPDEST POP GAS CALL ISZERO DUP1 ISZERO PUSH2 0x153A JUMPI RETURNDATASIZE PUSH1 0x0 DUP1 RETURNDATACOPY RETURNDATASIZE PUSH1 0x0 REVERT JUMPDEST POP POP POP POP PUSH1 0x40 MLOAD RETURNDATASIZE PUSH1 0x1F NOT PUSH1 0x1F DUP3 ADD AND DUP3 ADD DUP1 PUSH1 0x40 MSTORE POP DUP2 ADD SWAP1 PUSH2 0x155E SWAP2 SWAP1 PUSH2 0x2ABE JUMP JUMPDEST POP JUMPDEST PUSH1 0x1 SLOAD PUSH1 0x40 MLOAD PUSH4 0x70A08231 PUSH1 0xE0 SHL DUP2 MSTORE PUSH1 0x0 SWAP2 PUSH1 0x1 PUSH1 0x1 PUSH1 0xA0 SHL SUB AND SWAP1 PUSH4 0x70A08231 SWAP1 PUSH2 0x1591 SWAP1 ADDRESS SWAP1 PUSH1 0x4 ADD PUSH2 0x2BB5 JUMP JUMPDEST PUSH1 0x20 PUSH1 0x40 MLOAD DUP1 DUP4 SUB DUP2 DUP7 DUP1 EXTCODESIZE ISZERO DUP1 ISZERO PUSH2 0x15A9 JUMPI PUSH1 0x0 DUP1 REVERT JUMPDEST POP GAS STATICCALL ISZERO DUP1 ISZERO PUSH2 0x15BD JUMPI RETURNDATASIZE PUSH1 0x0 DUP1 RETURNDATACOPY RETURNDATASIZE PUSH1 0x0 REVERT JUMPDEST POP POP POP POP PUSH1 0x40 MLOAD RETURNDATASIZE PUSH1 0x1F NOT PUSH1 0x1F DUP3 ADD AND DUP3 ADD DUP1 PUSH1 0x40 MSTORE POP DUP2 ADD SWAP1 PUSH2 0x15E1 SWAP2 SWAP1 PUSH2 0x2ABE JUMP JUMPDEST SWAP1 POP PUSH2 0x15ED DUP3 DUP3 PUSH2 0x188E JUMP JUMPDEST SWAP4 POP PUSH1 0x1 PUSH1 0x1 PUSH1 0xA0 SHL SUB DUP9 AND ADDRESS EQ DUP1 ISZERO SWAP1 PUSH2 0x1608 JUMPI POP PUSH1 0x0 DUP2 GT JUMPDEST ISZERO PUSH2 0x1624 JUMPI PUSH1 0x1 SLOAD PUSH2 0x1624 SWAP1 PUSH1 0x1 PUSH1 0x1 PUSH1 0xA0 SHL SUB AND DUP10 DUP4 PUSH2 0x249A JUMP JUMPDEST POP POP POP SWAP5 SWAP4 POP POP POP POP JUMP JUMPDEST PUSH1 0x0 DUP3 DUP3 ADD DUP4 DUP2 LT ISZERO PUSH2 0xA4D JUMPI PUSH1 0x40 MLOAD PUSH3 0x461BCD PUSH1 0xE5 SHL DUP2 MSTORE PUSH1 0x4 ADD PUSH2 0x1188 SWAP1 PUSH2 0x2D77 JUMP JUMPDEST DUP3 DUP2 EQ PUSH2 0x1660 JUMPI PUSH1 0x0 DUP1 REVERT JUMPDEST PUSH1 0x0 JUMPDEST DUP4 DUP2 LT ISZERO PUSH2 0x1743 JUMPI DUP5 DUP5 DUP3 DUP2 DUP2 LT PUSH2 0x1677 JUMPI INVALID JUMPDEST SWAP1 POP PUSH1 0x20 MUL ADD PUSH1 0x20 DUP2 ADD SWAP1 PUSH2 0x168C SWAP2 SWAP1 PUSH2 0x27B7 JUMP JUMPDEST PUSH1 0x1 PUSH1 0x1 PUSH1 0xA0 SHL SUB AND PUSH4 0x9FD5A6CF DUP8 ADDRESS PUSH1 0x0 NOT PUSH1 0x0 DUP9 DUP9 DUP9 DUP2 DUP2 LT PUSH2 0x16AD JUMPI INVALID JUMPDEST SWAP1 POP PUSH1 0x20 MUL DUP2 ADD SWAP1 PUSH2 0x16BF SWAP2 SWAP1 PUSH2 0x2FF5 JUMP JUMPDEST PUSH1 0x40 MLOAD DUP8 PUSH4 0xFFFFFFFF AND PUSH1 0xE0 SHL DUP2 MSTORE PUSH1 0x4 ADD PUSH2 0x16E0 SWAP7 SWAP6 SWAP5 SWAP4 SWAP3 SWAP2 SWAP1 PUSH2 0x2BC9 JUMP JUMPDEST PUSH1 0x20 PUSH1 0x40 MLOAD DUP1 DUP4 SUB DUP2 PUSH1 0x0 DUP8 DUP1 EXTCODESIZE ISZERO DUP1 ISZERO PUSH2 0x16FA JUMPI PUSH1 0x0 DUP1 REVERT JUMPDEST POP GAS CALL ISZERO DUP1 ISZERO PUSH2 0x170E JUMPI RETURNDATASIZE PUSH1 0x0 DUP1 RETURNDATACOPY RETURNDATASIZE PUSH1 0x0 REVERT JUMPDEST POP POP POP POP PUSH1 0x40 MLOAD RETURNDATASIZE PUSH1 0x1F NOT PUSH1 0x1F DUP3 ADD AND DUP3 ADD DUP1 PUSH1 0x40 MSTORE POP DUP2 ADD SWAP1 PUSH2 0x1732 SWAP2 SWAP1 PUSH2 0x29F5 JUMP JUMPDEST PUSH2 0x173B JUMPI PUSH1 0x0 DUP1 REVERT JUMPDEST PUSH1 0x1 ADD PUSH2 0x1663 JUMP JUMPDEST POP POP POP POP POP POP JUMP JUMPDEST PUSH1 0x0 PUSH2 0x9ED DUP3 PUSH1 0x0 NOT PUSH2 0x22D0 JUMP JUMPDEST PUSH1 0x1 PUSH1 0x1 PUSH1 0xA0 SHL SUB DUP4 AND PUSH2 0x177F JUMPI PUSH1 0x40 MLOAD PUSH3 0x461BCD PUSH1 0xE5 SHL DUP2 MSTORE PUSH1 0x4 ADD PUSH2 0x1188 SWAP1 PUSH2 0x2E83 JUMP JUMPDEST PUSH1 0x1 PUSH1 0x1 PUSH1 0xA0 SHL SUB DUP3 AND PUSH2 0x17A5 JUMPI PUSH1 0x40 MLOAD PUSH3 0x461BCD PUSH1 0xE5 SHL DUP2 MSTORE PUSH1 0x4 ADD PUSH2 0x1188 SWAP1 PUSH2 0x2D35 JUMP JUMPDEST PUSH1 0x1 PUSH1 0x1 PUSH1 0xA0 SHL SUB DUP1 DUP5 AND PUSH1 0x0 DUP2 DUP2 MSTORE PUSH1 0x4 PUSH1 0x20 SWAP1 DUP2 MSTORE PUSH1 0x40 DUP1 DUP4 KECCAK256 SWAP5 DUP8 AND DUP1 DUP5 MSTORE SWAP5 SWAP1 SWAP2 MSTORE SWAP1 DUP2 SWAP1 KECCAK256 DUP5 SWAP1 SSTORE MLOAD PUSH32 0x8C5BE1E5EBEC7D5BD14F71427D1E84F3DD0314C0F7B2291E5B200AC8C7C3B925 SWAP1 PUSH2 0x1800 SWAP1 DUP6 SWAP1 PUSH2 0x2FD5 JUMP JUMPDEST PUSH1 0x40 MLOAD DUP1 SWAP2 SUB SWAP1 LOG3 POP POP POP JUMP JUMPDEST PUSH1 0x1 PUSH1 0x1 PUSH1 0xA0 SHL SUB DUP3 AND PUSH2 0x1833 JUMPI PUSH1 0x40 MLOAD PUSH3 0x461BCD PUSH1 0xE5 SHL DUP2 MSTORE PUSH1 0x4 ADD PUSH2 0x1188 SWAP1 PUSH2 0x2CF2 JUMP JUMPDEST PUSH2 0x1840 DUP4 DUP4 DUP4 PUSH1 0x1 PUSH2 0x18D0 JUMP JUMPDEST DUP2 EQ PUSH2 0x184B JUMPI PUSH1 0x0 DUP1 REVERT JUMPDEST DUP2 PUSH1 0x1 PUSH1 0x1 PUSH1 0xA0 SHL SUB AND DUP4 PUSH1 0x1 PUSH1 0x1 PUSH1 0xA0 SHL SUB AND PUSH32 0xDDF252AD1BE2C89B69C2B068FC378DAA952BA7F163C4A11628F55A4DF523B3EF DUP4 PUSH1 0x40 MLOAD PUSH2 0x1800 SWAP2 SWAP1 PUSH2 0x2FD5 JUMP JUMPDEST PUSH1 0x0 PUSH2 0xA4D DUP4 DUP4 PUSH1 0x40 MLOAD DUP1 PUSH1 0x40 ADD PUSH1 0x40 MSTORE DUP1 PUSH1 0x1E DUP2 MSTORE PUSH1 0x20 ADD PUSH32 0x536166654D6174683A207375627472616374696F6E206F766572666C6F770000 DUP2 MSTORE POP PUSH2 0x24B9 JUMP JUMPDEST PUSH1 0x0 DUP1 PUSH2 0x18DB PUSH2 0x10DB JUMP JUMPDEST SWAP1 POP PUSH1 0x60 PUSH2 0x18E7 PUSH2 0x6CF JUMP JUMPDEST SWAP1 POP PUSH2 0x18F2 DUP2 PUSH2 0x24E5 JUMP JUMPDEST PUSH1 0x0 JUMPDEST DUP2 MLOAD DUP2 LT ISZERO PUSH2 0x1E4C JUMPI DUP5 ISZERO DUP1 ISZERO PUSH2 0x1930 JUMPI POP DUP3 PUSH1 0x1 PUSH1 0x1 PUSH1 0xA0 SHL SUB AND DUP3 DUP3 DUP2 MLOAD DUP2 LT PUSH2 0x191D JUMPI INVALID JUMPDEST PUSH1 0x20 MUL PUSH1 0x20 ADD ADD MLOAD PUSH1 0x1 PUSH1 0x1 PUSH1 0xA0 SHL SUB AND EQ JUMPDEST ISZERO PUSH2 0x193A JUMPI PUSH2 0x1E44 JUMP JUMPDEST PUSH1 0x0 DUP3 DUP3 DUP2 MLOAD DUP2 LT PUSH2 0x1948 JUMPI INVALID JUMPDEST PUSH1 0x20 MUL PUSH1 0x20 ADD ADD MLOAD PUSH1 0x1 PUSH1 0x1 PUSH1 0xA0 SHL SUB AND PUSH4 0x70A08231 DUP11 PUSH1 0x40 MLOAD DUP3 PUSH4 0xFFFFFFFF AND PUSH1 0xE0 SHL DUP2 MSTORE PUSH1 0x4 ADD PUSH2 0x197B SWAP2 SWAP1 PUSH2 0x2BB5 JUMP JUMPDEST PUSH1 0x20 PUSH1 0x40 MLOAD DUP1 DUP4 SUB DUP2 DUP7 DUP1 EXTCODESIZE ISZERO DUP1 ISZERO PUSH2 0x1993 JUMPI PUSH1 0x0 DUP1 REVERT JUMPDEST POP GAS STATICCALL ISZERO DUP1 ISZERO PUSH2 0x19A7 JUMPI RETURNDATASIZE PUSH1 0x0 DUP1 RETURNDATACOPY RETURNDATASIZE PUSH1 0x0 REVERT JUMPDEST POP POP POP POP PUSH1 0x40 MLOAD RETURNDATASIZE PUSH1 0x1F NOT PUSH1 0x1F DUP3 ADD AND DUP3 ADD DUP1 PUSH1 0x40 MSTORE POP DUP2 ADD SWAP1 PUSH2 0x19CB SWAP2 SWAP1 PUSH2 0x2ABE JUMP JUMPDEST SWAP1 POP PUSH1 0x1 PUSH1 0x1 PUSH1 0xA0 SHL SUB DUP10 AND ADDRESS EQ PUSH2 0x1A7A JUMPI PUSH2 0x1A77 DUP2 DUP5 DUP5 DUP2 MLOAD DUP2 LT PUSH2 0x19ED JUMPI INVALID JUMPDEST PUSH1 0x20 MUL PUSH1 0x20 ADD ADD MLOAD PUSH1 0x1 PUSH1 0x1 PUSH1 0xA0 SHL SUB AND PUSH4 0xDD62ED3E DUP13 ADDRESS PUSH1 0x40 MLOAD DUP4 PUSH4 0xFFFFFFFF AND PUSH1 0xE0 SHL DUP2 MSTORE PUSH1 0x4 ADD PUSH2 0x1A22 SWAP3 SWAP2 SWAP1 PUSH2 0x2C10 JUMP JUMPDEST PUSH1 0x20 PUSH1 0x40 MLOAD DUP1 DUP4 SUB DUP2 DUP7 DUP1 EXTCODESIZE ISZERO DUP1 ISZERO PUSH2 0x1A3A JUMPI PUSH1 0x0 DUP1 REVERT JUMPDEST POP GAS STATICCALL ISZERO DUP1 ISZERO PUSH2 0x1A4E JUMPI RETURNDATASIZE PUSH1 0x0 DUP1 RETURNDATACOPY RETURNDATASIZE PUSH1 0x0 REVERT JUMPDEST POP POP POP POP PUSH1 0x40 MLOAD RETURNDATASIZE PUSH1 0x1F NOT PUSH1 0x1F DUP3 ADD AND DUP3 ADD DUP1 PUSH1 0x40 MSTORE POP DUP2 ADD SWAP1 PUSH2 0x1A72 SWAP2 SWAP1 PUSH2 0x2ABE JUMP JUMPDEST PUSH2 0x2507 JUMP JUMPDEST SWAP1 POP JUMPDEST PUSH2 0x1ACA DUP2 DUP5 DUP5 DUP2 MLOAD DUP2 LT PUSH2 0x1A8A JUMPI INVALID JUMPDEST PUSH1 0x20 MUL PUSH1 0x20 ADD ADD MLOAD PUSH1 0x1 PUSH1 0x1 PUSH1 0xA0 SHL SUB AND PUSH4 0x75DE2902 PUSH1 0x40 MLOAD DUP2 PUSH4 0xFFFFFFFF AND PUSH1 0xE0 SHL DUP2 MSTORE PUSH1 0x4 ADD PUSH1 0x20 PUSH1 0x40 MLOAD DUP1 DUP4 SUB DUP2 DUP7 DUP1 EXTCODESIZE ISZERO DUP1 ISZERO PUSH2 0x1A3A JUMPI PUSH1 0x0 DUP1 REVERT JUMPDEST SWAP1 POP DUP1 ISZERO PUSH2 0x1E42 JUMPI PUSH1 0x1 PUSH1 0x1 PUSH1 0xA0 SHL SUB DUP10 AND ADDRESS EQ PUSH2 0x1B79 JUMPI DUP3 DUP3 DUP2 MLOAD DUP2 LT PUSH2 0x1AEE JUMPI INVALID JUMPDEST PUSH1 0x20 MUL PUSH1 0x20 ADD ADD MLOAD PUSH1 0x1 PUSH1 0x1 PUSH1 0xA0 SHL SUB AND PUSH4 0x23B872DD DUP11 ADDRESS DUP5 PUSH1 0x40 MLOAD DUP5 PUSH4 0xFFFFFFFF AND PUSH1 0xE0 SHL DUP2 MSTORE PUSH1 0x4 ADD PUSH2 0x1B25 SWAP4 SWAP3 SWAP2 SWAP1 PUSH2 0x2C2A JUMP JUMPDEST PUSH1 0x20 PUSH1 0x40 MLOAD DUP1 DUP4 SUB DUP2 PUSH1 0x0 DUP8 DUP1 EXTCODESIZE ISZERO DUP1 ISZERO PUSH2 0x1B3F JUMPI PUSH1 0x0 DUP1 REVERT JUMPDEST POP GAS CALL ISZERO DUP1 ISZERO PUSH2 0x1B53 JUMPI RETURNDATASIZE PUSH1 0x0 DUP1 RETURNDATACOPY RETURNDATASIZE PUSH1 0x0 REVERT JUMPDEST POP POP POP POP PUSH1 0x40 MLOAD RETURNDATASIZE PUSH1 0x1F NOT PUSH1 0x1F DUP3 ADD AND DUP3 ADD DUP1 PUSH1 0x40 MSTORE POP DUP2 ADD SWAP1 PUSH2 0x1B77 SWAP2 SWAP1 PUSH2 0x29F5 JUMP JUMPDEST POP JUMPDEST PUSH1 0x0 NOT DUP8 EQ PUSH2 0x1DA2 JUMPI PUSH1 0x0 PUSH2 0x1C9F DUP5 DUP5 DUP2 MLOAD DUP2 LT PUSH2 0x1B93 JUMPI INVALID JUMPDEST PUSH1 0x20 MUL PUSH1 0x20 ADD ADD MLOAD PUSH1 0x1 PUSH1 0x1 PUSH1 0xA0 SHL SUB AND PUSH4 0x99530B06 PUSH1 0x40 MLOAD DUP2 PUSH4 0xFFFFFFFF AND PUSH1 0xE0 SHL DUP2 MSTORE PUSH1 0x4 ADD PUSH1 0x20 PUSH1 0x40 MLOAD DUP1 DUP4 SUB DUP2 DUP7 DUP1 EXTCODESIZE ISZERO DUP1 ISZERO PUSH2 0x1BD3 JUMPI PUSH1 0x0 DUP1 REVERT JUMPDEST POP GAS STATICCALL ISZERO DUP1 ISZERO PUSH2 0x1BE7 JUMPI RETURNDATASIZE PUSH1 0x0 DUP1 RETURNDATACOPY RETURNDATASIZE PUSH1 0x0 REVERT JUMPDEST POP POP POP POP PUSH1 0x40 MLOAD RETURNDATASIZE PUSH1 0x1F NOT PUSH1 0x1F DUP3 ADD AND DUP3 ADD DUP1 PUSH1 0x40 MSTORE POP DUP2 ADD SWAP1 PUSH2 0x1C0B SWAP2 SWAP1 PUSH2 0x2ABE JUMP JUMPDEST PUSH2 0xC26 DUP7 DUP7 DUP2 MLOAD DUP2 LT PUSH2 0x1C1A JUMPI INVALID JUMPDEST PUSH1 0x20 MUL PUSH1 0x20 ADD ADD MLOAD PUSH1 0x1 PUSH1 0x1 PUSH1 0xA0 SHL SUB AND PUSH4 0x313CE567 PUSH1 0x40 MLOAD DUP2 PUSH4 0xFFFFFFFF AND PUSH1 0xE0 SHL DUP2 MSTORE PUSH1 0x4 ADD PUSH1 0x20 PUSH1 0x40 MLOAD DUP1 DUP4 SUB DUP2 DUP7 DUP1 EXTCODESIZE ISZERO DUP1 ISZERO PUSH2 0x1C5A JUMPI PUSH1 0x0 DUP1 REVERT JUMPDEST POP GAS STATICCALL ISZERO DUP1 ISZERO PUSH2 0x1C6E JUMPI RETURNDATASIZE PUSH1 0x0 DUP1 RETURNDATACOPY RETURNDATASIZE PUSH1 0x0 REVERT JUMPDEST POP POP POP POP PUSH1 0x40 MLOAD RETURNDATASIZE PUSH1 0x1F NOT PUSH1 0x1F DUP3 ADD AND DUP3 ADD DUP1 PUSH1 0x40 MSTORE POP DUP2 ADD SWAP1 PUSH2 0x1C92 SWAP2 SWAP1 PUSH2 0x2ABE JUMP JUMPDEST PUSH1 0xA EXP PUSH2 0xC20 DUP13 DUP12 PUSH2 0x188E JUMP JUMPDEST SWAP1 POP PUSH1 0x0 DUP2 GT DUP1 ISZERO PUSH2 0x1CB0 JUMPI POP DUP2 DUP2 LT JUMPDEST ISZERO PUSH2 0x1D57 JUMPI PUSH2 0x1D50 DUP5 DUP5 DUP2 MLOAD DUP2 LT PUSH2 0x1CC4 JUMPI INVALID JUMPDEST PUSH1 0x20 MUL PUSH1 0x20 ADD ADD MLOAD PUSH1 0x1 PUSH1 0x1 PUSH1 0xA0 SHL SUB AND PUSH4 0x2E1A7D4D DUP4 PUSH1 0x40 MLOAD DUP3 PUSH4 0xFFFFFFFF AND PUSH1 0xE0 SHL DUP2 MSTORE PUSH1 0x4 ADD PUSH2 0x1CF7 SWAP2 SWAP1 PUSH2 0x2FD5 JUMP JUMPDEST PUSH1 0x20 PUSH1 0x40 MLOAD DUP1 DUP4 SUB DUP2 PUSH1 0x0 DUP8 DUP1 EXTCODESIZE ISZERO DUP1 ISZERO PUSH2 0x1D11 JUMPI PUSH1 0x0 DUP1 REVERT JUMPDEST POP GAS CALL ISZERO DUP1 ISZERO PUSH2 0x1D25 JUMPI RETURNDATASIZE PUSH1 0x0 DUP1 RETURNDATACOPY RETURNDATASIZE PUSH1 0x0 REVERT JUMPDEST POP POP POP POP PUSH1 0x40 MLOAD RETURNDATASIZE PUSH1 0x1F NOT PUSH1 0x1F DUP3 ADD AND DUP3 ADD DUP1 PUSH1 0x40 MSTORE POP DUP2 ADD SWAP1 PUSH2 0x1D49 SWAP2 SWAP1 PUSH2 0x2ABE JUMP JUMPDEST DUP8 SWAP1 PUSH2 0x162F JUMP JUMPDEST SWAP6 POP PUSH2 0x1D9C JUMP JUMPDEST PUSH2 0x1D99 DUP5 DUP5 DUP2 MLOAD DUP2 LT PUSH2 0x1D66 JUMPI INVALID JUMPDEST PUSH1 0x20 MUL PUSH1 0x20 ADD ADD MLOAD PUSH1 0x1 PUSH1 0x1 PUSH1 0xA0 SHL SUB AND PUSH4 0x2E1A7D4D DUP5 PUSH1 0x40 MLOAD DUP3 PUSH4 0xFFFFFFFF AND PUSH1 0xE0 SHL DUP2 MSTORE PUSH1 0x4 ADD PUSH2 0x1CF7 SWAP2 SWAP1 PUSH2 0x2FD5 JUMP JUMPDEST SWAP6 POP JUMPDEST POP PUSH2 0x1E35 JUMP JUMPDEST PUSH2 0x1E32 DUP4 DUP4 DUP2 MLOAD DUP2 LT PUSH2 0x1DB1 JUMPI INVALID JUMPDEST PUSH1 0x20 MUL PUSH1 0x20 ADD ADD MLOAD PUSH1 0x1 PUSH1 0x1 PUSH1 0xA0 SHL SUB AND PUSH4 0x3CCFD60B PUSH1 0x40 MLOAD DUP2 PUSH4 0xFFFFFFFF AND PUSH1 0xE0 SHL DUP2 MSTORE PUSH1 0x4 ADD PUSH1 0x20 PUSH1 0x40 MLOAD DUP1 DUP4 SUB DUP2 PUSH1 0x0 DUP8 DUP1 EXTCODESIZE ISZERO DUP1 ISZERO PUSH2 0x1DF3 JUMPI PUSH1 0x0 DUP1 REVERT JUMPDEST POP GAS CALL ISZERO DUP1 ISZERO PUSH2 0x1E07 JUMPI RETURNDATASIZE PUSH1 0x0 DUP1 RETURNDATACOPY RETURNDATASIZE PUSH1 0x0 REVERT JUMPDEST POP POP POP POP PUSH1 0x40 MLOAD RETURNDATASIZE PUSH1 0x1F NOT PUSH1 0x1F DUP3 ADD AND DUP3 ADD DUP1 PUSH1 0x40 MSTORE POP DUP2 ADD SWAP1 PUSH2 0x1E2B SWAP2 SWAP1 PUSH2 0x2ABE JUMP JUMPDEST DUP7 SWAP1 PUSH2 0x162F JUMP JUMPDEST SWAP5 POP JUMPDEST DUP5 DUP8 GT PUSH2 0x1E42 JUMPI POP PUSH2 0x1E4C JUMP JUMPDEST POP JUMPDEST PUSH1 0x1 ADD PUSH2 0x18F5 JUMP JUMPDEST POP DUP5 DUP4 GT DUP1 ISZERO PUSH2 0x1F4B JUMPI POP PUSH2 0x1F3F DUP3 PUSH1 0x1 PUSH1 0x1 PUSH1 0xA0 SHL SUB AND PUSH4 0x313CE567 PUSH1 0x40 MLOAD DUP2 PUSH4 0xFFFFFFFF AND PUSH1 0xE0 SHL DUP2 MSTORE PUSH1 0x4 ADD PUSH1 0x20 PUSH1 0x40 MLOAD DUP1 DUP4 SUB DUP2 DUP7 DUP1 EXTCODESIZE ISZERO DUP1 ISZERO PUSH2 0x1E93 JUMPI PUSH1 0x0 DUP1 REVERT JUMPDEST POP GAS STATICCALL ISZERO DUP1 ISZERO PUSH2 0x1EA7 JUMPI RETURNDATASIZE PUSH1 0x0 DUP1 RETURNDATACOPY RETURNDATASIZE PUSH1 0x0 REVERT JUMPDEST POP POP POP POP PUSH1 0x40 MLOAD RETURNDATASIZE PUSH1 0x1F NOT PUSH1 0x1F DUP3 ADD AND DUP3 ADD DUP1 PUSH1 0x40 MSTORE POP DUP2 ADD SWAP1 PUSH2 0x1ECB SWAP2 SWAP1 PUSH2 0x2ABE JUMP JUMPDEST PUSH1 0xA EXP DUP4 PUSH1 0x1 PUSH1 0x1 PUSH1 0xA0 SHL SUB AND PUSH4 0x99530B06 PUSH1 0x40 MLOAD DUP2 PUSH4 0xFFFFFFFF AND PUSH1 0xE0 SHL DUP2 MSTORE PUSH1 0x4 ADD PUSH1 0x20 PUSH1 0x40 MLOAD DUP1 DUP4 SUB DUP2 DUP7 DUP1 EXTCODESIZE ISZERO DUP1 ISZERO PUSH2 0x1F07 JUMPI PUSH1 0x0 DUP1 REVERT JUMPDEST POP GAS STATICCALL ISZERO DUP1 ISZERO PUSH2 0x1F1B JUMPI RETURNDATASIZE PUSH1 0x0 DUP1 RETURNDATACOPY RETURNDATASIZE PUSH1 0x0 REVERT JUMPDEST POP POP POP POP PUSH1 0x40 MLOAD RETURNDATASIZE PUSH1 0x1F NOT PUSH1 0x1F DUP3 ADD AND DUP3 ADD DUP1 PUSH1 0x40 MSTORE POP DUP2 ADD SWAP1 PUSH2 0xC26 SWAP2 SWAP1 PUSH2 0x2ABE JUMP JUMPDEST PUSH2 0x1F49 DUP5 DUP8 PUSH2 0x188E JUMP JUMPDEST GT JUMPDEST ISZERO PUSH2 0x2089 JUMPI PUSH2 0x1F5A DUP4 DUP7 PUSH2 0x188E JUMP JUMPDEST PUSH1 0x1 SLOAD PUSH1 0x40 MLOAD PUSH4 0x6EB1769F PUSH1 0xE1 SHL DUP2 MSTORE PUSH1 0x1 PUSH1 0x1 PUSH1 0xA0 SHL SUB SWAP1 SWAP2 AND SWAP1 PUSH4 0xDD62ED3E SWAP1 PUSH2 0x1F8C SWAP1 ADDRESS SWAP1 DUP8 SWAP1 PUSH1 0x4 ADD PUSH2 0x2C10 JUMP JUMPDEST PUSH1 0x20 PUSH1 0x40 MLOAD DUP1 DUP4 SUB DUP2 DUP7 DUP1 EXTCODESIZE ISZERO DUP1 ISZERO PUSH2 0x1FA4 JUMPI PUSH1 0x0 DUP1 REVERT JUMPDEST POP GAS STATICCALL ISZERO DUP1 ISZERO PUSH2 0x1FB8 JUMPI RETURNDATASIZE PUSH1 0x0 DUP1 RETURNDATACOPY RETURNDATASIZE PUSH1 0x0 REVERT JUMPDEST POP POP POP POP PUSH1 0x40 MLOAD RETURNDATASIZE PUSH1 0x1F NOT PUSH1 0x1F DUP3 ADD AND DUP3 ADD DUP1 PUSH1 0x40 MSTORE POP DUP2 ADD SWAP1 PUSH2 0x1FDC SWAP2 SWAP1 PUSH2 0x2ABE JUMP JUMPDEST LT ISZERO PUSH2 0x1FFB JUMPI PUSH1 0x1 SLOAD PUSH2 0x1FFB SWAP1 PUSH1 0x1 PUSH1 0x1 PUSH1 0xA0 SHL SUB AND DUP4 PUSH1 0x0 NOT PUSH2 0x23D7 JUMP JUMPDEST PUSH1 0x1 PUSH1 0x1 PUSH1 0xA0 SHL SUB DUP3 AND PUSH4 0x6E553F65 PUSH2 0x2014 DUP6 DUP9 PUSH2 0x188E JUMP JUMPDEST DUP10 PUSH1 0x40 MLOAD DUP4 PUSH4 0xFFFFFFFF AND PUSH1 0xE0 SHL DUP2 MSTORE PUSH1 0x4 ADD PUSH2 0x2032 SWAP3 SWAP2 SWAP1 PUSH2 0x2FDE JUMP JUMPDEST PUSH1 0x20 PUSH1 0x40 MLOAD DUP1 DUP4 SUB DUP2 PUSH1 0x0 DUP8 DUP1 EXTCODESIZE ISZERO DUP1 ISZERO PUSH2 0x204C JUMPI PUSH1 0x0 DUP1 REVERT JUMPDEST POP GAS CALL ISZERO DUP1 ISZERO PUSH2 0x2060 JUMPI RETURNDATASIZE PUSH1 0x0 DUP1 RETURNDATACOPY RETURNDATASIZE PUSH1 0x0 REVERT JUMPDEST POP POP POP POP PUSH1 0x40 MLOAD RETURNDATASIZE PUSH1 0x1F NOT PUSH1 0x1F DUP3 ADD AND DUP3 ADD DUP1 PUSH1 0x40 MSTORE POP DUP2 ADD SWAP1 PUSH2 0x2084 SWAP2 SWAP1 PUSH2 0x2ABE JUMP JUMPDEST POP DUP5 SWAP3 POP JUMPDEST PUSH1 0x1 PUSH1 0x1 PUSH1 0xA0 SHL SUB DUP7 AND ADDRESS EQ PUSH2 0x20B0 JUMPI PUSH1 0x1 SLOAD PUSH2 0x20B0 SWAP1 PUSH1 0x1 PUSH1 0x1 PUSH1 0xA0 SHL SUB AND DUP8 DUP6 PUSH2 0x249A JUMP JUMPDEST POP POP SWAP5 SWAP4 POP POP POP POP JUMP JUMPDEST PUSH1 0x0 DUP3 PUSH2 0x20C9 JUMPI POP PUSH1 0x0 PUSH2 0x9ED JUMP JUMPDEST DUP3 DUP3 MUL DUP3 DUP5 DUP3 DUP2 PUSH2 0x20D6 JUMPI INVALID JUMPDEST DIV EQ PUSH2 0xA4D JUMPI PUSH1 0x40 MLOAD PUSH3 0x461BCD PUSH1 0xE5 SHL DUP2 MSTORE PUSH1 0x4 ADD PUSH2 0x1188 SWAP1 PUSH2 0x2E42 JUMP JUMPDEST PUSH1 0x0 PUSH2 0xA4D DUP4 DUP4 PUSH1 0x40 MLOAD DUP1 PUSH1 0x40 ADD PUSH1 0x40 MSTORE DUP1 PUSH1 0x1A DUP2 MSTORE PUSH1 0x20 ADD PUSH32 0x536166654D6174683A206469766973696F6E206279207A65726F000000000000 DUP2 MSTORE POP PUSH2 0x251D JUMP JUMPDEST PUSH1 0x0 DUP1 PUSH2 0x2141 PUSH2 0x10DB JUMP JUMPDEST SWAP1 POP PUSH1 0x0 DUP2 PUSH1 0x1 PUSH1 0x1 PUSH1 0xA0 SHL SUB AND PUSH4 0xECF70858 PUSH1 0x40 MLOAD DUP2 PUSH4 0xFFFFFFFF AND PUSH1 0xE0 SHL DUP2 MSTORE PUSH1 0x4 ADD PUSH1 0x20 PUSH1 0x40 MLOAD DUP1 DUP4 SUB DUP2 DUP7 DUP1 EXTCODESIZE ISZERO DUP1 ISZERO PUSH2 0x217E JUMPI PUSH1 0x0 DUP1 REVERT JUMPDEST POP GAS STATICCALL ISZERO DUP1 ISZERO PUSH2 0x2192 JUMPI RETURNDATASIZE PUSH1 0x0 DUP1 RETURNDATACOPY RETURNDATASIZE PUSH1 0x0 REVERT JUMPDEST POP POP POP POP PUSH1 0x40 MLOAD RETURNDATASIZE PUSH1 0x1F NOT PUSH1 0x1F DUP3 ADD AND DUP3 ADD DUP1 PUSH1 0x40 MSTORE POP DUP2 ADD SWAP1 PUSH2 0x21B6 SWAP2 SWAP1 PUSH2 0x2ABE JUMP JUMPDEST SWAP1 POP PUSH1 0x0 DUP3 PUSH1 0x1 PUSH1 0x1 PUSH1 0xA0 SHL SUB AND PUSH4 0x1E1D114 PUSH1 0x40 MLOAD DUP2 PUSH4 0xFFFFFFFF AND PUSH1 0xE0 SHL DUP2 MSTORE PUSH1 0x4 ADD PUSH1 0x20 PUSH1 0x40 MLOAD DUP1 DUP4 SUB DUP2 DUP7 DUP1 EXTCODESIZE ISZERO DUP1 ISZERO PUSH2 0x21F3 JUMPI PUSH1 0x0 DUP1 REVERT JUMPDEST POP GAS STATICCALL ISZERO DUP1 ISZERO PUSH2 0x2207 JUMPI RETURNDATASIZE PUSH1 0x0 DUP1 RETURNDATACOPY RETURNDATASIZE PUSH1 0x0 REVERT JUMPDEST POP POP POP POP PUSH1 0x40 MLOAD RETURNDATASIZE PUSH1 0x1F NOT PUSH1 0x1F DUP3 ADD AND DUP3 ADD DUP1 PUSH1 0x40 MSTORE POP DUP2 ADD SWAP1 PUSH2 0x222B SWAP2 SWAP1 PUSH2 0x2ABE JUMP JUMPDEST SWAP1 POP DUP1 DUP3 GT PUSH2 0x2240 JUMPI PUSH1 0x0 SWAP4 POP POP POP POP PUSH2 0xA4D JUMP JUMPDEST DUP6 PUSH1 0x0 NOT DUP4 LT DUP1 ISZERO PUSH2 0x2253 JUMPI POP PUSH1 0x0 NOT DUP2 LT JUMPDEST ISZERO PUSH2 0x2274 JUMPI PUSH1 0x0 PUSH2 0x2264 DUP5 DUP5 PUSH2 0x188E JUMP JUMPDEST SWAP1 POP DUP1 DUP3 GT ISZERO PUSH2 0x2272 JUMPI DUP1 SWAP2 POP JUMPDEST POP JUMPDEST DUP1 ISZERO PUSH2 0x22C5 JUMPI PUSH1 0x0 PUSH2 0x2289 DUP10 ADDRESS DUP5 PUSH1 0x0 PUSH2 0x18D0 JUMP JUMPDEST SWAP1 POP DUP1 PUSH2 0x229E JUMPI PUSH1 0x0 SWAP6 POP POP POP POP POP POP PUSH2 0xA4D JUMP JUMPDEST PUSH2 0x22AB ADDRESS DUP11 DUP4 PUSH1 0x0 PUSH2 0x122C JUMP JUMPDEST SWAP6 POP DUP7 PUSH2 0x22B8 DUP3 DUP9 PUSH2 0x188E JUMP JUMPDEST GT ISZERO PUSH2 0x22C3 JUMPI PUSH1 0x0 DUP1 REVERT JUMPDEST POP JUMPDEST POP POP POP POP SWAP4 SWAP3 POP POP POP JUMP JUMPDEST PUSH1 0x0 PUSH2 0xA4D DUP4 DUP4 PUSH1 0x0 PUSH2 0x2136 JUMP JUMPDEST DUP1 SELFBALANCE LT ISZERO PUSH2 0x22FE JUMPI PUSH1 0x40 MLOAD PUSH3 0x461BCD PUSH1 0xE5 SHL DUP2 MSTORE PUSH1 0x4 ADD PUSH2 0x1188 SWAP1 PUSH2 0x2E0B JUMP JUMPDEST PUSH1 0x0 DUP3 PUSH1 0x1 PUSH1 0x1 PUSH1 0xA0 SHL SUB AND DUP3 PUSH1 0x40 MLOAD PUSH2 0x2317 SWAP1 PUSH2 0x5F2 JUMP JUMPDEST PUSH1 0x0 PUSH1 0x40 MLOAD DUP1 DUP4 SUB DUP2 DUP6 DUP8 GAS CALL SWAP3 POP POP POP RETURNDATASIZE DUP1 PUSH1 0x0 DUP2 EQ PUSH2 0x2354 JUMPI PUSH1 0x40 MLOAD SWAP2 POP PUSH1 0x1F NOT PUSH1 0x3F RETURNDATASIZE ADD AND DUP3 ADD PUSH1 0x40 MSTORE RETURNDATASIZE DUP3 MSTORE RETURNDATASIZE PUSH1 0x0 PUSH1 0x20 DUP5 ADD RETURNDATACOPY PUSH2 0x2359 JUMP JUMPDEST PUSH1 0x60 SWAP2 POP JUMPDEST POP POP SWAP1 POP DUP1 PUSH2 0x237A JUMPI PUSH1 0x40 MLOAD PUSH3 0x461BCD PUSH1 0xE5 SHL DUP2 MSTORE PUSH1 0x4 ADD PUSH2 0x1188 SWAP1 PUSH2 0x2DAE JUMP JUMPDEST POP POP POP JUMP JUMPDEST PUSH2 0x10B8 DUP5 PUSH4 0x23B872DD PUSH1 0xE0 SHL DUP6 DUP6 DUP6 PUSH1 0x40 MLOAD PUSH1 0x24 ADD PUSH2 0x23A0 SWAP4 SWAP3 SWAP2 SWAP1 PUSH2 0x2C2A JUMP JUMPDEST PUSH1 0x40 DUP1 MLOAD PUSH1 0x1F NOT DUP2 DUP5 SUB ADD DUP2 MSTORE SWAP2 SWAP1 MSTORE PUSH1 0x20 DUP2 ADD DUP1 MLOAD PUSH1 0x1 PUSH1 0x1 PUSH1 0xE0 SHL SUB AND PUSH1 0x1 PUSH1 0x1 PUSH1 0xE0 SHL SUB NOT SWAP1 SWAP4 AND SWAP3 SWAP1 SWAP3 OR SWAP1 SWAP2 MSTORE PUSH2 0x2554 JUMP JUMPDEST DUP1 ISZERO DUP1 PUSH2 0x245F JUMPI POP PUSH1 0x40 MLOAD PUSH4 0x6EB1769F PUSH1 0xE1 SHL DUP2 MSTORE PUSH1 0x1 PUSH1 0x1 PUSH1 0xA0 SHL SUB DUP5 AND SWAP1 PUSH4 0xDD62ED3E SWAP1 PUSH2 0x240D SWAP1 ADDRESS SWAP1 DUP7 SWAP1 PUSH1 0x4 ADD PUSH2 0x2C10 JUMP JUMPDEST PUSH1 0x20 PUSH1 0x40 MLOAD DUP1 DUP4 SUB DUP2 DUP7 DUP1 EXTCODESIZE ISZERO DUP1 ISZERO PUSH2 0x2425 JUMPI PUSH1 0x0 DUP1 REVERT JUMPDEST POP GAS STATICCALL ISZERO DUP1 ISZERO PUSH2 0x2439 JUMPI RETURNDATASIZE PUSH1 0x0 DUP1 RETURNDATACOPY RETURNDATASIZE PUSH1 0x0 REVERT JUMPDEST POP POP POP POP PUSH1 0x40 MLOAD RETURNDATASIZE PUSH1 0x1F NOT PUSH1 0x1F DUP3 ADD AND DUP3 ADD DUP1 PUSH1 0x40 MSTORE POP DUP2 ADD SWAP1 PUSH2 0x245D SWAP2 SWAP1 PUSH2 0x2ABE JUMP JUMPDEST ISZERO JUMPDEST PUSH2 0x247B JUMPI PUSH1 0x40 MLOAD PUSH3 0x461BCD PUSH1 0xE5 SHL DUP2 MSTORE PUSH1 0x4 ADD PUSH2 0x1188 SWAP1 PUSH2 0x2F7F JUMP JUMPDEST PUSH2 0x237A DUP4 PUSH4 0x95EA7B3 PUSH1 0xE0 SHL DUP5 DUP5 PUSH1 0x40 MLOAD PUSH1 0x24 ADD PUSH2 0x23A0 SWAP3 SWAP2 SWAP1 PUSH2 0x2C4E JUMP JUMPDEST PUSH2 0x237A DUP4 PUSH4 0xA9059CBB PUSH1 0xE0 SHL DUP5 DUP5 PUSH1 0x40 MLOAD PUSH1 0x24 ADD PUSH2 0x23A0 SWAP3 SWAP2 SWAP1 PUSH2 0x2C4E JUMP JUMPDEST PUSH1 0x0 DUP2 DUP5 DUP5 GT ISZERO PUSH2 0x24DD JUMPI PUSH1 0x40 MLOAD PUSH3 0x461BCD PUSH1 0xE5 SHL DUP2 MSTORE PUSH1 0x4 ADD PUSH2 0x1188 SWAP2 SWAP1 PUSH2 0x2CBF JUMP JUMPDEST POP POP POP SWAP1 SUB SWAP1 JUMP JUMPDEST PUSH1 0x2 SLOAD DUP2 MLOAD GT ISZERO PUSH2 0x1075 JUMPI DUP1 MLOAD PUSH2 0x2503 SWAP1 PUSH1 0x2 SWAP1 PUSH1 0x20 DUP5 ADD SWAP1 PUSH2 0x26EA JUMP JUMPDEST POP POP JUMP JUMPDEST PUSH1 0x0 DUP2 DUP4 LT PUSH2 0x2516 JUMPI DUP2 PUSH2 0xA4D JUMP JUMPDEST POP SWAP1 SWAP2 SWAP1 POP JUMP JUMPDEST PUSH1 0x0 DUP2 DUP4 PUSH2 0x253E JUMPI PUSH1 0x40 MLOAD PUSH3 0x461BCD PUSH1 0xE5 SHL DUP2 MSTORE PUSH1 0x4 ADD PUSH2 0x1188 SWAP2 SWAP1 PUSH2 0x2CBF JUMP JUMPDEST POP PUSH1 0x0 DUP4 DUP6 DUP2 PUSH2 0x254A JUMPI INVALID JUMPDEST DIV SWAP6 SWAP5 POP POP POP POP POP JUMP JUMPDEST PUSH1 0x60 PUSH2 0x25A9 DUP3 PUSH1 0x40 MLOAD DUP1 PUSH1 0x40 ADD PUSH1 0x40 MSTORE DUP1 PUSH1 0x20 DUP2 MSTORE PUSH1 0x20 ADD PUSH32 0x5361666545524332303A206C6F772D6C6576656C2063616C6C206661696C6564 DUP2 MSTORE POP DUP6 PUSH1 0x1 PUSH1 0x1 PUSH1 0xA0 SHL SUB AND PUSH2 0x25E3 SWAP1 SWAP3 SWAP2 SWAP1 PUSH4 0xFFFFFFFF AND JUMP JUMPDEST DUP1 MLOAD SWAP1 SWAP2 POP ISZERO PUSH2 0x237A JUMPI DUP1 DUP1 PUSH1 0x20 ADD SWAP1 MLOAD DUP2 ADD SWAP1 PUSH2 0x25C7 SWAP2 SWAP1 PUSH2 0x29F5 JUMP JUMPDEST PUSH2 0x237A JUMPI PUSH1 0x40 MLOAD PUSH3 0x461BCD PUSH1 0xE5 SHL DUP2 MSTORE PUSH1 0x4 ADD PUSH2 0x1188 SWAP1 PUSH2 0x2EFE JUMP JUMPDEST PUSH1 0x60 PUSH2 0x6C7 DUP5 DUP5 PUSH1 0x0 DUP6 PUSH1 0x60 PUSH2 0x25F8 DUP6 PUSH2 0x26B1 JUMP JUMPDEST PUSH2 0x2614 JUMPI PUSH1 0x40 MLOAD PUSH3 0x461BCD PUSH1 0xE5 SHL DUP2 MSTORE PUSH1 0x4 ADD PUSH2 0x1188 SWAP1 PUSH2 0x2EC7 JUMP JUMPDEST PUSH1 0x0 PUSH1 0x60 DUP7 PUSH1 0x1 PUSH1 0x1 PUSH1 0xA0 SHL SUB AND DUP6 DUP8 PUSH1 0x40 MLOAD PUSH2 0x2631 SWAP2 SWAP1 PUSH2 0x2B42 JUMP JUMPDEST PUSH1 0x0 PUSH1 0x40 MLOAD DUP1 DUP4 SUB DUP2 DUP6 DUP8 GAS CALL SWAP3 POP POP POP RETURNDATASIZE DUP1 PUSH1 0x0 DUP2 EQ PUSH2 0x266E JUMPI PUSH1 0x40 MLOAD SWAP2 POP PUSH1 0x1F NOT PUSH1 0x3F RETURNDATASIZE ADD AND DUP3 ADD PUSH1 0x40 MSTORE RETURNDATASIZE DUP3 MSTORE RETURNDATASIZE PUSH1 0x0 PUSH1 0x20 DUP5 ADD RETURNDATACOPY PUSH2 0x2673 JUMP JUMPDEST PUSH1 0x60 SWAP2 POP JUMPDEST POP SWAP2 POP SWAP2 POP DUP2 ISZERO PUSH2 0x2687 JUMPI SWAP2 POP PUSH2 0x6C7 SWAP1 POP JUMP JUMPDEST DUP1 MLOAD ISZERO PUSH2 0x2697 JUMPI DUP1 MLOAD DUP1 DUP3 PUSH1 0x20 ADD REVERT JUMPDEST DUP4 PUSH1 0x40 MLOAD PUSH3 0x461BCD PUSH1 0xE5 SHL DUP2 MSTORE PUSH1 0x4 ADD PUSH2 0x1188 SWAP2 SWAP1 PUSH2 0x2CBF JUMP JUMPDEST PUSH1 0x0 DUP2 EXTCODEHASH PUSH32 0xC5D2460186F7233C927E7DB2DCC703C0E500B653CA82273B7BFAD8045D85A470 DUP2 DUP2 EQ DUP1 ISZERO SWAP1 PUSH2 0x6C7 JUMPI POP POP ISZERO ISZERO SWAP3 SWAP2 POP POP JUMP JUMPDEST DUP3 DUP1 SLOAD DUP3 DUP3 SSTORE SWAP1 PUSH1 0x0 MSTORE PUSH1 0x20 PUSH1 0x0 KECCAK256 SWAP1 DUP2 ADD SWAP3 DUP3 ISZERO PUSH2 0x273F JUMPI SWAP2 PUSH1 0x20 MUL DUP3 ADD JUMPDEST DUP3 DUP2 GT ISZERO PUSH2 0x273F JUMPI DUP3 MLOAD DUP3 SLOAD PUSH1 0x1 PUSH1 0x1 PUSH1 0xA0 SHL SUB NOT AND PUSH1 0x1 PUSH1 0x1 PUSH1 0xA0 SHL SUB SWAP1 SWAP2 AND OR DUP3 SSTORE PUSH1 0x20 SWAP1 SWAP3 ADD SWAP2 PUSH1 0x1 SWAP1 SWAP2 ADD SWAP1 PUSH2 0x270A JUMP JUMPDEST POP PUSH2 0x274B SWAP3 SWAP2 POP PUSH2 0x274F JUMP JUMPDEST POP SWAP1 JUMP JUMPDEST JUMPDEST DUP1 DUP3 GT ISZERO PUSH2 0x274B JUMPI DUP1 SLOAD PUSH1 0x1 PUSH1 0x1 PUSH1 0xA0 SHL SUB NOT AND DUP2 SSTORE PUSH1 0x1 ADD PUSH2 0x2750 JUMP JUMPDEST PUSH1 0x0 DUP1 DUP4 PUSH1 0x1F DUP5 ADD SLT PUSH2 0x277F JUMPI DUP2 DUP3 REVERT JUMPDEST POP DUP2 CALLDATALOAD PUSH8 0xFFFFFFFFFFFFFFFF DUP2 GT ISZERO PUSH2 0x2796 JUMPI DUP2 DUP3 REVERT JUMPDEST PUSH1 0x20 DUP4 ADD SWAP2 POP DUP4 PUSH1 0x20 DUP1 DUP4 MUL DUP6 ADD ADD GT ISZERO PUSH2 0x27B0 JUMPI PUSH1 0x0 DUP1 REVERT JUMPDEST SWAP3 POP SWAP3 SWAP1 POP JUMP JUMPDEST PUSH1 0x0 PUSH1 0x20 DUP3 DUP5 SUB SLT ISZERO PUSH2 0x27C8 JUMPI DUP1 DUP2 REVERT JUMPDEST DUP2 CALLDATALOAD PUSH2 0xA4D DUP2 PUSH2 0x3066 JUMP JUMPDEST PUSH1 0x0 PUSH1 0x20 DUP3 DUP5 SUB SLT ISZERO PUSH2 0x27E4 JUMPI DUP1 DUP2 REVERT JUMPDEST DUP2 MLOAD PUSH2 0xA4D DUP2 PUSH2 0x3066 JUMP JUMPDEST PUSH1 0x0 DUP1 PUSH1 0x40 DUP4 DUP6 SUB SLT ISZERO PUSH2 0x2801 JUMPI DUP1 DUP2 REVERT JUMPDEST DUP3 CALLDATALOAD PUSH2 0x280C DUP2 PUSH2 0x3066 JUMP JUMPDEST SWAP2 POP PUSH1 0x20 DUP4 ADD CALLDATALOAD PUSH2 0x281C DUP2 PUSH2 0x3066 JUMP JUMPDEST DUP1 SWAP2 POP POP SWAP3 POP SWAP3 SWAP1 POP JUMP JUMPDEST PUSH1 0x0 DUP1 PUSH1 0x0 PUSH1 0x60 DUP5 DUP7 SUB SLT ISZERO PUSH2 0x283B JUMPI DUP1 DUP2 REVERT JUMPDEST DUP4 CALLDATALOAD PUSH2 0x2846 DUP2 PUSH2 0x3066 JUMP JUMPDEST SWAP3 POP PUSH1 0x20 DUP5 ADD CALLDATALOAD PUSH2 0x2856 DUP2 PUSH2 0x3066 JUMP JUMPDEST SWAP3 SWAP6 SWAP3 SWAP5 POP POP POP PUSH1 0x40 SWAP2 SWAP1 SWAP2 ADD CALLDATALOAD SWAP1 JUMP JUMPDEST PUSH1 0x0 DUP1 PUSH1 0x40 DUP4 DUP6 SUB SLT ISZERO PUSH2 0x2879 JUMPI DUP2 DUP3 REVERT JUMPDEST DUP3 CALLDATALOAD PUSH2 0x2884 DUP2 PUSH2 0x3066 JUMP JUMPDEST SWAP5 PUSH1 0x20 SWAP4 SWAP1 SWAP4 ADD CALLDATALOAD SWAP4 POP POP POP JUMP JUMPDEST PUSH1 0x0 DUP1 PUSH1 0x0 DUP1 PUSH1 0x40 DUP6 DUP8 SUB SLT ISZERO PUSH2 0x28A7 JUMPI DUP1 DUP2 REVERT JUMPDEST DUP5 CALLDATALOAD PUSH8 0xFFFFFFFFFFFFFFFF DUP1 DUP3 GT ISZERO PUSH2 0x28BE JUMPI DUP3 DUP4 REVERT JUMPDEST PUSH2 0x28CA DUP9 DUP4 DUP10 ADD PUSH2 0x276E JUMP JUMPDEST SWAP1 SWAP7 POP SWAP5 POP PUSH1 0x20 DUP8 ADD CALLDATALOAD SWAP2 POP DUP1 DUP3 GT ISZERO PUSH2 0x28E2 JUMPI DUP3 DUP4 REVERT JUMPDEST POP PUSH2 0x28EF DUP8 DUP3 DUP9 ADD PUSH2 0x276E JUMP JUMPDEST SWAP6 SWAP9 SWAP5 SWAP8 POP SWAP6 POP POP POP POP JUMP JUMPDEST PUSH1 0x0 DUP1 PUSH1 0x0 DUP1 PUSH1 0x0 DUP1 PUSH1 0x80 DUP8 DUP10 SUB SLT ISZERO PUSH2 0x2913 JUMPI DUP2 DUP3 REVERT JUMPDEST DUP7 CALLDATALOAD PUSH8 0xFFFFFFFFFFFFFFFF DUP1 DUP3 GT ISZERO PUSH2 0x292A JUMPI DUP4 DUP5 REVERT JUMPDEST PUSH2 0x2936 DUP11 DUP4 DUP12 ADD PUSH2 0x276E JUMP JUMPDEST SWAP1 SWAP9 POP SWAP7 POP PUSH1 0x20 DUP10 ADD CALLDATALOAD SWAP2 POP DUP1 DUP3 GT ISZERO PUSH2 0x294E JUMPI DUP4 DUP5 REVERT JUMPDEST POP PUSH2 0x295B DUP10 DUP3 DUP11 ADD PUSH2 0x276E JUMP JUMPDEST SWAP1 SWAP6 POP SWAP4 POP POP PUSH1 0x40 DUP8 ADD CALLDATALOAD PUSH2 0x296F DUP2 PUSH2 0x3066 JUMP JUMPDEST DUP1 SWAP3 POP POP PUSH1 0x60 DUP8 ADD CALLDATALOAD SWAP1 POP SWAP3 SWAP6 POP SWAP3 SWAP6 POP SWAP3 SWAP6 JUMP JUMPDEST PUSH1 0x0 DUP1 PUSH1 0x0 DUP1 PUSH1 0x0 PUSH1 0x60 DUP7 DUP9 SUB SLT ISZERO PUSH2 0x299B JUMPI DUP1 DUP2 REVERT JUMPDEST DUP6 CALLDATALOAD PUSH8 0xFFFFFFFFFFFFFFFF DUP1 DUP3 GT ISZERO PUSH2 0x29B2 JUMPI DUP3 DUP4 REVERT JUMPDEST PUSH2 0x29BE DUP10 DUP4 DUP11 ADD PUSH2 0x276E JUMP JUMPDEST SWAP1 SWAP8 POP SWAP6 POP PUSH1 0x20 DUP9 ADD CALLDATALOAD SWAP2 POP DUP1 DUP3 GT ISZERO PUSH2 0x29D6 JUMPI DUP3 DUP4 REVERT JUMPDEST POP PUSH2 0x29E3 DUP9 DUP3 DUP10 ADD PUSH2 0x276E JUMP JUMPDEST SWAP7 SWAP10 SWAP6 SWAP9 POP SWAP7 PUSH1 0x40 ADD CALLDATALOAD SWAP5 SWAP4 POP POP POP POP JUMP JUMPDEST PUSH1 0x0 PUSH1 0x20 DUP3 DUP5 SUB SLT ISZERO PUSH2 0x2A06 JUMPI DUP1 DUP2 REVERT JUMPDEST DUP2 MLOAD DUP1 ISZERO ISZERO DUP2 EQ PUSH2 0xA4D JUMPI DUP2 DUP3 REVERT JUMPDEST PUSH1 0x0 PUSH1 0x20 DUP3 DUP5 SUB SLT ISZERO PUSH2 0x2A26 JUMPI DUP1 DUP2 REVERT JUMPDEST DUP2 MLOAD PUSH8 0xFFFFFFFFFFFFFFFF DUP1 DUP3 GT ISZERO PUSH2 0x2A3D JUMPI DUP3 DUP4 REVERT JUMPDEST DUP2 DUP5 ADD SWAP2 POP DUP5 PUSH1 0x1F DUP4 ADD SLT PUSH2 0x2A50 JUMPI DUP3 DUP4 REVERT JUMPDEST DUP2 MLOAD DUP2 DUP2 GT ISZERO PUSH2 0x2A5E JUMPI DUP4 DUP5 REVERT JUMPDEST PUSH1 0x40 MLOAD PUSH1 0x1F DUP3 ADD PUSH1 0x1F NOT AND DUP2 ADD PUSH1 0x20 ADD DUP4 DUP2 GT DUP3 DUP3 LT OR ISZERO PUSH2 0x2A7E JUMPI DUP6 DUP7 REVERT JUMPDEST PUSH1 0x40 MSTORE DUP2 DUP2 MSTORE DUP4 DUP3 ADD PUSH1 0x20 ADD DUP8 LT ISZERO PUSH2 0x2A95 JUMPI DUP5 DUP6 REVERT JUMPDEST PUSH2 0xD1E DUP3 PUSH1 0x20 DUP4 ADD PUSH1 0x20 DUP8 ADD PUSH2 0x303A JUMP JUMPDEST PUSH1 0x0 PUSH1 0x20 DUP3 DUP5 SUB SLT ISZERO PUSH2 0x2AB7 JUMPI DUP1 DUP2 REVERT JUMPDEST POP CALLDATALOAD SWAP2 SWAP1 POP JUMP JUMPDEST PUSH1 0x0 PUSH1 0x20 DUP3 DUP5 SUB SLT ISZERO PUSH2 0x2ACF JUMPI DUP1 DUP2 REVERT JUMPDEST POP MLOAD SWAP2 SWAP1 POP JUMP JUMPDEST PUSH1 0x0 DUP1 PUSH1 0x40 DUP4 DUP6 SUB SLT ISZERO PUSH2 0x2AE8 JUMPI DUP2 DUP3 REVERT JUMPDEST POP POP DUP1 CALLDATALOAD SWAP3 PUSH1 0x20 SWAP1 SWAP2 ADD CALLDATALOAD SWAP2 POP JUMP JUMPDEST PUSH1 0x0 PUSH1 0x20 DUP3 DUP5 SUB SLT ISZERO PUSH2 0x2B08 JUMPI DUP1 DUP2 REVERT JUMPDEST DUP2 MLOAD PUSH1 0xFF DUP2 AND DUP2 EQ PUSH2 0xA4D JUMPI DUP2 DUP3 REVERT JUMPDEST PUSH1 0x0 DUP3 DUP5 MSTORE DUP3 DUP3 PUSH1 0x20 DUP7 ADD CALLDATACOPY DUP1 PUSH1 0x20 DUP5 DUP7 ADD ADD MSTORE PUSH1 0x20 PUSH1 0x1F NOT PUSH1 0x1F DUP6 ADD AND DUP6 ADD ADD SWAP1 POP SWAP4 SWAP3 POP POP POP JUMP JUMPDEST PUSH1 0x0 DUP3 MLOAD PUSH2 0x2B54 DUP2 DUP5 PUSH1 0x20 DUP8 ADD PUSH2 0x303A JUMP JUMPDEST SWAP2 SWAP1 SWAP2 ADD SWAP3 SWAP2 POP POP JUMP JUMPDEST PUSH1 0x0 PUSH6 0x2CB2B0B9371 PUSH1 0xD5 SHL DUP3 MSTORE DUP3 MLOAD PUSH2 0x2B7F DUP2 PUSH1 0x6 DUP6 ADD PUSH1 0x20 DUP8 ADD PUSH2 0x303A JUMP JUMPDEST SWAP2 SWAP1 SWAP2 ADD PUSH1 0x6 ADD SWAP3 SWAP2 POP POP JUMP JUMPDEST PUSH1 0x0 PUSH1 0x79 PUSH1 0xF8 SHL DUP3 MSTORE DUP3 MLOAD PUSH2 0x2BA8 DUP2 PUSH1 0x1 DUP6 ADD PUSH1 0x20 DUP8 ADD PUSH2 0x303A JUMP JUMPDEST SWAP2 SWAP1 SWAP2 ADD PUSH1 0x1 ADD SWAP3 SWAP2 POP POP JUMP JUMPDEST PUSH1 0x1 PUSH1 0x1 PUSH1 0xA0 SHL SUB SWAP2 SWAP1 SWAP2 AND DUP2 MSTORE PUSH1 0x20 ADD SWAP1 JUMP JUMPDEST PUSH1 0x1 PUSH1 0x1 PUSH1 0xA0 SHL SUB DUP8 DUP2 AND DUP3 MSTORE DUP7 AND PUSH1 0x20 DUP3 ADD MSTORE PUSH1 0x40 DUP2 ADD DUP6 SWAP1 MSTORE PUSH1 0x60 DUP2 ADD DUP5 SWAP1 MSTORE PUSH1 0xA0 PUSH1 0x80 DUP3 ADD DUP2 SWAP1 MSTORE PUSH1 0x0 SWAP1 PUSH2 0x2C04 SWAP1 DUP4 ADD DUP5 DUP7 PUSH2 0x2B18 JUMP JUMPDEST SWAP9 SWAP8 POP POP POP POP POP POP POP POP JUMP JUMPDEST PUSH1 0x1 PUSH1 0x1 PUSH1 0xA0 SHL SUB SWAP3 DUP4 AND DUP2 MSTORE SWAP2 AND PUSH1 0x20 DUP3 ADD MSTORE PUSH1 0x40 ADD SWAP1 JUMP JUMPDEST PUSH1 0x1 PUSH1 0x1 PUSH1 0xA0 SHL SUB SWAP4 DUP5 AND DUP2 MSTORE SWAP2 SWAP1 SWAP3 AND PUSH1 0x20 DUP3 ADD MSTORE PUSH1 0x40 DUP2 ADD SWAP2 SWAP1 SWAP2 MSTORE PUSH1 0x60 ADD SWAP1 JUMP JUMPDEST PUSH1 0x1 PUSH1 0x1 PUSH1 0xA0 SHL SUB SWAP3 SWAP1 SWAP3 AND DUP3 MSTORE PUSH1 0x20 DUP3 ADD MSTORE PUSH1 0x40 ADD SWAP1 JUMP JUMPDEST PUSH1 0x20 DUP1 DUP3 MSTORE DUP3 MLOAD DUP3 DUP3 ADD DUP2 SWAP1 MSTORE PUSH1 0x0 SWAP2 SWAP1 DUP5 DUP3 ADD SWAP1 PUSH1 0x40 DUP6 ADD SWAP1 DUP5 JUMPDEST DUP2 DUP2 LT ISZERO PUSH2 0x2CA8 JUMPI DUP4 MLOAD PUSH1 0x1 PUSH1 0x1 PUSH1 0xA0 SHL SUB AND DUP4 MSTORE SWAP3 DUP5 ADD SWAP3 SWAP2 DUP5 ADD SWAP2 PUSH1 0x1 ADD PUSH2 0x2C83 JUMP JUMPDEST POP SWAP1 SWAP7 SWAP6 POP POP POP POP POP POP JUMP JUMPDEST SWAP1 ISZERO ISZERO DUP2 MSTORE PUSH1 0x20 ADD SWAP1 JUMP JUMPDEST PUSH1 0x0 PUSH1 0x20 DUP3 MSTORE DUP3 MLOAD DUP1 PUSH1 0x20 DUP5 ADD MSTORE PUSH2 0x2CDE DUP2 PUSH1 0x40 DUP6 ADD PUSH1 0x20 DUP8 ADD PUSH2 0x303A JUMP JUMPDEST PUSH1 0x1F ADD PUSH1 0x1F NOT AND SWAP2 SWAP1 SWAP2 ADD PUSH1 0x40 ADD SWAP3 SWAP2 POP POP JUMP JUMPDEST PUSH1 0x20 DUP1 DUP3 MSTORE PUSH1 0x23 SWAP1 DUP3 ADD MSTORE PUSH32 0x45524332303A207472616E7366657220746F20746865207A65726F2061646472 PUSH1 0x40 DUP3 ADD MSTORE PUSH3 0x657373 PUSH1 0xE8 SHL PUSH1 0x60 DUP3 ADD MSTORE PUSH1 0x80 ADD SWAP1 JUMP JUMPDEST PUSH1 0x20 DUP1 DUP3 MSTORE PUSH1 0x22 SWAP1 DUP3 ADD MSTORE PUSH32 0x45524332303A20617070726F766520746F20746865207A65726F206164647265 PUSH1 0x40 DUP3 ADD MSTORE PUSH2 0x7373 PUSH1 0xF0 SHL PUSH1 0x60 DUP3 ADD MSTORE PUSH1 0x80 ADD SWAP1 JUMP JUMPDEST PUSH1 0x20 DUP1 DUP3 MSTORE PUSH1 0x1B SWAP1 DUP3 ADD MSTORE PUSH32 0x536166654D6174683A206164646974696F6E206F766572666C6F770000000000 PUSH1 0x40 DUP3 ADD MSTORE PUSH1 0x60 ADD SWAP1 JUMP JUMPDEST PUSH1 0x20 DUP1 DUP3 MSTORE PUSH1 0x3A SWAP1 DUP3 ADD MSTORE PUSH32 0x416464726573733A20756E61626C6520746F2073656E642076616C75652C2072 PUSH1 0x40 DUP3 ADD MSTORE PUSH32 0x6563697069656E74206D61792068617665207265766572746564000000000000 PUSH1 0x60 DUP3 ADD MSTORE PUSH1 0x80 ADD SWAP1 JUMP JUMPDEST PUSH1 0x20 DUP1 DUP3 MSTORE PUSH1 0x1D SWAP1 DUP3 ADD MSTORE PUSH32 0x416464726573733A20696E73756666696369656E742062616C616E6365000000 PUSH1 0x40 DUP3 ADD MSTORE PUSH1 0x60 ADD SWAP1 JUMP JUMPDEST PUSH1 0x20 DUP1 DUP3 MSTORE PUSH1 0x21 SWAP1 DUP3 ADD MSTORE PUSH32 0x536166654D6174683A206D756C7469706C69636174696F6E206F766572666C6F PUSH1 0x40 DUP3 ADD MSTORE PUSH1 0x77 PUSH1 0xF8 SHL PUSH1 0x60 DUP3 ADD MSTORE PUSH1 0x80 ADD SWAP1 JUMP JUMPDEST PUSH1 0x20 DUP1 DUP3 MSTORE PUSH1 0x24 SWAP1 DUP3 ADD MSTORE PUSH32 0x45524332303A20617070726F76652066726F6D20746865207A65726F20616464 PUSH1 0x40 DUP3 ADD MSTORE PUSH4 0x72657373 PUSH1 0xE0 SHL PUSH1 0x60 DUP3 ADD MSTORE PUSH1 0x80 ADD SWAP1 JUMP JUMPDEST PUSH1 0x20 DUP1 DUP3 MSTORE PUSH1 0x1D SWAP1 DUP3 ADD MSTORE PUSH32 0x416464726573733A2063616C6C20746F206E6F6E2D636F6E7472616374000000 PUSH1 0x40 DUP3 ADD MSTORE PUSH1 0x60 ADD SWAP1 JUMP JUMPDEST PUSH1 0x20 DUP1 DUP3 MSTORE PUSH1 0x2A SWAP1 DUP3 ADD MSTORE PUSH32 0x5361666545524332303A204552433230206F7065726174696F6E20646964206E PUSH1 0x40 DUP3 ADD MSTORE PUSH10 0x1BDD081CDD58D8D95959 PUSH1 0xB2 SHL PUSH1 0x60 DUP3 ADD MSTORE PUSH1 0x80 ADD SWAP1 JUMP JUMPDEST PUSH1 0x20 DUP1 DUP3 MSTORE PUSH1 0x1F SWAP1 DUP3 ADD MSTORE PUSH32 0x5265656E7472616E637947756172643A207265656E7472616E742063616C6C00 PUSH1 0x40 DUP3 ADD MSTORE PUSH1 0x60 ADD SWAP1 JUMP JUMPDEST PUSH1 0x20 DUP1 DUP3 MSTORE PUSH1 0x36 SWAP1 DUP3 ADD MSTORE PUSH32 0x5361666545524332303A20617070726F76652066726F6D206E6F6E2D7A65726F PUSH1 0x40 DUP3 ADD MSTORE PUSH22 0x20746F206E6F6E2D7A65726F20616C6C6F77616E6365 PUSH1 0x50 SHL PUSH1 0x60 DUP3 ADD MSTORE PUSH1 0x80 ADD SWAP1 JUMP JUMPDEST SWAP1 DUP2 MSTORE PUSH1 0x20 ADD SWAP1 JUMP JUMPDEST SWAP2 DUP3 MSTORE PUSH1 0x1 PUSH1 0x1 PUSH1 0xA0 SHL SUB AND PUSH1 0x20 DUP3 ADD MSTORE PUSH1 0x40 ADD SWAP1 JUMP JUMPDEST PUSH1 0x0 DUP1 DUP4 CALLDATALOAD PUSH1 0x1E NOT DUP5 CALLDATASIZE SUB ADD DUP2 SLT PUSH2 0x300B JUMPI DUP3 DUP4 REVERT JUMPDEST DUP4 ADD DUP1 CALLDATALOAD SWAP2 POP PUSH8 0xFFFFFFFFFFFFFFFF DUP3 GT ISZERO PUSH2 0x3025 JUMPI DUP3 DUP4 REVERT JUMPDEST PUSH1 0x20 ADD SWAP2 POP CALLDATASIZE DUP2 SWAP1 SUB DUP3 SGT ISZERO PUSH2 0x27B0 JUMPI PUSH1 0x0 DUP1 REVERT JUMPDEST PUSH1 0x0 JUMPDEST DUP4 DUP2 LT ISZERO PUSH2 0x3055 JUMPI DUP2 DUP2 ADD MLOAD DUP4 DUP3 ADD MSTORE PUSH1 0x20 ADD PUSH2 0x303D JUMP JUMPDEST DUP4 DUP2 GT ISZERO PUSH2 0x10B8 JUMPI POP POP PUSH1 0x0 SWAP2 ADD MSTORE JUMP JUMPDEST PUSH1 0x1 PUSH1 0x1 PUSH1 0xA0 SHL SUB DUP2 AND DUP2 EQ PUSH2 0x1075 JUMPI PUSH1 0x0 DUP1 REVERT INVALID LOG2 PUSH5 0x6970667358 0x22 SLT KECCAK256 0xA8 DELEGATECALL EQ DUP6 CALL STATICCALL 0xF7 0xE1 0x2F 0x5D PUSH32 0xE72D80E852999ADE6006C7969BFECD97375869CB8664736F6C634300060C0033 ",
  "sha1": "be99a1beba6aa1c888b33f424bcfb492b4d4f11c",
  "source": "// SPDX-License-Identifier: GPL-3.0\npragma solidity ^0.6.12;\npragma experimental ABIEncoderV2;\n\nimport {Address} from \"@openzeppelin/contracts/utils/Address.sol\";\nimport {IERC20} from \"@openzeppelin/contracts/token/ERC20/IERC20.sol\";\nimport {SafeMath} from \"@openzeppelin/contracts/math/SafeMath.sol\";\nimport {ReentrancyGuard} from \"@openzeppelin/contracts/utils/ReentrancyGuard.sol\";\n\nimport {VaultAPI, BaseWrapper} from \"./BaseWrapper.sol\";\n\ninterface IERC20Metadata {\n    /**\n     * @dev Returns the name of the token.\n     */\n    function name() external view returns (string memory);\n\n    /**\n     * @dev Returns the symbol of the token.\n     */\n    function symbol() external view returns (string memory);\n\n    /**\n     * @dev Returns the decimals places of the token.\n     */\n    function decimals() external view returns (uint8);\n}\n\ncontract yToken is IERC20, BaseWrapper {\n    using SafeMath for uint256;\n\n    mapping(address => mapping(address => uint256)) public override allowance;\n\n    constructor(address _token, address _registry) public BaseWrapper(_token, _registry) {}\n\n    function name() external view returns (string memory) {\n        return string(abi.encodePacked(\"Yearn \", IERC20Metadata(address(token)).name()));\n    }\n\n    function symbol() external view returns (string memory) {\n        return string(abi.encodePacked(\"y\", IERC20Metadata(address(token)).symbol()));\n    }\n\n    function decimals() external view returns (uint256) {\n        return IERC20Metadata(address(token)).decimals();\n    }\n\n    function totalSupply() external view override returns (uint256 total) {\n        return totalAssets();\n    }\n\n    function balanceOf(address account) external view override returns (uint256 balance) {\n        return totalVaultBalance(account);\n    }\n\n    function _transfer(\n        address sender,\n        address receiver,\n        uint256 amount\n    ) internal {\n        require(receiver != address(0), \"ERC20: transfer to the zero address\");\n        require(amount == _withdraw(sender, receiver, amount, true)); // `true` means use `bestVault`\n        emit Transfer(sender, receiver, amount);\n    }\n\n    function transfer(address receiver, uint256 amount) public virtual override returns (bool) {\n        _transfer(msg.sender, receiver, amount);\n        return true;\n    }\n\n    function _approve(\n        address owner,\n        address spender,\n        uint256 amount\n    ) internal {\n        require(owner != address(0), \"ERC20: approve from the zero address\");\n        require(spender != address(0), \"ERC20: approve to the zero address\");\n\n        allowance[owner][spender] = amount;\n        emit Approval(owner, spender, amount);\n    }\n\n    function approve(address spender, uint256 amount) public override returns (bool) {\n        _approve(msg.sender, spender, amount);\n        return true;\n    }\n\n    function transferFrom(\n        address sender,\n        address receiver,\n        uint256 amount\n    ) public virtual override returns (bool) {\n        _transfer(sender, receiver, amount);\n        _approve(sender, msg.sender, allowance[sender][msg.sender].sub(amount));\n        return true;\n    }\n\n    function increaseAllowance(address spender, uint256 addedValue) public virtual returns (bool) {\n        _approve(msg.sender, spender, allowance[msg.sender][spender].add(addedValue));\n        return true;\n    }\n\n    function decreaseAllowance(address spender, uint256 subtractedValue) public virtual returns (bool) {\n        _approve(msg.sender, spender, allowance[msg.sender][spender].sub(subtractedValue));\n        return true;\n    }\n\n    function deposit(uint256 amount) external returns (uint256) {\n        return _deposit(msg.sender, msg.sender, amount, true); // `true` = pull from sender\n    }\n\n    function withdraw(uint256 amount) external returns (uint256) {\n        return _withdraw(msg.sender, msg.sender, amount, true); // `true` = withdraw from `bestVault`\n    }\n\n    function _permitAll(\n        address user,\n        VaultAPI[] calldata vaults,\n        bytes[] calldata signatures\n    ) internal {\n        require(vaults.length == signatures.length);\n        for (uint256 i = 0; i < vaults.length; i++) {\n            require(vaults[i].permit(user, address(this), uint256(-1), 0, signatures[i]));\n        }\n    }\n\n    function permitAll(VaultAPI[] calldata vaults, bytes[] calldata signatures) public {\n        _permitAll(msg.sender, vaults, signatures);\n    }\n\n    function migrate() external returns (uint256) {\n        return _migrate(msg.sender);\n    }\n\n    function migrate(uint256 amount) external returns (uint256) {\n        return _migrate(msg.sender, amount);\n    }\n\n    function migrate(uint256 amount, uint256 maxMigrationLoss) external returns (uint256) {\n        return _migrate(msg.sender, amount, maxMigrationLoss);\n    }\n\n    function migrate(VaultAPI[] calldata vaults, bytes[] calldata signatures) external returns (uint256) {\n        _permitAll(msg.sender, vaults, signatures);\n        return _migrate(msg.sender);\n    }\n\n    function migrate(\n        VaultAPI[] calldata vaults,\n        bytes[] calldata signatures,\n        uint256 amount\n    ) external returns (uint256) {\n        _permitAll(msg.sender, vaults, signatures);\n        return _migrate(msg.sender, amount);\n    }\n\n    function migrate(\n        VaultAPI[] calldata vaults,\n        bytes[] calldata signatures,\n        address user,\n        uint256 amount\n    ) external returns (uint256) {\n        _permitAll(user, vaults, signatures);\n        return _migrate(user, amount);\n    }\n\n    function revokeAll(VaultAPI[] calldata vaults, bytes[] calldata signatures) external {\n        require(vaults.length == signatures.length);\n        for (uint256 i = 0; i < vaults.length; i++) {\n            require(vaults[i].permit(msg.sender, address(this), 0, 0, signatures[i]));\n        }\n    }\n}\n\ninterface IWETH {\n    function deposit() external payable;\n\n    function withdraw(uint256 wad) external;\n}\n\ncontract yWETH is ReentrancyGuard, yToken {\n    using Address for address payable;\n\n    constructor(address _weth, address _registry) public yToken(_weth, _registry) {}\n\n    function depositETH() public payable returns (uint256) {\n        uint256 amount = msg.value;\n        // NOTE: `BaseWrapper.token` is WETH\n        IWETH(address(token)).deposit{value: amount}();\n        // NOTE: Deposit handles approvals\n        // NOTE: Need to use different method to deposit than `yToken`\n        return _deposit(address(this), msg.sender, amount, false); // `false` = pull from `this`\n    }\n\n    function withdrawETH(uint256 amount) external nonReentrant returns (uint256 withdrawn) {\n        // NOTE: Need to use different method to withdraw than `yToken`\n        withdrawn = _withdraw(msg.sender, address(this), amount, true); // `true` = withdraw from `bestVault`\n        // NOTE: `BaseWrapper.token` is WETH\n        IWETH(address(token)).withdraw(withdrawn);\n        // NOTE: Any unintentionally\n        msg.sender.sendValue(address(this).balance);\n    }\n\n    receive() external payable {\n        if (msg.sender != address(token)) {\n            depositETH();\n        } // else: WETH is sending us back ETH, so don't do anything (to avoid recursion)\n    }\n}\n",
  "sourcePath": "contracts/yToken.sol",
  "type": "contract"
}