{
    "contractName": "BTCOSMedianizer",
    "abi": [
        {
            "inputs": [],
            "payable": false,
            "stateMutability": "nonpayable",
            "type": "constructor"
        },
        {
            "constant": true,
            "inputs": [],
            "name": "MEDIANIZER",
            "outputs": [
                {
                    "internalType": "contract UniswapAnchoredView",
                    "name": "",
                    "type": "address"
                }
            ],
            "payable": false,
            "stateMutability": "view",
            "type": "function"
        },
        {
            "constant": true,
            "inputs": [],
            "name": "OSM",
            "outputs": [
                {
                    "internalType": "contract OracleSecurityModule",
                    "name": "",
                    "type": "address"
                }
            ],
            "payable": false,
            "stateMutability": "view",
            "type": "function"
        },
        {
            "constant": true,
            "inputs": [
                {
                    "internalType": "address",
                    "name": "",
                    "type": "address"
                }
            ],
            "name": "authorized",
            "outputs": [
                {
                    "internalType": "bool",
                    "name": "",
                    "type": "bool"
                }
            ],
            "payable": false,
            "stateMutability": "view",
            "type": "function"
        },
        {
            "constant": true,
            "inputs": [],
            "name": "governance",
            "outputs": [
                {
                    "internalType": "address",
                    "name": "",
                    "type": "address"
                }
            ],
            "payable": false,
            "stateMutability": "view",
            "type": "function"
        },
        {
            "constant": true,
            "inputs": [],
            "name": "symbol",
            "outputs": [
                {
                    "internalType": "string",
                    "name": "",
                    "type": "string"
                }
            ],
            "payable": false,
            "stateMutability": "view",
            "type": "function"
        },
        {
            "constant": false,
            "inputs": [
                {
                    "internalType": "address",
                    "name": "_governance",
                    "type": "address"
                }
            ],
            "name": "setGovernance",
            "outputs": [],
            "payable": false,
            "stateMutability": "nonpayable",
            "type": "function"
        },
        {
            "constant": false,
            "inputs": [
                {
                    "internalType": "address",
                    "name": "_authorized",
                    "type": "address"
                }
            ],
            "name": "setAuthorized",
            "outputs": [],
            "payable": false,
            "stateMutability": "nonpayable",
            "type": "function"
        },
        {
            "constant": false,
            "inputs": [
                {
                    "internalType": "address",
                    "name": "_authorized",
                    "type": "address"
                }
            ],
            "name": "revokeAuthorized",
            "outputs": [],
            "payable": false,
            "stateMutability": "nonpayable",
            "type": "function"
        },
        {
            "constant": true,
            "inputs": [],
            "name": "read",
            "outputs": [
                {
                    "internalType": "uint256",
                    "name": "price",
                    "type": "uint256"
                },
                {
                    "internalType": "bool",
                    "name": "osm",
                    "type": "bool"
                }
            ],
            "payable": false,
            "stateMutability": "view",
            "type": "function"
        },
        {
            "constant": true,
            "inputs": [],
            "name": "foresight",
            "outputs": [
                {
                    "internalType": "uint256",
                    "name": "price",
                    "type": "uint256"
                },
                {
                    "internalType": "bool",
                    "name": "osm",
                    "type": "bool"
                }
            ],
            "payable": false,
            "stateMutability": "view",
            "type": "function"
        }
    ],
    "bytecode": "0x60c0604052600360808190526242544360e81b60a09081526100249160029190610049565b5034801561003157600080fd5b50600180546001600160a01b031916331790556100e4565b828054600181600116156101000203166002900490600052602060002090601f016020900481019282601f1061008a57805160ff19168380011785556100b7565b828001600101855582156100b7579182015b828111156100b757825182559160200191906001019061009c565b506100c39291506100c7565b5090565b6100e191905b808211156100c357600081556001016100cd565b90565b610852806100f36000396000f3fe608060405234801561001057600080fd5b506004361061009e5760003560e01c806395d89b411161006657806395d89b411461013e578063ab033ea9146101bb578063b9181611146101e1578063b9f084981461021b578063cfad9c8c146102235761009e565b806314fc2812146100a35780633f48be2d146100cb57806357de26a4146100f15780635aa6e6751461011257806394c5eddb14610136575b600080fd5b6100c9600480360360208110156100b957600080fd5b50356001600160a01b031661022b565b005b6100c9600480360360208110156100e157600080fd5b50356001600160a01b031661029c565b6100f961030a565b6040805192835290151560208301528051918290030190f35b61011a61055b565b604080516001600160a01b039092168252519081900360200190f35b61011a61056a565b610146610582565b6040805160208082528351818301528351919283929083019185019080838360005b83811015610180578181015183820152602001610168565b50505050905090810190601f1680156101ad5780820380516001836020036101000a031916815260200191505b509250505060405180910390f35b6100c9600480360360208110156101d157600080fd5b50356001600160a01b031661060d565b610207600480360360208110156101f757600080fd5b50356001600160a01b031661067c565b604080519115158252519081900360200190f35b61011a610691565b6100f96106a9565b6001546001600160a01b03163314610278576040805162461bcd60e51b815260206004820152600b60248201526a21676f7665726e616e636560a81b604482015290519081900360640190fd5b6001600160a01b03166000908152602081905260409020805460ff19166001179055565b6001546001600160a01b031633146102e9576040805162461bcd60e51b815260206004820152600b60248201526a21676f7665726e616e636560a81b604482015290519081900360640190fd5b6001600160a01b03166000908152602081905260409020805460ff19169055565b33600090815260208190526040812054819060ff1680156103a75750604080516327e73d1560e11b8152306004820152905173f185d0682d50819263941e5f4eacc763cc5c6c4291634fce7a2a916024808301926020929190829003018186803b15801561037757600080fd5b505afa15801561038b573d6000803e3d6000fd5b505050506040513d60208110156103a157600080fd5b50516001145b156104485760008073f185d0682d50819263941e5f4eacc763cc5c6c426001600160a01b03166359e02dd76040518163ffffffff1660e01b8152600401604080518083038186803b1580156103fb57600080fd5b505afa15801561040f573d6000803e3d6000fd5b505050506040513d604081101561042557600080fd5b508051602090910151909250905080156104455750915060019050610557565b50505b604051631fc58c3360e31b8152602060048201908152600280546000196101006001831615020116819004602484018190526105509364e8d4a5100093739b8eb8b3d6e2e0db36f41455185fef7049a35cae9363fe2c61989390928291604490910190849080156104fa5780601f106104cf576101008083540402835291602001916104fa565b820191906000526020600020905b8154815290600101906020018083116104dd57829003601f168201915b50509250505060206040518083038186803b15801561051857600080fd5b505afa15801561052c573d6000803e3d6000fd5b505050506040513d602081101561054257600080fd5b50519063ffffffff61079a16565b6000915091505b9091565b6001546001600160a01b031681565b739b8eb8b3d6e2e0db36f41455185fef7049a35cae81565b6002805460408051602060018416156101000260001901909316849004601f810184900484028201840190925281815292918301828280156106055780601f106105da57610100808354040283529160200191610605565b820191906000526020600020905b8154815290600101906020018083116105e857829003601f168201915b505050505081565b6001546001600160a01b0316331461065a576040805162461bcd60e51b815260206004820152600b60248201526a21676f7665726e616e636560a81b604482015290519081900360640190fd5b600180546001600160a01b0319166001600160a01b0392909216919091179055565b60006020819052908152604090205460ff1681565b73f185d0682d50819263941e5f4eacc763cc5c6c4281565b33600090815260208190526040812054819060ff1680156107465750604080516327e73d1560e11b8152306004820152905173f185d0682d50819263941e5f4eacc763cc5c6c4291634fce7a2a916024808301926020929190829003018186803b15801561071657600080fd5b505afa15801561072a573d6000803e3d6000fd5b505050506040513d602081101561074057600080fd5b50516001145b156104485760008073f185d0682d50819263941e5f4eacc763cc5c6c426001600160a01b0316630e5a6c706040518163ffffffff1660e01b8152600401604080518083038186803b1580156103fb57600080fd5b6000826107a9575060006107f6565b828202828482816107b657fe5b04146107f35760405162461bcd60e51b81526004018080602001828103825260218152602001806107fd6021913960400191505060405180910390fd5b90505b9291505056fe536166654d6174683a206d756c7469706c69636174696f6e206f766572666c6f77a265627a7a723158206aadf9bddc61ea0478436de8de3db4c3b3effa9c4336e612fc6f0bc8c9cc475864736f6c63430005110032",
    "source": "pragma solidity ^0.5.17;\n\nimport \"@openzeppelinV2/contracts/math/SafeMath.sol\";\n\nimport \"../../interfaces/maker/OracleSecurityModule.sol\";\n\ninterface UniswapAnchoredView {\n    function price(string calldata) external view returns (uint256);\n}\n\ncontract BTCOSMedianizer {\n    using SafeMath for uint256;\n\n    mapping(address => bool) public authorized;\n    address public governance;\n\n    OracleSecurityModule public constant OSM = OracleSecurityModule(0xf185d0682d50819263941e5f4EacC763CC5C6C42);\n    UniswapAnchoredView public constant MEDIANIZER = UniswapAnchoredView(0x9B8Eb8b3d6e2e0Db36F41455185FEF7049a35CaE);\n    string public symbol = \"BTC\";\n\n    constructor() public {\n        governance = msg.sender;\n    }\n\n    function setGovernance(address _governance) external {\n        require(msg.sender == governance, \"!governance\");\n        governance = _governance;\n    }\n\n    function setAuthorized(address _authorized) external {\n        require(msg.sender == governance, \"!governance\");\n        authorized[_authorized] = true;\n    }\n\n    function revokeAuthorized(address _authorized) external {\n        require(msg.sender == governance, \"!governance\");\n        authorized[_authorized] = false;\n    }\n\n    function read() external view returns (uint256 price, bool osm) {\n        if (authorized[msg.sender] && OSM.bud(address(this)) == 1) {\n            (bytes32 _val, bool _has) = OSM.peek();\n            if (_has) return (uint256(_val), true);\n        }\n        return ((MEDIANIZER.price(symbol)).mul(1e12), false);\n    }\n\n    function foresight() external view returns (uint256 price, bool osm) {\n        if (authorized[msg.sender] && OSM.bud(address(this)) == 1) {\n            (bytes32 _val, bool _has) = OSM.peep();\n            if (_has) return (uint256(_val), true);\n        }\n        return ((MEDIANIZER.price(symbol)).mul(1e12), false);\n    }\n}\n",
    "sourcePath": "/Users/sbacha/V2yearn/contracts/utils/BTCOSMedianizer.sol",
    "compiler": {
        "name": "solc",
        "version": "0.5.17+commit.d19bba13.Emscripten.clang"
    },
    "schemaVersion": "3.1.0",
    "updatedAt": "2020-11-01T01:33:12.868Z",
    "devdoc": {
        "methods": {}
    },
    "userdoc": {
        "methods": {}
    }
}