{
  "contractName": "Controller",
  "abi": [
    {
      "inputs": [
        {
          "internalType": "address",
          "name": "_rewards",
          "type": "address"
        }
      ],
      "payable": false,
      "stateMutability": "nonpayable",
      "type": "constructor"
    },
    {
      "constant": true,
      "inputs": [
        {
          "internalType": "address",
          "name": "",
          "type": "address"
        },
        {
          "internalType": "address",
          "name": "",
          "type": "address"
        }
      ],
      "name": "approvedStrategies",
      "outputs": [
        {
          "internalType": "bool",
          "name": "",
          "type": "bool"
        }
      ],
      "payable": false,
      "stateMutability": "view",
      "type": "function"
    },
    {
      "constant": true,
      "inputs": [
        {
          "internalType": "address",
          "name": "",
          "type": "address"
        },
        {
          "internalType": "address",
          "name": "",
          "type": "address"
        }
      ],
      "name": "converters",
      "outputs": [
        {
          "internalType": "address",
          "name": "",
          "type": "address"
        }
      ],
      "payable": false,
      "stateMutability": "view",
      "type": "function"
    },
    {
      "constant": true,
      "inputs": [],
      "name": "governance",
      "outputs": [
        {
          "internalType": "address",
          "name": "",
          "type": "address"
        }
      ],
      "payable": false,
      "stateMutability": "view",
      "type": "function"
    },
    {
      "constant": true,
      "inputs": [],
      "name": "max",
      "outputs": [
        {
          "internalType": "uint256",
          "name": "",
          "type": "uint256"
        }
      ],
      "payable": false,
      "stateMutability": "view",
      "type": "function"
    },
    {
      "constant": true,
      "inputs": [],
      "name": "onesplit",
      "outputs": [
        {
          "internalType": "address",
          "name": "",
          "type": "address"
        }
      ],
      "payable": false,
      "stateMutability": "view",
      "type": "function"
    },
    {
      "constant": true,
      "inputs": [],
      "name": "rewards",
      "outputs": [
        {
          "internalType": "address",
          "name": "",
          "type": "address"
        }
      ],
      "payable": false,
      "stateMutability": "view",
      "type": "function"
    },
    {
      "constant": true,
      "inputs": [],
      "name": "split",
      "outputs": [
        {
          "internalType": "uint256",
          "name": "",
          "type": "uint256"
        }
      ],
      "payable": false,
      "stateMutability": "view",
      "type": "function"
    },
    {
      "constant": true,
      "inputs": [
        {
          "internalType": "address",
          "name": "",
          "type": "address"
        }
      ],
      "name": "strategies",
      "outputs": [
        {
          "internalType": "address",
          "name": "",
          "type": "address"
        }
      ],
      "payable": false,
      "stateMutability": "view",
      "type": "function"
    },
    {
      "constant": true,
      "inputs": [],
      "name": "strategist",
      "outputs": [
        {
          "internalType": "address",
          "name": "",
          "type": "address"
        }
      ],
      "payable": false,
      "stateMutability": "view",
      "type": "function"
    },
    {
      "constant": true,
      "inputs": [
        {
          "internalType": "address",
          "name": "",
          "type": "address"
        }
      ],
      "name": "vaults",
      "outputs": [
        {
          "internalType": "address",
          "name": "",
          "type": "address"
        }
      ],
      "payable": false,
      "stateMutability": "view",
      "type": "function"
    },
    {
      "constant": false,
      "inputs": [
        {
          "internalType": "address",
          "name": "_rewards",
          "type": "address"
        }
      ],
      "name": "setRewards",
      "outputs": [],
      "payable": false,
      "stateMutability": "nonpayable",
      "type": "function"
    },
    {
      "constant": false,
      "inputs": [
        {
          "internalType": "address",
          "name": "_strategist",
          "type": "address"
        }
      ],
      "name": "setStrategist",
      "outputs": [],
      "payable": false,
      "stateMutability": "nonpayable",
      "type": "function"
    },
    {
      "constant": false,
      "inputs": [
        {
          "internalType": "uint256",
          "name": "_split",
          "type": "uint256"
        }
      ],
      "name": "setSplit",
      "outputs": [],
      "payable": false,
      "stateMutability": "nonpayable",
      "type": "function"
    },
    {
      "constant": false,
      "inputs": [
        {
          "internalType": "address",
          "name": "_onesplit",
          "type": "address"
        }
      ],
      "name": "setOneSplit",
      "outputs": [],
      "payable": false,
      "stateMutability": "nonpayable",
      "type": "function"
    },
    {
      "constant": false,
      "inputs": [
        {
          "internalType": "address",
          "name": "_governance",
          "type": "address"
        }
      ],
      "name": "setGovernance",
      "outputs": [],
      "payable": false,
      "stateMutability": "nonpayable",
      "type": "function"
    },
    {
      "constant": false,
      "inputs": [
        {
          "internalType": "address",
          "name": "_token",
          "type": "address"
        },
        {
          "internalType": "address",
          "name": "_vault",
          "type": "address"
        }
      ],
      "name": "setVault",
      "outputs": [],
      "payable": false,
      "stateMutability": "nonpayable",
      "type": "function"
    },
    {
      "constant": false,
      "inputs": [
        {
          "internalType": "address",
          "name": "_token",
          "type": "address"
        },
        {
          "internalType": "address",
          "name": "_strategy",
          "type": "address"
        }
      ],
      "name": "approveStrategy",
      "outputs": [],
      "payable": false,
      "stateMutability": "nonpayable",
      "type": "function"
    },
    {
      "constant": false,
      "inputs": [
        {
          "internalType": "address",
          "name": "_token",
          "type": "address"
        },
        {
          "internalType": "address",
          "name": "_strategy",
          "type": "address"
        }
      ],
      "name": "revokeStrategy",
      "outputs": [],
      "payable": false,
      "stateMutability": "nonpayable",
      "type": "function"
    },
    {
      "constant": false,
      "inputs": [
        {
          "internalType": "address",
          "name": "_input",
          "type": "address"
        },
        {
          "internalType": "address",
          "name": "_output",
          "type": "address"
        },
        {
          "internalType": "address",
          "name": "_converter",
          "type": "address"
        }
      ],
      "name": "setConverter",
      "outputs": [],
      "payable": false,
      "stateMutability": "nonpayable",
      "type": "function"
    },
    {
      "constant": false,
      "inputs": [
        {
          "internalType": "address",
          "name": "_token",
          "type": "address"
        },
        {
          "internalType": "address",
          "name": "_strategy",
          "type": "address"
        }
      ],
      "name": "setStrategy",
      "outputs": [],
      "payable": false,
      "stateMutability": "nonpayable",
      "type": "function"
    },
    {
      "constant": false,
      "inputs": [
        {
          "internalType": "address",
          "name": "_token",
          "type": "address"
        },
        {
          "internalType": "uint256",
          "name": "_amount",
          "type": "uint256"
        }
      ],
      "name": "earn",
      "outputs": [],
      "payable": false,
      "stateMutability": "nonpayable",
      "type": "function"
    },
    {
      "constant": true,
      "inputs": [
        {
          "internalType": "address",
          "name": "_token",
          "type": "address"
        }
      ],
      "name": "balanceOf",
      "outputs": [
        {
          "internalType": "uint256",
          "name": "",
          "type": "uint256"
        }
      ],
      "payable": false,
      "stateMutability": "view",
      "type": "function"
    },
    {
      "constant": false,
      "inputs": [
        {
          "internalType": "address",
          "name": "_token",
          "type": "address"
        }
      ],
      "name": "withdrawAll",
      "outputs": [],
      "payable": false,
      "stateMutability": "nonpayable",
      "type": "function"
    },
    {
      "constant": false,
      "inputs": [
        {
          "internalType": "address",
          "name": "_token",
          "type": "address"
        },
        {
          "internalType": "uint256",
          "name": "_amount",
          "type": "uint256"
        }
      ],
      "name": "inCaseTokensGetStuck",
      "outputs": [],
      "payable": false,
      "stateMutability": "nonpayable",
      "type": "function"
    },
    {
      "constant": false,
      "inputs": [
        {
          "internalType": "address",
          "name": "_strategy",
          "type": "address"
        },
        {
          "internalType": "address",
          "name": "_token",
          "type": "address"
        }
      ],
      "name": "inCaseStrategyTokenGetStuck",
      "outputs": [],
      "payable": false,
      "stateMutability": "nonpayable",
      "type": "function"
    },
    {
      "constant": true,
      "inputs": [
        {
          "internalType": "address",
          "name": "_strategy",
          "type": "address"
        },
        {
          "internalType": "address",
          "name": "_token",
          "type": "address"
        },
        {
          "internalType": "uint256",
          "name": "parts",
          "type": "uint256"
        }
      ],
      "name": "getExpectedReturn",
      "outputs": [
        {
          "internalType": "uint256",
          "name": "expected",
          "type": "uint256"
        }
      ],
      "payable": false,
      "stateMutability": "view",
      "type": "function"
    },
    {
      "constant": false,
      "inputs": [
        {
          "internalType": "address",
          "name": "_strategy",
          "type": "address"
        },
        {
          "internalType": "address",
          "name": "_token",
          "type": "address"
        },
        {
          "internalType": "uint256",
          "name": "parts",
          "type": "uint256"
        }
      ],
      "name": "yearn",
      "outputs": [],
      "payable": false,
      "stateMutability": "nonpayable",
      "type": "function"
    },
    {
      "constant": false,
      "inputs": [
        {
          "internalType": "address",
          "name": "_token",
          "type": "address"
        },
        {
          "internalType": "uint256",
          "name": "_amount",
          "type": "uint256"
        }
      ],
      "name": "withdraw",
      "outputs": [],
      "payable": false,
      "stateMutability": "nonpayable",
      "type": "function"
    }
  ],
  "bytecode": "0x60806040526101f460085534801561001657600080fd5b506040516121453803806121458339818101604052602081101561003957600080fd5b5051600080546001600160a01b0319908116339081179092556001805482169092179091556002805482167350fda034c0ce7a8f7efdaebda7aa7ca21cc1267e179055600380546001600160a01b03909316929091169190911790556120a1806100a46000396000f3fe608060405234801561001057600080fd5b50600436106101c45760003560e01c8063a1578b6a116100f9578063ccd0631811610097578063f3fef3a311610071578063f3fef3a314610592578063f712adbb146105be578063f7654176146105c6578063fa09e630146105ce576101c4565b8063ccd0631814610506578063e4f2494d1461053e578063ec38a8621461056c576101c4565b8063b02bf4b9116100d3578063b02bf4b91461045a578063c494448e14610486578063c6d758cb146104b4578063c7b9d530146104e0576101c4565b8063a1578b6a146103cc578063a622ee7c1461040e578063ab033ea914610434576101c4565b80636ac5db1911610166578063714ccf7b11610140578063714ccf7b1461034257806372cb5d97146103705780638da1df4d1461039e5780639ec5a894146103c4576101c4565b80636ac5db19146102cc5780636dcd64e5146102e657806370a082311461031c576101c4565b806339ebf823116101a257806339ebf82314610253578063590bbb60146102795780635aa6e675146102a7578063674e694f146102af576101c4565b806304209f48146101c9578063197baa6d146102015780631fe4a6861461022f575b600080fd5b6101ff600480360360608110156101df57600080fd5b506001600160a01b038135811691602081013590911690604001356105f4565b005b6101ff6004803603604081101561021757600080fd5b506001600160a01b0381358116916020013516610c3f565b610237610d15565b604080516001600160a01b039092168252519081900360200190f35b6102376004803603602081101561026957600080fd5b50356001600160a01b0316610d24565b6101ff6004803603604081101561028f57600080fd5b506001600160a01b0381358116916020013516610d3f565b610237610dbd565b6101ff600480360360208110156102c557600080fd5b5035610dcc565b6102d4610e1e565b60408051918252519081900360200190f35b6102d4600480360360608110156102fc57600080fd5b506001600160a01b03813581169160208101359091169060400135610e24565b6102d46004803603602081101561033257600080fd5b50356001600160a01b0316611064565b6101ff6004803603604081101561035857600080fd5b506001600160a01b03813581169160200135166110e8565b6101ff6004803603604081101561038657600080fd5b506001600160a01b03813581169160200135166111cd565b6101ff600480360360208110156103b457600080fd5b50356001600160a01b0316611352565b6102376113c1565b6103fa600480360360408110156103e257600080fd5b506001600160a01b03813581169160200135166113d0565b604080519115158252519081900360200190f35b6102376004803603602081101561042457600080fd5b50356001600160a01b03166113f0565b6101ff6004803603602081101561044a57600080fd5b50356001600160a01b031661140b565b6101ff6004803603604081101561047057600080fd5b506001600160a01b03813516906020013561147a565b6101ff6004803603604081101561049c57600080fd5b506001600160a01b0381358116916020013516611661565b6101ff600480360360408110156104ca57600080fd5b506001600160a01b0381351690602001356116e2565b6101ff600480360360208110156104f657600080fd5b50356001600160a01b0316611762565b6101ff6004803603606081101561051c57600080fd5b506001600160a01b0381358116916020810135821691604090910135166117d1565b6102376004803603604081101561055457600080fd5b506001600160a01b0381358116916020013516611870565b6101ff6004803603602081101561058257600080fd5b50356001600160a01b0316611896565b6101ff600480360360408110156105a857600080fd5b506001600160a01b038135169060200135611905565b6102376119b3565b6102d46119c2565b6101ff600480360360208110156105e457600080fd5b50356001600160a01b03166119c8565b6001546001600160a01b031633148061061757506000546001600160a01b031633145b610656576040805162461bcd60e51b815260206004820152600b60248201526a21676f7665726e616e636560a81b604482015290519081900360640190fd5b604080516370a0823160e01b815230600482015290516000916001600160a01b038516916370a0823191602480820192602092909190829003018186803b1580156106a057600080fd5b505afa1580156106b4573d6000803e3d6000fd5b505050506040513d60208110156106ca57600080fd5b5051604080516351cff8d960e01b81526001600160a01b0386811660048301529151929350908616916351cff8d99160248082019260009290919082900301818387803b15801561071a57600080fd5b505af115801561072e573d6000803e3d6000fd5b5050604080516370a0823160e01b81523060048201529051600093506001600160a01b03871692506370a0823191602480820192602092909190829003018186803b15801561077c57600080fd5b505afa158015610790573d6000803e3d6000fd5b505050506040513d60208110156107a657600080fd5b5051905081811115610c385760006107c4828463ffffffff611aaa16565b90506000866001600160a01b0316631f1fcd516040518163ffffffff1660e01b815260040160206040518083038186803b15801561080157600080fd5b505afa158015610815573d6000803e3d6000fd5b505050506040513d602081101561082b57600080fd5b5051604080516370a0823160e01b815230600482015290519192506060916000916001600160a01b038516916370a0823191602480820192602092909190829003018186803b15801561087d57600080fd5b505afa158015610891573d6000803e3d6000fd5b505050506040513d60208110156108a757600080fd5b50516002549096506108cd906001600160a01b038a81169116600063ffffffff611af516565b6002546108ed906001600160a01b038a811691168663ffffffff611af516565b6002546040805163085e2c5b60e01b81526001600160a01b038b81166004830152868116602483015260448201889052606482018b9052600060848301819052925193169263085e2c5b9260a480840193919291829003018186803b15801561095557600080fd5b505afa158015610969573d6000803e3d6000fd5b505050506040513d6000823e601f3d908101601f19168201604090815281101561099257600080fd5b8151602083018051604051929492938301929190846401000000008211156109b957600080fd5b9083019060208201858111156109ce57600080fd5b82518660208202830111640100000000821117156109eb57600080fd5b82525081516020918201928201910280838360005b83811015610a18578181015183820152602001610a00565b505050509050016040525050508093508192505050600260009054906101000a90046001600160a01b03166001600160a01b031663e2a7515e898587858760006040518763ffffffff1660e01b815260040180876001600160a01b03166001600160a01b03168152602001866001600160a01b03166001600160a01b0316815260200185815260200184815260200180602001838152602001828103825284818151815260200191508051906020019060200280838360005b83811015610ae9578181015183820152602001610ad1565b50505050905001975050505050505050602060405180830381600087803b158015610b1357600080fd5b505af1158015610b27573d6000803e3d6000fd5b505050506040513d6020811015610b3d57600080fd5b5050604080516370a0823160e01b815230600482015290516001600160a01b038516916370a08231916024808301926020929190829003018186803b158015610b8557600080fd5b505afa158015610b99573d6000803e3d6000fd5b505050506040513d6020811015610baf57600080fd5b5051945085851115610c3357610bcb858763ffffffff611aaa16565b93506000610bf6612710610bea60085488611c0890919063ffffffff16565b9063ffffffff611c6116565b9050610c1184610c0c878463ffffffff611aaa16565b61147a565b600354610c31906001600160a01b0386811691168363ffffffff611ca316565b505b505050505b5050505050565b6001546001600160a01b0316331480610c6257506000546001600160a01b031633145b610ca1576040805162461bcd60e51b815260206004820152600b60248201526a21676f7665726e616e636560a81b604482015290519081900360640190fd5b816001600160a01b03166351cff8d9826040518263ffffffff1660e01b815260040180826001600160a01b03166001600160a01b03168152602001915050600060405180830381600087803b158015610cf957600080fd5b505af1158015610d0d573d6000803e3d6000fd5b505050505050565b6001546001600160a01b031681565b6005602052600090815260409020546001600160a01b031681565b6000546001600160a01b03163314610d8c576040805162461bcd60e51b815260206004820152600b60248201526a21676f7665726e616e636560a81b604482015290519081900360640190fd5b6001600160a01b0391821660009081526007602090815260408083209390941682529190915220805460ff19169055565b6000546001600160a01b031681565b6000546001600160a01b03163314610e19576040805162461bcd60e51b815260206004820152600b60248201526a21676f7665726e616e636560a81b604482015290519081900360640190fd5b600855565b61271081565b600080836001600160a01b03166370a08231866040518263ffffffff1660e01b815260040180826001600160a01b03166001600160a01b0316815260200191505060206040518083038186803b158015610e7d57600080fd5b505afa158015610e91573d6000803e3d6000fd5b505050506040513d6020811015610ea757600080fd5b505160408051631f1fcd5160e01b815290519192506000916001600160a01b03881691631f1fcd51916004808301926020929190829003018186803b158015610eef57600080fd5b505afa158015610f03573d6000803e3d6000fd5b505050506040513d6020811015610f1957600080fd5b50516002546040805163085e2c5b60e01b81526001600160a01b0389811660048301528085166024830152604482018790526064820189905260006084830181905292519495509092169263085e2c5b9260a4808201939291829003018186803b158015610f8657600080fd5b505afa158015610f9a573d6000803e3d6000fd5b505050506040513d6000823e601f3d908101601f191682016040908152811015610fc357600080fd5b815160208301805160405192949293830192919084640100000000821115610fea57600080fd5b908301906020820185811115610fff57600080fd5b825186602082028301116401000000008211171561101c57600080fd5b82525081516020918201928201910280838360005b83811015611049578181015183820152602001611031565b50505050905001604052505050508093505050509392505050565b6001600160a01b03808216600090815260056020908152604080832054815163722713f760e01b815291519394169263722713f792600480840193919291829003018186803b1580156110b657600080fd5b505afa1580156110ca573d6000803e3d6000fd5b505050506040513d60208110156110e057600080fd5b505192915050565b6001546001600160a01b031633148061110b57506000546001600160a01b031633145b61114a576040805162461bcd60e51b815260206004820152600b60248201526a085cdd1c985d1959da5cdd60aa1b604482015290519081900360640190fd5b6001600160a01b03828116600090815260046020526040902054161561119f576040805162461bcd60e51b81526020600482015260056024820152641d985d5b1d60da1b604482015290519081900360640190fd5b6001600160a01b03918216600090815260046020526040902080546001600160a01b03191691909216179055565b6001546001600160a01b03163314806111f057506000546001600160a01b031633145b61122f576040805162461bcd60e51b815260206004820152600b60248201526a085cdd1c985d1959da5cdd60aa1b604482015290519081900360640190fd5b6001600160a01b0380831660009081526007602090815260408083209385168352929052205460ff16151560011461129a576040805162461bcd60e51b815260206004820152600960248201526808585c1c1c9bdd995960ba1b604482015290519081900360640190fd5b6001600160a01b0380831660009081526005602052604090205416801561132357806001600160a01b031663853828b66040518163ffffffff1660e01b8152600401602060405180830381600087803b1580156112f657600080fd5b505af115801561130a573d6000803e3d6000fd5b505050506040513d602081101561132057600080fd5b50505b506001600160a01b03918216600090815260056020526040902080546001600160a01b03191691909216179055565b6000546001600160a01b0316331461139f576040805162461bcd60e51b815260206004820152600b60248201526a21676f7665726e616e636560a81b604482015290519081900360640190fd5b600280546001600160a01b0319166001600160a01b0392909216919091179055565b6003546001600160a01b031681565b600760209081526000928352604080842090915290825290205460ff1681565b6004602052600090815260409020546001600160a01b031681565b6000546001600160a01b03163314611458576040805162461bcd60e51b815260206004820152600b60248201526a21676f7665726e616e636560a81b604482015290519081900360640190fd5b600080546001600160a01b0319166001600160a01b0392909216919091179055565b6001600160a01b038083166000908152600560209081526040808320548151631f1fcd5160e01b815291519416938492631f1fcd519260048082019391829003018186803b1580156114cb57600080fd5b505afa1580156114df573d6000803e3d6000fd5b505050506040513d60208110156114f557600080fd5b505190506001600160a01b03808216908516146115ee576001600160a01b03808516600081815260066020908152604080832086861684529091529020549091169061154890828663ffffffff611ca316565b806001600160a01b031663def2489b846040518263ffffffff1660e01b815260040180826001600160a01b03166001600160a01b03168152602001915050602060405180830381600087803b1580156115a057600080fd5b505af11580156115b4573d6000803e3d6000fd5b505050506040513d60208110156115ca57600080fd5b505193506115e86001600160a01b038316848663ffffffff611ca316565b50611608565b6116086001600160a01b038516838563ffffffff611ca316565b816001600160a01b031663d0e30db06040518163ffffffff1660e01b8152600401600060405180830381600087803b15801561164357600080fd5b505af1158015611657573d6000803e3d6000fd5b5050505050505050565b6000546001600160a01b031633146116ae576040805162461bcd60e51b815260206004820152600b60248201526a21676f7665726e616e636560a81b604482015290519081900360640190fd5b6001600160a01b0391821660009081526007602090815260408083209390941682529190915220805460ff19166001179055565b6001546001600160a01b031633148061170557506000546001600160a01b031633145b611744576040805162461bcd60e51b815260206004820152600b60248201526a21676f7665726e616e636560a81b604482015290519081900360640190fd5b61175e6001600160a01b038316338363ffffffff611ca316565b5050565b6000546001600160a01b031633146117af576040805162461bcd60e51b815260206004820152600b60248201526a21676f7665726e616e636560a81b604482015290519081900360640190fd5b600180546001600160a01b0319166001600160a01b0392909216919091179055565b6001546001600160a01b03163314806117f457506000546001600160a01b031633145b611833576040805162461bcd60e51b815260206004820152600b60248201526a085cdd1c985d1959da5cdd60aa1b604482015290519081900360640190fd5b6001600160a01b03928316600090815260066020908152604080832094861683529390529190912080546001600160a01b03191691909216179055565b60066020908152600092835260408084209091529082529020546001600160a01b031681565b6000546001600160a01b031633146118e3576040805162461bcd60e51b815260206004820152600b60248201526a21676f7665726e616e636560a81b604482015290519081900360640190fd5b600380546001600160a01b0319166001600160a01b0392909216919091179055565b6001600160a01b0382811660009081526004602052604090205416331461195c576040805162461bcd60e51b8152602060048201526006602482015265085d985d5b1d60d21b604482015290519081900360640190fd5b6001600160a01b03808316600090815260056020526040808220548151632e1a7d4d60e01b8152600481018690529151931692632e1a7d4d9260248084019391929182900301818387803b158015610cf957600080fd5b6002546001600160a01b031681565b60085481565b6001546001600160a01b03163314806119eb57506000546001600160a01b031633145b611a2a576040805162461bcd60e51b815260206004820152600b60248201526a085cdd1c985d1959da5cdd60aa1b604482015290519081900360640190fd5b6001600160a01b03808216600090815260056020908152604080832054815163429c145b60e11b8152915194169363853828b693600480840194938390030190829087803b158015611a7b57600080fd5b505af1158015611a8f573d6000803e3d6000fd5b505050506040513d6020811015611aa557600080fd5b505050565b6000611aec83836040518060400160405280601e81526020017f536166654d6174683a207375627472616374696f6e206f766572666c6f770000815250611cf5565b90505b92915050565b801580611b7b575060408051636eb1769f60e11b81523060048201526001600160a01b03848116602483015291519185169163dd62ed3e91604480820192602092909190829003018186803b158015611b4d57600080fd5b505afa158015611b61573d6000803e3d6000fd5b505050506040513d6020811015611b7757600080fd5b5051155b611bb65760405162461bcd60e51b81526004018080602001828103825260368152602001806120376036913960400191505060405180910390fd5b604080516001600160a01b038416602482015260448082018490528251808303909101815260649091019091526020810180516001600160e01b031663095ea7b360e01b179052611aa5908490611d8c565b600082611c1757506000611aef565b82820282848281611c2457fe5b0414611aec5760405162461bcd60e51b8152600401808060200182810382526021815260200180611fec6021913960400191505060405180910390fd5b6000611aec83836040518060400160405280601a81526020017f536166654d6174683a206469766973696f6e206279207a65726f000000000000815250611f4a565b604080516001600160a01b038416602482015260448082018490528251808303909101815260649091019091526020810180516001600160e01b031663a9059cbb60e01b179052611aa5908490611d8c565b60008184841115611d845760405162461bcd60e51b81526004018080602001828103825283818151815260200191508051906020019080838360005b83811015611d49578181015183820152602001611d31565b50505050905090810190601f168015611d765780820380516001836020036101000a031916815260200191505b509250505060405180910390fd5b505050900390565b611d9e826001600160a01b0316611faf565b611def576040805162461bcd60e51b815260206004820152601f60248201527f5361666545524332303a2063616c6c20746f206e6f6e2d636f6e747261637400604482015290519081900360640190fd5b60006060836001600160a01b0316836040518082805190602001908083835b60208310611e2d5780518252601f199092019160209182019101611e0e565b6001836020036101000a0380198251168184511680821785525050505050509050019150506000604051808303816000865af19150503d8060008114611e8f576040519150601f19603f3d011682016040523d82523d6000602084013e611e94565b606091505b509150915081611eeb576040805162461bcd60e51b815260206004820181905260248201527f5361666545524332303a206c6f772d6c6576656c2063616c6c206661696c6564604482015290519081900360640190fd5b805115611f4457808060200190516020811015611f0757600080fd5b5051611f445760405162461bcd60e51b815260040180806020018281038252602a81526020018061200d602a913960400191505060405180910390fd5b50505050565b60008183611f995760405162461bcd60e51b8152602060048201818152835160248401528351909283926044909101919085019080838360008315611d49578181015183820152602001611d31565b506000838581611fa557fe5b0495945050505050565b6000813f7fc5d2460186f7233c927e7db2dcc703c0e500b653ca82273b7bfad8045d85a470818114801590611fe357508115155b94935050505056fe536166654d6174683a206d756c7469706c69636174696f6e206f766572666c6f775361666545524332303a204552433230206f7065726174696f6e20646964206e6f7420737563636565645361666545524332303a20617070726f76652066726f6d206e6f6e2d7a65726f20746f206e6f6e2d7a65726f20616c6c6f77616e6365a265627a7a72315820dd98e0d03658932440195143a1855a36b8853e34493708f6f8c3999dcbfd7d8564736f6c63430005110032",
  "source": "// SPDX-License-Identifier: MIT\n\npragma solidity ^0.5.17;\n\nimport \"@openzeppelinV2/contracts/token/ERC20/IERC20.sol\";\nimport \"@openzeppelinV2/contracts/math/SafeMath.sol\";\nimport \"@openzeppelinV2/contracts/utils/Address.sol\";\nimport \"@openzeppelinV2/contracts/token/ERC20/SafeERC20.sol\";\n\nimport \"../../interfaces/yearn/IConverter.sol\";\nimport \"../../interfaces/yearn/IOneSplitAudit.sol\";\nimport \"../../interfaces/yearn/IStrategy.sol\";\n\ncontract Controller {\n    using SafeERC20 for IERC20;\n    using Address for address;\n    using SafeMath for uint256;\n\n    address public governance;\n    address public strategist;\n\n    address public onesplit;\n    address public rewards;\n    mapping(address => address) public vaults;\n    mapping(address => address) public strategies;\n    mapping(address => mapping(address => address)) public converters;\n\n    mapping(address => mapping(address => bool)) public approvedStrategies;\n\n    uint256 public split = 500;\n    uint256 public constant max = 10000;\n\n    constructor(address _rewards) public {\n        governance = msg.sender;\n        strategist = msg.sender;\n        onesplit = address(0x50FDA034C0Ce7a8f7EFDAebDA7Aa7cA21CC1267e);\n        rewards = _rewards;\n    }\n\n    function setRewards(address _rewards) public {\n        require(msg.sender == governance, \"!governance\");\n        rewards = _rewards;\n    }\n\n    function setStrategist(address _strategist) public {\n        require(msg.sender == governance, \"!governance\");\n        strategist = _strategist;\n    }\n\n    function setSplit(uint256 _split) public {\n        require(msg.sender == governance, \"!governance\");\n        split = _split;\n    }\n\n    function setOneSplit(address _onesplit) public {\n        require(msg.sender == governance, \"!governance\");\n        onesplit = _onesplit;\n    }\n\n    function setGovernance(address _governance) public {\n        require(msg.sender == governance, \"!governance\");\n        governance = _governance;\n    }\n\n    function setVault(address _token, address _vault) public {\n        require(msg.sender == strategist || msg.sender == governance, \"!strategist\");\n        require(vaults[_token] == address(0), \"vault\");\n        vaults[_token] = _vault;\n    }\n\n    function approveStrategy(address _token, address _strategy) public {\n        require(msg.sender == governance, \"!governance\");\n        approvedStrategies[_token][_strategy] = true;\n    }\n\n    function revokeStrategy(address _token, address _strategy) public {\n        require(msg.sender == governance, \"!governance\");\n        approvedStrategies[_token][_strategy] = false;\n    }\n\n    function setConverter(\n        address _input,\n        address _output,\n        address _converter\n    ) public {\n        require(msg.sender == strategist || msg.sender == governance, \"!strategist\");\n        converters[_input][_output] = _converter;\n    }\n\n    function setStrategy(address _token, address _strategy) public {\n        require(msg.sender == strategist || msg.sender == governance, \"!strategist\");\n        require(approvedStrategies[_token][_strategy] == true, \"!approved\");\n\n        address _current = strategies[_token];\n        if (_current != address(0)) {\n            IStrategy(_current).withdrawAll();\n        }\n        strategies[_token] = _strategy;\n    }\n\n    function earn(address _token, uint256 _amount) public {\n        address _strategy = strategies[_token];\n        address _want = IStrategy(_strategy).want();\n        if (_want != _token) {\n            address converter = converters[_token][_want];\n            IERC20(_token).safeTransfer(converter, _amount);\n            _amount = IConverter(converter).convert(_strategy);\n            IERC20(_want).safeTransfer(_strategy, _amount);\n        } else {\n            IERC20(_token).safeTransfer(_strategy, _amount);\n        }\n        IStrategy(_strategy).deposit();\n    }\n\n    function balanceOf(address _token) external view returns (uint256) {\n        return IStrategy(strategies[_token]).balanceOf();\n    }\n\n    function withdrawAll(address _token) public {\n        require(msg.sender == strategist || msg.sender == governance, \"!strategist\");\n        IStrategy(strategies[_token]).withdrawAll();\n    }\n\n    function inCaseTokensGetStuck(address _token, uint256 _amount) public {\n        require(msg.sender == strategist || msg.sender == governance, \"!governance\");\n        IERC20(_token).safeTransfer(msg.sender, _amount);\n    }\n\n    function inCaseStrategyTokenGetStuck(address _strategy, address _token) public {\n        require(msg.sender == strategist || msg.sender == governance, \"!governance\");\n        IStrategy(_strategy).withdraw(_token);\n    }\n\n    function getExpectedReturn(\n        address _strategy,\n        address _token,\n        uint256 parts\n    ) public view returns (uint256 expected) {\n        uint256 _balance = IERC20(_token).balanceOf(_strategy);\n        address _want = IStrategy(_strategy).want();\n        (expected, ) = IOneSplitAudit(onesplit).getExpectedReturn(_token, _want, _balance, parts, 0);\n    }\n\n    // Only allows to withdraw non-core strategy tokens ~ this is over and above normal yield\n    function yearn(\n        address _strategy,\n        address _token,\n        uint256 parts\n    ) public {\n        require(msg.sender == strategist || msg.sender == governance, \"!governance\");\n        // This contract should never have value in it, but just incase since this is a public call\n        uint256 _before = IERC20(_token).balanceOf(address(this));\n        IStrategy(_strategy).withdraw(_token);\n        uint256 _after = IERC20(_token).balanceOf(address(this));\n        if (_after > _before) {\n            uint256 _amount = _after.sub(_before);\n            address _want = IStrategy(_strategy).want();\n            uint256[] memory _distribution;\n            uint256 _expected;\n            _before = IERC20(_want).balanceOf(address(this));\n            IERC20(_token).safeApprove(onesplit, 0);\n            IERC20(_token).safeApprove(onesplit, _amount);\n            (_expected, _distribution) = IOneSplitAudit(onesplit).getExpectedReturn(_token, _want, _amount, parts, 0);\n            IOneSplitAudit(onesplit).swap(_token, _want, _amount, _expected, _distribution, 0);\n            _after = IERC20(_want).balanceOf(address(this));\n            if (_after > _before) {\n                _amount = _after.sub(_before);\n                uint256 _reward = _amount.mul(split).div(max);\n                earn(_want, _amount.sub(_reward));\n                IERC20(_want).safeTransfer(rewards, _reward);\n            }\n        }\n    }\n\n    function withdraw(address _token, uint256 _amount) public {\n        require(msg.sender == vaults[_token], \"!vault\");\n        IStrategy(strategies[_token]).withdraw(_amount);\n    }\n}\n",
  "sourcePath": "/Users/sbacha/V2yearn/contracts/controllers/Controller.sol",
  "compiler": {
    "name": "solc",
    "version": "0.5.17+commit.d19bba13.Emscripten.clang"
  },
  "schemaVersion": "3.1.0",
  "updatedAt": "2020-11-01T01:33:12.722Z",
  "devdoc": {
    "methods": {}
  },
  "userdoc": {
    "methods": {}
  }
}