{
    "contractName": "DelegatedController",
    "abi": [
        {
            "inputs": [
                {
                    "internalType": "address",
                    "name": "_rewards",
                    "type": "address"
                }
            ],
            "payable": false,
            "stateMutability": "nonpayable",
            "type": "constructor"
        },
        {
            "constant": true,
            "inputs": [
                {
                    "internalType": "address",
                    "name": "",
                    "type": "address"
                },
                {
                    "internalType": "address",
                    "name": "",
                    "type": "address"
                }
            ],
            "name": "converters",
            "outputs": [
                {
                    "internalType": "address",
                    "name": "",
                    "type": "address"
                }
            ],
            "payable": false,
            "stateMutability": "view",
            "type": "function"
        },
        {
            "constant": true,
            "inputs": [],
            "name": "governance",
            "outputs": [
                {
                    "internalType": "address",
                    "name": "",
                    "type": "address"
                }
            ],
            "payable": false,
            "stateMutability": "view",
            "type": "function"
        },
        {
            "constant": true,
            "inputs": [
                {
                    "internalType": "address",
                    "name": "",
                    "type": "address"
                }
            ],
            "name": "isStrategy",
            "outputs": [
                {
                    "internalType": "bool",
                    "name": "",
                    "type": "bool"
                }
            ],
            "payable": false,
            "stateMutability": "view",
            "type": "function"
        },
        {
            "constant": true,
            "inputs": [
                {
                    "internalType": "address",
                    "name": "",
                    "type": "address"
                }
            ],
            "name": "isVault",
            "outputs": [
                {
                    "internalType": "bool",
                    "name": "",
                    "type": "bool"
                }
            ],
            "payable": false,
            "stateMutability": "view",
            "type": "function"
        },
        {
            "constant": true,
            "inputs": [],
            "name": "max",
            "outputs": [
                {
                    "internalType": "uint256",
                    "name": "",
                    "type": "uint256"
                }
            ],
            "payable": false,
            "stateMutability": "view",
            "type": "function"
        },
        {
            "constant": true,
            "inputs": [],
            "name": "onesplit",
            "outputs": [
                {
                    "internalType": "address",
                    "name": "",
                    "type": "address"
                }
            ],
            "payable": false,
            "stateMutability": "view",
            "type": "function"
        },
        {
            "constant": true,
            "inputs": [],
            "name": "rewards",
            "outputs": [
                {
                    "internalType": "address",
                    "name": "",
                    "type": "address"
                }
            ],
            "payable": false,
            "stateMutability": "view",
            "type": "function"
        },
        {
            "constant": true,
            "inputs": [],
            "name": "split",
            "outputs": [
                {
                    "internalType": "uint256",
                    "name": "",
                    "type": "uint256"
                }
            ],
            "payable": false,
            "stateMutability": "view",
            "type": "function"
        },
        {
            "constant": true,
            "inputs": [
                {
                    "internalType": "address",
                    "name": "",
                    "type": "address"
                }
            ],
            "name": "strategies",
            "outputs": [
                {
                    "internalType": "address",
                    "name": "",
                    "type": "address"
                }
            ],
            "payable": false,
            "stateMutability": "view",
            "type": "function"
        },
        {
            "constant": true,
            "inputs": [
                {
                    "internalType": "address",
                    "name": "",
                    "type": "address"
                }
            ],
            "name": "vaults",
            "outputs": [
                {
                    "internalType": "address",
                    "name": "",
                    "type": "address"
                }
            ],
            "payable": false,
            "stateMutability": "view",
            "type": "function"
        },
        {
            "constant": false,
            "inputs": [
                {
                    "internalType": "uint256",
                    "name": "_split",
                    "type": "uint256"
                }
            ],
            "name": "setSplit",
            "outputs": [],
            "payable": false,
            "stateMutability": "nonpayable",
            "type": "function"
        },
        {
            "constant": false,
            "inputs": [
                {
                    "internalType": "address",
                    "name": "_onesplit",
                    "type": "address"
                }
            ],
            "name": "setOneSplit",
            "outputs": [],
            "payable": false,
            "stateMutability": "nonpayable",
            "type": "function"
        },
        {
            "constant": false,
            "inputs": [
                {
                    "internalType": "address",
                    "name": "_governance",
                    "type": "address"
                }
            ],
            "name": "setGovernance",
            "outputs": [],
            "payable": false,
            "stateMutability": "nonpayable",
            "type": "function"
        },
        {
            "constant": false,
            "inputs": [
                {
                    "internalType": "address",
                    "name": "_input",
                    "type": "address"
                },
                {
                    "internalType": "address",
                    "name": "_output",
                    "type": "address"
                },
                {
                    "internalType": "address",
                    "name": "_converter",
                    "type": "address"
                }
            ],
            "name": "setConverter",
            "outputs": [],
            "payable": false,
            "stateMutability": "nonpayable",
            "type": "function"
        },
        {
            "constant": false,
            "inputs": [
                {
                    "internalType": "address",
                    "name": "_vault",
                    "type": "address"
                },
                {
                    "internalType": "address",
                    "name": "_strategy",
                    "type": "address"
                }
            ],
            "name": "setStrategy",
            "outputs": [],
            "payable": false,
            "stateMutability": "nonpayable",
            "type": "function"
        },
        {
            "constant": true,
            "inputs": [
                {
                    "internalType": "address",
                    "name": "_vault",
                    "type": "address"
                }
            ],
            "name": "want",
            "outputs": [
                {
                    "internalType": "address",
                    "name": "",
                    "type": "address"
                }
            ],
            "payable": false,
            "stateMutability": "view",
            "type": "function"
        },
        {
            "constant": false,
            "inputs": [
                {
                    "internalType": "address",
                    "name": "_vault",
                    "type": "address"
                },
                {
                    "internalType": "uint256",
                    "name": "_amount",
                    "type": "uint256"
                }
            ],
            "name": "earn",
            "outputs": [],
            "payable": false,
            "stateMutability": "nonpayable",
            "type": "function"
        },
        {
            "constant": true,
            "inputs": [
                {
                    "internalType": "address",
                    "name": "_vault",
                    "type": "address"
                }
            ],
            "name": "balanceOf",
            "outputs": [
                {
                    "internalType": "uint256",
                    "name": "",
                    "type": "uint256"
                }
            ],
            "payable": false,
            "stateMutability": "view",
            "type": "function"
        },
        {
            "constant": false,
            "inputs": [
                {
                    "internalType": "address",
                    "name": "_strategy",
                    "type": "address"
                }
            ],
            "name": "withdrawAll",
            "outputs": [],
            "payable": false,
            "stateMutability": "nonpayable",
            "type": "function"
        },
        {
            "constant": false,
            "inputs": [
                {
                    "internalType": "address",
                    "name": "_token",
                    "type": "address"
                },
                {
                    "internalType": "uint256",
                    "name": "_amount",
                    "type": "uint256"
                }
            ],
            "name": "inCaseTokensGetStuck",
            "outputs": [],
            "payable": false,
            "stateMutability": "nonpayable",
            "type": "function"
        },
        {
            "constant": false,
            "inputs": [
                {
                    "internalType": "address",
                    "name": "_strategy",
                    "type": "address"
                },
                {
                    "internalType": "address",
                    "name": "_token",
                    "type": "address"
                }
            ],
            "name": "inCaseStrategyGetStruck",
            "outputs": [],
            "payable": false,
            "stateMutability": "nonpayable",
            "type": "function"
        },
        {
            "constant": true,
            "inputs": [
                {
                    "internalType": "address",
                    "name": "_strategy",
                    "type": "address"
                },
                {
                    "internalType": "address",
                    "name": "_token",
                    "type": "address"
                },
                {
                    "internalType": "uint256",
                    "name": "parts",
                    "type": "uint256"
                }
            ],
            "name": "getExpectedReturn",
            "outputs": [
                {
                    "internalType": "uint256",
                    "name": "expected",
                    "type": "uint256"
                }
            ],
            "payable": false,
            "stateMutability": "view",
            "type": "function"
        },
        {
            "constant": false,
            "inputs": [
                {
                    "internalType": "address",
                    "name": "_vault",
                    "type": "address"
                }
            ],
            "name": "claimInsurance",
            "outputs": [],
            "payable": false,
            "stateMutability": "nonpayable",
            "type": "function"
        },
        {
            "constant": false,
            "inputs": [
                {
                    "internalType": "address",
                    "name": "_strategy",
                    "type": "address"
                },
                {
                    "internalType": "uint256",
                    "name": "parts",
                    "type": "uint256"
                }
            ],
            "name": "delegatedHarvest",
            "outputs": [],
            "payable": false,
            "stateMutability": "nonpayable",
            "type": "function"
        },
        {
            "constant": false,
            "inputs": [
                {
                    "internalType": "address",
                    "name": "_strategy",
                    "type": "address"
                },
                {
                    "internalType": "address",
                    "name": "_token",
                    "type": "address"
                },
                {
                    "internalType": "uint256",
                    "name": "parts",
                    "type": "uint256"
                }
            ],
            "name": "harvest",
            "outputs": [],
            "payable": false,
            "stateMutability": "nonpayable",
            "type": "function"
        },
        {
            "constant": false,
            "inputs": [
                {
                    "internalType": "address",
                    "name": "_vault",
                    "type": "address"
                },
                {
                    "internalType": "uint256",
                    "name": "_amount",
                    "type": "uint256"
                }
            ],
            "name": "withdraw",
            "outputs": [],
            "payable": false,
            "stateMutability": "nonpayable",
            "type": "function"
        }
    ],
    "bytecode": "0x60806040526101f460085534801561001657600080fd5b506040516123e93803806123e98339818101604052602081101561003957600080fd5b5051600080546001600160a01b031990811633179091556001805482167350fda034c0ce7a8f7efdaebda7aa7ca21cc1267e179055600280546001600160a01b0390931692909116919091179055612353806100966000396000f3fe608060405234801561001057600080fd5b506004361061018e5760003560e01c8063a622ee7c116100de578063ccd0631811610097578063f3fef3a311610071578063f3fef3a314610514578063f712adbb14610540578063f765417614610548578063fa09e630146105505761018e565b8063ccd0631814610482578063d0004c05146104ba578063e4f2494d146104e65761018e565b8063a622ee7c1461037a578063ab033ea9146103a0578063b02bf4b9146103c6578063b2a60456146103f2578063c2ceb95f14610420578063c6d758cb146104565761018e565b80636ac5db191161014b57806372cb5d971161012557806372cb5d97146102f857806375724589146103265780638da1df4d1461034c5780639ec5a894146103725761018e565b80636ac5db19146102825780636dcd64e51461029c57806370a08231146102d25761018e565b80631239c271146101935780632e8ebaae146101bb57806339ebf823146101f55780635aa6e67514610237578063652b9b411461023f578063674e694f14610265575b600080fd5b6101b9600480360360208110156101a957600080fd5b50356001600160a01b0316610576565b005b6101e1600480360360208110156101d157600080fd5b50356001600160a01b0316610619565b604080519115158252519081900360200190f35b61021b6004803603602081101561020b57600080fd5b50356001600160a01b031661062e565b604080516001600160a01b039092168252519081900360200190f35b61021b610649565b6101e16004803603602081101561025557600080fd5b50356001600160a01b0316610658565b6101b96004803603602081101561027b57600080fd5b503561066d565b61028a6106bf565b60408051918252519081900360200190f35b61028a600480360360608110156102b257600080fd5b506001600160a01b038135811691602081013590911690604001356106c5565b61028a600480360360208110156102e857600080fd5b50356001600160a01b0316610905565b6101b96004803603604081101561030e57600080fd5b506001600160a01b0381358116916020013516610985565b61021b6004803603602081101561033c57600080fd5b50356001600160a01b0316610acf565b6101b96004803603602081101561036257600080fd5b50356001600160a01b0316610b1d565b61021b610b8c565b61021b6004803603602081101561039057600080fd5b50356001600160a01b0316610b9b565b6101b9600480360360208110156103b657600080fd5b50356001600160a01b0316610bb6565b6101b9600480360360408110156103dc57600080fd5b506001600160a01b038135169060200135610c25565b6101b96004803603604081101561040857600080fd5b506001600160a01b0381358116916020013516610d18565b6101b96004803603606081101561043657600080fd5b506001600160a01b03813581169160208101359091169060400135610e6f565b6101b96004803603604081101561046c57600080fd5b506001600160a01b038135169060200135611457565b6101b96004803603606081101561049857600080fd5b506001600160a01b0381358116916020810135821691604090910135166114c4565b6101b9600480360360408110156104d057600080fd5b506001600160a01b03813516906020013561154e565b61021b600480360360408110156104fc57600080fd5b506001600160a01b0381358116916020013516611ba4565b6101b96004803603604081101561052a57600080fd5b506001600160a01b038135169060200135611bca565b61021b611c90565b61028a611c9f565b6101b96004803603602081101561056657600080fd5b50356001600160a01b0316611ca5565b6000546001600160a01b031633146105c3576040805162461bcd60e51b815260206004820152600b60248201526a21676f7665726e616e636560a81b604482015290519081900360640190fd5b806001600160a01b031663a75ac6086040518163ffffffff1660e01b8152600401600060405180830381600087803b1580156105fe57600080fd5b505af1158015610612573d6000803e3d6000fd5b5050505050565b60076020526000908152604090205460ff1681565b6004602052600090815260409020546001600160a01b031681565b6000546001600160a01b031681565b60066020526000908152604090205460ff1681565b6000546001600160a01b031633146106ba576040805162461bcd60e51b815260206004820152600b60248201526a21676f7665726e616e636560a81b604482015290519081900360640190fd5b600855565b61271081565b600080836001600160a01b03166370a08231866040518263ffffffff1660e01b815260040180826001600160a01b03166001600160a01b0316815260200191505060206040518083038186803b15801561071e57600080fd5b505afa158015610732573d6000803e3d6000fd5b505050506040513d602081101561074857600080fd5b505160408051631f1fcd5160e01b815290519192506000916001600160a01b03881691631f1fcd51916004808301926020929190829003018186803b15801561079057600080fd5b505afa1580156107a4573d6000803e3d6000fd5b505050506040513d60208110156107ba57600080fd5b50516001546040805163085e2c5b60e01b81526001600160a01b0389811660048301528085166024830152604482018790526064820189905260006084830181905292519495509092169263085e2c5b9260a4808201939291829003018186803b15801561082757600080fd5b505afa15801561083b573d6000803e3d6000fd5b505050506040513d6000823e601f3d908101601f19168201604090815281101561086457600080fd5b81516020830180516040519294929383019291908464010000000082111561088b57600080fd5b9083019060208201858111156108a057600080fd5b82518660208202830111640100000000821117156108bd57600080fd5b82525081516020918201928201910280838360005b838110156108ea5781810151838201526020016108d2565b50505050905001604052505050508093505050509392505050565b6001600160a01b03808216600090815260046020818152604080842054815163722713f760e01b815291519495169363722713f7938281019392829003018186803b15801561095357600080fd5b505afa158015610967573d6000803e3d6000fd5b505050506040513d602081101561097d57600080fd5b505192915050565b6000546001600160a01b031633146109d2576040805162461bcd60e51b815260206004820152600b60248201526a21676f7665726e616e636560a81b604482015290519081900360640190fd5b6001600160a01b03808316600090815260046020526040902054168015610a5b57806001600160a01b031663853828b66040518163ffffffff1660e01b8152600401602060405180830381600087803b158015610a2e57600080fd5b505af1158015610a42573d6000803e3d6000fd5b505050506040513d6020811015610a5857600080fd5b50505b506001600160a01b0391821660008181526004602090815260408083208054969095166001600160a01b0319968716811790955593825260078152838220805460ff199081166001908117909255600383528584208054909716851790965592825260069052919091208054909216179055565b6001600160a01b038082166000908152600460208181526040808420548151631f1fcd5160e01b8152915194951693631f1fcd51938281019392829003018186803b15801561095357600080fd5b6000546001600160a01b03163314610b6a576040805162461bcd60e51b815260206004820152600b60248201526a21676f7665726e616e636560a81b604482015290519081900360640190fd5b600180546001600160a01b0319166001600160a01b0392909216919091179055565b6002546001600160a01b031681565b6003602052600090815260409020546001600160a01b031681565b6000546001600160a01b03163314610c03576040805162461bcd60e51b815260206004820152600b60248201526a21676f7665726e616e636560a81b604482015290519081900360640190fd5b600080546001600160a01b0319166001600160a01b0392909216919091179055565b6001600160a01b038083166000908152600460208181526040808420548151631f1fcd5160e01b815291519516948593631f1fcd51938382019390929190829003018186803b158015610c7757600080fd5b505afa158015610c8b573d6000803e3d6000fd5b505050506040513d6020811015610ca157600080fd5b50519050610cbf6001600160a01b038216838563ffffffff611d5c16565b816001600160a01b031663d0e30db06040518163ffffffff1660e01b8152600401600060405180830381600087803b158015610cfa57600080fd5b505af1158015610d0e573d6000803e3d6000fd5b5050505050505050565b6000546001600160a01b03163314610d65576040805162461bcd60e51b815260206004820152600b60248201526a21676f7665726e616e636560a81b604482015290519081900360640190fd5b816001600160a01b03166351cff8d9826040518263ffffffff1660e01b815260040180826001600160a01b03166001600160a01b03168152602001915050600060405180830381600087803b158015610dbd57600080fd5b505af1158015610dd1573d6000803e3d6000fd5b5050600054604080516370a0823160e01b81523060048201529051610e6b94506001600160a01b039283169350918516916370a0823191602480820192602092909190829003018186803b158015610e2857600080fd5b505afa158015610e3c573d6000803e3d6000fd5b505050506040513d6020811015610e5257600080fd5b50516001600160a01b038416919063ffffffff611d5c16565b5050565b604080516370a0823160e01b815230600482015290516000916001600160a01b038516916370a0823191602480820192602092909190829003018186803b158015610eb957600080fd5b505afa158015610ecd573d6000803e3d6000fd5b505050506040513d6020811015610ee357600080fd5b5051604080516351cff8d960e01b81526001600160a01b0386811660048301529151929350908616916351cff8d99160248082019260009290919082900301818387803b158015610f3357600080fd5b505af1158015610f47573d6000803e3d6000fd5b5050604080516370a0823160e01b81523060048201529051600093506001600160a01b03871692506370a0823191602480820192602092909190829003018186803b158015610f9557600080fd5b505afa158015610fa9573d6000803e3d6000fd5b505050506040513d6020811015610fbf57600080fd5b5051905081811115610612576000610fdd828463ffffffff611dae16565b90506000866001600160a01b0316631f1fcd516040518163ffffffff1660e01b815260040160206040518083038186803b15801561101a57600080fd5b505afa15801561102e573d6000803e3d6000fd5b505050506040513d602081101561104457600080fd5b5051604080516370a0823160e01b815230600482015290519192506060916000916001600160a01b038516916370a0823191602480820192602092909190829003018186803b15801561109657600080fd5b505afa1580156110aa573d6000803e3d6000fd5b505050506040513d60208110156110c057600080fd5b50516001549096506110e6906001600160a01b038a81169116600063ffffffff611df916565b600154611106906001600160a01b038a811691168663ffffffff611df916565b6001546040805163085e2c5b60e01b81526001600160a01b038b81166004830152868116602483015260448201889052606482018b9052600060848301819052925193169263085e2c5b9260a480840193919291829003018186803b15801561116e57600080fd5b505afa158015611182573d6000803e3d6000fd5b505050506040513d6000823e601f3d908101601f1916820160409081528110156111ab57600080fd5b8151602083018051604051929492938301929190846401000000008211156111d257600080fd5b9083019060208201858111156111e757600080fd5b825186602082028301116401000000008211171561120457600080fd5b82525081516020918201928201910280838360005b83811015611231578181015183820152602001611219565b505050509050016040525050508093508192505050600160009054906101000a90046001600160a01b03166001600160a01b031663e2a7515e898587858760006040518763ffffffff1660e01b815260040180876001600160a01b03166001600160a01b03168152602001866001600160a01b03166001600160a01b0316815260200185815260200184815260200180602001838152602001828103825284818151815260200191508051906020019060200280838360005b838110156113025781810151838201526020016112ea565b50505050905001975050505050505050602060405180830381600087803b15801561132c57600080fd5b505af1158015611340573d6000803e3d6000fd5b505050506040513d602081101561135657600080fd5b5050604080516370a0823160e01b815230600482015290516001600160a01b038516916370a08231916024808301926020929190829003018186803b15801561139e57600080fd5b505afa1580156113b2573d6000803e3d6000fd5b505050506040513d60208110156113c857600080fd5b505194508585111561144c576113e4858763ffffffff611dae16565b9350600061140f61271061140360085488611f0c90919063ffffffff16565b9063ffffffff611f6516565b905061142a84611425878463ffffffff611dae16565b610c25565b60025461144a906001600160a01b0386811691168363ffffffff611d5c16565b505b505050505050505050565b6000546001600160a01b031633146114a4576040805162461bcd60e51b815260206004820152600b60248201526a21676f7665726e616e636560a81b604482015290519081900360640190fd5b600054610e6b906001600160a01b0384811691168363ffffffff611d5c16565b6000546001600160a01b03163314611511576040805162461bcd60e51b815260206004820152600b60248201526a21676f7665726e616e636560a81b604482015290519081900360640190fd5b6001600160a01b03928316600090815260056020908152604080832094861683529390529190912080546001600160a01b03191691909216179055565b6000826001600160a01b0316631f1fcd516040518163ffffffff1660e01b815260040160206040518083038186803b15801561158957600080fd5b505afa15801561159d573d6000803e3d6000fd5b505050506040513d60208110156115b357600080fd5b5051604080516370a0823160e01b815230600482015290519192506000916001600160a01b038416916370a08231916024808301926020929190829003018186803b15801561160157600080fd5b505afa158015611615573d6000803e3d6000fd5b505050506040513d602081101561162b57600080fd5b505160408051630774672d60e21b815290519192506001600160a01b03861691631dd19cb49160048082019260009290919082900301818387803b15801561167257600080fd5b505af1158015611686573d6000803e3d6000fd5b5050604080516370a0823160e01b81523060048201529051600093506001600160a01b03861692506370a0823191602480820192602092909190829003018186803b1580156116d457600080fd5b505afa1580156116e8573d6000803e3d6000fd5b505050506040513d60208110156116fe57600080fd5b505190508181111561061257600061171c828463ffffffff611dae16565b6001600160a01b038088166000908152600360209081526040808320548151637e062a3560e11b815291519596509294929093169263fc0c546a9260048083019392829003018186803b15801561177257600080fd5b505afa158015611786573d6000803e3d6000fd5b505050506040513d602081101561179c57600080fd5b5051604080516370a0823160e01b815230600482015290519192506060916000916001600160a01b038516916370a0823191602480820192602092909190829003018186803b1580156117ee57600080fd5b505afa158015611802573d6000803e3d6000fd5b505050506040513d602081101561181857600080fd5b505160015490965061183e906001600160a01b038981169116600063ffffffff611df916565b60015461185e906001600160a01b0389811691168663ffffffff611df916565b6001546040805163085e2c5b60e01b81526001600160a01b038a81166004830152868116602483015260448201889052606482018c9052600060848301819052925193169263085e2c5b9260a480840193919291829003018186803b1580156118c657600080fd5b505afa1580156118da573d6000803e3d6000fd5b505050506040513d6000823e601f3d908101601f19168201604090815281101561190357600080fd5b81516020830180516040519294929383019291908464010000000082111561192a57600080fd5b90830190602082018581111561193f57600080fd5b825186602082028301116401000000008211171561195c57600080fd5b82525081516020918201928201910280838360005b83811015611989578181015183820152602001611971565b505050509050016040525050508093508192505050600160009054906101000a90046001600160a01b03166001600160a01b031663e2a7515e888587858760006040518763ffffffff1660e01b815260040180876001600160a01b03166001600160a01b03168152602001866001600160a01b03166001600160a01b0316815260200185815260200184815260200180602001838152602001828103825284818151815260200191508051906020019060200280838360005b83811015611a5a578181015183820152602001611a42565b50505050905001975050505050505050602060405180830381600087803b158015611a8457600080fd5b505af1158015611a98573d6000803e3d6000fd5b505050506040513d6020811015611aae57600080fd5b5050604080516370a0823160e01b815230600482015290516001600160a01b038516916370a08231916024808301926020929190829003018186803b158015611af657600080fd5b505afa158015611b0a573d6000803e3d6000fd5b505050506040513d6020811015611b2057600080fd5b505194508585111561144c57611b3c858763ffffffff611dae16565b93506000611b5b61271061140360085488611f0c90919063ffffffff16565b6001600160a01b03808c1660009081526003602052604090205491925061142a9116611b8d878463ffffffff611dae16565b6001600160a01b038716919063ffffffff611d5c16565b60056020908152600092835260408084209091529082529020546001600160a01b031681565b3360009081526006602052604090205460ff161515600114611c1c576040805162461bcd60e51b8152602060048201526006602482015265085d985d5b1d60d21b604482015290519081900360640190fd5b6001600160a01b038083166000908152600460208190526040808320548151632e1a7d4d60e01b81529283018690529051931692632e1a7d4d9260248084019391929182900301818387803b158015611c7457600080fd5b505af1158015611c88573d6000803e3d6000fd5b505050505050565b6001546001600160a01b031681565b60085481565b6000546001600160a01b03163314611cf2576040805162461bcd60e51b815260206004820152600b60248201526a21676f7665726e616e636560a81b604482015290519081900360640190fd5b806001600160a01b031663853828b66040518163ffffffff1660e01b8152600401602060405180830381600087803b158015611d2d57600080fd5b505af1158015611d41573d6000803e3d6000fd5b505050506040513d6020811015611d5757600080fd5b505050565b604080516001600160a01b038416602482015260448082018490528251808303909101815260649091019091526020810180516001600160e01b031663a9059cbb60e01b179052611d57908490611fa7565b6000611df083836040518060400160405280601e81526020017f536166654d6174683a207375627472616374696f6e206f766572666c6f770000815250612165565b90505b92915050565b801580611e7f575060408051636eb1769f60e11b81523060048201526001600160a01b03848116602483015291519185169163dd62ed3e91604480820192602092909190829003018186803b158015611e5157600080fd5b505afa158015611e65573d6000803e3d6000fd5b505050506040513d6020811015611e7b57600080fd5b5051155b611eba5760405162461bcd60e51b81526004018080602001828103825260368152602001806122e96036913960400191505060405180910390fd5b604080516001600160a01b038416602482015260448082018490528251808303909101815260649091019091526020810180516001600160e01b031663095ea7b360e01b179052611d57908490611fa7565b600082611f1b57506000611df3565b82820282848281611f2857fe5b0414611df05760405162461bcd60e51b815260040180806020018281038252602181526020018061229e6021913960400191505060405180910390fd5b6000611df083836040518060400160405280601a81526020017f536166654d6174683a206469766973696f6e206279207a65726f0000000000008152506121fc565b611fb9826001600160a01b0316612261565b61200a576040805162461bcd60e51b815260206004820152601f60248201527f5361666545524332303a2063616c6c20746f206e6f6e2d636f6e747261637400604482015290519081900360640190fd5b60006060836001600160a01b0316836040518082805190602001908083835b602083106120485780518252601f199092019160209182019101612029565b6001836020036101000a0380198251168184511680821785525050505050509050019150506000604051808303816000865af19150503d80600081146120aa576040519150601f19603f3d011682016040523d82523d6000602084013e6120af565b606091505b509150915081612106576040805162461bcd60e51b815260206004820181905260248201527f5361666545524332303a206c6f772d6c6576656c2063616c6c206661696c6564604482015290519081900360640190fd5b80511561215f5780806020019051602081101561212257600080fd5b505161215f5760405162461bcd60e51b815260040180806020018281038252602a8152602001806122bf602a913960400191505060405180910390fd5b50505050565b600081848411156121f45760405162461bcd60e51b81526004018080602001828103825283818151815260200191508051906020019080838360005b838110156121b95781810151838201526020016121a1565b50505050905090810190601f1680156121e65780820380516001836020036101000a031916815260200191505b509250505060405180910390fd5b505050900390565b6000818361224b5760405162461bcd60e51b81526020600482018181528351602484015283519092839260449091019190850190808383600083156121b95781810151838201526020016121a1565b50600083858161225757fe5b0495945050505050565b6000813f7fc5d2460186f7233c927e7db2dcc703c0e500b653ca82273b7bfad8045d85a47081811480159061229557508115155b94935050505056fe536166654d6174683a206d756c7469706c69636174696f6e206f766572666c6f775361666545524332303a204552433230206f7065726174696f6e20646964206e6f7420737563636565645361666545524332303a20617070726f76652066726f6d206e6f6e2d7a65726f20746f206e6f6e2d7a65726f20616c6c6f77616e6365a265627a7a7231582056a14c9b09023bd5f0cc588bf4444d2c887fc4f05726d9bef43de12f2852e7f164736f6c63430005110032",
    "source": "// SPDX-License-Identifier: MIT\n\npragma solidity ^0.5.17;\n\nimport \"@openzeppelinV2/contracts/token/ERC20/IERC20.sol\";\nimport \"@openzeppelinV2/contracts/math/SafeMath.sol\";\nimport \"@openzeppelinV2/contracts/utils/Address.sol\";\nimport \"@openzeppelinV2/contracts/token/ERC20/SafeERC20.sol\";\n\nimport \"../../interfaces/yearn/IStrategy.sol\";\nimport \"../../interfaces/yearn/IConverter.sol\";\nimport \"../../interfaces/yearn/IOneSplitAudit.sol\";\nimport \"../../interfaces/yearn/IDelegatedVault.sol\";\n\ncontract DelegatedController {\n    using SafeERC20 for IERC20;\n    using Address for address;\n    using SafeMath for uint256;\n\n    address public governance;\n    address public onesplit;\n    address public rewards;\n\n    // Vault to strategy mapping\n    mapping(address => address) public vaults;\n    // Strategy to vault mapping\n    mapping(address => address) public strategies;\n\n    mapping(address => mapping(address => address)) public converters;\n\n    mapping(address => bool) public isVault;\n    mapping(address => bool) public isStrategy;\n\n    uint256 public split = 500;\n    uint256 public constant max = 10000;\n\n    constructor(address _rewards) public {\n        governance = msg.sender;\n        onesplit = address(0x50FDA034C0Ce7a8f7EFDAebDA7Aa7cA21CC1267e);\n        rewards = _rewards;\n    }\n\n    function setSplit(uint256 _split) external {\n        require(msg.sender == governance, \"!governance\");\n        split = _split;\n    }\n\n    function setOneSplit(address _onesplit) external {\n        require(msg.sender == governance, \"!governance\");\n        onesplit = _onesplit;\n    }\n\n    function setGovernance(address _governance) external {\n        require(msg.sender == governance, \"!governance\");\n        governance = _governance;\n    }\n\n    function setConverter(\n        address _input,\n        address _output,\n        address _converter\n    ) external {\n        require(msg.sender == governance, \"!governance\");\n        converters[_input][_output] = _converter;\n    }\n\n    function setStrategy(address _vault, address _strategy) external {\n        require(msg.sender == governance, \"!governance\");\n        address _current = strategies[_vault];\n        if (_current != address(0)) {\n            IStrategy(_current).withdrawAll();\n        }\n        strategies[_vault] = _strategy;\n        isStrategy[_strategy] = true;\n        vaults[_strategy] = _vault;\n        isVault[_vault] = true;\n    }\n\n    function want(address _vault) external view returns (address) {\n        return IStrategy(strategies[_vault]).want();\n    }\n\n    function earn(address _vault, uint256 _amount) public {\n        address _strategy = strategies[_vault];\n        address _want = IStrategy(_strategy).want();\n        IERC20(_want).safeTransfer(_strategy, _amount);\n        IStrategy(_strategy).deposit();\n    }\n\n    function balanceOf(address _vault) external view returns (uint256) {\n        return IStrategy(strategies[_vault]).balanceOf();\n    }\n\n    function withdrawAll(address _strategy) external {\n        require(msg.sender == governance, \"!governance\");\n        // WithdrawAll sends 'want' to 'vault'\n        IStrategy(_strategy).withdrawAll();\n    }\n\n    function inCaseTokensGetStuck(address _token, uint256 _amount) external {\n        require(msg.sender == governance, \"!governance\");\n        IERC20(_token).safeTransfer(governance, _amount);\n    }\n\n    function inCaseStrategyGetStruck(address _strategy, address _token) external {\n        require(msg.sender == governance, \"!governance\");\n        IStrategy(_strategy).withdraw(_token);\n        IERC20(_token).safeTransfer(governance, IERC20(_token).balanceOf(address(this)));\n    }\n\n    function getExpectedReturn(\n        address _strategy,\n        address _token,\n        uint256 parts\n    ) external view returns (uint256 expected) {\n        uint256 _balance = IERC20(_token).balanceOf(_strategy);\n        address _want = IStrategy(_strategy).want();\n        (expected, ) = IOneSplitAudit(onesplit).getExpectedReturn(_token, _want, _balance, parts, 0);\n    }\n\n    function claimInsurance(address _vault) external {\n        require(msg.sender == governance, \"!governance\");\n        IDelegatedVault(_vault).claimInsurance();\n    }\n\n    // Only allows to withdraw non-core strategy tokens ~ this is over and above normal yield\n    function delegatedHarvest(address _strategy, uint256 parts) external {\n        // This contract should never have value in it, but just incase since this is a public call\n        address _have = IStrategy(_strategy).want();\n        uint256 _before = IERC20(_have).balanceOf(address(this));\n        IStrategy(_strategy).skim();\n        uint256 _after = IERC20(_have).balanceOf(address(this));\n        if (_after > _before) {\n            uint256 _amount = _after.sub(_before);\n            address _want = IDelegatedVault(vaults[_strategy]).token();\n            uint256[] memory _distribution;\n            uint256 _expected;\n            _before = IERC20(_want).balanceOf(address(this));\n            IERC20(_have).safeApprove(onesplit, 0);\n            IERC20(_have).safeApprove(onesplit, _amount);\n            (_expected, _distribution) = IOneSplitAudit(onesplit).getExpectedReturn(_have, _want, _amount, parts, 0);\n            IOneSplitAudit(onesplit).swap(_have, _want, _amount, _expected, _distribution, 0);\n            _after = IERC20(_want).balanceOf(address(this));\n            if (_after > _before) {\n                _amount = _after.sub(_before);\n                uint256 _reward = _amount.mul(split).div(max);\n                IERC20(_want).safeTransfer(vaults[_strategy], _amount.sub(_reward));\n                IERC20(_want).safeTransfer(rewards, _reward);\n            }\n        }\n    }\n\n    // Only allows to withdraw non-core strategy tokens ~ this is over and above normal yield\n    function harvest(\n        address _strategy,\n        address _token,\n        uint256 parts\n    ) external {\n        // This contract should never have value in it, but just incase since this is a public call\n        uint256 _before = IERC20(_token).balanceOf(address(this));\n        IStrategy(_strategy).withdraw(_token);\n        uint256 _after = IERC20(_token).balanceOf(address(this));\n        if (_after > _before) {\n            uint256 _amount = _after.sub(_before);\n            address _want = IStrategy(_strategy).want();\n            uint256[] memory _distribution;\n            uint256 _expected;\n            _before = IERC20(_want).balanceOf(address(this));\n            IERC20(_token).safeApprove(onesplit, 0);\n            IERC20(_token).safeApprove(onesplit, _amount);\n            (_expected, _distribution) = IOneSplitAudit(onesplit).getExpectedReturn(_token, _want, _amount, parts, 0);\n            IOneSplitAudit(onesplit).swap(_token, _want, _amount, _expected, _distribution, 0);\n            _after = IERC20(_want).balanceOf(address(this));\n            if (_after > _before) {\n                _amount = _after.sub(_before);\n                uint256 _reward = _amount.mul(split).div(max);\n                earn(_want, _amount.sub(_reward));\n                IERC20(_want).safeTransfer(rewards, _reward);\n            }\n        }\n    }\n\n    function withdraw(address _vault, uint256 _amount) external {\n        require(isVault[msg.sender] == true, \"!vault\");\n        IStrategy(strategies[_vault]).withdraw(_amount);\n    }\n}\n",
    "sourcePath": "/Users/sbacha/V2yearn/contracts/controllers/DelegatedController.sol",
    "compiler": {
        "name": "solc",
        "version": "0.5.17+commit.d19bba13.Emscripten.clang"
    },
    "schemaVersion": "3.1.0",
    "updatedAt": "2020-11-01T01:33:12.736Z",
    "devdoc": {
        "methods": {}
    },
    "userdoc": {
        "methods": {}
    }
}