{
  "contractName": "StrategyYFIGovernance",
  "abi": [
    {
      "inputs": [
        {
          "internalType": "address",
          "name": "_controller",
          "type": "address"
        }
      ],
      "payable": false,
      "stateMutability": "nonpayable",
      "type": "constructor"
    },
    {
      "constant": true,
      "inputs": [],
      "name": "controller",
      "outputs": [
        {
          "internalType": "address",
          "name": "",
          "type": "address"
        }
      ],
      "payable": false,
      "stateMutability": "view",
      "type": "function"
    },
    {
      "constant": true,
      "inputs": [],
      "name": "curve",
      "outputs": [
        {
          "internalType": "address",
          "name": "",
          "type": "address"
        }
      ],
      "payable": false,
      "stateMutability": "view",
      "type": "function"
    },
    {
      "constant": true,
      "inputs": [],
      "name": "fee",
      "outputs": [
        {
          "internalType": "uint256",
          "name": "",
          "type": "uint256"
        }
      ],
      "payable": false,
      "stateMutability": "view",
      "type": "function"
    },
    {
      "constant": true,
      "inputs": [],
      "name": "gov",
      "outputs": [
        {
          "internalType": "address",
          "name": "",
          "type": "address"
        }
      ],
      "payable": false,
      "stateMutability": "view",
      "type": "function"
    },
    {
      "constant": true,
      "inputs": [],
      "name": "governance",
      "outputs": [
        {
          "internalType": "address",
          "name": "",
          "type": "address"
        }
      ],
      "payable": false,
      "stateMutability": "view",
      "type": "function"
    },
    {
      "constant": true,
      "inputs": [],
      "name": "max",
      "outputs": [
        {
          "internalType": "uint256",
          "name": "",
          "type": "uint256"
        }
      ],
      "payable": false,
      "stateMutability": "view",
      "type": "function"
    },
    {
      "constant": true,
      "inputs": [],
      "name": "reward",
      "outputs": [
        {
          "internalType": "address",
          "name": "",
          "type": "address"
        }
      ],
      "payable": false,
      "stateMutability": "view",
      "type": "function"
    },
    {
      "constant": true,
      "inputs": [],
      "name": "strategist",
      "outputs": [
        {
          "internalType": "address",
          "name": "",
          "type": "address"
        }
      ],
      "payable": false,
      "stateMutability": "view",
      "type": "function"
    },
    {
      "constant": true,
      "inputs": [],
      "name": "uni",
      "outputs": [
        {
          "internalType": "address",
          "name": "",
          "type": "address"
        }
      ],
      "payable": false,
      "stateMutability": "view",
      "type": "function"
    },
    {
      "constant": true,
      "inputs": [],
      "name": "usdt",
      "outputs": [
        {
          "internalType": "address",
          "name": "",
          "type": "address"
        }
      ],
      "payable": false,
      "stateMutability": "view",
      "type": "function"
    },
    {
      "constant": true,
      "inputs": [],
      "name": "want",
      "outputs": [
        {
          "internalType": "address",
          "name": "",
          "type": "address"
        }
      ],
      "payable": false,
      "stateMutability": "view",
      "type": "function"
    },
    {
      "constant": true,
      "inputs": [],
      "name": "weth",
      "outputs": [
        {
          "internalType": "address",
          "name": "",
          "type": "address"
        }
      ],
      "payable": false,
      "stateMutability": "view",
      "type": "function"
    },
    {
      "constant": true,
      "inputs": [],
      "name": "zap",
      "outputs": [
        {
          "internalType": "address",
          "name": "",
          "type": "address"
        }
      ],
      "payable": false,
      "stateMutability": "view",
      "type": "function"
    },
    {
      "constant": false,
      "inputs": [
        {
          "internalType": "uint256",
          "name": "_fee",
          "type": "uint256"
        }
      ],
      "name": "setFee",
      "outputs": [],
      "payable": false,
      "stateMutability": "nonpayable",
      "type": "function"
    },
    {
      "constant": false,
      "inputs": [
        {
          "internalType": "address",
          "name": "_strategist",
          "type": "address"
        }
      ],
      "name": "setStrategist",
      "outputs": [],
      "payable": false,
      "stateMutability": "nonpayable",
      "type": "function"
    },
    {
      "constant": false,
      "inputs": [],
      "name": "deposit",
      "outputs": [],
      "payable": false,
      "stateMutability": "nonpayable",
      "type": "function"
    },
    {
      "constant": false,
      "inputs": [
        {
          "internalType": "uint256",
          "name": "_amount",
          "type": "uint256"
        }
      ],
      "name": "withdraw",
      "outputs": [],
      "payable": false,
      "stateMutability": "nonpayable",
      "type": "function"
    },
    {
      "constant": false,
      "inputs": [
        {
          "internalType": "contract IERC20",
          "name": "_asset",
          "type": "address"
        }
      ],
      "name": "withdraw",
      "outputs": [
        {
          "internalType": "uint256",
          "name": "balance",
          "type": "uint256"
        }
      ],
      "payable": false,
      "stateMutability": "nonpayable",
      "type": "function"
    },
    {
      "constant": false,
      "inputs": [],
      "name": "withdrawAll",
      "outputs": [
        {
          "internalType": "uint256",
          "name": "balance",
          "type": "uint256"
        }
      ],
      "payable": false,
      "stateMutability": "nonpayable",
      "type": "function"
    },
    {
      "constant": false,
      "inputs": [],
      "name": "harvest",
      "outputs": [],
      "payable": false,
      "stateMutability": "nonpayable",
      "type": "function"
    },
    {
      "constant": true,
      "inputs": [],
      "name": "balanceOfWant",
      "outputs": [
        {
          "internalType": "uint256",
          "name": "",
          "type": "uint256"
        }
      ],
      "payable": false,
      "stateMutability": "view",
      "type": "function"
    },
    {
      "constant": true,
      "inputs": [],
      "name": "balanceOfYGov",
      "outputs": [
        {
          "internalType": "uint256",
          "name": "",
          "type": "uint256"
        }
      ],
      "payable": false,
      "stateMutability": "view",
      "type": "function"
    },
    {
      "constant": true,
      "inputs": [],
      "name": "balanceOf",
      "outputs": [
        {
          "internalType": "uint256",
          "name": "",
          "type": "uint256"
        }
      ],
      "payable": false,
      "stateMutability": "view",
      "type": "function"
    },
    {
      "constant": false,
      "inputs": [
        {
          "internalType": "uint256",
          "name": "_proposal",
          "type": "uint256"
        }
      ],
      "name": "voteFor",
      "outputs": [],
      "payable": false,
      "stateMutability": "nonpayable",
      "type": "function"
    },
    {
      "constant": false,
      "inputs": [
        {
          "internalType": "uint256",
          "name": "_proposal",
          "type": "uint256"
        }
      ],
      "name": "voteAgainst",
      "outputs": [],
      "payable": false,
      "stateMutability": "nonpayable",
      "type": "function"
    },
    {
      "constant": false,
      "inputs": [
        {
          "internalType": "address",
          "name": "_governance",
          "type": "address"
        }
      ],
      "name": "setGovernance",
      "outputs": [],
      "payable": false,
      "stateMutability": "nonpayable",
      "type": "function"
    },
    {
      "constant": false,
      "inputs": [
        {
          "internalType": "address",
          "name": "_controller",
          "type": "address"
        }
      ],
      "name": "setController",
      "outputs": [],
      "payable": false,
      "stateMutability": "nonpayable",
      "type": "function"
    }
  ],
  "bytecode": "0x60806040526101f460005534801561001657600080fd5b50604051611d53380380611d538339818101604052602081101561003957600080fd5b505160018054336001600160a01b03199182168117909255600380548216909217909155600280549091166001600160a01b03909216919091179055611ccf806100846000396000f3fe608060405234801561001057600080fd5b50600436106101a95760003560e01c80636ac5db19116100f9578063ab033ea911610097578063d0e30db011610071578063d0e30db014610362578063ddca3f431461036a578063edc9af9514610372578063f77c47911461037a576101a9565b8063ab033ea91461030e578063c1a3d44c14610334578063c7b9d5301461033c576101a9565b8063750e443a116100d3578063750e443a146102a6578063853828b6146102c357806386a50535146102cb57806392eefe9b146102e8576101a9565b80636ac5db191461028e5780637165485d14610296578063722713f71461029e576101a9565b80632e1a7d4d116101665780634641257d116101405780634641257d1461023b57806351cff8d9146102435780635aa6e6751461026957806369fe0e2d14610271576101a9565b80632e1a7d4d1461020c5780632f48ab7d1461022b5780633fc8cef314610233576101a9565b8063077c14b9146101ae57806312d43a51146101c85780631f1fcd51146101ec5780631fe4a686146101f4578063228cb733146101fc578063262d615214610204575b600080fd5b6101b6610382565b60408051918252519081900360200190f35b6101d0610408565b604080516001600160a01b039092168252519081900360200190f35b6101d0610420565b6101d0610432565b6101d0610441565b6101d0610459565b6102296004803603602081101561022257600080fd5b5035610471565b005b6101d0610735565b6101d061074d565b610229610765565b6101b66004803603602081101561025957600080fd5b50356001600160a01b0316610cf7565b6101d0610e36565b6102296004803603602081101561028757600080fd5b5035610e45565b6101b6610e97565b6101d0610e9d565b6101b6610eb5565b610229600480360360208110156102bc57600080fd5b5035610edb565b6101b6610f9d565b610229600480360360208110156102e157600080fd5b5035611160565b610229600480360360208110156102fe57600080fd5b50356001600160a01b0316611207565b6102296004803603602081101561032457600080fd5b50356001600160a01b0316611276565b6101b66112e5565b6102296004803603602081101561035257600080fd5b50356001600160a01b0316611334565b6102296113a3565b6101b6611569565b6101d061156f565b6101d0611587565b604080516370a0823160e01b8152306004820152905160009173ba37b002abafdd8e89a1995da52740bbc013d992916370a0823191602480820192602092909190829003018186803b1580156103d757600080fd5b505afa1580156103eb573d6000803e3d6000fd5b505050506040513d602081101561040157600080fd5b5051905090565b73ba37b002abafdd8e89a1995da52740bbc013d99281565b600080516020611bfa83398151915281565b6003546001600160a01b031681565b73df5e0e81dff6faf3a7e52ba697820c5e32d806a881565b73bbc81d23ea2c3ec7e56d39296f0cbb648873a5d381565b6002546001600160a01b031633146104be576040805162461bcd60e51b815260206004820152600b60248201526a10b1b7b73a3937b63632b960a91b604482015290519081900360640190fd5b604080516370a0823160e01b81523060048201529051600091600080516020611bfa833981519152916370a0823191602480820192602092909190829003018186803b15801561050d57600080fd5b505afa158015610521573d6000803e3d6000fd5b505050506040513d602081101561053757600080fd5b50519050818110156105705761055b610556838363ffffffff61159616565b6115e1565b915061056d828263ffffffff61165b16565b91505b600061059961271061058d600054866116b590919063ffffffff16565b9063ffffffff61170e16565b9050610634600260009054906101000a90046001600160a01b03166001600160a01b0316639ec5a8946040518163ffffffff1660e01b815260040160206040518083038186803b1580156105ec57600080fd5b505afa158015610600573d6000803e3d6000fd5b505050506040513d602081101561061657600080fd5b5051600080516020611bfa833981519152908363ffffffff61175016565b60025460408051632988bb9f60e21b8152600080516020611bfa833981519152600482015290516000926001600160a01b03169163a622ee7c916024808301926020929190829003018186803b15801561068d57600080fd5b505afa1580156106a1573d6000803e3d6000fd5b505050506040513d60208110156106b757600080fd5b505190506001600160a01b0381166106ff576040805162461bcd60e51b8152602060048201526006602482015265085d985d5b1d60d21b604482015290519081900360640190fd5b61072f81610713868563ffffffff61159616565b600080516020611bfa833981519152919063ffffffff61175016565b50505050565b73dac17f958d2ee523a2206206994597c13d831ec781565b73c02aaa39b223fe8d0a0e5c4f27ead9083c756cc281565b6003546001600160a01b031633148061078857506001546001600160a01b031633145b8061079257503332145b6107d1576040805162461bcd60e51b815260206004820152600b60248201526a08585d5d1a1bdc9a5e995960aa1b604482015290519081900360640190fd5b73ba37b002abafdd8e89a1995da52740bbc013d9926001600160a01b0316633d18b9126040518163ffffffff1660e01b8152600401600060405180830381600087803b15801561082057600080fd5b505af1158015610834573d6000803e3d6000fd5b5050604080516370a0823160e01b815230600482015290516000935073df5e0e81dff6faf3a7e52ba697820c5e32d806a892506370a0823191602480820192602092909190829003018186803b15801561088d57600080fd5b505afa1580156108a1573d6000803e3d6000fd5b505050506040513d60208110156108b757600080fd5b5051905080156109ac576108fb73df5e0e81dff6faf3a7e52ba697820c5e32d806a873bbc81d23ea2c3ec7e56d39296f0cbb648873a5d3600063ffffffff6117a716565b61093473df5e0e81dff6faf3a7e52ba697820c5e32d806a873bbc81d23ea2c3ec7e56d39296f0cbb648873a5d38363ffffffff6117a716565b60408051630d2680e960e11b81526004810183905260026024820152600060448201819052915173bbc81d23ea2c3ec7e56d39296f0cbb648873a5d392631a4d01d2926064808201939182900301818387803b15801561099357600080fd5b505af11580156109a7573d6000803e3d6000fd5b505050505b604080516370a0823160e01b8152306004820152905173dac17f958d2ee523a2206206994597c13d831ec7916370a08231916024808301926020929190829003018186803b1580156109fd57600080fd5b505afa158015610a11573d6000803e3d6000fd5b505050506040513d6020811015610a2757600080fd5b505190508015610c6b57610a6b73dac17f958d2ee523a2206206994597c13d831ec7737a250d5630b4cf539739df2c5dacb4c659f2488d600063ffffffff6117a716565b610aa473dac17f958d2ee523a2206206994597c13d831ec7737a250d5630b4cf539739df2c5dacb4c659f2488d8363ffffffff6117a716565b6040805160038082526080820190925260609160208201838038833901905050905073dac17f958d2ee523a2206206994597c13d831ec781600081518110610ae857fe5b60200260200101906001600160a01b031690816001600160a01b03168152505073c02aaa39b223fe8d0a0e5c4f27ead9083c756cc281600181518110610b2a57fe5b60200260200101906001600160a01b031690816001600160a01b031681525050600080516020611bfa83398151915281600281518110610b6657fe5b6001600160a01b0390921660209283029190910190910152737a250d5630b4cf539739df2c5dacb4c659f2488d6338ed17398360008430610baf4261070863ffffffff61165b16565b6040518663ffffffff1660e01b81526004018086815260200185815260200180602001846001600160a01b03166001600160a01b03168152602001838152602001828103825285818151815260200191508051906020019060200280838360005b83811015610c28578181015183820152602001610c10565b505050509050019650505050505050600060405180830381600087803b158015610c5157600080fd5b505af1158015610c65573d6000803e3d6000fd5b50505050505b604080516370a0823160e01b81523060048201529051600091600080516020611bfa833981519152916370a0823191602480820192602092909190829003018186803b158015610cba57600080fd5b505afa158015610cce573d6000803e3d6000fd5b505050506040513d6020811015610ce457600080fd5b50511115610cf457610cf46113a3565b50565b6002546000906001600160a01b03163314610d47576040805162461bcd60e51b815260206004820152600b60248201526a10b1b7b73a3937b63632b960a91b604482015290519081900360640190fd5b600080516020611bfa8339815191526001600160a01b0383161415610d9c576040805162461bcd60e51b815260206004808301919091526024820152631dd85b9d60e21b604482015290519081900360640190fd5b604080516370a0823160e01b815230600482015290516001600160a01b038416916370a08231916024808301926020929190829003018186803b158015610de257600080fd5b505afa158015610df6573d6000803e3d6000fd5b505050506040513d6020811015610e0c57600080fd5b5051600254909150610e31906001600160a01b0384811691168363ffffffff61175016565b919050565b6001546001600160a01b031681565b6001546001600160a01b03163314610e92576040805162461bcd60e51b815260206004820152600b60248201526a21676f7665726e616e636560a81b604482015290519081900360640190fd5b600055565b61271081565b7345f783cce6b7ff23b2ab2d70e416cdb7d6055f5181565b6000610ed6610ec2610382565b610eca6112e5565b9063ffffffff61165b16565b905090565b6001546001600160a01b03163314610f28576040805162461bcd60e51b815260206004820152600b60248201526a21676f7665726e616e636560a81b604482015290519081900360640190fd5b73ba37b002abafdd8e89a1995da52740bbc013d9926001600160a01b031663750e443a826040518263ffffffff1660e01b815260040180828152602001915050600060405180830381600087803b158015610f8257600080fd5b505af1158015610f96573d6000803e3d6000fd5b5050505050565b6002546000906001600160a01b03163314610fed576040805162461bcd60e51b815260206004820152600b60248201526a10b1b7b73a3937b63632b960a91b604482015290519081900360640190fd5b610ff56118ba565b604080516370a0823160e01b81523060048201529051600080516020611bfa833981519152916370a08231916024808301926020929190829003018186803b15801561104057600080fd5b505afa158015611054573d6000803e3d6000fd5b505050506040513d602081101561106a57600080fd5b505160025460408051632988bb9f60e21b8152600080516020611bfa833981519152600482015290519293506000926001600160a01b039092169163a622ee7c91602480820192602092909190829003018186803b1580156110cb57600080fd5b505afa1580156110df573d6000803e3d6000fd5b505050506040513d60208110156110f557600080fd5b505190506001600160a01b03811661113d576040805162461bcd60e51b8152602060048201526006602482015265085d985d5b1d60d21b604482015290519081900360640190fd5b61115c600080516020611bfa833981519152828463ffffffff61175016565b5090565b6001546001600160a01b031633146111ad576040805162461bcd60e51b815260206004820152600b60248201526a21676f7665726e616e636560a81b604482015290519081900360640190fd5b73ba37b002abafdd8e89a1995da52740bbc013d9926001600160a01b03166386a50535826040518263ffffffff1660e01b815260040180828152602001915050600060405180830381600087803b158015610f8257600080fd5b6001546001600160a01b03163314611254576040805162461bcd60e51b815260206004820152600b60248201526a21676f7665726e616e636560a81b604482015290519081900360640190fd5b600280546001600160a01b0319166001600160a01b0392909216919091179055565b6001546001600160a01b031633146112c3576040805162461bcd60e51b815260206004820152600b60248201526a21676f7665726e616e636560a81b604482015290519081900360640190fd5b600180546001600160a01b0319166001600160a01b0392909216919091179055565b604080516370a0823160e01b81523060048201529051600091600080516020611bfa833981519152916370a0823191602480820192602092909190829003018186803b1580156103d757600080fd5b6001546001600160a01b03163314611381576040805162461bcd60e51b815260206004820152600b60248201526a21676f7665726e616e636560a81b604482015290519081900360640190fd5b600380546001600160a01b0319166001600160a01b0392909216919091179055565b6113d7600080516020611bfa83398151915273ba37b002abafdd8e89a1995da52740bbc013d992600063ffffffff6117a716565b604080516370a0823160e01b815230600482015290516114849173ba37b002abafdd8e89a1995da52740bbc013d99291600080516020611bfa833981519152916370a08231916024808301926020929190829003018186803b15801561143c57600080fd5b505afa158015611450573d6000803e3d6000fd5b505050506040513d602081101561146657600080fd5b5051600080516020611bfa833981519152919063ffffffff6117a716565b604080516370a0823160e01b8152306004820152905173ba37b002abafdd8e89a1995da52740bbc013d9929163a694fc3a91600080516020611bfa833981519152916370a08231916024808301926020929190829003018186803b1580156114eb57600080fd5b505afa1580156114ff573d6000803e3d6000fd5b505050506040513d602081101561151557600080fd5b5051604080516001600160e01b031960e085901b168152600481019290925251602480830192600092919082900301818387803b15801561155557600080fd5b505af115801561072f573d6000803e3d6000fd5b60005481565b737a250d5630b4cf539739df2c5dacb4c659f2488d81565b6002546001600160a01b031681565b60006115d883836040518060400160405280601e81526020017f536166654d6174683a207375627472616374696f6e206f766572666c6f770000815250611909565b90505b92915050565b600073ba37b002abafdd8e89a1995da52740bbc013d9926001600160a01b0316632e1a7d4d836040518263ffffffff1660e01b815260040180828152602001915050600060405180830381600087803b15801561163d57600080fd5b505af1158015611651573d6000803e3d6000fd5b5093949350505050565b6000828201838110156115d8576040805162461bcd60e51b815260206004820152601b60248201527f536166654d6174683a206164646974696f6e206f766572666c6f770000000000604482015290519081900360640190fd5b6000826116c4575060006115db565b828202828482816116d157fe5b04146115d85760405162461bcd60e51b8152600401808060200182810382526021815260200180611c1a6021913960400191505060405180910390fd5b60006115d883836040518060400160405280601a81526020017f536166654d6174683a206469766973696f6e206279207a65726f0000000000008152506119a0565b604080516001600160a01b038416602482015260448082018490528251808303909101815260649091019091526020810180516001600160e01b031663a9059cbb60e01b1790526117a2908490611a05565b505050565b80158061182d575060408051636eb1769f60e11b81523060048201526001600160a01b03848116602483015291519185169163dd62ed3e91604480820192602092909190829003018186803b1580156117ff57600080fd5b505afa158015611813573d6000803e3d6000fd5b505050506040513d602081101561182957600080fd5b5051155b6118685760405162461bcd60e51b8152600401808060200182810382526036815260200180611c656036913960400191505060405180910390fd5b604080516001600160a01b038416602482015260448082018490528251808303909101815260649091019091526020810180516001600160e01b031663095ea7b360e01b1790526117a2908490611a05565b73ba37b002abafdd8e89a1995da52740bbc013d9926001600160a01b031663e9fad8ee6040518163ffffffff1660e01b8152600401600060405180830381600087803b15801561155557600080fd5b600081848411156119985760405162461bcd60e51b81526004018080602001828103825283818151815260200191508051906020019080838360005b8381101561195d578181015183820152602001611945565b50505050905090810190601f16801561198a5780820380516001836020036101000a031916815260200191505b509250505060405180910390fd5b505050900390565b600081836119ef5760405162461bcd60e51b815260206004820181815283516024840152835190928392604490910191908501908083836000831561195d578181015183820152602001611945565b5060008385816119fb57fe5b0495945050505050565b611a17826001600160a01b0316611bbd565b611a68576040805162461bcd60e51b815260206004820152601f60248201527f5361666545524332303a2063616c6c20746f206e6f6e2d636f6e747261637400604482015290519081900360640190fd5b60006060836001600160a01b0316836040518082805190602001908083835b60208310611aa65780518252601f199092019160209182019101611a87565b6001836020036101000a0380198251168184511680821785525050505050509050019150506000604051808303816000865af19150503d8060008114611b08576040519150601f19603f3d011682016040523d82523d6000602084013e611b0d565b606091505b509150915081611b64576040805162461bcd60e51b815260206004820181905260248201527f5361666545524332303a206c6f772d6c6576656c2063616c6c206661696c6564604482015290519081900360640190fd5b80511561072f57808060200190516020811015611b8057600080fd5b505161072f5760405162461bcd60e51b815260040180806020018281038252602a815260200180611c3b602a913960400191505060405180910390fd5b6000813f7fc5d2460186f7233c927e7db2dcc703c0e500b653ca82273b7bfad8045d85a470818114801590611bf157508115155b94935050505056fe0000000000000000000000000bc529c00c6401aef6d220be8c6ea1667f6ad93e536166654d6174683a206d756c7469706c69636174696f6e206f766572666c6f775361666545524332303a204552433230206f7065726174696f6e20646964206e6f7420737563636565645361666545524332303a20617070726f76652066726f6d206e6f6e2d7a65726f20746f206e6f6e2d7a65726f20616c6c6f77616e6365a265627a7a7231582046f090bdfaf458674228dc7567a01bee1dc35959371ee8c458e536d1a177f27664736f6c63430005110032",
  "source": "// SPDX-License-Identifier: MIT\n\npragma solidity ^0.5.17;\n\nimport \"@openzeppelinV2/contracts/token/ERC20/IERC20.sol\";\nimport \"@openzeppelinV2/contracts/math/SafeMath.sol\";\nimport \"@openzeppelinV2/contracts/utils/Address.sol\";\nimport \"@openzeppelinV2/contracts/token/ERC20/SafeERC20.sol\";\n\nimport \"../../interfaces/yearn/IController.sol\";\nimport \"../../interfaces/yearn/IGovernance.sol\";\nimport \"../../interfaces/yearn/IToken.sol\";\nimport \"../../interfaces/uniswap/Uni.sol\";\nimport \"../../interfaces/curve/Curve.sol\";\n\n/*\n\n A strategy must implement the following calls;\n \n - deposit()\n - withdraw(address) must exclude any tokens used in the yield - Controller role - withdraw should return to Controller\n - withdraw(uint) - Controller | Vault role - withdraw should always return to vault\n - withdrawAll() - Controller | Vault role - withdraw should always return to vault\n - balanceOf()\n \n Where possible, strategies must remain as immutable as possible, instead of updating variables, we update the contract by linking it in the controller\n \n*/\n\ncontract StrategyYFIGovernance {\n    using SafeERC20 for IERC20;\n    using Address for address;\n    using SafeMath for uint256;\n\n    address public constant want = address(0x0bc529c00C6401aEF6D220BE8C6Ea1667F6Ad93e);\n    address public constant gov = address(0xBa37B002AbaFDd8E89a1995dA52740bbC013D992);\n    address public constant curve = address(0x45F783CCE6B7FF23B2ab2D70e416cdb7D6055f51);\n    address public constant zap = address(0xbBC81d23Ea2c3ec7e56D39296F0cbB648873a5d3);\n\n    address public constant reward = address(0xdF5e0e81Dff6FAF3A7e52BA697820c5e32D806A8);\n    address public constant usdt = address(0xdAC17F958D2ee523a2206206994597C13D831ec7);\n\n    address public constant uni = address(0x7a250d5630B4cF539739dF2C5dAcb4c659F2488D);\n    address public constant weth = address(0xC02aaA39b223FE8D0A0e5C4F27eAD9083C756Cc2); // used for crv <> weth <> dai route\n\n    uint256 public fee = 500;\n    uint256 public constant max = 10000;\n\n    address public governance;\n    address public controller;\n    address public strategist;\n\n    constructor(address _controller) public {\n        governance = msg.sender;\n        strategist = msg.sender;\n        controller = _controller;\n    }\n\n    function setFee(uint256 _fee) external {\n        require(msg.sender == governance, \"!governance\");\n        fee = _fee;\n    }\n\n    function setStrategist(address _strategist) external {\n        require(msg.sender == governance, \"!governance\");\n        strategist = _strategist;\n    }\n\n    function deposit() public {\n        IERC20(want).safeApprove(gov, 0);\n        IERC20(want).safeApprove(gov, IERC20(want).balanceOf(address(this)));\n        IGovernance(gov).stake(IERC20(want).balanceOf(address(this)));\n    }\n\n    // Controller only function for creating additional rewards from dust\n    function withdraw(IERC20 _asset) external returns (uint256 balance) {\n        require(msg.sender == controller, \"!controller\");\n        require(want != address(_asset), \"want\");\n        balance = _asset.balanceOf(address(this));\n        _asset.safeTransfer(controller, balance);\n    }\n\n    // Withdraw partial funds, normally used with a vault withdrawal\n    function withdraw(uint256 _amount) external {\n        require(msg.sender == controller, \"!controller\");\n        uint256 _balance = IERC20(want).balanceOf(address(this));\n        if (_balance < _amount) {\n            _amount = _withdrawSome(_amount.sub(_balance));\n            _amount = _amount.add(_balance);\n        }\n\n        uint256 _fee = _amount.mul(fee).div(max);\n        IERC20(want).safeTransfer(IController(controller).rewards(), _fee);\n        address _vault = IController(controller).vaults(address(want));\n        require(_vault != address(0), \"!vault\"); // additional protection so we don't burn the funds\n\n        IERC20(want).safeTransfer(_vault, _amount.sub(_fee));\n    }\n\n    // Withdraw all funds, normally used when migrating strategies\n    function withdrawAll() external returns (uint256 balance) {\n        require(msg.sender == controller, \"!controller\");\n        _withdrawAll();\n        balance = IERC20(want).balanceOf(address(this));\n\n        address _vault = IController(controller).vaults(address(want));\n        require(_vault != address(0), \"!vault\"); // additional protection so we don't burn the funds\n        IERC20(want).safeTransfer(_vault, balance);\n    }\n\n    function _withdrawAll() internal {\n        IGovernance(gov).exit();\n    }\n\n    function harvest() public {\n        require(msg.sender == strategist || msg.sender == governance || msg.sender == tx.origin, \"!authorized\");\n        IGovernance(gov).getReward();\n        uint256 _balance = IERC20(reward).balanceOf(address(this));\n        if (_balance > 0) {\n            IERC20(reward).safeApprove(zap, 0);\n            IERC20(reward).safeApprove(zap, _balance);\n            Zap(zap).remove_liquidity_one_coin(_balance, 2, 0);\n        }\n        _balance = IERC20(usdt).balanceOf(address(this));\n        if (_balance > 0) {\n            IERC20(usdt).safeApprove(uni, 0);\n            IERC20(usdt).safeApprove(uni, _balance);\n\n            address[] memory path = new address[](3);\n            path[0] = usdt;\n            path[1] = weth;\n            path[2] = want;\n\n            Uni(uni).swapExactTokensForTokens(_balance, uint256(0), path, address(this), now.add(1800));\n        }\n        if (IERC20(want).balanceOf(address(this)) > 0) {\n            deposit();\n        }\n    }\n\n    function _withdrawSome(uint256 _amount) internal returns (uint256) {\n        IGovernance(gov).withdraw(_amount);\n        return _amount;\n    }\n\n    function balanceOfWant() public view returns (uint256) {\n        return IERC20(want).balanceOf(address(this));\n    }\n\n    function balanceOfYGov() public view returns (uint256) {\n        return IGovernance(gov).balanceOf(address(this));\n    }\n\n    function balanceOf() public view returns (uint256) {\n        return balanceOfWant().add(balanceOfYGov());\n    }\n\n    function voteFor(uint256 _proposal) external {\n        require(msg.sender == governance, \"!governance\");\n        IGovernance(gov).voteFor(_proposal);\n    }\n\n    function voteAgainst(uint256 _proposal) external {\n        require(msg.sender == governance, \"!governance\");\n        IGovernance(gov).voteAgainst(_proposal);\n    }\n\n    function setGovernance(address _governance) external {\n        require(msg.sender == governance, \"!governance\");\n        governance = _governance;\n    }\n\n    function setController(address _controller) external {\n        require(msg.sender == governance, \"!governance\");\n        controller = _controller;\n    }\n}\n",
  "sourcePath": "/Users/sbacha/V2yearn/contracts/strategies/StrategyYFIGovernance.sol",
  "compiler": {
    "name": "solc",
    "version": "0.5.17+commit.d19bba13.Emscripten.clang"
  },
  "schemaVersion": "3.1.0",
  "updatedAt": "2020-11-01T01:33:12.860Z",
  "devdoc": {
    "methods": {}
  },
  "userdoc": {
    "methods": {}
  }
}