{
  "contractName": "StrategyDForceUSDT",
  "abi": [
    {
      "inputs": [
        {
          "internalType": "address",
          "name": "_controller",
          "type": "address"
        }
      ],
      "payable": false,
      "stateMutability": "nonpayable",
      "type": "constructor"
    },
    {
      "constant": true,
      "inputs": [],
      "name": "controller",
      "outputs": [
        {
          "internalType": "address",
          "name": "",
          "type": "address"
        }
      ],
      "payable": false,
      "stateMutability": "view",
      "type": "function"
    },
    {
      "constant": true,
      "inputs": [],
      "name": "d",
      "outputs": [
        {
          "internalType": "address",
          "name": "",
          "type": "address"
        }
      ],
      "payable": false,
      "stateMutability": "view",
      "type": "function"
    },
    {
      "constant": true,
      "inputs": [],
      "name": "df",
      "outputs": [
        {
          "internalType": "address",
          "name": "",
          "type": "address"
        }
      ],
      "payable": false,
      "stateMutability": "view",
      "type": "function"
    },
    {
      "constant": true,
      "inputs": [],
      "name": "governance",
      "outputs": [
        {
          "internalType": "address",
          "name": "",
          "type": "address"
        }
      ],
      "payable": false,
      "stateMutability": "view",
      "type": "function"
    },
    {
      "constant": true,
      "inputs": [],
      "name": "performanceFee",
      "outputs": [
        {
          "internalType": "uint256",
          "name": "",
          "type": "uint256"
        }
      ],
      "payable": false,
      "stateMutability": "view",
      "type": "function"
    },
    {
      "constant": true,
      "inputs": [],
      "name": "performanceMax",
      "outputs": [
        {
          "internalType": "uint256",
          "name": "",
          "type": "uint256"
        }
      ],
      "payable": false,
      "stateMutability": "view",
      "type": "function"
    },
    {
      "constant": true,
      "inputs": [],
      "name": "pool",
      "outputs": [
        {
          "internalType": "address",
          "name": "",
          "type": "address"
        }
      ],
      "payable": false,
      "stateMutability": "view",
      "type": "function"
    },
    {
      "constant": true,
      "inputs": [],
      "name": "strategist",
      "outputs": [
        {
          "internalType": "address",
          "name": "",
          "type": "address"
        }
      ],
      "payable": false,
      "stateMutability": "view",
      "type": "function"
    },
    {
      "constant": true,
      "inputs": [],
      "name": "uni",
      "outputs": [
        {
          "internalType": "address",
          "name": "",
          "type": "address"
        }
      ],
      "payable": false,
      "stateMutability": "view",
      "type": "function"
    },
    {
      "constant": true,
      "inputs": [],
      "name": "want",
      "outputs": [
        {
          "internalType": "address",
          "name": "",
          "type": "address"
        }
      ],
      "payable": false,
      "stateMutability": "view",
      "type": "function"
    },
    {
      "constant": true,
      "inputs": [],
      "name": "weth",
      "outputs": [
        {
          "internalType": "address",
          "name": "",
          "type": "address"
        }
      ],
      "payable": false,
      "stateMutability": "view",
      "type": "function"
    },
    {
      "constant": true,
      "inputs": [],
      "name": "withdrawalFee",
      "outputs": [
        {
          "internalType": "uint256",
          "name": "",
          "type": "uint256"
        }
      ],
      "payable": false,
      "stateMutability": "view",
      "type": "function"
    },
    {
      "constant": true,
      "inputs": [],
      "name": "withdrawalMax",
      "outputs": [
        {
          "internalType": "uint256",
          "name": "",
          "type": "uint256"
        }
      ],
      "payable": false,
      "stateMutability": "view",
      "type": "function"
    },
    {
      "constant": true,
      "inputs": [],
      "name": "getName",
      "outputs": [
        {
          "internalType": "string",
          "name": "",
          "type": "string"
        }
      ],
      "payable": false,
      "stateMutability": "pure",
      "type": "function"
    },
    {
      "constant": false,
      "inputs": [
        {
          "internalType": "address",
          "name": "_strategist",
          "type": "address"
        }
      ],
      "name": "setStrategist",
      "outputs": [],
      "payable": false,
      "stateMutability": "nonpayable",
      "type": "function"
    },
    {
      "constant": false,
      "inputs": [
        {
          "internalType": "uint256",
          "name": "_withdrawalFee",
          "type": "uint256"
        }
      ],
      "name": "setWithdrawalFee",
      "outputs": [],
      "payable": false,
      "stateMutability": "nonpayable",
      "type": "function"
    },
    {
      "constant": false,
      "inputs": [
        {
          "internalType": "uint256",
          "name": "_performanceFee",
          "type": "uint256"
        }
      ],
      "name": "setPerformanceFee",
      "outputs": [],
      "payable": false,
      "stateMutability": "nonpayable",
      "type": "function"
    },
    {
      "constant": false,
      "inputs": [],
      "name": "deposit",
      "outputs": [],
      "payable": false,
      "stateMutability": "nonpayable",
      "type": "function"
    },
    {
      "constant": false,
      "inputs": [
        {
          "internalType": "uint256",
          "name": "_amount",
          "type": "uint256"
        }
      ],
      "name": "withdraw",
      "outputs": [],
      "payable": false,
      "stateMutability": "nonpayable",
      "type": "function"
    },
    {
      "constant": false,
      "inputs": [
        {
          "internalType": "contract IERC20",
          "name": "_asset",
          "type": "address"
        }
      ],
      "name": "withdraw",
      "outputs": [
        {
          "internalType": "uint256",
          "name": "balance",
          "type": "uint256"
        }
      ],
      "payable": false,
      "stateMutability": "nonpayable",
      "type": "function"
    },
    {
      "constant": false,
      "inputs": [],
      "name": "withdrawAll",
      "outputs": [
        {
          "internalType": "uint256",
          "name": "balance",
          "type": "uint256"
        }
      ],
      "payable": false,
      "stateMutability": "nonpayable",
      "type": "function"
    },
    {
      "constant": false,
      "inputs": [],
      "name": "harvest",
      "outputs": [],
      "payable": false,
      "stateMutability": "nonpayable",
      "type": "function"
    },
    {
      "constant": true,
      "inputs": [],
      "name": "balanceOfWant",
      "outputs": [
        {
          "internalType": "uint256",
          "name": "",
          "type": "uint256"
        }
      ],
      "payable": false,
      "stateMutability": "view",
      "type": "function"
    },
    {
      "constant": true,
      "inputs": [],
      "name": "balanceOfPool",
      "outputs": [
        {
          "internalType": "uint256",
          "name": "",
          "type": "uint256"
        }
      ],
      "payable": false,
      "stateMutability": "view",
      "type": "function"
    },
    {
      "constant": true,
      "inputs": [],
      "name": "getExchangeRate",
      "outputs": [
        {
          "internalType": "uint256",
          "name": "",
          "type": "uint256"
        }
      ],
      "payable": false,
      "stateMutability": "view",
      "type": "function"
    },
    {
      "constant": true,
      "inputs": [],
      "name": "balanceOfD",
      "outputs": [
        {
          "internalType": "uint256",
          "name": "",
          "type": "uint256"
        }
      ],
      "payable": false,
      "stateMutability": "view",
      "type": "function"
    },
    {
      "constant": true,
      "inputs": [],
      "name": "balanceOf",
      "outputs": [
        {
          "internalType": "uint256",
          "name": "",
          "type": "uint256"
        }
      ],
      "payable": false,
      "stateMutability": "view",
      "type": "function"
    },
    {
      "constant": false,
      "inputs": [
        {
          "internalType": "address",
          "name": "_governance",
          "type": "address"
        }
      ],
      "name": "setGovernance",
      "outputs": [],
      "payable": false,
      "stateMutability": "nonpayable",
      "type": "function"
    },
    {
      "constant": false,
      "inputs": [
        {
          "internalType": "address",
          "name": "_controller",
          "type": "address"
        }
      ],
      "name": "setController",
      "outputs": [],
      "payable": false,
      "stateMutability": "nonpayable",
      "type": "function"
    }
  ],
  "bytecode": "0x6080604052611388600055603260015534801561001b57600080fd5b506040516122893803806122898339818101604052602081101561003e57600080fd5b505160028054336001600160a01b03199182168117909255600480548216909217909155600380549091166001600160a01b03909216919091179055612200806100896000396000f3fe608060405234801561001057600080fd5b50600436106101cf5760003560e01c80638778878211610104578063c1a3d44c116100a2578063d5c1ff7311610071578063d5c1ff7314610321578063e6aa216c146103f8578063edc9af9514610400578063f77c479114610408576101cf565b8063c1a3d44c146103ba578063c4369743146103c2578063c7b9d530146103ca578063d0e30db0146103f0576101cf565b806392eefe9b116100de57806392eefe9b146103495780639d35f5941461036f578063ab033ea914610377578063ac1e50251461039d576101cf565b806387788782146103315780638a054ac2146103395780638bc7e8c414610341576101cf565b80634641257d1161017157806370897b231161014b57806370897b23146102fc578063722713f7146103195780637cc7911314610321578063853828b614610329576101cf565b80634641257d146102c657806351cff8d9146102ce5780635aa6e675146102f4576101cf565b80631f1fcd51116101ad5780631f1fcd511461028f5780631fe4a686146102975780632e1a7d4d1461029f5780633fc8cef3146102be576101cf565b806311588086146101d457806316f0115b146101ee57806317d7de7c14610212575b600080fd5b6101dc610410565b60408051918252519081900360200190f35b6101f661052e565b604080516001600160a01b039092168252519081900360200190f35b61021a610546565b6040805160208082528351818301528351919283929083019185019080838360005b8381101561025457818101518382015260200161023c565b50505050905090810190601f1680156102815780820380516001836020036101000a031916815260200191505b509250505060405180910390f35b6101f6610572565b6101f6610584565b6102bc600480360360208110156102b557600080fd5b5035610593565b005b6101f661084b565b6102bc610863565b6101dc600480360360208110156102e457600080fd5b50356001600160a01b0316610cf0565b6101f6610e7f565b6102bc6004803603602081101561031257600080fd5b5035610e8e565b6101dc610ee0565b6101dc610f0c565b6101dc610f12565b6101dc6110d5565b6101f66110db565b6101dc6110ed565b6102bc6004803603602081101561035f57600080fd5b50356001600160a01b03166110f3565b6101f6611162565b6102bc6004803603602081101561038d57600080fd5b50356001600160a01b031661117a565b6102bc600480360360208110156103b357600080fd5b50356111e9565b6101dc61123b565b6101dc6112bb565b6102bc600480360360208110156103e057600080fd5b50356001600160a01b031661130a565b6102bc611379565b6101dc611623565b6101f661166c565b6101f6611684565b6000610529670de0b6b3a764000061051d60008051602061210b8339815191526001600160a01b031663e6aa216c6040518163ffffffff1660e01b815260040160206040518083038186803b15801561046857600080fd5b505afa15801561047c573d6000803e3d6000fd5b505050506040513d602081101561049257600080fd5b5051604080516370a0823160e01b8152306004820152905173324eebdaa45829c6a8ee903afbc7b61af48538df916370a08231916024808301926020929190829003018186803b1580156104e557600080fd5b505afa1580156104f9573d6000803e3d6000fd5b505050506040513d602081101561050f57600080fd5b50519063ffffffff61169316565b9063ffffffff6116f516565b905090565b73324eebdaa45829c6a8ee903afbc7b61af48538df81565b60408051808201909152601281527114dd1c985d1959de51119bdc98d95554d11560721b602082015290565b60008051602061214c83398151915281565b6004546001600160a01b031681565b6003546001600160a01b031633146105e0576040805162461bcd60e51b815260206004820152600b60248201526a10b1b7b73a3937b63632b960a91b604482015290519081900360640190fd5b604080516370a0823160e01b8152306004820152905160009160008051602061214c833981519152916370a0823191602480820192602092909190829003018186803b15801561062f57600080fd5b505afa158015610643573d6000803e3d6000fd5b505050506040513d602081101561065957600080fd5b50519050818110156106925761067d610678838363ffffffff61173716565b611779565b915061068f828263ffffffff611b0216565b91505b60006106af61271061051d6001548661169390919063ffffffff16565b905061074a600360009054906101000a90046001600160a01b03166001600160a01b0316639ec5a8946040518163ffffffff1660e01b815260040160206040518083038186803b15801561070257600080fd5b505afa158015610716573d6000803e3d6000fd5b505050506040513d602081101561072c57600080fd5b505160008051602061214c833981519152908363ffffffff611b5c16565b60035460408051632988bb9f60e21b815260008051602061214c833981519152600482015290516000926001600160a01b03169163a622ee7c916024808301926020929190829003018186803b1580156107a357600080fd5b505afa1580156107b7573d6000803e3d6000fd5b505050506040513d60208110156107cd57600080fd5b505190506001600160a01b038116610815576040805162461bcd60e51b8152602060048201526006602482015265085d985d5b1d60d21b604482015290519081900360640190fd5b61084581610829868563ffffffff61173716565b60008051602061214c833981519152919063ffffffff611b5c16565b50505050565b73c02aaa39b223fe8d0a0e5c4f27ead9083c756cc281565b6004546001600160a01b031633148061088657506002546001600160a01b031633145b6108c5576040805162461bcd60e51b815260206004820152600b60248201526a08585d5d1a1bdc9a5e995960aa1b604482015290519081900360640190fd5b73324eebdaa45829c6a8ee903afbc7b61af48538df6001600160a01b0316633d18b9126040518163ffffffff1660e01b8152600401600060405180830381600087803b15801561091457600080fd5b505af1158015610928573d6000803e3d6000fd5b5050604080516370a0823160e01b815230600482015290516000935073431ad2ff6a9c365805ebad47ee021148d6f7dbe092506370a0823191602480820192602092909190829003018186803b15801561098157600080fd5b505afa158015610995573d6000803e3d6000fd5b505050506040513d60208110156109ab57600080fd5b505190508015610bef576109ef73431ad2ff6a9c365805ebad47ee021148d6f7dbe0737a250d5630b4cf539739df2c5dacb4c659f2488d600063ffffffff611bae16565b610a2873431ad2ff6a9c365805ebad47ee021148d6f7dbe0737a250d5630b4cf539739df2c5dacb4c659f2488d8363ffffffff611bae16565b6040805160038082526080820190925260609160208201838038833901905050905073431ad2ff6a9c365805ebad47ee021148d6f7dbe081600081518110610a6c57fe5b60200260200101906001600160a01b031690816001600160a01b03168152505073c02aaa39b223fe8d0a0e5c4f27ead9083c756cc281600181518110610aae57fe5b60200260200101906001600160a01b031690816001600160a01b03168152505060008051602061214c83398151915281600281518110610aea57fe5b6001600160a01b0390921660209283029190910190910152737a250d5630b4cf539739df2c5dacb4c659f2488d6338ed17398360008430610b334261070863ffffffff611b0216565b6040518663ffffffff1660e01b81526004018086815260200185815260200180602001846001600160a01b03166001600160a01b03168152602001838152602001828103825285818151815260200191508051906020019060200280838360005b83811015610bac578181015183820152602001610b94565b505050509050019650505050505050600060405180830381600087803b158015610bd557600080fd5b505af1158015610be9573d6000803e3d6000fd5b50505050505b604080516370a0823160e01b8152306004820152905160009160008051602061214c833981519152916370a0823191602480820192602092909190829003018186803b158015610c3e57600080fd5b505afa158015610c52573d6000803e3d6000fd5b505050506040513d6020811015610c6857600080fd5b505190508015610cec576000610c8f61271061051d6000548561169390919063ffffffff16565b9050610ce2600360009054906101000a90046001600160a01b03166001600160a01b0316639ec5a8946040518163ffffffff1660e01b815260040160206040518083038186803b15801561070257600080fd5b610cea611379565b505b5050565b6003546000906001600160a01b03163314610d40576040805162461bcd60e51b815260206004820152600b60248201526a10b1b7b73a3937b63632b960a91b604482015290519081900360640190fd5b60008051602061214c8339815191526001600160a01b0383161415610d95576040805162461bcd60e51b815260206004808301919091526024820152631dd85b9d60e21b604482015290519081900360640190fd5b60008051602061210b8339815191526001600160a01b0383161415610de5576040805162461bcd60e51b81526020600482015260016024820152601960fa1b604482015290519081900360640190fd5b604080516370a0823160e01b815230600482015290516001600160a01b038416916370a08231916024808301926020929190829003018186803b158015610e2b57600080fd5b505afa158015610e3f573d6000803e3d6000fd5b505050506040513d6020811015610e5557600080fd5b5051600354909150610e7a906001600160a01b0384811691168363ffffffff611b5c16565b919050565b6002546001600160a01b031681565b6002546001600160a01b03163314610edb576040805162461bcd60e51b815260206004820152600b60248201526a21676f7665726e616e636560a81b604482015290519081900360640190fd5b600055565b6000610529610eed610410565b610f00610ef86112bb565b610f0061123b565b9063ffffffff611b0216565b61271081565b6003546000906001600160a01b03163314610f62576040805162461bcd60e51b815260206004820152600b60248201526a10b1b7b73a3937b63632b960a91b604482015290519081900360640190fd5b610f6a611cc1565b604080516370a0823160e01b8152306004820152905160008051602061214c833981519152916370a08231916024808301926020929190829003018186803b158015610fb557600080fd5b505afa158015610fc9573d6000803e3d6000fd5b505050506040513d6020811015610fdf57600080fd5b505160035460408051632988bb9f60e21b815260008051602061214c833981519152600482015290519293506000926001600160a01b039092169163a622ee7c91602480820192602092909190829003018186803b15801561104057600080fd5b505afa158015611054573d6000803e3d6000fd5b505050506040513d602081101561106a57600080fd5b505190506001600160a01b0381166110b2576040805162461bcd60e51b8152602060048201526006602482015265085d985d5b1d60d21b604482015290519081900360640190fd5b6110d160008051602061214c833981519152828463ffffffff611b5c16565b5090565b60005481565b60008051602061210b83398151915281565b60015481565b6002546001600160a01b03163314611140576040805162461bcd60e51b815260206004820152600b60248201526a21676f7665726e616e636560a81b604482015290519081900360640190fd5b600380546001600160a01b0319166001600160a01b0392909216919091179055565b73431ad2ff6a9c365805ebad47ee021148d6f7dbe081565b6002546001600160a01b031633146111c7576040805162461bcd60e51b815260206004820152600b60248201526a21676f7665726e616e636560a81b604482015290519081900360640190fd5b600280546001600160a01b0319166001600160a01b0392909216919091179055565b6002546001600160a01b03163314611236576040805162461bcd60e51b815260206004820152600b60248201526a21676f7665726e616e636560a81b604482015290519081900360640190fd5b600155565b604080516370a0823160e01b8152306004820152905160009160008051602061214c833981519152916370a0823191602480820192602092909190829003018186803b15801561128a57600080fd5b505afa15801561129e573d6000803e3d6000fd5b505050506040513d60208110156112b457600080fd5b5051905090565b60408051633aecd0e360e01b8152306004820152905160009160008051602061210b83398151915291633aecd0e391602480820192602092909190829003018186803b15801561128a57600080fd5b6002546001600160a01b03163314611357576040805162461bcd60e51b815260206004820152600b60248201526a21676f7665726e616e636560a81b604482015290519081900360640190fd5b600480546001600160a01b0319166001600160a01b0392909216919091179055565b604080516370a0823160e01b8152306004820152905160009160008051602061214c833981519152916370a0823191602480820192602092909190829003018186803b1580156113c857600080fd5b505afa1580156113dc573d6000803e3d6000fd5b505050506040513d60208110156113f257600080fd5b5051905080156114c35761142a60008051602061214c83398151915260008051602061210b833981519152600063ffffffff611bae16565b61145760008051602061214c83398151915260008051602061210b8339815191528363ffffffff611bae16565b604080516340c10f1960e01b815230600482015260248101839052905160008051602061210b833981519152916340c10f1991604480830192600092919082900301818387803b1580156114aa57600080fd5b505af11580156114be573d6000803e3d6000fd5b505050505b604080516370a0823160e01b8152306004820152905160009160008051602061210b833981519152916370a0823191602480820192602092909190829003018186803b15801561151257600080fd5b505afa158015611526573d6000803e3d6000fd5b505050506040513d602081101561153c57600080fd5b505190508015610cec5761157a60008051602061210b83398151915273324eebdaa45829c6a8ee903afbc7b61af48538df600063ffffffff611bae16565b6115ad60008051602061210b83398151915273324eebdaa45829c6a8ee903afbc7b61af48538df8363ffffffff611bae16565b73324eebdaa45829c6a8ee903afbc7b61af48538df6001600160a01b031663a694fc3a826040518263ffffffff1660e01b815260040180828152602001915050600060405180830381600087803b15801561160757600080fd5b505af115801561161b573d6000803e3d6000fd5b505050505050565b600060008051602061210b8339815191526001600160a01b031663e6aa216c6040518163ffffffff1660e01b815260040160206040518083038186803b15801561128a57600080fd5b737a250d5630b4cf539739df2c5dacb4c659f2488d81565b6003546001600160a01b031681565b6000826116a2575060006116ef565b828202828482816116af57fe5b04146116ec5760405162461bcd60e51b815260040180806020018281038252602181526020018061212b6021913960400191505060405180910390fd5b90505b92915050565b60006116ec83836040518060400160405280601a81526020017f536166654d6174683a206469766973696f6e206279207a65726f000000000000815250611e1a565b60006116ec83836040518060400160405280601e81526020017f536166654d6174683a207375627472616374696f6e206f766572666c6f770000815250611ebc565b60008061180a60008051602061210b8339815191526001600160a01b031663e6aa216c6040518163ffffffff1660e01b815260040160206040518083038186803b1580156117c657600080fd5b505afa1580156117da573d6000803e3d6000fd5b505050506040513d60208110156117f057600080fd5b505161051d85670de0b6b3a764000063ffffffff61169316565b604080516370a0823160e01b8152306004820152905191925060009160008051602061210b833981519152916370a08231916024808301926020929190829003018186803b15801561185b57600080fd5b505afa15801561186f573d6000803e3d6000fd5b505050506040513d602081101561188557600080fd5b505160408051632e1a7d4d60e01b815260048101859052905191925073324eebdaa45829c6a8ee903afbc7b61af48538df91632e1a7d4d9160248082019260009290919082900301818387803b1580156118de57600080fd5b505af11580156118f2573d6000803e3d6000fd5b5050604080516370a0823160e01b815230600482015290516000935060008051602061210b83398151915292506370a0823191602480820192602092909190829003018186803b15801561194557600080fd5b505afa158015611959573d6000803e3d6000fd5b505050506040513d602081101561196f57600080fd5b505190506000611985828463ffffffff61173716565b604080516370a0823160e01b8152306004820152905191925060008051602061214c833981519152916370a0823191602480820192602092909190829003018186803b1580156119d457600080fd5b505afa1580156119e8573d6000803e3d6000fd5b505050506040513d60208110156119fe57600080fd5b5051604080516301e9a69560e41b815230600482015260248101849052905191945060008051602061210b83398151915291631e9a69509160448082019260009290919082900301818387803b158015611a5757600080fd5b505af1158015611a6b573d6000803e3d6000fd5b5050604080516370a0823160e01b8152306004820152905160008051602061214c83398151915293506370a0823192506024808301926020929190829003018186803b158015611aba57600080fd5b505afa158015611ace573d6000803e3d6000fd5b505050506040513d6020811015611ae457600080fd5b50519150611af8828463ffffffff61173716565b9695505050505050565b6000828201838110156116ec576040805162461bcd60e51b815260206004820152601b60248201527f536166654d6174683a206164646974696f6e206f766572666c6f770000000000604482015290519081900360640190fd5b604080516001600160a01b038416602482015260448082018490528251808303909101815260649091019091526020810180516001600160e01b031663a9059cbb60e01b179052610cea908490611f16565b801580611c34575060408051636eb1769f60e11b81523060048201526001600160a01b03848116602483015291519185169163dd62ed3e91604480820192602092909190829003018186803b158015611c0657600080fd5b505afa158015611c1a573d6000803e3d6000fd5b505050506040513d6020811015611c3057600080fd5b5051155b611c6f5760405162461bcd60e51b81526004018080602001828103825260368152602001806121966036913960400191505060405180910390fd5b604080516001600160a01b038416602482015260448082018490528251808303909101815260649091019091526020810180516001600160e01b031663095ea7b360e01b179052610cea908490611f16565b73324eebdaa45829c6a8ee903afbc7b61af48538df6001600160a01b031663e9fad8ee6040518163ffffffff1660e01b8152600401600060405180830381600087803b158015611d1057600080fd5b505af1158015611d24573d6000803e3d6000fd5b5050604080516370a0823160e01b815230600482015290516000935060008051602061210b83398151915292506370a0823191602480820192602092909190829003018186803b158015611d7757600080fd5b505afa158015611d8b573d6000803e3d6000fd5b505050506040513d6020811015611da157600080fd5b505190508015611e1757604080516301e9a69560e41b815230600482015260248101839052905160008051602061210b83398151915291631e9a695091604480830192600092919082900301818387803b158015611dfe57600080fd5b505af1158015611e12573d6000803e3d6000fd5b505050505b50565b60008183611ea65760405162461bcd60e51b81526004018080602001828103825283818151815260200191508051906020019080838360005b83811015611e6b578181015183820152602001611e53565b50505050905090810190601f168015611e985780820380516001836020036101000a031916815260200191505b509250505060405180910390fd5b506000838581611eb257fe5b0495945050505050565b60008184841115611f0e5760405162461bcd60e51b8152602060048201818152835160248401528351909283926044909101919085019080838360008315611e6b578181015183820152602001611e53565b505050900390565b611f28826001600160a01b03166120ce565b611f79576040805162461bcd60e51b815260206004820152601f60248201527f5361666545524332303a2063616c6c20746f206e6f6e2d636f6e747261637400604482015290519081900360640190fd5b60006060836001600160a01b0316836040518082805190602001908083835b60208310611fb75780518252601f199092019160209182019101611f98565b6001836020036101000a0380198251168184511680821785525050505050509050019150506000604051808303816000865af19150503d8060008114612019576040519150601f19603f3d011682016040523d82523d6000602084013e61201e565b606091505b509150915081612075576040805162461bcd60e51b815260206004820181905260248201527f5361666545524332303a206c6f772d6c6576656c2063616c6c206661696c6564604482015290519081900360640190fd5b8051156108455780806020019051602081101561209157600080fd5b50516108455760405162461bcd60e51b815260040180806020018281038252602a81526020018061216c602a913960400191505060405180910390fd5b6000813f7fc5d2460186f7233c927e7db2dcc703c0e500b653ca82273b7bfad8045d85a47081811480159061210257508115155b94935050505056fe000000000000000000000000868277d475e0e475e38ec5cda2d9c83b5e1d9fc8536166654d6174683a206d756c7469706c69636174696f6e206f766572666c6f77000000000000000000000000dac17f958d2ee523a2206206994597c13d831ec75361666545524332303a204552433230206f7065726174696f6e20646964206e6f7420737563636565645361666545524332303a20617070726f76652066726f6d206e6f6e2d7a65726f20746f206e6f6e2d7a65726f20616c6c6f77616e6365a265627a7a72315820db8367036f07ff06260b4cf9509913b97c28b67d7881f90e4e4d2795e98265d864736f6c63430005110032",
  "source": "// SPDX-License-Identifier: MIT\n\npragma solidity ^0.5.17;\n\nimport \"@openzeppelinV2/contracts/token/ERC20/IERC20.sol\";\nimport \"@openzeppelinV2/contracts/math/SafeMath.sol\";\nimport \"@openzeppelinV2/contracts/utils/Address.sol\";\nimport \"@openzeppelinV2/contracts/token/ERC20/SafeERC20.sol\";\n\nimport \"../../interfaces/dforce/Rewards.sol\";\nimport \"../../interfaces/dforce/Token.sol\";\nimport \"../../interfaces/uniswap/Uni.sol\";\n\nimport \"../../interfaces/yearn/IController.sol\";\n\ncontract StrategyDForceUSDT {\n    using SafeERC20 for IERC20;\n    using Address for address;\n    using SafeMath for uint256;\n\n    address public constant want = address(0xdAC17F958D2ee523a2206206994597C13D831ec7);\n    address public constant d = address(0x868277d475E0e475E38EC5CdA2d9C83B5E1D9fc8);\n    address public constant pool = address(0x324EebDAa45829c6A8eE903aFBc7B61AF48538df);\n    address public constant df = address(0x431ad2ff6a9C365805eBaD47Ee021148d6f7DBe0);\n    address public constant uni = address(0x7a250d5630B4cF539739dF2C5dAcb4c659F2488D);\n    address public constant weth = address(0xC02aaA39b223FE8D0A0e5C4F27eAD9083C756Cc2); // used for df <> weth <> usdc route\n\n    uint256 public performanceFee = 5000;\n    uint256 public constant performanceMax = 10000;\n\n    uint256 public withdrawalFee = 50;\n    uint256 public constant withdrawalMax = 10000;\n\n    address public governance;\n    address public controller;\n    address public strategist;\n\n    constructor(address _controller) public {\n        governance = msg.sender;\n        strategist = msg.sender;\n        controller = _controller;\n    }\n\n    function getName() external pure returns (string memory) {\n        return \"StrategyDForceUSDT\";\n    }\n\n    function setStrategist(address _strategist) external {\n        require(msg.sender == governance, \"!governance\");\n        strategist = _strategist;\n    }\n\n    function setWithdrawalFee(uint256 _withdrawalFee) external {\n        require(msg.sender == governance, \"!governance\");\n        withdrawalFee = _withdrawalFee;\n    }\n\n    function setPerformanceFee(uint256 _performanceFee) external {\n        require(msg.sender == governance, \"!governance\");\n        performanceFee = _performanceFee;\n    }\n\n    function deposit() public {\n        uint256 _want = IERC20(want).balanceOf(address(this));\n        if (_want > 0) {\n            IERC20(want).safeApprove(d, 0);\n            IERC20(want).safeApprove(d, _want);\n            dERC20(d).mint(address(this), _want);\n        }\n\n        uint256 _d = IERC20(d).balanceOf(address(this));\n        if (_d > 0) {\n            IERC20(d).safeApprove(pool, 0);\n            IERC20(d).safeApprove(pool, _d);\n            dRewards(pool).stake(_d);\n        }\n    }\n\n    // Controller only function for creating additional rewards from dust\n    function withdraw(IERC20 _asset) external returns (uint256 balance) {\n        require(msg.sender == controller, \"!controller\");\n        require(want != address(_asset), \"want\");\n        require(d != address(_asset), \"d\");\n        balance = _asset.balanceOf(address(this));\n        _asset.safeTransfer(controller, balance);\n    }\n\n    // Withdraw partial funds, normally used with a vault withdrawal\n    function withdraw(uint256 _amount) external {\n        require(msg.sender == controller, \"!controller\");\n        uint256 _balance = IERC20(want).balanceOf(address(this));\n        if (_balance < _amount) {\n            _amount = _withdrawSome(_amount.sub(_balance));\n            _amount = _amount.add(_balance);\n        }\n\n        uint256 _fee = _amount.mul(withdrawalFee).div(withdrawalMax);\n\n        IERC20(want).safeTransfer(IController(controller).rewards(), _fee);\n        address _vault = IController(controller).vaults(address(want));\n        require(_vault != address(0), \"!vault\"); // additional protection so we don't burn the funds\n\n        IERC20(want).safeTransfer(_vault, _amount.sub(_fee));\n    }\n\n    // Withdraw all funds, normally used when migrating strategies\n    function withdrawAll() external returns (uint256 balance) {\n        require(msg.sender == controller, \"!controller\");\n        _withdrawAll();\n\n        balance = IERC20(want).balanceOf(address(this));\n\n        address _vault = IController(controller).vaults(address(want));\n        require(_vault != address(0), \"!vault\"); // additional protection so we don't burn the funds\n        IERC20(want).safeTransfer(_vault, balance);\n    }\n\n    function _withdrawAll() internal {\n        dRewards(pool).exit();\n        uint256 _d = IERC20(d).balanceOf(address(this));\n        if (_d > 0) {\n            dERC20(d).redeem(address(this), _d);\n        }\n    }\n\n    function harvest() public {\n        require(msg.sender == strategist || msg.sender == governance, \"!authorized\");\n        dRewards(pool).getReward();\n        uint256 _df = IERC20(df).balanceOf(address(this));\n        if (_df > 0) {\n            IERC20(df).safeApprove(uni, 0);\n            IERC20(df).safeApprove(uni, _df);\n\n            address[] memory path = new address[](3);\n            path[0] = df;\n            path[1] = weth;\n            path[2] = want;\n\n            Uni(uni).swapExactTokensForTokens(_df, uint256(0), path, address(this), now.add(1800));\n        }\n        uint256 _want = IERC20(want).balanceOf(address(this));\n        if (_want > 0) {\n            uint256 _fee = _want.mul(performanceFee).div(performanceMax);\n            IERC20(want).safeTransfer(IController(controller).rewards(), _fee);\n            deposit();\n        }\n    }\n\n    function _withdrawSome(uint256 _amount) internal returns (uint256) {\n        uint256 _d = _amount.mul(1e18).div(dERC20(d).getExchangeRate());\n        uint256 _before = IERC20(d).balanceOf(address(this));\n        dRewards(pool).withdraw(_d);\n        uint256 _after = IERC20(d).balanceOf(address(this));\n        uint256 _withdrew = _after.sub(_before);\n        _before = IERC20(want).balanceOf(address(this));\n        dERC20(d).redeem(address(this), _withdrew);\n        _after = IERC20(want).balanceOf(address(this));\n        _withdrew = _after.sub(_before);\n        return _withdrew;\n    }\n\n    function balanceOfWant() public view returns (uint256) {\n        return IERC20(want).balanceOf(address(this));\n    }\n\n    function balanceOfPool() public view returns (uint256) {\n        return (dRewards(pool).balanceOf(address(this))).mul(dERC20(d).getExchangeRate()).div(1e18);\n    }\n\n    function getExchangeRate() public view returns (uint256) {\n        return dERC20(d).getExchangeRate();\n    }\n\n    function balanceOfD() public view returns (uint256) {\n        return dERC20(d).getTokenBalance(address(this));\n    }\n\n    function balanceOf() public view returns (uint256) {\n        return balanceOfWant().add(balanceOfD()).add(balanceOfPool());\n    }\n\n    function setGovernance(address _governance) external {\n        require(msg.sender == governance, \"!governance\");\n        governance = _governance;\n    }\n\n    function setController(address _controller) external {\n        require(msg.sender == governance, \"!governance\");\n        controller = _controller;\n    }\n}\n",
  "sourcePath": "/Users/sbacha/yearn-protocol-nodejs/contracts/strategies/StrategyDForceUSDT.sol",
  "compiler": {
    "name": "solc",
    "version": "0.5.17+commit.d19bba13.Emscripten.clang"
  },
  "schemaVersion": "3.3.4",
  "updatedAt": "2021-02-12T05:40:28.211Z",
  "devdoc": {
    "methods": {}
  },
  "userdoc": {
    "methods": {}
  }
}