{
  "contractName": "StrategymUSDCurve",
  "abi": [
    {
      "inputs": [
        {
          "internalType": "address",
          "name": "_controller",
          "type": "address"
        }
      ],
      "payable": false,
      "stateMutability": "nonpayable",
      "type": "constructor"
    },
    {
      "constant": true,
      "inputs": [],
      "name": "DENOMINATOR",
      "outputs": [
        {
          "internalType": "uint256",
          "name": "",
          "type": "uint256"
        }
      ],
      "payable": false,
      "stateMutability": "view",
      "type": "function"
    },
    {
      "constant": true,
      "inputs": [],
      "name": "controller",
      "outputs": [
        {
          "internalType": "address",
          "name": "",
          "type": "address"
        }
      ],
      "payable": false,
      "stateMutability": "view",
      "type": "function"
    },
    {
      "constant": true,
      "inputs": [],
      "name": "governance",
      "outputs": [
        {
          "internalType": "address",
          "name": "",
          "type": "address"
        }
      ],
      "payable": false,
      "stateMutability": "view",
      "type": "function"
    },
    {
      "constant": true,
      "inputs": [],
      "name": "m3crv",
      "outputs": [
        {
          "internalType": "address",
          "name": "",
          "type": "address"
        }
      ],
      "payable": false,
      "stateMutability": "view",
      "type": "function"
    },
    {
      "constant": true,
      "inputs": [],
      "name": "mpool",
      "outputs": [
        {
          "internalType": "address",
          "name": "",
          "type": "address"
        }
      ],
      "payable": false,
      "stateMutability": "view",
      "type": "function"
    },
    {
      "constant": true,
      "inputs": [],
      "name": "p",
      "outputs": [
        {
          "internalType": "uint256",
          "name": "",
          "type": "uint256"
        }
      ],
      "payable": false,
      "stateMutability": "view",
      "type": "function"
    },
    {
      "constant": true,
      "inputs": [],
      "name": "slip",
      "outputs": [
        {
          "internalType": "uint256",
          "name": "",
          "type": "uint256"
        }
      ],
      "payable": false,
      "stateMutability": "view",
      "type": "function"
    },
    {
      "constant": true,
      "inputs": [],
      "name": "strategist",
      "outputs": [
        {
          "internalType": "address",
          "name": "",
          "type": "address"
        }
      ],
      "payable": false,
      "stateMutability": "view",
      "type": "function"
    },
    {
      "constant": true,
      "inputs": [],
      "name": "strategistReward",
      "outputs": [
        {
          "internalType": "uint256",
          "name": "",
          "type": "uint256"
        }
      ],
      "payable": false,
      "stateMutability": "view",
      "type": "function"
    },
    {
      "constant": true,
      "inputs": [],
      "name": "tank",
      "outputs": [
        {
          "internalType": "uint256",
          "name": "",
          "type": "uint256"
        }
      ],
      "payable": false,
      "stateMutability": "view",
      "type": "function"
    },
    {
      "constant": true,
      "inputs": [],
      "name": "threshold",
      "outputs": [
        {
          "internalType": "uint256",
          "name": "",
          "type": "uint256"
        }
      ],
      "payable": false,
      "stateMutability": "view",
      "type": "function"
    },
    {
      "constant": true,
      "inputs": [],
      "name": "treasuryFee",
      "outputs": [
        {
          "internalType": "uint256",
          "name": "",
          "type": "uint256"
        }
      ],
      "payable": false,
      "stateMutability": "view",
      "type": "function"
    },
    {
      "constant": true,
      "inputs": [],
      "name": "want",
      "outputs": [
        {
          "internalType": "address",
          "name": "",
          "type": "address"
        }
      ],
      "payable": false,
      "stateMutability": "view",
      "type": "function"
    },
    {
      "constant": true,
      "inputs": [],
      "name": "withdrawalFee",
      "outputs": [
        {
          "internalType": "uint256",
          "name": "",
          "type": "uint256"
        }
      ],
      "payable": false,
      "stateMutability": "view",
      "type": "function"
    },
    {
      "constant": true,
      "inputs": [],
      "name": "yvm3crv",
      "outputs": [
        {
          "internalType": "address",
          "name": "",
          "type": "address"
        }
      ],
      "payable": false,
      "stateMutability": "view",
      "type": "function"
    },
    {
      "constant": true,
      "inputs": [],
      "name": "getName",
      "outputs": [
        {
          "internalType": "string",
          "name": "",
          "type": "string"
        }
      ],
      "payable": false,
      "stateMutability": "pure",
      "type": "function"
    },
    {
      "constant": false,
      "inputs": [],
      "name": "deposit",
      "outputs": [],
      "payable": false,
      "stateMutability": "nonpayable",
      "type": "function"
    },
    {
      "constant": false,
      "inputs": [
        {
          "internalType": "uint256",
          "name": "_amount",
          "type": "uint256"
        }
      ],
      "name": "withdraw",
      "outputs": [],
      "payable": false,
      "stateMutability": "nonpayable",
      "type": "function"
    },
    {
      "constant": false,
      "inputs": [
        {
          "internalType": "contract IERC20",
          "name": "_asset",
          "type": "address"
        }
      ],
      "name": "withdraw",
      "outputs": [
        {
          "internalType": "uint256",
          "name": "balance",
          "type": "uint256"
        }
      ],
      "payable": false,
      "stateMutability": "nonpayable",
      "type": "function"
    },
    {
      "constant": false,
      "inputs": [],
      "name": "withdrawAll",
      "outputs": [
        {
          "internalType": "uint256",
          "name": "balance",
          "type": "uint256"
        }
      ],
      "payable": false,
      "stateMutability": "nonpayable",
      "type": "function"
    },
    {
      "constant": true,
      "inputs": [],
      "name": "balanceOfWant",
      "outputs": [
        {
          "internalType": "uint256",
          "name": "",
          "type": "uint256"
        }
      ],
      "payable": false,
      "stateMutability": "view",
      "type": "function"
    },
    {
      "constant": true,
      "inputs": [],
      "name": "balanceOfm3CRV",
      "outputs": [
        {
          "internalType": "uint256",
          "name": "",
          "type": "uint256"
        }
      ],
      "payable": false,
      "stateMutability": "view",
      "type": "function"
    },
    {
      "constant": true,
      "inputs": [],
      "name": "balanceOfm3CRVinWant",
      "outputs": [
        {
          "internalType": "uint256",
          "name": "",
          "type": "uint256"
        }
      ],
      "payable": false,
      "stateMutability": "view",
      "type": "function"
    },
    {
      "constant": true,
      "inputs": [],
      "name": "balanceOfyvm3CRV",
      "outputs": [
        {
          "internalType": "uint256",
          "name": "",
          "type": "uint256"
        }
      ],
      "payable": false,
      "stateMutability": "view",
      "type": "function"
    },
    {
      "constant": true,
      "inputs": [],
      "name": "balanceOfyvm3CRVinm3CRV",
      "outputs": [
        {
          "internalType": "uint256",
          "name": "",
          "type": "uint256"
        }
      ],
      "payable": false,
      "stateMutability": "view",
      "type": "function"
    },
    {
      "constant": true,
      "inputs": [],
      "name": "balanceOfyvm3CRVinWant",
      "outputs": [
        {
          "internalType": "uint256",
          "name": "",
          "type": "uint256"
        }
      ],
      "payable": false,
      "stateMutability": "view",
      "type": "function"
    },
    {
      "constant": true,
      "inputs": [],
      "name": "balanceOf",
      "outputs": [
        {
          "internalType": "uint256",
          "name": "",
          "type": "uint256"
        }
      ],
      "payable": false,
      "stateMutability": "view",
      "type": "function"
    },
    {
      "constant": false,
      "inputs": [
        {
          "internalType": "address",
          "name": "_strategy",
          "type": "address"
        }
      ],
      "name": "migrate",
      "outputs": [],
      "payable": false,
      "stateMutability": "nonpayable",
      "type": "function"
    },
    {
      "constant": false,
      "inputs": [
        {
          "internalType": "uint256",
          "name": "_amount",
          "type": "uint256"
        }
      ],
      "name": "forceD",
      "outputs": [],
      "payable": false,
      "stateMutability": "nonpayable",
      "type": "function"
    },
    {
      "constant": false,
      "inputs": [
        {
          "internalType": "uint256",
          "name": "_amt",
          "type": "uint256"
        }
      ],
      "name": "forceW",
      "outputs": [],
      "payable": false,
      "stateMutability": "nonpayable",
      "type": "function"
    },
    {
      "constant": false,
      "inputs": [],
      "name": "drip",
      "outputs": [],
      "payable": false,
      "stateMutability": "nonpayable",
      "type": "function"
    },
    {
      "constant": true,
      "inputs": [],
      "name": "tick",
      "outputs": [
        {
          "internalType": "uint256",
          "name": "_t",
          "type": "uint256"
        },
        {
          "internalType": "uint256",
          "name": "_c",
          "type": "uint256"
        }
      ],
      "payable": false,
      "stateMutability": "view",
      "type": "function"
    },
    {
      "constant": false,
      "inputs": [],
      "name": "rebalance",
      "outputs": [],
      "payable": false,
      "stateMutability": "nonpayable",
      "type": "function"
    },
    {
      "constant": false,
      "inputs": [
        {
          "internalType": "address",
          "name": "_governance",
          "type": "address"
        }
      ],
      "name": "setGovernance",
      "outputs": [],
      "payable": false,
      "stateMutability": "nonpayable",
      "type": "function"
    },
    {
      "constant": false,
      "inputs": [
        {
          "internalType": "address",
          "name": "_controller",
          "type": "address"
        }
      ],
      "name": "setController",
      "outputs": [],
      "payable": false,
      "stateMutability": "nonpayable",
      "type": "function"
    },
    {
      "constant": false,
      "inputs": [
        {
          "internalType": "address",
          "name": "_strategist",
          "type": "address"
        }
      ],
      "name": "setStrategist",
      "outputs": [],
      "payable": false,
      "stateMutability": "nonpayable",
      "type": "function"
    },
    {
      "constant": false,
      "inputs": [
        {
          "internalType": "uint256",
          "name": "_withdrawalFee",
          "type": "uint256"
        }
      ],
      "name": "setWithdrawalFee",
      "outputs": [],
      "payable": false,
      "stateMutability": "nonpayable",
      "type": "function"
    },
    {
      "constant": false,
      "inputs": [
        {
          "internalType": "uint256",
          "name": "_treasuryFee",
          "type": "uint256"
        }
      ],
      "name": "setTreasuryFee",
      "outputs": [],
      "payable": false,
      "stateMutability": "nonpayable",
      "type": "function"
    },
    {
      "constant": false,
      "inputs": [
        {
          "internalType": "uint256",
          "name": "_strategistReward",
          "type": "uint256"
        }
      ],
      "name": "setStrategistReward",
      "outputs": [],
      "payable": false,
      "stateMutability": "nonpayable",
      "type": "function"
    },
    {
      "constant": false,
      "inputs": [
        {
          "internalType": "uint256",
          "name": "_threshold",
          "type": "uint256"
        }
      ],
      "name": "setThreshold",
      "outputs": [],
      "payable": false,
      "stateMutability": "nonpayable",
      "type": "function"
    },
    {
      "constant": false,
      "inputs": [
        {
          "internalType": "uint256",
          "name": "_slip",
          "type": "uint256"
        }
      ],
      "name": "setSlip",
      "outputs": [],
      "payable": false,
      "stateMutability": "nonpayable",
      "type": "function"
    }
  ],
  "bytecode": "0x60806040526103e860035560006004556103e860055561177060065560646007556000600855600060095534801561003657600080fd5b506040516134153803806134158339818101604052602081101561005957600080fd5b505160008054336001600160a01b0319918216811783556002805483169091179055600180549091166001600160a01b03909316929092179091556133719081906100a490396000f3fe608060405234801561001057600080fd5b50600436106102535760003560e01c80638158676e11610146578063ac1e5025116100c3578063ce5494bb11610087578063ce5494bb14610539578063d0e30db01461055f578063d38c8c6114610567578063da2755051461056f578063f012eb7e1461058c578063f77c47911461059457610253565b8063ac1e5025146104de578063b7f01bfc146104fb578063c1a3d44c14610503578063c7b9d5301461050b578063cc32d1761461053157610253565b806392eefe9b1161010a57806392eefe9b14610465578063960bfe041461048b5780639ae8886a146104a85780639f678cca146104b0578063ab033ea9146104b857610253565b80638158676e1461043d578063853828b6146104455780638ba04d4f1461044d5780638bc7e8c414610455578063918f86741461045d57610253565b80633aed58a1116101d4578063544cb1ce11610198578063544cb1ce146104005780635aa6e67514610408578063722713f71461041057806377e741c7146104185780637d7c2a1c1461043557610253565b80633aed58a1146103a15780633eaf5d9f146103a957806340527fb5146103ca57806342cde4e8146103d257806351cff8d9146103da57610253565b80631f1fcd511161021b5780631f1fcd51146103525780631fe4a6861461035a5780632e1a7d4d14610362578063392c731f1461037f5780633a9cd9091461039957610253565b80630d596cdf1461025857806313234d481461027757806313b857b41461029b57806313d8fdbc146102b857806317d7de7c146102d5575b600080fd5b6102756004803603602081101561026e57600080fd5b503561059c565b005b61027f6105ee565b604080516001600160a01b039092168252519081900360200190f35b610275600480360360208110156102b157600080fd5b5035610600565b610275600480360360208110156102ce57600080fd5b503561065f565b6102dd610a27565b6040805160208082528351818301528351919283929083019185019080838360005b838110156103175781810151838201526020016102ff565b50505050905090810190601f1680156103445780820380516001836020036101000a031916815260200191505b509250505060405180910390f35b61027f610a52565b61027f610a64565b6102756004803603602081101561037857600080fd5b5035610a73565b610387610d66565b60408051918252519081900360200190f35b61027f610d6c565b610387610d7e565b6103b1610e1b565b6040805192835260208301919091528051918290030190f35b61027f610ec8565b610387610eda565b610387600480360360208110156103f057600080fd5b50356001600160a01b0316610ee0565b6103876110cf565b61027f61115b565b61038761116a565b6102756004803603602081101561042e57600080fd5b503561118b565b6102756111dd565b610387611310565b610387611316565b6103876114d9565b610387611559565b61038761155f565b6102756004803603602081101561047b57600080fd5b50356001600160a01b0316611565565b610275600480360360208110156104a157600080fd5b50356115d4565b610387611633565b610275611639565b610275600480360360208110156104ce57600080fd5b50356001600160a01b031661195d565b610275600480360360208110156104f457600080fd5b50356119cc565b610387611a1e565b610387611a24565b6102756004803603602081101561052157600080fd5b50356001600160a01b0316611a73565b610387611aef565b6102756004803603602081101561054f57600080fd5b50356001600160a01b0316611af5565b610275611de0565b6103876121c6565b6102756004803603602081101561058557600080fd5b5035612252565b610387612665565b61027f6126b4565b6000546001600160a01b031633146105e9576040805162461bcd60e51b815260206004820152600b60248201526a21676f7665726e616e636560a81b604482015290519081900360640190fd5b600555565b60008051602061331d83398151915281565b6002546001600160a01b031633148061062357506000546001600160a01b031633145b61065a576040805162461bcd60e51b815260206004820152600360248201526221736760e81b604482015290519081900360640190fd5b600755565b6000546001600160a01b031633148061068257506002546001600160a01b031633145b8061069757506001546001600160a01b031633145b806106a157503330145b6106e0576040805162461bcd60e51b815260206004820152600b60248201526a08585d5d1a1bdc9a5e995960aa1b604482015290519081900360640190fd5b61070e60008051602061323c83398151915260008051602061331d833981519152600063ffffffff6126c316565b61073b60008051602061323c83398151915260008051602061331d8339815191528363ffffffff6126c316565b60006107d760008051602061331d8339815191526001600160a01b031663bb7b8b806040518163ffffffff1660e01b815260040160206040518083038186803b15801561078757600080fd5b505afa15801561079b573d6000803e3d6000fd5b505050506040513d60208110156107b157600080fd5b50516107cb84670de0b6b3a764000063ffffffff6127db16565b9063ffffffff61283d16565b905060008051602061331d8339815191526001600160a01b0316630b4c7e4d604051806040016040528085815260200160008152506108396127106107cb61082c60075461271061287f90919063ffffffff16565b879063ffffffff6127db16565b6040518363ffffffff1660e01b81526004018083600260200280838360005b83811015610870578181015183820152602001610858565b5050505090500182815260200192505050600060405180830381600087803b15801561089b57600080fd5b505af11580156108af573d6000803e3d6000fd5b505050506008548210156108d8576008546108d0908363ffffffff61287f16565b6008556108de565b60006008555b604080516370a0823160e01b8152306004820152905160009160008051602061329d833981519152916370a0823191602480820192602092909190829003018186803b15801561092d57600080fd5b505afa158015610941573d6000803e3d6000fd5b505050506040513d602081101561095757600080fd5b5051905061098960008051602061329d83398151915260008051602061325c833981519152600063ffffffff6126c316565b6109b660008051602061329d83398151915260008051602061325c8339815191528363ffffffff6126c316565b60008051602061325c8339815191526001600160a01b031663b6b55f25826040518263ffffffff1660e01b815260040180828152602001915050600060405180830381600087803b158015610a0a57600080fd5b505af1158015610a1e573d6000803e3d6000fd5b50505050505050565b60408051808201909152601181527053747261746567796d555344437572766560781b602082015290565b60008051602061323c83398151915281565b6002546001600160a01b031681565b6001546001600160a01b03163314610ac0576040805162461bcd60e51b815260206004820152600b60248201526a10b1b7b73a3937b63632b960a91b604482015290519081900360640190fd5b610ac86111dd565b604080516370a0823160e01b8152306004820152905160009160008051602061323c833981519152916370a0823191602480820192602092909190829003018186803b158015610b1757600080fd5b505afa158015610b2b573d6000803e3d6000fd5b505050506040513d6020811015610b4157600080fd5b5051905081811015610b8357610b65610b60838363ffffffff61287f16565b6128c1565b9150610b77828263ffffffff612b2516565b60006008559150610bad565b8160085410610ba757600854610b9f908363ffffffff61287f16565b600855610bad565b60006008555b60015460408051632988bb9f60e21b815260008051602061323c833981519152600482015290516000926001600160a01b03169163a622ee7c916024808301926020929190829003018186803b158015610c0657600080fd5b505afa158015610c1a573d6000803e3d6000fd5b505050506040513d6020811015610c3057600080fd5b505190506001600160a01b038116610c78576040805162461bcd60e51b8152602060048201526006602482015265085d985d5b1d60d21b604482015290519081900360640190fd5b6000610c956127106107cb600454876127db90919063ffffffff16565b9050610d30600160009054906101000a90046001600160a01b03166001600160a01b0316639ec5a8946040518163ffffffff1660e01b815260040160206040518083038186803b158015610ce857600080fd5b505afa158015610cfc573d6000803e3d6000fd5b505050506040513d6020811015610d1257600080fd5b505160008051602061323c833981519152908363ffffffff612b7f16565b610d6082610d44868463ffffffff61287f16565b60008051602061323c833981519152919063ffffffff612b7f16565b50505050565b60075481565b60008051602061329d83398151915281565b6000610e16670de0b6b3a76400006107cb60008051602061331d8339815191526001600160a01b031663bb7b8b806040518163ffffffff1660e01b815260040160206040518083038186803b158015610dd657600080fd5b505afa158015610dea573d6000803e3d6000fd5b505050506040513d6020811015610e0057600080fd5b5051610e0a612665565b9063ffffffff6127db16565b905090565b600080610eb86127106107cb60065460008051602061331d8339815191526001600160a01b031663065a80d860006040518263ffffffff1660e01b81526004018082600f0b815260200191505060206040518083038186803b158015610e8057600080fd5b505afa158015610e94573d6000803e3d6000fd5b505050506040513d6020811015610eaa57600080fd5b50519063ffffffff6127db16565b9150610ec26121c6565b90509091565b60008051602061325c83398151915281565b60065481565b6001546000906001600160a01b03163314610f30576040805162461bcd60e51b815260206004820152600b60248201526a10b1b7b73a3937b63632b960a91b604482015290519081900360640190fd5b60008051602061323c8339815191526001600160a01b0383161415610f85576040805162461bcd60e51b815260206004808301919091526024820152631dd85b9d60e21b604482015290519081900360640190fd5b60008051602061329d8339815191526001600160a01b0383161415610fdc576040805162461bcd60e51b815260206004820152600860248201526736bab9b219b1b93b60c11b604482015290519081900360640190fd5b60008051602061325c8339815191526001600160a01b0383161415611035576040805162461bcd60e51b815260206004820152600a6024820152693cbb36bab9b219b1b93b60b11b604482015290519081900360640190fd5b604080516370a0823160e01b815230600482015290516001600160a01b038416916370a08231916024808301926020929190829003018186803b15801561107b57600080fd5b505afa15801561108f573d6000803e3d6000fd5b505050506040513d60208110156110a557600080fd5b50516001549091506110ca906001600160a01b0384811691168363ffffffff612b7f16565b919050565b6000610e16670de0b6b3a76400006107cb60008051602061325c8339815191526001600160a01b03166377c7b8fc6040518163ffffffff1660e01b815260040160206040518083038186803b15801561112757600080fd5b505afa15801561113b573d6000803e3d6000fd5b505050506040513d602081101561115157600080fd5b5051610e0a6114d9565b6000546001600160a01b031681565b6000610e166111776121c6565b61117f611a24565b9063ffffffff612b2516565b6000546001600160a01b031633146111d8576040805162461bcd60e51b815260206004820152600b60248201526a21676f7665726e616e636560a81b604482015290519081900360640190fd5b600355565b6000546001600160a01b031633148061120057506002546001600160a01b031633145b8061121557506001546001600160a01b031633145b8061121f57503330145b61125e576040805162461bcd60e51b815260206004820152600b60248201526a08585d5d1a1bdc9a5e995960aa1b604482015290519081900360640190fd5b611266611639565b600080611271610e1b565b915091508181111561130c57611290610b60828463ffffffff61287f16565b50604080516370a0823160e01b8152306004820152905160008051602061323c833981519152916370a08231916024808301926020929190829003018186803b1580156112dc57600080fd5b505afa1580156112f0573d6000803e3d6000fd5b505050506040513d602081101561130657600080fd5b50516008555b5050565b60055481565b6001546000906001600160a01b03163314611366576040805162461bcd60e51b815260206004820152600b60248201526a10b1b7b73a3937b63632b960a91b604482015290519081900360640190fd5b61136e612bd1565b604080516370a0823160e01b8152306004820152905160008051602061323c833981519152916370a08231916024808301926020929190829003018186803b1580156113b957600080fd5b505afa1580156113cd573d6000803e3d6000fd5b505050506040513d60208110156113e357600080fd5b505160015460408051632988bb9f60e21b815260008051602061323c833981519152600482015290519293506000926001600160a01b039092169163a622ee7c91602480820192602092909190829003018186803b15801561144457600080fd5b505afa158015611458573d6000803e3d6000fd5b505050506040513d602081101561146e57600080fd5b505190506001600160a01b0381166114b6576040805162461bcd60e51b8152602060048201526006602482015265085d985d5b1d60d21b604482015290519081900360640190fd5b6114d560008051602061323c833981519152828463ffffffff612b7f16565b5090565b604080516370a0823160e01b8152306004820152905160009160008051602061325c833981519152916370a0823191602480820192602092909190829003018186803b15801561152857600080fd5b505afa15801561153c573d6000803e3d6000fd5b505050506040513d602081101561155257600080fd5b5051905090565b60045481565b61271081565b6000546001600160a01b031633146115b2576040805162461bcd60e51b815260206004820152600b60248201526a21676f7665726e616e636560a81b604482015290519081900360640190fd5b600180546001600160a01b0319166001600160a01b0392909216919091179055565b6002546001600160a01b03163314806115f757506000546001600160a01b031633145b61162e576040805162461bcd60e51b815260206004820152600360248201526221736760e81b604482015290519081900360640190fd5b600655565b60095481565b6000546001600160a01b031633148061165c57506002546001600160a01b031633145b8061167157506001546001600160a01b031633145b8061167b57503330145b6116ba576040805162461bcd60e51b815260206004820152600b60248201526a08585d5d1a1bdc9a5e995960aa1b604482015290519081900360640190fd5b600060008051602061325c8339815191526001600160a01b03166377c7b8fc6040518163ffffffff1660e01b815260040160206040518083038186803b15801561170357600080fd5b505afa158015611717573d6000803e3d6000fd5b505050506040513d602081101561172d57600080fd5b505160408051630176f71760e71b815290519192506117c291670de0b6b3a7640000916107cb9160008051602061331d8339815191529163bb7b8b80916004808301926020929190829003018186803b15801561178957600080fd5b505afa15801561179d573d6000803e3d6000fd5b505050506040513d60208110156117b357600080fd5b5051849063ffffffff6127db16565b9050600954811015611806576040805162461bcd60e51b8152602060048201526008602482015267189858daddd85c9960c21b604482015290519081900360640190fd5b6000611833670de0b6b3a76400006107cb61181f6114d9565b600954610e0a90879063ffffffff61287f16565b905060006118526127106107cb600554856127db90919063ffffffff16565b60025490915061189d906001600160a01b0316611881856107cb85670de0b6b3a764000063ffffffff6127db16565b60008051602061325c833981519152919063ffffffff612b7f16565b60006118ba6127106107cb600354866127db90919063ffffffff16565b9050611955600160009054906101000a90046001600160a01b03166001600160a01b0316639ec5a8946040518163ffffffff1660e01b815260040160206040518083038186803b15801561190d57600080fd5b505afa158015611921573d6000803e3d6000fd5b505050506040513d602081101561193757600080fd5b5051611881866107cb85670de0b6b3a764000063ffffffff6127db16565b505050600955565b6000546001600160a01b031633146119aa576040805162461bcd60e51b815260206004820152600b60248201526a21676f7665726e616e636560a81b604482015290519081900360640190fd5b600080546001600160a01b0319166001600160a01b0392909216919091179055565b6000546001600160a01b03163314611a19576040805162461bcd60e51b815260206004820152600b60248201526a21676f7665726e616e636560a81b604482015290519081900360640190fd5b600455565b60085481565b604080516370a0823160e01b8152306004820152905160009160008051602061323c833981519152916370a0823191602480820192602092909190829003018186803b15801561152857600080fd5b6002546001600160a01b0316331480611a9657506000546001600160a01b031633145b611acd576040805162461bcd60e51b815260206004820152600360248201526221736760e81b604482015290519081900360640190fd5b600280546001600160a01b0319166001600160a01b0392909216919091179055565b60035481565b6000546001600160a01b03163314611b42576040805162461bcd60e51b815260206004820152600b60248201526a21676f7665726e616e636560a81b604482015290519081900360640190fd5b600154604080516350abc5b560e11b815260008051602061323c83398151915260048201526001600160a01b0384811660248301529151919092169163a1578b6a916044808301926020929190829003018186803b158015611ba357600080fd5b505afa158015611bb7573d6000803e3d6000fd5b505050506040513d6020811015611bcd57600080fd5b5051611c12576040805162461bcd60e51b815260206004820152600f60248201526e085cdd185d1959de505b1b1bddd959608a1b604482015290519081900360640190fd5b604080516370a0823160e01b81523060048201529051611cab91839160008051602061325c833981519152916370a08231916024808301926020929190829003018186803b158015611c6357600080fd5b505afa158015611c77573d6000803e3d6000fd5b505050506040513d6020811015611c8d57600080fd5b505160008051602061325c833981519152919063ffffffff612b7f16565b604080516370a0823160e01b81523060048201529051611d4491839160008051602061329d833981519152916370a08231916024808301926020929190829003018186803b158015611cfc57600080fd5b505afa158015611d10573d6000803e3d6000fd5b505050506040513d6020811015611d2657600080fd5b505160008051602061329d833981519152919063ffffffff612b7f16565b604080516370a0823160e01b81523060048201529051611ddd91839160008051602061323c833981519152916370a08231916024808301926020929190829003018186803b158015611d9557600080fd5b505afa158015611da9573d6000803e3d6000fd5b505050506040513d6020811015611dbf57600080fd5b505160008051602061323c833981519152919063ffffffff612b7f16565b50565b6000546001600160a01b0316331480611e0357506002546001600160a01b031633145b80611e1857506001546001600160a01b031633145b80611e2257503330145b611e61576040805162461bcd60e51b815260206004820152600b60248201526a08585d5d1a1bdc9a5e995960aa1b604482015290519081900360640190fd5b611e696111dd565b600854604080516370a0823160e01b81523060048201529051600092611ef892909160008051602061323c833981519152916370a08231916024808301926020929190829003018186803b158015611ec057600080fd5b505afa158015611ed4573d6000803e3d6000fd5b505050506040513d6020811015611eea57600080fd5b50519063ffffffff61287f16565b9050801561207857611f2e60008051602061323c83398151915260008051602061331d833981519152600063ffffffff6126c316565b611f5b60008051602061323c83398151915260008051602061331d8339815191528363ffffffff6126c316565b6000611fa760008051602061331d8339815191526001600160a01b031663bb7b8b806040518163ffffffff1660e01b815260040160206040518083038186803b15801561078757600080fd5b905060008051602061331d8339815191526001600160a01b0316630b4c7e4d60405180604001604052808581526020016000815250611ffc6127106107cb61082c60075461271061287f90919063ffffffff16565b6040518363ffffffff1660e01b81526004018083600260200280838360005b8381101561203357818101518382015260200161201b565b5050505090500182815260200192505050600060405180830381600087803b15801561205e57600080fd5b505af1158015612072573d6000803e3d6000fd5b50505050505b604080516370a0823160e01b8152306004820152905160009160008051602061329d833981519152916370a0823191602480820192602092909190829003018186803b1580156120c757600080fd5b505afa1580156120db573d6000803e3d6000fd5b505050506040513d60208110156120f157600080fd5b50519050801561130c5761212960008051602061329d83398151915260008051602061325c833981519152600063ffffffff6126c316565b61215660008051602061329d83398151915260008051602061325c8339815191528363ffffffff6126c316565b60008051602061325c8339815191526001600160a01b031663b6b55f25826040518263ffffffff1660e01b815260040180828152602001915050600060405180830381600087803b1580156121aa57600080fd5b505af11580156121be573d6000803e3d6000fd5b505050505050565b6000610e16670de0b6b3a76400006107cb60008051602061331d8339815191526001600160a01b031663bb7b8b806040518163ffffffff1660e01b815260040160206040518083038186803b15801561221e57600080fd5b505afa158015612232573d6000803e3d6000fd5b505050506040513d602081101561224857600080fd5b5051610e0a6110cf565b6000546001600160a01b031633148061227557506002546001600160a01b031633145b8061228a57506001546001600160a01b031633145b8061229457503330145b6122d3576040805162461bcd60e51b815260206004820152600b60248201526a08585d5d1a1bdc9a5e995960aa1b604482015290519081900360640190fd5b604080516370a0823160e01b8152306004820152905160009160008051602061329d833981519152916370a0823191602480820192602092909190829003018186803b15801561232257600080fd5b505afa158015612336573d6000803e3d6000fd5b505050506040513d602081101561234c57600080fd5b505160408051632e1a7d4d60e01b815260048101859052905191925060008051602061325c83398151915291632e1a7d4d9160248082019260009290919082900301818387803b15801561239f57600080fd5b505af11580156123b3573d6000803e3d6000fd5b5050604080516370a0823160e01b815230600482015290516000935060008051602061329d83398151915292506370a0823191602480820192602092909190829003018186803b15801561240657600080fd5b505afa15801561241a573d6000803e3d6000fd5b505050506040513d602081101561243057600080fd5b50519050612444818363ffffffff61287f16565b925061247460008051602061329d83398151915260008051602061331d833981519152600063ffffffff6126c316565b6124a160008051602061329d83398151915260008051602061331d8339815191528563ffffffff6126c316565b604080516370a0823160e01b8152306004820152905160008051602061323c833981519152916370a08231916024808301926020929190829003018186803b1580156124ec57600080fd5b505afa158015612500573d6000803e3d6000fd5b505050506040513d602081101561251657600080fd5b505160075490925060008051602061331d83398151915290631a4d01d290859060009061256390612710906107cb9061255690839063ffffffff61287f16565b8a9063ffffffff6127db16565b6040518463ffffffff1660e01b81526004018084815260200183600f0b81526020018281526020019350505050600060405180830381600087803b1580156125aa57600080fd5b505af11580156125be573d6000803e3d6000fd5b5050604080516370a0823160e01b8152306004820152905160008051602061323c83398151915293506370a0823192506024808301926020929190829003018186803b15801561260d57600080fd5b505afa158015612621573d6000803e3d6000fd5b505050506040513d602081101561263757600080fd5b5051905061265d61264e828463ffffffff61287f16565b6008549063ffffffff612b2516565b600855505050565b604080516370a0823160e01b8152306004820152905160009160008051602061329d833981519152916370a0823191602480820192602092909190829003018186803b15801561152857600080fd5b6001546001600160a01b031681565b801580612749575060408051636eb1769f60e11b81523060048201526001600160a01b03848116602483015291519185169163dd62ed3e91604480820192602092909190829003018186803b15801561271b57600080fd5b505afa15801561272f573d6000803e3d6000fd5b505050506040513d602081101561274557600080fd5b5051155b6127845760405162461bcd60e51b81526004018080602001828103825260368152602001806132e76036913960400191505060405180910390fd5b604080516001600160a01b038416602482015260448082018490528251808303909101815260649091019091526020810180516001600160e01b031663095ea7b360e01b1790526127d6908490612d41565b505050565b6000826127ea57506000612837565b828202828482816127f757fe5b04146128345760405162461bcd60e51b815260040180806020018281038252602181526020018061327c6021913960400191505060405180910390fd5b90505b92915050565b600061283483836040518060400160405280601a81526020017f536166654d6174683a206469766973696f6e206279207a65726f000000000000815250612ef9565b600061283483836040518060400160405280601e81526020017f536166654d6174683a207375627472616374696f6e206f766572666c6f770000815250612f9b565b60008061295260008051602061331d8339815191526001600160a01b031663bb7b8b806040518163ffffffff1660e01b815260040160206040518083038186803b15801561290e57600080fd5b505afa158015612922573d6000803e3d6000fd5b505050506040513d602081101561293857600080fd5b50516107cb85670de0b6b3a764000063ffffffff6127db16565b905060006129a060008051602061325c8339815191526001600160a01b03166377c7b8fc6040518163ffffffff1660e01b815260040160206040518083038186803b15801561078757600080fd5b604080516370a0823160e01b8152306004820152905191925060009160008051602061329d833981519152916370a08231916024808301926020929190829003018186803b1580156129f157600080fd5b505afa158015612a05573d6000803e3d6000fd5b505050506040513d6020811015612a1b57600080fd5b505160408051632e1a7d4d60e01b815260048101859052905191925060008051602061325c83398151915291632e1a7d4d9160248082019260009290919082900301818387803b158015612a6e57600080fd5b505af1158015612a82573d6000803e3d6000fd5b5050604080516370a0823160e01b815230600482015290516000935060008051602061329d83398151915292506370a0823191602480820192602092909190829003018186803b158015612ad557600080fd5b505afa158015612ae9573d6000803e3d6000fd5b505050506040513d6020811015612aff57600080fd5b50519050612b1b612b16828463ffffffff61287f16565b612ff5565b9695505050505050565b600082820183811015612834576040805162461bcd60e51b815260206004820152601b60248201527f536166654d6174683a206164646974696f6e206f766572666c6f770000000000604482015290519081900360640190fd5b604080516001600160a01b038416602482015260448082018490528251808303909101815260649091019091526020810180516001600160e01b031663a9059cbb60e01b1790526127d6908490612d41565b604080516370a0823160e01b8152306004820152905160009160008051602061325c833981519152916370a0823191602480820192602092909190829003018186803b158015612c2057600080fd5b505afa158015612c34573d6000803e3d6000fd5b505050506040513d6020811015612c4a57600080fd5b505190508015611ddd5760008051602061325c8339815191526001600160a01b0316632e1a7d4d826040518263ffffffff1660e01b815260040180828152602001915050600060405180830381600087803b158015612ca857600080fd5b505af1158015612cbc573d6000803e3d6000fd5b5050604080516370a0823160e01b8152306004820152905161130c935060008051602061329d83398151915292506370a0823191602480820192602092909190829003018186803b158015612d1057600080fd5b505afa158015612d24573d6000803e3d6000fd5b505050506040513d6020811015612d3a57600080fd5b5051612ff5565b612d53826001600160a01b0316613202565b612da4576040805162461bcd60e51b815260206004820152601f60248201527f5361666545524332303a2063616c6c20746f206e6f6e2d636f6e747261637400604482015290519081900360640190fd5b60006060836001600160a01b0316836040518082805190602001908083835b60208310612de25780518252601f199092019160209182019101612dc3565b6001836020036101000a0380198251168184511680821785525050505050509050019150506000604051808303816000865af19150503d8060008114612e44576040519150601f19603f3d011682016040523d82523d6000602084013e612e49565b606091505b509150915081612ea0576040805162461bcd60e51b815260206004820181905260248201527f5361666545524332303a206c6f772d6c6576656c2063616c6c206661696c6564604482015290519081900360640190fd5b805115610d6057808060200190516020811015612ebc57600080fd5b5051610d605760405162461bcd60e51b815260040180806020018281038252602a8152602001806132bd602a913960400191505060405180910390fd5b60008183612f855760405162461bcd60e51b81526004018080602001828103825283818151815260200191508051906020019080838360005b83811015612f4a578181015183820152602001612f32565b50505050905090810190601f168015612f775780820380516001836020036101000a031916815260200191505b509250505060405180910390fd5b506000838581612f9157fe5b0495945050505050565b60008184841115612fed5760405162461bcd60e51b8152602060048201818152835160248401528351909283926044909101919085019080838360008315612f4a578181015183820152602001612f32565b505050900390565b604080516370a0823160e01b81523060048201529051600091829160008051602061323c833981519152916370a08231916024808301926020929190829003018186803b15801561304557600080fd5b505afa158015613059573d6000803e3d6000fd5b505050506040513d602081101561306f57600080fd5b505190506130a160008051602061329d83398151915260008051602061331d833981519152600063ffffffff6126c316565b6130ce60008051602061329d83398151915260008051602061331d8339815191528563ffffffff6126c316565b60008051602061331d8339815191526001600160a01b0316631a4d01d284600061310e6127106107cb61255660075461271061287f90919063ffffffff16565b6040518463ffffffff1660e01b81526004018084815260200183600f0b81526020018281526020019350505050600060405180830381600087803b15801561315557600080fd5b505af1158015613169573d6000803e3d6000fd5b5050604080516370a0823160e01b815230600482015290516000935060008051602061323c83398151915292506370a0823191602480820192602092909190829003018186803b1580156131bc57600080fd5b505afa1580156131d0573d6000803e3d6000fd5b505050506040513d60208110156131e657600080fd5b505190506131fa818363ffffffff61287f16565b949350505050565b6000813f7fc5d2460186f7233c927e7db2dcc703c0e500b653ca82273b7bfad8045d85a4708181148015906131fa57505015159291505056fe000000000000000000000000e2f2a5c287993345a840db3b0845fbc70f5935a50000000000000000000000000fcdaedfb8a7dfda2e9838564c5a1665d856afdf536166654d6174683a206d756c7469706c69636174696f6e206f766572666c6f770000000000000000000000001aef73d49dedc4b1778d0706583995958dc862e65361666545524332303a204552433230206f7065726174696f6e20646964206e6f7420737563636565645361666545524332303a20617070726f76652066726f6d206e6f6e2d7a65726f20746f206e6f6e2d7a65726f20616c6c6f77616e63650000000000000000000000008474ddbe98f5aa3179b3b3f5942d724afcdec9f6a265627a7a7231582075a083d7eac9ff80a58a266eb911579e4d5d93e333e238556496696bf4c9975264736f6c63430005110032",
  "source": "pragma solidity ^0.5.17;\n\nimport \"@openzeppelinV2/contracts/token/ERC20/IERC20.sol\";\nimport \"@openzeppelinV2/contracts/math/SafeMath.sol\";\nimport \"@openzeppelinV2/contracts/utils/Address.sol\";\nimport \"@openzeppelinV2/contracts/token/ERC20/SafeERC20.sol\";\n\nimport \"../../interfaces/yearn/IController.sol\";\nimport \"../../interfaces/curve/Curve.sol\";\n\ninterface yvERC20 {\n    function deposit(uint256) external;\n\n    function withdraw(uint256) external;\n\n    function getPricePerFullShare() external view returns (uint256);\n}\n\n/*\n\n A strategy must implement the following calls;\n \n - deposit()\n - withdraw(address) must exclude any tokens used in the yield - Controller role - withdraw should return to Controller\n - withdraw(uint) - Controller | Vault role - withdraw should always return to vault\n - withdrawAll() - Controller | Vault role - withdraw should always return to vault\n - balanceOf()\n \n Where possible, strategies must remain as immutable as possible, instead of updating variables, we update the contract by linking it in the controller\n \n*/\n\ncontract StrategymUSDCurve {\n    using SafeERC20 for IERC20;\n    using Address for address;\n    using SafeMath for uint256;\n\n    address public constant want = address(0xe2f2a5C287993345a840Db3B0845fbC70f5935a5);\n    address public constant mpool = address(0x8474DdbE98F5aA3179B3B3F5942D724aFcdec9f6);\n    address public constant m3crv = address(0x1AEf73d49Dedc4b1778d0706583995958Dc862e6);\n    address public constant yvm3crv = address(0x0FCDAeDFb8A7DfDa2e9838564c5A1665d856AFDF);\n\n    address public governance;\n    address public controller;\n    address public strategist;\n\n    uint256 public constant DENOMINATOR = 10000;\n    uint256 public treasuryFee = 1000;\n    uint256 public withdrawalFee = 0;\n    uint256 public strategistReward = 1000;\n    uint256 public threshold = 6000;\n    uint256 public slip = 100;\n    uint256 public tank = 0;\n    uint256 public p = 0;\n\n    modifier isAuthorized() {\n        require(msg.sender == governance || msg.sender == strategist || msg.sender == controller || msg.sender == address(this), \"!authorized\");\n        _;\n    }\n\n    constructor(address _controller) public {\n        governance = msg.sender;\n        strategist = msg.sender;\n        controller = _controller;\n    }\n\n    function getName() external pure returns (string memory) {\n        return \"StrategymUSDCurve\";\n    }\n\n    function deposit() public isAuthorized {\n        rebalance();\n        uint256 _want = (IERC20(want).balanceOf(address(this))).sub(tank);\n        if (_want > 0) {\n            IERC20(want).safeApprove(mpool, 0);\n            IERC20(want).safeApprove(mpool, _want);\n            uint256 v = _want.mul(1e18).div(ICurveFi(mpool).get_virtual_price());\n            ICurveFi(mpool).add_liquidity([_want, 0], v.mul(DENOMINATOR.sub(slip)).div(DENOMINATOR));\n        }\n        uint256 _bal = IERC20(m3crv).balanceOf(address(this));\n        if (_bal > 0) {\n            IERC20(m3crv).safeApprove(yvm3crv, 0);\n            IERC20(m3crv).safeApprove(yvm3crv, _bal);\n            yvERC20(yvm3crv).deposit(_bal);\n        }\n    }\n\n    // Controller only function for creating additional rewards from dust\n    function withdraw(IERC20 _asset) external returns (uint256 balance) {\n        require(msg.sender == controller, \"!controller\");\n        require(want != address(_asset), \"want\");\n        require(m3crv != address(_asset), \"musd3crv\");\n        require(yvm3crv != address(_asset), \"yvmusd3crv\");\n        balance = _asset.balanceOf(address(this));\n        _asset.safeTransfer(controller, balance);\n    }\n\n    // Withdraw partial funds, normally used with a vault withdrawal\n    function withdraw(uint256 _amount) external {\n        require(msg.sender == controller, \"!controller\");\n\n        rebalance();\n        uint256 _balance = IERC20(want).balanceOf(address(this));\n        if (_balance < _amount) {\n            _amount = _withdrawSome(_amount.sub(_balance));\n            _amount = _amount.add(_balance);\n            tank = 0;\n        } else {\n            if (tank >= _amount) tank = tank.sub(_amount);\n            else tank = 0;\n        }\n\n        address _vault = IController(controller).vaults(address(want));\n        require(_vault != address(0), \"!vault\"); // additional protection so we don't burn the funds\n        uint256 _fee = _amount.mul(withdrawalFee).div(DENOMINATOR);\n        IERC20(want).safeTransfer(IController(controller).rewards(), _fee);\n        IERC20(want).safeTransfer(_vault, _amount.sub(_fee));\n    }\n\n    function _withdrawSome(uint256 _amount) internal returns (uint256) {\n        uint256 _amnt = _amount.mul(1e18).div(ICurveFi(mpool).get_virtual_price());\n        uint256 _amt = _amnt.mul(1e18).div(yvERC20(yvm3crv).getPricePerFullShare());\n        uint256 _before = IERC20(m3crv).balanceOf(address(this));\n        yvERC20(yvm3crv).withdraw(_amt);\n        uint256 _after = IERC20(m3crv).balanceOf(address(this));\n        return _withdrawOne(_after.sub(_before));\n    }\n\n    function _withdrawOne(uint256 _amnt) internal returns (uint256) {\n        uint256 _before = IERC20(want).balanceOf(address(this));\n        IERC20(m3crv).safeApprove(mpool, 0);\n        IERC20(m3crv).safeApprove(mpool, _amnt);\n        ICurveFi(mpool).remove_liquidity_one_coin(_amnt, 0, _amnt.mul(DENOMINATOR.sub(slip)).div(DENOMINATOR));\n        uint256 _after = IERC20(want).balanceOf(address(this));\n\n        return _after.sub(_before);\n    }\n\n    // Withdraw all funds, normally used when migrating strategies\n    function withdrawAll() external returns (uint256 balance) {\n        require(msg.sender == controller, \"!controller\");\n        _withdrawAll();\n\n        balance = IERC20(want).balanceOf(address(this));\n\n        address _vault = IController(controller).vaults(address(want));\n        require(_vault != address(0), \"!vault\"); // additional protection so we don't burn the funds\n        IERC20(want).safeTransfer(_vault, balance);\n    }\n\n    function _withdrawAll() internal {\n        uint256 _yvm3crv = IERC20(yvm3crv).balanceOf(address(this));\n        if (_yvm3crv > 0) {\n            yvERC20(yvm3crv).withdraw(_yvm3crv);\n            _withdrawOne(IERC20(m3crv).balanceOf(address(this)));\n        }\n    }\n\n    function balanceOfWant() public view returns (uint256) {\n        return IERC20(want).balanceOf(address(this));\n    }\n\n    function balanceOfm3CRV() public view returns (uint256) {\n        return IERC20(m3crv).balanceOf(address(this));\n    }\n\n    function balanceOfm3CRVinWant() public view returns (uint256) {\n        return balanceOfm3CRV().mul(ICurveFi(mpool).get_virtual_price()).div(1e18);\n    }\n\n    function balanceOfyvm3CRV() public view returns (uint256) {\n        return IERC20(yvm3crv).balanceOf(address(this));\n    }\n\n    function balanceOfyvm3CRVinm3CRV() public view returns (uint256) {\n        return balanceOfyvm3CRV().mul(yvERC20(yvm3crv).getPricePerFullShare()).div(1e18);\n    }\n\n    function balanceOfyvm3CRVinWant() public view returns (uint256) {\n        return balanceOfyvm3CRVinm3CRV().mul(ICurveFi(mpool).get_virtual_price()).div(1e18);\n    }\n\n    function balanceOf() public view returns (uint256) {\n        return balanceOfWant().add(balanceOfyvm3CRVinWant());\n    }\n\n    function migrate(address _strategy) external {\n        require(msg.sender == governance, \"!governance\");\n        require(IController(controller).approvedStrategies(want, _strategy), \"!stategyAllowed\");\n        IERC20(yvm3crv).safeTransfer(_strategy, IERC20(yvm3crv).balanceOf(address(this)));\n        IERC20(m3crv).safeTransfer(_strategy, IERC20(m3crv).balanceOf(address(this)));\n        IERC20(want).safeTransfer(_strategy, IERC20(want).balanceOf(address(this)));\n    }\n\n    function forceD(uint256 _amount) external isAuthorized {\n        IERC20(want).safeApprove(mpool, 0);\n        IERC20(want).safeApprove(mpool, _amount);\n        uint256 v = _amount.mul(1e18).div(ICurveFi(mpool).get_virtual_price());\n        ICurveFi(mpool).add_liquidity([_amount, 0], v.mul(DENOMINATOR.sub(slip)).div(DENOMINATOR));\n        if (_amount < tank) tank = tank.sub(_amount);\n        else tank = 0;\n\n        uint256 _bal = IERC20(m3crv).balanceOf(address(this));\n        IERC20(m3crv).safeApprove(yvm3crv, 0);\n        IERC20(m3crv).safeApprove(yvm3crv, _bal);\n        yvERC20(yvm3crv).deposit(_bal);\n    }\n\n    function forceW(uint256 _amt) external isAuthorized {\n        uint256 _before = IERC20(m3crv).balanceOf(address(this));\n        yvERC20(yvm3crv).withdraw(_amt);\n        uint256 _after = IERC20(m3crv).balanceOf(address(this));\n        _amt = _after.sub(_before);\n\n        IERC20(m3crv).safeApprove(mpool, 0);\n        IERC20(m3crv).safeApprove(mpool, _amt);\n        _before = IERC20(want).balanceOf(address(this));\n        ICurveFi(mpool).remove_liquidity_one_coin(_amt, 0, _amt.mul(DENOMINATOR.sub(slip)).div(DENOMINATOR));\n        _after = IERC20(want).balanceOf(address(this));\n        tank = tank.add(_after.sub(_before));\n    }\n\n    function drip() public isAuthorized {\n        uint256 _p = yvERC20(yvm3crv).getPricePerFullShare();\n        _p = _p.mul(ICurveFi(mpool).get_virtual_price()).div(1e18);\n        require(_p >= p, \"backward\");\n        uint256 _r = (_p.sub(p)).mul(balanceOfyvm3CRV()).div(1e18);\n        uint256 _s = _r.mul(strategistReward).div(DENOMINATOR);\n        IERC20(yvm3crv).safeTransfer(strategist, _s.mul(1e18).div(_p));\n        uint256 _t = _r.mul(treasuryFee).div(DENOMINATOR);\n        IERC20(yvm3crv).safeTransfer(IController(controller).rewards(), _t.mul(1e18).div(_p));\n        p = _p;\n    }\n\n    function tick() public view returns (uint256 _t, uint256 _c) {\n        _t = ICurveFi(mpool).balances(0).mul(threshold).div(DENOMINATOR);\n        _c = balanceOfyvm3CRVinWant();\n    }\n\n    function rebalance() public isAuthorized {\n        drip();\n        (uint256 _t, uint256 _c) = tick();\n        if (_c > _t) {\n            _withdrawSome(_c.sub(_t));\n            tank = IERC20(want).balanceOf(address(this));\n        }\n    }\n\n    function setGovernance(address _governance) external {\n        require(msg.sender == governance, \"!governance\");\n        governance = _governance;\n    }\n\n    function setController(address _controller) external {\n        require(msg.sender == governance, \"!governance\");\n        controller = _controller;\n    }\n\n    function setStrategist(address _strategist) external {\n        require(msg.sender == strategist || msg.sender == governance, \"!sg\");\n        strategist = _strategist;\n    }\n\n    function setWithdrawalFee(uint256 _withdrawalFee) external {\n        require(msg.sender == governance, \"!governance\");\n        withdrawalFee = _withdrawalFee;\n    }\n\n    function setTreasuryFee(uint256 _treasuryFee) external {\n        require(msg.sender == governance, \"!governance\");\n        treasuryFee = _treasuryFee;\n    }\n\n    function setStrategistReward(uint256 _strategistReward) external {\n        require(msg.sender == governance, \"!governance\");\n        strategistReward = _strategistReward;\n    }\n\n    function setThreshold(uint256 _threshold) external {\n        require(msg.sender == strategist || msg.sender == governance, \"!sg\");\n        threshold = _threshold;\n    }\n\n    function setSlip(uint256 _slip) external {\n        require(msg.sender == strategist || msg.sender == governance, \"!sg\");\n        slip = _slip;\n    }\n}\n",
  "sourcePath": "/Users/sbacha/yearn-protocol-nodejs/contracts/strategies/StrategymUSDCurve.sol",
  "compiler": {
    "name": "solc",
    "version": "0.5.17+commit.d19bba13.Emscripten.clang"
  },
  "schemaVersion": "3.3.4",
  "updatedAt": "2021-02-12T05:40:28.347Z",
  "devdoc": {
    "methods": {}
  },
  "userdoc": {
    "methods": {}
  }
}