{
  "contractName": "StrategyProxy",
  "abi": [
    {
      "inputs": [],
      "payable": false,
      "stateMutability": "nonpayable",
      "type": "constructor"
    },
    {
      "constant": true,
      "inputs": [],
      "name": "crv",
      "outputs": [
        {
          "internalType": "address",
          "name": "",
          "type": "address"
        }
      ],
      "payable": false,
      "stateMutability": "view",
      "type": "function"
    },
    {
      "constant": true,
      "inputs": [],
      "name": "gauge",
      "outputs": [
        {
          "internalType": "address",
          "name": "",
          "type": "address"
        }
      ],
      "payable": false,
      "stateMutability": "view",
      "type": "function"
    },
    {
      "constant": true,
      "inputs": [],
      "name": "governance",
      "outputs": [
        {
          "internalType": "address",
          "name": "",
          "type": "address"
        }
      ],
      "payable": false,
      "stateMutability": "view",
      "type": "function"
    },
    {
      "constant": true,
      "inputs": [],
      "name": "mintr",
      "outputs": [
        {
          "internalType": "address",
          "name": "",
          "type": "address"
        }
      ],
      "payable": false,
      "stateMutability": "view",
      "type": "function"
    },
    {
      "constant": true,
      "inputs": [],
      "name": "proxy",
      "outputs": [
        {
          "internalType": "contract IProxy",
          "name": "",
          "type": "address"
        }
      ],
      "payable": false,
      "stateMutability": "view",
      "type": "function"
    },
    {
      "constant": true,
      "inputs": [
        {
          "internalType": "address",
          "name": "",
          "type": "address"
        }
      ],
      "name": "strategies",
      "outputs": [
        {
          "internalType": "bool",
          "name": "",
          "type": "bool"
        }
      ],
      "payable": false,
      "stateMutability": "view",
      "type": "function"
    },
    {
      "constant": true,
      "inputs": [],
      "name": "y",
      "outputs": [
        {
          "internalType": "address",
          "name": "",
          "type": "address"
        }
      ],
      "payable": false,
      "stateMutability": "view",
      "type": "function"
    },
    {
      "constant": false,
      "inputs": [
        {
          "internalType": "address",
          "name": "_governance",
          "type": "address"
        }
      ],
      "name": "setGovernance",
      "outputs": [],
      "payable": false,
      "stateMutability": "nonpayable",
      "type": "function"
    },
    {
      "constant": false,
      "inputs": [
        {
          "internalType": "address",
          "name": "_strategy",
          "type": "address"
        }
      ],
      "name": "approveStrategy",
      "outputs": [],
      "payable": false,
      "stateMutability": "nonpayable",
      "type": "function"
    },
    {
      "constant": false,
      "inputs": [
        {
          "internalType": "address",
          "name": "_strategy",
          "type": "address"
        }
      ],
      "name": "revokeStrategy",
      "outputs": [],
      "payable": false,
      "stateMutability": "nonpayable",
      "type": "function"
    },
    {
      "constant": false,
      "inputs": [],
      "name": "lock",
      "outputs": [],
      "payable": false,
      "stateMutability": "nonpayable",
      "type": "function"
    },
    {
      "constant": false,
      "inputs": [
        {
          "internalType": "address",
          "name": "_gauge",
          "type": "address"
        },
        {
          "internalType": "uint256",
          "name": "_amount",
          "type": "uint256"
        }
      ],
      "name": "vote",
      "outputs": [],
      "payable": false,
      "stateMutability": "nonpayable",
      "type": "function"
    },
    {
      "constant": false,
      "inputs": [
        {
          "internalType": "address",
          "name": "_gauge",
          "type": "address"
        },
        {
          "internalType": "address",
          "name": "_token",
          "type": "address"
        },
        {
          "internalType": "uint256",
          "name": "_amount",
          "type": "uint256"
        }
      ],
      "name": "withdraw",
      "outputs": [
        {
          "internalType": "uint256",
          "name": "",
          "type": "uint256"
        }
      ],
      "payable": false,
      "stateMutability": "nonpayable",
      "type": "function"
    },
    {
      "constant": true,
      "inputs": [
        {
          "internalType": "address",
          "name": "_gauge",
          "type": "address"
        }
      ],
      "name": "balanceOf",
      "outputs": [
        {
          "internalType": "uint256",
          "name": "",
          "type": "uint256"
        }
      ],
      "payable": false,
      "stateMutability": "view",
      "type": "function"
    },
    {
      "constant": false,
      "inputs": [
        {
          "internalType": "address",
          "name": "_gauge",
          "type": "address"
        },
        {
          "internalType": "address",
          "name": "_token",
          "type": "address"
        }
      ],
      "name": "withdrawAll",
      "outputs": [
        {
          "internalType": "uint256",
          "name": "",
          "type": "uint256"
        }
      ],
      "payable": false,
      "stateMutability": "nonpayable",
      "type": "function"
    },
    {
      "constant": false,
      "inputs": [
        {
          "internalType": "address",
          "name": "_gauge",
          "type": "address"
        },
        {
          "internalType": "address",
          "name": "_token",
          "type": "address"
        }
      ],
      "name": "deposit",
      "outputs": [],
      "payable": false,
      "stateMutability": "nonpayable",
      "type": "function"
    },
    {
      "constant": false,
      "inputs": [
        {
          "internalType": "address",
          "name": "_gauge",
          "type": "address"
        }
      ],
      "name": "harvest",
      "outputs": [],
      "payable": false,
      "stateMutability": "nonpayable",
      "type": "function"
    }
  ],
  "bytecode": "0x608060405234801561001057600080fd5b50600180546001600160a01b03191633179055611f5f806100326000396000f3fe608060405234801561001057600080fd5b506004361061010b5760003560e01c8063a56dfe4a116100a2578063d1e61dcb11610071578063d1e61dcb146102b2578063d9caed12146102ba578063ec556889146102f0578063f83d08ba146102f8578063f9609f08146103005761010b565b8063a56dfe4a14610256578063a6f19c841461025e578063ab033ea914610266578063bb994d481461028c5761010b565b80635aa6e675116100de5780635aa6e675146101d85780635f74bbde146101fc5780636a4874a11461022857806370a08231146102305761010b565b806309cae2c8146101105780630e5c011e1461015057806339ebf823146101785780633b8ae397146101b2575b600080fd5b61013e6004803603604081101561012657600080fd5b506001600160a01b038135811691602001351661032e565b60408051918252519081900360200190f35b6101766004803603602081101561016657600080fd5b50356001600160a01b0316610398565b005b61019e6004803603602081101561018e57600080fd5b50356001600160a01b0316610928565b604080519115158252519081900360200190f35b610176600480360360208110156101c857600080fd5b50356001600160a01b031661093d565b6101e06109ae565b604080516001600160a01b039092168252519081900360200190f35b6101766004803603604081101561021257600080fd5b506001600160a01b0381351690602001356109bd565b6101e0610c1b565b61013e6004803603602081101561024657600080fd5b50356001600160a01b0316610c33565b6101e0610cbd565b6101e0610cd5565b6101766004803603602081101561027c57600080fd5b50356001600160a01b0316610ced565b610176600480360360208110156102a257600080fd5b50356001600160a01b0316610d5c565b6101e0610dca565b61013e600480360360608110156102d057600080fd5b506001600160a01b03813581169160208101359091169060400135610de2565b6101e061133a565b61017661134c565b6101766004803603604081101561031657600080fd5b506001600160a01b0381358116916020013516611453565b3360009081526020819052604081205460ff1661037e576040805162461bcd60e51b815260206004820152600960248201526821737472617465677960b81b604482015290519081900360640190fd5b610391838361038c86610c33565b610de2565b9392505050565b3360009081526020819052604090205460ff166103e8576040805162461bcd60e51b815260206004820152600960248201526821737472617465677960b81b604482015290519081900360640190fd5b604080516370a0823160e01b8152600080516020611f0b8339815191526004820152905160009173d533a949740bb3306d119cc777fa900ba034cd52916370a0823191602480820192602092909190829003018186803b15801561044b57600080fd5b505afa15801561045f573d6000803e3d6000fd5b505050506040513d602081101561047557600080fd5b5051604080516001600160a01b038516602480830191909152825180830382018152604492830184526020810180516001600160e01b03166335313c2160e11b1781529351635b0e93fb60e11b815273d061d61a4d941c39e5453435b6345dc261c2fce06004820181815260009483018590526060958301958652835160648401528351979850600080516020611f0b8339815191529763b61d27f69792969193919260849092019190808383895b8381101561053c578181015183820152602001610524565b50505050905090810190601f1680156105695780820380516001836020036101000a031916815260200191505b50945050505050600060405180830381600087803b15801561058a57600080fd5b505af115801561059e573d6000803e3d6000fd5b505050506040513d6000823e601f3d908101601f1916820160409081528110156105c757600080fd5b815160208301805160405192949293830192919084600160201b8211156105ed57600080fd5b90830190602082018581111561060257600080fd5b8251600160201b81118282018810171561061b57600080fd5b82525081516020918201929091019080838360005b83811015610648578181015183820152602001610630565b50505050905090810190601f1680156106755780820380516001836020036101000a031916815260200191505b5060408181526370a0823160e01b8252600080516020611f0b8339815191526004830152516000965073d533a949740bb3306d119cc777fa900ba034cd5295506370a08231945060248083019450602093509091829003018186803b1580156106dd57600080fd5b505afa1580156106f1573d6000803e3d6000fd5b505050506040513d602081101561070757600080fd5b50519050600061071d828463ffffffff611bbc16565b60408051336024808301919091526044808301859052835180840382018152606493840185526020810180516001600160e01b031663a9059cbb60e01b1781529451635b0e93fb60e11b815273d533a949740bb3306d119cc777fa900ba034cd5260048201818152600095830186905260609483019485528351968301969096528251979850600080516020611f0b8339815191529763b61d27f69791969394926084019190808383895b838110156107e05781810151838201526020016107c8565b50505050905090810190601f16801561080d5780820380516001836020036101000a031916815260200191505b50945050505050600060405180830381600087803b15801561082e57600080fd5b505af1158015610842573d6000803e3d6000fd5b505050506040513d6000823e601f3d908101601f19168201604090815281101561086b57600080fd5b815160208301805160405192949293830192919084600160201b82111561089157600080fd5b9083019060208201858111156108a657600080fd5b8251600160201b8111828201881017156108bf57600080fd5b82525081516020918201929091019080838360005b838110156108ec5781810151838201526020016108d4565b50505050905090810190601f1680156109195780820380516001836020036101000a031916815260200191505b50604052505050505050505050565b60006020819052908152604090205460ff1681565b6001546001600160a01b0316331461098a576040805162461bcd60e51b815260206004820152600b60248201526a21676f7665726e616e636560a81b604482015290519081900360640190fd5b6001600160a01b03166000908152602081905260409020805460ff19166001179055565b6001546001600160a01b031681565b3360009081526020819052604090205460ff16610a0d576040805162461bcd60e51b815260206004820152600960248201526821737472617465677960b81b604482015290519081900360640190fd5b604080516001600160a01b0384166024808301919091526044808301859052835180840382018152606493840185526020810180516001600160e01b0316631ae26c6560e31b1781529451635b0e93fb60e11b8152732f50d538606fa9edd2b11e2446beb18c9d5846bb60048201818152600095830186905260609483019485528351968301969096528251600080516020611f0b8339815191529763b61d27f697929695929360840191808383895b83811015610ad5578181015183820152602001610abd565b50505050905090810190601f168015610b025780820380516001836020036101000a031916815260200191505b50945050505050600060405180830381600087803b158015610b2357600080fd5b505af1158015610b37573d6000803e3d6000fd5b505050506040513d6000823e601f3d908101601f191682016040908152811015610b6057600080fd5b815160208301805160405192949293830192919084600160201b821115610b8657600080fd5b908301906020820185811115610b9b57600080fd5b8251600160201b811182820188101715610bb457600080fd5b82525081516020918201929091019080838360005b83811015610be1578181015183820152602001610bc9565b50505050905090810190601f168015610c0e5780820380516001836020036101000a031916815260200191505b5060405250505050505050565b73d533a949740bb3306d119cc777fa900ba034cd5281565b604080516370a0823160e01b8152600080516020611f0b833981519152600482015290516000916001600160a01b038416916370a0823191602480820192602092909190829003018186803b158015610c8b57600080fd5b505afa158015610c9f573d6000803e3d6000fd5b505050506040513d6020811015610cb557600080fd5b505192915050565b73fa712ee4788c042e2b7bb55e6cb8ec569c4530c181565b732f50d538606fa9edd2b11e2446beb18c9d5846bb81565b6001546001600160a01b03163314610d3a576040805162461bcd60e51b815260206004820152600b60248201526a21676f7665726e616e636560a81b604482015290519081900360640190fd5b600180546001600160a01b0319166001600160a01b0392909216919091179055565b6001546001600160a01b03163314610da9576040805162461bcd60e51b815260206004820152600b60248201526a21676f7665726e616e636560a81b604482015290519081900360640190fd5b6001600160a01b03166000908152602081905260409020805460ff19169055565b73d061d61a4d941c39e5453435b6345dc261c2fce081565b3360009081526020819052604081205460ff16610e32576040805162461bcd60e51b815260206004820152600960248201526821737472617465677960b81b604482015290519081900360640190fd5b604080516370a0823160e01b8152600080516020611f0b833981519152600482015290516000916001600160a01b038616916370a0823191602480820192602092909190829003018186803b158015610e8a57600080fd5b505afa158015610e9e573d6000803e3d6000fd5b505050506040513d6020811015610eb457600080fd5b5051604080516024808201879052825180830382018152604492830184526020810180516001600160e01b0316632e1a7d4d60e01b1781529351635b0e93fb60e11b81526001600160a01b038b166004820190815260009382018490526060948201948552825160648301528251969750600080516020611f0b8339815191529663b61d27f6968d96929360840191808383895b83811015610f60578181015183820152602001610f48565b50505050905090810190601f168015610f8d5780820380516001836020036101000a031916815260200191505b50945050505050600060405180830381600087803b158015610fae57600080fd5b505af1158015610fc2573d6000803e3d6000fd5b505050506040513d6000823e601f3d908101601f191682016040908152811015610feb57600080fd5b815160208301805160405192949293830192919084600160201b82111561101157600080fd5b90830190602082018581111561102657600080fd5b8251600160201b81118282018810171561103f57600080fd5b82525081516020918201929091019080838360005b8381101561106c578181015183820152602001611054565b50505050905090810190601f1680156110995780820380516001836020036101000a031916815260200191505b5060408181526370a0823160e01b8252600080516020611f0b833981519152600483015251600096506001600160a01b038b1695506370a08231945060248083019450602093509091829003018186803b1580156110f657600080fd5b505afa15801561110a573d6000803e3d6000fd5b505050506040513d602081101561112057600080fd5b505190506000611136828463ffffffff611bbc16565b60408051336024808301919091526044808301859052835180840382018152606493840185526020810180516001600160e01b031663a9059cbb60e01b1781529451635b0e93fb60e11b81526001600160a01b038d1660048201908152600094820185905260609382019384528251958201959095528151969750600080516020611f0b8339815191529663b61d27f6968e9693949260840191808383895b838110156111ed5781810151838201526020016111d5565b50505050905090810190601f16801561121a5780820380516001836020036101000a031916815260200191505b50945050505050600060405180830381600087803b15801561123b57600080fd5b505af115801561124f573d6000803e3d6000fd5b505050506040513d6000823e601f3d908101601f19168201604090815281101561127857600080fd5b815160208301805160405192949293830192919084600160201b82111561129e57600080fd5b9083019060208201858111156112b357600080fd5b8251600160201b8111828201881017156112cc57600080fd5b82525081516020918201929091019080838360005b838110156112f95781810151838201526020016112e1565b50505050905090810190601f1680156113265780820380516001836020036101000a031916815260200191505b5060405250939a9950505050505050505050565b600080516020611f0b83398151915281565b604080516370a0823160e01b8152600080516020611f0b8339815191526004820152905160009173d533a949740bb3306d119cc777fa900ba034cd52916370a0823191602480820192602092909190829003018186803b1580156113af57600080fd5b505afa1580156113c3573d6000803e3d6000fd5b505050506040513d60208110156113d957600080fd5b50519050801561145057600080516020611f0b8339815191526001600160a01b03166315456eba826040518263ffffffff1660e01b815260040180828152602001915050600060405180830381600087803b15801561143757600080fd5b505af115801561144b573d6000803e3d6000fd5b505050505b50565b3360009081526020819052604090205460ff166114a3576040805162461bcd60e51b815260206004820152600960248201526821737472617465677960b81b604482015290519081900360640190fd5b604080516370a0823160e01b815230600482015290516000916001600160a01b038416916370a0823191602480820192602092909190829003018186803b1580156114ed57600080fd5b505afa158015611501573d6000803e3d6000fd5b505050506040513d602081101561151757600080fd5b505190506115436001600160a01b038316600080516020611f0b8339815191528363ffffffff611bfe16565b604080516370a0823160e01b8152600080516020611f0b833981519152600482015290516001600160a01b038416916370a08231916024808301926020929190829003018186803b15801561159757600080fd5b505afa1580156115ab573d6000803e3d6000fd5b505050506040513d60208110156115c157600080fd5b5051604080516001600160a01b0386811660248084019190915260006044808501829052855180860382018152606495860187526020810180516001600160e01b031663095ea7b360e01b1781529651635b0e93fb60e11b8152948a166004860190815293850183905260609185019182528051958501959095528451969750600080516020611f0b8339815191529663b61d27f6968a96939593949360840191808383895b8381101561167f578181015183820152602001611667565b50505050905090810190601f1680156116ac5780820380516001836020036101000a031916815260200191505b50945050505050600060405180830381600087803b1580156116cd57600080fd5b505af11580156116e1573d6000803e3d6000fd5b505050506040513d6000823e601f3d908101601f19168201604090815281101561170a57600080fd5b815160208301805160405192949293830192919084600160201b82111561173057600080fd5b90830190602082018581111561174557600080fd5b8251600160201b81118282018810171561175e57600080fd5b82525081516020918201929091019080838360005b8381101561178b578181015183820152602001611773565b50505050905090810190601f1680156117b85780820380516001836020036101000a031916815260200191505b5060408181526001600160a01b038a811660248085019190915260448085018b9052835180860382018152606495860185526020810180516001600160e01b031663095ea7b360e01b1781529451635b0e93fb60e11b8152938d1660048501908152600093850184905260609285019283528151968501969096528051600080516020611f0b8339815191529b5063b61d27f69a508d995092975095509260849092019190808383895b8381101561187a578181015183820152602001611862565b50505050905090810190601f1680156118a75780820380516001836020036101000a031916815260200191505b50945050505050600060405180830381600087803b1580156118c857600080fd5b505af11580156118dc573d6000803e3d6000fd5b505050506040513d6000823e601f3d908101601f19168201604090815281101561190557600080fd5b815160208301805160405192949293830192919084600160201b82111561192b57600080fd5b90830190602082018581111561194057600080fd5b8251600160201b81118282018810171561195957600080fd5b82525081516020918201929091019080838360005b8381101561198657818101518382015260200161196e565b50505050905090810190601f1680156119b35780820380516001836020036101000a031916815260200191505b5060408181526024808301899052815180840382018152604493840183526020810180516001600160e01b031663b6b55f2560e01b1781529251635b0e93fb60e11b81526001600160a01b038d166004820190815260009382018490526060958201958652825160648301528251939a50600080516020611f0b833981519152995063b61d27f698508d97508a965091949193919260849091019190808383895b83811015611a6c578181015183820152602001611a54565b50505050905090810190601f168015611a995780820380516001836020036101000a031916815260200191505b50945050505050600060405180830381600087803b158015611aba57600080fd5b505af1158015611ace573d6000803e3d6000fd5b505050506040513d6000823e601f3d908101601f191682016040908152811015611af757600080fd5b815160208301805160405192949293830192919084600160201b821115611b1d57600080fd5b908301906020820185811115611b3257600080fd5b8251600160201b811182820188101715611b4b57600080fd5b82525081516020918201929091019080838360005b83811015611b78578181015183820152602001611b60565b50505050905090810190601f168015611ba55780820380516001836020036101000a031916815260200191505b5060405250505050905080611bb657fe5b50505050565b600061039183836040518060400160405280601e81526020017f536166654d6174683a207375627472616374696f6e206f766572666c6f770000815250611c55565b604080516001600160a01b038416602482015260448082018490528251808303909101815260649091019091526020810180516001600160e01b031663a9059cbb60e01b179052611c50908490611cec565b505050565b60008184841115611ce45760405162461bcd60e51b81526004018080602001828103825283818151815260200191508051906020019080838360005b83811015611ca9578181015183820152602001611c91565b50505050905090810190601f168015611cd65780820380516001836020036101000a031916815260200191505b509250505060405180910390fd5b505050900390565b611cfe826001600160a01b0316611ea4565b611d4f576040805162461bcd60e51b815260206004820152601f60248201527f5361666545524332303a2063616c6c20746f206e6f6e2d636f6e747261637400604482015290519081900360640190fd5b60006060836001600160a01b0316836040518082805190602001908083835b60208310611d8d5780518252601f199092019160209182019101611d6e565b6001836020036101000a0380198251168184511680821785525050505050509050019150506000604051808303816000865af19150503d8060008114611def576040519150601f19603f3d011682016040523d82523d6000602084013e611df4565b606091505b509150915081611e4b576040805162461bcd60e51b815260206004820181905260248201527f5361666545524332303a206c6f772d6c6576656c2063616c6c206661696c6564604482015290519081900360640190fd5b805115611bb657808060200190516020811015611e6757600080fd5b5051611bb65760405162461bcd60e51b815260040180806020018281038252602a815260200180611ee1602a913960400191505060405180910390fd5b6000813f7fc5d2460186f7233c927e7db2dcc703c0e500b653ca82273b7bfad8045d85a470818114801590611ed857508115155b94935050505056fe5361666545524332303a204552433230206f7065726174696f6e20646964206e6f742073756363656564000000000000000000000000f147b8125d2ef93fb6965db97d6746952a133934a265627a7a72315820fc95c2f7ac51709366c022691ab11bb71f28145a4a6f6c65400eba5da326d6c364736f6c63430005110032",
  "source": "// SPDX-License-Identifier: MIT\n\npragma solidity ^0.5.17;\n\nimport \"@openzeppelinV2/contracts/token/ERC20/IERC20.sol\";\nimport \"@openzeppelinV2/contracts/math/SafeMath.sol\";\nimport \"@openzeppelinV2/contracts/utils/Address.sol\";\nimport \"@openzeppelinV2/contracts/token/ERC20/SafeERC20.sol\";\n\nimport \"../../interfaces/yearn/IProxy.sol\";\nimport \"../../interfaces/curve/Mintr.sol\";\n\ncontract StrategyProxy {\n    using SafeERC20 for IERC20;\n    using Address for address;\n    using SafeMath for uint256;\n\n    IProxy public constant proxy = IProxy(0xF147b8125d2ef93FB6965Db97D6746952a133934);\n    address public constant mintr = address(0xd061D61a4d941c39E5453435B6345Dc261C2fcE0);\n    address public constant crv = address(0xD533a949740bb3306d119CC777fa900bA034cd52);\n    address public constant gauge = address(0x2F50D538606Fa9EDD2B11E2446BEb18C9D5846bB);\n    address public constant y = address(0xFA712EE4788C042e2B7BB55E6cb8ec569C4530c1);\n\n    mapping(address => bool) public strategies;\n    address public governance;\n\n    constructor() public {\n        governance = msg.sender;\n    }\n\n    function setGovernance(address _governance) external {\n        require(msg.sender == governance, \"!governance\");\n        governance = _governance;\n    }\n\n    function approveStrategy(address _strategy) external {\n        require(msg.sender == governance, \"!governance\");\n        strategies[_strategy] = true;\n    }\n\n    function revokeStrategy(address _strategy) external {\n        require(msg.sender == governance, \"!governance\");\n        strategies[_strategy] = false;\n    }\n\n    function lock() external {\n        uint256 amount = IERC20(crv).balanceOf(address(proxy));\n        if (amount > 0) proxy.increaseAmount(amount);\n    }\n\n    function vote(address _gauge, uint256 _amount) public {\n        require(strategies[msg.sender], \"!strategy\");\n        proxy.execute(gauge, 0, abi.encodeWithSignature(\"vote_for_gauge_weights(address,uint256)\", _gauge, _amount));\n    }\n\n    function withdraw(\n        address _gauge,\n        address _token,\n        uint256 _amount\n    ) public returns (uint256) {\n        require(strategies[msg.sender], \"!strategy\");\n        uint256 _before = IERC20(_token).balanceOf(address(proxy));\n        proxy.execute(_gauge, 0, abi.encodeWithSignature(\"withdraw(uint256)\", _amount));\n        uint256 _after = IERC20(_token).balanceOf(address(proxy));\n        uint256 _net = _after.sub(_before);\n        proxy.execute(_token, 0, abi.encodeWithSignature(\"transfer(address,uint256)\", msg.sender, _net));\n        return _net;\n    }\n\n    function balanceOf(address _gauge) public view returns (uint256) {\n        return IERC20(_gauge).balanceOf(address(proxy));\n    }\n\n    function withdrawAll(address _gauge, address _token) external returns (uint256) {\n        require(strategies[msg.sender], \"!strategy\");\n        return withdraw(_gauge, _token, balanceOf(_gauge));\n    }\n\n    function deposit(address _gauge, address _token) external {\n        require(strategies[msg.sender], \"!strategy\");\n        uint256 _balance = IERC20(_token).balanceOf(address(this));\n        IERC20(_token).safeTransfer(address(proxy), _balance);\n        _balance = IERC20(_token).balanceOf(address(proxy));\n\n        proxy.execute(_token, 0, abi.encodeWithSignature(\"approve(address,uint256)\", _gauge, 0));\n        proxy.execute(_token, 0, abi.encodeWithSignature(\"approve(address,uint256)\", _gauge, _balance));\n        (bool success, ) = proxy.execute(_gauge, 0, abi.encodeWithSignature(\"deposit(uint256)\", _balance));\n        if (!success) assert(false);\n    }\n\n    function harvest(address _gauge) external {\n        require(strategies[msg.sender], \"!strategy\");\n        uint256 _before = IERC20(crv).balanceOf(address(proxy));\n        proxy.execute(mintr, 0, abi.encodeWithSignature(\"mint(address)\", _gauge));\n        uint256 _after = IERC20(crv).balanceOf(address(proxy));\n        uint256 _balance = _after.sub(_before);\n        proxy.execute(crv, 0, abi.encodeWithSignature(\"transfer(address,uint256)\", msg.sender, _balance));\n    }\n}\n",
  "sourcePath": "/Users/sbacha/V2yearn/contracts/strategies/StrategyProxy.sol",
  "compiler": {
    "name": "solc",
    "version": "0.5.17+commit.d19bba13.Emscripten.clang"
  },
  "schemaVersion": "3.1.0",
  "updatedAt": "2020-11-01T01:33:12.841Z",
  "devdoc": {
    "methods": {}
  },
  "userdoc": {
    "methods": {}
  }
}