{
  "contractName": "StrategyMKRVaultDAIDelegate",
  "abi": [
    {
      "inputs": [
        {
          "internalType": "address",
          "name": "_controller",
          "type": "address"
        }
      ],
      "payable": false,
      "stateMutability": "nonpayable",
      "type": "constructor"
    },
    {
      "constant": true,
      "inputs": [],
      "name": "buffer",
      "outputs": [
        {
          "internalType": "uint256",
          "name": "",
          "type": "uint256"
        }
      ],
      "payable": false,
      "stateMutability": "view",
      "type": "function"
    },
    {
      "constant": true,
      "inputs": [],
      "name": "c",
      "outputs": [
        {
          "internalType": "uint256",
          "name": "",
          "type": "uint256"
        }
      ],
      "payable": false,
      "stateMutability": "view",
      "type": "function"
    },
    {
      "constant": true,
      "inputs": [],
      "name": "c_base",
      "outputs": [
        {
          "internalType": "uint256",
          "name": "",
          "type": "uint256"
        }
      ],
      "payable": false,
      "stateMutability": "view",
      "type": "function"
    },
    {
      "constant": true,
      "inputs": [],
      "name": "c_safe",
      "outputs": [
        {
          "internalType": "uint256",
          "name": "",
          "type": "uint256"
        }
      ],
      "payable": false,
      "stateMutability": "view",
      "type": "function"
    },
    {
      "constant": true,
      "inputs": [],
      "name": "cdpId",
      "outputs": [
        {
          "internalType": "uint256",
          "name": "",
          "type": "uint256"
        }
      ],
      "payable": false,
      "stateMutability": "view",
      "type": "function"
    },
    {
      "constant": true,
      "inputs": [],
      "name": "cdp_manager",
      "outputs": [
        {
          "internalType": "address",
          "name": "",
          "type": "address"
        }
      ],
      "payable": false,
      "stateMutability": "view",
      "type": "function"
    },
    {
      "constant": true,
      "inputs": [],
      "name": "controller",
      "outputs": [
        {
          "internalType": "address",
          "name": "",
          "type": "address"
        }
      ],
      "payable": false,
      "stateMutability": "view",
      "type": "function"
    },
    {
      "constant": true,
      "inputs": [],
      "name": "dai",
      "outputs": [
        {
          "internalType": "address",
          "name": "",
          "type": "address"
        }
      ],
      "payable": false,
      "stateMutability": "view",
      "type": "function"
    },
    {
      "constant": true,
      "inputs": [],
      "name": "dex",
      "outputs": [
        {
          "internalType": "address",
          "name": "",
          "type": "address"
        }
      ],
      "payable": false,
      "stateMutability": "view",
      "type": "function"
    },
    {
      "constant": true,
      "inputs": [],
      "name": "eth_price_oracle",
      "outputs": [
        {
          "internalType": "address",
          "name": "",
          "type": "address"
        }
      ],
      "payable": false,
      "stateMutability": "view",
      "type": "function"
    },
    {
      "constant": true,
      "inputs": [],
      "name": "governance",
      "outputs": [
        {
          "internalType": "address",
          "name": "",
          "type": "address"
        }
      ],
      "payable": false,
      "stateMutability": "view",
      "type": "function"
    },
    {
      "constant": true,
      "inputs": [],
      "name": "ilk",
      "outputs": [
        {
          "internalType": "bytes32",
          "name": "",
          "type": "bytes32"
        }
      ],
      "payable": false,
      "stateMutability": "view",
      "type": "function"
    },
    {
      "constant": true,
      "inputs": [],
      "name": "jug",
      "outputs": [
        {
          "internalType": "address",
          "name": "",
          "type": "address"
        }
      ],
      "payable": false,
      "stateMutability": "view",
      "type": "function"
    },
    {
      "constant": true,
      "inputs": [],
      "name": "keeper",
      "outputs": [
        {
          "internalType": "address",
          "name": "",
          "type": "address"
        }
      ],
      "payable": false,
      "stateMutability": "view",
      "type": "function"
    },
    {
      "constant": true,
      "inputs": [],
      "name": "mcd_join_dai",
      "outputs": [
        {
          "internalType": "address",
          "name": "",
          "type": "address"
        }
      ],
      "payable": false,
      "stateMutability": "view",
      "type": "function"
    },
    {
      "constant": true,
      "inputs": [],
      "name": "mcd_join_eth_a",
      "outputs": [
        {
          "internalType": "address",
          "name": "",
          "type": "address"
        }
      ],
      "payable": false,
      "stateMutability": "view",
      "type": "function"
    },
    {
      "constant": true,
      "inputs": [],
      "name": "mcd_spot",
      "outputs": [
        {
          "internalType": "address",
          "name": "",
          "type": "address"
        }
      ],
      "payable": false,
      "stateMutability": "view",
      "type": "function"
    },
    {
      "constant": true,
      "inputs": [],
      "name": "performanceFee",
      "outputs": [
        {
          "internalType": "uint256",
          "name": "",
          "type": "uint256"
        }
      ],
      "payable": false,
      "stateMutability": "view",
      "type": "function"
    },
    {
      "constant": true,
      "inputs": [],
      "name": "strategist",
      "outputs": [
        {
          "internalType": "address",
          "name": "",
          "type": "address"
        }
      ],
      "payable": false,
      "stateMutability": "view",
      "type": "function"
    },
    {
      "constant": true,
      "inputs": [],
      "name": "strategistReward",
      "outputs": [
        {
          "internalType": "uint256",
          "name": "",
          "type": "uint256"
        }
      ],
      "payable": false,
      "stateMutability": "view",
      "type": "function"
    },
    {
      "constant": true,
      "inputs": [],
      "name": "sushiswap",
      "outputs": [
        {
          "internalType": "address",
          "name": "",
          "type": "address"
        }
      ],
      "payable": false,
      "stateMutability": "view",
      "type": "function"
    },
    {
      "constant": true,
      "inputs": [],
      "name": "token",
      "outputs": [
        {
          "internalType": "address",
          "name": "",
          "type": "address"
        }
      ],
      "payable": false,
      "stateMutability": "view",
      "type": "function"
    },
    {
      "constant": true,
      "inputs": [],
      "name": "uniswap",
      "outputs": [
        {
          "internalType": "address",
          "name": "",
          "type": "address"
        }
      ],
      "payable": false,
      "stateMutability": "view",
      "type": "function"
    },
    {
      "constant": true,
      "inputs": [],
      "name": "vat",
      "outputs": [
        {
          "internalType": "address",
          "name": "",
          "type": "address"
        }
      ],
      "payable": false,
      "stateMutability": "view",
      "type": "function"
    },
    {
      "constant": true,
      "inputs": [],
      "name": "want",
      "outputs": [
        {
          "internalType": "address",
          "name": "",
          "type": "address"
        }
      ],
      "payable": false,
      "stateMutability": "view",
      "type": "function"
    },
    {
      "constant": true,
      "inputs": [],
      "name": "weth",
      "outputs": [
        {
          "internalType": "address",
          "name": "",
          "type": "address"
        }
      ],
      "payable": false,
      "stateMutability": "view",
      "type": "function"
    },
    {
      "constant": true,
      "inputs": [],
      "name": "withdrawalFee",
      "outputs": [
        {
          "internalType": "uint256",
          "name": "",
          "type": "uint256"
        }
      ],
      "payable": false,
      "stateMutability": "view",
      "type": "function"
    },
    {
      "constant": true,
      "inputs": [],
      "name": "yVaultDAI",
      "outputs": [
        {
          "internalType": "address",
          "name": "",
          "type": "address"
        }
      ],
      "payable": false,
      "stateMutability": "view",
      "type": "function"
    },
    {
      "constant": true,
      "inputs": [],
      "name": "getName",
      "outputs": [
        {
          "internalType": "string",
          "name": "",
          "type": "string"
        }
      ],
      "payable": false,
      "stateMutability": "pure",
      "type": "function"
    },
    {
      "constant": false,
      "inputs": [
        {
          "internalType": "address",
          "name": "_strategist",
          "type": "address"
        }
      ],
      "name": "setStrategist",
      "outputs": [],
      "payable": false,
      "stateMutability": "nonpayable",
      "type": "function"
    },
    {
      "constant": false,
      "inputs": [
        {
          "internalType": "address",
          "name": "_keeper",
          "type": "address"
        }
      ],
      "name": "setKeeper",
      "outputs": [],
      "payable": false,
      "stateMutability": "nonpayable",
      "type": "function"
    },
    {
      "constant": false,
      "inputs": [
        {
          "internalType": "uint256",
          "name": "_withdrawalFee",
          "type": "uint256"
        }
      ],
      "name": "setWithdrawalFee",
      "outputs": [],
      "payable": false,
      "stateMutability": "nonpayable",
      "type": "function"
    },
    {
      "constant": false,
      "inputs": [
        {
          "internalType": "uint256",
          "name": "_performanceFee",
          "type": "uint256"
        }
      ],
      "name": "setPerformanceFee",
      "outputs": [],
      "payable": false,
      "stateMutability": "nonpayable",
      "type": "function"
    },
    {
      "constant": false,
      "inputs": [
        {
          "internalType": "uint256",
          "name": "_strategistReward",
          "type": "uint256"
        }
      ],
      "name": "setStrategistReward",
      "outputs": [],
      "payable": false,
      "stateMutability": "nonpayable",
      "type": "function"
    },
    {
      "constant": false,
      "inputs": [
        {
          "internalType": "uint256",
          "name": "_c",
          "type": "uint256"
        }
      ],
      "name": "setBorrowCollateralizationRatio",
      "outputs": [],
      "payable": false,
      "stateMutability": "nonpayable",
      "type": "function"
    },
    {
      "constant": false,
      "inputs": [
        {
          "internalType": "uint256",
          "name": "_c_safe",
          "type": "uint256"
        }
      ],
      "name": "setWithdrawCollateralizationRatio",
      "outputs": [],
      "payable": false,
      "stateMutability": "nonpayable",
      "type": "function"
    },
    {
      "constant": false,
      "inputs": [
        {
          "internalType": "uint256",
          "name": "_buffer",
          "type": "uint256"
        }
      ],
      "name": "setBuffer",
      "outputs": [],
      "payable": false,
      "stateMutability": "nonpayable",
      "type": "function"
    },
    {
      "constant": false,
      "inputs": [
        {
          "internalType": "address",
          "name": "_oracle",
          "type": "address"
        }
      ],
      "name": "setOracle",
      "outputs": [],
      "payable": false,
      "stateMutability": "nonpayable",
      "type": "function"
    },
    {
      "constant": false,
      "inputs": [
        {
          "internalType": "address",
          "name": "_manager",
          "type": "address"
        },
        {
          "internalType": "address",
          "name": "_ethAdapter",
          "type": "address"
        },
        {
          "internalType": "address",
          "name": "_daiAdapter",
          "type": "address"
        },
        {
          "internalType": "address",
          "name": "_spot",
          "type": "address"
        },
        {
          "internalType": "address",
          "name": "_jug",
          "type": "address"
        }
      ],
      "name": "setMCDValue",
      "outputs": [],
      "payable": false,
      "stateMutability": "nonpayable",
      "type": "function"
    },
    {
      "constant": false,
      "inputs": [
        {
          "internalType": "bool",
          "name": "isUniswap",
          "type": "bool"
        }
      ],
      "name": "switchDex",
      "outputs": [],
      "payable": false,
      "stateMutability": "nonpayable",
      "type": "function"
    },
    {
      "constant": false,
      "inputs": [],
      "name": "deposit",
      "outputs": [],
      "payable": false,
      "stateMutability": "nonpayable",
      "type": "function"
    },
    {
      "constant": false,
      "inputs": [
        {
          "internalType": "uint256",
          "name": "_amount",
          "type": "uint256"
        }
      ],
      "name": "withdraw",
      "outputs": [],
      "payable": false,
      "stateMutability": "nonpayable",
      "type": "function"
    },
    {
      "constant": false,
      "inputs": [
        {
          "internalType": "contract IERC20",
          "name": "_asset",
          "type": "address"
        }
      ],
      "name": "withdraw",
      "outputs": [
        {
          "internalType": "uint256",
          "name": "balance",
          "type": "uint256"
        }
      ],
      "payable": false,
      "stateMutability": "nonpayable",
      "type": "function"
    },
    {
      "constant": false,
      "inputs": [],
      "name": "withdrawAll",
      "outputs": [
        {
          "internalType": "uint256",
          "name": "balance",
          "type": "uint256"
        }
      ],
      "payable": false,
      "stateMutability": "nonpayable",
      "type": "function"
    },
    {
      "constant": true,
      "inputs": [],
      "name": "balanceOf",
      "outputs": [
        {
          "internalType": "uint256",
          "name": "",
          "type": "uint256"
        }
      ],
      "payable": false,
      "stateMutability": "view",
      "type": "function"
    },
    {
      "constant": true,
      "inputs": [],
      "name": "balanceOfWant",
      "outputs": [
        {
          "internalType": "uint256",
          "name": "",
          "type": "uint256"
        }
      ],
      "payable": false,
      "stateMutability": "view",
      "type": "function"
    },
    {
      "constant": true,
      "inputs": [],
      "name": "balanceOfmVault",
      "outputs": [
        {
          "internalType": "uint256",
          "name": "",
          "type": "uint256"
        }
      ],
      "payable": false,
      "stateMutability": "view",
      "type": "function"
    },
    {
      "constant": false,
      "inputs": [],
      "name": "harvest",
      "outputs": [],
      "payable": false,
      "stateMutability": "nonpayable",
      "type": "function"
    },
    {
      "constant": true,
      "inputs": [],
      "name": "shouldDraw",
      "outputs": [
        {
          "internalType": "bool",
          "name": "",
          "type": "bool"
        }
      ],
      "payable": false,
      "stateMutability": "view",
      "type": "function"
    },
    {
      "constant": true,
      "inputs": [],
      "name": "drawAmount",
      "outputs": [
        {
          "internalType": "uint256",
          "name": "",
          "type": "uint256"
        }
      ],
      "payable": false,
      "stateMutability": "view",
      "type": "function"
    },
    {
      "constant": false,
      "inputs": [],
      "name": "draw",
      "outputs": [],
      "payable": false,
      "stateMutability": "nonpayable",
      "type": "function"
    },
    {
      "constant": true,
      "inputs": [],
      "name": "shouldRepay",
      "outputs": [
        {
          "internalType": "bool",
          "name": "",
          "type": "bool"
        }
      ],
      "payable": false,
      "stateMutability": "view",
      "type": "function"
    },
    {
      "constant": true,
      "inputs": [],
      "name": "repayAmount",
      "outputs": [
        {
          "internalType": "uint256",
          "name": "",
          "type": "uint256"
        }
      ],
      "payable": false,
      "stateMutability": "view",
      "type": "function"
    },
    {
      "constant": false,
      "inputs": [],
      "name": "repay",
      "outputs": [],
      "payable": false,
      "stateMutability": "nonpayable",
      "type": "function"
    },
    {
      "constant": false,
      "inputs": [
        {
          "internalType": "uint256",
          "name": "_amount",
          "type": "uint256"
        }
      ],
      "name": "forceRebalance",
      "outputs": [],
      "payable": false,
      "stateMutability": "nonpayable",
      "type": "function"
    },
    {
      "constant": true,
      "inputs": [],
      "name": "getTotalDebtAmount",
      "outputs": [
        {
          "internalType": "uint256",
          "name": "",
          "type": "uint256"
        }
      ],
      "payable": false,
      "stateMutability": "view",
      "type": "function"
    },
    {
      "constant": true,
      "inputs": [
        {
          "internalType": "uint256",
          "name": "amount",
          "type": "uint256"
        }
      ],
      "name": "getmVaultRatio",
      "outputs": [
        {
          "internalType": "uint256",
          "name": "",
          "type": "uint256"
        }
      ],
      "payable": false,
      "stateMutability": "view",
      "type": "function"
    },
    {
      "constant": true,
      "inputs": [],
      "name": "getUnderlyingWithdrawalFee",
      "outputs": [
        {
          "internalType": "uint256",
          "name": "",
          "type": "uint256"
        }
      ],
      "payable": false,
      "stateMutability": "view",
      "type": "function"
    },
    {
      "constant": true,
      "inputs": [],
      "name": "getUnderlyingDai",
      "outputs": [
        {
          "internalType": "uint256",
          "name": "",
          "type": "uint256"
        }
      ],
      "payable": false,
      "stateMutability": "view",
      "type": "function"
    },
    {
      "constant": false,
      "inputs": [
        {
          "internalType": "address",
          "name": "_governance",
          "type": "address"
        }
      ],
      "name": "setGovernance",
      "outputs": [],
      "payable": false,
      "stateMutability": "nonpayable",
      "type": "function"
    },
    {
      "constant": false,
      "inputs": [
        {
          "internalType": "address",
          "name": "_controller",
          "type": "address"
        }
      ],
      "name": "setController",
      "outputs": [],
      "payable": false,
      "stateMutability": "nonpayable",
      "type": "function"
    }
  ],
  "bytecode": "0x6080604052600080546001600160a01b0319908116735ef30b9986345249bc32d8928b7ee64de9435e391782556001805482167335d1b3f3d7966a1dfe207aa4514c12a259a0492b179055600280548216732f0b23f53734252bda2277357e97e1517d6b042a179055600380548216739759a6ac90977b93b58547b4a71c78317f391a281790556004805482167365c79fcb50ca1594b025960e539ed7a9a6d434a31790556005805482167319c0976f590d67707e62397c87829d896dc0f1f11790556006805490911673cf63089a8ad2a9d8bd6bb8022f3190eb7e1ed0f1179055614e20600755619c406008556101f46009556101c2600a55600b556032600c553480156200010e57600080fd5b50604051620040ac380380620040ac833981810160405260208110156200013457600080fd5b5051600d80546001600160a01b031990811633908117909255600f8054821683179055601080548216909217909155600e80546001600160a01b038085169184169190911790915560118054909216737a250d5630b4cf539739df2c5dacb4c659f2488d179091556000805460408051636090dec560e01b8152644554482d4160d81b600482015230602482015290519190931692636090dec59260448083019360209390929083900390910190829087803b158015620001f457600080fd5b505af115801562000209573d6000803e3d6000fd5b505050506040513d60208110156200022057600080fd5b5051601255620002386001600160e01b036200023f16565b50620005b2565b6002546040805163095ea7b360e01b81526001600160a01b03909216600483015260001960248301525173c02aaa39b223fe8d0a0e5c4f27ead9083c756cc29163095ea7b39160448083019260209291908290030181600087803b158015620002a757600080fd5b505af1158015620002bc573d6000803e3d6000fd5b505050506040513d6020811015620002d357600080fd5b50506003546040805163095ea7b360e01b81526001600160a01b039092166004830152600019602483015251736b175474e89094c44da98b954eedeac495271d0f9163095ea7b39160448083019260209291908290030181600087803b1580156200033d57600080fd5b505af115801562000352573d6000803e3d6000fd5b505050506040513d60208110156200036957600080fd5b5050600154600354604080516328ec8bf160e21b81526001600160a01b0392831660048201529051919092169163a3b22fc491602480830192600092919082900301818387803b158015620003bd57600080fd5b505af1158015620003d2573d6000803e3d6000fd5b50506040805163095ea7b360e01b815273acd43e627e64355f1861cec6d3a6688b31a6f952600482015260001960248201529051736b175474e89094c44da98b954eedeac495271d0f935063095ea7b3925060448083019260209291908290030181600087803b1580156200044657600080fd5b505af11580156200045b573d6000803e3d6000fd5b505050506040513d60208110156200047257600080fd5b50506040805163095ea7b360e01b8152737a250d5630b4cf539739df2c5dacb4c659f2488d600482015260001960248201529051736b175474e89094c44da98b954eedeac495271d0f9163095ea7b39160448083019260209291908290030181600087803b158015620004e457600080fd5b505af1158015620004f9573d6000803e3d6000fd5b505050506040513d60208110156200051057600080fd5b50506040805163095ea7b360e01b815273d9e1ce17f2641f24ae83637ab66a2cca9c378b9f600482015260001960248201529051736b175474e89094c44da98b954eedeac495271d0f9163095ea7b39160448083019260209291908290030181600087803b1580156200058257600080fd5b505af115801562000597573d6000803e3d6000fd5b505050506040513d6020811015620005ae57600080fd5b5050565b613aea80620005c26000396000f3fe608060405234801561001057600080fd5b50600436106103ae5760003560e01c8063853828b6116101f4578063c5ce281e1161011a578063d7f35550116100ad578063f4b9fa751161007c578063f4b9fa75146107df578063f77c4791146107e7578063f9f42b4f146107ef578063fc0c546a14610497576103ae565b8063d7f35550146107bf578063ebf661b6146107c7578063edaafe20146107cf578063f2144484146107d7576103ae565b8063c9c2c2fe116100e9578063c9c2c2fe1461075f578063d0e30db014610767578063d0efe7531461076f578063d658c6af14610777576103ae565b8063c5ce281e14610721578063c732140114610729578063c7b9d53014610731578063c7c57c1f14610757576103ae565b8063ab033ea911610192578063b6124c7b11610161578063b6124c7b146106d7578063c1a3d44c146106f4578063c392c6f7146106fc578063c3da42b814610719576103ae565b8063ab033ea91461066f578063ac1e502514610695578063aced1661146106b2578063adc7ea37146106ba576103ae565b806392eefe9b116101ce57806392eefe9b146106315780639832fb4b146106575780639be287851461065f578063a280062014610667576103ae565b8063853828b61461061957806387788782146106215780638bc7e8c414610629576103ae565b80634a1a066b116102d957806370897b23116102775780637adbf973116102465780637adbf973146105db578063804574a8146106015780638158676e1461060957806384718d8914610611576103ae565b806370897b2314610588578063722713f7146105a5578063748747e6146105ad578063781eff12146105d3576103ae565b806361880a92116102b357806361880a9214610551578063669c62d414610559578063692058c2146105615780636bc5587614610569576103ae565b80634a1a066b1461051b57806351cff8d9146105235780635aa6e67514610549576103ae565b8063252345531161035157806336569e771161032057806336569e77146105035780633fc8cef314610497578063402d88831461050b5780634641257d14610513576103ae565b806325234553146104a75780632641e5cd146104c15780632681f7e4146104de5780632e1a7d4d146104e6576103ae565b8063121c1a651161038d578063121c1a65146103f657806317d7de7c1461041a5780631f1fcd51146104975780631fe4a6861461049f576103ae565b8062beada4146103b35780630d596cdf146103cf5780630eecae21146103ee575b600080fd5b6103bb61080c565b604080519115158252519081900360200190f35b6103ec600480360360208110156103e557600080fd5b503561086d565b005b6103ec6108bf565b6103fe610947565b604080516001600160a01b039092168252519081900360200190f35b610422610956565b6040805160208082528351818301528351919283929083019185019080838360005b8381101561045c578181015183820152602001610444565b50505050905090810190601f1680156104895780820380516001836020036101000a031916815260200191505b509250505060405180910390f35b6103fe61098d565b6103fe61099f565b6104af6109ae565b60408051918252519081900360200190f35b6103ec600480360360208110156104d757600080fd5b50356109b4565b6103fe610a06565b6103ec600480360360208110156104fc57600080fd5b5035610a1e565b6103fe610cd6565b6103ec610ce5565b6103ec610d0a565b6104af611019565b6104af6004803603602081101561053957600080fd5b50356001600160a01b031661101f565b6103fe611211565b6104af611220565b6103fe6112db565b6103fe6112ea565b6103ec6004803603602081101561057f57600080fd5b503515156112f9565b6103ec6004803603602081101561059e57600080fd5b50356113b5565b6104af611407565b6103ec600480360360208110156105c357600080fd5b50356001600160a01b031661142d565b6104af6114ae565b6103ec600480360360208110156105f157600080fd5b50356001600160a01b0316611671565b6103fe6116e0565b6104af6116f8565b6103fe6116fe565b6104af61170d565b6104af611926565b6104af61192c565b6103ec6004803603602081101561064757600080fd5b50356001600160a01b0316611932565b6103fe6119a1565b6103fe6119b0565b6103fe6119c8565b6103ec6004803603602081101561068557600080fd5b50356001600160a01b03166119d7565b6103ec600480360360208110156106ab57600080fd5b5035611a46565b6103fe611a98565b6103ec600480360360208110156106d057600080fd5b5035611aa7565b6103ec600480360360208110156106ed57600080fd5b5035611af9565b6104af611b4b565b6104af6004803603602081101561071257600080fd5b5035611bcb565b6104af611d85565b6104af611d8b565b6104af611d97565b6103ec6004803603602081101561074757600080fd5b50356001600160a01b0316611ea4565b6103fe611f13565b6104af611f22565b6103ec612028565b6104af6121b6565b6103ec600480360360a081101561078d57600080fd5b506001600160a01b03813581169160208101358216916040820135811691606081013582169160809091013516612205565b6104af612330565b6103bb612336565b6104af612362565b6104af612368565b6103fe61247b565b6103fe612493565b6103ec6004803603602081101561080557600080fd5b50356124a2565b600061085c61082860095461271061252790919063ffffffff16565b610850612710610844606460075461257290919063ffffffff16565b9063ffffffff61257216565b9063ffffffff6125cb16565b6108666000611bcb565b1190505b90565b600d546001600160a01b031633146108ba576040805162461bcd60e51b815260206004820152600b60248201526a21676f7665726e616e636560a81b604482015290519081900360640190fd5b600c55565b60006108c9611220565b90508015610944576108dc60008261260d565b73acd43e627e64355f1861cec6d3a6688b31a6f9526001600160a01b031663de5f62686040518163ffffffff1660e01b8152600401600060405180830381600087803b15801561092b57600080fd5b505af115801561093f573d6000803e3d6000fd5b505050505b50565b6006546001600160a01b031681565b60408051808201909152601b81527f53747261746567794d4b525661756c7444414944656c65676174650000000000602082015290565b600080516020613a4b83398151915281565b600f546001600160a01b031681565b61271081565b600d546001600160a01b03163314610a01576040805162461bcd60e51b815260206004820152600b60248201526a21676f7665726e616e636560a81b604482015290519081900360640190fd5b600755565b737a250d5630b4cf539739df2c5dacb4c659f2488d81565b600e546001600160a01b03163314610a6b576040805162461bcd60e51b815260206004820152600b60248201526a10b1b7b73a3937b63632b960a91b604482015290519081900360640190fd5b604080516370a0823160e01b81523060048201529051600091600080516020613a4b833981519152916370a0823191602480820192602092909190829003018186803b158015610aba57600080fd5b505afa158015610ace573d6000803e3d6000fd5b505050506040513d6020811015610ae457600080fd5b5051905081811015610b1d57610b08610b03838363ffffffff61252716565b612889565b9150610b1a828263ffffffff61290616565b91505b6000610b3a612710610850600b548661257290919063ffffffff16565b9050610bd5600e60009054906101000a90046001600160a01b03166001600160a01b0316639ec5a8946040518163ffffffff1660e01b815260040160206040518083038186803b158015610b8d57600080fd5b505afa158015610ba1573d6000803e3d6000fd5b505050506040513d6020811015610bb757600080fd5b5051600080516020613a4b833981519152908363ffffffff61296016565b600e5460408051632988bb9f60e21b8152600080516020613a4b833981519152600482015290516000926001600160a01b03169163a622ee7c916024808301926020929190829003018186803b158015610c2e57600080fd5b505afa158015610c42573d6000803e3d6000fd5b505050506040513d6020811015610c5857600080fd5b505190506001600160a01b038116610ca0576040805162461bcd60e51b8152602060048201526006602482015265085d985d5b1d60d21b604482015290519081900360640190fd5b610cd081610cb4868563ffffffff61252716565b600080516020613a4b833981519152919063ffffffff61296016565b50505050565b6001546001600160a01b031681565b6000610cef6121b6565b90508015610944576109446000610d05836129b2565b612d00565b600f546001600160a01b0316331480610d2d57506010546001600160a01b031633145b80610d425750600d546001600160a01b031633145b610d81576040805162461bcd60e51b815260206004820152600b60248201526a08585d5d1a1bdc9a5e995960aa1b604482015290519081900360640190fd5b6000610d8b612368565b90506000610d976114ae565b9050808211610ded576040805162461bcd60e51b815260206004820152601b60248201527f70726f666974206973206e6f74207265616c697a656420796574210000000000604482015290519081900360640190fd5b6000610dff838363ffffffff61252716565b9050610e0a81612fc8565b50604080516370a0823160e01b81523060048201529051610e9291736b175474e89094c44da98b954eedeac495271d0f916370a0823191602480820192602092909190829003018186803b158015610e6157600080fd5b505afa158015610e75573d6000803e3d6000fd5b505050506040513d6020811015610e8b57600080fd5b505161305f565b604080516370a0823160e01b81523060048201529051600091600080516020613a4b833981519152916370a0823191602480820192602092909190829003018186803b158015610ee157600080fd5b505afa158015610ef5573d6000803e3d6000fd5b505050506040513d6020811015610f0b57600080fd5b505190508015611011576000610f32612710610850600a548561257290919063ffffffff16565b90506000610f51612710610850600c548661257290919063ffffffff16565b600f54909150610f8090600080516020613a4b833981519152906001600160a01b03168363ffffffff61296016565b600e54604080516327b16a2560e21b8152905161100e926001600160a01b031691639ec5a894916004808301926020929190829003018186803b158015610fc657600080fd5b505afa158015610fda573d6000803e3d6000fd5b505050506040513d6020811015610ff057600080fd5b5051600080516020613a4b833981519152908463ffffffff61296016565b50505b610cd0612028565b60125481565b600e546000906001600160a01b0316331461106f576040805162461bcd60e51b815260206004820152600b60248201526a10b1b7b73a3937b63632b960a91b604482015290519081900360640190fd5b600080516020613a4b8339815191526001600160a01b03831614156110c4576040805162461bcd60e51b815260206004808301919091526024820152631dd85b9d60e21b604482015290519081900360640190fd5b736b175474e89094c44da98b954eedeac495271d0f6001600160a01b038316141561111c576040805162461bcd60e51b815260206004820152600360248201526264616960e81b604482015290519081900360640190fd5b73acd43e627e64355f1861cec6d3a6688b31a6f9526001600160a01b0383161415611177576040805162461bcd60e51b815260206004808301919091526024820152637964616960e01b604482015290519081900360640190fd5b604080516370a0823160e01b815230600482015290516001600160a01b038416916370a08231916024808301926020929190829003018186803b1580156111bd57600080fd5b505afa1580156111d1573d6000803e3d6000fd5b505050506040513d60208110156111e757600080fd5b5051600e5490915061120c906001600160a01b0384811691168363ffffffff61296016565b919050565b600d546001600160a01b031681565b600080611239606460075461257290919063ffffffff16565b905060006112476000611bcb565b9050611265606461084460085461271061257290919063ffffffff16565b81111561128b57611288606461084460085461271061257290919063ffffffff16565b90505b818111156112d257600061129d6114ae565b905060006112b1838563ffffffff61252716565b90506112c784610850848463ffffffff61257216565b94505050505061086a565b60009250505090565b6000546001600160a01b031681565b6011546001600160a01b031681565b600f546001600160a01b031633148061131c5750600d546001600160a01b031633145b61135b576040805162461bcd60e51b815260206004820152600b60248201526a08585d5d1a1bdc9a5e995960aa1b604482015290519081900360640190fd5b801561138c57601180546001600160a01b031916737a250d5630b4cf539739df2c5dacb4c659f2488d179055610944565b601180546001600160a01b03191673d9e1ce17f2641f24ae83637ab66a2cca9c378b9f17905550565b600d546001600160a01b03163314611402576040805162461bcd60e51b815260206004820152600b60248201526a21676f7665726e616e636560a81b604482015290519081900360640190fd5b600a55565b6000611428611414611d97565b61141c611b4b565b9063ffffffff61290616565b905090565b6010546001600160a01b03163314806114505750600d546001600160a01b031633145b61148c576040805162461bcd60e51b815260206004820152600860248201526708585b1b1bddd95960c21b604482015290519081900360640190fd5b601080546001600160a01b0319166001600160a01b0392909216919091179055565b6000806000806000809054906101000a90046001600160a01b03166001600160a01b0316632726b0736012546040518263ffffffff1660e01b81526004018082815260200191505060206040518083038186803b15801561150e57600080fd5b505afa158015611522573d6000803e3d6000fd5b505050506040513d602081101561153857600080fd5b5051600154604080516309092f9760e21b8152644554482d4160d81b60048201526001600160a01b038085166024830152825194955090921692632424be5c926044808201939291829003018186803b15801561159457600080fd5b505afa1580156115a8573d6000803e3d6000fd5b505050506040513d60408110156115be57600080fd5b506020015160015460408051636cb1c69b60e11b8152644554482d4160d81b600482015290519295506001600160a01b039091169163d9638d369160248082019260a092909190829003018186803b15801561161957600080fd5b505afa15801561162d573d6000803e3d6000fd5b505050506040513d60a081101561164357600080fd5b50602001519150611669676765c793fa10079d601b1b610850858563ffffffff61257216565b935050505090565b600d546001600160a01b031633146116be576040805162461bcd60e51b815260206004820152600b60248201526a21676f7665726e616e636560a81b604482015290519081900360640190fd5b600680546001600160a01b0319166001600160a01b0392909216919091179055565b73acd43e627e64355f1861cec6d3a6688b31a6f95281565b600c5481565b6005546001600160a01b031681565b600e546000906001600160a01b0316331461175d576040805162461bcd60e51b815260206004820152600b60248201526a10b1b7b73a3937b63632b960a91b604482015290519081900360640190fd5b6117656131d2565b604080516370a0823160e01b815230600482015290516117bb91736b175474e89094c44da98b954eedeac495271d0f916370a0823191602480820192602092909190829003018186803b158015610e6157600080fd5b604080516370a0823160e01b81523060048201529051600080516020613a4b833981519152916370a08231916024808301926020929190829003018186803b15801561180657600080fd5b505afa15801561181a573d6000803e3d6000fd5b505050506040513d602081101561183057600080fd5b5051600e5460408051632988bb9f60e21b8152600080516020613a4b833981519152600482015290519293506000926001600160a01b039092169163a622ee7c91602480820192602092909190829003018186803b15801561189157600080fd5b505afa1580156118a5573d6000803e3d6000fd5b505050506040513d60208110156118bb57600080fd5b505190506001600160a01b038116611903576040805162461bcd60e51b8152602060048201526006602482015265085d985d5b1d60d21b604482015290519081900360640190fd5b611922600080516020613a4b833981519152828463ffffffff61296016565b5090565b600a5481565b600b5481565b600d546001600160a01b0316331461197f576040805162461bcd60e51b815260206004820152600b60248201526a21676f7665726e616e636560a81b604482015290519081900360640190fd5b600e80546001600160a01b0319166001600160a01b0392909216919091179055565b6002546001600160a01b031681565b73d9e1ce17f2641f24ae83637ab66a2cca9c378b9f81565b6003546001600160a01b031681565b600d546001600160a01b03163314611a24576040805162461bcd60e51b815260206004820152600b60248201526a21676f7665726e616e636560a81b604482015290519081900360640190fd5b600d80546001600160a01b0319166001600160a01b0392909216919091179055565b600d546001600160a01b03163314611a93576040805162461bcd60e51b815260206004820152600b60248201526a21676f7665726e616e636560a81b604482015290519081900360640190fd5b600b55565b6010546001600160a01b031681565b600d546001600160a01b03163314611af4576040805162461bcd60e51b815260206004820152600b60248201526a21676f7665726e616e636560a81b604482015290519081900360640190fd5b600955565b600d546001600160a01b03163314611b46576040805162461bcd60e51b815260206004820152600b60248201526a21676f7665726e616e636560a81b604482015290519081900360640190fd5b600855565b604080516370a0823160e01b81523060048201529051600091600080516020613a4b833981519152916370a0823191602480820192602092909190829003018186803b158015611b9a57600080fd5b505afa158015611bae573d6000803e3d6000fd5b505050506040513d6020811015611bc457600080fd5b5051905090565b600080600080611bd96114ae565b905080611bed57600019935050505061120c565b60015460408051636cb1c69b60e11b8152644554482d4160d81b600482015290516001600160a01b039092169163d9638d369160248082019260a092909190829003018186803b158015611c4057600080fd5b505afa158015611c54573d6000803e3d6000fd5b505050506040513d60a0811015611c6a57600080fd5b50604090810151600480548351636cb1c69b60e11b8152644554482d4160d81b9281019290925283519296506001600160a01b03169263d9638d3692602480840193829003018186803b158015611cc057600080fd5b505afa158015611cd4573d6000803e3d6000fd5b505050506040513d6040811015611cea57600080fd5b506020015191506000611d12676765c793fa10079d601b1b610850868663ffffffff61257216565b90506000611d1e611d97565b905086811015611d3057506000611d43565b611d40818863ffffffff61252716565b90505b6000611d61670de0b6b3a7640000610850848663ffffffff61257216565b9050611d796103e8610850838763ffffffff6125cb16565b98975050505050505050565b60075481565b644554482d4160d81b81565b6000805460125460408051632726b07360e01b8152600481019290925251839283926001600160a01b0390911691632726b07391602480820192602092909190829003018186803b158015611deb57600080fd5b505afa158015611dff573d6000803e3d6000fd5b505050506040513d6020811015611e1557600080fd5b5051600154604080516309092f9760e21b8152644554482d4160d81b60048201526001600160a01b038085166024830152825194955090921692632424be5c926044808201939291829003018186803b158015611e7157600080fd5b505afa158015611e85573d6000803e3d6000fd5b505050506040513d6040811015611e9b57600080fd5b50519250505090565b600d546001600160a01b03163314611ef1576040805162461bcd60e51b815260206004820152600b60248201526a21676f7665726e616e636560a81b604482015290519081900360640190fd5b600f80546001600160a01b0319166001600160a01b0392909216919091179055565b6004546001600160a01b031681565b600e54604080516339ebf82360e01b8152736b175474e89094c44da98b954eedeac495271d0f6004820152905160009283926001600160a01b03909116916339ebf82391602480820192602092909190829003018186803b158015611f8657600080fd5b505afa158015611f9a573d6000803e3d6000fd5b505050506040513d6020811015611fb057600080fd5b5051604080516322f1fa3160e21b815290519192506001600160a01b03831691638bc7e8c491600480820192602092909190829003018186803b158015611ff657600080fd5b505afa15801561200a573d6000803e3d6000fd5b505050506040513d602081101561202057600080fd5b505191505090565b604080516370a0823160e01b81523060048201529051600091600080516020613a4b833981519152916370a0823191602480820192602092909190829003018186803b15801561207757600080fd5b505afa15801561208b573d6000803e3d6000fd5b505050506040513d60208110156120a157600080fd5b5051905080156109445760006120b5613253565b905060006120e4670de0b6b3a7640000610850600754610850612710610844888a61257290919063ffffffff16565b90506120ef81613350565b612140576040805162461bcd60e51b815260206004820152601860248201527f64656274206365696c696e672069732072656163686564210000000000000000604482015290519081900360640190fd5b61214a838261260d565b73acd43e627e64355f1861cec6d3a6688b31a6f9526001600160a01b031663de5f62686040518163ffffffff1660e01b8152600401600060405180830381600087803b15801561219957600080fd5b505af11580156121ad573d6000803e3d6000fd5b50505050505050565b6000806121cf606460075461257290919063ffffffff16565b905060006121dd6000611bcb565b9050818110156112d25760006121f16114ae565b905060006112b1848463ffffffff61252716565b600d546001600160a01b03163314612252576040805162461bcd60e51b815260206004820152600b60248201526a21676f7665726e616e636560a81b604482015290519081900360640190fd5b600080546001600160a01b0319166001600160a01b038716908117909155604080516336569e7760e01b815290516336569e7791600480820192602092909190829003018186803b1580156122a657600080fd5b505afa1580156122ba573d6000803e3d6000fd5b505050506040513d60208110156122d057600080fd5b5051600180546001600160a01b03199081166001600160a01b039384161790915560028054821696831696909617909555600380548616948216949094179093556004805485169284169290921790915560058054909316911617905550565b60085481565b600061235261082860095461271061290690919063ffffffff16565b61235c6000611bcb565b10905090565b60095481565b6000611428670de0b6b3a764000061085073acd43e627e64355f1861cec6d3a6688b31a6f9526001600160a01b03166377c7b8fc6040518163ffffffff1660e01b815260040160206040518083038186803b1580156123c657600080fd5b505afa1580156123da573d6000803e3d6000fd5b505050506040513d60208110156123f057600080fd5b5051604080516370a0823160e01b8152306004820152905173acd43e627e64355f1861cec6d3a6688b31a6f952916370a08231916024808301926020929190829003018186803b15801561244357600080fd5b505afa158015612457573d6000803e3d6000fd5b505050506040513d602081101561246d57600080fd5b50519063ffffffff61257216565b736b175474e89094c44da98b954eedeac495271d0f81565b600e546001600160a01b031681565b600d546001600160a01b03163314806124c55750600f546001600160a01b031633145b806124da57506010546001600160a01b031633145b612519576040805162461bcd60e51b815260206004820152600b60248201526a08585d5d1a1bdc9a5e995960aa1b604482015290519081900360640190fd5b6109446000610d05836129b2565b600061256983836040518060400160405280601e81526020017f536166654d6174683a207375627472616374696f6e206f766572666c6f770000815250613420565b90505b92915050565b6000826125815750600061256c565b8282028284828161258e57fe5b04146125695760405162461bcd60e51b8152600401808060200182810382526021815260200180613a6b6021913960400191505060405180910390fd5b600061256983836040518060400160405280601a81526020017f536166654d6174683a206469766973696f6e206279207a65726f0000000000008152506134b7565b6000805460125460408051632726b07360e01b81526004810192909252516001600160a01b0390921691632726b07391602480820192602092909190829003018186803b15801561265d57600080fd5b505afa158015612671573d6000803e3d6000fd5b505050506040513d602081101561268757600080fd5b5051905082156126ff5760025460408051633b4da69f60e01b81526001600160a01b0384811660048301526024820187905291519190921691633b4da69f91604480830192600092919082900301818387803b1580156126e657600080fd5b505af11580156126fa573d6000803e3d6000fd5b505050505b6000546012546001600160a01b03909116906345e6bdcd906127208661351c565b61272a8587613562565b6040518463ffffffff1660e01b8152600401808481526020018381526020018281526020019350505050600060405180830381600087803b15801561276e57600080fd5b505af1158015612782573d6000803e3d6000fd5b50506000546012546001600160a01b03909116925063f9f30db69150306127ba86676765c793fa10079d601b1b63ffffffff61257216565b6040518463ffffffff1660e01b815260040180848152602001836001600160a01b03166001600160a01b031681526020018281526020019350505050600060405180830381600087803b15801561281057600080fd5b505af1158015612824573d6000803e3d6000fd5b505050506000821115612884576003546040805163ef693bed60e01b81523060048201526024810185905290516001600160a01b039092169163ef693bed9160448082019260009290919082900301818387803b15801561219957600080fd5b505050565b6000806128946114ae565b158015906128bc57506008546128b190606463ffffffff61257216565b6128ba84611bcb565b105b156128f55760006128cb613253565b90506128f16128ec670de0b6b3a7640000610850878563ffffffff61257216565b6129b2565b9150505b6128ff8382612d00565b5090919050565b600082820183811015612569576040805162461bcd60e51b815260206004820152601b60248201527f536166654d6174683a206164646974696f6e206f766572666c6f770000000000604482015290519081900360640190fd5b604080516001600160a01b038416602482015260448082018490528251808303909101815260649091019091526020810180516001600160e01b031663a9059cbb60e01b179052612884908490613709565b600080612a6c6129d26129c3611f22565b6127109063ffffffff61252716565b61085061271061084473acd43e627e64355f1861cec6d3a6688b31a6f9526001600160a01b03166377c7b8fc6040518163ffffffff1660e01b815260040160206040518083038186803b158015612a2857600080fd5b505afa158015612a3c573d6000803e3d6000fd5b505050506040513d6020811015612a5257600080fd5b505161085089670de0b6b3a764000063ffffffff61257216565b604080516370a0823160e01b8152306004820152905191925073acd43e627e64355f1861cec6d3a6688b31a6f952916370a0823191602480820192602092909190829003018186803b158015612ac157600080fd5b505afa158015612ad5573d6000803e3d6000fd5b505050506040513d6020811015612aeb57600080fd5b5051811115612b7457604080516370a0823160e01b8152306004820152905173acd43e627e64355f1861cec6d3a6688b31a6f952916370a08231916024808301926020929190829003018186803b158015612b4557600080fd5b505afa158015612b59573d6000803e3d6000fd5b505050506040513d6020811015612b6f57600080fd5b505190505b604080516370a0823160e01b81523060048201529051600091736b175474e89094c44da98b954eedeac495271d0f916370a0823191602480820192602092909190829003018186803b158015612bc957600080fd5b505afa158015612bdd573d6000803e3d6000fd5b505050506040513d6020811015612bf357600080fd5b505160408051632e1a7d4d60e01b815260048101859052905191925073acd43e627e64355f1861cec6d3a6688b31a6f95291632e1a7d4d9160248082019260009290919082900301818387803b158015612c4c57600080fd5b505af1158015612c60573d6000803e3d6000fd5b5050604080516370a0823160e01b8152306004820152905160009350736b175474e89094c44da98b954eedeac495271d0f92506370a0823191602480820192602092909190829003018186803b158015612cb957600080fd5b505afa158015612ccd573d6000803e3d6000fd5b505050506040513d6020811015612ce357600080fd5b50519050612cf7818363ffffffff61252716565b95945050505050565b6000805460125460408051632726b07360e01b81526004810192909252516001600160a01b0390921691632726b07391602480820192602092909190829003018186803b158015612d5057600080fd5b505afa158015612d64573d6000803e3d6000fd5b505050506040513d6020811015612d7a57600080fd5b505190508115612df25760035460408051633b4da69f60e01b81526001600160a01b0384811660048301526024820186905291519190921691633b4da69f91604480830192600092919082900301818387803b158015612dd957600080fd5b505af1158015612ded573d6000803e3d6000fd5b505050505b6000546012546001600160a01b03909116906345e6bdcd90612e138661351c565b60015460408051633612d9a360e11b81526001600160a01b038881166004830152915160009490940393612e9e939290921691636c25b34691602480820192602092909190829003018186803b158015612e6c57600080fd5b505afa158015612e80573d6000803e3d6000fd5b505050506040513d6020811015612e9657600080fd5b5051866138c1565b6040518463ffffffff1660e01b8152600401808481526020018381526020018281526020019350505050600060405180830381600087803b158015612ee257600080fd5b505af1158015612ef6573d6000803e3d6000fd5b505060008054601254604080516313771f0760e31b8152600481019290925230602483015260448201899052516001600160a01b039092169450639bb8f8389350606480820193929182900301818387803b158015612f5457600080fd5b505af1158015612f68573d6000803e3d6000fd5b505050506000831115612884576002546040805163ef693bed60e01b81523060048201526024810186905290516001600160a01b039092169163ef693bed9160448082019260009290919082900301818387803b15801561219957600080fd5b600080612a6c73acd43e627e64355f1861cec6d3a6688b31a6f9526001600160a01b03166377c7b8fc6040518163ffffffff1660e01b815260040160206040518083038186803b15801561301b57600080fd5b505afa15801561302f573d6000803e3d6000fd5b505050506040513d602081101561304557600080fd5b505161085085670de0b6b3a764000063ffffffff61257216565b6040805160028082526060808301845292602083019080388339019050509050736b175474e89094c44da98b954eedeac495271d0f816000815181106130a157fe5b60200260200101906001600160a01b031690816001600160a01b031681525050600080516020613a4b833981519152816001815181106130dd57fe5b6001600160a01b039283166020918202929092010152601154166338ed17398360008430613114426201518063ffffffff61290616565b6040518663ffffffff1660e01b81526004018086815260200185815260200180602001846001600160a01b03166001600160a01b03168152602001838152602001828103825285818151815260200191508051906020019060200280838360005b8381101561318d578181015183820152602001613175565b505050509050019650505050505050600060405180830381600087803b1580156131b657600080fd5b505af11580156131ca573d6000803e3d6000fd5b505050505050565b73acd43e627e64355f1861cec6d3a6688b31a6f9526001600160a01b031663853828b66040518163ffffffff1660e01b8152600401600060405180830381600087803b15801561322157600080fd5b505af1158015613235573d6000803e3d6000fd5b50505050613251613244611d97565b610d05600161141c6114ae565b565b600654604080516315f789a960e21b8152815160009384936001600160a01b03909116926357de26a49260048083019392829003018186803b15801561329857600080fd5b505afa1580156132ac573d6000803e3d6000fd5b505050506040513d60408110156132c257600080fd5b5051600654604080516333eb672360e21b815281519394506000936001600160a01b039093169263cfad9c8c92600480840193919291829003018186803b15801561330c57600080fd5b505afa158015613320573d6000803e3d6000fd5b505050506040513d604081101561333657600080fd5b505190508181106133475781613349565b805b9250505090565b60015460408051636cb1c69b60e11b8152644554482d4160d81b6004820152905160009283926001600160a01b039091169163d9638d369160248082019260a092909190829003018186803b1580156133a857600080fd5b505afa1580156133bc573d6000803e3d6000fd5b505050506040513d60a08110156133d257600080fd5b5060600151905060006133e78461141c6114ae565b90508061340583676765c793fa10079d601b1b63ffffffff6125cb16565b10156134165760009250505061120c565b5060019392505050565b600081848411156134af5760405162461bcd60e51b81526004018080602001828103825283818151815260200191508051906020019080838360005b8381101561347457818101518382015260200161345c565b50505050905090810190601f1680156134a15780820380516001836020036101000a031916815260200191505b509250505060405180910390fd5b505050900390565b600081836135065760405162461bcd60e51b815260206004820181815283516024840152835190928392604490910191908501908083836000831561347457818101518382015260200161345c565b50600083858161351257fe5b0495945050505050565b80600081121561120c576040805162461bcd60e51b815260206004820152600c60248201526b696e742d6f766572666c6f7760a01b604482015290519081900360640190fd5b6005546040805163089c54b560e31b8152644554482d4160d81b6004820152905160009283926001600160a01b03909116916344e2a5a89160248082019260209290919082900301818787803b1580156135bb57600080fd5b505af11580156135cf573d6000803e3d6000fd5b505050506040513d60208110156135e557600080fd5b505160015460408051633612d9a360e11b81526001600160a01b03888116600483015291519394506000939190921691636c25b346916024808301926020929190829003018186803b15801561363a57600080fd5b505afa15801561364e573d6000803e3d6000fd5b505050506040513d602081101561366457600080fd5b5051905061368384676765c793fa10079d601b1b63ffffffff61257216565b811015613701576136c16136bc83610850846136b089676765c793fa10079d601b1b63ffffffff61257216565b9063ffffffff61252716565b61351c565b92506136de84676765c793fa10079d601b1b63ffffffff61257216565b6136ee848463ffffffff61257216565b106136f957826136fe565b826001015b92505b505092915050565b61371b826001600160a01b0316613a0e565b61376c576040805162461bcd60e51b815260206004820152601f60248201527f5361666545524332303a2063616c6c20746f206e6f6e2d636f6e747261637400604482015290519081900360640190fd5b60006060836001600160a01b0316836040518082805190602001908083835b602083106137aa5780518252601f19909201916020918201910161378b565b6001836020036101000a0380198251168184511680821785525050505050509050019150506000604051808303816000865af19150503d806000811461380c576040519150601f19603f3d011682016040523d82523d6000602084013e613811565b606091505b509150915081613868576040805162461bcd60e51b815260206004820181905260248201527f5361666545524332303a206c6f772d6c6576656c2063616c6c206661696c6564604482015290519081900360640190fd5b805115610cd05780806020019051602081101561388457600080fd5b5051610cd05760405162461bcd60e51b815260040180806020018281038252602a815260200180613a8c602a913960400191505060405180910390fd5b60015460408051636cb1c69b60e11b8152644554482d4160d81b6004820152905160009283926001600160a01b039091169163d9638d369160248082019260a092909190829003018186803b15801561391957600080fd5b505afa15801561392d573d6000803e3d6000fd5b505050506040513d60a081101561394357600080fd5b5060200151600154604080516309092f9760e21b8152644554482d4160d81b60048201526001600160a01b0387811660248301528251949550600094931692632424be5c92604480840193919291829003018186803b1580156139a557600080fd5b505afa1580156139b9573d6000803e3d6000fd5b505050506040513d60408110156139cf57600080fd5b506020015190506139e88286816139e257fe5b0461351c565b925080831115613a03576139fb8161351c565b6000036136fe565b505060000392915050565b6000813f7fc5d2460186f7233c927e7db2dcc703c0e500b653ca82273b7bfad8045d85a470818114801590613a4257508115155b94935050505056fe000000000000000000000000c02aaa39b223fe8d0a0e5c4f27ead9083c756cc2536166654d6174683a206d756c7469706c69636174696f6e206f766572666c6f775361666545524332303a204552433230206f7065726174696f6e20646964206e6f742073756363656564a265627a7a7231582040ec17ca9444ebe95685895e0bac80623f117f04c6a37dbefe6ed41edd19d91c64736f6c63430005110032",
  "source": "pragma solidity ^0.5.17;\n\nimport \"@openzeppelinV2/contracts/token/ERC20/IERC20.sol\";\nimport \"@openzeppelinV2/contracts/math/SafeMath.sol\";\nimport \"@openzeppelinV2/contracts/utils/Address.sol\";\nimport \"@openzeppelinV2/contracts/token/ERC20/SafeERC20.sol\";\n\nimport \"../../interfaces/maker/Maker.sol\";\nimport \"../../interfaces/uniswap/Uni.sol\";\n\nimport \"../../interfaces/yearn/IController.sol\";\nimport \"../../interfaces/yearn/IStrategy.sol\";\nimport \"../../interfaces/yearn/IVault.sol\";\n\n/*\n\n A strategy must implement the following calls;\n\n - deposit()\n - withdraw(address) must exclude any tokens used in the yield - Controller role - withdraw should return to Controller\n - withdraw(uint) - Controller | Vault role - withdraw should always return to vault\n - withdrawAll() - Controller | Vault role - withdraw should always return to vault\n - balanceOf()\n\n Where possible, strategies must remain as immutable as possible, instead of updating variables, we update the contract by linking it in the controller\n\n*/\ncontract StrategyMKRVaultDAIDelegate {\n    using SafeERC20 for IERC20;\n    using Address for address;\n    using SafeMath for uint256;\n\n    address public constant token = address(0xC02aaA39b223FE8D0A0e5C4F27eAD9083C756Cc2);\n    address public constant want = address(0xC02aaA39b223FE8D0A0e5C4F27eAD9083C756Cc2);\n    address public constant weth = address(0xC02aaA39b223FE8D0A0e5C4F27eAD9083C756Cc2);\n    address public constant dai = address(0x6B175474E89094C44Da98b954EedeAC495271d0F);\n\n    address public cdp_manager = address(0x5ef30b9986345249bc32d8928B7ee64DE9435E39);\n    address public vat = address(0x35D1b3F3D7966A1DFe207aa4514C12a259A0492B);\n    address public mcd_join_eth_a = address(0x2F0b23f53734252Bda2277357e97e1517d6B042A);\n    address public mcd_join_dai = address(0x9759A6Ac90977b93B58547b4A71c78317f391A28);\n    address public mcd_spot = address(0x65C79fcB50Ca1594B025960e539eD7A9a6D434A3);\n    address public jug = address(0x19c0976f590D67707E62397C87829d896Dc0f1F1);\n\n    address public eth_price_oracle = address(0xCF63089A8aD2a9D8BD6Bb8022f3190EB7e1eD0f1);\n    address public constant yVaultDAI = address(0xACd43E627e64355f1861cEC6d3a6688B31a6F952);\n\n    address public constant uniswap = address(0x7a250d5630B4cF539739dF2C5dAcb4c659F2488D);\n    address public constant sushiswap = address(0xd9e1cE17f2641f24aE83637ab66a2cca9C378B9F);\n\n    uint256 public c = 20000;\n    uint256 public c_safe = 40000;\n    uint256 public buffer = 500;\n    uint256 public constant c_base = 10000;\n    uint256 public performanceFee = 450;\n    uint256 public withdrawalFee = 0;\n    uint256 public strategistReward = 50;\n\n    bytes32 public constant ilk = \"ETH-A\";\n\n    address public governance;\n    address public controller;\n    address public strategist;\n    address public keeper;\n    address public dex;\n\n    uint256 public cdpId;\n\n    constructor(address _controller) public {\n        governance = msg.sender;\n        strategist = msg.sender;\n        keeper = msg.sender;\n        controller = _controller;\n        dex = uniswap;\n        cdpId = ManagerLike(cdp_manager).open(ilk, address(this));\n        _approveAll();\n    }\n\n    function getName() external pure returns (string memory) {\n        return \"StrategyMKRVaultDAIDelegate\";\n    }\n\n    function setStrategist(address _strategist) external {\n        require(msg.sender == governance, \"!governance\");\n        strategist = _strategist;\n    }\n\n    function setKeeper(address _keeper) external {\n        require(msg.sender == keeper || msg.sender == governance, \"!allowed\");\n        keeper = _keeper;\n    }\n\n    function setWithdrawalFee(uint256 _withdrawalFee) external {\n        require(msg.sender == governance, \"!governance\");\n        withdrawalFee = _withdrawalFee;\n    }\n\n    function setPerformanceFee(uint256 _performanceFee) external {\n        require(msg.sender == governance, \"!governance\");\n        performanceFee = _performanceFee;\n    }\n\n    function setStrategistReward(uint256 _strategistReward) external {\n        require(msg.sender == governance, \"!governance\");\n        strategistReward = _strategistReward;\n    }\n\n    function setBorrowCollateralizationRatio(uint256 _c) external {\n        require(msg.sender == governance, \"!governance\");\n        c = _c;\n    }\n\n    function setWithdrawCollateralizationRatio(uint256 _c_safe) external {\n        require(msg.sender == governance, \"!governance\");\n        c_safe = _c_safe;\n    }\n\n    function setBuffer(uint256 _buffer) external {\n        require(msg.sender == governance, \"!governance\");\n        buffer = _buffer;\n    }\n\n    function setOracle(address _oracle) external {\n        require(msg.sender == governance, \"!governance\");\n        eth_price_oracle = _oracle;\n    }\n\n    // optional\n    function setMCDValue(\n        address _manager,\n        address _ethAdapter,\n        address _daiAdapter,\n        address _spot,\n        address _jug\n    ) external {\n        require(msg.sender == governance, \"!governance\");\n        cdp_manager = _manager;\n        vat = ManagerLike(_manager).vat();\n        mcd_join_eth_a = _ethAdapter;\n        mcd_join_dai = _daiAdapter;\n        mcd_spot = _spot;\n        jug = _jug;\n    }\n\n    function switchDex(bool isUniswap) external {\n        require(msg.sender == strategist || msg.sender == governance, \"!authorized\");\n        if (isUniswap) {\n            dex = uniswap;\n        } else {\n            dex = sushiswap;\n        }\n    }\n\n    function _approveAll() internal {\n        IERC20(token).approve(mcd_join_eth_a, uint256(-1));\n        IERC20(dai).approve(mcd_join_dai, uint256(-1));\n        VatLike(vat).hope(mcd_join_dai);\n        IERC20(dai).approve(yVaultDAI, uint256(-1));\n        IERC20(dai).approve(uniswap, uint256(-1));\n        IERC20(dai).approve(sushiswap, uint256(-1));\n    }\n\n    function deposit() public {\n        uint256 _token = IERC20(token).balanceOf(address(this));\n        if (_token > 0) {\n            uint256 p = _getPrice();\n            uint256 _draw = _token.mul(p).mul(c_base).div(c).div(1e18);\n            // approve adapter to use token amount\n            require(_checkDebtCeiling(_draw), \"debt ceiling is reached!\");\n            _lockWETHAndDrawDAI(_token, _draw);\n\n            // approve yVaultDAI use DAI\n            IVault(yVaultDAI).depositAll();\n        }\n    }\n\n    function _getPrice() internal view returns (uint256 p) {\n        (uint256 _read, ) = OSMedianizer(eth_price_oracle).read();\n        (uint256 _foresight, ) = OSMedianizer(eth_price_oracle).foresight();\n        p = _foresight < _read ? _foresight : _read;\n    }\n\n    function _checkDebtCeiling(uint256 _amt) internal view returns (bool) {\n        (, , , uint256 _line, ) = VatLike(vat).ilks(ilk);\n        uint256 _debt = getTotalDebtAmount().add(_amt);\n        if (_line.div(1e27) < _debt) {\n            return false;\n        }\n        return true;\n    }\n\n    function _lockWETHAndDrawDAI(uint256 wad, uint256 wadD) internal {\n        address urn = ManagerLike(cdp_manager).urns(cdpId);\n        if (wad > 0) {\n            GemJoinLike(mcd_join_eth_a).join(urn, wad);\n        }\n        ManagerLike(cdp_manager).frob(cdpId, toInt(wad), _getDrawDart(urn, wadD));\n        ManagerLike(cdp_manager).move(cdpId, address(this), wadD.mul(1e27));\n        if (wadD > 0) {\n            DaiJoinLike(mcd_join_dai).exit(address(this), wadD);\n        }\n    }\n\n    function _getDrawDart(address urn, uint256 wad) internal returns (int256 dart) {\n        uint256 rate = JugLike(jug).drip(ilk);\n        uint256 _dai = VatLike(vat).dai(urn);\n\n        // If there was already enough DAI in the vat balance, just exits it without adding more debt\n        if (_dai < wad.mul(1e27)) {\n            dart = toInt(wad.mul(1e27).sub(_dai).div(rate));\n            dart = uint256(dart).mul(rate) < wad.mul(1e27) ? dart + 1 : dart;\n        }\n    }\n\n    function toInt(uint256 x) internal pure returns (int256 y) {\n        y = int256(x);\n        require(y >= 0, \"int-overflow\");\n    }\n\n    // Controller only function for creating additional rewards from dust\n    function withdraw(IERC20 _asset) external returns (uint256 balance) {\n        require(msg.sender == controller, \"!controller\");\n        require(want != address(_asset), \"want\");\n        require(dai != address(_asset), \"dai\");\n        require(yVaultDAI != address(_asset), \"ydai\");\n        balance = _asset.balanceOf(address(this));\n        _asset.safeTransfer(controller, balance);\n    }\n\n    // Withdraw partial funds, normally used with a vault withdrawal\n    function withdraw(uint256 _amount) external {\n        require(msg.sender == controller, \"!controller\");\n        uint256 _balance = IERC20(want).balanceOf(address(this));\n        if (_balance < _amount) {\n            _amount = _withdrawSome(_amount.sub(_balance));\n            _amount = _amount.add(_balance);\n        }\n\n        uint256 _fee = _amount.mul(withdrawalFee).div(c_base);\n\n        IERC20(want).safeTransfer(IController(controller).rewards(), _fee);\n        address _vault = IController(controller).vaults(address(want));\n        require(_vault != address(0), \"!vault\"); // additional protection so we don't burn the funds\n\n        IERC20(want).safeTransfer(_vault, _amount.sub(_fee));\n    }\n\n    function _withdrawSome(uint256 _amount) internal returns (uint256) {\n        uint256 _wipe = 0;\n        if (getTotalDebtAmount() != 0 && getmVaultRatio(_amount) < c_safe.mul(1e2)) {\n            uint256 p = _getPrice();\n            _wipe = _withdrawDaiLeast(_amount.mul(p).div(1e18));\n        }\n\n        _freeWETHandWipeDAI(_amount, _wipe);\n\n        return _amount;\n    }\n\n    function _freeWETHandWipeDAI(uint256 wad, uint256 wadD) internal {\n        address urn = ManagerLike(cdp_manager).urns(cdpId);\n        if (wadD > 0) {\n            DaiJoinLike(mcd_join_dai).join(urn, wadD);\n        }\n        ManagerLike(cdp_manager).frob(cdpId, -toInt(wad), _getWipeDart(VatLike(vat).dai(urn), urn));\n        ManagerLike(cdp_manager).flux(cdpId, address(this), wad);\n        if (wad > 0) {\n            GemJoinLike(mcd_join_eth_a).exit(address(this), wad);\n        }\n    }\n\n    function _getWipeDart(uint256 _dai, address urn) internal view returns (int256 dart) {\n        (, uint256 rate, , , ) = VatLike(vat).ilks(ilk);\n        (, uint256 art) = VatLike(vat).urns(ilk, urn);\n\n        dart = toInt(_dai / rate);\n        dart = uint256(dart) <= art ? -dart : -toInt(art);\n    }\n\n    // Withdraw all funds, normally used when migrating strategies\n    function withdrawAll() external returns (uint256 balance) {\n        require(msg.sender == controller, \"!controller\");\n        _withdrawAll();\n\n        _swap(IERC20(dai).balanceOf(address(this)));\n        balance = IERC20(want).balanceOf(address(this));\n\n        address _vault = IController(controller).vaults(address(want));\n        require(_vault != address(0), \"!vault\"); // additional protection so we don't burn the funds\n        IERC20(want).safeTransfer(_vault, balance);\n    }\n\n    function _withdrawAll() internal {\n        IVault(yVaultDAI).withdrawAll(); // get Dai\n        _freeWETHandWipeDAI(balanceOfmVault(), getTotalDebtAmount().add(1)); // in case of edge case\n    }\n\n    function balanceOf() public view returns (uint256) {\n        return balanceOfWant().add(balanceOfmVault());\n    }\n\n    function balanceOfWant() public view returns (uint256) {\n        return IERC20(want).balanceOf(address(this));\n    }\n\n    function balanceOfmVault() public view returns (uint256) {\n        uint256 ink;\n        address urnHandler = ManagerLike(cdp_manager).urns(cdpId);\n        (ink, ) = VatLike(vat).urns(ilk, urnHandler);\n        return ink;\n    }\n\n    function harvest() public {\n        require(msg.sender == strategist || msg.sender == keeper || msg.sender == governance, \"!authorized\");\n\n        uint256 v = getUnderlyingDai();\n        uint256 d = getTotalDebtAmount();\n        require(v > d, \"profit is not realized yet!\");\n        uint256 profit = v.sub(d);\n\n        _withdrawDaiMost(profit);\n        _swap(IERC20(dai).balanceOf(address(this)));\n\n        uint256 _want = IERC20(want).balanceOf(address(this));\n        if (_want > 0) {\n            uint256 _fee = _want.mul(performanceFee).div(c_base);\n            uint256 _strategistReward = _want.mul(strategistReward).div(c_base);\n            IERC20(want).safeTransfer(strategist, _strategistReward);\n            IERC20(want).safeTransfer(IController(controller).rewards(), _fee);\n        }\n\n        deposit();\n    }\n\n    function shouldDraw() external view returns (bool) {\n        // 5% buffer to avoid deposit/rebalance loops\n        return (getmVaultRatio(0) > c.mul(1e2).mul(c_base).div((c_base.sub(buffer))));\n    }\n\n    function drawAmount() public view returns (uint256) {\n        uint256 _safe = c.mul(1e2);\n        uint256 _current = getmVaultRatio(0);\n        if (_current > c_base.mul(c_safe).mul(1e2)) {\n            _current = c_base.mul(c_safe).mul(1e2);\n        }\n        if (_current > _safe) {\n            uint256 d = getTotalDebtAmount();\n            uint256 diff = _current.sub(_safe);\n            return d.mul(diff).div(_safe);\n        }\n        return 0;\n    }\n\n    function draw() external {\n        uint256 _drawD = drawAmount();\n        if (_drawD > 0) {\n            _lockWETHAndDrawDAI(0, _drawD);\n            IVault(yVaultDAI).depositAll();\n        }\n    }\n\n    function shouldRepay() external view returns (bool) {\n        // 5% buffer to avoid deposit/rebalance loops\n        return (getmVaultRatio(0) < c.mul(1e2).mul(c_base).div((c_base.add(buffer))));\n    }\n\n    function repayAmount() public view returns (uint256) {\n        uint256 _safe = c.mul(1e2);\n        uint256 _current = getmVaultRatio(0);\n        if (_current < _safe) {\n            uint256 d = getTotalDebtAmount();\n            uint256 diff = _safe.sub(_current);\n            return d.mul(diff).div(_safe);\n        }\n        return 0;\n    }\n\n    function repay() external {\n        uint256 free = repayAmount();\n        if (free > 0) {\n            _freeWETHandWipeDAI(0, _withdrawDaiLeast(free));\n        }\n    }\n\n    function forceRebalance(uint256 _amount) external {\n        require(msg.sender == governance || msg.sender == strategist || msg.sender == keeper, \"!authorized\");\n        _freeWETHandWipeDAI(0, _withdrawDaiLeast(_amount));\n    }\n\n    function getTotalDebtAmount() public view returns (uint256) {\n        uint256 art;\n        uint256 rate;\n        address urnHandler = ManagerLike(cdp_manager).urns(cdpId);\n        (, art) = VatLike(vat).urns(ilk, urnHandler);\n        (, rate, , , ) = VatLike(vat).ilks(ilk);\n        return art.mul(rate).div(1e27);\n    }\n\n    function getmVaultRatio(uint256 amount) public view returns (uint256) {\n        uint256 spot; // ray\n        uint256 liquidationRatio; // ray\n        uint256 denominator = getTotalDebtAmount();\n\n        if (denominator == 0) {\n            return uint256(-1);\n        }\n\n        (, , spot, , ) = VatLike(vat).ilks(ilk);\n        (, liquidationRatio) = SpotLike(mcd_spot).ilks(ilk);\n        uint256 delayedCPrice = spot.mul(liquidationRatio).div(1e27); // ray\n\n        uint256 _balance = balanceOfmVault();\n        if (_balance < amount) {\n            _balance = 0;\n        } else {\n            _balance = _balance.sub(amount);\n        }\n\n        uint256 numerator = _balance.mul(delayedCPrice).div(1e18); // ray\n        return numerator.div(denominator).div(1e3);\n    }\n\n    function getUnderlyingWithdrawalFee() public view returns (uint256) {\n        address _strategy = IController(controller).strategies(dai);\n        return IStrategy(_strategy).withdrawalFee();\n    }\n\n    function getUnderlyingDai() public view returns (uint256) {\n        return IERC20(yVaultDAI).balanceOf(address(this)).mul(IVault(yVaultDAI).getPricePerFullShare()).div(1e18);\n    }\n\n    function _withdrawDaiMost(uint256 _amount) internal returns (uint256) {\n        uint256 _shares = _amount.mul(1e18).div(IVault(yVaultDAI).getPricePerFullShare());\n\n        if (_shares > IERC20(yVaultDAI).balanceOf(address(this))) {\n            _shares = IERC20(yVaultDAI).balanceOf(address(this));\n        }\n\n        uint256 _before = IERC20(dai).balanceOf(address(this));\n        IVault(yVaultDAI).withdraw(_shares);\n        uint256 _after = IERC20(dai).balanceOf(address(this));\n        return _after.sub(_before);\n    }\n\n    function _withdrawDaiLeast(uint256 _amount) internal returns (uint256) {\n        uint256 _shares = _amount.mul(1e18).div(IVault(yVaultDAI).getPricePerFullShare()).mul(c_base).div(\n            c_base.sub(getUnderlyingWithdrawalFee())\n        );\n\n        if (_shares > IERC20(yVaultDAI).balanceOf(address(this))) {\n            _shares = IERC20(yVaultDAI).balanceOf(address(this));\n        }\n\n        uint256 _before = IERC20(dai).balanceOf(address(this));\n        IVault(yVaultDAI).withdraw(_shares);\n        uint256 _after = IERC20(dai).balanceOf(address(this));\n        return _after.sub(_before);\n    }\n\n    function _swap(uint256 _amountIn) internal {\n        address[] memory path = new address[](2);\n        path[0] = address(dai);\n        path[1] = address(want);\n\n        // approve uniswap to use dai\n        Uni(dex).swapExactTokensForTokens(_amountIn, 0, path, address(this), now.add(1 days));\n    }\n\n    function setGovernance(address _governance) external {\n        require(msg.sender == governance, \"!governance\");\n        governance = _governance;\n    }\n\n    function setController(address _controller) external {\n        require(msg.sender == governance, \"!governance\");\n        controller = _controller;\n    }\n}\n",
  "sourcePath": "/Users/sbacha/yearn-protocol-nodejs/contracts/strategies/StrategyMKRVaultDAIDelegate.sol",
  "compiler": {
    "name": "solc",
    "version": "0.5.17+commit.d19bba13.Emscripten.clang"
  },
  "schemaVersion": "3.3.4",
  "updatedAt": "2021-02-12T05:40:28.224Z",
  "devdoc": {
    "methods": {}
  },
  "userdoc": {
    "methods": {}
  }
}