{
  "contractName": "StrategyCreamYFI",
  "abi": [
    {
      "inputs": [
        {
          "internalType": "address",
          "name": "_controller",
          "type": "address"
        }
      ],
      "payable": false,
      "stateMutability": "nonpayable",
      "type": "constructor"
    },
    {
      "constant": true,
      "inputs": [],
      "name": "controller",
      "outputs": [
        {
          "internalType": "address",
          "name": "",
          "type": "address"
        }
      ],
      "payable": false,
      "stateMutability": "view",
      "type": "function"
    },
    {
      "constant": true,
      "inputs": [],
      "name": "crYFI",
      "outputs": [
        {
          "internalType": "address",
          "name": "",
          "type": "address"
        }
      ],
      "payable": false,
      "stateMutability": "view",
      "type": "function"
    },
    {
      "constant": true,
      "inputs": [],
      "name": "cream",
      "outputs": [
        {
          "internalType": "address",
          "name": "",
          "type": "address"
        }
      ],
      "payable": false,
      "stateMutability": "view",
      "type": "function"
    },
    {
      "constant": true,
      "inputs": [],
      "name": "creamtroller",
      "outputs": [
        {
          "internalType": "contract Creamtroller",
          "name": "",
          "type": "address"
        }
      ],
      "payable": false,
      "stateMutability": "view",
      "type": "function"
    },
    {
      "constant": true,
      "inputs": [],
      "name": "governance",
      "outputs": [
        {
          "internalType": "address",
          "name": "",
          "type": "address"
        }
      ],
      "payable": false,
      "stateMutability": "view",
      "type": "function"
    },
    {
      "constant": true,
      "inputs": [],
      "name": "performanceFee",
      "outputs": [
        {
          "internalType": "uint256",
          "name": "",
          "type": "uint256"
        }
      ],
      "payable": false,
      "stateMutability": "view",
      "type": "function"
    },
    {
      "constant": true,
      "inputs": [],
      "name": "performanceMax",
      "outputs": [
        {
          "internalType": "uint256",
          "name": "",
          "type": "uint256"
        }
      ],
      "payable": false,
      "stateMutability": "view",
      "type": "function"
    },
    {
      "constant": true,
      "inputs": [],
      "name": "strategist",
      "outputs": [
        {
          "internalType": "address",
          "name": "",
          "type": "address"
        }
      ],
      "payable": false,
      "stateMutability": "view",
      "type": "function"
    },
    {
      "constant": true,
      "inputs": [],
      "name": "uni",
      "outputs": [
        {
          "internalType": "address",
          "name": "",
          "type": "address"
        }
      ],
      "payable": false,
      "stateMutability": "view",
      "type": "function"
    },
    {
      "constant": true,
      "inputs": [],
      "name": "want",
      "outputs": [
        {
          "internalType": "address",
          "name": "",
          "type": "address"
        }
      ],
      "payable": false,
      "stateMutability": "view",
      "type": "function"
    },
    {
      "constant": true,
      "inputs": [],
      "name": "weth",
      "outputs": [
        {
          "internalType": "address",
          "name": "",
          "type": "address"
        }
      ],
      "payable": false,
      "stateMutability": "view",
      "type": "function"
    },
    {
      "constant": true,
      "inputs": [],
      "name": "withdrawalFee",
      "outputs": [
        {
          "internalType": "uint256",
          "name": "",
          "type": "uint256"
        }
      ],
      "payable": false,
      "stateMutability": "view",
      "type": "function"
    },
    {
      "constant": true,
      "inputs": [],
      "name": "withdrawalMax",
      "outputs": [
        {
          "internalType": "uint256",
          "name": "",
          "type": "uint256"
        }
      ],
      "payable": false,
      "stateMutability": "view",
      "type": "function"
    },
    {
      "constant": true,
      "inputs": [],
      "name": "getName",
      "outputs": [
        {
          "internalType": "string",
          "name": "",
          "type": "string"
        }
      ],
      "payable": false,
      "stateMutability": "pure",
      "type": "function"
    },
    {
      "constant": false,
      "inputs": [
        {
          "internalType": "address",
          "name": "_strategist",
          "type": "address"
        }
      ],
      "name": "setStrategist",
      "outputs": [],
      "payable": false,
      "stateMutability": "nonpayable",
      "type": "function"
    },
    {
      "constant": false,
      "inputs": [
        {
          "internalType": "uint256",
          "name": "_withdrawalFee",
          "type": "uint256"
        }
      ],
      "name": "setWithdrawalFee",
      "outputs": [],
      "payable": false,
      "stateMutability": "nonpayable",
      "type": "function"
    },
    {
      "constant": false,
      "inputs": [
        {
          "internalType": "uint256",
          "name": "_performanceFee",
          "type": "uint256"
        }
      ],
      "name": "setPerformanceFee",
      "outputs": [],
      "payable": false,
      "stateMutability": "nonpayable",
      "type": "function"
    },
    {
      "constant": false,
      "inputs": [],
      "name": "deposit",
      "outputs": [],
      "payable": false,
      "stateMutability": "nonpayable",
      "type": "function"
    },
    {
      "constant": false,
      "inputs": [
        {
          "internalType": "uint256",
          "name": "_amount",
          "type": "uint256"
        }
      ],
      "name": "withdraw",
      "outputs": [],
      "payable": false,
      "stateMutability": "nonpayable",
      "type": "function"
    },
    {
      "constant": false,
      "inputs": [
        {
          "internalType": "contract IERC20",
          "name": "_asset",
          "type": "address"
        }
      ],
      "name": "withdraw",
      "outputs": [
        {
          "internalType": "uint256",
          "name": "balance",
          "type": "uint256"
        }
      ],
      "payable": false,
      "stateMutability": "nonpayable",
      "type": "function"
    },
    {
      "constant": false,
      "inputs": [],
      "name": "withdrawAll",
      "outputs": [
        {
          "internalType": "uint256",
          "name": "balance",
          "type": "uint256"
        }
      ],
      "payable": false,
      "stateMutability": "nonpayable",
      "type": "function"
    },
    {
      "constant": false,
      "inputs": [],
      "name": "harvest",
      "outputs": [],
      "payable": false,
      "stateMutability": "nonpayable",
      "type": "function"
    },
    {
      "constant": true,
      "inputs": [],
      "name": "balanceOfWant",
      "outputs": [
        {
          "internalType": "uint256",
          "name": "",
          "type": "uint256"
        }
      ],
      "payable": false,
      "stateMutability": "view",
      "type": "function"
    },
    {
      "constant": true,
      "inputs": [],
      "name": "balanceCInToken",
      "outputs": [
        {
          "internalType": "uint256",
          "name": "",
          "type": "uint256"
        }
      ],
      "payable": false,
      "stateMutability": "view",
      "type": "function"
    },
    {
      "constant": true,
      "inputs": [],
      "name": "balanceC",
      "outputs": [
        {
          "internalType": "uint256",
          "name": "",
          "type": "uint256"
        }
      ],
      "payable": false,
      "stateMutability": "view",
      "type": "function"
    },
    {
      "constant": true,
      "inputs": [],
      "name": "balanceOf",
      "outputs": [
        {
          "internalType": "uint256",
          "name": "",
          "type": "uint256"
        }
      ],
      "payable": false,
      "stateMutability": "view",
      "type": "function"
    },
    {
      "constant": false,
      "inputs": [
        {
          "internalType": "address",
          "name": "_governance",
          "type": "address"
        }
      ],
      "name": "setGovernance",
      "outputs": [],
      "payable": false,
      "stateMutability": "nonpayable",
      "type": "function"
    },
    {
      "constant": false,
      "inputs": [
        {
          "internalType": "address",
          "name": "_controller",
          "type": "address"
        }
      ],
      "name": "setController",
      "outputs": [],
      "payable": false,
      "stateMutability": "nonpayable",
      "type": "function"
    }
  ],
  "bytecode": "0x60806040526101f4600055603260015534801561001b57600080fd5b50604051611dd5380380611dd58339818101604052602081101561003e57600080fd5b505160028054336001600160a01b03199182168117909255600480548216909217909155600380549091166001600160a01b03909216919091179055611d4c806100896000396000f3fe608060405234801561001057600080fd5b50600436106101c45760003560e01c806387788782116100f9578063c1a3d44c11610097578063d5c1ff7311610071578063d5c1ff7314610316578063e3124028146103e5578063edc9af95146103ed578063f77c4791146103f5576101c4565b8063c1a3d44c146103af578063c7b9d530146103b7578063d0e30db0146103dd576101c4565b8063a642872e116100d3578063a642872e1461035c578063ab033ea914610364578063ac1e50251461038a578063b655d653146103a7576101c4565b806387788782146103265780638bc7e8c41461032e57806392eefe9b14610336576101c4565b80634641257d1161016657806370897b231161014057806370897b23146102f1578063722713f71461030e5780637cc7911314610316578063853828b61461031e576101c4565b80634641257d146102bb57806351cff8d9146102c35780635aa6e675146102e9576101c4565b80632e1a7d4d116101a25780632e1a7d4d1461027257806331136c00146102915780633fc8cef3146102995780634254b506146102a1576101c4565b806317d7de7c146101c95780631f1fcd51146102465780631fe4a6861461026a575b600080fd5b6101d16103fd565b6040805160208082528351818301528351919283929083019185019080838360005b8381101561020b5781810151838201526020016101f3565b50505050905090810190601f1680156102385780820380516001836020036101000a031916815260200191505b509250505060405180910390f35b61024e610427565b604080516001600160a01b039092168252519081900360200190f35b61024e610439565b61028f6004803603602081101561028857600080fd5b5035610448565b005b61024e61070c565b61024e610724565b6102a961073c565b60408051918252519081900360200190f35b61028f6107ec565b6102a9600480360360208110156102d957600080fd5b50356001600160a01b0316610c7c565b61024e610e6f565b61028f6004803603602081101561030757600080fd5b5035610e7e565b6102a9610ed0565b6102a9610ef1565b6102a9610ef7565b6102a96110ba565b6102a96110c0565b61028f6004803603602081101561034c57600080fd5b50356001600160a01b03166110c6565b61024e611135565b61028f6004803603602081101561037a57600080fd5b50356001600160a01b031661114d565b61028f600480360360208110156103a057600080fd5b50356111bc565b6102a961120e565b6102a9611294565b61028f600480360360208110156103cd57600080fd5b50356001600160a01b03166112e3565b61028f611352565b61024e6114c3565b61024e6114db565b61024e6114f3565b60408051808201909152601081526f5374726174656779437265616d59464960801b602082015290565b600080516020611c7783398151915281565b6004546001600160a01b031681565b6003546001600160a01b03163314610495576040805162461bcd60e51b815260206004820152600b60248201526a10b1b7b73a3937b63632b960a91b604482015290519081900360640190fd5b604080516370a0823160e01b81523060048201529051600091600080516020611c77833981519152916370a0823191602480820192602092909190829003018186803b1580156104e457600080fd5b505afa1580156104f8573d6000803e3d6000fd5b505050506040513d602081101561050e57600080fd5b50519050818110156105475761053261052d838363ffffffff61150216565b61154d565b9150610544828263ffffffff6116a416565b91505b6000610570612710610564600154866116fe90919063ffffffff16565b9063ffffffff61175716565b905061060b600360009054906101000a90046001600160a01b03166001600160a01b0316639ec5a8946040518163ffffffff1660e01b815260040160206040518083038186803b1580156105c357600080fd5b505afa1580156105d7573d6000803e3d6000fd5b505050506040513d60208110156105ed57600080fd5b5051600080516020611c77833981519152908363ffffffff61179916565b60035460408051632988bb9f60e21b8152600080516020611c77833981519152600482015290516000926001600160a01b03169163a622ee7c916024808301926020929190829003018186803b15801561066457600080fd5b505afa158015610678573d6000803e3d6000fd5b505050506040513d602081101561068e57600080fd5b505190506001600160a01b0381166106d6576040805162461bcd60e51b8152602060048201526006602482015265085d985d5b1d60d21b604482015290519081900360640190fd5b610706816106ea868563ffffffff61150216565b600080516020611c77833981519152919063ffffffff61179916565b50505050565b73cbae0a83f4f9926997c8339545fb8ee32edc6b7681565b73c02aaa39b223fe8d0a0e5c4f27ead9083c756cc281565b60008061074761120e565b905080156107e7576107e4670de0b6b3a764000061056473cbae0a83f4f9926997c8339545fb8ee32edc6b766001600160a01b031663182df0f56040518163ffffffff1660e01b815260040160206040518083038186803b1580156107ab57600080fd5b505afa1580156107bf573d6000803e3d6000fd5b505050506040513d60208110156107d557600080fd5b5051849063ffffffff6116fe16565b90505b905090565b6004546001600160a01b031633148061080f57506002546001600160a01b031633145b61084e576040805162461bcd60e51b815260206004820152600b60248201526a08585d5d1a1bdc9a5e995960aa1b604482015290519081900360640190fd5b604080516374d7814960e11b81523060048201529051733d5bc3c8d13dcb8bf317092d84783c2697ae92589163e9af029291602480830192600092919082900301818387803b1580156108a057600080fd5b505af11580156108b4573d6000803e3d6000fd5b5050604080516370a0823160e01b8152306004820152905160009350732ba592f78db6436527729929aaf6c908497cb20092506370a0823191602480820192602092909190829003018186803b15801561090d57600080fd5b505afa158015610921573d6000803e3d6000fd5b505050506040513d602081101561093757600080fd5b505190508015610b7b5761097b732ba592f78db6436527729929aaf6c908497cb200737a250d5630b4cf539739df2c5dacb4c659f2488d600063ffffffff6117eb16565b6109b4732ba592f78db6436527729929aaf6c908497cb200737a250d5630b4cf539739df2c5dacb4c659f2488d8363ffffffff6117eb16565b60408051600380825260808201909252606091602082018380388339019050509050732ba592f78db6436527729929aaf6c908497cb200816000815181106109f857fe5b60200260200101906001600160a01b031690816001600160a01b03168152505073c02aaa39b223fe8d0a0e5c4f27ead9083c756cc281600181518110610a3a57fe5b60200260200101906001600160a01b031690816001600160a01b031681525050600080516020611c7783398151915281600281518110610a7657fe5b6001600160a01b0390921660209283029190910190910152737a250d5630b4cf539739df2c5dacb4c659f2488d6338ed17398360008430610abf4261070863ffffffff6116a416565b6040518663ffffffff1660e01b81526004018086815260200185815260200180602001846001600160a01b03166001600160a01b03168152602001838152602001828103825285818151815260200191508051906020019060200280838360005b83811015610b38578181015183820152602001610b20565b505050509050019650505050505050600060405180830381600087803b158015610b6157600080fd5b505af1158015610b75573d6000803e3d6000fd5b50505050505b604080516370a0823160e01b81523060048201529051600091600080516020611c77833981519152916370a0823191602480820192602092909190829003018186803b158015610bca57600080fd5b505afa158015610bde573d6000803e3d6000fd5b505050506040513d6020811015610bf457600080fd5b505190508015610c78576000610c1b612710610564600054856116fe90919063ffffffff16565b9050610c6e600360009054906101000a90046001600160a01b03166001600160a01b0316639ec5a8946040518163ffffffff1660e01b815260040160206040518083038186803b1580156105c357600080fd5b610c76611352565b505b5050565b6003546000906001600160a01b03163314610ccc576040805162461bcd60e51b815260206004820152600b60248201526a10b1b7b73a3937b63632b960a91b604482015290519081900360640190fd5b600080516020611c778339815191526001600160a01b0383161415610d21576040805162461bcd60e51b815260206004808301919091526024820152631dd85b9d60e21b604482015290519081900360640190fd5b73cbae0a83f4f9926997c8339545fb8ee32edc6b766001600160a01b0383161415610d7b576040805162461bcd60e51b8152602060048201526005602482015264637259464960d81b604482015290519081900360640190fd5b732ba592f78db6436527729929aaf6c908497cb2006001600160a01b0383161415610dd5576040805162461bcd60e51b8152602060048201526005602482015264637265616d60d81b604482015290519081900360640190fd5b604080516370a0823160e01b815230600482015290516001600160a01b038416916370a08231916024808301926020929190829003018186803b158015610e1b57600080fd5b505afa158015610e2f573d6000803e3d6000fd5b505050506040513d6020811015610e4557600080fd5b5051600354909150610e6a906001600160a01b0384811691168363ffffffff61179916565b919050565b6002546001600160a01b031681565b6002546001600160a01b03163314610ecb576040805162461bcd60e51b815260206004820152600b60248201526a21676f7665726e616e636560a81b604482015290519081900360640190fd5b600055565b60006107e7610edd61073c565b610ee5611294565b9063ffffffff6116a416565b61271081565b6003546000906001600160a01b03163314610f47576040805162461bcd60e51b815260206004820152600b60248201526a10b1b7b73a3937b63632b960a91b604482015290519081900360640190fd5b610f4f6118fe565b604080516370a0823160e01b81523060048201529051600080516020611c77833981519152916370a08231916024808301926020929190829003018186803b158015610f9a57600080fd5b505afa158015610fae573d6000803e3d6000fd5b505050506040513d6020811015610fc457600080fd5b505160035460408051632988bb9f60e21b8152600080516020611c77833981519152600482015290519293506000926001600160a01b039092169163a622ee7c91602480820192602092909190829003018186803b15801561102557600080fd5b505afa158015611039573d6000803e3d6000fd5b505050506040513d602081101561104f57600080fd5b505190506001600160a01b038116611097576040805162461bcd60e51b8152602060048201526006602482015265085d985d5b1d60d21b604482015290519081900360640190fd5b6110b6600080516020611c77833981519152828463ffffffff61179916565b5090565b60005481565b60015481565b6002546001600160a01b03163314611113576040805162461bcd60e51b815260206004820152600b60248201526a21676f7665726e616e636560a81b604482015290519081900360640190fd5b600380546001600160a01b0319166001600160a01b0392909216919091179055565b732ba592f78db6436527729929aaf6c908497cb20081565b6002546001600160a01b0316331461119a576040805162461bcd60e51b815260206004820152600b60248201526a21676f7665726e616e636560a81b604482015290519081900360640190fd5b600280546001600160a01b0319166001600160a01b0392909216919091179055565b6002546001600160a01b03163314611209576040805162461bcd60e51b815260206004820152600b60248201526a21676f7665726e616e636560a81b604482015290519081900360640190fd5b600155565b604080516370a0823160e01b8152306004820152905160009173cbae0a83f4f9926997c8339545fb8ee32edc6b76916370a0823191602480820192602092909190829003018186803b15801561126357600080fd5b505afa158015611277573d6000803e3d6000fd5b505050506040513d602081101561128d57600080fd5b5051905090565b604080516370a0823160e01b81523060048201529051600091600080516020611c77833981519152916370a0823191602480820192602092909190829003018186803b15801561126357600080fd5b6002546001600160a01b03163314611330576040805162461bcd60e51b815260206004820152600b60248201526a21676f7665726e616e636560a81b604482015290519081900360640190fd5b600480546001600160a01b0319166001600160a01b0392909216919091179055565b604080516370a0823160e01b81523060048201529051600091600080516020611c77833981519152916370a0823191602480820192602092909190829003018186803b1580156113a157600080fd5b505afa1580156113b5573d6000803e3d6000fd5b505050506040513d60208110156113cb57600080fd5b5051905080156114c057611409600080516020611c7783398151915273cbae0a83f4f9926997c8339545fb8ee32edc6b76600063ffffffff6117eb16565b61143c600080516020611c7783398151915273cbae0a83f4f9926997c8339545fb8ee32edc6b768363ffffffff6117eb16565b73cbae0a83f4f9926997c8339545fb8ee32edc6b766001600160a01b031663a0712d68826040518263ffffffff1660e01b815260040180828152602001915050602060405180830381600087803b15801561149657600080fd5b505af11580156114aa573d6000803e3d6000fd5b505050506040513d6020811015610c7657600080fd5b50565b733d5bc3c8d13dcb8bf317092d84783c2697ae925881565b737a250d5630b4cf539739df2c5dacb4c659f2488d81565b6003546001600160a01b031681565b600061154483836040518060400160405280601e81526020017f536166654d6174683a207375627472616374696f6e206f766572666c6f77000081525061192c565b90505b92915050565b60008061155861120e565b9050600061156461073c565b905060006115816001610ee584610564878a63ffffffff6116fe16565b604080516370a0823160e01b81523060048201529051919250600091600080516020611c77833981519152916370a08231916024808301926020929190829003018186803b1580156115d257600080fd5b505afa1580156115e6573d6000803e3d6000fd5b505050506040513d60208110156115fc57600080fd5b50519050611609826119c3565b604080516370a0823160e01b81523060048201529051600091600080516020611c77833981519152916370a0823191602480820192602092909190829003018186803b15801561165857600080fd5b505afa15801561166c573d6000803e3d6000fd5b505050506040513d602081101561168257600080fd5b505190506000611698828463ffffffff61150216565b98975050505050505050565b600082820183811015611544576040805162461bcd60e51b815260206004820152601b60248201527f536166654d6174683a206164646974696f6e206f766572666c6f770000000000604482015290519081900360640190fd5b60008261170d57506000611547565b8282028284828161171a57fe5b04146115445760405162461bcd60e51b8152600401808060200182810382526021815260200180611c976021913960400191505060405180910390fd5b600061154483836040518060400160405280601a81526020017f536166654d6174683a206469766973696f6e206279207a65726f000000000000815250611a1d565b604080516001600160a01b038416602482015260448082018490528251808303909101815260649091019091526020810180516001600160e01b031663a9059cbb60e01b179052610c76908490611a82565b801580611871575060408051636eb1769f60e11b81523060048201526001600160a01b03848116602483015291519185169163dd62ed3e91604480820192602092909190829003018186803b15801561184357600080fd5b505afa158015611857573d6000803e3d6000fd5b505050506040513d602081101561186d57600080fd5b5051155b6118ac5760405162461bcd60e51b8152600401808060200182810382526036815260200180611ce26036913960400191505060405180910390fd5b604080516001600160a01b038416602482015260448082018490528251808303909101815260649091019091526020810180516001600160e01b031663095ea7b360e01b179052610c76908490611a82565b600061190861120e565b905080156114c057610c7861052d600161192061073c565b9063ffffffff61150216565b600081848411156119bb5760405162461bcd60e51b81526004018080602001828103825283818151815260200191508051906020019080838360005b83811015611980578181015183820152602001611968565b50505050905090810190601f1680156119ad5780820380516001836020036101000a031916815260200191505b509250505060405180910390fd5b505050900390565b73cbae0a83f4f9926997c8339545fb8ee32edc6b766001600160a01b031663db006a75826040518263ffffffff1660e01b815260040180828152602001915050602060405180830381600087803b15801561149657600080fd5b60008183611a6c5760405162461bcd60e51b8152602060048201818152835160248401528351909283926044909101919085019080838360008315611980578181015183820152602001611968565b506000838581611a7857fe5b0495945050505050565b611a94826001600160a01b0316611c3a565b611ae5576040805162461bcd60e51b815260206004820152601f60248201527f5361666545524332303a2063616c6c20746f206e6f6e2d636f6e747261637400604482015290519081900360640190fd5b60006060836001600160a01b0316836040518082805190602001908083835b60208310611b235780518252601f199092019160209182019101611b04565b6001836020036101000a0380198251168184511680821785525050505050509050019150506000604051808303816000865af19150503d8060008114611b85576040519150601f19603f3d011682016040523d82523d6000602084013e611b8a565b606091505b509150915081611be1576040805162461bcd60e51b815260206004820181905260248201527f5361666545524332303a206c6f772d6c6576656c2063616c6c206661696c6564604482015290519081900360640190fd5b80511561070657808060200190516020811015611bfd57600080fd5b50516107065760405162461bcd60e51b815260040180806020018281038252602a815260200180611cb8602a913960400191505060405180910390fd5b6000813f7fc5d2460186f7233c927e7db2dcc703c0e500b653ca82273b7bfad8045d85a470818114801590611c6e57508115155b94935050505056fe0000000000000000000000000bc529c00c6401aef6d220be8c6ea1667f6ad93e536166654d6174683a206d756c7469706c69636174696f6e206f766572666c6f775361666545524332303a204552433230206f7065726174696f6e20646964206e6f7420737563636565645361666545524332303a20617070726f76652066726f6d206e6f6e2d7a65726f20746f206e6f6e2d7a65726f20616c6c6f77616e6365a265627a7a723158201b5dc94da3da2857e697e8d01860d01936a3b49065438dced9a4adc1cc43e77a64736f6c63430005110032",
  "source": "// SPDX-License-Identifier: MIT\n\npragma solidity ^0.5.17;\n\nimport \"@openzeppelinV2/contracts/token/ERC20/IERC20.sol\";\nimport \"@openzeppelinV2/contracts/math/SafeMath.sol\";\nimport \"@openzeppelinV2/contracts/utils/Address.sol\";\nimport \"@openzeppelinV2/contracts/token/ERC20/SafeERC20.sol\";\n\nimport \"../../interfaces/cream/Controller.sol\";\nimport \"../../interfaces/compound/Token.sol\";\nimport \"../../interfaces/uniswap/Uni.sol\";\n\nimport \"../../interfaces/yearn/IController.sol\";\n\ncontract StrategyCreamYFI {\n    using SafeERC20 for IERC20;\n    using Address for address;\n    using SafeMath for uint256;\n\n    address public constant want = address(0x0bc529c00C6401aEF6D220BE8C6Ea1667F6Ad93e);\n\n    Creamtroller public constant creamtroller = Creamtroller(0x3d5BC3c8d13dcB8bF317092d84783c2697AE9258);\n\n    address public constant crYFI = address(0xCbaE0A83f4f9926997c8339545fb8eE32eDc6b76);\n    address public constant cream = address(0x2ba592F78dB6436527729929AAf6c908497cB200);\n\n    address public constant uni = address(0x7a250d5630B4cF539739dF2C5dAcb4c659F2488D);\n    address public constant weth = address(0xC02aaA39b223FE8D0A0e5C4F27eAD9083C756Cc2); // used for cream <> weth <> yfi route\n\n    uint256 public performanceFee = 500;\n    uint256 public constant performanceMax = 10000;\n\n    uint256 public withdrawalFee = 50;\n    uint256 public constant withdrawalMax = 10000;\n\n    address public governance;\n    address public controller;\n    address public strategist;\n\n    constructor(address _controller) public {\n        governance = msg.sender;\n        strategist = msg.sender;\n        controller = _controller;\n    }\n\n    function getName() external pure returns (string memory) {\n        return \"StrategyCreamYFI\";\n    }\n\n    function setStrategist(address _strategist) external {\n        require(msg.sender == governance, \"!governance\");\n        strategist = _strategist;\n    }\n\n    function setWithdrawalFee(uint256 _withdrawalFee) external {\n        require(msg.sender == governance, \"!governance\");\n        withdrawalFee = _withdrawalFee;\n    }\n\n    function setPerformanceFee(uint256 _performanceFee) external {\n        require(msg.sender == governance, \"!governance\");\n        performanceFee = _performanceFee;\n    }\n\n    function deposit() public {\n        uint256 _want = IERC20(want).balanceOf(address(this));\n        if (_want > 0) {\n            IERC20(want).safeApprove(crYFI, 0);\n            IERC20(want).safeApprove(crYFI, _want);\n            cToken(crYFI).mint(_want);\n        }\n    }\n\n    // Controller only function for creating additional rewards from dust\n    function withdraw(IERC20 _asset) external returns (uint256 balance) {\n        require(msg.sender == controller, \"!controller\");\n        require(want != address(_asset), \"want\");\n        require(crYFI != address(_asset), \"crYFI\");\n        require(cream != address(_asset), \"cream\");\n        balance = _asset.balanceOf(address(this));\n        _asset.safeTransfer(controller, balance);\n    }\n\n    // Withdraw partial funds, normally used with a vault withdrawal\n    function withdraw(uint256 _amount) external {\n        require(msg.sender == controller, \"!controller\");\n        uint256 _balance = IERC20(want).balanceOf(address(this));\n        if (_balance < _amount) {\n            _amount = _withdrawSome(_amount.sub(_balance));\n            _amount = _amount.add(_balance);\n        }\n\n        uint256 _fee = _amount.mul(withdrawalFee).div(withdrawalMax);\n\n        IERC20(want).safeTransfer(IController(controller).rewards(), _fee);\n        address _vault = IController(controller).vaults(address(want));\n        require(_vault != address(0), \"!vault\"); // additional protection so we don't burn the funds\n\n        IERC20(want).safeTransfer(_vault, _amount.sub(_fee));\n    }\n\n    // Withdraw all funds, normally used when migrating strategies\n    function withdrawAll() external returns (uint256 balance) {\n        require(msg.sender == controller, \"!controller\");\n        _withdrawAll();\n\n        balance = IERC20(want).balanceOf(address(this));\n\n        address _vault = IController(controller).vaults(address(want));\n        require(_vault != address(0), \"!vault\"); // additional protection so we don't burn the funds\n        IERC20(want).safeTransfer(_vault, balance);\n    }\n\n    function _withdrawAll() internal {\n        uint256 amount = balanceC();\n        if (amount > 0) {\n            _withdrawSome(balanceCInToken().sub(1));\n        }\n    }\n\n    function harvest() public {\n        require(msg.sender == strategist || msg.sender == governance, \"!authorized\");\n        Creamtroller(creamtroller).claimComp(address(this));\n        uint256 _cream = IERC20(cream).balanceOf(address(this));\n        if (_cream > 0) {\n            IERC20(cream).safeApprove(uni, 0);\n            IERC20(cream).safeApprove(uni, _cream);\n\n            address[] memory path = new address[](3);\n            path[0] = cream;\n            path[1] = weth;\n            path[2] = want;\n\n            Uni(uni).swapExactTokensForTokens(_cream, uint256(0), path, address(this), now.add(1800));\n        }\n        uint256 _want = IERC20(want).balanceOf(address(this));\n        if (_want > 0) {\n            uint256 _fee = _want.mul(performanceFee).div(performanceMax);\n            IERC20(want).safeTransfer(IController(controller).rewards(), _fee);\n            deposit();\n        }\n    }\n\n    function _withdrawSome(uint256 _amount) internal returns (uint256) {\n        uint256 b = balanceC();\n        uint256 bT = balanceCInToken();\n        // can have unintentional rounding errors\n        uint256 amount = (b.mul(_amount)).div(bT).add(1);\n        uint256 _before = IERC20(want).balanceOf(address(this));\n        _withdrawC(amount);\n        uint256 _after = IERC20(want).balanceOf(address(this));\n        uint256 _withdrew = _after.sub(_before);\n        return _withdrew;\n    }\n\n    function balanceOfWant() public view returns (uint256) {\n        return IERC20(want).balanceOf(address(this));\n    }\n\n    function _withdrawC(uint256 amount) internal {\n        cToken(crYFI).redeem(amount);\n    }\n\n    function balanceCInToken() public view returns (uint256) {\n        // Mantisa 1e18 to decimals\n        uint256 b = balanceC();\n        if (b > 0) {\n            b = b.mul(cToken(crYFI).exchangeRateStored()).div(1e18);\n        }\n        return b;\n    }\n\n    function balanceC() public view returns (uint256) {\n        return IERC20(crYFI).balanceOf(address(this));\n    }\n\n    function balanceOf() public view returns (uint256) {\n        return balanceOfWant().add(balanceCInToken());\n    }\n\n    function setGovernance(address _governance) external {\n        require(msg.sender == governance, \"!governance\");\n        governance = _governance;\n    }\n\n    function setController(address _controller) external {\n        require(msg.sender == governance, \"!governance\");\n        controller = _controller;\n    }\n}\n",
  "sourcePath": "/Users/sbacha/V2yearn/contracts/strategies/StrategyCreamYFI.sol",
  "compiler": {
    "name": "solc",
    "version": "0.5.17+commit.d19bba13.Emscripten.clang"
  },
  "schemaVersion": "3.1.0",
  "updatedAt": "2020-11-01T01:33:12.755Z",
  "devdoc": {
    "methods": {}
  },
  "userdoc": {
    "methods": {}
  }
}