{
  "contractName": "StrategyMKRVaultDAIDelegate",
  "abi": [
    {
      "inputs": [
        {
          "internalType": "address",
          "name": "_controller",
          "type": "address"
        }
      ],
      "payable": false,
      "stateMutability": "nonpayable",
      "type": "constructor"
    },
    {
      "constant": true,
      "inputs": [],
      "name": "c",
      "outputs": [
        {
          "internalType": "uint256",
          "name": "",
          "type": "uint256"
        }
      ],
      "payable": false,
      "stateMutability": "view",
      "type": "function"
    },
    {
      "constant": true,
      "inputs": [],
      "name": "c_base",
      "outputs": [
        {
          "internalType": "uint256",
          "name": "",
          "type": "uint256"
        }
      ],
      "payable": false,
      "stateMutability": "view",
      "type": "function"
    },
    {
      "constant": true,
      "inputs": [],
      "name": "c_safe",
      "outputs": [
        {
          "internalType": "uint256",
          "name": "",
          "type": "uint256"
        }
      ],
      "payable": false,
      "stateMutability": "view",
      "type": "function"
    },
    {
      "constant": true,
      "inputs": [],
      "name": "cdpId",
      "outputs": [
        {
          "internalType": "uint256",
          "name": "",
          "type": "uint256"
        }
      ],
      "payable": false,
      "stateMutability": "view",
      "type": "function"
    },
    {
      "constant": true,
      "inputs": [],
      "name": "cdp_manager",
      "outputs": [
        {
          "internalType": "address",
          "name": "",
          "type": "address"
        }
      ],
      "payable": false,
      "stateMutability": "view",
      "type": "function"
    },
    {
      "constant": true,
      "inputs": [],
      "name": "controller",
      "outputs": [
        {
          "internalType": "address",
          "name": "",
          "type": "address"
        }
      ],
      "payable": false,
      "stateMutability": "view",
      "type": "function"
    },
    {
      "constant": true,
      "inputs": [],
      "name": "dai",
      "outputs": [
        {
          "internalType": "address",
          "name": "",
          "type": "address"
        }
      ],
      "payable": false,
      "stateMutability": "view",
      "type": "function"
    },
    {
      "constant": true,
      "inputs": [],
      "name": "eth_price_oracle",
      "outputs": [
        {
          "internalType": "address",
          "name": "",
          "type": "address"
        }
      ],
      "payable": false,
      "stateMutability": "view",
      "type": "function"
    },
    {
      "constant": true,
      "inputs": [],
      "name": "governance",
      "outputs": [
        {
          "internalType": "address",
          "name": "",
          "type": "address"
        }
      ],
      "payable": false,
      "stateMutability": "view",
      "type": "function"
    },
    {
      "constant": true,
      "inputs": [],
      "name": "harvester",
      "outputs": [
        {
          "internalType": "address",
          "name": "",
          "type": "address"
        }
      ],
      "payable": false,
      "stateMutability": "view",
      "type": "function"
    },
    {
      "constant": true,
      "inputs": [],
      "name": "ilk",
      "outputs": [
        {
          "internalType": "bytes32",
          "name": "",
          "type": "bytes32"
        }
      ],
      "payable": false,
      "stateMutability": "view",
      "type": "function"
    },
    {
      "constant": true,
      "inputs": [],
      "name": "jug",
      "outputs": [
        {
          "internalType": "address",
          "name": "",
          "type": "address"
        }
      ],
      "payable": false,
      "stateMutability": "view",
      "type": "function"
    },
    {
      "constant": true,
      "inputs": [],
      "name": "mcd_join_dai",
      "outputs": [
        {
          "internalType": "address",
          "name": "",
          "type": "address"
        }
      ],
      "payable": false,
      "stateMutability": "view",
      "type": "function"
    },
    {
      "constant": true,
      "inputs": [],
      "name": "mcd_join_eth_a",
      "outputs": [
        {
          "internalType": "address",
          "name": "",
          "type": "address"
        }
      ],
      "payable": false,
      "stateMutability": "view",
      "type": "function"
    },
    {
      "constant": true,
      "inputs": [],
      "name": "mcd_spot",
      "outputs": [
        {
          "internalType": "address",
          "name": "",
          "type": "address"
        }
      ],
      "payable": false,
      "stateMutability": "view",
      "type": "function"
    },
    {
      "constant": true,
      "inputs": [],
      "name": "performanceFee",
      "outputs": [
        {
          "internalType": "uint256",
          "name": "",
          "type": "uint256"
        }
      ],
      "payable": false,
      "stateMutability": "view",
      "type": "function"
    },
    {
      "constant": true,
      "inputs": [],
      "name": "performanceMax",
      "outputs": [
        {
          "internalType": "uint256",
          "name": "",
          "type": "uint256"
        }
      ],
      "payable": false,
      "stateMutability": "view",
      "type": "function"
    },
    {
      "constant": true,
      "inputs": [],
      "name": "strategist",
      "outputs": [
        {
          "internalType": "address",
          "name": "",
          "type": "address"
        }
      ],
      "payable": false,
      "stateMutability": "view",
      "type": "function"
    },
    {
      "constant": true,
      "inputs": [],
      "name": "strategistReward",
      "outputs": [
        {
          "internalType": "uint256",
          "name": "",
          "type": "uint256"
        }
      ],
      "payable": false,
      "stateMutability": "view",
      "type": "function"
    },
    {
      "constant": true,
      "inputs": [],
      "name": "strategistRewardMax",
      "outputs": [
        {
          "internalType": "uint256",
          "name": "",
          "type": "uint256"
        }
      ],
      "payable": false,
      "stateMutability": "view",
      "type": "function"
    },
    {
      "constant": true,
      "inputs": [],
      "name": "token",
      "outputs": [
        {
          "internalType": "address",
          "name": "",
          "type": "address"
        }
      ],
      "payable": false,
      "stateMutability": "view",
      "type": "function"
    },
    {
      "constant": true,
      "inputs": [],
      "name": "unirouter",
      "outputs": [
        {
          "internalType": "address",
          "name": "",
          "type": "address"
        }
      ],
      "payable": false,
      "stateMutability": "view",
      "type": "function"
    },
    {
      "constant": true,
      "inputs": [],
      "name": "vat",
      "outputs": [
        {
          "internalType": "address",
          "name": "",
          "type": "address"
        }
      ],
      "payable": false,
      "stateMutability": "view",
      "type": "function"
    },
    {
      "constant": true,
      "inputs": [],
      "name": "want",
      "outputs": [
        {
          "internalType": "address",
          "name": "",
          "type": "address"
        }
      ],
      "payable": false,
      "stateMutability": "view",
      "type": "function"
    },
    {
      "constant": true,
      "inputs": [],
      "name": "weth",
      "outputs": [
        {
          "internalType": "address",
          "name": "",
          "type": "address"
        }
      ],
      "payable": false,
      "stateMutability": "view",
      "type": "function"
    },
    {
      "constant": true,
      "inputs": [],
      "name": "withdrawalFee",
      "outputs": [
        {
          "internalType": "uint256",
          "name": "",
          "type": "uint256"
        }
      ],
      "payable": false,
      "stateMutability": "view",
      "type": "function"
    },
    {
      "constant": true,
      "inputs": [],
      "name": "withdrawalMax",
      "outputs": [
        {
          "internalType": "uint256",
          "name": "",
          "type": "uint256"
        }
      ],
      "payable": false,
      "stateMutability": "view",
      "type": "function"
    },
    {
      "constant": true,
      "inputs": [],
      "name": "yVaultDAI",
      "outputs": [
        {
          "internalType": "address",
          "name": "",
          "type": "address"
        }
      ],
      "payable": false,
      "stateMutability": "view",
      "type": "function"
    },
    {
      "constant": true,
      "inputs": [],
      "name": "getName",
      "outputs": [
        {
          "internalType": "string",
          "name": "",
          "type": "string"
        }
      ],
      "payable": false,
      "stateMutability": "pure",
      "type": "function"
    },
    {
      "constant": false,
      "inputs": [
        {
          "internalType": "address",
          "name": "_strategist",
          "type": "address"
        }
      ],
      "name": "setStrategist",
      "outputs": [],
      "payable": false,
      "stateMutability": "nonpayable",
      "type": "function"
    },
    {
      "constant": false,
      "inputs": [
        {
          "internalType": "address",
          "name": "_harvester",
          "type": "address"
        }
      ],
      "name": "setHarvester",
      "outputs": [],
      "payable": false,
      "stateMutability": "nonpayable",
      "type": "function"
    },
    {
      "constant": false,
      "inputs": [
        {
          "internalType": "uint256",
          "name": "_withdrawalFee",
          "type": "uint256"
        }
      ],
      "name": "setWithdrawalFee",
      "outputs": [],
      "payable": false,
      "stateMutability": "nonpayable",
      "type": "function"
    },
    {
      "constant": false,
      "inputs": [
        {
          "internalType": "uint256",
          "name": "_performanceFee",
          "type": "uint256"
        }
      ],
      "name": "setPerformanceFee",
      "outputs": [],
      "payable": false,
      "stateMutability": "nonpayable",
      "type": "function"
    },
    {
      "constant": false,
      "inputs": [
        {
          "internalType": "uint256",
          "name": "_strategistReward",
          "type": "uint256"
        }
      ],
      "name": "setStrategistReward",
      "outputs": [],
      "payable": false,
      "stateMutability": "nonpayable",
      "type": "function"
    },
    {
      "constant": false,
      "inputs": [
        {
          "internalType": "uint256",
          "name": "_c",
          "type": "uint256"
        }
      ],
      "name": "setBorrowCollateralizationRatio",
      "outputs": [],
      "payable": false,
      "stateMutability": "nonpayable",
      "type": "function"
    },
    {
      "constant": false,
      "inputs": [
        {
          "internalType": "uint256",
          "name": "_c_safe",
          "type": "uint256"
        }
      ],
      "name": "setWithdrawCollateralizationRatio",
      "outputs": [],
      "payable": false,
      "stateMutability": "nonpayable",
      "type": "function"
    },
    {
      "constant": false,
      "inputs": [
        {
          "internalType": "address",
          "name": "_oracle",
          "type": "address"
        }
      ],
      "name": "setOracle",
      "outputs": [],
      "payable": false,
      "stateMutability": "nonpayable",
      "type": "function"
    },
    {
      "constant": false,
      "inputs": [
        {
          "internalType": "address",
          "name": "_manager",
          "type": "address"
        },
        {
          "internalType": "address",
          "name": "_ethAdapter",
          "type": "address"
        },
        {
          "internalType": "address",
          "name": "_daiAdapter",
          "type": "address"
        },
        {
          "internalType": "address",
          "name": "_spot",
          "type": "address"
        },
        {
          "internalType": "address",
          "name": "_jug",
          "type": "address"
        }
      ],
      "name": "setMCDValue",
      "outputs": [],
      "payable": false,
      "stateMutability": "nonpayable",
      "type": "function"
    },
    {
      "constant": false,
      "inputs": [],
      "name": "deposit",
      "outputs": [],
      "payable": false,
      "stateMutability": "nonpayable",
      "type": "function"
    },
    {
      "constant": false,
      "inputs": [
        {
          "internalType": "uint256",
          "name": "_amount",
          "type": "uint256"
        }
      ],
      "name": "withdraw",
      "outputs": [],
      "payable": false,
      "stateMutability": "nonpayable",
      "type": "function"
    },
    {
      "constant": false,
      "inputs": [
        {
          "internalType": "contract IERC20",
          "name": "_asset",
          "type": "address"
        }
      ],
      "name": "withdraw",
      "outputs": [
        {
          "internalType": "uint256",
          "name": "balance",
          "type": "uint256"
        }
      ],
      "payable": false,
      "stateMutability": "nonpayable",
      "type": "function"
    },
    {
      "constant": false,
      "inputs": [],
      "name": "withdrawAll",
      "outputs": [
        {
          "internalType": "uint256",
          "name": "balance",
          "type": "uint256"
        }
      ],
      "payable": false,
      "stateMutability": "nonpayable",
      "type": "function"
    },
    {
      "constant": true,
      "inputs": [],
      "name": "balanceOf",
      "outputs": [
        {
          "internalType": "uint256",
          "name": "",
          "type": "uint256"
        }
      ],
      "payable": false,
      "stateMutability": "view",
      "type": "function"
    },
    {
      "constant": true,
      "inputs": [],
      "name": "balanceOfWant",
      "outputs": [
        {
          "internalType": "uint256",
          "name": "",
          "type": "uint256"
        }
      ],
      "payable": false,
      "stateMutability": "view",
      "type": "function"
    },
    {
      "constant": true,
      "inputs": [],
      "name": "balanceOfmVault",
      "outputs": [
        {
          "internalType": "uint256",
          "name": "",
          "type": "uint256"
        }
      ],
      "payable": false,
      "stateMutability": "view",
      "type": "function"
    },
    {
      "constant": false,
      "inputs": [],
      "name": "harvest",
      "outputs": [],
      "payable": false,
      "stateMutability": "nonpayable",
      "type": "function"
    },
    {
      "constant": true,
      "inputs": [],
      "name": "shouldDraw",
      "outputs": [
        {
          "internalType": "bool",
          "name": "",
          "type": "bool"
        }
      ],
      "payable": false,
      "stateMutability": "view",
      "type": "function"
    },
    {
      "constant": true,
      "inputs": [],
      "name": "drawAmount",
      "outputs": [
        {
          "internalType": "uint256",
          "name": "",
          "type": "uint256"
        }
      ],
      "payable": false,
      "stateMutability": "view",
      "type": "function"
    },
    {
      "constant": false,
      "inputs": [],
      "name": "draw",
      "outputs": [],
      "payable": false,
      "stateMutability": "nonpayable",
      "type": "function"
    },
    {
      "constant": true,
      "inputs": [],
      "name": "shouldRepay",
      "outputs": [
        {
          "internalType": "bool",
          "name": "",
          "type": "bool"
        }
      ],
      "payable": false,
      "stateMutability": "view",
      "type": "function"
    },
    {
      "constant": true,
      "inputs": [],
      "name": "repayAmount",
      "outputs": [
        {
          "internalType": "uint256",
          "name": "",
          "type": "uint256"
        }
      ],
      "payable": false,
      "stateMutability": "view",
      "type": "function"
    },
    {
      "constant": false,
      "inputs": [],
      "name": "repay",
      "outputs": [],
      "payable": false,
      "stateMutability": "nonpayable",
      "type": "function"
    },
    {
      "constant": false,
      "inputs": [
        {
          "internalType": "uint256",
          "name": "_amount",
          "type": "uint256"
        }
      ],
      "name": "forceRebalance",
      "outputs": [],
      "payable": false,
      "stateMutability": "nonpayable",
      "type": "function"
    },
    {
      "constant": true,
      "inputs": [],
      "name": "getTotalDebtAmount",
      "outputs": [
        {
          "internalType": "uint256",
          "name": "",
          "type": "uint256"
        }
      ],
      "payable": false,
      "stateMutability": "view",
      "type": "function"
    },
    {
      "constant": true,
      "inputs": [
        {
          "internalType": "uint256",
          "name": "amount",
          "type": "uint256"
        }
      ],
      "name": "getmVaultRatio",
      "outputs": [
        {
          "internalType": "uint256",
          "name": "",
          "type": "uint256"
        }
      ],
      "payable": false,
      "stateMutability": "view",
      "type": "function"
    },
    {
      "constant": true,
      "inputs": [],
      "name": "getUnderlyingDai",
      "outputs": [
        {
          "internalType": "uint256",
          "name": "",
          "type": "uint256"
        }
      ],
      "payable": false,
      "stateMutability": "view",
      "type": "function"
    },
    {
      "constant": false,
      "inputs": [
        {
          "internalType": "address",
          "name": "_governance",
          "type": "address"
        }
      ],
      "name": "setGovernance",
      "outputs": [],
      "payable": false,
      "stateMutability": "nonpayable",
      "type": "function"
    },
    {
      "constant": false,
      "inputs": [
        {
          "internalType": "address",
          "name": "_controller",
          "type": "address"
        }
      ],
      "name": "setController",
      "outputs": [],
      "payable": false,
      "stateMutability": "nonpayable",
      "type": "function"
    }
  ],
  "bytecode": "0x6080604052600080546001600160a01b0319908116735ef30b9986345249bc32d8928b7ee64de9435e39179091556001805482167335d1b3f3d7966a1dfe207aa4514c12a259a0492b179055600280548216732f0b23f53734252bda2277357e97e1517d6b042a179055600380548216739759a6ac90977b93b58547b4a71c78317f391a281790556004805482167365c79fcb50ca1594b025960e539ed7a9a6d434a31790556005805482167319c0976f590d67707e62397c87829d896dc0f1f11790556006805490911673cf63089a8ad2a9d8bd6bb8022f3190eb7e1ed0f1179055614e206007556175306008556101f46009556032600a55611388600b553480156200010c57600080fd5b5060405162003edc38038062003edc833981810160405260208110156200013257600080fd5b5051600c80546001600160a01b031990811633908117909255600e8054821683179055600f80548216909217909155600d80546001600160a01b03808516919093161790556000805460408051636090dec560e01b8152644554482d4160d81b600482015230602482015290519190931692636090dec59260448083019360209390929083900390910190829087803b158015620001cf57600080fd5b505af1158015620001e4573d6000803e3d6000fd5b505050506040513d6020811015620001fb57600080fd5b5051601055620002136001600160e01b036200021a16565b5062000484565b6002546040805163095ea7b360e01b81526001600160a01b03909216600483015260001960248301525173c02aaa39b223fe8d0a0e5c4f27ead9083c756cc29163095ea7b39160448083019260209291908290030181600087803b1580156200028257600080fd5b505af115801562000297573d6000803e3d6000fd5b505050506040513d6020811015620002ae57600080fd5b50506003546040805163095ea7b360e01b81526001600160a01b039092166004830152600019602483015251736b175474e89094c44da98b954eedeac495271d0f9163095ea7b39160448083019260209291908290030181600087803b1580156200031857600080fd5b505af11580156200032d573d6000803e3d6000fd5b505050506040513d60208110156200034457600080fd5b50506040805163095ea7b360e01b815273acd43e627e64355f1861cec6d3a6688b31a6f952600482015260001960248201529051736b175474e89094c44da98b954eedeac495271d0f9163095ea7b39160448083019260209291908290030181600087803b158015620003b657600080fd5b505af1158015620003cb573d6000803e3d6000fd5b505050506040513d6020811015620003e257600080fd5b50506040805163095ea7b360e01b8152737a250d5630b4cf539739df2c5dacb4c659f2488d600482015260001960248201529051736b175474e89094c44da98b954eedeac495271d0f9163095ea7b39160448083019260209291908290030181600087803b1580156200045457600080fd5b505af115801562000469573d6000803e3d6000fd5b505050506040513d60208110156200048057600080fd5b5050565b613a4880620004946000396000f3fe608060405234801561001057600080fd5b506004361061038d5760003560e01c806384718d89116101de578063c73214011161010f578063d7f35550116100ad578063f4b9fa751161007c578063f4b9fa7514610762578063f77c47911461076a578063f9f42b4f14610772578063fc0c546a1461049c5761038d565b8063d7f355501461074a578063e00c1c3b146104ac578063ebf661b614610752578063f21444841461075a5761038d565b8063d0e30db0116100e9578063d0e30db0146106f2578063d0efe753146106fa578063d5c1ff73146104ac578063d658c6af146107025761038d565b8063c7321401146106bc578063c7b9d530146106c4578063c7c57c1f146106ea5761038d565b8063ab033ea91161017c578063c1a3d44c11610156578063c1a3d44c14610687578063c392c6f71461068f578063c3da42b8146106ac578063c5ce281e146106b45761038d565b8063ab033ea914610627578063ac1e50251461064d578063b6124c7b1461066a5761038d565b80638bc7e8c4116101b85780638bc7e8c4146105e957806392eefe9b146105f15780639832fb4b14610617578063a28006201461061f5761038d565b806384718d89146105d1578063853828b6146105d957806387788782146105e15761038d565b8063402d8883116102c3578063669c62d4116102615780637adbf973116102305780637adbf9731461059b5780637cc79113146104ac578063804574a8146105c15780638158676e146105c95761038d565b8063669c62d41461056657806370897b231461056e578063722713f71461058b578063781eff12146105935761038d565b80634bdaeac11161029d5780634bdaeac11461052857806351cff8d9146105305780635aa6e6751461055657806361880a921461055e5761038d565b8063402d8883146105105780634641257d146105185780634a1a066b146105205761038d565b80631fe4a686116103305780632641e5cd1161030a5780632641e5cd146104ce5780632e1a7d4d146104eb57806336569e77146105085780633fc8cef31461049c5761038d565b80631fe4a686146104a457806325234553146104ac578063257ae0de146104c65761038d565b8063121c1a651161036c578063121c1a65146103d557806315de1daa146103f957806317d7de7c1461041f5780631f1fcd511461049c5761038d565b8062beada4146103925780630d596cdf146103ae5780630eecae21146103cd575b600080fd5b61039a61078f565b604080519115158252519081900360200190f35b6103cb600480360360208110156103c457600080fd5b503561080d565b005b6103cb61085f565b6103dd6108e7565b604080516001600160a01b039092168252519081900360200190f35b6103cb6004803603602081101561040f57600080fd5b50356001600160a01b03166108f6565b610427610977565b6040805160208082528351818301528351919283929083019185019080838360005b83811015610461578181015183820152602001610449565b50505050905090810190601f16801561048e5780820380516001836020036101000a031916815260200191505b509250505060405180910390f35b6103dd6109ae565b6103dd6109c0565b6104b46109cf565b60408051918252519081900360200190f35b6103dd6109d5565b6103cb600480360360208110156104e457600080fd5b50356109ed565b6103cb6004803603602081101561050157600080fd5b5035610a3f565b6103dd610d03565b6103cb610d12565b6103cb610d35565b6104b4611051565b6103dd611057565b6104b46004803603602081101561054657600080fd5b50356001600160a01b0316611066565b6103dd611258565b6104b4611267565b6103dd611356565b6103cb6004803603602081101561058457600080fd5b5035611365565b6104b46113b7565b6104b46113dd565b6103cb600480360360208110156105b157600080fd5b50356001600160a01b03166115a0565b6103dd61160f565b6104b4611627565b6103dd61162d565b6104b461163c565b6104b4611886565b6104b461188c565b6103cb6004803603602081101561060757600080fd5b50356001600160a01b0316611892565b6103dd611901565b6103dd611910565b6103cb6004803603602081101561063d57600080fd5b50356001600160a01b031661191f565b6103cb6004803603602081101561066357600080fd5b503561198e565b6103cb6004803603602081101561068057600080fd5b50356119e0565b6104b4611a32565b6104b4600480360360208110156106a557600080fd5b5035611ab2565b6104b4611c6c565b6104b4611c72565b6104b4611c7e565b6103cb600480360360208110156106da57600080fd5b50356001600160a01b0316611d8b565b6103dd611dfa565b6103cb611e09565b6104b4611f7c565b6103cb600480360360a081101561071857600080fd5b506001600160a01b03813581169160208101358216916040820135811691606081013582169160809091013516612004565b6104b461212f565b61039a612135565b6104b461217e565b6103dd612291565b6103dd6122a9565b6103cb6004803603602081101561078857600080fd5b50356122b8565b6000806107a8606460075461233b90919063ffffffff16565b905060006107b66000611ab2565b90506107e060646107d460085461271061233b90919063ffffffff16565b9063ffffffff61233b16565b8111156108065761080360646107d460085461271061233b90919063ffffffff16565b90505b1190505b90565b600c546001600160a01b0316331461085a576040805162461bcd60e51b815260206004820152600b60248201526a21676f7665726e616e636560a81b604482015290519081900360640190fd5b600b55565b6000610869611267565b905080156108e45761087c60008261239d565b73acd43e627e64355f1861cec6d3a6688b31a6f9526001600160a01b031663de5f62686040518163ffffffff1660e01b8152600401600060405180830381600087803b1580156108cb57600080fd5b505af11580156108df573d6000803e3d6000fd5b505050505b50565b6006546001600160a01b031681565b600f546001600160a01b03163314806109195750600c546001600160a01b031633145b610955576040805162461bcd60e51b815260206004820152600860248201526708585b1b1bddd95960c21b604482015290519081900360640190fd5b600f80546001600160a01b0319166001600160a01b0392909216919091179055565b60408051808201909152601b81527f53747261746567794d4b525661756c7444414944656c65676174650000000000602082015290565b6000805160206139a983398151915281565b600e546001600160a01b031681565b61271081565b737a250d5630b4cf539739df2c5dacb4c659f2488d81565b600c546001600160a01b03163314610a3a576040805162461bcd60e51b815260206004820152600b60248201526a21676f7665726e616e636560a81b604482015290519081900360640190fd5b600755565b600d546001600160a01b03163314610a8c576040805162461bcd60e51b815260206004820152600b60248201526a10b1b7b73a3937b63632b960a91b604482015290519081900360640190fd5b604080516370a0823160e01b815230600482015290516000916000805160206139a9833981519152916370a0823191602480820192602092909190829003018186803b158015610adb57600080fd5b505afa158015610aef573d6000803e3d6000fd5b505050506040513d6020811015610b0557600080fd5b5051905081811015610b3e57610b29610b24838363ffffffff61271116565b612753565b9150610b3b828263ffffffff6127c816565b91505b6000610b67612710610b5b600a548661233b90919063ffffffff16565b9063ffffffff61282216565b9050610c02600d60009054906101000a90046001600160a01b03166001600160a01b0316639ec5a8946040518163ffffffff1660e01b815260040160206040518083038186803b158015610bba57600080fd5b505afa158015610bce573d6000803e3d6000fd5b505050506040513d6020811015610be457600080fd5b50516000805160206139a9833981519152908363ffffffff61286416565b600d5460408051632988bb9f60e21b81526000805160206139a9833981519152600482015290516000926001600160a01b03169163a622ee7c916024808301926020929190829003018186803b158015610c5b57600080fd5b505afa158015610c6f573d6000803e3d6000fd5b505050506040513d6020811015610c8557600080fd5b505190506001600160a01b038116610ccd576040805162461bcd60e51b8152602060048201526006602482015265085d985d5b1d60d21b604482015290519081900360640190fd5b610cfd81610ce1868563ffffffff61271116565b6000805160206139a9833981519152919063ffffffff61286416565b50505050565b6001546001600160a01b031681565b6000610d1c611f7c565b905080156108e4576108e4610d30826128bb565b612c06565b600e546001600160a01b0316331480610d585750600f546001600160a01b031633145b80610d6d5750600c546001600160a01b031633145b610dac576040805162461bcd60e51b815260206004820152600b60248201526a08585d5d1a1bdc9a5e995960aa1b604482015290519081900360640190fd5b6000610db661217e565b90506000610dc26113dd565b9050808211610e18576040805162461bcd60e51b815260206004820152601b60248201527f70726f666974206973206e6f74207265616c697a656420796574210000000000604482015290519081900360640190fd5b6000610e2a838363ffffffff61271116565b604080516370a0823160e01b815230600482015290519192506000916000805160206139a9833981519152916370a08231916024808301926020929190829003018186803b158015610e7b57600080fd5b505afa158015610e8f573d6000803e3d6000fd5b505050506040513d6020811015610ea557600080fd5b50519050610eba610eb583612de0565b612e77565b604080516370a0823160e01b815230600482015290516000916000805160206139a9833981519152916370a0823191602480820192602092909190829003018186803b158015610f0957600080fd5b505afa158015610f1d573d6000803e3d6000fd5b505050506040513d6020811015610f3357600080fd5b505190506000610f49828463ffffffff61271116565b90508015611041576000610f6e612710610b5b6009548561233b90919063ffffffff16565b90506000610f8d612710610b5b600b548561233b90919063ffffffff16565b600e54909150610fbc906000805160206139a9833981519152906001600160a01b03168363ffffffff61286416565b600d54604080516327b16a2560e21b8152905161103e926001600160a01b031691639ec5a894916004808301926020929190829003018186803b15801561100257600080fd5b505afa158015611016573d6000803e3d6000fd5b505050506040513d602081101561102c57600080fd5b5051610ce1848463ffffffff61271116565b50505b611049611e09565b505050505050565b60105481565b600f546001600160a01b031681565b600d546000906001600160a01b031633146110b6576040805162461bcd60e51b815260206004820152600b60248201526a10b1b7b73a3937b63632b960a91b604482015290519081900360640190fd5b6000805160206139a98339815191526001600160a01b038316141561110b576040805162461bcd60e51b815260206004808301919091526024820152631dd85b9d60e21b604482015290519081900360640190fd5b736b175474e89094c44da98b954eedeac495271d0f6001600160a01b0383161415611163576040805162461bcd60e51b815260206004820152600360248201526264616960e81b604482015290519081900360640190fd5b73acd43e627e64355f1861cec6d3a6688b31a6f9526001600160a01b03831614156111be576040805162461bcd60e51b815260206004808301919091526024820152637964616960e01b604482015290519081900360640190fd5b604080516370a0823160e01b815230600482015290516001600160a01b038416916370a08231916024808301926020929190829003018186803b15801561120457600080fd5b505afa158015611218573d6000803e3d6000fd5b505050506040513d602081101561122e57600080fd5b5051600d54909150611253906001600160a01b0384811691168363ffffffff61286416565b919050565b600c546001600160a01b031681565b600080611280606460075461233b90919063ffffffff16565b9050600061128e6000611ab2565b90506112ac60646107d460085461271061233b90919063ffffffff16565b8111156112d2576112cf60646107d460085461271061233b90919063ffffffff16565b90505b8181111561134d5760006112e4611c7e565b905060006112f8838563ffffffff61271116565b9050600061131b84610b5b60646107d4612710818b858b8b63ffffffff61233b16565b9050611341670de0b6b3a7640000610b5b611334612fe1565b849063ffffffff61233b16565b9550505050505061080a565b60009250505090565b6000546001600160a01b031681565b600c546001600160a01b031633146113b2576040805162461bcd60e51b815260206004820152600b60248201526a21676f7665726e616e636560a81b604482015290519081900360640190fd5b600955565b60006113d86113c4611c7e565b6113cc611a32565b9063ffffffff6127c816565b905090565b6000806000806000809054906101000a90046001600160a01b03166001600160a01b0316632726b0736010546040518263ffffffff1660e01b81526004018082815260200191505060206040518083038186803b15801561143d57600080fd5b505afa158015611451573d6000803e3d6000fd5b505050506040513d602081101561146757600080fd5b5051600154604080516309092f9760e21b8152644554482d4160d81b60048201526001600160a01b038085166024830152825194955090921692632424be5c926044808201939291829003018186803b1580156114c357600080fd5b505afa1580156114d7573d6000803e3d6000fd5b505050506040513d60408110156114ed57600080fd5b506020015160015460408051636cb1c69b60e11b8152644554482d4160d81b600482015290519295506001600160a01b039091169163d9638d369160248082019260a092909190829003018186803b15801561154857600080fd5b505afa15801561155c573d6000803e3d6000fd5b505050506040513d60a081101561157257600080fd5b50602001519150611598676765c793fa10079d601b1b610b5b858563ffffffff61233b16565b935050505090565b600c546001600160a01b031633146115ed576040805162461bcd60e51b815260206004820152600b60248201526a21676f7665726e616e636560a81b604482015290519081900360640190fd5b600680546001600160a01b0319166001600160a01b0392909216919091179055565b73acd43e627e64355f1861cec6d3a6688b31a6f95281565b600b5481565b6005546001600160a01b031681565b600d546000906001600160a01b0316331461168c576040805162461bcd60e51b815260206004820152600b60248201526a10b1b7b73a3937b63632b960a91b604482015290519081900360640190fd5b6116946130de565b604080516370a0823160e01b8152306004820152905161171b91736b175474e89094c44da98b954eedeac495271d0f916370a0823191602480820192602092909190829003018186803b1580156116ea57600080fd5b505afa1580156116fe573d6000803e3d6000fd5b505050506040513d602081101561171457600080fd5b5051612e77565b604080516370a0823160e01b815230600482015290516000805160206139a9833981519152916370a08231916024808301926020929190829003018186803b15801561176657600080fd5b505afa15801561177a573d6000803e3d6000fd5b505050506040513d602081101561179057600080fd5b5051600d5460408051632988bb9f60e21b81526000805160206139a9833981519152600482015290519293506000926001600160a01b039092169163a622ee7c91602480820192602092909190829003018186803b1580156117f157600080fd5b505afa158015611805573d6000803e3d6000fd5b505050506040513d602081101561181b57600080fd5b505190506001600160a01b038116611863576040805162461bcd60e51b8152602060048201526006602482015265085d985d5b1d60d21b604482015290519081900360640190fd5b6118826000805160206139a9833981519152828463ffffffff61286416565b5090565b60095481565b600a5481565b600c546001600160a01b031633146118df576040805162461bcd60e51b815260206004820152600b60248201526a21676f7665726e616e636560a81b604482015290519081900360640190fd5b600d80546001600160a01b0319166001600160a01b0392909216919091179055565b6002546001600160a01b031681565b6003546001600160a01b031681565b600c546001600160a01b0316331461196c576040805162461bcd60e51b815260206004820152600b60248201526a21676f7665726e616e636560a81b604482015290519081900360640190fd5b600c80546001600160a01b0319166001600160a01b0392909216919091179055565b600c546001600160a01b031633146119db576040805162461bcd60e51b815260206004820152600b60248201526a21676f7665726e616e636560a81b604482015290519081900360640190fd5b600a55565b600c546001600160a01b03163314611a2d576040805162461bcd60e51b815260206004820152600b60248201526a21676f7665726e616e636560a81b604482015290519081900360640190fd5b600855565b604080516370a0823160e01b815230600482015290516000916000805160206139a9833981519152916370a0823191602480820192602092909190829003018186803b158015611a8157600080fd5b505afa158015611a95573d6000803e3d6000fd5b505050506040513d6020811015611aab57600080fd5b5051905090565b600080600080611ac06113dd565b905080611ad4576000199350505050611253565b60015460408051636cb1c69b60e11b8152644554482d4160d81b600482015290516001600160a01b039092169163d9638d369160248082019260a092909190829003018186803b158015611b2757600080fd5b505afa158015611b3b573d6000803e3d6000fd5b505050506040513d60a0811015611b5157600080fd5b50604090810151600480548351636cb1c69b60e11b8152644554482d4160d81b9281019290925283519296506001600160a01b03169263d9638d3692602480840193829003018186803b158015611ba757600080fd5b505afa158015611bbb573d6000803e3d6000fd5b505050506040513d6040811015611bd157600080fd5b506020015191506000611bf9676765c793fa10079d601b1b610b5b868663ffffffff61233b16565b90506000611c05611c7e565b905086811015611c1757506000611c2a565b611c27818863ffffffff61271116565b90505b6000611c48670de0b6b3a7640000610b5b848663ffffffff61233b16565b9050611c606103e8610b5b838763ffffffff61282216565b98975050505050505050565b60075481565b644554482d4160d81b81565b6000805460105460408051632726b07360e01b8152600481019290925251839283926001600160a01b0390911691632726b07391602480820192602092909190829003018186803b158015611cd257600080fd5b505afa158015611ce6573d6000803e3d6000fd5b505050506040513d6020811015611cfc57600080fd5b5051600154604080516309092f9760e21b8152644554482d4160d81b60048201526001600160a01b038085166024830152825194955090921692632424be5c926044808201939291829003018186803b158015611d5857600080fd5b505afa158015611d6c573d6000803e3d6000fd5b505050506040513d6040811015611d8257600080fd5b50519250505090565b600c546001600160a01b03163314611dd8576040805162461bcd60e51b815260206004820152600b60248201526a21676f7665726e616e636560a81b604482015290519081900360640190fd5b600e80546001600160a01b0319166001600160a01b0392909216919091179055565b6004546001600160a01b031681565b604080516370a0823160e01b815230600482015290516000916000805160206139a9833981519152916370a0823191602480820192602092909190829003018186803b158015611e5857600080fd5b505afa158015611e6c573d6000803e3d6000fd5b505050506040513d6020811015611e8257600080fd5b50519050801561087c576000611e96612fe1565b90506000611ec5670de0b6b3a7640000610b5b600754610b5b6127106107d4888a61233b90919063ffffffff16565b9050611ed081613167565b611f21576040805162461bcd60e51b815260206004820152601860248201527f64656274206365696c696e672069732072656163686564210000000000000000604482015290519081900360640190fd5b611f2b838261239d565b505073acd43e627e64355f1861cec6d3a6688b31a6f9526001600160a01b031663de5f62686040518163ffffffff1660e01b8152600401600060405180830381600087803b1580156108cb57600080fd5b600080611f95606460075461233b90919063ffffffff16565b90506000611fa36000611ab2565b9050611fbb6064610b5b83606963ffffffff61233b16565b90508181101561134d576000611fcf6113dd565b90506000611fe3848463ffffffff61271116565b9050611ff984610b5b848463ffffffff61233b16565b94505050505061080a565b600c546001600160a01b03163314612051576040805162461bcd60e51b815260206004820152600b60248201526a21676f7665726e616e636560a81b604482015290519081900360640190fd5b600080546001600160a01b0319166001600160a01b038716908117909155604080516336569e7760e01b815290516336569e7791600480820192602092909190829003018186803b1580156120a557600080fd5b505afa1580156120b9573d6000803e3d6000fd5b505050506040513d60208110156120cf57600080fd5b5051600180546001600160a01b03199081166001600160a01b039384161790915560028054821696831696909617909555600380548616948216949094179093556004805485169284169290921790915560058054909316911617905550565b60085481565b60008061214e606460075461233b90919063ffffffff16565b9050600061215c6000611ab2565b90506121746064610b5b83606963ffffffff61233b16565b9190911091505090565b60006113d8670de0b6b3a7640000610b5b73acd43e627e64355f1861cec6d3a6688b31a6f9526001600160a01b03166377c7b8fc6040518163ffffffff1660e01b815260040160206040518083038186803b1580156121dc57600080fd5b505afa1580156121f0573d6000803e3d6000fd5b505050506040513d602081101561220657600080fd5b5051604080516370a0823160e01b8152306004820152905173acd43e627e64355f1861cec6d3a6688b31a6f952916370a08231916024808301926020929190829003018186803b15801561225957600080fd5b505afa15801561226d573d6000803e3d6000fd5b505050506040513d602081101561228357600080fd5b50519063ffffffff61233b16565b736b175474e89094c44da98b954eedeac495271d0f81565b600d546001600160a01b031681565b600c546001600160a01b03163314806122db5750600e546001600160a01b031633145b806122f05750600f546001600160a01b031633145b61232f576040805162461bcd60e51b815260206004820152600b60248201526a08585d5d1a1bdc9a5e995960aa1b604482015290519081900360640190fd5b6108e4610d30826128bb565b60008261234a57506000612397565b8282028284828161235757fe5b04146123945760405162461bcd60e51b81526004018080602001828103825260218152602001806139c96021913960400191505060405180910390fd5b90505b92915050565b6000805460105460408051632726b07360e01b81526004810192909252516001600160a01b0390921691632726b07391602480820192602092909190829003018186803b1580156123ed57600080fd5b505afa158015612401573d6000803e3d6000fd5b505050506040513d602081101561241757600080fd5b505160025460408051633b4da69f60e01b81526001600160a01b038085166004830152602482018890529151939450911691633b4da69f9160448082019260009290919082900301818387803b15801561247057600080fd5b505af1158015612484573d6000803e3d6000fd5b50506000546010546001600160a01b0390911692506345e6bdcd91506124a986613237565b6124b3858761327d565b6040518463ffffffff1660e01b8152600401808481526020018381526020018281526020019350505050600060405180830381600087803b1580156124f757600080fd5b505af115801561250b573d6000803e3d6000fd5b50506000546010546001600160a01b03909116925063f9f30db691503061254386676765c793fa10079d601b1b63ffffffff61233b16565b6040518463ffffffff1660e01b815260040180848152602001836001600160a01b03166001600160a01b031681526020018281526020019350505050600060405180830381600087803b15801561259957600080fd5b505af11580156125ad573d6000803e3d6000fd5b505060015460035460408051634538c4eb60e01b81523060048201526001600160a01b0392831660248201529051919092169350634538c4eb92506044808301926020929190829003018186803b15801561260757600080fd5b505afa15801561261b573d6000803e3d6000fd5b505050506040513d602081101561263157600080fd5b50516126a157600154600354604080516328ec8bf160e21b81526001600160a01b0392831660048201529051919092169163a3b22fc491602480830192600092919082900301818387803b15801561268857600080fd5b505af115801561269c573d6000803e3d6000fd5b505050505b6003546040805163ef693bed60e01b81523060048201526024810185905290516001600160a01b039092169163ef693bed9160448082019260009290919082900301818387803b1580156126f457600080fd5b505af1158015612708573d6000803e3d6000fd5b50505050505050565b600061239483836040518060400160405280601e81526020017f536166654d6174683a207375627472616374696f6e206f766572666c6f770000815250613424565b600061275d6113dd565b15801590612785575060085461277a90606463ffffffff61233b16565b61278383611ab2565b105b156127bf576000612794612fe1565b90506127bd610d306127b8670de0b6b3a7640000610b5b878663ffffffff61233b16565b6128bb565b505b611882826134bb565b600082820183811015612394576040805162461bcd60e51b815260206004820152601b60248201527f536166654d6174683a206164646974696f6e206f766572666c6f770000000000604482015290519081900360640190fd5b600061239483836040518060400160405280601a81526020017f536166654d6174683a206469766973696f6e206279207a65726f000000000000815250613602565b604080516001600160a01b038416602482015260448082018490528251808303909101815260649091019091526020810180516001600160e01b031663a9059cbb60e01b1790526128b6908490613667565b505050565b6000806129726128d8600a5461271061271190919063ffffffff16565b610b5b6127106107d473acd43e627e64355f1861cec6d3a6688b31a6f9526001600160a01b03166377c7b8fc6040518163ffffffff1660e01b815260040160206040518083038186803b15801561292e57600080fd5b505afa158015612942573d6000803e3d6000fd5b505050506040513d602081101561295857600080fd5b5051610b5b89670de0b6b3a764000063ffffffff61233b16565b604080516370a0823160e01b8152306004820152905191925073acd43e627e64355f1861cec6d3a6688b31a6f952916370a0823191602480820192602092909190829003018186803b1580156129c757600080fd5b505afa1580156129db573d6000803e3d6000fd5b505050506040513d60208110156129f157600080fd5b5051811115612a7a57604080516370a0823160e01b8152306004820152905173acd43e627e64355f1861cec6d3a6688b31a6f952916370a08231916024808301926020929190829003018186803b158015612a4b57600080fd5b505afa158015612a5f573d6000803e3d6000fd5b505050506040513d6020811015612a7557600080fd5b505190505b604080516370a0823160e01b81523060048201529051600091736b175474e89094c44da98b954eedeac495271d0f916370a0823191602480820192602092909190829003018186803b158015612acf57600080fd5b505afa158015612ae3573d6000803e3d6000fd5b505050506040513d6020811015612af957600080fd5b505160408051632e1a7d4d60e01b815260048101859052905191925073acd43e627e64355f1861cec6d3a6688b31a6f95291632e1a7d4d9160248082019260009290919082900301818387803b158015612b5257600080fd5b505af1158015612b66573d6000803e3d6000fd5b5050604080516370a0823160e01b8152306004820152905160009350736b175474e89094c44da98b954eedeac495271d0f92506370a0823191602480820192602092909190829003018186803b158015612bbf57600080fd5b505afa158015612bd3573d6000803e3d6000fd5b505050506040513d6020811015612be957600080fd5b50519050612bfd818363ffffffff61271116565b95945050505050565b6000805460105460408051632726b07360e01b81526004810192909252516001600160a01b0390921691632726b07391602480820192602092909190829003018186803b158015612c5657600080fd5b505afa158015612c6a573d6000803e3d6000fd5b505050506040513d6020811015612c8057600080fd5b505160035460408051633b4da69f60e01b81526001600160a01b038085166004830152602482018790529151939450911691633b4da69f9160448082019260009290919082900301818387803b158015612cd957600080fd5b505af1158015612ced573d6000803e3d6000fd5b50506000805460105460015460408051633612d9a360e11b81526001600160a01b038981166004830152915194821697506345e6bdcd9650929493612d88939290911691636c25b346916024808301926020929190829003018186803b158015612d5657600080fd5b505afa158015612d6a573d6000803e3d6000fd5b505050506040513d6020811015612d8057600080fd5b50518661381f565b6040518463ffffffff1660e01b8152600401808481526020018381526020018281526020019350505050600060405180830381600087803b158015612dcc57600080fd5b505af1158015611049573d6000803e3d6000fd5b60008061297273acd43e627e64355f1861cec6d3a6688b31a6f9526001600160a01b03166377c7b8fc6040518163ffffffff1660e01b815260040160206040518083038186803b158015612e3357600080fd5b505afa158015612e47573d6000803e3d6000fd5b505050506040513d6020811015612e5d57600080fd5b5051610b5b85670de0b6b3a764000063ffffffff61233b16565b6040805160028082526060808301845292602083019080388339019050509050736b175474e89094c44da98b954eedeac495271d0f81600081518110612eb957fe5b60200260200101906001600160a01b031690816001600160a01b0316815250506000805160206139a983398151915281600181518110612ef557fe5b6001600160a01b0390921660209283029190910190910152737a250d5630b4cf539739df2c5dacb4c659f2488d6338ed17398360008430612f3f426201518063ffffffff6127c816565b6040518663ffffffff1660e01b81526004018086815260200185815260200180602001846001600160a01b03166001600160a01b03168152602001838152602001828103825285818151815260200191508051906020019060200280838360005b83811015612fb8578181015183820152602001612fa0565b505050509050019650505050505050600060405180830381600087803b158015612dcc57600080fd5b600654604080516315f789a960e21b8152815160009384936001600160a01b03909116926357de26a49260048083019392829003018186803b15801561302657600080fd5b505afa15801561303a573d6000803e3d6000fd5b505050506040513d604081101561305057600080fd5b5051600654604080516333eb672360e21b815281519394506000936001600160a01b039093169263cfad9c8c92600480840193919291829003018186803b15801561309a57600080fd5b505afa1580156130ae573d6000803e3d6000fd5b505050506040513d60408110156130c457600080fd5b505190508181106130d557816130d7565b805b9250505090565b73acd43e627e64355f1861cec6d3a6688b31a6f9526001600160a01b031663853828b66040518163ffffffff1660e01b8152600401600060405180830381600087803b15801561312d57600080fd5b505af1158015613141573d6000803e3d6000fd5b50505050613155610d3060016113cc6113dd565b613165613160611c7e565b6134bb565b565b60015460408051636cb1c69b60e11b8152644554482d4160d81b6004820152905160009283926001600160a01b039091169163d9638d369160248082019260a092909190829003018186803b1580156131bf57600080fd5b505afa1580156131d3573d6000803e3d6000fd5b505050506040513d60a08110156131e957600080fd5b5060600151905060006131fe846113cc6113dd565b90508061321c83676765c793fa10079d601b1b63ffffffff61282216565b101561322d57600092505050611253565b5060019392505050565b806000811215611253576040805162461bcd60e51b815260206004820152600c60248201526b696e742d6f766572666c6f7760a01b604482015290519081900360640190fd5b6005546040805163089c54b560e31b8152644554482d4160d81b6004820152905160009283926001600160a01b03909116916344e2a5a89160248082019260209290919082900301818787803b1580156132d657600080fd5b505af11580156132ea573d6000803e3d6000fd5b505050506040513d602081101561330057600080fd5b505160015460408051633612d9a360e11b81526001600160a01b03888116600483015291519394506000939190921691636c25b346916024808301926020929190829003018186803b15801561335557600080fd5b505afa158015613369573d6000803e3d6000fd5b505050506040513d602081101561337f57600080fd5b5051905061339e84676765c793fa10079d601b1b63ffffffff61233b16565b81101561341c576133dc6133d783610b5b846133cb89676765c793fa10079d601b1b63ffffffff61233b16565b9063ffffffff61271116565b613237565b92506133f984676765c793fa10079d601b1b63ffffffff61233b16565b613409848463ffffffff61233b16565b106134145782613419565b826001015b92505b505092915050565b600081848411156134b35760405162461bcd60e51b81526004018080602001828103825283818151815260200191508051906020019080838360005b83811015613478578181015183820152602001613460565b50505050905090810190601f1680156134a55780820380516001836020036101000a031916815260200191505b509250505060405180910390fd5b505050900390565b6000546010546001600160a01b03909116906345e6bdcd906134dc84613237565b60000360006040518463ffffffff1660e01b8152600401808481526020018381526020018281526020019350505050600060405180830381600087803b15801561352557600080fd5b505af1158015613539573d6000803e3d6000fd5b505060008054601054604080516313771f0760e31b8152600481019290925230602483015260448201879052516001600160a01b039092169450639bb8f8389350606480820193929182900301818387803b15801561359757600080fd5b505af11580156135ab573d6000803e3d6000fd5b50506002546040805163ef693bed60e01b81523060048201526024810186905290516001600160a01b03909216935063ef693bed925060448082019260009290919082900301818387803b1580156108cb57600080fd5b600081836136515760405162461bcd60e51b8152602060048201818152835160248401528351909283926044909101919085019080838360008315613478578181015183820152602001613460565b50600083858161365d57fe5b0495945050505050565b613679826001600160a01b031661396c565b6136ca576040805162461bcd60e51b815260206004820152601f60248201527f5361666545524332303a2063616c6c20746f206e6f6e2d636f6e747261637400604482015290519081900360640190fd5b60006060836001600160a01b0316836040518082805190602001908083835b602083106137085780518252601f1990920191602091820191016136e9565b6001836020036101000a0380198251168184511680821785525050505050509050019150506000604051808303816000865af19150503d806000811461376a576040519150601f19603f3d011682016040523d82523d6000602084013e61376f565b606091505b5091509150816137c6576040805162461bcd60e51b815260206004820181905260248201527f5361666545524332303a206c6f772d6c6576656c2063616c6c206661696c6564604482015290519081900360640190fd5b805115610cfd578080602001905160208110156137e257600080fd5b5051610cfd5760405162461bcd60e51b815260040180806020018281038252602a8152602001806139ea602a913960400191505060405180910390fd5b60015460408051636cb1c69b60e11b8152644554482d4160d81b6004820152905160009283926001600160a01b039091169163d9638d369160248082019260a092909190829003018186803b15801561387757600080fd5b505afa15801561388b573d6000803e3d6000fd5b505050506040513d60a08110156138a157600080fd5b5060200151600154604080516309092f9760e21b8152644554482d4160d81b60048201526001600160a01b0387811660248301528251949550600094931692632424be5c92604480840193919291829003018186803b15801561390357600080fd5b505afa158015613917573d6000803e3d6000fd5b505050506040513d604081101561392d57600080fd5b5060200151905061394682868161394057fe5b04613237565b9250808311156139615761395981613237565b600003613419565b505060000392915050565b6000813f7fc5d2460186f7233c927e7db2dcc703c0e500b653ca82273b7bfad8045d85a4708181148015906139a057508115155b94935050505056fe000000000000000000000000c02aaa39b223fe8d0a0e5c4f27ead9083c756cc2536166654d6174683a206d756c7469706c69636174696f6e206f766572666c6f775361666545524332303a204552433230206f7065726174696f6e20646964206e6f742073756363656564a265627a7a72315820ffc8271fb465c051ee348e485955dfe117ad16ad6567677dcfa7b71c9c8cf18e64736f6c63430005110032",
  "source": "pragma solidity ^0.5.17;\n\nimport \"@openzeppelin/contracts/token/ERC20/IERC20.sol\";\nimport \"@openzeppelin/contracts/math/SafeMath.sol\";\nimport \"@openzeppelin/contracts/utils/Address.sol\";\nimport \"@openzeppelin/contracts/token/ERC20/SafeERC20.sol\";\n\nimport \"../../interfaces/maker/Maker.sol\";\nimport \"../../interfaces/uniswap/Uni.sol\";\n\nimport \"../../interfaces/yearn/IController.sol\";\nimport \"../../interfaces/yearn/IStrategy.sol\";\nimport \"../../interfaces/yearn/IVault.sol\";\n\ncontract StrategyMKRVaultDAIDelegate {\n    using SafeERC20 for IERC20;\n    using Address for address;\n    using SafeMath for uint256;\n\n    address public constant token = address(0xC02aaA39b223FE8D0A0e5C4F27eAD9083C756Cc2);\n    address public constant want = address(0xC02aaA39b223FE8D0A0e5C4F27eAD9083C756Cc2);\n    address public constant weth = address(0xC02aaA39b223FE8D0A0e5C4F27eAD9083C756Cc2);\n    address public constant dai = address(0x6B175474E89094C44Da98b954EedeAC495271d0F);\n\n    address public cdp_manager = address(0x5ef30b9986345249bc32d8928B7ee64DE9435E39);\n    address public vat = address(0x35D1b3F3D7966A1DFe207aa4514C12a259A0492B);\n    address public mcd_join_eth_a = address(0x2F0b23f53734252Bda2277357e97e1517d6B042A);\n    address public mcd_join_dai = address(0x9759A6Ac90977b93B58547b4A71c78317f391A28);\n    address public mcd_spot = address(0x65C79fcB50Ca1594B025960e539eD7A9a6D434A3);\n    address public jug = address(0x19c0976f590D67707E62397C87829d896Dc0f1F1);\n\n    address public eth_price_oracle = address(0xCF63089A8aD2a9D8BD6Bb8022f3190EB7e1eD0f1);\n    address public constant yVaultDAI = address(0xACd43E627e64355f1861cEC6d3a6688B31a6F952);\n\n    address public constant unirouter = address(0x7a250d5630B4cF539739dF2C5dAcb4c659F2488D);\n\n    uint256 public c = 20000;\n    uint256 public c_safe = 30000;\n    uint256 public constant c_base = 10000;\n\n    uint256 public performanceFee = 500;\n    uint256 public constant performanceMax = 10000;\n\n    uint256 public withdrawalFee = 50;\n    uint256 public constant withdrawalMax = 10000;\n\n    uint256 public strategistReward = 5000;\n    uint256 public constant strategistRewardMax = 10000;\n\n    bytes32 public constant ilk = \"ETH-A\";\n\n    address public governance;\n    address public controller;\n    address public strategist;\n    address public harvester;\n\n    uint256 public cdpId;\n\n    constructor(address _controller) public {\n        governance = msg.sender;\n        strategist = msg.sender;\n        harvester = msg.sender;\n        controller = _controller;\n        cdpId = ManagerLike(cdp_manager).open(ilk, address(this));\n        _approveAll();\n    }\n\n    function getName() external pure returns (string memory) {\n        return \"StrategyMKRVaultDAIDelegate\";\n    }\n\n    function setStrategist(address _strategist) external {\n        require(msg.sender == governance, \"!governance\");\n        strategist = _strategist;\n    }\n\n    function setHarvester(address _harvester) external {\n        require(msg.sender == harvester || msg.sender == governance, \"!allowed\");\n        harvester = _harvester;\n    }\n\n    function setWithdrawalFee(uint256 _withdrawalFee) external {\n        require(msg.sender == governance, \"!governance\");\n        withdrawalFee = _withdrawalFee;\n    }\n\n    function setPerformanceFee(uint256 _performanceFee) external {\n        require(msg.sender == governance, \"!governance\");\n        performanceFee = _performanceFee;\n    }\n\n    function setStrategistReward(uint256 _strategistReward) external {\n        require(msg.sender == governance, \"!governance\");\n        strategistReward = _strategistReward;\n    }\n\n    function setBorrowCollateralizationRatio(uint256 _c) external {\n        require(msg.sender == governance, \"!governance\");\n        c = _c;\n    }\n\n    function setWithdrawCollateralizationRatio(uint256 _c_safe) external {\n        require(msg.sender == governance, \"!governance\");\n        c_safe = _c_safe;\n    }\n\n    function setOracle(address _oracle) external {\n        require(msg.sender == governance, \"!governance\");\n        eth_price_oracle = _oracle;\n    }\n\n    // optional\n    function setMCDValue(\n        address _manager,\n        address _ethAdapter,\n        address _daiAdapter,\n        address _spot,\n        address _jug\n    ) external {\n        require(msg.sender == governance, \"!governance\");\n        cdp_manager = _manager;\n        vat = ManagerLike(_manager).vat();\n        mcd_join_eth_a = _ethAdapter;\n        mcd_join_dai = _daiAdapter;\n        mcd_spot = _spot;\n        jug = _jug;\n    }\n\n    function _approveAll() internal {\n        IERC20(token).approve(mcd_join_eth_a, uint256(-1));\n        IERC20(dai).approve(mcd_join_dai, uint256(-1));\n        IERC20(dai).approve(yVaultDAI, uint256(-1));\n        IERC20(dai).approve(unirouter, uint256(-1));\n    }\n\n    function deposit() public {\n        uint256 _token = IERC20(token).balanceOf(address(this));\n        if (_token > 0) {\n            uint256 p = _getPrice();\n            uint256 _draw = _token.mul(p).mul(c_base).div(c).div(1e18);\n            // approve adapter to use token amount\n            require(_checkDebtCeiling(_draw), \"debt ceiling is reached!\");\n            _lockWETHAndDrawDAI(_token, _draw);\n        }\n        // approve yVaultDAI use DAI\n        IVault(yVaultDAI).depositAll();\n    }\n\n    function _getPrice() internal view returns (uint256 p) {\n        (uint256 _read, ) = OSMedianizer(eth_price_oracle).read();\n        (uint256 _foresight, ) = OSMedianizer(eth_price_oracle).foresight();\n        p = _foresight < _read ? _foresight : _read;\n    }\n\n    function _checkDebtCeiling(uint256 _amt) internal view returns (bool) {\n        (, , , uint256 _line, ) = VatLike(vat).ilks(ilk);\n        uint256 _debt = getTotalDebtAmount().add(_amt);\n        if (_line.div(1e27) < _debt) {\n            return false;\n        }\n        return true;\n    }\n\n    function _lockWETHAndDrawDAI(uint256 wad, uint256 wadD) internal {\n        address urn = ManagerLike(cdp_manager).urns(cdpId);\n\n        // GemJoinLike(mcd_join_eth_a).gem().approve(mcd_join_eth_a, wad);\n        GemJoinLike(mcd_join_eth_a).join(urn, wad);\n        ManagerLike(cdp_manager).frob(cdpId, toInt(wad), _getDrawDart(urn, wadD));\n        ManagerLike(cdp_manager).move(cdpId, address(this), wadD.mul(1e27));\n        if (VatLike(vat).can(address(this), address(mcd_join_dai)) == 0) {\n            VatLike(vat).hope(mcd_join_dai);\n        }\n        DaiJoinLike(mcd_join_dai).exit(address(this), wadD);\n    }\n\n    function _getDrawDart(address urn, uint256 wad) internal returns (int256 dart) {\n        uint256 rate = JugLike(jug).drip(ilk);\n        uint256 _dai = VatLike(vat).dai(urn);\n\n        // If there was already enough DAI in the vat balance, just exits it without adding more debt\n        if (_dai < wad.mul(1e27)) {\n            dart = toInt(wad.mul(1e27).sub(_dai).div(rate));\n            dart = uint256(dart).mul(rate) < wad.mul(1e27) ? dart + 1 : dart;\n        }\n    }\n\n    function toInt(uint256 x) internal pure returns (int256 y) {\n        y = int256(x);\n        require(y >= 0, \"int-overflow\");\n    }\n\n    // Controller only function for creating additional rewards from dust\n    function withdraw(IERC20 _asset) external returns (uint256 balance) {\n        require(msg.sender == controller, \"!controller\");\n        require(want != address(_asset), \"want\");\n        require(dai != address(_asset), \"dai\");\n        require(yVaultDAI != address(_asset), \"ydai\");\n        balance = _asset.balanceOf(address(this));\n        _asset.safeTransfer(controller, balance);\n    }\n\n    // Withdraw partial funds, normally used with a vault withdrawal\n    function withdraw(uint256 _amount) external {\n        require(msg.sender == controller, \"!controller\");\n        uint256 _balance = IERC20(want).balanceOf(address(this));\n        if (_balance < _amount) {\n            _amount = _withdrawSome(_amount.sub(_balance));\n            _amount = _amount.add(_balance);\n        }\n\n        uint256 _fee = _amount.mul(withdrawalFee).div(withdrawalMax);\n\n        IERC20(want).safeTransfer(IController(controller).rewards(), _fee);\n        address _vault = IController(controller).vaults(address(want));\n        require(_vault != address(0), \"!vault\"); // additional protection so we don't burn the funds\n\n        IERC20(want).safeTransfer(_vault, _amount.sub(_fee));\n    }\n\n    function _withdrawSome(uint256 _amount) internal returns (uint256) {\n        if (getTotalDebtAmount() != 0 && getmVaultRatio(_amount) < c_safe.mul(1e2)) {\n            uint256 p = _getPrice();\n            _wipe(_withdrawDaiLeast(_amount.mul(p).div(1e18)));\n        }\n\n        _freeWETH(_amount);\n\n        return _amount;\n    }\n\n    function _freeWETH(uint256 wad) internal {\n        ManagerLike(cdp_manager).frob(cdpId, -toInt(wad), 0);\n        ManagerLike(cdp_manager).flux(cdpId, address(this), wad);\n        GemJoinLike(mcd_join_eth_a).exit(address(this), wad);\n    }\n\n    function _wipe(uint256 wad) internal {\n        // wad in DAI\n        address urn = ManagerLike(cdp_manager).urns(cdpId);\n\n        DaiJoinLike(mcd_join_dai).join(urn, wad);\n        ManagerLike(cdp_manager).frob(cdpId, 0, _getWipeDart(VatLike(vat).dai(urn), urn));\n    }\n\n    function _getWipeDart(uint256 _dai, address urn) internal view returns (int256 dart) {\n        (, uint256 rate, , , ) = VatLike(vat).ilks(ilk);\n        (, uint256 art) = VatLike(vat).urns(ilk, urn);\n\n        dart = toInt(_dai / rate);\n        dart = uint256(dart) <= art ? -dart : -toInt(art);\n    }\n\n    // Withdraw all funds, normally used when migrating strategies\n    function withdrawAll() external returns (uint256 balance) {\n        require(msg.sender == controller, \"!controller\");\n        _withdrawAll();\n\n        _swap(IERC20(dai).balanceOf(address(this)));\n        balance = IERC20(want).balanceOf(address(this));\n\n        address _vault = IController(controller).vaults(address(want));\n        require(_vault != address(0), \"!vault\"); // additional protection so we don't burn the funds\n        IERC20(want).safeTransfer(_vault, balance);\n    }\n\n    function _withdrawAll() internal {\n        IVault(yVaultDAI).withdrawAll(); // get Dai\n        _wipe(getTotalDebtAmount().add(1)); // in case of edge case\n        _freeWETH(balanceOfmVault());\n    }\n\n    function balanceOf() public view returns (uint256) {\n        return balanceOfWant().add(balanceOfmVault());\n    }\n\n    function balanceOfWant() public view returns (uint256) {\n        return IERC20(want).balanceOf(address(this));\n    }\n\n    function balanceOfmVault() public view returns (uint256) {\n        uint256 ink;\n        address urnHandler = ManagerLike(cdp_manager).urns(cdpId);\n        (ink, ) = VatLike(vat).urns(ilk, urnHandler);\n        return ink;\n    }\n\n    function harvest() public {\n        require(msg.sender == strategist || msg.sender == harvester || msg.sender == governance, \"!authorized\");\n\n        uint256 v = getUnderlyingDai();\n        uint256 d = getTotalDebtAmount();\n        require(v > d, \"profit is not realized yet!\");\n        uint256 profit = v.sub(d);\n\n        uint256 _before = IERC20(want).balanceOf(address(this));\n        _swap(_withdrawDaiMost(profit));\n        uint256 _after = IERC20(want).balanceOf(address(this));\n\n        uint256 _want = _after.sub(_before);\n        if (_want > 0) {\n            uint256 _fee = _want.mul(performanceFee).div(performanceMax);\n            uint256 _strategistReward = _fee.mul(strategistReward).div(strategistRewardMax);\n            IERC20(want).safeTransfer(strategist, _strategistReward);\n            IERC20(want).safeTransfer(IController(controller).rewards(), _fee.sub(_strategistReward));\n        }\n\n        deposit();\n    }\n\n    function shouldDraw() external view returns (bool) {\n        uint256 _safe = c.mul(1e2);\n        uint256 _current = getmVaultRatio(0);\n        if (_current > c_base.mul(c_safe).mul(1e2)) {\n            _current = c_base.mul(c_safe).mul(1e2);\n        }\n        return (_current > _safe);\n    }\n\n    function drawAmount() public view returns (uint256) {\n        uint256 _safe = c.mul(1e2);\n        uint256 _current = getmVaultRatio(0);\n        if (_current > c_base.mul(c_safe).mul(1e2)) {\n            _current = c_base.mul(c_safe).mul(1e2);\n        }\n        if (_current > _safe) {\n            uint256 _eth = balanceOfmVault();\n            uint256 _diff = _current.sub(_safe);\n            uint256 _draw = _eth.mul(_diff).div(_safe).mul(c_base).mul(1e2).div(_current);\n            return _draw.mul(_getPrice()).div(1e18);\n        }\n        return 0;\n    }\n\n    function draw() external {\n        uint256 _drawD = drawAmount();\n        if (_drawD > 0) {\n            _lockWETHAndDrawDAI(0, _drawD);\n            IVault(yVaultDAI).depositAll();\n        }\n    }\n\n    function shouldRepay() external view returns (bool) {\n        uint256 _safe = c.mul(1e2);\n        uint256 _current = getmVaultRatio(0);\n        _current = _current.mul(105).div(100); // 5% buffer to avoid deposit/rebalance loops\n        return (_current < _safe);\n    }\n\n    function repayAmount() public view returns (uint256) {\n        uint256 _safe = c.mul(1e2);\n        uint256 _current = getmVaultRatio(0);\n        _current = _current.mul(105).div(100); // 5% buffer to avoid deposit/rebalance loops\n        if (_current < _safe) {\n            uint256 d = getTotalDebtAmount();\n            uint256 diff = _safe.sub(_current);\n            return d.mul(diff).div(_safe);\n        }\n        return 0;\n    }\n\n    function repay() external {\n        uint256 free = repayAmount();\n        if (free > 0) {\n            _wipe(_withdrawDaiLeast(free));\n        }\n    }\n\n    function forceRebalance(uint256 _amount) external {\n        require(msg.sender == governance || msg.sender == strategist || msg.sender == harvester, \"!authorized\");\n        _wipe(_withdrawDaiLeast(_amount));\n    }\n\n    function getTotalDebtAmount() public view returns (uint256) {\n        uint256 art;\n        uint256 rate;\n        address urnHandler = ManagerLike(cdp_manager).urns(cdpId);\n        (, art) = VatLike(vat).urns(ilk, urnHandler);\n        (, rate, , , ) = VatLike(vat).ilks(ilk);\n        return art.mul(rate).div(1e27);\n    }\n\n    function getmVaultRatio(uint256 amount) public view returns (uint256) {\n        uint256 spot; // ray\n        uint256 liquidationRatio; // ray\n        uint256 denominator = getTotalDebtAmount();\n\n        if (denominator == 0) {\n            return uint256(-1);\n        }\n\n        (, , spot, , ) = VatLike(vat).ilks(ilk);\n        (, liquidationRatio) = SpotLike(mcd_spot).ilks(ilk);\n        uint256 delayedCPrice = spot.mul(liquidationRatio).div(1e27); // ray\n\n        uint256 _balance = balanceOfmVault();\n        if (_balance < amount) {\n            _balance = 0;\n        } else {\n            _balance = _balance.sub(amount);\n        }\n\n        uint256 numerator = _balance.mul(delayedCPrice).div(1e18); // ray\n        return numerator.div(denominator).div(1e3);\n    }\n\n    function getUnderlyingDai() public view returns (uint256) {\n        return IERC20(yVaultDAI).balanceOf(address(this)).mul(IVault(yVaultDAI).getPricePerFullShare()).div(1e18);\n    }\n\n    function _withdrawDaiMost(uint256 _amount) internal returns (uint256) {\n        uint256 _shares = _amount.mul(1e18).div(IVault(yVaultDAI).getPricePerFullShare());\n\n        if (_shares > IERC20(yVaultDAI).balanceOf(address(this))) {\n            _shares = IERC20(yVaultDAI).balanceOf(address(this));\n        }\n\n        uint256 _before = IERC20(dai).balanceOf(address(this));\n        IVault(yVaultDAI).withdraw(_shares);\n        uint256 _after = IERC20(dai).balanceOf(address(this));\n        return _after.sub(_before);\n    }\n\n    function _withdrawDaiLeast(uint256 _amount) internal returns (uint256) {\n        uint256 _shares = _amount.mul(1e18).div(IVault(yVaultDAI).getPricePerFullShare()).mul(withdrawalMax).div(\n            withdrawalMax.sub(withdrawalFee)\n        );\n\n        if (_shares > IERC20(yVaultDAI).balanceOf(address(this))) {\n            _shares = IERC20(yVaultDAI).balanceOf(address(this));\n        }\n\n        uint256 _before = IERC20(dai).balanceOf(address(this));\n        IVault(yVaultDAI).withdraw(_shares);\n        uint256 _after = IERC20(dai).balanceOf(address(this));\n        return _after.sub(_before);\n    }\n\n    function _swap(uint256 _amountIn) internal {\n        address[] memory path = new address[](2);\n        path[0] = address(dai);\n        path[1] = address(want);\n\n        // approve unirouter to use dai\n        Uni(unirouter).swapExactTokensForTokens(_amountIn, 0, path, address(this), now.add(1 days));\n    }\n\n    function setGovernance(address _governance) external {\n        require(msg.sender == governance, \"!governance\");\n        governance = _governance;\n    }\n\n    function setController(address _controller) external {\n        require(msg.sender == governance, \"!governance\");\n        controller = _controller;\n    }\n}\n",
  "sourcePath": "/Users/sbacha/yearn-protocol-nodejs/contracts/strategies/StrategyMKRVaultDAIDelegate.sol",
  "compiler": {
    "name": "solc",
    "version": "0.5.17+commit.d19bba13.Emscripten.clang"
  },
  "schemaVersion": "3.3.3",
  "updatedAt": "2021-01-01T09:28:49.180Z",
  "devdoc": {
    "methods": {}
  },
  "userdoc": {
    "methods": {}
  }
}