{
  "contractName": "StrategyUSDC3pool",
  "abi": [
    {
      "inputs": [
        {
          "internalType": "address",
          "name": "_controller",
          "type": "address"
        }
      ],
      "payable": false,
      "stateMutability": "nonpayable",
      "type": "constructor"
    },
    {
      "constant": true,
      "inputs": [],
      "name": "DENOMINATOR",
      "outputs": [
        {
          "internalType": "uint256",
          "name": "",
          "type": "uint256"
        }
      ],
      "payable": false,
      "stateMutability": "view",
      "type": "function"
    },
    {
      "constant": true,
      "inputs": [],
      "name": "_3crv",
      "outputs": [
        {
          "internalType": "address",
          "name": "",
          "type": "address"
        }
      ],
      "payable": false,
      "stateMutability": "view",
      "type": "function"
    },
    {
      "constant": true,
      "inputs": [],
      "name": "_3pool",
      "outputs": [
        {
          "internalType": "address",
          "name": "",
          "type": "address"
        }
      ],
      "payable": false,
      "stateMutability": "view",
      "type": "function"
    },
    {
      "constant": true,
      "inputs": [],
      "name": "controller",
      "outputs": [
        {
          "internalType": "address",
          "name": "",
          "type": "address"
        }
      ],
      "payable": false,
      "stateMutability": "view",
      "type": "function"
    },
    {
      "constant": true,
      "inputs": [],
      "name": "governance",
      "outputs": [
        {
          "internalType": "address",
          "name": "",
          "type": "address"
        }
      ],
      "payable": false,
      "stateMutability": "view",
      "type": "function"
    },
    {
      "constant": true,
      "inputs": [],
      "name": "p",
      "outputs": [
        {
          "internalType": "uint256",
          "name": "",
          "type": "uint256"
        }
      ],
      "payable": false,
      "stateMutability": "view",
      "type": "function"
    },
    {
      "constant": true,
      "inputs": [],
      "name": "slip",
      "outputs": [
        {
          "internalType": "uint256",
          "name": "",
          "type": "uint256"
        }
      ],
      "payable": false,
      "stateMutability": "view",
      "type": "function"
    },
    {
      "constant": true,
      "inputs": [],
      "name": "strategist",
      "outputs": [
        {
          "internalType": "address",
          "name": "",
          "type": "address"
        }
      ],
      "payable": false,
      "stateMutability": "view",
      "type": "function"
    },
    {
      "constant": true,
      "inputs": [],
      "name": "strategistReward",
      "outputs": [
        {
          "internalType": "uint256",
          "name": "",
          "type": "uint256"
        }
      ],
      "payable": false,
      "stateMutability": "view",
      "type": "function"
    },
    {
      "constant": true,
      "inputs": [],
      "name": "tank",
      "outputs": [
        {
          "internalType": "uint256",
          "name": "",
          "type": "uint256"
        }
      ],
      "payable": false,
      "stateMutability": "view",
      "type": "function"
    },
    {
      "constant": true,
      "inputs": [],
      "name": "threshold",
      "outputs": [
        {
          "internalType": "uint256",
          "name": "",
          "type": "uint256"
        }
      ],
      "payable": false,
      "stateMutability": "view",
      "type": "function"
    },
    {
      "constant": true,
      "inputs": [],
      "name": "treasuryFee",
      "outputs": [
        {
          "internalType": "uint256",
          "name": "",
          "type": "uint256"
        }
      ],
      "payable": false,
      "stateMutability": "view",
      "type": "function"
    },
    {
      "constant": true,
      "inputs": [],
      "name": "want",
      "outputs": [
        {
          "internalType": "address",
          "name": "",
          "type": "address"
        }
      ],
      "payable": false,
      "stateMutability": "view",
      "type": "function"
    },
    {
      "constant": true,
      "inputs": [],
      "name": "withdrawalFee",
      "outputs": [
        {
          "internalType": "uint256",
          "name": "",
          "type": "uint256"
        }
      ],
      "payable": false,
      "stateMutability": "view",
      "type": "function"
    },
    {
      "constant": true,
      "inputs": [],
      "name": "y3crv",
      "outputs": [
        {
          "internalType": "address",
          "name": "",
          "type": "address"
        }
      ],
      "payable": false,
      "stateMutability": "view",
      "type": "function"
    },
    {
      "constant": true,
      "inputs": [],
      "name": "getName",
      "outputs": [
        {
          "internalType": "string",
          "name": "",
          "type": "string"
        }
      ],
      "payable": false,
      "stateMutability": "pure",
      "type": "function"
    },
    {
      "constant": false,
      "inputs": [],
      "name": "deposit",
      "outputs": [],
      "payable": false,
      "stateMutability": "nonpayable",
      "type": "function"
    },
    {
      "constant": false,
      "inputs": [
        {
          "internalType": "uint256",
          "name": "_amount",
          "type": "uint256"
        }
      ],
      "name": "withdraw",
      "outputs": [],
      "payable": false,
      "stateMutability": "nonpayable",
      "type": "function"
    },
    {
      "constant": false,
      "inputs": [
        {
          "internalType": "contract IERC20",
          "name": "_asset",
          "type": "address"
        }
      ],
      "name": "withdraw",
      "outputs": [
        {
          "internalType": "uint256",
          "name": "balance",
          "type": "uint256"
        }
      ],
      "payable": false,
      "stateMutability": "nonpayable",
      "type": "function"
    },
    {
      "constant": false,
      "inputs": [],
      "name": "withdrawAll",
      "outputs": [
        {
          "internalType": "uint256",
          "name": "balance",
          "type": "uint256"
        }
      ],
      "payable": false,
      "stateMutability": "nonpayable",
      "type": "function"
    },
    {
      "constant": true,
      "inputs": [],
      "name": "balanceOfWant",
      "outputs": [
        {
          "internalType": "uint256",
          "name": "",
          "type": "uint256"
        }
      ],
      "payable": false,
      "stateMutability": "view",
      "type": "function"
    },
    {
      "constant": true,
      "inputs": [],
      "name": "balanceOf3CRV",
      "outputs": [
        {
          "internalType": "uint256",
          "name": "",
          "type": "uint256"
        }
      ],
      "payable": false,
      "stateMutability": "view",
      "type": "function"
    },
    {
      "constant": true,
      "inputs": [],
      "name": "balanceOf3CRVinWant",
      "outputs": [
        {
          "internalType": "uint256",
          "name": "",
          "type": "uint256"
        }
      ],
      "payable": false,
      "stateMutability": "view",
      "type": "function"
    },
    {
      "constant": true,
      "inputs": [],
      "name": "balanceOfy3CRV",
      "outputs": [
        {
          "internalType": "uint256",
          "name": "",
          "type": "uint256"
        }
      ],
      "payable": false,
      "stateMutability": "view",
      "type": "function"
    },
    {
      "constant": true,
      "inputs": [],
      "name": "balanceOfy3CRVin3CRV",
      "outputs": [
        {
          "internalType": "uint256",
          "name": "",
          "type": "uint256"
        }
      ],
      "payable": false,
      "stateMutability": "view",
      "type": "function"
    },
    {
      "constant": true,
      "inputs": [],
      "name": "balanceOfy3CRVinWant",
      "outputs": [
        {
          "internalType": "uint256",
          "name": "",
          "type": "uint256"
        }
      ],
      "payable": false,
      "stateMutability": "view",
      "type": "function"
    },
    {
      "constant": true,
      "inputs": [],
      "name": "balanceOf",
      "outputs": [
        {
          "internalType": "uint256",
          "name": "",
          "type": "uint256"
        }
      ],
      "payable": false,
      "stateMutability": "view",
      "type": "function"
    },
    {
      "constant": false,
      "inputs": [
        {
          "internalType": "address",
          "name": "_strategy",
          "type": "address"
        }
      ],
      "name": "migrate",
      "outputs": [],
      "payable": false,
      "stateMutability": "nonpayable",
      "type": "function"
    },
    {
      "constant": false,
      "inputs": [
        {
          "internalType": "uint256",
          "name": "_amount",
          "type": "uint256"
        }
      ],
      "name": "forceD",
      "outputs": [],
      "payable": false,
      "stateMutability": "nonpayable",
      "type": "function"
    },
    {
      "constant": false,
      "inputs": [
        {
          "internalType": "uint256",
          "name": "_amt",
          "type": "uint256"
        }
      ],
      "name": "forceW",
      "outputs": [],
      "payable": false,
      "stateMutability": "nonpayable",
      "type": "function"
    },
    {
      "constant": false,
      "inputs": [],
      "name": "drip",
      "outputs": [],
      "payable": false,
      "stateMutability": "nonpayable",
      "type": "function"
    },
    {
      "constant": true,
      "inputs": [],
      "name": "tick",
      "outputs": [
        {
          "internalType": "uint256",
          "name": "_t",
          "type": "uint256"
        },
        {
          "internalType": "uint256",
          "name": "_c",
          "type": "uint256"
        }
      ],
      "payable": false,
      "stateMutability": "view",
      "type": "function"
    },
    {
      "constant": false,
      "inputs": [],
      "name": "rebalance",
      "outputs": [],
      "payable": false,
      "stateMutability": "nonpayable",
      "type": "function"
    },
    {
      "constant": false,
      "inputs": [
        {
          "internalType": "address",
          "name": "_governance",
          "type": "address"
        }
      ],
      "name": "setGovernance",
      "outputs": [],
      "payable": false,
      "stateMutability": "nonpayable",
      "type": "function"
    },
    {
      "constant": false,
      "inputs": [
        {
          "internalType": "address",
          "name": "_controller",
          "type": "address"
        }
      ],
      "name": "setController",
      "outputs": [],
      "payable": false,
      "stateMutability": "nonpayable",
      "type": "function"
    },
    {
      "constant": false,
      "inputs": [
        {
          "internalType": "address",
          "name": "_strategist",
          "type": "address"
        }
      ],
      "name": "setStrategist",
      "outputs": [],
      "payable": false,
      "stateMutability": "nonpayable",
      "type": "function"
    },
    {
      "constant": false,
      "inputs": [
        {
          "internalType": "uint256",
          "name": "_withdrawalFee",
          "type": "uint256"
        }
      ],
      "name": "setWithdrawalFee",
      "outputs": [],
      "payable": false,
      "stateMutability": "nonpayable",
      "type": "function"
    },
    {
      "constant": false,
      "inputs": [
        {
          "internalType": "uint256",
          "name": "_treasuryFee",
          "type": "uint256"
        }
      ],
      "name": "setTreasuryFee",
      "outputs": [],
      "payable": false,
      "stateMutability": "nonpayable",
      "type": "function"
    },
    {
      "constant": false,
      "inputs": [
        {
          "internalType": "uint256",
          "name": "_strategistReward",
          "type": "uint256"
        }
      ],
      "name": "setStrategistReward",
      "outputs": [],
      "payable": false,
      "stateMutability": "nonpayable",
      "type": "function"
    },
    {
      "constant": false,
      "inputs": [
        {
          "internalType": "uint256",
          "name": "_threshold",
          "type": "uint256"
        }
      ],
      "name": "setThreshold",
      "outputs": [],
      "payable": false,
      "stateMutability": "nonpayable",
      "type": "function"
    },
    {
      "constant": false,
      "inputs": [
        {
          "internalType": "uint256",
          "name": "_slip",
          "type": "uint256"
        }
      ],
      "name": "setSlip",
      "outputs": [],
      "payable": false,
      "stateMutability": "nonpayable",
      "type": "function"
    }
  ],
  "bytecode": "0x60806040526101f46003556000600455603260055561177060065560646007556000600855600060095534801561003557600080fd5b506040516134893803806134898339818101604052602081101561005857600080fd5b505160008054336001600160a01b0319918216811783556002805483169091179055600180549091166001600160a01b03909316929092179091556133e69081906100a390396000f3fe608060405234801561001057600080fd5b50600436106102535760003560e01c80638158676e11610146578063ac24164e116100c3578063cc32d17611610087578063cc32d17614610539578063ce5494bb14610541578063cfc74cec14610567578063d0e30db01461056f578063da27550514610577578063f77c47911461059457610253565b8063ac24164e146104f3578063acd82931146104fb578063b7f01bfc14610503578063c1a3d44c1461050b578063c7b9d5301461051357610253565b8063960bfe041161010a578063960bfe04146104835780639ae8886a146104a05780639f678cca146104a8578063ab033ea9146104b0578063ac1e5025146104d657610253565b80638158676e1461043d578063853828b6146104455780638bc7e8c41461044d578063918f86741461045557806392eefe9b1461045d57610253565b80633eaf5d9f116101d45780635aa6e675116101985780635aa6e67514610400578063722713f71461040857806374637aaa1461041057806377e741c7146104185780637d7c2a1c1461043557610253565b80633eaf5d9f146103a157806341f9ae04146103c257806342cde4e8146103ca5780634580ea88146103d257806351cff8d9146103da57610253565b80631f1fcd511161021b5780631f1fcd51146103485780631fe4a6861461036c5780632e1a7d4d1461037457806330c2832314610391578063392c731f1461039957610253565b80630d596cdf1461025857806313b857b41461027757806313d8fdbc14610294578063168ee475146102b157806317d7de7c146102cb575b600080fd5b6102756004803603602081101561026e57600080fd5b503561059c565b005b6102756004803603602081101561028d57600080fd5b50356105ee565b610275600480360360208110156102aa57600080fd5b503561064d565b6102b9610a23565b60408051918252519081900360200190f35b6102d3610ac5565b6040805160208082528351818301528351919283929083019185019080838360005b8381101561030d5781810151838201526020016102f5565b50505050905090810190601f16801561033a5780820380516001836020036101000a031916815260200191505b509250505060405180910390f35b610350610af0565b604080516001600160a01b039092168252519081900360200190f35b610350610b02565b6102756004803603602081101561038a57600080fd5b5035610b11565b6102b9610e04565b6102b9610e84565b6103a9610e8a565b6040805192835260208301919091528051918290030190f35b6102b9610f37565b6102b9610fc3565b6102b9610fc9565b6102b9600480360360208110156103f057600080fd5b50356001600160a01b031661105a565b610350611242565b6102b9611251565b610350611272565b6102756004803603602081101561042e57600080fd5b5035611284565b6102756112d6565b6102b9611409565b6102b961140f565b6102b96115d2565b6102b96115d8565b6102756004803603602081101561047357600080fd5b50356001600160a01b03166115de565b6102756004803603602081101561049957600080fd5b503561164d565b6102b96116ac565b6102756116b2565b610275600480360360208110156104c657600080fd5b50356001600160a01b03166119d6565b610275600480360360208110156104ec57600080fd5b5035611a45565b610350611a97565b6102b9611aa9565b6102b9611af8565b6102b9611afe565b6102756004803603602081101561052957600080fd5b50356001600160a01b0316611b4d565b6102b9611bc9565b6102756004803603602081101561055757600080fd5b50356001600160a01b0316611bcf565b610350611eba565b610275611ecc565b6102756004803603602081101561058d57600080fd5b50356122bb565b6103506126d7565b6000546001600160a01b031633146105e9576040805162461bcd60e51b815260206004820152600b60248201526a21676f7665726e616e636560a81b604482015290519081900360640190fd5b600555565b6002546001600160a01b031633148061061157506000546001600160a01b031633145b610648576040805162461bcd60e51b815260206004820152600360248201526221736760e81b604482015290519081900360640190fd5b600755565b6000546001600160a01b031633148061067057506002546001600160a01b031633145b8061068557506001546001600160a01b031633145b8061068f57503330145b6106ce576040805162461bcd60e51b815260206004820152600b60248201526a08585d5d1a1bdc9a5e995960aa1b604482015290519081900360640190fd5b6106fc6000805160206132f2833981519152600080516020613312833981519152600063ffffffff6126e616565b6107296000805160206132f28339815191526000805160206133128339815191528363ffffffff6126e616565b60006107ca6000805160206133128339815191526001600160a01b031663bb7b8b806040518163ffffffff1660e01b815260040160206040518083038186803b15801561077557600080fd5b505afa158015610789573d6000803e3d6000fd5b505050506040513d602081101561079f57600080fd5b50516107be846c0c9f2c9cd04674edea4000000063ffffffff6127fe16565b9063ffffffff61286016565b90506000805160206133128339815191526001600160a01b0316634515cef360405180606001604052806000815260200185815260200160008152506108336127106107be6108266007546127106128a290919063ffffffff16565b879063ffffffff6127fe16565b6040516001600160e01b031960e085901b1681526004018083606080838360005b8381101561086c578181015183820152602001610854565b5050505090500182815260200192505050600060405180830381600087803b15801561089757600080fd5b505af11580156108ab573d6000803e3d6000fd5b505050506008548210156108d4576008546108cc908363ffffffff6128a216565b6008556108da565b60006008555b604080516370a0823160e01b815230600482015290516000916000805160206132b1833981519152916370a0823191602480820192602092909190829003018186803b15801561092957600080fd5b505afa15801561093d573d6000803e3d6000fd5b505050506040513d602081101561095357600080fd5b505190506109856000805160206132b183398151915260008051602061335c833981519152600063ffffffff6126e616565b6109b26000805160206132b183398151915260008051602061335c8339815191528363ffffffff6126e616565b60008051602061335c8339815191526001600160a01b031663b6b55f25826040518263ffffffff1660e01b815260040180828152602001915050600060405180830381600087803b158015610a0657600080fd5b505af1158015610a1a573d6000803e3d6000fd5b50505050505050565b6000610ac06c0c9f2c9cd04674edea400000006107be6000805160206133128339815191526001600160a01b031663bb7b8b806040518163ffffffff1660e01b815260040160206040518083038186803b158015610a8057600080fd5b505afa158015610a94573d6000803e3d6000fd5b505050506040513d6020811015610aaa57600080fd5b5051610ab4610f37565b9063ffffffff6127fe16565b905090565b60408051808201909152601181527014dd1c985d1959de5554d110ccdc1bdbdb607a1b602082015290565b6000805160206132f283398151915281565b6002546001600160a01b031681565b6001546001600160a01b03163314610b5e576040805162461bcd60e51b815260206004820152600b60248201526a10b1b7b73a3937b63632b960a91b604482015290519081900360640190fd5b610b666112d6565b604080516370a0823160e01b815230600482015290516000916000805160206132f2833981519152916370a0823191602480820192602092909190829003018186803b158015610bb557600080fd5b505afa158015610bc9573d6000803e3d6000fd5b505050506040513d6020811015610bdf57600080fd5b5051905081811015610c2157610c03610bfe838363ffffffff6128a216565b6128e4565b9150610c15828263ffffffff612b9116565b60006008559150610c4b565b8160085410610c4557600854610c3d908363ffffffff6128a216565b600855610c4b565b60006008555b60015460408051632988bb9f60e21b81526000805160206132f2833981519152600482015290516000926001600160a01b03169163a622ee7c916024808301926020929190829003018186803b158015610ca457600080fd5b505afa158015610cb8573d6000803e3d6000fd5b505050506040513d6020811015610cce57600080fd5b505190506001600160a01b038116610d16576040805162461bcd60e51b8152602060048201526006602482015265085d985d5b1d60d21b604482015290519081900360640190fd5b6000610d336127106107be600454876127fe90919063ffffffff16565b9050610dce600160009054906101000a90046001600160a01b03166001600160a01b0316639ec5a8946040518163ffffffff1660e01b815260040160206040518083038186803b158015610d8657600080fd5b505afa158015610d9a573d6000803e3d6000fd5b505050506040513d6020811015610db057600080fd5b50516000805160206132f2833981519152908363ffffffff612beb16565b610dfe82610de2868463ffffffff6128a216565b6000805160206132f2833981519152919063ffffffff612beb16565b50505050565b604080516370a0823160e01b8152306004820152905160009160008051602061335c833981519152916370a0823191602480820192602092909190829003018186803b158015610e5357600080fd5b505afa158015610e67573d6000803e3d6000fd5b505050506040513d6020811015610e7d57600080fd5b5051905090565b60075481565b600080610f276127106107be6006546000805160206133128339815191526001600160a01b031663065a80d860016040518263ffffffff1660e01b81526004018082600f0b815260200191505060206040518083038186803b158015610eef57600080fd5b505afa158015610f03573d6000803e3d6000fd5b505050506040513d6020811015610f1957600080fd5b50519063ffffffff6127fe16565b9150610f31610a23565b90509091565b6000610ac0670de0b6b3a76400006107be60008051602061335c8339815191526001600160a01b03166377c7b8fc6040518163ffffffff1660e01b815260040160206040518083038186803b158015610f8f57600080fd5b505afa158015610fa3573d6000803e3d6000fd5b505050506040513d6020811015610fb957600080fd5b5051610ab4610e04565b60065481565b6000610ac06c0c9f2c9cd04674edea400000006107be6000805160206133128339815191526001600160a01b031663bb7b8b806040518163ffffffff1660e01b815260040160206040518083038186803b15801561102657600080fd5b505afa15801561103a573d6000803e3d6000fd5b505050506040513d602081101561105057600080fd5b5051610ab4611aa9565b6001546000906001600160a01b031633146110aa576040805162461bcd60e51b815260206004820152600b60248201526a10b1b7b73a3937b63632b960a91b604482015290519081900360640190fd5b6000805160206132f28339815191526001600160a01b03831614156110ff576040805162461bcd60e51b815260206004808301919091526024820152631dd85b9d60e21b604482015290519081900360640190fd5b6000805160206132b18339815191526001600160a01b0383161415611154576040805162461bcd60e51b8152602060048083019190915260248201526319b1b93b60e11b604482015290519081900360640190fd5b60008051602061335c8339815191526001600160a01b03831614156111a8576040805162461bcd60e51b81526020600482015260056024820152643c99b1b93b60d91b604482015290519081900360640190fd5b604080516370a0823160e01b815230600482015290516001600160a01b038416916370a08231916024808301926020929190829003018186803b1580156111ee57600080fd5b505afa158015611202573d6000803e3d6000fd5b505050506040513d602081101561121857600080fd5b505160015490915061123d906001600160a01b0384811691168363ffffffff612beb16565b919050565b6000546001600160a01b031681565b6000610ac061125e610a23565b611266611afe565b9063ffffffff612b9116565b60008051602061335c83398151915281565b6000546001600160a01b031633146112d1576040805162461bcd60e51b815260206004820152600b60248201526a21676f7665726e616e636560a81b604482015290519081900360640190fd5b600355565b6000546001600160a01b03163314806112f957506002546001600160a01b031633145b8061130e57506001546001600160a01b031633145b8061131857503330145b611357576040805162461bcd60e51b815260206004820152600b60248201526a08585d5d1a1bdc9a5e995960aa1b604482015290519081900360640190fd5b61135f6116b2565b60008061136a610e8a565b915091508181111561140557611389610bfe828463ffffffff6128a216565b50604080516370a0823160e01b815230600482015290516000805160206132f2833981519152916370a08231916024808301926020929190829003018186803b1580156113d557600080fd5b505afa1580156113e9573d6000803e3d6000fd5b505050506040513d60208110156113ff57600080fd5b50516008555b5050565b60055481565b6001546000906001600160a01b0316331461145f576040805162461bcd60e51b815260206004820152600b60248201526a10b1b7b73a3937b63632b960a91b604482015290519081900360640190fd5b611467612c3d565b604080516370a0823160e01b815230600482015290516000805160206132f2833981519152916370a08231916024808301926020929190829003018186803b1580156114b257600080fd5b505afa1580156114c6573d6000803e3d6000fd5b505050506040513d60208110156114dc57600080fd5b505160015460408051632988bb9f60e21b81526000805160206132f2833981519152600482015290519293506000926001600160a01b039092169163a622ee7c91602480820192602092909190829003018186803b15801561153d57600080fd5b505afa158015611551573d6000803e3d6000fd5b505050506040513d602081101561156757600080fd5b505190506001600160a01b0381166115af576040805162461bcd60e51b8152602060048201526006602482015265085d985d5b1d60d21b604482015290519081900360640190fd5b6115ce6000805160206132f2833981519152828463ffffffff612beb16565b5090565b60045481565b61271081565b6000546001600160a01b0316331461162b576040805162461bcd60e51b815260206004820152600b60248201526a21676f7665726e616e636560a81b604482015290519081900360640190fd5b600180546001600160a01b0319166001600160a01b0392909216919091179055565b6002546001600160a01b031633148061167057506000546001600160a01b031633145b6116a7576040805162461bcd60e51b815260206004820152600360248201526221736760e81b604482015290519081900360640190fd5b600655565b60095481565b6000546001600160a01b03163314806116d557506002546001600160a01b031633145b806116ea57506001546001600160a01b031633145b806116f457503330145b611733576040805162461bcd60e51b815260206004820152600b60248201526a08585d5d1a1bdc9a5e995960aa1b604482015290519081900360640190fd5b600060008051602061335c8339815191526001600160a01b03166377c7b8fc6040518163ffffffff1660e01b815260040160206040518083038186803b15801561177c57600080fd5b505afa158015611790573d6000803e3d6000fd5b505050506040513d60208110156117a657600080fd5b505160408051630176f71760e71b8152905191925061183b91670de0b6b3a7640000916107be916000805160206133128339815191529163bb7b8b80916004808301926020929190829003018186803b15801561180257600080fd5b505afa158015611816573d6000803e3d6000fd5b505050506040513d602081101561182c57600080fd5b5051849063ffffffff6127fe16565b905060095481101561187f576040805162461bcd60e51b8152602060048201526008602482015267189858daddd85c9960c21b604482015290519081900360640190fd5b60006118ac670de0b6b3a76400006107be611898610e04565b600954610ab490879063ffffffff6128a216565b905060006118cb6127106107be600554856127fe90919063ffffffff16565b600254909150611916906001600160a01b03166118fa856107be85670de0b6b3a764000063ffffffff6127fe16565b60008051602061335c833981519152919063ffffffff612beb16565b60006119336127106107be600354866127fe90919063ffffffff16565b90506119ce600160009054906101000a90046001600160a01b03166001600160a01b0316639ec5a8946040518163ffffffff1660e01b815260040160206040518083038186803b15801561198657600080fd5b505afa15801561199a573d6000803e3d6000fd5b505050506040513d60208110156119b057600080fd5b50516118fa866107be85670de0b6b3a764000063ffffffff6127fe16565b505050600955565b6000546001600160a01b03163314611a23576040805162461bcd60e51b815260206004820152600b60248201526a21676f7665726e616e636560a81b604482015290519081900360640190fd5b600080546001600160a01b0319166001600160a01b0392909216919091179055565b6000546001600160a01b03163314611a92576040805162461bcd60e51b815260206004820152600b60248201526a21676f7665726e616e636560a81b604482015290519081900360640190fd5b600455565b60008051602061331283398151915281565b604080516370a0823160e01b815230600482015290516000916000805160206132b1833981519152916370a0823191602480820192602092909190829003018186803b158015610e5357600080fd5b60085481565b604080516370a0823160e01b815230600482015290516000916000805160206132f2833981519152916370a0823191602480820192602092909190829003018186803b158015610e5357600080fd5b6000546001600160a01b0316331480611b7057506002546001600160a01b031633145b611ba7576040805162461bcd60e51b815260206004820152600360248201526221677360e81b604482015290519081900360640190fd5b600280546001600160a01b0319166001600160a01b0392909216919091179055565b60035481565b6000546001600160a01b03163314611c1c576040805162461bcd60e51b815260206004820152600b60248201526a21676f7665726e616e636560a81b604482015290519081900360640190fd5b600154604080516350abc5b560e11b81526000805160206132f283398151915260048201526001600160a01b0384811660248301529151919092169163a1578b6a916044808301926020929190829003018186803b158015611c7d57600080fd5b505afa158015611c91573d6000803e3d6000fd5b505050506040513d6020811015611ca757600080fd5b5051611cec576040805162461bcd60e51b815260206004820152600f60248201526e085cdd185d1959de505b1b1bddd959608a1b604482015290519081900360640190fd5b604080516370a0823160e01b81523060048201529051611d8591839160008051602061335c833981519152916370a08231916024808301926020929190829003018186803b158015611d3d57600080fd5b505afa158015611d51573d6000803e3d6000fd5b505050506040513d6020811015611d6757600080fd5b505160008051602061335c833981519152919063ffffffff612beb16565b604080516370a0823160e01b81523060048201529051611e1e9183916000805160206132b1833981519152916370a08231916024808301926020929190829003018186803b158015611dd657600080fd5b505afa158015611dea573d6000803e3d6000fd5b505050506040513d6020811015611e0057600080fd5b50516000805160206132b1833981519152919063ffffffff612beb16565b604080516370a0823160e01b81523060048201529051611eb79183916000805160206132f2833981519152916370a08231916024808301926020929190829003018186803b158015611e6f57600080fd5b505afa158015611e83573d6000803e3d6000fd5b505050506040513d6020811015611e9957600080fd5b50516000805160206132f2833981519152919063ffffffff612beb16565b50565b6000805160206132b183398151915281565b6000546001600160a01b0316331480611eef57506002546001600160a01b031633145b80611f0457506001546001600160a01b031633145b80611f0e57503330145b611f4d576040805162461bcd60e51b815260206004820152600b60248201526a08585d5d1a1bdc9a5e995960aa1b604482015290519081900360640190fd5b611f556112d6565b600854604080516370a0823160e01b81523060048201529051600092611fe49290916000805160206132f2833981519152916370a08231916024808301926020929190829003018186803b158015611fac57600080fd5b505afa158015611fc0573d6000803e3d6000fd5b505050506040513d6020811015611fd657600080fd5b50519063ffffffff6128a216565b9050801561216d5761201a6000805160206132f2833981519152600080516020613312833981519152600063ffffffff6126e616565b6120476000805160206132f28339815191526000805160206133128339815191528363ffffffff6126e616565b60006120936000805160206133128339815191526001600160a01b031663bb7b8b806040518163ffffffff1660e01b815260040160206040518083038186803b15801561077557600080fd5b90506000805160206133128339815191526001600160a01b0316634515cef360405180606001604052806000815260200185815260200160008152506120ef6127106107be6108266007546127106128a290919063ffffffff16565b6040516001600160e01b031960e085901b1681526004018083606080838360005b83811015612128578181015183820152602001612110565b5050505090500182815260200192505050600060405180830381600087803b15801561215357600080fd5b505af1158015612167573d6000803e3d6000fd5b50505050505b604080516370a0823160e01b815230600482015290516000916000805160206132b1833981519152916370a0823191602480820192602092909190829003018186803b1580156121bc57600080fd5b505afa1580156121d0573d6000803e3d6000fd5b505050506040513d60208110156121e657600080fd5b5051905080156114055761221e6000805160206132b183398151915260008051602061335c833981519152600063ffffffff6126e616565b61224b6000805160206132b183398151915260008051602061335c8339815191528363ffffffff6126e616565b60008051602061335c8339815191526001600160a01b031663b6b55f25826040518263ffffffff1660e01b815260040180828152602001915050600060405180830381600087803b15801561229f57600080fd5b505af11580156122b3573d6000803e3d6000fd5b505050505050565b6000546001600160a01b03163314806122de57506002546001600160a01b031633145b806122f357506001546001600160a01b031633145b806122fd57503330145b61233c576040805162461bcd60e51b815260206004820152600b60248201526a08585d5d1a1bdc9a5e995960aa1b604482015290519081900360640190fd5b604080516370a0823160e01b815230600482015290516000916000805160206132b1833981519152916370a0823191602480820192602092909190829003018186803b15801561238b57600080fd5b505afa15801561239f573d6000803e3d6000fd5b505050506040513d60208110156123b557600080fd5b505160408051632e1a7d4d60e01b815260048101859052905191925060008051602061335c83398151915291632e1a7d4d9160248082019260009290919082900301818387803b15801561240857600080fd5b505af115801561241c573d6000803e3d6000fd5b5050604080516370a0823160e01b81523060048201529051600093506000805160206132b183398151915292506370a0823191602480820192602092909190829003018186803b15801561246f57600080fd5b505afa158015612483573d6000803e3d6000fd5b505050506040513d602081101561249957600080fd5b505190506124ad818363ffffffff6128a216565b92506124dd6000805160206132b1833981519152600080516020613312833981519152600063ffffffff6126e616565b61250a6000805160206132b18339815191526000805160206133128339815191528563ffffffff6126e616565b604080516370a0823160e01b815230600482015290516000805160206132f2833981519152916370a08231916024808301926020929190829003018186803b15801561255557600080fd5b505afa158015612569573d6000803e3d6000fd5b505050506040513d602081101561257f57600080fd5b505160075490925060008051602061331283398151915290631a4d01d29085906001906125d59064e8d4a51000906107be906127109082906125c890839063ffffffff6128a216565b8c9063ffffffff6127fe16565b6040518463ffffffff1660e01b81526004018084815260200183600f0b81526020018281526020019350505050600060405180830381600087803b15801561261c57600080fd5b505af1158015612630573d6000803e3d6000fd5b5050604080516370a0823160e01b815230600482015290516000805160206132f283398151915293506370a0823192506024808301926020929190829003018186803b15801561267f57600080fd5b505afa158015612693573d6000803e3d6000fd5b505050506040513d60208110156126a957600080fd5b505190506126cf6126c0828463ffffffff6128a216565b6008549063ffffffff612b9116565b600855505050565b6001546001600160a01b031681565b80158061276c575060408051636eb1769f60e11b81523060048201526001600160a01b03848116602483015291519185169163dd62ed3e91604480820192602092909190829003018186803b15801561273e57600080fd5b505afa158015612752573d6000803e3d6000fd5b505050506040513d602081101561276857600080fd5b5051155b6127a75760405162461bcd60e51b815260040180806020018281038252603681526020018061337c6036913960400191505060405180910390fd5b604080516001600160a01b038416602482015260448082018490528251808303909101815260649091019091526020810180516001600160e01b031663095ea7b360e01b1790526127f9908490612dad565b505050565b60008261280d5750600061285a565b8282028284828161281a57fe5b04146128575760405162461bcd60e51b81526004018080602001828103825260218152602001806132d16021913960400191505060405180910390fd5b90505b92915050565b600061285783836040518060400160405280601a81526020017f536166654d6174683a206469766973696f6e206279207a65726f000000000000815250612f65565b600061285783836040518060400160405280601e81526020017f536166654d6174683a207375627472616374696f6e206f766572666c6f770000815250613007565b60008061297a6000805160206133128339815191526001600160a01b031663bb7b8b806040518163ffffffff1660e01b815260040160206040518083038186803b15801561293157600080fd5b505afa158015612945573d6000803e3d6000fd5b505050506040513d602081101561295b57600080fd5b50516107be856c0c9f2c9cd04674edea4000000063ffffffff6127fe16565b90506000612a0c60008051602061335c8339815191526001600160a01b03166377c7b8fc6040518163ffffffff1660e01b815260040160206040518083038186803b1580156129c857600080fd5b505afa1580156129dc573d6000803e3d6000fd5b505050506040513d60208110156129f257600080fd5b50516107be84670de0b6b3a764000063ffffffff6127fe16565b604080516370a0823160e01b815230600482015290519192506000916000805160206132b1833981519152916370a08231916024808301926020929190829003018186803b158015612a5d57600080fd5b505afa158015612a71573d6000803e3d6000fd5b505050506040513d6020811015612a8757600080fd5b505160408051632e1a7d4d60e01b815260048101859052905191925060008051602061335c83398151915291632e1a7d4d9160248082019260009290919082900301818387803b158015612ada57600080fd5b505af1158015612aee573d6000803e3d6000fd5b5050604080516370a0823160e01b81523060048201529051600093506000805160206132b183398151915292506370a0823191602480820192602092909190829003018186803b158015612b4157600080fd5b505afa158015612b55573d6000803e3d6000fd5b505050506040513d6020811015612b6b57600080fd5b50519050612b87612b82828463ffffffff6128a216565b613061565b9695505050505050565b600082820183811015612857576040805162461bcd60e51b815260206004820152601b60248201527f536166654d6174683a206164646974696f6e206f766572666c6f770000000000604482015290519081900360640190fd5b604080516001600160a01b038416602482015260448082018490528251808303909101815260649091019091526020810180516001600160e01b031663a9059cbb60e01b1790526127f9908490612dad565b604080516370a0823160e01b8152306004820152905160009160008051602061335c833981519152916370a0823191602480820192602092909190829003018186803b158015612c8c57600080fd5b505afa158015612ca0573d6000803e3d6000fd5b505050506040513d6020811015612cb657600080fd5b505190508015611eb75760008051602061335c8339815191526001600160a01b0316632e1a7d4d826040518263ffffffff1660e01b815260040180828152602001915050600060405180830381600087803b158015612d1457600080fd5b505af1158015612d28573d6000803e3d6000fd5b5050604080516370a0823160e01b8152306004820152905161140593506000805160206132b183398151915292506370a0823191602480820192602092909190829003018186803b158015612d7c57600080fd5b505afa158015612d90573d6000803e3d6000fd5b505050506040513d6020811015612da657600080fd5b5051613061565b612dbf826001600160a01b0316613277565b612e10576040805162461bcd60e51b815260206004820152601f60248201527f5361666545524332303a2063616c6c20746f206e6f6e2d636f6e747261637400604482015290519081900360640190fd5b60006060836001600160a01b0316836040518082805190602001908083835b60208310612e4e5780518252601f199092019160209182019101612e2f565b6001836020036101000a0380198251168184511680821785525050505050509050019150506000604051808303816000865af19150503d8060008114612eb0576040519150601f19603f3d011682016040523d82523d6000602084013e612eb5565b606091505b509150915081612f0c576040805162461bcd60e51b815260206004820181905260248201527f5361666545524332303a206c6f772d6c6576656c2063616c6c206661696c6564604482015290519081900360640190fd5b805115610dfe57808060200190516020811015612f2857600080fd5b5051610dfe5760405162461bcd60e51b815260040180806020018281038252602a815260200180613332602a913960400191505060405180910390fd5b60008183612ff15760405162461bcd60e51b81526004018080602001828103825283818151815260200191508051906020019080838360005b83811015612fb6578181015183820152602001612f9e565b50505050905090810190601f168015612fe35780820380516001836020036101000a031916815260200191505b509250505060405180910390fd5b506000838581612ffd57fe5b0495945050505050565b600081848411156130595760405162461bcd60e51b8152602060048201818152835160248401528351909283926044909101919085019080838360008315612fb6578181015183820152602001612f9e565b505050900390565b604080516370a0823160e01b8152306004820152905160009182916000805160206132f2833981519152916370a08231916024808301926020929190829003018186803b1580156130b157600080fd5b505afa1580156130c5573d6000803e3d6000fd5b505050506040513d60208110156130db57600080fd5b5051905061310d6000805160206132b1833981519152600080516020613312833981519152600063ffffffff6126e616565b61313a6000805160206132b18339815191526000805160206133128339815191528563ffffffff6126e616565b6000805160206133128339815191526001600160a01b0316631a4d01d284600161318364e8d4a510006107be6127106107be6125c86007546127106128a290919063ffffffff16565b6040518463ffffffff1660e01b81526004018084815260200183600f0b81526020018281526020019350505050600060405180830381600087803b1580156131ca57600080fd5b505af11580156131de573d6000803e3d6000fd5b5050604080516370a0823160e01b81523060048201529051600093506000805160206132f283398151915292506370a0823191602480820192602092909190829003018186803b15801561323157600080fd5b505afa158015613245573d6000803e3d6000fd5b505050506040513d602081101561325b57600080fd5b5051905061326f818363ffffffff6128a216565b949350505050565b6000813f7fc5d2460186f7233c927e7db2dcc703c0e500b653ca82273b7bfad8045d85a47081811480159061326f57505015159291505056fe0000000000000000000000006c3f90f043a72fa612cbac8115ee7e52bde6e490536166654d6174683a206d756c7469706c69636174696f6e206f766572666c6f77000000000000000000000000a0b86991c6218b36c1d19d4a2e9eb0ce3606eb48000000000000000000000000bebc44782c7db0a1a60cb6fe97d0b483032ff1c75361666545524332303a204552433230206f7065726174696f6e20646964206e6f7420737563636565640000000000000000000000009ca85572e6a3ebf24dedd195623f188735a5179f5361666545524332303a20617070726f76652066726f6d206e6f6e2d7a65726f20746f206e6f6e2d7a65726f20616c6c6f77616e6365a265627a7a72315820acfce795d17c176a31e66674389e50676c1a300e3e14de55585486c46ee62d5b64736f6c63430005110032",
  "source": "pragma solidity ^0.5.17;\n\nimport \"@openzeppelin/contracts/token/ERC20/IERC20.sol\";\nimport \"@openzeppelin/contracts/math/SafeMath.sol\";\nimport \"@openzeppelin/contracts/utils/Address.sol\";\nimport \"@openzeppelin/contracts/token/ERC20/SafeERC20.sol\";\n\nimport \"../../interfaces/yearn/IController.sol\";\nimport \"../../interfaces/curve/Curve.sol\";\n\ninterface yvERC20 {\n    function deposit(uint256) external;\n\n    function withdraw(uint256) external;\n\n    function getPricePerFullShare() external view returns (uint256);\n}\n\n/*\n\n A strategy must implement the following calls;\n \n - deposit()\n - withdraw(address) must exclude any tokens used in the yield - Controller role - withdraw should return to Controller\n - withdraw(uint) - Controller | Vault role - withdraw should always return to vault\n - withdrawAll() - Controller | Vault role - withdraw should always return to vault\n - balanceOf()\n \n Where possible, strategies must remain as immutable as possible, instead of updating variables, we update the contract by linking it in the controller\n \n*/\n\ncontract StrategyUSDC3pool {\n    using SafeERC20 for IERC20;\n    using Address for address;\n    using SafeMath for uint256;\n\n    address public constant want = address(0xA0b86991c6218b36c1d19D4a2e9Eb0cE3606eB48);\n    address public constant _3pool = address(0xbEbc44782C7dB0a1A60Cb6fe97d0b483032FF1C7);\n    address public constant _3crv = address(0x6c3F90f043a72FA612cbac8115EE7e52BDe6E490);\n    address public constant y3crv = address(0x9cA85572E6A3EbF24dEDd195623F188735A5179f);\n\n    address public governance;\n    address public controller;\n    address public strategist;\n\n    uint256 public constant DENOMINATOR = 10000;\n    uint256 public treasuryFee = 500;\n    uint256 public withdrawalFee = 0;\n    uint256 public strategistReward = 50;\n    uint256 public threshold = 6000;\n    uint256 public slip = 100;\n    uint256 public tank = 0;\n    uint256 public p = 0;\n\n    modifier isAuthorized() {\n        require(msg.sender == governance || msg.sender == strategist || msg.sender == controller || msg.sender == address(this), \"!authorized\");\n        _;\n    }\n\n    constructor(address _controller) public {\n        governance = msg.sender;\n        strategist = msg.sender;\n        controller = _controller;\n    }\n\n    function getName() external pure returns (string memory) {\n        return \"StrategyUSDC3pool\";\n    }\n\n    function deposit() public isAuthorized {\n        rebalance();\n        uint256 _want = (IERC20(want).balanceOf(address(this))).sub(tank);\n        if (_want > 0) {\n            IERC20(want).safeApprove(_3pool, 0);\n            IERC20(want).safeApprove(_3pool, _want);\n            uint256 v = _want.mul(1e30).div(ICurveFi(_3pool).get_virtual_price());\n            ICurveFi(_3pool).add_liquidity([0, _want, 0], v.mul(DENOMINATOR.sub(slip)).div(DENOMINATOR));\n        }\n        uint256 _bal = IERC20(_3crv).balanceOf(address(this));\n        if (_bal > 0) {\n            IERC20(_3crv).safeApprove(y3crv, 0);\n            IERC20(_3crv).safeApprove(y3crv, _bal);\n            yvERC20(y3crv).deposit(_bal);\n        }\n    }\n\n    // Controller only function for creating additional rewards from dust\n    function withdraw(IERC20 _asset) external returns (uint256 balance) {\n        require(msg.sender == controller, \"!controller\");\n        require(want != address(_asset), \"want\");\n        require(_3crv != address(_asset), \"3crv\");\n        require(y3crv != address(_asset), \"y3crv\");\n        balance = _asset.balanceOf(address(this));\n        _asset.safeTransfer(controller, balance);\n    }\n\n    // Withdraw partial funds, normally used with a vault withdrawal\n    function withdraw(uint256 _amount) external {\n        require(msg.sender == controller, \"!controller\");\n\n        rebalance();\n        uint256 _balance = IERC20(want).balanceOf(address(this));\n        if (_balance < _amount) {\n            _amount = _withdrawSome(_amount.sub(_balance));\n            _amount = _amount.add(_balance);\n            tank = 0;\n        } else {\n            if (tank >= _amount) tank = tank.sub(_amount);\n            else tank = 0;\n        }\n\n        address _vault = IController(controller).vaults(address(want));\n        require(_vault != address(0), \"!vault\"); // additional protection so we don't burn the funds\n        uint256 _fee = _amount.mul(withdrawalFee).div(DENOMINATOR);\n        IERC20(want).safeTransfer(IController(controller).rewards(), _fee);\n        IERC20(want).safeTransfer(_vault, _amount.sub(_fee));\n    }\n\n    function _withdrawSome(uint256 _amount) internal returns (uint256) {\n        uint256 _amnt = _amount.mul(1e30).div(ICurveFi(_3pool).get_virtual_price());\n        uint256 _amt = _amnt.mul(1e18).div(yvERC20(y3crv).getPricePerFullShare());\n        uint256 _before = IERC20(_3crv).balanceOf(address(this));\n        yvERC20(y3crv).withdraw(_amt);\n        uint256 _after = IERC20(_3crv).balanceOf(address(this));\n        return _withdrawOne(_after.sub(_before));\n    }\n\n    function _withdrawOne(uint256 _amnt) internal returns (uint256) {\n        uint256 _before = IERC20(want).balanceOf(address(this));\n        IERC20(_3crv).safeApprove(_3pool, 0);\n        IERC20(_3crv).safeApprove(_3pool, _amnt);\n        ICurveFi(_3pool).remove_liquidity_one_coin(_amnt, 1, _amnt.mul(DENOMINATOR.sub(slip)).div(DENOMINATOR).div(1e12));\n        uint256 _after = IERC20(want).balanceOf(address(this));\n\n        return _after.sub(_before);\n    }\n\n    // Withdraw all funds, normally used when migrating strategies\n    function withdrawAll() external returns (uint256 balance) {\n        require(msg.sender == controller, \"!controller\");\n        _withdrawAll();\n\n        balance = IERC20(want).balanceOf(address(this));\n\n        address _vault = IController(controller).vaults(address(want));\n        require(_vault != address(0), \"!vault\"); // additional protection so we don't burn the funds\n        IERC20(want).safeTransfer(_vault, balance);\n    }\n\n    function _withdrawAll() internal {\n        uint256 _y3crv = IERC20(y3crv).balanceOf(address(this));\n        if (_y3crv > 0) {\n            yvERC20(y3crv).withdraw(_y3crv);\n            _withdrawOne(IERC20(_3crv).balanceOf(address(this)));\n        }\n    }\n\n    function balanceOfWant() public view returns (uint256) {\n        return IERC20(want).balanceOf(address(this));\n    }\n\n    function balanceOf3CRV() public view returns (uint256) {\n        return IERC20(_3crv).balanceOf(address(this));\n    }\n\n    function balanceOf3CRVinWant() public view returns (uint256) {\n        return balanceOf3CRV().mul(ICurveFi(_3pool).get_virtual_price()).div(1e30);\n    }\n\n    function balanceOfy3CRV() public view returns (uint256) {\n        return IERC20(y3crv).balanceOf(address(this));\n    }\n\n    function balanceOfy3CRVin3CRV() public view returns (uint256) {\n        return balanceOfy3CRV().mul(yvERC20(y3crv).getPricePerFullShare()).div(1e18);\n    }\n\n    function balanceOfy3CRVinWant() public view returns (uint256) {\n        return balanceOfy3CRVin3CRV().mul(ICurveFi(_3pool).get_virtual_price()).div(1e30);\n    }\n\n    function balanceOf() public view returns (uint256) {\n        return balanceOfWant().add(balanceOfy3CRVinWant());\n    }\n\n    function migrate(address _strategy) external {\n        require(msg.sender == governance, \"!governance\");\n        require(IController(controller).approvedStrategies(want, _strategy), \"!stategyAllowed\");\n        IERC20(y3crv).safeTransfer(_strategy, IERC20(y3crv).balanceOf(address(this)));\n        IERC20(_3crv).safeTransfer(_strategy, IERC20(_3crv).balanceOf(address(this)));\n        IERC20(want).safeTransfer(_strategy, IERC20(want).balanceOf(address(this)));\n    }\n\n    function forceD(uint256 _amount) external isAuthorized {\n        IERC20(want).safeApprove(_3pool, 0);\n        IERC20(want).safeApprove(_3pool, _amount);\n        uint256 v = _amount.mul(1e30).div(ICurveFi(_3pool).get_virtual_price());\n        ICurveFi(_3pool).add_liquidity([0, _amount, 0], v.mul(DENOMINATOR.sub(slip)).div(DENOMINATOR));\n        if (_amount < tank) tank = tank.sub(_amount);\n        else tank = 0;\n\n        uint256 _bal = IERC20(_3crv).balanceOf(address(this));\n        IERC20(_3crv).safeApprove(y3crv, 0);\n        IERC20(_3crv).safeApprove(y3crv, _bal);\n        yvERC20(y3crv).deposit(_bal);\n    }\n\n    function forceW(uint256 _amt) external isAuthorized {\n        uint256 _before = IERC20(_3crv).balanceOf(address(this));\n        yvERC20(y3crv).withdraw(_amt);\n        uint256 _after = IERC20(_3crv).balanceOf(address(this));\n        _amt = _after.sub(_before);\n\n        IERC20(_3crv).safeApprove(_3pool, 0);\n        IERC20(_3crv).safeApprove(_3pool, _amt);\n        _before = IERC20(want).balanceOf(address(this));\n        ICurveFi(_3pool).remove_liquidity_one_coin(_amt, 1, _amt.mul(DENOMINATOR.sub(slip)).div(DENOMINATOR).div(1e12));\n        _after = IERC20(want).balanceOf(address(this));\n        tank = tank.add(_after.sub(_before));\n    }\n\n    function drip() public isAuthorized {\n        uint256 _p = yvERC20(y3crv).getPricePerFullShare();\n        _p = _p.mul(ICurveFi(_3pool).get_virtual_price()).div(1e18);\n        require(_p >= p, \"backward\");\n        uint256 _r = (_p.sub(p)).mul(balanceOfy3CRV()).div(1e18);\n        uint256 _s = _r.mul(strategistReward).div(DENOMINATOR);\n        IERC20(y3crv).safeTransfer(strategist, _s.mul(1e18).div(_p));\n        uint256 _t = _r.mul(treasuryFee).div(DENOMINATOR);\n        IERC20(y3crv).safeTransfer(IController(controller).rewards(), _t.mul(1e18).div(_p));\n        p = _p;\n    }\n\n    function tick() public view returns (uint256 _t, uint256 _c) {\n        _t = ICurveFi(_3pool).balances(1).mul(threshold).div(DENOMINATOR);\n        _c = balanceOfy3CRVinWant();\n    }\n\n    function rebalance() public isAuthorized {\n        drip();\n        (uint256 _t, uint256 _c) = tick();\n        if (_c > _t) {\n            _withdrawSome(_c.sub(_t));\n            tank = IERC20(want).balanceOf(address(this));\n        }\n    }\n\n    function setGovernance(address _governance) external {\n        require(msg.sender == governance, \"!governance\");\n        governance = _governance;\n    }\n\n    function setController(address _controller) external {\n        require(msg.sender == governance, \"!governance\");\n        controller = _controller;\n    }\n\n    function setStrategist(address _strategist) external {\n        require(msg.sender == governance || msg.sender == strategist, \"!gs\");\n        strategist = _strategist;\n    }\n\n    function setWithdrawalFee(uint256 _withdrawalFee) external {\n        require(msg.sender == governance, \"!governance\");\n        withdrawalFee = _withdrawalFee;\n    }\n\n    function setTreasuryFee(uint256 _treasuryFee) external {\n        require(msg.sender == governance, \"!governance\");\n        treasuryFee = _treasuryFee;\n    }\n\n    function setStrategistReward(uint256 _strategistReward) external {\n        require(msg.sender == governance, \"!governance\");\n        strategistReward = _strategistReward;\n    }\n\n    function setThreshold(uint256 _threshold) external {\n        require(msg.sender == strategist || msg.sender == governance, \"!sg\");\n        threshold = _threshold;\n    }\n\n    function setSlip(uint256 _slip) external {\n        require(msg.sender == strategist || msg.sender == governance, \"!sg\");\n        slip = _slip;\n    }\n}\n",
  "sourcePath": "/Users/sbacha/yearn-protocol-nodejs/contracts/strategies/StrategyUSDC3pool.sol",
  "compiler": {
    "name": "solc",
    "version": "0.5.17+commit.d19bba13.Emscripten.clang"
  },
  "schemaVersion": "3.3.3",
  "updatedAt": "2021-01-01T09:28:49.309Z",
  "devdoc": {
    "methods": {}
  },
  "userdoc": {
    "methods": {}
  }
}