{
  "contractName": "StrategyVaultUSDC",
  "abi": [
    {
      "inputs": [
        {
          "internalType": "address",
          "name": "_controller",
          "type": "address"
        }
      ],
      "payable": false,
      "stateMutability": "nonpayable",
      "type": "constructor"
    },
    {
      "constant": true,
      "inputs": [],
      "name": "aave",
      "outputs": [
        {
          "internalType": "address",
          "name": "",
          "type": "address"
        }
      ],
      "payable": false,
      "stateMutability": "view",
      "type": "function"
    },
    {
      "constant": true,
      "inputs": [],
      "name": "controller",
      "outputs": [
        {
          "internalType": "address",
          "name": "",
          "type": "address"
        }
      ],
      "payable": false,
      "stateMutability": "view",
      "type": "function"
    },
    {
      "constant": true,
      "inputs": [],
      "name": "governance",
      "outputs": [
        {
          "internalType": "address",
          "name": "",
          "type": "address"
        }
      ],
      "payable": false,
      "stateMutability": "view",
      "type": "function"
    },
    {
      "constant": true,
      "inputs": [],
      "name": "vault",
      "outputs": [
        {
          "internalType": "address",
          "name": "",
          "type": "address"
        }
      ],
      "payable": false,
      "stateMutability": "view",
      "type": "function"
    },
    {
      "constant": true,
      "inputs": [],
      "name": "want",
      "outputs": [
        {
          "internalType": "address",
          "name": "",
          "type": "address"
        }
      ],
      "payable": false,
      "stateMutability": "view",
      "type": "function"
    },
    {
      "constant": false,
      "inputs": [],
      "name": "deposit",
      "outputs": [],
      "payable": false,
      "stateMutability": "nonpayable",
      "type": "function"
    },
    {
      "constant": true,
      "inputs": [],
      "name": "getAave",
      "outputs": [
        {
          "internalType": "address",
          "name": "",
          "type": "address"
        }
      ],
      "payable": false,
      "stateMutability": "view",
      "type": "function"
    },
    {
      "constant": true,
      "inputs": [],
      "name": "getName",
      "outputs": [
        {
          "internalType": "string",
          "name": "",
          "type": "string"
        }
      ],
      "payable": false,
      "stateMutability": "pure",
      "type": "function"
    },
    {
      "constant": true,
      "inputs": [],
      "name": "debt",
      "outputs": [
        {
          "internalType": "uint256",
          "name": "",
          "type": "uint256"
        }
      ],
      "payable": false,
      "stateMutability": "view",
      "type": "function"
    },
    {
      "constant": true,
      "inputs": [],
      "name": "have",
      "outputs": [
        {
          "internalType": "uint256",
          "name": "",
          "type": "uint256"
        }
      ],
      "payable": false,
      "stateMutability": "view",
      "type": "function"
    },
    {
      "constant": true,
      "inputs": [],
      "name": "skimmable",
      "outputs": [
        {
          "internalType": "uint256",
          "name": "",
          "type": "uint256"
        }
      ],
      "payable": false,
      "stateMutability": "view",
      "type": "function"
    },
    {
      "constant": false,
      "inputs": [],
      "name": "skim",
      "outputs": [],
      "payable": false,
      "stateMutability": "nonpayable",
      "type": "function"
    },
    {
      "constant": false,
      "inputs": [
        {
          "internalType": "uint256",
          "name": "_amount",
          "type": "uint256"
        }
      ],
      "name": "withdraw",
      "outputs": [],
      "payable": false,
      "stateMutability": "nonpayable",
      "type": "function"
    },
    {
      "constant": false,
      "inputs": [
        {
          "internalType": "contract IERC20",
          "name": "_asset",
          "type": "address"
        }
      ],
      "name": "withdraw",
      "outputs": [
        {
          "internalType": "uint256",
          "name": "balance",
          "type": "uint256"
        }
      ],
      "payable": false,
      "stateMutability": "nonpayable",
      "type": "function"
    },
    {
      "constant": false,
      "inputs": [],
      "name": "withdrawAll",
      "outputs": [
        {
          "internalType": "uint256",
          "name": "balance",
          "type": "uint256"
        }
      ],
      "payable": false,
      "stateMutability": "nonpayable",
      "type": "function"
    },
    {
      "constant": true,
      "inputs": [],
      "name": "balanceOf",
      "outputs": [
        {
          "internalType": "uint256",
          "name": "",
          "type": "uint256"
        }
      ],
      "payable": false,
      "stateMutability": "view",
      "type": "function"
    },
    {
      "constant": true,
      "inputs": [],
      "name": "balanceSavingsInToken",
      "outputs": [
        {
          "internalType": "uint256",
          "name": "",
          "type": "uint256"
        }
      ],
      "payable": false,
      "stateMutability": "view",
      "type": "function"
    },
    {
      "constant": false,
      "inputs": [
        {
          "internalType": "address",
          "name": "_governance",
          "type": "address"
        }
      ],
      "name": "setGovernance",
      "outputs": [],
      "payable": false,
      "stateMutability": "nonpayable",
      "type": "function"
    },
    {
      "constant": false,
      "inputs": [
        {
          "internalType": "address",
          "name": "_controller",
          "type": "address"
        }
      ],
      "name": "setController",
      "outputs": [],
      "payable": false,
      "stateMutability": "nonpayable",
      "type": "function"
    }
  ],
  "bytecode": "0x608060405234801561001057600080fd5b50604051611a0d380380611a0d8339818101604052602081101561003357600080fd5b5051600080546001600160a01b03199081163317909155600180546001600160a01b039093169290911691909117905561199b806100726000396000f3fe608060405234801561001057600080fd5b50600436106101215760003560e01c8063722713f7116100ad578063ab033ea911610071578063ab033ea91461028c578063d0e30db0146102b2578063f77c4791146102ba578063f7c1ec77146102c2578063fbfa77cf146102ca57610121565b8063722713f714610246578063819faf7b1461024e578063853828b61461025657806392eefe9b1461025e5780639d9f91551461028457610121565b80631dd19cb4116100f45780631dd19cb4146101cd5780631f1fcd51146101d75780632e1a7d4d146101fb57806351cff8d9146102185780635aa6e6751461023e57610121565b80630dca59c114610126578063125009cc1461014057806317d7de7c14610148578063183dcad9146101c5575b600080fd5b61012e6102d2565b60408051918252519081900360200190f35b61012e6103f3565b610150610517565b6040805160208082528351818301528351919283929083019185019080838360005b8381101561018a578181015183820152602001610172565b50505050905090810190601f1680156101b75780820380516001836020036101000a031916815260200191505b509250505060405180910390f35b61012e610542565b6101d5610696565b005b6101df610784565b604080516001600160a01b039092168252519081900360200190f35b6101d56004803603602081101561021157600080fd5b5035610796565b61012e6004803603602081101561022e57600080fd5b50356001600160a01b0316610971565b6101df610b0a565b61012e610b19565b6101df610ba9565b61012e610bc1565b6101d56004803603602081101561027457600080fd5b50356001600160a01b0316610d76565b61012e610de5565b6101d5600480360360208110156102a257600080fd5b50356001600160a01b0316610df6565b6101d5610e65565b6101df610fc5565b6101df610fd4565b6101df611054565b6000806102dd610fd4565b60015460408051632988bb9f60e21b815230600482015290516001600160a01b03938416936328dd2d01936000805160206118e78339815191529391169163a622ee7c91602480820192602092909190829003018186803b15801561034157600080fd5b505afa158015610355573d6000803e3d6000fd5b505050506040513d602081101561036b57600080fd5b5051604080516001600160e01b031960e086901b1681526001600160a01b03938416600482015292909116602483015251604480830192610140929190829003018186803b1580156103bc57600080fd5b505afa1580156103d0573d6000803e3d6000fd5b505050506040513d6101408110156103e757600080fd5b50602001519150505b90565b6000610512670de0b6b3a764000061050673597ad1e0c13bfe8025993d9e79c69e1c0233522e6001600160a01b03166377c7b8fc6040518163ffffffff1660e01b815260040160206040518083038186803b15801561045157600080fd5b505afa158015610465573d6000803e3d6000fd5b505050506040513d602081101561047b57600080fd5b5051604080516370a0823160e01b8152306004820152905173597ad1e0c13bfe8025993d9e79c69e1c0233522e916370a08231916024808301926020929190829003018186803b1580156104ce57600080fd5b505afa1580156104e2573d6000803e3d6000fd5b505050506040513d60208110156104f857600080fd5b50519063ffffffff61106c16565b9063ffffffff6110ce16565b905090565b60408051808201909152601181527053747261746567795661756c745553444360781b602082015290565b60008061054d610fd4565b60015460408051632988bb9f60e21b815230600482015290516001600160a01b03938416936328dd2d01936000805160206118e78339815191529391169163a622ee7c91602480820192602092909190829003018186803b1580156105b157600080fd5b505afa1580156105c5573d6000803e3d6000fd5b505050506040513d60208110156105db57600080fd5b5051604080516001600160e01b031960e086901b1681526001600160a01b03938416600482015292909116602483015251604480830192610140929190829003018186803b15801561062c57600080fd5b505afa158015610640573d6000803e3d6000fd5b505050506040513d61014081101561065757600080fd5b506020015190506000610668610de5565b90508181111561068b57610682818363ffffffff61111016565b925050506103f0565b6000925050506103f0565b604080516370a0823160e01b815230600482015290516000916000805160206118e7833981519152916370a0823191602480820192602092909190829003018186803b1580156106e557600080fd5b505afa1580156106f9573d6000803e3d6000fd5b505050506040513d602081101561070f57600080fd5b50519050600061071d610542565b9050808210156107545761073f61073a828463ffffffff61111016565b611152565b9050610751818363ffffffff61133916565b90505b600154610780906000805160206118e7833981519152906001600160a01b03168363ffffffff61139316565b5050565b6000805160206118e783398151915281565b6001546001600160a01b031633146107e3576040805162461bcd60e51b815260206004820152600b60248201526a10b1b7b73a3937b63632b960a91b604482015290519081900360640190fd5b604080516370a0823160e01b815230600482015290516000916000805160206118e7833981519152916370a0823191602480820192602092909190829003018186803b15801561083257600080fd5b505afa158015610846573d6000803e3d6000fd5b505050506040513d602081101561085c57600080fd5b50519050818110156108905761087b61073a838363ffffffff61111016565b915061088d828263ffffffff61133916565b91505b60015460408051632988bb9f60e21b815230600482015290516000926001600160a01b03169163a622ee7c916024808301926020929190829003018186803b1580156108db57600080fd5b505afa1580156108ef573d6000803e3d6000fd5b505050506040513d602081101561090557600080fd5b505190506001600160a01b03811661094d576040805162461bcd60e51b8152602060048201526006602482015265085d985d5b1d60d21b604482015290519081900360640190fd5b61096c6000805160206118e7833981519152828563ffffffff61139316565b505050565b6001546000906001600160a01b031633146109c1576040805162461bcd60e51b815260206004820152600b60248201526a10b1b7b73a3937b63632b960a91b604482015290519081900360640190fd5b6001600160a01b0382166000805160206118e78339815191521415610a15576040805162461bcd60e51b8152602060048201526005602482015264085dd85b9d60da1b604482015290519081900360640190fd5b6001600160a01b03821673597ad1e0c13bfe8025993d9e79c69e1c0233522e1415610a70576040805162461bcd60e51b8152602060048201526006602482015265085d985d5b1d60d21b604482015290519081900360640190fd5b604080516370a0823160e01b815230600482015290516001600160a01b038416916370a08231916024808301926020929190829003018186803b158015610ab657600080fd5b505afa158015610aca573d6000803e3d6000fd5b505050506040513d6020811015610ae057600080fd5b5051600154909150610b05906001600160a01b0384811691168363ffffffff61139316565b919050565b6000546001600160a01b031681565b6000610512610b266103f3565b604080516370a0823160e01b815230600482015290516000805160206118e7833981519152916370a08231916024808301926020929190829003018186803b158015610b7157600080fd5b505afa158015610b85573d6000803e3d6000fd5b505050506040513d6020811015610b9b57600080fd5b50519063ffffffff61133916565b7324a42fd28c976a61df5d00d0599c34c4f90748c881565b6001546000906001600160a01b03163314610c11576040805162461bcd60e51b815260206004820152600b60248201526a10b1b7b73a3937b63632b960a91b604482015290519081900360640190fd5b610c196113e5565b604080516370a0823160e01b815230600482015290516000805160206118e7833981519152916370a08231916024808301926020929190829003018186803b158015610c6457600080fd5b505afa158015610c78573d6000803e3d6000fd5b505050506040513d6020811015610c8e57600080fd5b505160015460408051632988bb9f60e21b815230600482015290519293506000926001600160a01b039092169163a622ee7c91602480820192602092909190829003018186803b158015610ce157600080fd5b505afa158015610cf5573d6000803e3d6000fd5b505050506040513d6020811015610d0b57600080fd5b505190506001600160a01b038116610d53576040805162461bcd60e51b8152602060048201526006602482015265085d985d5b1d60d21b604482015290519081900360640190fd5b610d726000805160206118e7833981519152828463ffffffff61139316565b5090565b6000546001600160a01b03163314610dc3576040805162461bcd60e51b815260206004820152600b60248201526a21676f7665726e616e636560a81b604482015290519081900360640190fd5b600180546001600160a01b0319166001600160a01b0392909216919091179055565b600080610df0610b19565b91505090565b6000546001600160a01b03163314610e43576040805162461bcd60e51b815260206004820152600b60248201526a21676f7665726e616e636560a81b604482015290519081900360640190fd5b600080546001600160a01b0319166001600160a01b0392909216919091179055565b604080516370a0823160e01b815230600482015290516000916000805160206118e7833981519152916370a0823191602480820192602092909190829003018186803b158015610eb457600080fd5b505afa158015610ec8573d6000803e3d6000fd5b505050506040513d6020811015610ede57600080fd5b505190508015610fc257610f1c6000805160206118e783398151915273597ad1e0c13bfe8025993d9e79c69e1c0233522e600063ffffffff6114c216565b610f4f6000805160206118e783398151915273597ad1e0c13bfe8025993d9e79c69e1c0233522e8363ffffffff6114c216565b73597ad1e0c13bfe8025993d9e79c69e1c0233522e6001600160a01b031663b6b55f25826040518263ffffffff1660e01b815260040180828152602001915050600060405180830381600087803b158015610fa957600080fd5b505af1158015610fbd573d6000803e3d6000fd5b505050505b50565b6001546001600160a01b031681565b60007324a42fd28c976a61df5d00d0599c34c4f90748c86001600160a01b0316630261bf8b6040518163ffffffff1660e01b815260040160206040518083038186803b15801561102357600080fd5b505afa158015611037573d6000803e3d6000fd5b505050506040513d602081101561104d57600080fd5b5051905090565b73597ad1e0c13bfe8025993d9e79c69e1c0233522e81565b60008261107b575060006110c8565b8282028284828161108857fe5b04146110c55760405162461bcd60e51b81526004018080602001828103825260218152602001806118c66021913960400191505060405180910390fd5b90505b92915050565b60006110c583836040518060400160405280601a81526020017f536166654d6174683a206469766973696f6e206279207a65726f0000000000008152506115d5565b60006110c583836040518060400160405280601e81526020017f536166654d6174683a207375627472616374696f6e206f766572666c6f770000815250611677565b6000806111b76111606103f3565b604080516370a0823160e01b8152306004820152905161050691879173597ad1e0c13bfe8025993d9e79c69e1c0233522e916370a08231916024808301926020929190829003018186803b1580156104ce57600080fd5b604080516370a0823160e01b815230600482015290519192506000916000805160206118e7833981519152916370a08231916024808301926020929190829003018186803b15801561120857600080fd5b505afa15801561121c573d6000803e3d6000fd5b505050506040513d602081101561123257600080fd5b505160408051632e1a7d4d60e01b815260048101859052905191925073597ad1e0c13bfe8025993d9e79c69e1c0233522e91632e1a7d4d9160248082019260009290919082900301818387803b15801561128b57600080fd5b505af115801561129f573d6000803e3d6000fd5b5050604080516370a0823160e01b81523060048201529051600093506000805160206118e783398151915292506370a0823191602480820192602092909190829003018186803b1580156112f257600080fd5b505afa158015611306573d6000803e3d6000fd5b505050506040513d602081101561131c57600080fd5b50519050611330818363ffffffff61111016565b95945050505050565b6000828201838110156110c5576040805162461bcd60e51b815260206004820152601b60248201527f536166654d6174683a206164646974696f6e206f766572666c6f770000000000604482015290519081900360640190fd5b604080516001600160a01b038416602482015260448082018490528251808303909101815260649091019091526020810180516001600160e01b031663a9059cbb60e01b17905261096c9084906116d1565b604080516370a0823160e01b8152306004820152905173597ad1e0c13bfe8025993d9e79c69e1c0233522e91632e1a7d4d9183916370a08231916024808301926020929190829003018186803b15801561143e57600080fd5b505afa158015611452573d6000803e3d6000fd5b505050506040513d602081101561146857600080fd5b5051604080516001600160e01b031960e085901b168152600481019290925251602480830192600092919082900301818387803b1580156114a857600080fd5b505af11580156114bc573d6000803e3d6000fd5b50505050565b801580611548575060408051636eb1769f60e11b81523060048201526001600160a01b03848116602483015291519185169163dd62ed3e91604480820192602092909190829003018186803b15801561151a57600080fd5b505afa15801561152e573d6000803e3d6000fd5b505050506040513d602081101561154457600080fd5b5051155b6115835760405162461bcd60e51b81526004018080602001828103825260368152602001806119316036913960400191505060405180910390fd5b604080516001600160a01b038416602482015260448082018490528251808303909101815260649091019091526020810180516001600160e01b031663095ea7b360e01b17905261096c9084906116d1565b600081836116615760405162461bcd60e51b81526004018080602001828103825283818151815260200191508051906020019080838360005b8381101561162657818101518382015260200161160e565b50505050905090810190601f1680156116535780820380516001836020036101000a031916815260200191505b509250505060405180910390fd5b50600083858161166d57fe5b0495945050505050565b600081848411156116c95760405162461bcd60e51b815260206004820181815283516024840152835190928392604490910191908501908083836000831561162657818101518382015260200161160e565b505050900390565b6116e3826001600160a01b0316611889565b611734576040805162461bcd60e51b815260206004820152601f60248201527f5361666545524332303a2063616c6c20746f206e6f6e2d636f6e747261637400604482015290519081900360640190fd5b60006060836001600160a01b0316836040518082805190602001908083835b602083106117725780518252601f199092019160209182019101611753565b6001836020036101000a0380198251168184511680821785525050505050509050019150506000604051808303816000865af19150503d80600081146117d4576040519150601f19603f3d011682016040523d82523d6000602084013e6117d9565b606091505b509150915081611830576040805162461bcd60e51b815260206004820181905260248201527f5361666545524332303a206c6f772d6c6576656c2063616c6c206661696c6564604482015290519081900360640190fd5b8051156114bc5780806020019051602081101561184c57600080fd5b50516114bc5760405162461bcd60e51b815260040180806020018281038252602a815260200180611907602a913960400191505060405180910390fd5b6000813f7fc5d2460186f7233c927e7db2dcc703c0e500b653ca82273b7bfad8045d85a4708181148015906118bd57508115155b94935050505056fe536166654d6174683a206d756c7469706c69636174696f6e206f766572666c6f77000000000000000000000000a0b86991c6218b36c1d19d4a2e9eb0ce3606eb485361666545524332303a204552433230206f7065726174696f6e20646964206e6f7420737563636565645361666545524332303a20617070726f76652066726f6d206e6f6e2d7a65726f20746f206e6f6e2d7a65726f20616c6c6f77616e6365a265627a7a72315820dcd2fdec38656ce211955ab7d76ecb520ef0c512ddcdbcb2354d0185ed4fae9c64736f6c63430005110032",
  "source": "// SPDX-License-Identifier: MIT\n\npragma solidity ^0.5.17;\n\nimport \"@openzeppelinV2/contracts/token/ERC20/IERC20.sol\";\nimport \"@openzeppelinV2/contracts/math/SafeMath.sol\";\nimport \"@openzeppelinV2/contracts/utils/Address.sol\";\nimport \"@openzeppelinV2/contracts/token/ERC20/SafeERC20.sol\";\n\nimport \"../../interfaces/aave/Aave.sol\";\nimport \"../../interfaces/aave/LendingPoolAddressesProvider.sol\";\n\nimport \"../../interfaces/yearn/IController.sol\";\nimport \"../../interfaces/yearn/IVault.sol\";\n\ncontract StrategyVaultUSDC {\n    using SafeERC20 for IERC20;\n    using Address for address;\n    using SafeMath for uint256;\n\n    address public constant want = address(0xA0b86991c6218b36c1d19D4a2e9Eb0cE3606eB48);\n    address public constant vault = address(0x597aD1e0c13Bfe8025993D9e79C69E1c0233522e);\n\n    address public constant aave = address(0x24a42fD28C976A61Df5D00D0599C34c4f90748c8);\n\n    address public governance;\n    address public controller;\n\n    constructor(address _controller) public {\n        governance = msg.sender;\n        controller = _controller;\n    }\n\n    function deposit() external {\n        uint256 _balance = IERC20(want).balanceOf(address(this));\n        if (_balance > 0) {\n            IERC20(want).safeApprove(address(vault), 0);\n            IERC20(want).safeApprove(address(vault), _balance);\n            IVault(vault).deposit(_balance);\n        }\n    }\n\n    function getAave() public view returns (address) {\n        return LendingPoolAddressesProvider(aave).getLendingPool();\n    }\n\n    function getName() external pure returns (string memory) {\n        return \"StrategyVaultUSDC\";\n    }\n\n    function debt() external view returns (uint256) {\n        (, uint256 currentBorrowBalance, , , , , , , , ) = Aave(getAave()).getUserReserveData(\n            want,\n            IController(controller).vaults(address(this))\n        );\n        return currentBorrowBalance;\n    }\n\n    function have() public view returns (uint256) {\n        uint256 _have = balanceOf();\n        return _have;\n    }\n\n    function skimmable() public view returns (uint256) {\n        (, uint256 currentBorrowBalance, , , , , , , , ) = Aave(getAave()).getUserReserveData(\n            want,\n            IController(controller).vaults(address(this))\n        );\n        uint256 _have = have();\n        if (_have > currentBorrowBalance) {\n            return _have.sub(currentBorrowBalance);\n        } else {\n            return 0;\n        }\n    }\n\n    function skim() external {\n        uint256 _balance = IERC20(want).balanceOf(address(this));\n        uint256 _amount = skimmable();\n        if (_balance < _amount) {\n            _amount = _withdrawSome(_amount.sub(_balance));\n            _amount = _amount.add(_balance);\n        }\n        IERC20(want).safeTransfer(controller, _amount);\n    }\n\n    // Controller only function for creating additional rewards from dust\n    function withdraw(IERC20 _asset) external returns (uint256 balance) {\n        require(msg.sender == controller, \"!controller\");\n        require(address(_asset) != address(want), \"!want\");\n        require(address(_asset) != address(vault), \"!vault\");\n        balance = _asset.balanceOf(address(this));\n        _asset.safeTransfer(controller, balance);\n    }\n\n    // Withdraw partial funds, normally used with a vault withdrawal\n    function withdraw(uint256 _amount) external {\n        require(msg.sender == controller, \"!controller\");\n        uint256 _balance = IERC20(want).balanceOf(address(this));\n        if (_balance < _amount) {\n            _amount = _withdrawSome(_amount.sub(_balance));\n            _amount = _amount.add(_balance);\n        }\n        address _vault = IController(controller).vaults(address(this));\n        require(_vault != address(0), \"!vault\"); // additional protection so we don't burn the funds\n        IERC20(want).safeTransfer(_vault, _amount);\n    }\n\n    // Withdraw all funds, normally used when migrating strategies\n    function withdrawAll() external returns (uint256 balance) {\n        require(msg.sender == controller, \"!controller\");\n        _withdrawAll();\n        balance = IERC20(want).balanceOf(address(this));\n        address _vault = IController(controller).vaults(address(this));\n        require(_vault != address(0), \"!vault\"); // additional protection so we don't burn the funds\n        IERC20(want).safeTransfer(_vault, balance);\n    }\n\n    function _withdrawAll() internal {\n        IVault(vault).withdraw(IERC20(vault).balanceOf(address(this)));\n    }\n\n    function _withdrawSome(uint256 _amount) internal returns (uint256) {\n        uint256 _redeem = IERC20(vault).balanceOf(address(this)).mul(_amount).div(balanceSavingsInToken());\n        uint256 _before = IERC20(want).balanceOf(address(this));\n        IVault(vault).withdraw(_redeem);\n        uint256 _after = IERC20(want).balanceOf(address(this));\n        return _after.sub(_before);\n    }\n\n    function balanceOf() public view returns (uint256) {\n        return IERC20(want).balanceOf(address(this)).add(balanceSavingsInToken());\n    }\n\n    function balanceSavingsInToken() public view returns (uint256) {\n        return IERC20(vault).balanceOf(address(this)).mul(IVault(vault).getPricePerFullShare()).div(1e18);\n    }\n\n    function setGovernance(address _governance) external {\n        require(msg.sender == governance, \"!governance\");\n        governance = _governance;\n    }\n\n    function setController(address _controller) external {\n        require(msg.sender == governance, \"!governance\");\n        controller = _controller;\n    }\n}\n",
  "sourcePath": "/Users/sbacha/yearn-protocol-nodejs/contracts/strategies/StrategyVaultUSDC.sol",
  "compiler": {
    "name": "solc",
    "version": "0.5.17+commit.d19bba13.Emscripten.clang"
  },
  "schemaVersion": "3.3.4",
  "updatedAt": "2021-02-12T05:40:28.332Z",
  "devdoc": {
    "methods": {}
  },
  "userdoc": {
    "methods": {}
  }
}