{
  "contractName": "StrategyTUSDCurve",
  "abi": [
    {
      "inputs": [
        {
          "internalType": "address",
          "name": "_controller",
          "type": "address"
        }
      ],
      "payable": false,
      "stateMutability": "nonpayable",
      "type": "constructor"
    },
    {
      "constant": true,
      "inputs": [],
      "name": "controller",
      "outputs": [
        {
          "internalType": "address",
          "name": "",
          "type": "address"
        }
      ],
      "payable": false,
      "stateMutability": "view",
      "type": "function"
    },
    {
      "constant": true,
      "inputs": [],
      "name": "curve",
      "outputs": [
        {
          "internalType": "address",
          "name": "",
          "type": "address"
        }
      ],
      "payable": false,
      "stateMutability": "view",
      "type": "function"
    },
    {
      "constant": true,
      "inputs": [],
      "name": "dai",
      "outputs": [
        {
          "internalType": "address",
          "name": "",
          "type": "address"
        }
      ],
      "payable": false,
      "stateMutability": "view",
      "type": "function"
    },
    {
      "constant": true,
      "inputs": [],
      "name": "governance",
      "outputs": [
        {
          "internalType": "address",
          "name": "",
          "type": "address"
        }
      ],
      "payable": false,
      "stateMutability": "view",
      "type": "function"
    },
    {
      "constant": true,
      "inputs": [],
      "name": "tusd",
      "outputs": [
        {
          "internalType": "address",
          "name": "",
          "type": "address"
        }
      ],
      "payable": false,
      "stateMutability": "view",
      "type": "function"
    },
    {
      "constant": true,
      "inputs": [],
      "name": "usdc",
      "outputs": [
        {
          "internalType": "address",
          "name": "",
          "type": "address"
        }
      ],
      "payable": false,
      "stateMutability": "view",
      "type": "function"
    },
    {
      "constant": true,
      "inputs": [],
      "name": "usdt",
      "outputs": [
        {
          "internalType": "address",
          "name": "",
          "type": "address"
        }
      ],
      "payable": false,
      "stateMutability": "view",
      "type": "function"
    },
    {
      "constant": true,
      "inputs": [],
      "name": "want",
      "outputs": [
        {
          "internalType": "address",
          "name": "",
          "type": "address"
        }
      ],
      "payable": false,
      "stateMutability": "view",
      "type": "function"
    },
    {
      "constant": true,
      "inputs": [],
      "name": "y",
      "outputs": [
        {
          "internalType": "address",
          "name": "",
          "type": "address"
        }
      ],
      "payable": false,
      "stateMutability": "view",
      "type": "function"
    },
    {
      "constant": true,
      "inputs": [],
      "name": "ycrv",
      "outputs": [
        {
          "internalType": "address",
          "name": "",
          "type": "address"
        }
      ],
      "payable": false,
      "stateMutability": "view",
      "type": "function"
    },
    {
      "constant": true,
      "inputs": [],
      "name": "ydai",
      "outputs": [
        {
          "internalType": "address",
          "name": "",
          "type": "address"
        }
      ],
      "payable": false,
      "stateMutability": "view",
      "type": "function"
    },
    {
      "constant": true,
      "inputs": [],
      "name": "ytusd",
      "outputs": [
        {
          "internalType": "address",
          "name": "",
          "type": "address"
        }
      ],
      "payable": false,
      "stateMutability": "view",
      "type": "function"
    },
    {
      "constant": true,
      "inputs": [],
      "name": "yusdc",
      "outputs": [
        {
          "internalType": "address",
          "name": "",
          "type": "address"
        }
      ],
      "payable": false,
      "stateMutability": "view",
      "type": "function"
    },
    {
      "constant": true,
      "inputs": [],
      "name": "yusdt",
      "outputs": [
        {
          "internalType": "address",
          "name": "",
          "type": "address"
        }
      ],
      "payable": false,
      "stateMutability": "view",
      "type": "function"
    },
    {
      "constant": true,
      "inputs": [],
      "name": "yycrv",
      "outputs": [
        {
          "internalType": "address",
          "name": "",
          "type": "address"
        }
      ],
      "payable": false,
      "stateMutability": "view",
      "type": "function"
    },
    {
      "constant": true,
      "inputs": [],
      "name": "getName",
      "outputs": [
        {
          "internalType": "string",
          "name": "",
          "type": "string"
        }
      ],
      "payable": false,
      "stateMutability": "pure",
      "type": "function"
    },
    {
      "constant": false,
      "inputs": [],
      "name": "deposit",
      "outputs": [],
      "payable": false,
      "stateMutability": "nonpayable",
      "type": "function"
    },
    {
      "constant": false,
      "inputs": [
        {
          "internalType": "uint256",
          "name": "_amount",
          "type": "uint256"
        }
      ],
      "name": "withdraw",
      "outputs": [],
      "payable": false,
      "stateMutability": "nonpayable",
      "type": "function"
    },
    {
      "constant": false,
      "inputs": [
        {
          "internalType": "contract IERC20",
          "name": "_asset",
          "type": "address"
        }
      ],
      "name": "withdraw",
      "outputs": [
        {
          "internalType": "uint256",
          "name": "balance",
          "type": "uint256"
        }
      ],
      "payable": false,
      "stateMutability": "nonpayable",
      "type": "function"
    },
    {
      "constant": false,
      "inputs": [],
      "name": "withdrawAll",
      "outputs": [
        {
          "internalType": "uint256",
          "name": "balance",
          "type": "uint256"
        }
      ],
      "payable": false,
      "stateMutability": "nonpayable",
      "type": "function"
    },
    {
      "constant": true,
      "inputs": [],
      "name": "balanceOfWant",
      "outputs": [
        {
          "internalType": "uint256",
          "name": "",
          "type": "uint256"
        }
      ],
      "payable": false,
      "stateMutability": "view",
      "type": "function"
    },
    {
      "constant": true,
      "inputs": [],
      "name": "balanceOfYYCRV",
      "outputs": [
        {
          "internalType": "uint256",
          "name": "",
          "type": "uint256"
        }
      ],
      "payable": false,
      "stateMutability": "view",
      "type": "function"
    },
    {
      "constant": true,
      "inputs": [],
      "name": "balanceOfYYCRVinYCRV",
      "outputs": [
        {
          "internalType": "uint256",
          "name": "",
          "type": "uint256"
        }
      ],
      "payable": false,
      "stateMutability": "view",
      "type": "function"
    },
    {
      "constant": true,
      "inputs": [],
      "name": "balanceOfYYCRVinyTUSD",
      "outputs": [
        {
          "internalType": "uint256",
          "name": "",
          "type": "uint256"
        }
      ],
      "payable": false,
      "stateMutability": "view",
      "type": "function"
    },
    {
      "constant": true,
      "inputs": [],
      "name": "balanceOfYCRV",
      "outputs": [
        {
          "internalType": "uint256",
          "name": "",
          "type": "uint256"
        }
      ],
      "payable": false,
      "stateMutability": "view",
      "type": "function"
    },
    {
      "constant": true,
      "inputs": [],
      "name": "balanceOfYCRVyTUSD",
      "outputs": [
        {
          "internalType": "uint256",
          "name": "",
          "type": "uint256"
        }
      ],
      "payable": false,
      "stateMutability": "view",
      "type": "function"
    },
    {
      "constant": true,
      "inputs": [],
      "name": "balanceOf",
      "outputs": [
        {
          "internalType": "uint256",
          "name": "",
          "type": "uint256"
        }
      ],
      "payable": false,
      "stateMutability": "view",
      "type": "function"
    },
    {
      "constant": false,
      "inputs": [
        {
          "internalType": "address",
          "name": "_governance",
          "type": "address"
        }
      ],
      "name": "setGovernance",
      "outputs": [],
      "payable": false,
      "stateMutability": "nonpayable",
      "type": "function"
    },
    {
      "constant": false,
      "inputs": [
        {
          "internalType": "address",
          "name": "_controller",
          "type": "address"
        }
      ],
      "name": "setController",
      "outputs": [],
      "payable": false,
      "stateMutability": "nonpayable",
      "type": "function"
    }
  ],
  "bytecode": "0x608060405234801561001057600080fd5b506040516125f83803806125f88339818101604052602081101561003357600080fd5b5051600080546001600160a01b03199081163317909155600180546001600160a01b0390931692909116919091179055612586806100726000396000f3fe608060405234801561001057600080fd5b50600436106101cf5760003560e01c806375b5be2d11610104578063c1a3d44c116100a2578063dfb84f6511610071578063dfb84f65146103a0578063f3eb5b31146103a8578063f4b9fa75146103b0578063f77c4791146103b8576101cf565b8063c1a3d44c14610380578063ca6cf00114610388578063d0e30db014610390578063d37c04a714610398576101cf565b806392eefe9b116100de57806392eefe9b1461032c5780639752b71114610352578063a56dfe4a1461027d578063ab033ea91461035a576101cf565b806375b5be2d14610275578063853828b61461031c5780638c53b38d14610324576101cf565b8063366cd4f311610171578063598f2f501161014b578063598f2f50146102fc5780635aa6e675146103045780637165485d1461030c578063722713f714610314576101cf565b8063366cd4f3146102b45780633e413bee146102bc57806351cff8d9146102c4576101cf565b80632aa05b1a116101ad5780632aa05b1a1461027d5780632e1a7d4d146102855780632f48ab7d146102a457806332bd678f146102ac576101cf565b806317d7de7c146101d457806317e3a3d5146102515780631f1fcd5114610275575b600080fd5b6101dc6103c0565b6040805160208082528351818301528351919283929083019185019080838360005b838110156102165781810151838201526020016101fe565b50505050905090810190601f1680156102435780820380516001836020036101000a031916815260200191505b509250505060405180910390f35b6102596103eb565b604080516001600160a01b039092168252519081900360200190f35b610259610403565b610259610416565b6102a26004803603602081101561029b57600080fd5b503561042e565b005b61025961061f565b610259610637565b61025961064f565b610259610667565b6102ea600480360360208110156102da57600080fd5b50356001600160a01b031661067f565b60408051918252519081900360200190f35b6102596108ca565b6102596108e2565b6102596108f1565b6102ea610903565b6102ea610929565b6102ea610aef565b6102a26004803603602081101561034257600080fd5b50356001600160a01b0316610b93565b6102ea610c02565b6102a26004803603602081101561037057600080fd5b50356001600160a01b0316610c94565b6102ea610d03565b6102ea610d84565b6102a2610dd9565b6102ea61125a565b6102596112e6565b6102ea6112fe565b610259611353565b61025961136b565b604080518082019091526011815270537472617465677954555344437572766560781b602082015290565b73df5e0e81dff6faf3a7e52ba697820c5e32d806a881565b6e085d4780b73119b644ae5ecd22b37681565b7373a052500105205d34daf004eab301916da8190f81565b6001546001600160a01b0316331461047b576040805162461bcd60e51b815260206004820152600b60248201526a10b1b7b73a3937b63632b960a91b604482015290519081900360640190fd5b604080516370a0823160e01b815230600482015290516000916e085d4780b73119b644ae5ecd22b376916370a0823191602480820192602092909190829003018186803b1580156104cb57600080fd5b505afa1580156104df573d6000803e3d6000fd5b505050506040513d60208110156104f557600080fd5b505190508181101561052e57610519610514838363ffffffff61137a16565b6113c5565b915061052b828263ffffffff61168516565b91505b60015460408051632988bb9f60e21b81526e085d4780b73119b644ae5ecd22b376600482015290516000926001600160a01b03169163a622ee7c916024808301926020929190829003018186803b15801561058857600080fd5b505afa15801561059c573d6000803e3d6000fd5b505050506040513d60208110156105b257600080fd5b505190506001600160a01b0381166105fa576040805162461bcd60e51b8152602060048201526006602482015265085d985d5b1d60d21b604482015290519081900360640190fd5b61061a6e085d4780b73119b644ae5ecd22b376828563ffffffff6116df16565b505050565b73dac17f958d2ee523a2206206994597c13d831ec781565b73d6ad7a6750a7593e092a9b218d66c0a814a3436e81565b7316de59092dae5ccf4a1e6439d611fd0653f0bd0181565b73a0b86991c6218b36c1d19d4a2e9eb0ce3606eb4881565b6001546000906001600160a01b031633146106cf576040805162461bcd60e51b815260206004820152600b60248201526a10b1b7b73a3937b63632b960a91b604482015290519081900360640190fd5b6e085d4780b73119b644ae5ecd22b3766001600160a01b0383161415610725576040805162461bcd60e51b815260206004808301919091526024820152631dd85b9d60e21b604482015290519081900360640190fd5b7373a052500105205d34daf004eab301916da8190f6001600160a01b038316141561077b576040805162461bcd60e51b81526020600482015260016024820152607960f81b604482015290519081900360640190fd5b73df5e0e81dff6faf3a7e52ba697820c5e32d806a86001600160a01b03831614156107d6576040805162461bcd60e51b815260206004808301919091526024820152633cb1b93b60e11b604482015290519081900360640190fd5b735dbcf33d8c2e976c6b560249878e6f1491bca25c6001600160a01b0383161415610830576040805162461bcd60e51b81526020600482015260056024820152643cbcb1b93b60d91b604482015290519081900360640190fd5b604080516370a0823160e01b815230600482015290516001600160a01b038416916370a08231916024808301926020929190829003018186803b15801561087657600080fd5b505afa15801561088a573d6000803e3d6000fd5b505050506040513d60208110156108a057600080fd5b50516001549091506108c5906001600160a01b0384811691168363ffffffff6116df16565b919050565b735dbcf33d8c2e976c6b560249878e6f1491bca25c81565b6000546001600160a01b031681565b60008051602061253283398151915281565b600061092461091061125a565b610918610d03565b9063ffffffff61168516565b905090565b6001546000906001600160a01b03163314610979576040805162461bcd60e51b815260206004820152600b60248201526a10b1b7b73a3937b63632b960a91b604482015290519081900360640190fd5b610981611731565b604080516370a0823160e01b815230600482015290516e085d4780b73119b644ae5ecd22b376916370a08231916024808301926020929190829003018186803b1580156109cd57600080fd5b505afa1580156109e1573d6000803e3d6000fd5b505050506040513d60208110156109f757600080fd5b505160015460408051632988bb9f60e21b81526e085d4780b73119b644ae5ecd22b376600482015290519293506000926001600160a01b039092169163a622ee7c91602480820192602092909190829003018186803b158015610a5957600080fd5b505afa158015610a6d573d6000803e3d6000fd5b505050506040513d6020811015610a8357600080fd5b505190506001600160a01b038116610acb576040805162461bcd60e51b8152602060048201526006602482015265085d985d5b1d60d21b604482015290519081900360640190fd5b610aeb6e085d4780b73119b644ae5ecd22b376828463ffffffff6116df16565b5090565b6000610924670de0b6b3a7640000610b876000805160206125328339815191526001600160a01b031663bb7b8b806040518163ffffffff1660e01b815260040160206040518083038186803b158015610b4757600080fd5b505afa158015610b5b573d6000803e3d6000fd5b505050506040513d6020811015610b7157600080fd5b5051610b7b610d84565b9063ffffffff6118b816565b9063ffffffff61191116565b6000546001600160a01b03163314610be0576040805162461bcd60e51b815260206004820152600b60248201526a21676f7665726e616e636560a81b604482015290519081900360640190fd5b600180546001600160a01b0319166001600160a01b0392909216919091179055565b6000610924670de0b6b3a7640000610b87735dbcf33d8c2e976c6b560249878e6f1491bca25c6001600160a01b03166377c7b8fc6040518163ffffffff1660e01b815260040160206040518083038186803b158015610c6057600080fd5b505afa158015610c74573d6000803e3d6000fd5b505050506040513d6020811015610c8a57600080fd5b5051610b7b6112fe565b6000546001600160a01b03163314610ce1576040805162461bcd60e51b815260206004820152600b60248201526a21676f7665726e616e636560a81b604482015290519081900360640190fd5b600080546001600160a01b0319166001600160a01b0392909216919091179055565b604080516370a0823160e01b815230600482015290516000916e085d4780b73119b644ae5ecd22b376916370a0823191602480820192602092909190829003018186803b158015610d5357600080fd5b505afa158015610d67573d6000803e3d6000fd5b505050506040513d6020811015610d7d57600080fd5b5051905090565b604080516370a0823160e01b8152306004820152905160009173df5e0e81dff6faf3a7e52ba697820c5e32d806a8916370a0823191602480820192602092909190829003018186803b158015610d5357600080fd5b604080516370a0823160e01b815230600482015290516000916e085d4780b73119b644ae5ecd22b376916370a0823191602480820192602092909190829003018186803b158015610e2957600080fd5b505afa158015610e3d573d6000803e3d6000fd5b505050506040513d6020811015610e5357600080fd5b505190508015610f3957610e926e085d4780b73119b644ae5ecd22b3767373a052500105205d34daf004eab301916da8190f600063ffffffff61195316565b610ec66e085d4780b73119b644ae5ecd22b3767373a052500105205d34daf004eab301916da8190f8363ffffffff61195316565b7373a052500105205d34daf004eab301916da8190f6001600160a01b031663b6b55f25826040518263ffffffff1660e01b815260040180828152602001915050600060405180830381600087803b158015610f2057600080fd5b505af1158015610f34573d6000803e3d6000fd5b505050505b604080516370a0823160e01b815230600482015290516000917373a052500105205d34daf004eab301916da8190f916370a0823191602480820192602092909190829003018186803b158015610f8e57600080fd5b505afa158015610fa2573d6000803e3d6000fd5b505050506040513d6020811015610fb857600080fd5b5051905080156110e757610ff67373a052500105205d34daf004eab301916da8190f600080516020612532833981519152600063ffffffff61195316565b6110297373a052500105205d34daf004eab301916da8190f6000805160206125328339815191528363ffffffff61195316565b6000805160206125328339815191526001600160a01b031663029b2f3460405180608001604052806000815260200160008152602001600081526020018481525060006040518363ffffffff1660e01b81526004018083600460200280838360005b838110156110a357818101518382015260200161108b565b5050505090500182815260200192505050600060405180830381600087803b1580156110ce57600080fd5b505af11580156110e2573d6000803e3d6000fd5b505050505b604080516370a0823160e01b8152306004820152905160009173df5e0e81dff6faf3a7e52ba697820c5e32d806a8916370a0823191602480820192602092909190829003018186803b15801561113c57600080fd5b505afa158015611150573d6000803e3d6000fd5b505050506040513d602081101561116657600080fd5b50519050801561061a576111aa73df5e0e81dff6faf3a7e52ba697820c5e32d806a8735dbcf33d8c2e976c6b560249878e6f1491bca25c600063ffffffff61195316565b6111e373df5e0e81dff6faf3a7e52ba697820c5e32d806a8735dbcf33d8c2e976c6b560249878e6f1491bca25c8363ffffffff61195316565b735dbcf33d8c2e976c6b560249878e6f1491bca25c6001600160a01b031663b6b55f25826040518263ffffffff1660e01b815260040180828152602001915050600060405180830381600087803b15801561123d57600080fd5b505af1158015611251573d6000803e3d6000fd5b50505050505050565b6000610924670de0b6b3a7640000610b876000805160206125328339815191526001600160a01b031663bb7b8b806040518163ffffffff1660e01b815260040160206040518083038186803b1580156112b257600080fd5b505afa1580156112c6573d6000803e3d6000fd5b505050506040513d60208110156112dc57600080fd5b5051610b7b610c02565b7383f798e925bcd4017eb265844fddabb448f1707d81565b604080516370a0823160e01b81523060048201529051600091735dbcf33d8c2e976c6b560249878e6f1491bca25c916370a0823191602480820192602092909190829003018186803b158015610d5357600080fd5b736b175474e89094c44da98b954eedeac495271d0f81565b6001546001600160a01b031681565b60006113bc83836040518060400160405280601e81526020017f536166654d6174683a207375627472616374696f6e206f766572666c6f770000815250611a66565b90505b92915050565b6000806114566000805160206125328339815191526001600160a01b031663bb7b8b806040518163ffffffff1660e01b815260040160206040518083038186803b15801561141257600080fd5b505afa158015611426573d6000803e3d6000fd5b505050506040513d602081101561143c57600080fd5b5051610b8785670de0b6b3a764000063ffffffff6118b816565b905060006114ee735dbcf33d8c2e976c6b560249878e6f1491bca25c6001600160a01b03166377c7b8fc6040518163ffffffff1660e01b815260040160206040518083038186803b1580156114aa57600080fd5b505afa1580156114be573d6000803e3d6000fd5b505050506040513d60208110156114d457600080fd5b5051610b8784670de0b6b3a764000063ffffffff6118b816565b604080516370a0823160e01b8152306004820152905191925060009173df5e0e81dff6faf3a7e52ba697820c5e32d806a8916370a08231916024808301926020929190829003018186803b15801561154557600080fd5b505afa158015611559573d6000803e3d6000fd5b505050506040513d602081101561156f57600080fd5b505160408051632e1a7d4d60e01b8152600481018590529051919250735dbcf33d8c2e976c6b560249878e6f1491bca25c91632e1a7d4d9160248082019260009290919082900301818387803b1580156115c857600080fd5b505af11580156115dc573d6000803e3d6000fd5b5050604080516370a0823160e01b815230600482015290516000935073df5e0e81dff6faf3a7e52ba697820c5e32d806a892506370a0823191602480820192602092909190829003018186803b15801561163557600080fd5b505afa158015611649573d6000803e3d6000fd5b505050506040513d602081101561165f57600080fd5b5051905061167b611676828463ffffffff61137a16565b611afd565b9695505050505050565b6000828201838110156113bc576040805162461bcd60e51b815260206004820152601b60248201527f536166654d6174683a206164646974696f6e206f766572666c6f770000000000604482015290519081900360640190fd5b604080516001600160a01b038416602482015260448082018490528251808303909101815260649091019091526020810180516001600160e01b031663a9059cbb60e01b17905261061a908490612251565b604080516370a0823160e01b81523060048201529051600091735dbcf33d8c2e976c6b560249878e6f1491bca25c916370a0823191602480820192602092909190829003018186803b15801561178657600080fd5b505afa15801561179a573d6000803e3d6000fd5b505050506040513d60208110156117b057600080fd5b5051905080156118b557735dbcf33d8c2e976c6b560249878e6f1491bca25c6001600160a01b0316632e1a7d4d826040518263ffffffff1660e01b815260040180828152602001915050600060405180830381600087803b15801561181457600080fd5b505af1158015611828573d6000803e3d6000fd5b5050604080516370a0823160e01b815230600482015290516118b3935073df5e0e81dff6faf3a7e52ba697820c5e32d806a892506370a0823191602480820192602092909190829003018186803b15801561188257600080fd5b505afa158015611896573d6000803e3d6000fd5b505050506040513d60208110156118ac57600080fd5b5051611afd565b505b50565b6000826118c7575060006113bf565b828202828482816118d457fe5b04146113bc5760405162461bcd60e51b81526004018080602001828103825260218152602001806124b16021913960400191505060405180910390fd5b60006113bc83836040518060400160405280601a81526020017f536166654d6174683a206469766973696f6e206279207a65726f00000000000081525061240f565b8015806119d9575060408051636eb1769f60e11b81523060048201526001600160a01b03848116602483015291519185169163dd62ed3e91604480820192602092909190829003018186803b1580156119ab57600080fd5b505afa1580156119bf573d6000803e3d6000fd5b505050506040513d60208110156119d557600080fd5b5051155b611a145760405162461bcd60e51b81526004018080602001828103825260368152602001806124fc6036913960400191505060405180910390fd5b604080516001600160a01b038416602482015260448082018490528251808303909101815260649091019091526020810180516001600160e01b031663095ea7b360e01b17905261061a908490612251565b60008184841115611af55760405162461bcd60e51b81526004018080602001828103825283818151815260200191508051906020019080838360005b83811015611aba578181015183820152602001611aa2565b50505050905090810190601f168015611ae75780820380516001836020036101000a031916815260200191505b509250505060405180910390fd5b505050900390565b6000611b3273df5e0e81dff6faf3a7e52ba697820c5e32d806a86000805160206125328339815191528363ffffffff61195316565b611b6573df5e0e81dff6faf3a7e52ba697820c5e32d806a86000805160206125328339815191528463ffffffff61195316565b6000805160206125328339815191526001600160a01b0316637d49d87583604051806080016040528060008152602001600081526020016000815260200160008152506040518363ffffffff1660e01b81526004018083815260200182600460200280838360005b83811015611be5578181015183820152602001611bcd565b5050505090500192505050600060405180830381600087803b158015611c0a57600080fd5b505af1158015611c1e573d6000803e3d6000fd5b5050604080516370a0823160e01b81523060048201529051600093507316de59092dae5ccf4a1e6439d611fd0653f0bd0192506370a0823191602480820192602092909190829003018186803b158015611c7757600080fd5b505afa158015611c8b573d6000803e3d6000fd5b505050506040513d6020811015611ca157600080fd5b5051604080516370a0823160e01b8152306004820152905191925060009173d6ad7a6750a7593e092a9b218d66c0a814a3436e916370a08231916024808301926020929190829003018186803b158015611cfa57600080fd5b505afa158015611d0e573d6000803e3d6000fd5b505050506040513d6020811015611d2457600080fd5b5051604080516370a0823160e01b815230600482015290519192506000917383f798e925bcd4017eb265844fddabb448f1707d916370a08231916024808301926020929190829003018186803b158015611d7d57600080fd5b505afa158015611d91573d6000803e3d6000fd5b505050506040513d6020811015611da757600080fd5b505190508215611e9157611de57316de59092dae5ccf4a1e6439d611fd0653f0bd01600080516020612532833981519152600063ffffffff61195316565b611e187316de59092dae5ccf4a1e6439d611fd0653f0bd016000805160206125328339815191528563ffffffff61195316565b60408051630f7c084960e21b8152600060048201819052600360248301526044820186905260648201819052915160008051602061253283398151915292633df02124926084808201939182900301818387803b158015611e7857600080fd5b505af1158015611e8c573d6000803e3d6000fd5b505050505b8115611f7757611ecb73d6ad7a6750a7593e092a9b218d66c0a814a3436e600080516020612532833981519152600063ffffffff61195316565b611efe73d6ad7a6750a7593e092a9b218d66c0a814a3436e6000805160206125328339815191528463ffffffff61195316565b60408051630f7c084960e21b8152600160048201526003602482015260448101849052600060648201819052915160008051602061253283398151915292633df02124926084808201939182900301818387803b158015611f5e57600080fd5b505af1158015611f72573d6000803e3d6000fd5b505050505b801561205d57611fb17383f798e925bcd4017eb265844fddabb448f1707d600080516020612532833981519152600063ffffffff61195316565b611fe47383f798e925bcd4017eb265844fddabb448f1707d6000805160206125328339815191528363ffffffff61195316565b60408051630f7c084960e21b8152600260048201526003602482015260448101839052600060648201819052915160008051602061253283398151915292633df02124926084808201939182900301818387803b15801561204457600080fd5b505af1158015612058573d6000803e3d6000fd5b505050505b604080516370a0823160e01b815230600482015290516000916e085d4780b73119b644ae5ecd22b376916370a0823191602480820192602092909190829003018186803b1580156120ad57600080fd5b505afa1580156120c1573d6000803e3d6000fd5b505050506040513d60208110156120d757600080fd5b5051604080516370a0823160e01b815230600482015290519192507373a052500105205d34daf004eab301916da8190f91632e1a7d4d9183916370a0823191602480820192602092909190829003018186803b15801561213657600080fd5b505afa15801561214a573d6000803e3d6000fd5b505050506040513d602081101561216057600080fd5b5051604080516001600160e01b031960e085901b168152600481019290925251602480830192600092919082900301818387803b1580156121a057600080fd5b505af11580156121b4573d6000803e3d6000fd5b5050604080516370a0823160e01b81523060048201529051600093506e085d4780b73119b644ae5ecd22b37692506370a0823191602480820192602092909190829003018186803b15801561220857600080fd5b505afa15801561221c573d6000803e3d6000fd5b505050506040513d602081101561223257600080fd5b50519050612246818363ffffffff61137a16565b979650505050505050565b612263826001600160a01b0316612474565b6122b4576040805162461bcd60e51b815260206004820152601f60248201527f5361666545524332303a2063616c6c20746f206e6f6e2d636f6e747261637400604482015290519081900360640190fd5b60006060836001600160a01b0316836040518082805190602001908083835b602083106122f25780518252601f1990920191602091820191016122d3565b6001836020036101000a0380198251168184511680821785525050505050509050019150506000604051808303816000865af19150503d8060008114612354576040519150601f19603f3d011682016040523d82523d6000602084013e612359565b606091505b5091509150816123b0576040805162461bcd60e51b815260206004820181905260248201527f5361666545524332303a206c6f772d6c6576656c2063616c6c206661696c6564604482015290519081900360640190fd5b805115612409578080602001905160208110156123cc57600080fd5b50516124095760405162461bcd60e51b815260040180806020018281038252602a8152602001806124d2602a913960400191505060405180910390fd5b50505050565b6000818361245e5760405162461bcd60e51b8152602060048201818152835160248401528351909283926044909101919085019080838360008315611aba578181015183820152602001611aa2565b50600083858161246a57fe5b0495945050505050565b6000813f7fc5d2460186f7233c927e7db2dcc703c0e500b653ca82273b7bfad8045d85a4708181148015906124a857508115155b94935050505056fe536166654d6174683a206d756c7469706c69636174696f6e206f766572666c6f775361666545524332303a204552433230206f7065726174696f6e20646964206e6f7420737563636565645361666545524332303a20617070726f76652066726f6d206e6f6e2d7a65726f20746f206e6f6e2d7a65726f20616c6c6f77616e636500000000000000000000000045f783cce6b7ff23b2ab2d70e416cdb7d6055f51a265627a7a72315820b4e9d05af0bf08b5b07b34ee50419abc8cc887953e8b90864d566af1ea74d35f64736f6c63430005110032",
  "source": "// SPDX-License-Identifier: MIT\n\npragma solidity ^0.5.17;\n\nimport \"@openzeppelinV2/contracts/token/ERC20/IERC20.sol\";\nimport \"@openzeppelinV2/contracts/math/SafeMath.sol\";\nimport \"@openzeppelinV2/contracts/utils/Address.sol\";\nimport \"@openzeppelinV2/contracts/token/ERC20/SafeERC20.sol\";\n\nimport \"../../interfaces/curve/Curve.sol\";\nimport \"../../interfaces/uniswap/Uni.sol\";\nimport \"../../interfaces/curve/Mintr.sol\";\n\nimport \"../../interfaces/yearn/IController.sol\";\nimport \"../../interfaces/yearn/IToken.sol\";\n\ncontract StrategyTUSDCurve {\n    using SafeERC20 for IERC20;\n    using Address for address;\n    using SafeMath for uint256;\n\n    address public constant want = address(0x0000000000085d4780B73119b644AE5ecd22b376);\n    address public constant y = address(0x73a052500105205d34Daf004eAb301916DA8190f);\n    address public constant ycrv = address(0xdF5e0e81Dff6FAF3A7e52BA697820c5e32D806A8);\n    address public constant yycrv = address(0x5dbcF33D8c2E976c6b560249878e6F1491Bca25c);\n    address public constant curve = address(0x45F783CCE6B7FF23B2ab2D70e416cdb7D6055f51);\n\n    address public constant dai = address(0x6B175474E89094C44Da98b954EedeAC495271d0F);\n    address public constant ydai = address(0x16de59092dAE5CcF4A1E6439D611fd0653f0Bd01);\n\n    address public constant usdc = address(0xA0b86991c6218b36c1d19D4a2e9Eb0cE3606eB48);\n    address public constant yusdc = address(0xd6aD7a6750A7593E092a9B218d66C0A814a3436e);\n\n    address public constant usdt = address(0xdAC17F958D2ee523a2206206994597C13D831ec7);\n    address public constant yusdt = address(0x83f798e925BcD4017Eb265844FDDAbb448f1707D);\n\n    address public constant tusd = address(0x0000000000085d4780B73119b644AE5ecd22b376);\n    address public constant ytusd = address(0x73a052500105205d34Daf004eAb301916DA8190f);\n\n    address public governance;\n    address public controller;\n\n    constructor(address _controller) public {\n        governance = msg.sender;\n        controller = _controller;\n    }\n\n    function getName() external pure returns (string memory) {\n        return \"StrategyTUSDCurve\";\n    }\n\n    function deposit() public {\n        uint256 _want = IERC20(want).balanceOf(address(this));\n        if (_want > 0) {\n            IERC20(want).safeApprove(y, 0);\n            IERC20(want).safeApprove(y, _want);\n            yERC20(y).deposit(_want);\n        }\n        uint256 _y = IERC20(y).balanceOf(address(this));\n        if (_y > 0) {\n            IERC20(y).safeApprove(curve, 0);\n            IERC20(y).safeApprove(curve, _y);\n            ICurveFi(curve).add_liquidity([0, 0, 0, _y], 0);\n        }\n        uint256 _ycrv = IERC20(ycrv).balanceOf(address(this));\n        if (_ycrv > 0) {\n            IERC20(ycrv).safeApprove(yycrv, 0);\n            IERC20(ycrv).safeApprove(yycrv, _ycrv);\n            yERC20(yycrv).deposit(_ycrv);\n        }\n    }\n\n    // Controller only function for creating additional rewards from dust\n    function withdraw(IERC20 _asset) external returns (uint256 balance) {\n        require(msg.sender == controller, \"!controller\");\n        require(want != address(_asset), \"want\");\n        require(y != address(_asset), \"y\");\n        require(ycrv != address(_asset), \"ycrv\");\n        require(yycrv != address(_asset), \"yycrv\");\n        balance = _asset.balanceOf(address(this));\n        _asset.safeTransfer(controller, balance);\n    }\n\n    // Withdraw partial funds, normally used with a vault withdrawal\n    function withdraw(uint256 _amount) external {\n        require(msg.sender == controller, \"!controller\");\n        uint256 _balance = IERC20(want).balanceOf(address(this));\n        if (_balance < _amount) {\n            _amount = _withdrawSome(_amount.sub(_balance));\n            _amount = _amount.add(_balance);\n        }\n\n        address _vault = IController(controller).vaults(address(want));\n        require(_vault != address(0), \"!vault\"); // additional protection so we don't burn the funds\n        IERC20(want).safeTransfer(_vault, _amount);\n    }\n\n    // Withdraw all funds, normally used when migrating strategies\n    function withdrawAll() external returns (uint256 balance) {\n        require(msg.sender == controller, \"!controller\");\n        _withdrawAll();\n\n        balance = IERC20(want).balanceOf(address(this));\n\n        address _vault = IController(controller).vaults(address(want));\n        require(_vault != address(0), \"!vault\"); // additional protection so we don't burn the funds\n        IERC20(want).safeTransfer(_vault, balance);\n    }\n\n    function withdrawTUSD(uint256 _amount) internal returns (uint256) {\n        IERC20(ycrv).safeApprove(curve, 0);\n        IERC20(ycrv).safeApprove(curve, _amount);\n        ICurveFi(curve).remove_liquidity(_amount, [uint256(0), 0, 0, 0]);\n\n        uint256 _ydai = IERC20(ydai).balanceOf(address(this));\n        uint256 _yusdc = IERC20(yusdc).balanceOf(address(this));\n        uint256 _yusdt = IERC20(yusdt).balanceOf(address(this));\n\n        if (_ydai > 0) {\n            IERC20(ydai).safeApprove(curve, 0);\n            IERC20(ydai).safeApprove(curve, _ydai);\n            ICurveFi(curve).exchange(0, 3, _ydai, 0);\n        }\n        if (_yusdc > 0) {\n            IERC20(yusdc).safeApprove(curve, 0);\n            IERC20(yusdc).safeApprove(curve, _yusdc);\n            ICurveFi(curve).exchange(1, 3, _yusdc, 0);\n        }\n        if (_yusdt > 0) {\n            IERC20(yusdt).safeApprove(curve, 0);\n            IERC20(yusdt).safeApprove(curve, _yusdt);\n            ICurveFi(curve).exchange(2, 3, _yusdt, 0);\n        }\n\n        uint256 _before = IERC20(want).balanceOf(address(this));\n        yERC20(ytusd).withdraw(IERC20(ytusd).balanceOf(address(this)));\n        uint256 _after = IERC20(want).balanceOf(address(this));\n\n        return _after.sub(_before);\n    }\n\n    function _withdrawAll() internal {\n        uint256 _yycrv = IERC20(yycrv).balanceOf(address(this));\n        if (_yycrv > 0) {\n            yERC20(yycrv).withdraw(_yycrv);\n            withdrawTUSD(IERC20(ycrv).balanceOf(address(this)));\n        }\n    }\n\n    function _withdrawSome(uint256 _amount) internal returns (uint256) {\n        // calculate amount of ycrv to withdraw for amount of _want_\n        uint256 _ycrv = _amount.mul(1e18).div(ICurveFi(curve).get_virtual_price());\n        // calculate amount of yycrv to withdraw for amount of _ycrv_\n        uint256 _yycrv = _ycrv.mul(1e18).div(yERC20(yycrv).getPricePerFullShare());\n        uint256 _before = IERC20(ycrv).balanceOf(address(this));\n        yERC20(yycrv).withdraw(_yycrv);\n        uint256 _after = IERC20(ycrv).balanceOf(address(this));\n        return withdrawTUSD(_after.sub(_before));\n    }\n\n    function balanceOfWant() public view returns (uint256) {\n        return IERC20(want).balanceOf(address(this));\n    }\n\n    function balanceOfYYCRV() public view returns (uint256) {\n        return IERC20(yycrv).balanceOf(address(this));\n    }\n\n    function balanceOfYYCRVinYCRV() public view returns (uint256) {\n        return balanceOfYYCRV().mul(yERC20(yycrv).getPricePerFullShare()).div(1e18);\n    }\n\n    function balanceOfYYCRVinyTUSD() public view returns (uint256) {\n        return balanceOfYYCRVinYCRV().mul(ICurveFi(curve).get_virtual_price()).div(1e18);\n    }\n\n    function balanceOfYCRV() public view returns (uint256) {\n        return IERC20(ycrv).balanceOf(address(this));\n    }\n\n    function balanceOfYCRVyTUSD() public view returns (uint256) {\n        return balanceOfYCRV().mul(ICurveFi(curve).get_virtual_price()).div(1e18);\n    }\n\n    function balanceOf() public view returns (uint256) {\n        return balanceOfWant().add(balanceOfYYCRVinyTUSD());\n    }\n\n    function setGovernance(address _governance) external {\n        require(msg.sender == governance, \"!governance\");\n        governance = _governance;\n    }\n\n    function setController(address _controller) external {\n        require(msg.sender == governance, \"!governance\");\n        controller = _controller;\n    }\n}\n",
  "sourcePath": "/Users/sbacha/V2yearn/contracts/strategies/StrategyTUSDCurve.sol",
  "compiler": {
    "name": "solc",
    "version": "0.5.17+commit.d19bba13.Emscripten.clang"
  },
  "schemaVersion": "3.1.0",
  "updatedAt": "2020-11-01T01:33:12.845Z",
  "devdoc": {
    "methods": {}
  },
  "userdoc": {
    "methods": {}
  }
}