{
  "contractName": "StrategyUSDT3pool",
  "abi": [
    {
      "inputs": [
        {
          "internalType": "address",
          "name": "_controller",
          "type": "address"
        }
      ],
      "payable": false,
      "stateMutability": "nonpayable",
      "type": "constructor"
    },
    {
      "anonymous": false,
      "inputs": [
        {
          "indexed": true,
          "internalType": "address",
          "name": "strategy",
          "type": "address"
        }
      ],
      "name": "Threshold",
      "type": "event"
    },
    {
      "constant": true,
      "inputs": [],
      "name": "DENOMINATOR",
      "outputs": [
        {
          "internalType": "uint256",
          "name": "",
          "type": "uint256"
        }
      ],
      "payable": false,
      "stateMutability": "view",
      "type": "function"
    },
    {
      "constant": true,
      "inputs": [],
      "name": "_3crv",
      "outputs": [
        {
          "internalType": "address",
          "name": "",
          "type": "address"
        }
      ],
      "payable": false,
      "stateMutability": "view",
      "type": "function"
    },
    {
      "constant": true,
      "inputs": [],
      "name": "_3pool",
      "outputs": [
        {
          "internalType": "address",
          "name": "",
          "type": "address"
        }
      ],
      "payable": false,
      "stateMutability": "view",
      "type": "function"
    },
    {
      "constant": true,
      "inputs": [],
      "name": "controller",
      "outputs": [
        {
          "internalType": "address",
          "name": "",
          "type": "address"
        }
      ],
      "payable": false,
      "stateMutability": "view",
      "type": "function"
    },
    {
      "constant": true,
      "inputs": [],
      "name": "governance",
      "outputs": [
        {
          "internalType": "address",
          "name": "",
          "type": "address"
        }
      ],
      "payable": false,
      "stateMutability": "view",
      "type": "function"
    },
    {
      "constant": true,
      "inputs": [],
      "name": "p",
      "outputs": [
        {
          "internalType": "uint256",
          "name": "",
          "type": "uint256"
        }
      ],
      "payable": false,
      "stateMutability": "view",
      "type": "function"
    },
    {
      "constant": true,
      "inputs": [],
      "name": "slip",
      "outputs": [
        {
          "internalType": "uint256",
          "name": "",
          "type": "uint256"
        }
      ],
      "payable": false,
      "stateMutability": "view",
      "type": "function"
    },
    {
      "constant": true,
      "inputs": [],
      "name": "strategist",
      "outputs": [
        {
          "internalType": "address",
          "name": "",
          "type": "address"
        }
      ],
      "payable": false,
      "stateMutability": "view",
      "type": "function"
    },
    {
      "constant": true,
      "inputs": [],
      "name": "strategistReward",
      "outputs": [
        {
          "internalType": "uint256",
          "name": "",
          "type": "uint256"
        }
      ],
      "payable": false,
      "stateMutability": "view",
      "type": "function"
    },
    {
      "constant": true,
      "inputs": [],
      "name": "tank",
      "outputs": [
        {
          "internalType": "uint256",
          "name": "",
          "type": "uint256"
        }
      ],
      "payable": false,
      "stateMutability": "view",
      "type": "function"
    },
    {
      "constant": true,
      "inputs": [],
      "name": "threshold",
      "outputs": [
        {
          "internalType": "uint256",
          "name": "",
          "type": "uint256"
        }
      ],
      "payable": false,
      "stateMutability": "view",
      "type": "function"
    },
    {
      "constant": true,
      "inputs": [],
      "name": "treasuryFee",
      "outputs": [
        {
          "internalType": "uint256",
          "name": "",
          "type": "uint256"
        }
      ],
      "payable": false,
      "stateMutability": "view",
      "type": "function"
    },
    {
      "constant": true,
      "inputs": [],
      "name": "want",
      "outputs": [
        {
          "internalType": "address",
          "name": "",
          "type": "address"
        }
      ],
      "payable": false,
      "stateMutability": "view",
      "type": "function"
    },
    {
      "constant": true,
      "inputs": [],
      "name": "withdrawalFee",
      "outputs": [
        {
          "internalType": "uint256",
          "name": "",
          "type": "uint256"
        }
      ],
      "payable": false,
      "stateMutability": "view",
      "type": "function"
    },
    {
      "constant": true,
      "inputs": [],
      "name": "y3crv",
      "outputs": [
        {
          "internalType": "address",
          "name": "",
          "type": "address"
        }
      ],
      "payable": false,
      "stateMutability": "view",
      "type": "function"
    },
    {
      "constant": true,
      "inputs": [],
      "name": "getName",
      "outputs": [
        {
          "internalType": "string",
          "name": "",
          "type": "string"
        }
      ],
      "payable": false,
      "stateMutability": "pure",
      "type": "function"
    },
    {
      "constant": false,
      "inputs": [],
      "name": "deposit",
      "outputs": [],
      "payable": false,
      "stateMutability": "nonpayable",
      "type": "function"
    },
    {
      "constant": false,
      "inputs": [
        {
          "internalType": "uint256",
          "name": "_amount",
          "type": "uint256"
        }
      ],
      "name": "withdraw",
      "outputs": [],
      "payable": false,
      "stateMutability": "nonpayable",
      "type": "function"
    },
    {
      "constant": false,
      "inputs": [
        {
          "internalType": "contract IERC20",
          "name": "_asset",
          "type": "address"
        }
      ],
      "name": "withdraw",
      "outputs": [
        {
          "internalType": "uint256",
          "name": "balance",
          "type": "uint256"
        }
      ],
      "payable": false,
      "stateMutability": "nonpayable",
      "type": "function"
    },
    {
      "constant": false,
      "inputs": [],
      "name": "withdrawAll",
      "outputs": [
        {
          "internalType": "uint256",
          "name": "balance",
          "type": "uint256"
        }
      ],
      "payable": false,
      "stateMutability": "nonpayable",
      "type": "function"
    },
    {
      "constant": true,
      "inputs": [],
      "name": "balanceOfWant",
      "outputs": [
        {
          "internalType": "uint256",
          "name": "",
          "type": "uint256"
        }
      ],
      "payable": false,
      "stateMutability": "view",
      "type": "function"
    },
    {
      "constant": true,
      "inputs": [],
      "name": "balanceOf3CRV",
      "outputs": [
        {
          "internalType": "uint256",
          "name": "",
          "type": "uint256"
        }
      ],
      "payable": false,
      "stateMutability": "view",
      "type": "function"
    },
    {
      "constant": true,
      "inputs": [],
      "name": "balanceOf3CRVinWant",
      "outputs": [
        {
          "internalType": "uint256",
          "name": "",
          "type": "uint256"
        }
      ],
      "payable": false,
      "stateMutability": "view",
      "type": "function"
    },
    {
      "constant": true,
      "inputs": [],
      "name": "balanceOfy3CRV",
      "outputs": [
        {
          "internalType": "uint256",
          "name": "",
          "type": "uint256"
        }
      ],
      "payable": false,
      "stateMutability": "view",
      "type": "function"
    },
    {
      "constant": true,
      "inputs": [],
      "name": "balanceOfy3CRVin3CRV",
      "outputs": [
        {
          "internalType": "uint256",
          "name": "",
          "type": "uint256"
        }
      ],
      "payable": false,
      "stateMutability": "view",
      "type": "function"
    },
    {
      "constant": true,
      "inputs": [],
      "name": "balanceOfy3CRVinWant",
      "outputs": [
        {
          "internalType": "uint256",
          "name": "",
          "type": "uint256"
        }
      ],
      "payable": false,
      "stateMutability": "view",
      "type": "function"
    },
    {
      "constant": true,
      "inputs": [],
      "name": "balanceOf",
      "outputs": [
        {
          "internalType": "uint256",
          "name": "",
          "type": "uint256"
        }
      ],
      "payable": false,
      "stateMutability": "view",
      "type": "function"
    },
    {
      "constant": false,
      "inputs": [
        {
          "internalType": "address",
          "name": "_strategy",
          "type": "address"
        }
      ],
      "name": "migrate",
      "outputs": [],
      "payable": false,
      "stateMutability": "nonpayable",
      "type": "function"
    },
    {
      "constant": false,
      "inputs": [
        {
          "internalType": "uint256",
          "name": "_amount",
          "type": "uint256"
        }
      ],
      "name": "forceD",
      "outputs": [],
      "payable": false,
      "stateMutability": "nonpayable",
      "type": "function"
    },
    {
      "constant": false,
      "inputs": [
        {
          "internalType": "uint256",
          "name": "_amt",
          "type": "uint256"
        }
      ],
      "name": "forceW",
      "outputs": [],
      "payable": false,
      "stateMutability": "nonpayable",
      "type": "function"
    },
    {
      "constant": false,
      "inputs": [],
      "name": "drip",
      "outputs": [],
      "payable": false,
      "stateMutability": "nonpayable",
      "type": "function"
    },
    {
      "constant": true,
      "inputs": [],
      "name": "tick",
      "outputs": [
        {
          "internalType": "uint256",
          "name": "_t",
          "type": "uint256"
        },
        {
          "internalType": "uint256",
          "name": "_c",
          "type": "uint256"
        }
      ],
      "payable": false,
      "stateMutability": "view",
      "type": "function"
    },
    {
      "constant": false,
      "inputs": [],
      "name": "rebalance",
      "outputs": [],
      "payable": false,
      "stateMutability": "nonpayable",
      "type": "function"
    },
    {
      "constant": false,
      "inputs": [
        {
          "internalType": "address",
          "name": "_governance",
          "type": "address"
        }
      ],
      "name": "setGovernance",
      "outputs": [],
      "payable": false,
      "stateMutability": "nonpayable",
      "type": "function"
    },
    {
      "constant": false,
      "inputs": [
        {
          "internalType": "address",
          "name": "_controller",
          "type": "address"
        }
      ],
      "name": "setIController",
      "outputs": [],
      "payable": false,
      "stateMutability": "nonpayable",
      "type": "function"
    },
    {
      "constant": false,
      "inputs": [
        {
          "internalType": "address",
          "name": "_strategist",
          "type": "address"
        }
      ],
      "name": "setStrategist",
      "outputs": [],
      "payable": false,
      "stateMutability": "nonpayable",
      "type": "function"
    },
    {
      "constant": false,
      "inputs": [
        {
          "internalType": "uint256",
          "name": "_withdrawalFee",
          "type": "uint256"
        }
      ],
      "name": "setWithdrawalFee",
      "outputs": [],
      "payable": false,
      "stateMutability": "nonpayable",
      "type": "function"
    },
    {
      "constant": false,
      "inputs": [
        {
          "internalType": "uint256",
          "name": "_treasuryFee",
          "type": "uint256"
        }
      ],
      "name": "setTreasuryFee",
      "outputs": [],
      "payable": false,
      "stateMutability": "nonpayable",
      "type": "function"
    },
    {
      "constant": false,
      "inputs": [
        {
          "internalType": "uint256",
          "name": "_strategistReward",
          "type": "uint256"
        }
      ],
      "name": "setStrategistReward",
      "outputs": [],
      "payable": false,
      "stateMutability": "nonpayable",
      "type": "function"
    },
    {
      "constant": false,
      "inputs": [
        {
          "internalType": "uint256",
          "name": "_threshold",
          "type": "uint256"
        }
      ],
      "name": "setThreshold",
      "outputs": [],
      "payable": false,
      "stateMutability": "nonpayable",
      "type": "function"
    },
    {
      "constant": false,
      "inputs": [
        {
          "internalType": "uint256",
          "name": "_slip",
          "type": "uint256"
        }
      ],
      "name": "setSlip",
      "outputs": [],
      "payable": false,
      "stateMutability": "nonpayable",
      "type": "function"
    }
  ],
  "bytecode": "0x60806040526101f46003556000600455603260055561177060065560646007556000600855600060095534801561003557600080fd5b506040516134b43803806134b48339818101604052602081101561005857600080fd5b505160008054336001600160a01b0319918216811783556002805483169091179055600180549091166001600160a01b03909316929092179091556134119081906100a390396000f3fe608060405234801561001057600080fd5b50600436106102535760003560e01c80637d7c2a1c11610146578063ac24164e116100c3578063cc32d17611610087578063cc32d17614610539578063ce5494bb14610541578063cfc74cec14610567578063d0e30db01461056f578063da27550514610577578063f77c47911461059457610253565b8063ac24164e146104f3578063acd82931146104fb578063b7f01bfc14610503578063c1a3d44c1461050b578063c7b9d5301461051357610253565b8063960bfe041161010a578063960bfe04146104835780639ae8886a146104a05780639f678cca146104a8578063ab033ea9146104b0578063ac1e5025146104d657610253565b80637d7c2a1c1461045b5780638158676e14610463578063853828b61461046b5780638bc7e8c414610473578063918f86741461047b57610253565b8063392c731f116101d457806351cff8d91161019857806351cff8d9146104005780635aa6e67514610426578063722713f71461042e57806374637aaa1461043657806377e741c71461043e57610253565b8063392c731f146103bf5780633eaf5d9f146103c757806341f9ae04146103e857806342cde4e8146103f05780634580ea88146103f857610253565b80631f1fcd511161021b5780631f1fcd51146103485780631fe4a6861461036c578063200233d2146103745780632e1a7d4d1461039a57806330c28323146103b757610253565b80630d596cdf1461025857806313b857b41461027757806313d8fdbc14610294578063168ee475146102b157806317d7de7c146102cb575b600080fd5b6102756004803603602081101561026e57600080fd5b503561059c565b005b6102756004803603602081101561028d57600080fd5b50356105ee565b610275600480360360208110156102aa57600080fd5b503561064d565b6102b9610a23565b60408051918252519081900360200190f35b6102d3610ac5565b6040805160208082528351818301528351919283929083019185019080838360005b8381101561030d5781810151838201526020016102f5565b50505050905090810190601f16801561033a5780820380516001836020036101000a031916815260200191505b509250505060405180910390f35b610350610af0565b604080516001600160a01b039092168252519081900360200190f35b610350610b02565b6102756004803603602081101561038a57600080fd5b50356001600160a01b0316610b11565b610275600480360360208110156103b057600080fd5b5035610b80565b6102b9610e73565b6102b9610ef3565b6103cf610ef9565b6040805192835260208301919091528051918290030190f35b6102b9610fa6565b6102b9611032565b6102b9611038565b6102b96004803603602081101561041657600080fd5b50356001600160a01b03166110c9565b6103506112b1565b6102b96112c0565b6103506112e1565b6102756004803603602081101561045457600080fd5b50356112f3565b610275611345565b6102b96114a3565b6102b96114a9565b6102b961166c565b6102b9611672565b6102756004803603602081101561049957600080fd5b5035611678565b6102b96116d7565b6102756116dd565b610275600480360360208110156104c657600080fd5b50356001600160a01b0316611a01565b610275600480360360208110156104ec57600080fd5b5035611a70565b610350611ac2565b6102b9611ad4565b6102b9611b23565b6102b9611b29565b6102756004803603602081101561052957600080fd5b50356001600160a01b0316611b78565b6102b9611bf4565b6102756004803603602081101561055757600080fd5b50356001600160a01b0316611bfa565b610350611ee5565b610275611ef7565b6102756004803603602081101561058d57600080fd5b50356122e6565b610350612702565b6000546001600160a01b031633146105e9576040805162461bcd60e51b815260206004820152600b60248201526a21676f7665726e616e636560a81b604482015290519081900360640190fd5b600555565b6002546001600160a01b031633148061061157506000546001600160a01b031633145b610648576040805162461bcd60e51b815260206004820152600360248201526221736760e81b604482015290519081900360640190fd5b600755565b6000546001600160a01b031633148061067057506002546001600160a01b031633145b8061068557506001546001600160a01b031633145b8061068f57503330145b6106ce576040805162461bcd60e51b815260206004820152600b60248201526a08585d5d1a1bdc9a5e995960aa1b604482015290519081900360640190fd5b6106fc60008051602061331d83398151915260008051602061333d833981519152600063ffffffff61271116565b61072960008051602061331d83398151915260008051602061333d8339815191528363ffffffff61271116565b60006107ca60008051602061333d8339815191526001600160a01b031663bb7b8b806040518163ffffffff1660e01b815260040160206040518083038186803b15801561077557600080fd5b505afa158015610789573d6000803e3d6000fd5b505050506040513d602081101561079f57600080fd5b50516107be846c0c9f2c9cd04674edea4000000063ffffffff61282916565b9063ffffffff61288b16565b905060008051602061333d8339815191526001600160a01b0316634515cef360405180606001604052806000815260200160008152602001858152506108336127106107be6108266007546127106128cd90919063ffffffff16565b879063ffffffff61282916565b6040516001600160e01b031960e085901b1681526004018083606080838360005b8381101561086c578181015183820152602001610854565b5050505090500182815260200192505050600060405180830381600087803b15801561089757600080fd5b505af11580156108ab573d6000803e3d6000fd5b505050506008548210156108d4576008546108cc908363ffffffff6128cd16565b6008556108da565b60006008555b604080516370a0823160e01b815230600482015290516000916000805160206132dc833981519152916370a0823191602480820192602092909190829003018186803b15801561092957600080fd5b505afa15801561093d573d6000803e3d6000fd5b505050506040513d602081101561095357600080fd5b505190506109856000805160206132dc833981519152600080516020613387833981519152600063ffffffff61271116565b6109b26000805160206132dc8339815191526000805160206133878339815191528363ffffffff61271116565b6000805160206133878339815191526001600160a01b031663b6b55f25826040518263ffffffff1660e01b815260040180828152602001915050600060405180830381600087803b158015610a0657600080fd5b505af1158015610a1a573d6000803e3d6000fd5b50505050505050565b6000610ac06c0c9f2c9cd04674edea400000006107be60008051602061333d8339815191526001600160a01b031663bb7b8b806040518163ffffffff1660e01b815260040160206040518083038186803b158015610a8057600080fd5b505afa158015610a94573d6000803e3d6000fd5b505050506040513d6020811015610aaa57600080fd5b5051610ab4610fa6565b9063ffffffff61282916565b905090565b60408051808201909152601181527014dd1c985d1959de5554d1150cdc1bdbdb607a1b602082015290565b60008051602061331d83398151915281565b6002546001600160a01b031681565b6000546001600160a01b03163314610b5e576040805162461bcd60e51b815260206004820152600b60248201526a21676f7665726e616e636560a81b604482015290519081900360640190fd5b600180546001600160a01b0319166001600160a01b0392909216919091179055565b6001546001600160a01b03163314610bcd576040805162461bcd60e51b815260206004820152600b60248201526a10b1b7b73a3937b63632b960a91b604482015290519081900360640190fd5b610bd5611345565b604080516370a0823160e01b8152306004820152905160009160008051602061331d833981519152916370a0823191602480820192602092909190829003018186803b158015610c2457600080fd5b505afa158015610c38573d6000803e3d6000fd5b505050506040513d6020811015610c4e57600080fd5b5051905081811015610c9057610c72610c6d838363ffffffff6128cd16565b61290f565b9150610c84828263ffffffff612bbc16565b60006008559150610cba565b8160085410610cb457600854610cac908363ffffffff6128cd16565b600855610cba565b60006008555b60015460408051632988bb9f60e21b815260008051602061331d833981519152600482015290516000926001600160a01b03169163a622ee7c916024808301926020929190829003018186803b158015610d1357600080fd5b505afa158015610d27573d6000803e3d6000fd5b505050506040513d6020811015610d3d57600080fd5b505190506001600160a01b038116610d85576040805162461bcd60e51b8152602060048201526006602482015265085d985d5b1d60d21b604482015290519081900360640190fd5b6000610da26127106107be6004548761282990919063ffffffff16565b9050610e3d600160009054906101000a90046001600160a01b03166001600160a01b0316639ec5a8946040518163ffffffff1660e01b815260040160206040518083038186803b158015610df557600080fd5b505afa158015610e09573d6000803e3d6000fd5b505050506040513d6020811015610e1f57600080fd5b505160008051602061331d833981519152908363ffffffff612c1616565b610e6d82610e51868463ffffffff6128cd16565b60008051602061331d833981519152919063ffffffff612c1616565b50505050565b604080516370a0823160e01b81523060048201529051600091600080516020613387833981519152916370a0823191602480820192602092909190829003018186803b158015610ec257600080fd5b505afa158015610ed6573d6000803e3d6000fd5b505050506040513d6020811015610eec57600080fd5b5051905090565b60075481565b600080610f966127106107be60065460008051602061333d8339815191526001600160a01b031663065a80d860026040518263ffffffff1660e01b81526004018082600f0b815260200191505060206040518083038186803b158015610f5e57600080fd5b505afa158015610f72573d6000803e3d6000fd5b505050506040513d6020811015610f8857600080fd5b50519063ffffffff61282916565b9150610fa0610a23565b90509091565b6000610ac0670de0b6b3a76400006107be6000805160206133878339815191526001600160a01b03166377c7b8fc6040518163ffffffff1660e01b815260040160206040518083038186803b158015610ffe57600080fd5b505afa158015611012573d6000803e3d6000fd5b505050506040513d602081101561102857600080fd5b5051610ab4610e73565b60065481565b6000610ac06c0c9f2c9cd04674edea400000006107be60008051602061333d8339815191526001600160a01b031663bb7b8b806040518163ffffffff1660e01b815260040160206040518083038186803b15801561109557600080fd5b505afa1580156110a9573d6000803e3d6000fd5b505050506040513d60208110156110bf57600080fd5b5051610ab4611ad4565b6001546000906001600160a01b03163314611119576040805162461bcd60e51b815260206004820152600b60248201526a10b1b7b73a3937b63632b960a91b604482015290519081900360640190fd5b60008051602061331d8339815191526001600160a01b038316141561116e576040805162461bcd60e51b815260206004808301919091526024820152631dd85b9d60e21b604482015290519081900360640190fd5b6000805160206132dc8339815191526001600160a01b03831614156111c3576040805162461bcd60e51b8152602060048083019190915260248201526319b1b93b60e11b604482015290519081900360640190fd5b6000805160206133878339815191526001600160a01b0383161415611217576040805162461bcd60e51b81526020600482015260056024820152643c99b1b93b60d91b604482015290519081900360640190fd5b604080516370a0823160e01b815230600482015290516001600160a01b038416916370a08231916024808301926020929190829003018186803b15801561125d57600080fd5b505afa158015611271573d6000803e3d6000fd5b505050506040513d602081101561128757600080fd5b50516001549091506112ac906001600160a01b0384811691168363ffffffff612c1616565b919050565b6000546001600160a01b031681565b6000610ac06112cd610a23565b6112d5611b29565b9063ffffffff612bbc16565b60008051602061338783398151915281565b6000546001600160a01b03163314611340576040805162461bcd60e51b815260206004820152600b60248201526a21676f7665726e616e636560a81b604482015290519081900360640190fd5b600355565b6000546001600160a01b031633148061136857506002546001600160a01b031633145b8061137d57506001546001600160a01b031633145b8061138757503330145b6113c6576040805162461bcd60e51b815260206004820152600b60248201526a08585d5d1a1bdc9a5e995960aa1b604482015290519081900360640190fd5b6113ce6116dd565b6000806113d9610ef9565b915091508181111561149f576113f8610c6d828463ffffffff6128cd16565b50604080516370a0823160e01b8152306004820152905160008051602061331d833981519152916370a08231916024808301926020929190829003018186803b15801561144457600080fd5b505afa158015611458573d6000803e3d6000fd5b505050506040513d602081101561146e57600080fd5b505160085560405130907f03fbec337411757d01c2da1b25d2ebb49aabdc8cdab4816d2307ea3bb00bc20a90600090a25b5050565b60055481565b6001546000906001600160a01b031633146114f9576040805162461bcd60e51b815260206004820152600b60248201526a10b1b7b73a3937b63632b960a91b604482015290519081900360640190fd5b611501612c68565b604080516370a0823160e01b8152306004820152905160008051602061331d833981519152916370a08231916024808301926020929190829003018186803b15801561154c57600080fd5b505afa158015611560573d6000803e3d6000fd5b505050506040513d602081101561157657600080fd5b505160015460408051632988bb9f60e21b815260008051602061331d833981519152600482015290519293506000926001600160a01b039092169163a622ee7c91602480820192602092909190829003018186803b1580156115d757600080fd5b505afa1580156115eb573d6000803e3d6000fd5b505050506040513d602081101561160157600080fd5b505190506001600160a01b038116611649576040805162461bcd60e51b8152602060048201526006602482015265085d985d5b1d60d21b604482015290519081900360640190fd5b61166860008051602061331d833981519152828463ffffffff612c1616565b5090565b60045481565b61271081565b6002546001600160a01b031633148061169b57506000546001600160a01b031633145b6116d2576040805162461bcd60e51b815260206004820152600360248201526221736760e81b604482015290519081900360640190fd5b600655565b60095481565b6000546001600160a01b031633148061170057506002546001600160a01b031633145b8061171557506001546001600160a01b031633145b8061171f57503330145b61175e576040805162461bcd60e51b815260206004820152600b60248201526a08585d5d1a1bdc9a5e995960aa1b604482015290519081900360640190fd5b60006000805160206133878339815191526001600160a01b03166377c7b8fc6040518163ffffffff1660e01b815260040160206040518083038186803b1580156117a757600080fd5b505afa1580156117bb573d6000803e3d6000fd5b505050506040513d60208110156117d157600080fd5b505160408051630176f71760e71b8152905191925061186691670de0b6b3a7640000916107be9160008051602061333d8339815191529163bb7b8b80916004808301926020929190829003018186803b15801561182d57600080fd5b505afa158015611841573d6000803e3d6000fd5b505050506040513d602081101561185757600080fd5b5051849063ffffffff61282916565b90506009548110156118aa576040805162461bcd60e51b8152602060048201526008602482015267189858daddd85c9960c21b604482015290519081900360640190fd5b60006118d7670de0b6b3a76400006107be6118c3610e73565b600954610ab490879063ffffffff6128cd16565b905060006118f66127106107be6005548561282990919063ffffffff16565b600254909150611941906001600160a01b0316611925856107be85670de0b6b3a764000063ffffffff61282916565b600080516020613387833981519152919063ffffffff612c1616565b600061195e6127106107be6003548661282990919063ffffffff16565b90506119f9600160009054906101000a90046001600160a01b03166001600160a01b0316639ec5a8946040518163ffffffff1660e01b815260040160206040518083038186803b1580156119b157600080fd5b505afa1580156119c5573d6000803e3d6000fd5b505050506040513d60208110156119db57600080fd5b5051611925866107be85670de0b6b3a764000063ffffffff61282916565b505050600955565b6000546001600160a01b03163314611a4e576040805162461bcd60e51b815260206004820152600b60248201526a21676f7665726e616e636560a81b604482015290519081900360640190fd5b600080546001600160a01b0319166001600160a01b0392909216919091179055565b6000546001600160a01b03163314611abd576040805162461bcd60e51b815260206004820152600b60248201526a21676f7665726e616e636560a81b604482015290519081900360640190fd5b600455565b60008051602061333d83398151915281565b604080516370a0823160e01b815230600482015290516000916000805160206132dc833981519152916370a0823191602480820192602092909190829003018186803b158015610ec257600080fd5b60085481565b604080516370a0823160e01b8152306004820152905160009160008051602061331d833981519152916370a0823191602480820192602092909190829003018186803b158015610ec257600080fd5b6000546001600160a01b0316331480611b9b57506002546001600160a01b031633145b611bd2576040805162461bcd60e51b815260206004820152600360248201526221677360e81b604482015290519081900360640190fd5b600280546001600160a01b0319166001600160a01b0392909216919091179055565b60035481565b6000546001600160a01b03163314611c47576040805162461bcd60e51b815260206004820152600b60248201526a21676f7665726e616e636560a81b604482015290519081900360640190fd5b600154604080516350abc5b560e11b815260008051602061331d83398151915260048201526001600160a01b0384811660248301529151919092169163a1578b6a916044808301926020929190829003018186803b158015611ca857600080fd5b505afa158015611cbc573d6000803e3d6000fd5b505050506040513d6020811015611cd257600080fd5b5051611d17576040805162461bcd60e51b815260206004820152600f60248201526e085cdd185d1959de505b1b1bddd959608a1b604482015290519081900360640190fd5b604080516370a0823160e01b81523060048201529051611db0918391600080516020613387833981519152916370a08231916024808301926020929190829003018186803b158015611d6857600080fd5b505afa158015611d7c573d6000803e3d6000fd5b505050506040513d6020811015611d9257600080fd5b5051600080516020613387833981519152919063ffffffff612c1616565b604080516370a0823160e01b81523060048201529051611e499183916000805160206132dc833981519152916370a08231916024808301926020929190829003018186803b158015611e0157600080fd5b505afa158015611e15573d6000803e3d6000fd5b505050506040513d6020811015611e2b57600080fd5b50516000805160206132dc833981519152919063ffffffff612c1616565b604080516370a0823160e01b81523060048201529051611ee291839160008051602061331d833981519152916370a08231916024808301926020929190829003018186803b158015611e9a57600080fd5b505afa158015611eae573d6000803e3d6000fd5b505050506040513d6020811015611ec457600080fd5b505160008051602061331d833981519152919063ffffffff612c1616565b50565b6000805160206132dc83398151915281565b6000546001600160a01b0316331480611f1a57506002546001600160a01b031633145b80611f2f57506001546001600160a01b031633145b80611f3957503330145b611f78576040805162461bcd60e51b815260206004820152600b60248201526a08585d5d1a1bdc9a5e995960aa1b604482015290519081900360640190fd5b611f80611345565b600854604080516370a0823160e01b8152306004820152905160009261200f92909160008051602061331d833981519152916370a08231916024808301926020929190829003018186803b158015611fd757600080fd5b505afa158015611feb573d6000803e3d6000fd5b505050506040513d602081101561200157600080fd5b50519063ffffffff6128cd16565b905080156121985761204560008051602061331d83398151915260008051602061333d833981519152600063ffffffff61271116565b61207260008051602061331d83398151915260008051602061333d8339815191528363ffffffff61271116565b60006120be60008051602061333d8339815191526001600160a01b031663bb7b8b806040518163ffffffff1660e01b815260040160206040518083038186803b15801561077557600080fd5b905060008051602061333d8339815191526001600160a01b0316634515cef3604051806060016040528060008152602001600081526020018581525061211a6127106107be6108266007546127106128cd90919063ffffffff16565b6040516001600160e01b031960e085901b1681526004018083606080838360005b8381101561215357818101518382015260200161213b565b5050505090500182815260200192505050600060405180830381600087803b15801561217e57600080fd5b505af1158015612192573d6000803e3d6000fd5b50505050505b604080516370a0823160e01b815230600482015290516000916000805160206132dc833981519152916370a0823191602480820192602092909190829003018186803b1580156121e757600080fd5b505afa1580156121fb573d6000803e3d6000fd5b505050506040513d602081101561221157600080fd5b50519050801561149f576122496000805160206132dc833981519152600080516020613387833981519152600063ffffffff61271116565b6122766000805160206132dc8339815191526000805160206133878339815191528363ffffffff61271116565b6000805160206133878339815191526001600160a01b031663b6b55f25826040518263ffffffff1660e01b815260040180828152602001915050600060405180830381600087803b1580156122ca57600080fd5b505af11580156122de573d6000803e3d6000fd5b505050505050565b6000546001600160a01b031633148061230957506002546001600160a01b031633145b8061231e57506001546001600160a01b031633145b8061232857503330145b612367576040805162461bcd60e51b815260206004820152600b60248201526a08585d5d1a1bdc9a5e995960aa1b604482015290519081900360640190fd5b604080516370a0823160e01b815230600482015290516000916000805160206132dc833981519152916370a0823191602480820192602092909190829003018186803b1580156123b657600080fd5b505afa1580156123ca573d6000803e3d6000fd5b505050506040513d60208110156123e057600080fd5b505160408051632e1a7d4d60e01b815260048101859052905191925060008051602061338783398151915291632e1a7d4d9160248082019260009290919082900301818387803b15801561243357600080fd5b505af1158015612447573d6000803e3d6000fd5b5050604080516370a0823160e01b81523060048201529051600093506000805160206132dc83398151915292506370a0823191602480820192602092909190829003018186803b15801561249a57600080fd5b505afa1580156124ae573d6000803e3d6000fd5b505050506040513d60208110156124c457600080fd5b505190506124d8818363ffffffff6128cd16565b92506125086000805160206132dc83398151915260008051602061333d833981519152600063ffffffff61271116565b6125356000805160206132dc83398151915260008051602061333d8339815191528563ffffffff61271116565b604080516370a0823160e01b8152306004820152905160008051602061331d833981519152916370a08231916024808301926020929190829003018186803b15801561258057600080fd5b505afa158015612594573d6000803e3d6000fd5b505050506040513d60208110156125aa57600080fd5b505160075490925060008051602061333d83398151915290631a4d01d29085906002906126009064e8d4a51000906107be906127109082906125f390839063ffffffff6128cd16565b8c9063ffffffff61282916565b6040518463ffffffff1660e01b81526004018084815260200183600f0b81526020018281526020019350505050600060405180830381600087803b15801561264757600080fd5b505af115801561265b573d6000803e3d6000fd5b5050604080516370a0823160e01b8152306004820152905160008051602061331d83398151915293506370a0823192506024808301926020929190829003018186803b1580156126aa57600080fd5b505afa1580156126be573d6000803e3d6000fd5b505050506040513d60208110156126d457600080fd5b505190506126fa6126eb828463ffffffff6128cd16565b6008549063ffffffff612bbc16565b600855505050565b6001546001600160a01b031681565b801580612797575060408051636eb1769f60e11b81523060048201526001600160a01b03848116602483015291519185169163dd62ed3e91604480820192602092909190829003018186803b15801561276957600080fd5b505afa15801561277d573d6000803e3d6000fd5b505050506040513d602081101561279357600080fd5b5051155b6127d25760405162461bcd60e51b81526004018080602001828103825260368152602001806133a76036913960400191505060405180910390fd5b604080516001600160a01b038416602482015260448082018490528251808303909101815260649091019091526020810180516001600160e01b031663095ea7b360e01b179052612824908490612dd8565b505050565b60008261283857506000612885565b8282028284828161284557fe5b04146128825760405162461bcd60e51b81526004018080602001828103825260218152602001806132fc6021913960400191505060405180910390fd5b90505b92915050565b600061288283836040518060400160405280601a81526020017f536166654d6174683a206469766973696f6e206279207a65726f000000000000815250612f90565b600061288283836040518060400160405280601e81526020017f536166654d6174683a207375627472616374696f6e206f766572666c6f770000815250613032565b6000806129a560008051602061333d8339815191526001600160a01b031663bb7b8b806040518163ffffffff1660e01b815260040160206040518083038186803b15801561295c57600080fd5b505afa158015612970573d6000803e3d6000fd5b505050506040513d602081101561298657600080fd5b50516107be856c0c9f2c9cd04674edea4000000063ffffffff61282916565b90506000612a376000805160206133878339815191526001600160a01b03166377c7b8fc6040518163ffffffff1660e01b815260040160206040518083038186803b1580156129f357600080fd5b505afa158015612a07573d6000803e3d6000fd5b505050506040513d6020811015612a1d57600080fd5b50516107be84670de0b6b3a764000063ffffffff61282916565b604080516370a0823160e01b815230600482015290519192506000916000805160206132dc833981519152916370a08231916024808301926020929190829003018186803b158015612a8857600080fd5b505afa158015612a9c573d6000803e3d6000fd5b505050506040513d6020811015612ab257600080fd5b505160408051632e1a7d4d60e01b815260048101859052905191925060008051602061338783398151915291632e1a7d4d9160248082019260009290919082900301818387803b158015612b0557600080fd5b505af1158015612b19573d6000803e3d6000fd5b5050604080516370a0823160e01b81523060048201529051600093506000805160206132dc83398151915292506370a0823191602480820192602092909190829003018186803b158015612b6c57600080fd5b505afa158015612b80573d6000803e3d6000fd5b505050506040513d6020811015612b9657600080fd5b50519050612bb2612bad828463ffffffff6128cd16565b61308c565b9695505050505050565b600082820183811015612882576040805162461bcd60e51b815260206004820152601b60248201527f536166654d6174683a206164646974696f6e206f766572666c6f770000000000604482015290519081900360640190fd5b604080516001600160a01b038416602482015260448082018490528251808303909101815260649091019091526020810180516001600160e01b031663a9059cbb60e01b179052612824908490612dd8565b604080516370a0823160e01b81523060048201529051600091600080516020613387833981519152916370a0823191602480820192602092909190829003018186803b158015612cb757600080fd5b505afa158015612ccb573d6000803e3d6000fd5b505050506040513d6020811015612ce157600080fd5b505190508015611ee2576000805160206133878339815191526001600160a01b0316632e1a7d4d826040518263ffffffff1660e01b815260040180828152602001915050600060405180830381600087803b158015612d3f57600080fd5b505af1158015612d53573d6000803e3d6000fd5b5050604080516370a0823160e01b8152306004820152905161149f93506000805160206132dc83398151915292506370a0823191602480820192602092909190829003018186803b158015612da757600080fd5b505afa158015612dbb573d6000803e3d6000fd5b505050506040513d6020811015612dd157600080fd5b505161308c565b612dea826001600160a01b03166132a2565b612e3b576040805162461bcd60e51b815260206004820152601f60248201527f5361666545524332303a2063616c6c20746f206e6f6e2d636f6e747261637400604482015290519081900360640190fd5b60006060836001600160a01b0316836040518082805190602001908083835b60208310612e795780518252601f199092019160209182019101612e5a565b6001836020036101000a0380198251168184511680821785525050505050509050019150506000604051808303816000865af19150503d8060008114612edb576040519150601f19603f3d011682016040523d82523d6000602084013e612ee0565b606091505b509150915081612f37576040805162461bcd60e51b815260206004820181905260248201527f5361666545524332303a206c6f772d6c6576656c2063616c6c206661696c6564604482015290519081900360640190fd5b805115610e6d57808060200190516020811015612f5357600080fd5b5051610e6d5760405162461bcd60e51b815260040180806020018281038252602a81526020018061335d602a913960400191505060405180910390fd5b6000818361301c5760405162461bcd60e51b81526004018080602001828103825283818151815260200191508051906020019080838360005b83811015612fe1578181015183820152602001612fc9565b50505050905090810190601f16801561300e5780820380516001836020036101000a031916815260200191505b509250505060405180910390fd5b50600083858161302857fe5b0495945050505050565b600081848411156130845760405162461bcd60e51b8152602060048201818152835160248401528351909283926044909101919085019080838360008315612fe1578181015183820152602001612fc9565b505050900390565b604080516370a0823160e01b81523060048201529051600091829160008051602061331d833981519152916370a08231916024808301926020929190829003018186803b1580156130dc57600080fd5b505afa1580156130f0573d6000803e3d6000fd5b505050506040513d602081101561310657600080fd5b505190506131386000805160206132dc83398151915260008051602061333d833981519152600063ffffffff61271116565b6131656000805160206132dc83398151915260008051602061333d8339815191528563ffffffff61271116565b60008051602061333d8339815191526001600160a01b0316631a4d01d28460026131ae64e8d4a510006107be6127106107be6125f36007546127106128cd90919063ffffffff16565b6040518463ffffffff1660e01b81526004018084815260200183600f0b81526020018281526020019350505050600060405180830381600087803b1580156131f557600080fd5b505af1158015613209573d6000803e3d6000fd5b5050604080516370a0823160e01b815230600482015290516000935060008051602061331d83398151915292506370a0823191602480820192602092909190829003018186803b15801561325c57600080fd5b505afa158015613270573d6000803e3d6000fd5b505050506040513d602081101561328657600080fd5b5051905061329a818363ffffffff6128cd16565b949350505050565b6000813f7fc5d2460186f7233c927e7db2dcc703c0e500b653ca82273b7bfad8045d85a47081811480159061329a57505015159291505056fe0000000000000000000000006c3f90f043a72fa612cbac8115ee7e52bde6e490536166654d6174683a206d756c7469706c69636174696f6e206f766572666c6f77000000000000000000000000dac17f958d2ee523a2206206994597c13d831ec7000000000000000000000000bebc44782c7db0a1a60cb6fe97d0b483032ff1c75361666545524332303a204552433230206f7065726174696f6e20646964206e6f7420737563636565640000000000000000000000009ca85572e6a3ebf24dedd195623f188735a5179f5361666545524332303a20617070726f76652066726f6d206e6f6e2d7a65726f20746f206e6f6e2d7a65726f20616c6c6f77616e6365a265627a7a723158207652f2787ae5435802da3fd8b4ea08f4dd2fab58143b56a072e81fdd4433b7ab64736f6c63430005110032",
  "source": "pragma solidity ^0.5.17;\n\nimport \"@openzeppelinV2/contracts/token/ERC20/IERC20.sol\";\nimport \"@openzeppelinV2/contracts/math/SafeMath.sol\";\nimport \"@openzeppelinV2/contracts/utils/Address.sol\";\nimport \"@openzeppelinV2/contracts/token/ERC20/SafeERC20.sol\";\n\nimport \"../../interfaces/yearn/IController.sol\";\nimport \"../../interfaces/curve/Curve.sol\";\n\ninterface yvERC20 {\n    function deposit(uint256) external;\n\n    function withdraw(uint256) external;\n\n    function earn() external;\n\n    function getPricePerFullShare() external view returns (uint256);\n}\n\n/*\n\n A strategy must implement the following calls;\n \n - deposit()\n - withdraw(address) must exclude any tokens used in the yield - Controller role - withdraw should return to Controller\n - withdraw(uint) - Controller | Vault role - withdraw should always return to vault\n - withdrawAll() - Controller | Vault role - withdraw should always return to vault\n - balanceOf()\n \n Where possible, strategies must remain as immutable as possible, instead of updating variables, we update the contract by linking it in the controller\n \n*/\n\ncontract StrategyUSDT3pool {\n    using SafeERC20 for IERC20;\n    using Address for address;\n    using SafeMath for uint256;\n\n    address public constant want = address(0xdAC17F958D2ee523a2206206994597C13D831ec7);\n    address public constant _3pool = address(0xbEbc44782C7dB0a1A60Cb6fe97d0b483032FF1C7);\n    address public constant _3crv = address(0x6c3F90f043a72FA612cbac8115EE7e52BDe6E490);\n    address public constant y3crv = address(0x9cA85572E6A3EbF24dEDd195623F188735A5179f);\n\n    address public governance;\n    address public controller;\n    address public strategist;\n\n    uint256 public constant DENOMINATOR = 10000;\n    uint256 public treasuryFee = 500;\n    uint256 public withdrawalFee = 0;\n    uint256 public strategistReward = 50;\n    uint256 public threshold = 6000;\n    uint256 public slip = 100;\n    uint256 public tank = 0;\n    uint256 public p = 0;\n\n    event Threshold(address indexed strategy);\n\n    modifier isAuthorized() {\n        require(msg.sender == governance || msg.sender == strategist || msg.sender == controller || msg.sender == address(this), \"!authorized\");\n        _;\n    }\n\n    constructor(address _controller) public {\n        governance = msg.sender;\n        strategist = msg.sender;\n        controller = _controller;\n    }\n\n    function getName() external pure returns (string memory) {\n        return \"StrategyUSDT3pool\";\n    }\n\n    function deposit() public isAuthorized {\n        rebalance();\n        uint256 _want = (IERC20(want).balanceOf(address(this))).sub(tank);\n        if (_want > 0) {\n            IERC20(want).safeApprove(_3pool, 0);\n            IERC20(want).safeApprove(_3pool, _want);\n            uint256 v = _want.mul(1e30).div(ICurveFi(_3pool).get_virtual_price());\n            ICurveFi(_3pool).add_liquidity([0, 0, _want], v.mul(DENOMINATOR.sub(slip)).div(DENOMINATOR));\n        }\n        uint256 _bal = IERC20(_3crv).balanceOf(address(this));\n        if (_bal > 0) {\n            IERC20(_3crv).safeApprove(y3crv, 0);\n            IERC20(_3crv).safeApprove(y3crv, _bal);\n            yvERC20(y3crv).deposit(_bal);\n        }\n    }\n\n    // Controller only function for creating additional rewards from dust\n    function withdraw(IERC20 _asset) external returns (uint256 balance) {\n        require(msg.sender == controller, \"!controller\");\n        require(want != address(_asset), \"want\");\n        require(_3crv != address(_asset), \"3crv\");\n        require(y3crv != address(_asset), \"y3crv\");\n        balance = _asset.balanceOf(address(this));\n        _asset.safeTransfer(controller, balance);\n    }\n\n    // Withdraw partial funds, normally used with a vault withdrawal\n    function withdraw(uint256 _amount) external {\n        require(msg.sender == controller, \"!controller\");\n\n        rebalance();\n        uint256 _balance = IERC20(want).balanceOf(address(this));\n        if (_balance < _amount) {\n            _amount = _withdrawSome(_amount.sub(_balance));\n            _amount = _amount.add(_balance);\n            tank = 0;\n        } else {\n            if (tank >= _amount) tank = tank.sub(_amount);\n            else tank = 0;\n        }\n\n        address _vault = IController(controller).vaults(address(want));\n        require(_vault != address(0), \"!vault\"); // additional protection so we don't burn the funds\n        uint256 _fee = _amount.mul(withdrawalFee).div(DENOMINATOR);\n        IERC20(want).safeTransfer(IController(controller).rewards(), _fee);\n        IERC20(want).safeTransfer(_vault, _amount.sub(_fee));\n    }\n\n    function _withdrawSome(uint256 _amount) internal returns (uint256) {\n        uint256 _amnt = _amount.mul(1e30).div(ICurveFi(_3pool).get_virtual_price());\n        uint256 _amt = _amnt.mul(1e18).div(yvERC20(y3crv).getPricePerFullShare());\n        uint256 _before = IERC20(_3crv).balanceOf(address(this));\n        yvERC20(y3crv).withdraw(_amt);\n        uint256 _after = IERC20(_3crv).balanceOf(address(this));\n        return _withdrawOne(_after.sub(_before));\n    }\n\n    function _withdrawOne(uint256 _amnt) internal returns (uint256) {\n        uint256 _before = IERC20(want).balanceOf(address(this));\n        IERC20(_3crv).safeApprove(_3pool, 0);\n        IERC20(_3crv).safeApprove(_3pool, _amnt);\n        ICurveFi(_3pool).remove_liquidity_one_coin(_amnt, 2, _amnt.mul(DENOMINATOR.sub(slip)).div(DENOMINATOR).div(1e12));\n        uint256 _after = IERC20(want).balanceOf(address(this));\n\n        return _after.sub(_before);\n    }\n\n    // Withdraw all funds, normally used when migrating strategies\n    function withdrawAll() external returns (uint256 balance) {\n        require(msg.sender == controller, \"!controller\");\n        _withdrawAll();\n\n        balance = IERC20(want).balanceOf(address(this));\n\n        address _vault = IController(controller).vaults(address(want));\n        require(_vault != address(0), \"!vault\"); // additional protection so we don't burn the funds\n        IERC20(want).safeTransfer(_vault, balance);\n    }\n\n    function _withdrawAll() internal {\n        uint256 _y3crv = IERC20(y3crv).balanceOf(address(this));\n        if (_y3crv > 0) {\n            yvERC20(y3crv).withdraw(_y3crv);\n            _withdrawOne(IERC20(_3crv).balanceOf(address(this)));\n        }\n    }\n\n    function balanceOfWant() public view returns (uint256) {\n        return IERC20(want).balanceOf(address(this));\n    }\n\n    function balanceOf3CRV() public view returns (uint256) {\n        return IERC20(_3crv).balanceOf(address(this));\n    }\n\n    function balanceOf3CRVinWant() public view returns (uint256) {\n        return balanceOf3CRV().mul(ICurveFi(_3pool).get_virtual_price()).div(1e30);\n    }\n\n    function balanceOfy3CRV() public view returns (uint256) {\n        return IERC20(y3crv).balanceOf(address(this));\n    }\n\n    function balanceOfy3CRVin3CRV() public view returns (uint256) {\n        return balanceOfy3CRV().mul(yvERC20(y3crv).getPricePerFullShare()).div(1e18);\n    }\n\n    function balanceOfy3CRVinWant() public view returns (uint256) {\n        return balanceOfy3CRVin3CRV().mul(ICurveFi(_3pool).get_virtual_price()).div(1e30);\n    }\n\n    function balanceOf() public view returns (uint256) {\n        return balanceOfWant().add(balanceOfy3CRVinWant());\n    }\n\n    function migrate(address _strategy) external {\n        require(msg.sender == governance, \"!governance\");\n        require(IController(controller).approvedStrategies(want, _strategy), \"!stategyAllowed\");\n        IERC20(y3crv).safeTransfer(_strategy, IERC20(y3crv).balanceOf(address(this)));\n        IERC20(_3crv).safeTransfer(_strategy, IERC20(_3crv).balanceOf(address(this)));\n        IERC20(want).safeTransfer(_strategy, IERC20(want).balanceOf(address(this)));\n    }\n\n    function forceD(uint256 _amount) external isAuthorized {\n        IERC20(want).safeApprove(_3pool, 0);\n        IERC20(want).safeApprove(_3pool, _amount);\n        uint256 v = _amount.mul(1e30).div(ICurveFi(_3pool).get_virtual_price());\n        ICurveFi(_3pool).add_liquidity([0, 0, _amount], v.mul(DENOMINATOR.sub(slip)).div(DENOMINATOR));\n        if (_amount < tank) tank = tank.sub(_amount);\n        else tank = 0;\n\n        uint256 _bal = IERC20(_3crv).balanceOf(address(this));\n        IERC20(_3crv).safeApprove(y3crv, 0);\n        IERC20(_3crv).safeApprove(y3crv, _bal);\n        yvERC20(y3crv).deposit(_bal);\n    }\n\n    function forceW(uint256 _amt) external isAuthorized {\n        uint256 _before = IERC20(_3crv).balanceOf(address(this));\n        yvERC20(y3crv).withdraw(_amt);\n        uint256 _after = IERC20(_3crv).balanceOf(address(this));\n        _amt = _after.sub(_before);\n\n        IERC20(_3crv).safeApprove(_3pool, 0);\n        IERC20(_3crv).safeApprove(_3pool, _amt);\n        _before = IERC20(want).balanceOf(address(this));\n        ICurveFi(_3pool).remove_liquidity_one_coin(_amt, 2, _amt.mul(DENOMINATOR.sub(slip)).div(DENOMINATOR).div(1e12));\n        _after = IERC20(want).balanceOf(address(this));\n        tank = tank.add(_after.sub(_before));\n    }\n\n    function drip() public isAuthorized {\n        uint256 _p = yvERC20(y3crv).getPricePerFullShare();\n        _p = _p.mul(ICurveFi(_3pool).get_virtual_price()).div(1e18);\n        require(_p >= p, \"backward\");\n        uint256 _r = (_p.sub(p)).mul(balanceOfy3CRV()).div(1e18);\n        uint256 _s = _r.mul(strategistReward).div(DENOMINATOR);\n        IERC20(y3crv).safeTransfer(strategist, _s.mul(1e18).div(_p));\n        uint256 _t = _r.mul(treasuryFee).div(DENOMINATOR);\n        IERC20(y3crv).safeTransfer(IController(controller).rewards(), _t.mul(1e18).div(_p));\n        p = _p;\n    }\n\n    function tick() public view returns (uint256 _t, uint256 _c) {\n        _t = ICurveFi(_3pool).balances(2).mul(threshold).div(DENOMINATOR);\n        _c = balanceOfy3CRVinWant();\n    }\n\n    function rebalance() public isAuthorized {\n        drip();\n        (uint256 _t, uint256 _c) = tick();\n        if (_c > _t) {\n            _withdrawSome(_c.sub(_t));\n            tank = IERC20(want).balanceOf(address(this));\n            emit Threshold(address(this));\n        }\n    }\n\n    function setGovernance(address _governance) external {\n        require(msg.sender == governance, \"!governance\");\n        governance = _governance;\n    }\n\n    function setIController(address _controller) external {\n        require(msg.sender == governance, \"!governance\");\n        controller = _controller;\n    }\n\n    function setStrategist(address _strategist) external {\n        require(msg.sender == governance || msg.sender == strategist, \"!gs\");\n        strategist = _strategist;\n    }\n\n    function setWithdrawalFee(uint256 _withdrawalFee) external {\n        require(msg.sender == governance, \"!governance\");\n        withdrawalFee = _withdrawalFee;\n    }\n\n    function setTreasuryFee(uint256 _treasuryFee) external {\n        require(msg.sender == governance, \"!governance\");\n        treasuryFee = _treasuryFee;\n    }\n\n    function setStrategistReward(uint256 _strategistReward) external {\n        require(msg.sender == governance, \"!governance\");\n        strategistReward = _strategistReward;\n    }\n\n    function setThreshold(uint256 _threshold) external {\n        require(msg.sender == strategist || msg.sender == governance, \"!sg\");\n        threshold = _threshold;\n    }\n\n    function setSlip(uint256 _slip) external {\n        require(msg.sender == strategist || msg.sender == governance, \"!sg\");\n        slip = _slip;\n    }\n}\n",
  "sourcePath": "/Users/sbacha/yearn-protocol-nodejs/contracts/strategies/StrategyUSDT3pool.sol",
  "compiler": {
    "name": "solc",
    "version": "0.5.17+commit.d19bba13.Emscripten.clang"
  },
  "schemaVersion": "3.3.4",
  "updatedAt": "2021-02-12T05:40:28.314Z",
  "devdoc": {
    "methods": {}
  },
  "userdoc": {
    "methods": {}
  }
}