{
  "contractName": "StrategyGUSDRescue",
  "abi": [
    {
      "inputs": [],
      "payable": false,
      "stateMutability": "nonpayable",
      "type": "constructor"
    },
    {
      "constant": true,
      "inputs": [],
      "name": "governance",
      "outputs": [
        {
          "internalType": "address",
          "name": "",
          "type": "address"
        }
      ],
      "payable": false,
      "stateMutability": "view",
      "type": "function"
    },
    {
      "constant": true,
      "inputs": [],
      "name": "want",
      "outputs": [
        {
          "internalType": "address",
          "name": "",
          "type": "address"
        }
      ],
      "payable": false,
      "stateMutability": "view",
      "type": "function"
    },
    {
      "constant": true,
      "inputs": [],
      "name": "getName",
      "outputs": [
        {
          "internalType": "string",
          "name": "",
          "type": "string"
        }
      ],
      "payable": false,
      "stateMutability": "pure",
      "type": "function"
    },
    {
      "constant": false,
      "inputs": [],
      "name": "deposit",
      "outputs": [],
      "payable": false,
      "stateMutability": "nonpayable",
      "type": "function"
    },
    {
      "constant": false,
      "inputs": [],
      "name": "withdrawAll",
      "outputs": [
        {
          "internalType": "uint256",
          "name": "",
          "type": "uint256"
        }
      ],
      "payable": false,
      "stateMutability": "nonpayable",
      "type": "function"
    },
    {
      "constant": true,
      "inputs": [],
      "name": "balanceOf",
      "outputs": [
        {
          "internalType": "uint256",
          "name": "",
          "type": "uint256"
        }
      ],
      "payable": false,
      "stateMutability": "pure",
      "type": "function"
    }
  ],
  "bytecode": "0x6080604052600080546001600160a01b03191673feb4acf3df3cdea7399794d0869ef76a6efaff5217905534801561003657600080fd5b506102dd806100466000396000f3fe608060405234801561001057600080fd5b50600436106100625760003560e01c806317d7de7c146100675780631f1fcd51146100e45780635aa6e67514610108578063722713f714610110578063853828b614610110578063d0e30db01461012a575b600080fd5b61006f610134565b6040805160208082528351818301528351919283929083019185019080838360005b838110156100a9578181015183820152602001610091565b50505050905090810190601f1680156100d65780820380516001836020036101000a031916815260200191505b509250505060405180910390f35b6100ec610160565b604080516001600160a01b039092168252519081900360200190f35b6100ec610178565b610118610187565b60408051918252519081900360200190f35b61013261018c565b005b60408051808201909152601281527153747261746567794755534452657363756560701b602082015290565b73056fd409e1d7a124bd7017459dfea2f387b6d5cd81565b6000546001600160a01b031681565b600090565b604080516370a0823160e01b8152306004820152905160009173056fd409e1d7a124bd7017459dfea2f387b6d5cd916370a0823191602480820192602092909190829003018186803b1580156101e157600080fd5b505afa1580156101f5573d6000803e3d6000fd5b505050506040513d602081101561020b57600080fd5b5051600080546040805163a9059cbb60e01b81526001600160a01b039092166004830152602482018490525192935073056fd409e1d7a124bd7017459dfea2f387b6d5cd9263a9059cbb92604480840193602093929083900390910190829087803b15801561027957600080fd5b505af115801561028d573d6000803e3d6000fd5b505050506040513d60208110156102a357600080fd5b50505056fea265627a7a723158206fa56b1d6304e1567235f40de50efaa7484b1e1e615e14eef851eb47b03221c564736f6c63430005110032",
  "source": "pragma solidity ^0.5.17;\n\ninterface IERC20 {\n    function totalSupply() external view returns (uint256);\n\n    function balanceOf(address account) external view returns (uint256);\n\n    function transfer(address recipient, uint256 amount) external returns (bool);\n\n    function allowance(address owner, address spender) external view returns (uint256);\n\n    function decimals() external view returns (uint256);\n\n    function approve(address spender, uint256 amount) external returns (bool);\n\n    function transferFrom(\n        address sender,\n        address recipient,\n        uint256 amount\n    ) external returns (bool);\n\n    event Transfer(address indexed from, address indexed to, uint256 value);\n    event Approval(address indexed owner, address indexed spender, uint256 value);\n}\n\ncontract StrategyGUSDRescue {\n    address public constant want = address(0x056Fd409E1d7A124BD7017459dFEa2F387b6d5Cd);\n    address public governance = address(0xFEB4acf3df3cDEA7399794D0869ef76A6EfAff52);\n\n    constructor() public {}\n\n    function getName() external pure returns (string memory) {\n        return \"StrategyGUSDRescue\";\n    }\n\n    function deposit() public {\n        uint256 _want = IERC20(want).balanceOf(address(this));\n        IERC20(want).transfer(governance, _want);\n    }\n\n    function withdrawAll() public returns (uint256) {\n        return 0;\n    }\n\n    function balanceOf() public pure returns (uint256) {\n        return 0;\n    }\n}\n",
  "sourcePath": "/Users/sbacha/yearn-protocol-nodejs/contracts/strategies/StrategyGUSDRescue.sol",
  "compiler": {
    "name": "solc",
    "version": "0.5.17+commit.d19bba13.Emscripten.clang"
  },
  "schemaVersion": "3.3.4",
  "updatedAt": "2021-02-12T05:40:28.221Z",
  "devdoc": {
    "methods": {}
  },
  "userdoc": {
    "methods": {}
  }
}