{
  "contractName": "StrategyDAI3pool",
  "abi": [
    {
      "inputs": [
        {
          "internalType": "address",
          "name": "_controller",
          "type": "address"
        }
      ],
      "payable": false,
      "stateMutability": "nonpayable",
      "type": "constructor"
    },
    {
      "constant": true,
      "inputs": [],
      "name": "DENOMINATOR",
      "outputs": [
        {
          "internalType": "uint256",
          "name": "",
          "type": "uint256"
        }
      ],
      "payable": false,
      "stateMutability": "view",
      "type": "function"
    },
    {
      "constant": true,
      "inputs": [],
      "name": "_3crv",
      "outputs": [
        {
          "internalType": "address",
          "name": "",
          "type": "address"
        }
      ],
      "payable": false,
      "stateMutability": "view",
      "type": "function"
    },
    {
      "constant": true,
      "inputs": [],
      "name": "_3pool",
      "outputs": [
        {
          "internalType": "address",
          "name": "",
          "type": "address"
        }
      ],
      "payable": false,
      "stateMutability": "view",
      "type": "function"
    },
    {
      "constant": true,
      "inputs": [],
      "name": "controller",
      "outputs": [
        {
          "internalType": "address",
          "name": "",
          "type": "address"
        }
      ],
      "payable": false,
      "stateMutability": "view",
      "type": "function"
    },
    {
      "constant": true,
      "inputs": [],
      "name": "dai",
      "outputs": [
        {
          "internalType": "address",
          "name": "",
          "type": "address"
        }
      ],
      "payable": false,
      "stateMutability": "view",
      "type": "function"
    },
    {
      "constant": true,
      "inputs": [],
      "name": "flag",
      "outputs": [
        {
          "internalType": "bool",
          "name": "",
          "type": "bool"
        }
      ],
      "payable": false,
      "stateMutability": "view",
      "type": "function"
    },
    {
      "constant": true,
      "inputs": [],
      "name": "governance",
      "outputs": [
        {
          "internalType": "address",
          "name": "",
          "type": "address"
        }
      ],
      "payable": false,
      "stateMutability": "view",
      "type": "function"
    },
    {
      "constant": true,
      "inputs": [],
      "name": "p",
      "outputs": [
        {
          "internalType": "uint256",
          "name": "",
          "type": "uint256"
        }
      ],
      "payable": false,
      "stateMutability": "view",
      "type": "function"
    },
    {
      "constant": true,
      "inputs": [],
      "name": "slip",
      "outputs": [
        {
          "internalType": "uint256",
          "name": "",
          "type": "uint256"
        }
      ],
      "payable": false,
      "stateMutability": "view",
      "type": "function"
    },
    {
      "constant": true,
      "inputs": [],
      "name": "strategist",
      "outputs": [
        {
          "internalType": "address",
          "name": "",
          "type": "address"
        }
      ],
      "payable": false,
      "stateMutability": "view",
      "type": "function"
    },
    {
      "constant": true,
      "inputs": [],
      "name": "strategistReward",
      "outputs": [
        {
          "internalType": "uint256",
          "name": "",
          "type": "uint256"
        }
      ],
      "payable": false,
      "stateMutability": "view",
      "type": "function"
    },
    {
      "constant": true,
      "inputs": [],
      "name": "tank",
      "outputs": [
        {
          "internalType": "uint256",
          "name": "",
          "type": "uint256"
        }
      ],
      "payable": false,
      "stateMutability": "view",
      "type": "function"
    },
    {
      "constant": true,
      "inputs": [],
      "name": "threshold",
      "outputs": [
        {
          "internalType": "uint256",
          "name": "",
          "type": "uint256"
        }
      ],
      "payable": false,
      "stateMutability": "view",
      "type": "function"
    },
    {
      "constant": true,
      "inputs": [],
      "name": "treasuryFee",
      "outputs": [
        {
          "internalType": "uint256",
          "name": "",
          "type": "uint256"
        }
      ],
      "payable": false,
      "stateMutability": "view",
      "type": "function"
    },
    {
      "constant": true,
      "inputs": [],
      "name": "tusd",
      "outputs": [
        {
          "internalType": "address",
          "name": "",
          "type": "address"
        }
      ],
      "payable": false,
      "stateMutability": "view",
      "type": "function"
    },
    {
      "constant": true,
      "inputs": [],
      "name": "usdc",
      "outputs": [
        {
          "internalType": "address",
          "name": "",
          "type": "address"
        }
      ],
      "payable": false,
      "stateMutability": "view",
      "type": "function"
    },
    {
      "constant": true,
      "inputs": [],
      "name": "usdt",
      "outputs": [
        {
          "internalType": "address",
          "name": "",
          "type": "address"
        }
      ],
      "payable": false,
      "stateMutability": "view",
      "type": "function"
    },
    {
      "constant": true,
      "inputs": [],
      "name": "want",
      "outputs": [
        {
          "internalType": "address",
          "name": "",
          "type": "address"
        }
      ],
      "payable": false,
      "stateMutability": "view",
      "type": "function"
    },
    {
      "constant": true,
      "inputs": [],
      "name": "withdrawalFee",
      "outputs": [
        {
          "internalType": "uint256",
          "name": "",
          "type": "uint256"
        }
      ],
      "payable": false,
      "stateMutability": "view",
      "type": "function"
    },
    {
      "constant": true,
      "inputs": [],
      "name": "y3crv",
      "outputs": [
        {
          "internalType": "address",
          "name": "",
          "type": "address"
        }
      ],
      "payable": false,
      "stateMutability": "view",
      "type": "function"
    },
    {
      "constant": true,
      "inputs": [],
      "name": "ycrv",
      "outputs": [
        {
          "internalType": "address",
          "name": "",
          "type": "address"
        }
      ],
      "payable": false,
      "stateMutability": "view",
      "type": "function"
    },
    {
      "constant": true,
      "inputs": [],
      "name": "ydai",
      "outputs": [
        {
          "internalType": "address",
          "name": "",
          "type": "address"
        }
      ],
      "payable": false,
      "stateMutability": "view",
      "type": "function"
    },
    {
      "constant": true,
      "inputs": [],
      "name": "ypool",
      "outputs": [
        {
          "internalType": "address",
          "name": "",
          "type": "address"
        }
      ],
      "payable": false,
      "stateMutability": "view",
      "type": "function"
    },
    {
      "constant": true,
      "inputs": [],
      "name": "ytusd",
      "outputs": [
        {
          "internalType": "address",
          "name": "",
          "type": "address"
        }
      ],
      "payable": false,
      "stateMutability": "view",
      "type": "function"
    },
    {
      "constant": true,
      "inputs": [],
      "name": "yusdc",
      "outputs": [
        {
          "internalType": "address",
          "name": "",
          "type": "address"
        }
      ],
      "payable": false,
      "stateMutability": "view",
      "type": "function"
    },
    {
      "constant": true,
      "inputs": [],
      "name": "yusdt",
      "outputs": [
        {
          "internalType": "address",
          "name": "",
          "type": "address"
        }
      ],
      "payable": false,
      "stateMutability": "view",
      "type": "function"
    },
    {
      "constant": true,
      "inputs": [],
      "name": "yycrv",
      "outputs": [
        {
          "internalType": "address",
          "name": "",
          "type": "address"
        }
      ],
      "payable": false,
      "stateMutability": "view",
      "type": "function"
    },
    {
      "constant": true,
      "inputs": [],
      "name": "getName",
      "outputs": [
        {
          "internalType": "string",
          "name": "",
          "type": "string"
        }
      ],
      "payable": false,
      "stateMutability": "pure",
      "type": "function"
    },
    {
      "constant": false,
      "inputs": [],
      "name": "deposit",
      "outputs": [],
      "payable": false,
      "stateMutability": "nonpayable",
      "type": "function"
    },
    {
      "constant": false,
      "inputs": [
        {
          "internalType": "uint256",
          "name": "_amount",
          "type": "uint256"
        }
      ],
      "name": "withdraw",
      "outputs": [],
      "payable": false,
      "stateMutability": "nonpayable",
      "type": "function"
    },
    {
      "constant": false,
      "inputs": [
        {
          "internalType": "contract IERC20",
          "name": "_asset",
          "type": "address"
        }
      ],
      "name": "withdraw",
      "outputs": [
        {
          "internalType": "uint256",
          "name": "balance",
          "type": "uint256"
        }
      ],
      "payable": false,
      "stateMutability": "nonpayable",
      "type": "function"
    },
    {
      "constant": false,
      "inputs": [],
      "name": "withdrawAll",
      "outputs": [
        {
          "internalType": "uint256",
          "name": "balance",
          "type": "uint256"
        }
      ],
      "payable": false,
      "stateMutability": "nonpayable",
      "type": "function"
    },
    {
      "constant": true,
      "inputs": [],
      "name": "balanceOfWant",
      "outputs": [
        {
          "internalType": "uint256",
          "name": "",
          "type": "uint256"
        }
      ],
      "payable": false,
      "stateMutability": "view",
      "type": "function"
    },
    {
      "constant": true,
      "inputs": [],
      "name": "balanceOf3CRV",
      "outputs": [
        {
          "internalType": "uint256",
          "name": "",
          "type": "uint256"
        }
      ],
      "payable": false,
      "stateMutability": "view",
      "type": "function"
    },
    {
      "constant": true,
      "inputs": [],
      "name": "balanceOf3CRVinWant",
      "outputs": [
        {
          "internalType": "uint256",
          "name": "",
          "type": "uint256"
        }
      ],
      "payable": false,
      "stateMutability": "view",
      "type": "function"
    },
    {
      "constant": true,
      "inputs": [],
      "name": "balanceOfy3CRV",
      "outputs": [
        {
          "internalType": "uint256",
          "name": "",
          "type": "uint256"
        }
      ],
      "payable": false,
      "stateMutability": "view",
      "type": "function"
    },
    {
      "constant": true,
      "inputs": [],
      "name": "balanceOfy3CRVin3CRV",
      "outputs": [
        {
          "internalType": "uint256",
          "name": "",
          "type": "uint256"
        }
      ],
      "payable": false,
      "stateMutability": "view",
      "type": "function"
    },
    {
      "constant": true,
      "inputs": [],
      "name": "balanceOfy3CRVinWant",
      "outputs": [
        {
          "internalType": "uint256",
          "name": "",
          "type": "uint256"
        }
      ],
      "payable": false,
      "stateMutability": "view",
      "type": "function"
    },
    {
      "constant": true,
      "inputs": [],
      "name": "balanceOf",
      "outputs": [
        {
          "internalType": "uint256",
          "name": "",
          "type": "uint256"
        }
      ],
      "payable": false,
      "stateMutability": "view",
      "type": "function"
    },
    {
      "constant": false,
      "inputs": [
        {
          "internalType": "address",
          "name": "_strategy",
          "type": "address"
        }
      ],
      "name": "migrate",
      "outputs": [],
      "payable": false,
      "stateMutability": "nonpayable",
      "type": "function"
    },
    {
      "constant": false,
      "inputs": [
        {
          "internalType": "uint256",
          "name": "_amount",
          "type": "uint256"
        }
      ],
      "name": "forceD",
      "outputs": [],
      "payable": false,
      "stateMutability": "nonpayable",
      "type": "function"
    },
    {
      "constant": false,
      "inputs": [
        {
          "internalType": "uint256",
          "name": "_amt",
          "type": "uint256"
        }
      ],
      "name": "forceW",
      "outputs": [],
      "payable": false,
      "stateMutability": "nonpayable",
      "type": "function"
    },
    {
      "constant": false,
      "inputs": [],
      "name": "drip",
      "outputs": [],
      "payable": false,
      "stateMutability": "nonpayable",
      "type": "function"
    },
    {
      "constant": true,
      "inputs": [],
      "name": "tick",
      "outputs": [
        {
          "internalType": "uint256",
          "name": "_t",
          "type": "uint256"
        },
        {
          "internalType": "uint256",
          "name": "_c",
          "type": "uint256"
        }
      ],
      "payable": false,
      "stateMutability": "view",
      "type": "function"
    },
    {
      "constant": false,
      "inputs": [],
      "name": "rebalance",
      "outputs": [],
      "payable": false,
      "stateMutability": "nonpayable",
      "type": "function"
    },
    {
      "constant": false,
      "inputs": [
        {
          "internalType": "address",
          "name": "_governance",
          "type": "address"
        }
      ],
      "name": "setGovernance",
      "outputs": [],
      "payable": false,
      "stateMutability": "nonpayable",
      "type": "function"
    },
    {
      "constant": false,
      "inputs": [
        {
          "internalType": "address",
          "name": "_controller",
          "type": "address"
        }
      ],
      "name": "setController",
      "outputs": [],
      "payable": false,
      "stateMutability": "nonpayable",
      "type": "function"
    },
    {
      "constant": false,
      "inputs": [
        {
          "internalType": "address",
          "name": "_strategist",
          "type": "address"
        }
      ],
      "name": "setStrategist",
      "outputs": [],
      "payable": false,
      "stateMutability": "nonpayable",
      "type": "function"
    },
    {
      "constant": false,
      "inputs": [
        {
          "internalType": "uint256",
          "name": "_withdrawalFee",
          "type": "uint256"
        }
      ],
      "name": "setWithdrawalFee",
      "outputs": [],
      "payable": false,
      "stateMutability": "nonpayable",
      "type": "function"
    },
    {
      "constant": false,
      "inputs": [
        {
          "internalType": "uint256",
          "name": "_treasuryFee",
          "type": "uint256"
        }
      ],
      "name": "setTreasuryFee",
      "outputs": [],
      "payable": false,
      "stateMutability": "nonpayable",
      "type": "function"
    },
    {
      "constant": false,
      "inputs": [
        {
          "internalType": "uint256",
          "name": "_strategistReward",
          "type": "uint256"
        }
      ],
      "name": "setStrategistReward",
      "outputs": [],
      "payable": false,
      "stateMutability": "nonpayable",
      "type": "function"
    },
    {
      "constant": false,
      "inputs": [
        {
          "internalType": "uint256",
          "name": "_threshold",
          "type": "uint256"
        }
      ],
      "name": "setThreshold",
      "outputs": [],
      "payable": false,
      "stateMutability": "nonpayable",
      "type": "function"
    },
    {
      "constant": false,
      "inputs": [
        {
          "internalType": "uint256",
          "name": "_slip",
          "type": "uint256"
        }
      ],
      "name": "setSlip",
      "outputs": [],
      "payable": false,
      "stateMutability": "nonpayable",
      "type": "function"
    }
  ],
  "bytecode": "0x60806040526101f460035560006004819055603260055561177060065560646007556008819055600955600a805460ff1916600117905534801561004257600080fd5b50604051613c8c380380613c8c8339818101604052602081101561006557600080fd5b505160008054336001600160a01b0319918216811783556002805483169091179055600180549091166001600160a01b0390931692909217909155613bdc9081906100b090396000f3fe608060405234801561001057600080fd5b50600436106103275760003560e01c806375b5be2d116101b8578063ac1e502511610104578063ce5494bb116100a2578063da2755051161007c578063da275505146106af578063dfb84f65146106cc578063f4b9fa7514610440578063f77c4791146106d457610327565b8063ce5494bb14610679578063cfc74cec1461069f578063d0e30db0146106a757610327565b8063b7f01bfc116100de578063b7f01bfc1461063b578063c1a3d44c14610643578063c7b9d5301461064b578063cc32d1761461067157610327565b8063ac1e50251461060e578063ac24164e1461062b578063acd829311461063357610327565b80638bc7e8c411610171578063960bfe041161014b578063960bfe04146105bb5780639ae8886a146105d85780639f678cca146105e0578063ab033ea9146105e857610327565b80638bc7e8c414610585578063918f86741461058d57806392eefe9b1461059557610327565b806375b5be2d1461052c57806377e741c7146105345780637d7c2a1c146105515780638158676e14610559578063853828b614610561578063890eba681461056957610327565b8063366cd4f31161027757806342cde4e811610230578063598f2f501161020a578063598f2f501461050c5780635aa6e67514610514578063722713f71461051c57806374637aaa1461052457610327565b806342cde4e8146104d65780634580ea88146104de57806351cff8d9146104e657610327565b8063366cd4f31461048d578063392c731f146104955780633e413bee1461049d5780633eaf5d9f146104a557806341f9ae04146104c6578063422edc7b146104ce57610327565b80631f1fcd51116102e45780632e1a7d4d116102be5780632e1a7d4d146104585780632f48ab7d1461047557806330c283231461047d57806332bd678f1461048557610327565b80631f1fcd51146104405780631fe4a686146104485780632aa05b1a1461045057610327565b80630d596cdf1461032c57806313b857b41461034b57806313d8fdbc14610368578063168ee4751461038557806317d7de7c1461039f57806317e3a3d51461041c575b600080fd5b6103496004803603602081101561034257600080fd5b50356106dc565b005b6103496004803603602081101561036157600080fd5b503561072e565b6103496004803603602081101561037e57600080fd5b503561078d565b61038d610b5e565b60408051918252519081900360200190f35b6103a7610bfb565b6040805160208082528351818301528351919283929083019185019080838360005b838110156103e15781810151838201526020016103c9565b50505050905090810190601f16801561040e5780820380516001836020036101000a031916815260200191505b509250505060405180910390f35b610424610c25565b604080516001600160a01b039092168252519081900360200190f35b610424610c3d565b610424610c4f565b610424610c5e565b6103496004803603602081101561046e57600080fd5b5035610c76565b610424610f69565b61038d610f81565b610424611001565b610424611019565b61038d611031565b610424611037565b6104ad61104f565b6040805192835260208301919091528051918290030190f35b61038d6110fc565b610424611188565b61038d6111a0565b61038d6111a6565b61038d600480360360208110156104fc57600080fd5b50356001600160a01b0316611232565b61042461141a565b610424611432565b61038d611441565b610424611462565b610424611474565b6103496004803603602081101561054a57600080fd5b5035611487565b6103496114d9565b61038d61160c565b61038d611612565b6105716117d5565b604080519115158252519081900360200190f35b61038d6117de565b61038d6117e4565b610349600480360360208110156105ab57600080fd5b50356001600160a01b03166117ea565b610349600480360360208110156105d157600080fd5b5035611859565b61038d6118b8565b6103496118be565b610349600480360360208110156105fe57600080fd5b50356001600160a01b0316611be2565b6103496004803603602081101561062457600080fd5b5035611c51565b610424611ca3565b61038d611cb5565b61038d611d04565b61038d611d0a565b6103496004803603602081101561066157600080fd5b50356001600160a01b0316611d59565b61038d611dd5565b6103496004803603602081101561068f57600080fd5b50356001600160a01b0316611ddb565b6104246120c6565b6103496120d8565b610349600480360360208110156106c557600080fd5b50356124e5565b6104246128f8565b610424612910565b6000546001600160a01b03163314610729576040805162461bcd60e51b815260206004820152600b60248201526a21676f7665726e616e636560a81b604482015290519081900360640190fd5b600555565b6002546001600160a01b031633148061075157506000546001600160a01b031633145b610788576040805162461bcd60e51b815260206004820152600360248201526221736760e81b604482015290519081900360640190fd5b600755565b6002546001600160a01b03163314806107b057506000546001600160a01b031633145b806107c557506001546001600160a01b031633145b806107cf57503330145b61080e576040805162461bcd60e51b815260206004820152600b60248201526a08585d5d1a1bdc9a5e995960aa1b604482015290519081900360640190fd5b61083c600080516020613aa7833981519152600080516020613b08833981519152600063ffffffff61291f16565b610869600080516020613aa7833981519152600080516020613b088339815191528363ffffffff61291f16565b6000610905600080516020613b088339815191526001600160a01b031663bb7b8b806040518163ffffffff1660e01b815260040160206040518083038186803b1580156108b557600080fd5b505afa1580156108c9573d6000803e3d6000fd5b505050506040513d60208110156108df57600080fd5b50516108f984670de0b6b3a764000063ffffffff612a3716565b9063ffffffff612a9916565b9050600080516020613b088339815191526001600160a01b0316634515cef3604051806060016040528085815260200160008152602001600081525061096e6127106108f9610961600754612710612adb90919063ffffffff16565b879063ffffffff612a3716565b6040516001600160e01b031960e085901b1681526004018083606080838360005b838110156109a757818101518382015260200161098f565b5050505090500182815260200192505050600060405180830381600087803b1580156109d257600080fd5b505af11580156109e6573d6000803e3d6000fd5b50505050600854821015610a0f57600854610a07908363ffffffff612adb16565b600855610a15565b60006008555b604080516370a0823160e01b81523060048201529051600091600080516020613ac7833981519152916370a0823191602480820192602092909190829003018186803b158015610a6457600080fd5b505afa158015610a78573d6000803e3d6000fd5b505050506040513d6020811015610a8e57600080fd5b50519050610ac0600080516020613ac7833981519152600080516020613b52833981519152600063ffffffff61291f16565b610aed600080516020613ac7833981519152600080516020613b528339815191528363ffffffff61291f16565b600080516020613b528339815191526001600160a01b031663b6b55f25826040518263ffffffff1660e01b815260040180828152602001915050600060405180830381600087803b158015610b4157600080fd5b505af1158015610b55573d6000803e3d6000fd5b50505050505050565b6000610bf6670de0b6b3a76400006108f9600080516020613b088339815191526001600160a01b031663bb7b8b806040518163ffffffff1660e01b815260040160206040518083038186803b158015610bb657600080fd5b505afa158015610bca573d6000803e3d6000fd5b505050506040513d6020811015610be057600080fd5b5051610bea6110fc565b9063ffffffff612a3716565b905090565b60408051808201909152601081526f14dd1c985d1959de5110524cdc1bdbdb60821b602082015290565b73df5e0e81dff6faf3a7e52ba697820c5e32d806a881565b600080516020613aa783398151915281565b6002546001600160a01b031681565b7373a052500105205d34daf004eab301916da8190f81565b6001546001600160a01b03163314610cc3576040805162461bcd60e51b815260206004820152600b60248201526a10b1b7b73a3937b63632b960a91b604482015290519081900360640190fd5b610ccb6114d9565b604080516370a0823160e01b81523060048201529051600091600080516020613aa7833981519152916370a0823191602480820192602092909190829003018186803b158015610d1a57600080fd5b505afa158015610d2e573d6000803e3d6000fd5b505050506040513d6020811015610d4457600080fd5b5051905081811015610d8657610d68610d63838363ffffffff612adb16565b612b1d565b9150610d7a828263ffffffff612d8116565b60006008559150610db0565b8160085410610daa57600854610da2908363ffffffff612adb16565b600855610db0565b60006008555b60015460408051632988bb9f60e21b8152600080516020613aa7833981519152600482015290516000926001600160a01b03169163a622ee7c916024808301926020929190829003018186803b158015610e0957600080fd5b505afa158015610e1d573d6000803e3d6000fd5b505050506040513d6020811015610e3357600080fd5b505190506001600160a01b038116610e7b576040805162461bcd60e51b8152602060048201526006602482015265085d985d5b1d60d21b604482015290519081900360640190fd5b6000610e986127106108f960045487612a3790919063ffffffff16565b9050610f33600160009054906101000a90046001600160a01b03166001600160a01b0316639ec5a8946040518163ffffffff1660e01b815260040160206040518083038186803b158015610eeb57600080fd5b505afa158015610eff573d6000803e3d6000fd5b505050506040513d6020811015610f1557600080fd5b5051600080516020613aa7833981519152908363ffffffff612ddb16565b610f6382610f47868463ffffffff612adb16565b600080516020613aa7833981519152919063ffffffff612ddb16565b50505050565b73dac17f958d2ee523a2206206994597c13d831ec781565b604080516370a0823160e01b81523060048201529051600091600080516020613b52833981519152916370a0823191602480820192602092909190829003018186803b158015610fd057600080fd5b505afa158015610fe4573d6000803e3d6000fd5b505050506040513d6020811015610ffa57600080fd5b5051905090565b73d6ad7a6750a7593e092a9b218d66c0a814a3436e81565b7316de59092dae5ccf4a1e6439d611fd0653f0bd0181565b60075481565b73a0b86991c6218b36c1d19d4a2e9eb0ce3606eb4881565b6000806110ec6127106108f9600654600080516020613b088339815191526001600160a01b031663065a80d860006040518263ffffffff1660e01b81526004018082600f0b815260200191505060206040518083038186803b1580156110b457600080fd5b505afa1580156110c8573d6000803e3d6000fd5b505050506040513d60208110156110de57600080fd5b50519063ffffffff612a3716565b91506110f6610b5e565b90509091565b6000610bf6670de0b6b3a76400006108f9600080516020613b528339815191526001600160a01b03166377c7b8fc6040518163ffffffff1660e01b815260040160206040518083038186803b15801561115457600080fd5b505afa158015611168573d6000803e3d6000fd5b505050506040513d602081101561117e57600080fd5b5051610bea610f81565b7345f783cce6b7ff23b2ab2d70e416cdb7d6055f5181565b60065481565b6000610bf6670de0b6b3a76400006108f9600080516020613b088339815191526001600160a01b031663bb7b8b806040518163ffffffff1660e01b815260040160206040518083038186803b1580156111fe57600080fd5b505afa158015611212573d6000803e3d6000fd5b505050506040513d602081101561122857600080fd5b5051610bea611cb5565b6001546000906001600160a01b03163314611282576040805162461bcd60e51b815260206004820152600b60248201526a10b1b7b73a3937b63632b960a91b604482015290519081900360640190fd5b600080516020613aa78339815191526001600160a01b03831614156112d7576040805162461bcd60e51b815260206004808301919091526024820152631dd85b9d60e21b604482015290519081900360640190fd5b600080516020613ac78339815191526001600160a01b038316141561132c576040805162461bcd60e51b8152602060048083019190915260248201526319b1b93b60e11b604482015290519081900360640190fd5b600080516020613b528339815191526001600160a01b0383161415611380576040805162461bcd60e51b81526020600482015260056024820152643c99b1b93b60d91b604482015290519081900360640190fd5b604080516370a0823160e01b815230600482015290516001600160a01b038416916370a08231916024808301926020929190829003018186803b1580156113c657600080fd5b505afa1580156113da573d6000803e3d6000fd5b505050506040513d60208110156113f057600080fd5b5051600154909150611415906001600160a01b0384811691168363ffffffff612ddb16565b919050565b735dbcf33d8c2e976c6b560249878e6f1491bca25c81565b6000546001600160a01b031681565b6000610bf661144e610b5e565b611456611d0a565b9063ffffffff612d8116565b600080516020613b5283398151915281565b6e085d4780b73119b644ae5ecd22b37681565b6000546001600160a01b031633146114d4576040805162461bcd60e51b815260206004820152600b60248201526a21676f7665726e616e636560a81b604482015290519081900360640190fd5b600355565b6002546001600160a01b03163314806114fc57506000546001600160a01b031633145b8061151157506001546001600160a01b031633145b8061151b57503330145b61155a576040805162461bcd60e51b815260206004820152600b60248201526a08585d5d1a1bdc9a5e995960aa1b604482015290519081900360640190fd5b6115626118be565b60008061156d61104f565b91509150818111156116085761158c610d63828463ffffffff612adb16565b50604080516370a0823160e01b81523060048201529051600080516020613aa7833981519152916370a08231916024808301926020929190829003018186803b1580156115d857600080fd5b505afa1580156115ec573d6000803e3d6000fd5b505050506040513d602081101561160257600080fd5b50516008555b5050565b60055481565b6001546000906001600160a01b03163314611662576040805162461bcd60e51b815260206004820152600b60248201526a10b1b7b73a3937b63632b960a91b604482015290519081900360640190fd5b61166a612e2d565b604080516370a0823160e01b81523060048201529051600080516020613aa7833981519152916370a08231916024808301926020929190829003018186803b1580156116b557600080fd5b505afa1580156116c9573d6000803e3d6000fd5b505050506040513d60208110156116df57600080fd5b505160015460408051632988bb9f60e21b8152600080516020613aa7833981519152600482015290519293506000926001600160a01b039092169163a622ee7c91602480820192602092909190829003018186803b15801561174057600080fd5b505afa158015611754573d6000803e3d6000fd5b505050506040513d602081101561176a57600080fd5b505190506001600160a01b0381166117b2576040805162461bcd60e51b8152602060048201526006602482015265085d985d5b1d60d21b604482015290519081900360640190fd5b6117d1600080516020613aa7833981519152828463ffffffff612ddb16565b5090565b600a5460ff1681565b60045481565b61271081565b6000546001600160a01b03163314611837576040805162461bcd60e51b815260206004820152600b60248201526a21676f7665726e616e636560a81b604482015290519081900360640190fd5b600180546001600160a01b0319166001600160a01b0392909216919091179055565b6002546001600160a01b031633148061187c57506000546001600160a01b031633145b6118b3576040805162461bcd60e51b815260206004820152600360248201526221736760e81b604482015290519081900360640190fd5b600655565b60095481565b6002546001600160a01b03163314806118e157506000546001600160a01b031633145b806118f657506001546001600160a01b031633145b8061190057503330145b61193f576040805162461bcd60e51b815260206004820152600b60248201526a08585d5d1a1bdc9a5e995960aa1b604482015290519081900360640190fd5b6000600080516020613b528339815191526001600160a01b03166377c7b8fc6040518163ffffffff1660e01b815260040160206040518083038186803b15801561198857600080fd5b505afa15801561199c573d6000803e3d6000fd5b505050506040513d60208110156119b257600080fd5b505160408051630176f71760e71b81529051919250611a4791670de0b6b3a7640000916108f991600080516020613b088339815191529163bb7b8b80916004808301926020929190829003018186803b158015611a0e57600080fd5b505afa158015611a22573d6000803e3d6000fd5b505050506040513d6020811015611a3857600080fd5b5051849063ffffffff612a3716565b9050600954811015611a8b576040805162461bcd60e51b8152602060048201526008602482015267189858daddd85c9960c21b604482015290519081900360640190fd5b6000611ab8670de0b6b3a76400006108f9611aa4610f81565b600954610bea90879063ffffffff612adb16565b90506000611ad76127106108f960055485612a3790919063ffffffff16565b600254909150611b22906001600160a01b0316611b06856108f985670de0b6b3a764000063ffffffff612a3716565b600080516020613b52833981519152919063ffffffff612ddb16565b6000611b3f6127106108f960035486612a3790919063ffffffff16565b9050611bda600160009054906101000a90046001600160a01b03166001600160a01b0316639ec5a8946040518163ffffffff1660e01b815260040160206040518083038186803b158015611b9257600080fd5b505afa158015611ba6573d6000803e3d6000fd5b505050506040513d6020811015611bbc57600080fd5b5051611b06866108f985670de0b6b3a764000063ffffffff612a3716565b505050600955565b6000546001600160a01b03163314611c2f576040805162461bcd60e51b815260206004820152600b60248201526a21676f7665726e616e636560a81b604482015290519081900360640190fd5b600080546001600160a01b0319166001600160a01b0392909216919091179055565b6000546001600160a01b03163314611c9e576040805162461bcd60e51b815260206004820152600b60248201526a21676f7665726e616e636560a81b604482015290519081900360640190fd5b600455565b600080516020613b0883398151915281565b604080516370a0823160e01b81523060048201529051600091600080516020613ac7833981519152916370a0823191602480820192602092909190829003018186803b158015610fd057600080fd5b60085481565b604080516370a0823160e01b81523060048201529051600091600080516020613aa7833981519152916370a0823191602480820192602092909190829003018186803b158015610fd057600080fd5b6000546001600160a01b0316331480611d7c57506002546001600160a01b031633145b611db3576040805162461bcd60e51b815260206004820152600360248201526221677360e81b604482015290519081900360640190fd5b600280546001600160a01b0319166001600160a01b0392909216919091179055565b60035481565b6000546001600160a01b03163314611e28576040805162461bcd60e51b815260206004820152600b60248201526a21676f7665726e616e636560a81b604482015290519081900360640190fd5b600154604080516350abc5b560e11b8152600080516020613aa783398151915260048201526001600160a01b0384811660248301529151919092169163a1578b6a916044808301926020929190829003018186803b158015611e8957600080fd5b505afa158015611e9d573d6000803e3d6000fd5b505050506040513d6020811015611eb357600080fd5b5051611ef8576040805162461bcd60e51b815260206004820152600f60248201526e085cdd185d1959de505b1b1bddd959608a1b604482015290519081900360640190fd5b604080516370a0823160e01b81523060048201529051611f91918391600080516020613b52833981519152916370a08231916024808301926020929190829003018186803b158015611f4957600080fd5b505afa158015611f5d573d6000803e3d6000fd5b505050506040513d6020811015611f7357600080fd5b5051600080516020613b52833981519152919063ffffffff612ddb16565b604080516370a0823160e01b8152306004820152905161202a918391600080516020613ac7833981519152916370a08231916024808301926020929190829003018186803b158015611fe257600080fd5b505afa158015611ff6573d6000803e3d6000fd5b505050506040513d602081101561200c57600080fd5b5051600080516020613ac7833981519152919063ffffffff612ddb16565b604080516370a0823160e01b815230600482015290516120c3918391600080516020613aa7833981519152916370a08231916024808301926020929190829003018186803b15801561207b57600080fd5b505afa15801561208f573d6000803e3d6000fd5b505050506040513d60208110156120a557600080fd5b5051600080516020613aa7833981519152919063ffffffff612ddb16565b50565b600080516020613ac783398151915281565b6002546001600160a01b03163314806120fb57506000546001600160a01b031633145b8061211057506001546001600160a01b031633145b8061211a57503330145b612159576040805162461bcd60e51b815260206004820152600b60248201526a08585d5d1a1bdc9a5e995960aa1b604482015290519081900360640190fd5b600a5460ff16156121775761216c612f9d565b600a805460ff191690555b61217f6114d9565b600854604080516370a0823160e01b8152306004820152905160009261220e929091600080516020613aa7833981519152916370a08231916024808301926020929190829003018186803b1580156121d657600080fd5b505afa1580156121ea573d6000803e3d6000fd5b505050506040513d602081101561220057600080fd5b50519063ffffffff612adb16565b9050801561239757612244600080516020613aa7833981519152600080516020613b08833981519152600063ffffffff61291f16565b612271600080516020613aa7833981519152600080516020613b088339815191528363ffffffff61291f16565b60006122bd600080516020613b088339815191526001600160a01b031663bb7b8b806040518163ffffffff1660e01b815260040160206040518083038186803b1580156108b557600080fd5b9050600080516020613b088339815191526001600160a01b0316634515cef360405180606001604052808581526020016000815260200160008152506123196127106108f9610961600754612710612adb90919063ffffffff16565b6040516001600160e01b031960e085901b1681526004018083606080838360005b8381101561235257818101518382015260200161233a565b5050505090500182815260200192505050600060405180830381600087803b15801561237d57600080fd5b505af1158015612391573d6000803e3d6000fd5b50505050505b604080516370a0823160e01b81523060048201529051600091600080516020613ac7833981519152916370a0823191602480820192602092909190829003018186803b1580156123e657600080fd5b505afa1580156123fa573d6000803e3d6000fd5b505050506040513d602081101561241057600080fd5b50519050801561160857612448600080516020613ac7833981519152600080516020613b52833981519152600063ffffffff61291f16565b612475600080516020613ac7833981519152600080516020613b528339815191528363ffffffff61291f16565b600080516020613b528339815191526001600160a01b031663b6b55f25826040518263ffffffff1660e01b815260040180828152602001915050600060405180830381600087803b1580156124c957600080fd5b505af11580156124dd573d6000803e3d6000fd5b505050505050565b6002546001600160a01b031633148061250857506000546001600160a01b031633145b8061251d57506001546001600160a01b031633145b8061252757503330145b612566576040805162461bcd60e51b815260206004820152600b60248201526a08585d5d1a1bdc9a5e995960aa1b604482015290519081900360640190fd5b604080516370a0823160e01b81523060048201529051600091600080516020613ac7833981519152916370a0823191602480820192602092909190829003018186803b1580156125b557600080fd5b505afa1580156125c9573d6000803e3d6000fd5b505050506040513d60208110156125df57600080fd5b505160408051632e1a7d4d60e01b8152600481018590529051919250600080516020613b5283398151915291632e1a7d4d9160248082019260009290919082900301818387803b15801561263257600080fd5b505af1158015612646573d6000803e3d6000fd5b5050604080516370a0823160e01b8152306004820152905160009350600080516020613ac783398151915292506370a0823191602480820192602092909190829003018186803b15801561269957600080fd5b505afa1580156126ad573d6000803e3d6000fd5b505050506040513d60208110156126c357600080fd5b505190506126d7818363ffffffff612adb16565b9250612707600080516020613ac7833981519152600080516020613b08833981519152600063ffffffff61291f16565b612734600080516020613ac7833981519152600080516020613b088339815191528563ffffffff61291f16565b604080516370a0823160e01b81523060048201529051600080516020613aa7833981519152916370a08231916024808301926020929190829003018186803b15801561277f57600080fd5b505afa158015612793573d6000803e3d6000fd5b505050506040513d60208110156127a957600080fd5b5051600754909250600080516020613b0883398151915290631a4d01d29085906000906127f690612710906108f9906127e990839063ffffffff612adb16565b8a9063ffffffff612a3716565b6040518463ffffffff1660e01b81526004018084815260200183600f0b81526020018281526020019350505050600060405180830381600087803b15801561283d57600080fd5b505af1158015612851573d6000803e3d6000fd5b5050604080516370a0823160e01b81523060048201529051600080516020613aa783398151915293506370a0823192506024808301926020929190829003018186803b1580156128a057600080fd5b505afa1580156128b4573d6000803e3d6000fd5b505050506040513d60208110156128ca57600080fd5b505190506128f06128e1828463ffffffff612adb16565b6008549063ffffffff612d8116565b600855505050565b7383f798e925bcd4017eb265844fddabb448f1707d81565b6001546001600160a01b031681565b8015806129a5575060408051636eb1769f60e11b81523060048201526001600160a01b03848116602483015291519185169163dd62ed3e91604480820192602092909190829003018186803b15801561297757600080fd5b505afa15801561298b573d6000803e3d6000fd5b505050506040513d60208110156129a157600080fd5b5051155b6129e05760405162461bcd60e51b8152600401808060200182810382526036815260200180613b726036913960400191505060405180910390fd5b604080516001600160a01b038416602482015260448082018490528251808303909101815260649091019091526020810180516001600160e01b031663095ea7b360e01b179052612a329084906135ac565b505050565b600082612a4657506000612a93565b82820282848281612a5357fe5b0414612a905760405162461bcd60e51b8152600401808060200182810382526021815260200180613ae76021913960400191505060405180910390fd5b90505b92915050565b6000612a9083836040518060400160405280601a81526020017f536166654d6174683a206469766973696f6e206279207a65726f000000000000815250613764565b6000612a9083836040518060400160405280601e81526020017f536166654d6174683a207375627472616374696f6e206f766572666c6f770000815250613806565b600080612bae600080516020613b088339815191526001600160a01b031663bb7b8b806040518163ffffffff1660e01b815260040160206040518083038186803b158015612b6a57600080fd5b505afa158015612b7e573d6000803e3d6000fd5b505050506040513d6020811015612b9457600080fd5b50516108f985670de0b6b3a764000063ffffffff612a3716565b90506000612bfc600080516020613b528339815191526001600160a01b03166377c7b8fc6040518163ffffffff1660e01b815260040160206040518083038186803b1580156108b557600080fd5b604080516370a0823160e01b81523060048201529051919250600091600080516020613ac7833981519152916370a08231916024808301926020929190829003018186803b158015612c4d57600080fd5b505afa158015612c61573d6000803e3d6000fd5b505050506040513d6020811015612c7757600080fd5b505160408051632e1a7d4d60e01b8152600481018590529051919250600080516020613b5283398151915291632e1a7d4d9160248082019260009290919082900301818387803b158015612cca57600080fd5b505af1158015612cde573d6000803e3d6000fd5b5050604080516370a0823160e01b8152306004820152905160009350600080516020613ac783398151915292506370a0823191602480820192602092909190829003018186803b158015612d3157600080fd5b505afa158015612d45573d6000803e3d6000fd5b505050506040513d6020811015612d5b57600080fd5b50519050612d77612d72828463ffffffff612adb16565b613860565b9695505050505050565b600082820183811015612a90576040805162461bcd60e51b815260206004820152601b60248201527f536166654d6174683a206164646974696f6e206f766572666c6f770000000000604482015290519081900360640190fd5b604080516001600160a01b038416602482015260448082018490528251808303909101815260649091019091526020810180516001600160e01b031663a9059cbb60e01b179052612a329084906135ac565b604080516370a0823160e01b81523060048201529051600091600080516020613b52833981519152916370a0823191602480820192602092909190829003018186803b158015612e7c57600080fd5b505afa158015612e90573d6000803e3d6000fd5b505050506040513d6020811015612ea657600080fd5b5051905080156120c357600080516020613b528339815191526001600160a01b0316632e1a7d4d826040518263ffffffff1660e01b815260040180828152602001915050600060405180830381600087803b158015612f0457600080fd5b505af1158015612f18573d6000803e3d6000fd5b5050604080516370a0823160e01b815230600482015290516116089350600080516020613ac783398151915292506370a0823191602480820192602092909190829003018186803b158015612f6c57600080fd5b505afa158015612f80573d6000803e3d6000fd5b505050506040513d6020811015612f9657600080fd5b5051613860565b604080516370a0823160e01b81523060048201529051600091600080516020613aa7833981519152916370a0823191602480820192602092909190829003018186803b158015612fec57600080fd5b505afa158015613000573d6000803e3d6000fd5b505050506040513d602081101561301657600080fd5b5051905061304e600080516020613aa78339815191527345f783cce6b7ff23b2ab2d70e416cdb7d6055f51600063ffffffff61291f16565b613081600080516020613aa78339815191527345f783cce6b7ff23b2ab2d70e416cdb7d6055f518363ffffffff61291f16565b61309281600363ffffffff612a9916565b60408051635320bf6b60e11b815260006004820181905260016024830152604482018490526064820181905291519293507345f783cce6b7ff23b2ab2d70e416cdb7d6055f519263a6417ed69260848084019391929182900301818387803b1580156130fd57600080fd5b505af1158015613111573d6000803e3d6000fd5b505060408051635320bf6b60e11b815260006004820181905260026024830152604482018690526064820181905291517345f783cce6b7ff23b2ab2d70e416cdb7d6055f51945063a6417ed693506084808301939282900301818387803b15801561317b57600080fd5b505af115801561318f573d6000803e3d6000fd5b5050604080516370a0823160e01b815230600482015290516000935073a0b86991c6218b36c1d19d4a2e9eb0ce3606eb4892506370a0823191602480820192602092909190829003018186803b1580156131e857600080fd5b505afa1580156131fc573d6000803e3d6000fd5b505050506040513d602081101561321257600080fd5b5051905061324a73a0b86991c6218b36c1d19d4a2e9eb0ce3606eb48600080516020613b08833981519152600063ffffffff61291f16565b61327d73a0b86991c6218b36c1d19d4a2e9eb0ce3606eb48600080516020613b088339815191528363ffffffff61291f16565b604080516370a0823160e01b8152306004820152905160009173dac17f958d2ee523a2206206994597c13d831ec7916370a0823191602480820192602092909190829003018186803b1580156132d257600080fd5b505afa1580156132e6573d6000803e3d6000fd5b505050506040513d60208110156132fc57600080fd5b5051905061333473dac17f958d2ee523a2206206994597c13d831ec7600080516020613b08833981519152600063ffffffff61291f16565b61336773dac17f958d2ee523a2206206994597c13d831ec7600080516020613b088339815191528363ffffffff61291f16565b604080516370a0823160e01b81523060048201529051600091600080516020613aa7833981519152916370a0823191602480820192602092909190829003018186803b1580156133b657600080fd5b505afa1580156133ca573d6000803e3d6000fd5b505050506040513d60208110156133e057600080fd5b50519050613412600080516020613aa7833981519152600080516020613b08833981519152600063ffffffff61291f16565b61343f600080516020613aa7833981519152600080516020613b088339815191528363ffffffff61291f16565b60006134cf600080516020613b088339815191526001600160a01b031663bb7b8b806040518163ffffffff1660e01b815260040160206040518083038186803b15801561348b57600080fd5b505afa15801561349f573d6000803e3d6000fd5b505050506040513d60208110156134b557600080fd5b50516108f987670de0b6b3a764000063ffffffff612a3716565b9050600080516020613b088339815191526001600160a01b0316634515cef36040518060600160405280858152602001878152602001868152506135296127106108f9610961600754612710612adb90919063ffffffff16565b6040516001600160e01b031960e085901b1681526004018083606080838360005b8381101561356257818101518382015260200161354a565b5050505090500182815260200192505050600060405180830381600087803b15801561358d57600080fd5b505af11580156135a1573d6000803e3d6000fd5b505050505050505050565b6135be826001600160a01b0316613a6d565b61360f576040805162461bcd60e51b815260206004820152601f60248201527f5361666545524332303a2063616c6c20746f206e6f6e2d636f6e747261637400604482015290519081900360640190fd5b60006060836001600160a01b0316836040518082805190602001908083835b6020831061364d5780518252601f19909201916020918201910161362e565b6001836020036101000a0380198251168184511680821785525050505050509050019150506000604051808303816000865af19150503d80600081146136af576040519150601f19603f3d011682016040523d82523d6000602084013e6136b4565b606091505b50915091508161370b576040805162461bcd60e51b815260206004820181905260248201527f5361666545524332303a206c6f772d6c6576656c2063616c6c206661696c6564604482015290519081900360640190fd5b805115610f635780806020019051602081101561372757600080fd5b5051610f635760405162461bcd60e51b815260040180806020018281038252602a815260200180613b28602a913960400191505060405180910390fd5b600081836137f05760405162461bcd60e51b81526004018080602001828103825283818151815260200191508051906020019080838360005b838110156137b557818101518382015260200161379d565b50505050905090810190601f1680156137e25780820380516001836020036101000a031916815260200191505b509250505060405180910390fd5b5060008385816137fc57fe5b0495945050505050565b600081848411156138585760405162461bcd60e51b81526020600482018181528351602484015283519092839260449091019190850190808383600083156137b557818101518382015260200161379d565b505050900390565b604080516370a0823160e01b815230600482015290516000918291600080516020613aa7833981519152916370a08231916024808301926020929190829003018186803b1580156138b057600080fd5b505afa1580156138c4573d6000803e3d6000fd5b505050506040513d60208110156138da57600080fd5b5051905061390c600080516020613ac7833981519152600080516020613b08833981519152600063ffffffff61291f16565b613939600080516020613ac7833981519152600080516020613b088339815191528563ffffffff61291f16565b600080516020613b088339815191526001600160a01b0316631a4d01d28460006139796127106108f96127e9600754612710612adb90919063ffffffff16565b6040518463ffffffff1660e01b81526004018084815260200183600f0b81526020018281526020019350505050600060405180830381600087803b1580156139c057600080fd5b505af11580156139d4573d6000803e3d6000fd5b5050604080516370a0823160e01b8152306004820152905160009350600080516020613aa783398151915292506370a0823191602480820192602092909190829003018186803b158015613a2757600080fd5b505afa158015613a3b573d6000803e3d6000fd5b505050506040513d6020811015613a5157600080fd5b50519050613a65818363ffffffff612adb16565b949350505050565b6000813f7fc5d2460186f7233c927e7db2dcc703c0e500b653ca82273b7bfad8045d85a470818114801590613a6557505015159291505056fe0000000000000000000000006b175474e89094c44da98b954eedeac495271d0f0000000000000000000000006c3f90f043a72fa612cbac8115ee7e52bde6e490536166654d6174683a206d756c7469706c69636174696f6e206f766572666c6f77000000000000000000000000bebc44782c7db0a1a60cb6fe97d0b483032ff1c75361666545524332303a204552433230206f7065726174696f6e20646964206e6f7420737563636565640000000000000000000000009ca85572e6a3ebf24dedd195623f188735a5179f5361666545524332303a20617070726f76652066726f6d206e6f6e2d7a65726f20746f206e6f6e2d7a65726f20616c6c6f77616e6365a265627a7a72315820f749fd4f3f2b0bc83f0a0fda49906539d96030e9cf1e647361fd37beda59f2dc64736f6c63430005110032",
  "source": "// SPDX-License-Identifier: MIT\n\npragma solidity ^0.5.17;\n\nimport \"@openzeppelinV2/contracts/token/ERC20/IERC20.sol\";\nimport \"@openzeppelinV2/contracts/math/SafeMath.sol\";\nimport \"@openzeppelinV2/contracts/utils/Address.sol\";\nimport \"@openzeppelinV2/contracts/token/ERC20/SafeERC20.sol\";\n\nimport \"../../interfaces/curve/Curve.sol\";\nimport \"../../interfaces/yearn/IController.sol\";\n\ninterface yvERC20 {\n    function deposit(uint256) external;\n\n    function withdraw(uint256) external;\n\n    function getPricePerFullShare() external view returns (uint256);\n}\n\n/*\n\n A strategy must implement the following calls;\n \n - deposit()\n - withdraw(address) must exclude any tokens used in the yield - Controller role - withdraw should return to Controller\n - withdraw(uint) - Controller | Vault role - withdraw should always return to vault\n - withdrawAll() - Controller | Vault role - withdraw should always return to vault\n - balanceOf()\n \n Where possible, strategies must remain as immutable as possible, instead of updating variables, we update the contract by linking it in the controller\n \n*/\n\ncontract StrategyDAI3pool {\n    using SafeERC20 for IERC20;\n    using Address for address;\n    using SafeMath for uint256;\n\n    address public constant want = address(0x6B175474E89094C44Da98b954EedeAC495271d0F);\n    address public constant _3pool = address(0xbEbc44782C7dB0a1A60Cb6fe97d0b483032FF1C7);\n    address public constant _3crv = address(0x6c3F90f043a72FA612cbac8115EE7e52BDe6E490);\n    address public constant y3crv = address(0x9cA85572E6A3EbF24dEDd195623F188735A5179f);\n\n    address public constant ypool = address(0x45F783CCE6B7FF23B2ab2D70e416cdb7D6055f51);\n    address public constant ycrv = address(0xdF5e0e81Dff6FAF3A7e52BA697820c5e32D806A8);\n    address public constant yycrv = address(0x5dbcF33D8c2E976c6b560249878e6F1491Bca25c);\n\n    address public constant dai = address(0x6B175474E89094C44Da98b954EedeAC495271d0F);\n    address public constant ydai = address(0x16de59092dAE5CcF4A1E6439D611fd0653f0Bd01);\n    address public constant usdc = address(0xA0b86991c6218b36c1d19D4a2e9Eb0cE3606eB48);\n    address public constant yusdc = address(0xd6aD7a6750A7593E092a9B218d66C0A814a3436e);\n    address public constant usdt = address(0xdAC17F958D2ee523a2206206994597C13D831ec7);\n    address public constant yusdt = address(0x83f798e925BcD4017Eb265844FDDAbb448f1707D);\n    address public constant tusd = address(0x0000000000085d4780B73119b644AE5ecd22b376);\n    address public constant ytusd = address(0x73a052500105205d34Daf004eAb301916DA8190f);\n\n    address public governance;\n    address public controller;\n    address public strategist;\n\n    uint256 public constant DENOMINATOR = 10000;\n    uint256 public treasuryFee = 500;\n    uint256 public withdrawalFee = 0;\n    uint256 public strategistReward = 50;\n    uint256 public threshold = 6000;\n    uint256 public slip = 100;\n    uint256 public tank = 0;\n    uint256 public p = 0;\n    bool public flag = true;\n\n    modifier isAuthorized() {\n        require(msg.sender == strategist || msg.sender == governance || msg.sender == controller || msg.sender == address(this), \"!authorized\");\n        _;\n    }\n\n    constructor(address _controller) public {\n        governance = msg.sender;\n        strategist = msg.sender;\n        controller = _controller;\n    }\n\n    function getName() external pure returns (string memory) {\n        return \"StrategyDAI3pool\";\n    }\n\n    function unwindHelper() internal {\n        uint256 _want = IERC20(want).balanceOf(address(this));\n        IERC20(want).safeApprove(ypool, 0);\n        IERC20(want).safeApprove(ypool, _want);\n\n        _want = _want.div(3);\n        ICurveFi(ypool).exchange_underlying(0, 1, _want, 0);\n        ICurveFi(ypool).exchange_underlying(0, 2, _want, 0);\n\n        uint256 usdc_amt = IERC20(usdc).balanceOf(address(this));\n        IERC20(usdc).safeApprove(_3pool, 0);\n        IERC20(usdc).safeApprove(_3pool, usdc_amt);\n\n        uint256 usdt_amt = IERC20(usdt).balanceOf(address(this));\n        IERC20(usdt).safeApprove(_3pool, 0);\n        IERC20(usdt).safeApprove(_3pool, usdt_amt);\n\n        uint256 dai_amt = IERC20(dai).balanceOf(address(this));\n        IERC20(dai).safeApprove(_3pool, 0);\n        IERC20(dai).safeApprove(_3pool, dai_amt);\n\n        uint256 v = _want.mul(1e18).div(ICurveFi(_3pool).get_virtual_price());\n        ICurveFi(_3pool).add_liquidity([dai_amt, usdc_amt, usdt_amt], v.mul(DENOMINATOR.sub(slip)).div(DENOMINATOR));\n    }\n\n    function deposit() public isAuthorized {\n        if (flag) {\n            unwindHelper();\n            flag = false;\n        }\n\n        rebalance();\n        uint256 _want = (IERC20(want).balanceOf(address(this))).sub(tank);\n        if (_want > 0) {\n            IERC20(want).safeApprove(_3pool, 0);\n            IERC20(want).safeApprove(_3pool, _want);\n            uint256 v = _want.mul(1e18).div(ICurveFi(_3pool).get_virtual_price());\n            ICurveFi(_3pool).add_liquidity([_want, 0, 0], v.mul(DENOMINATOR.sub(slip)).div(DENOMINATOR));\n        }\n        uint256 _bal = IERC20(_3crv).balanceOf(address(this));\n        if (_bal > 0) {\n            IERC20(_3crv).safeApprove(y3crv, 0);\n            IERC20(_3crv).safeApprove(y3crv, _bal);\n            yvERC20(y3crv).deposit(_bal);\n        }\n    }\n\n    // Controller only function for creating additional rewards from dust\n    function withdraw(IERC20 _asset) external returns (uint256 balance) {\n        require(msg.sender == controller, \"!controller\");\n        require(want != address(_asset), \"want\");\n        require(_3crv != address(_asset), \"3crv\");\n        require(y3crv != address(_asset), \"y3crv\");\n        balance = _asset.balanceOf(address(this));\n        _asset.safeTransfer(controller, balance);\n    }\n\n    // Withdraw partial funds, normally used with a vault withdrawal\n    function withdraw(uint256 _amount) external {\n        require(msg.sender == controller, \"!controller\");\n\n        rebalance();\n        uint256 _balance = IERC20(want).balanceOf(address(this));\n        if (_balance < _amount) {\n            _amount = _withdrawSome(_amount.sub(_balance));\n            _amount = _amount.add(_balance);\n            tank = 0;\n        } else {\n            if (tank >= _amount) tank = tank.sub(_amount);\n            else tank = 0;\n        }\n\n        address _vault = IController(controller).vaults(address(want));\n        require(_vault != address(0), \"!vault\"); // additional protection so we don't burn the funds\n        uint256 _fee = _amount.mul(withdrawalFee).div(DENOMINATOR);\n        IERC20(want).safeTransfer(IController(controller).rewards(), _fee);\n        IERC20(want).safeTransfer(_vault, _amount.sub(_fee));\n    }\n\n    function _withdrawSome(uint256 _amount) internal returns (uint256) {\n        uint256 _amnt = _amount.mul(1e18).div(ICurveFi(_3pool).get_virtual_price());\n        uint256 _amt = _amnt.mul(1e18).div(yvERC20(y3crv).getPricePerFullShare());\n        uint256 _before = IERC20(_3crv).balanceOf(address(this));\n        yvERC20(y3crv).withdraw(_amt);\n        uint256 _after = IERC20(_3crv).balanceOf(address(this));\n        return _withdrawOne(_after.sub(_before));\n    }\n\n    function _withdrawOne(uint256 _amnt) internal returns (uint256) {\n        uint256 _before = IERC20(want).balanceOf(address(this));\n        IERC20(_3crv).safeApprove(_3pool, 0);\n        IERC20(_3crv).safeApprove(_3pool, _amnt);\n        ICurveFi(_3pool).remove_liquidity_one_coin(_amnt, 0, _amnt.mul(DENOMINATOR.sub(slip)).div(DENOMINATOR));\n        uint256 _after = IERC20(want).balanceOf(address(this));\n\n        return _after.sub(_before);\n    }\n\n    // Withdraw all funds, normally used when migrating strategies\n    function withdrawAll() external returns (uint256 balance) {\n        require(msg.sender == controller, \"!controller\");\n        _withdrawAll();\n\n        balance = IERC20(want).balanceOf(address(this));\n\n        address _vault = IController(controller).vaults(address(want));\n        require(_vault != address(0), \"!vault\"); // additional protection so we don't burn the funds\n        IERC20(want).safeTransfer(_vault, balance);\n    }\n\n    function _withdrawAll() internal {\n        uint256 _y3crv = IERC20(y3crv).balanceOf(address(this));\n        if (_y3crv > 0) {\n            yvERC20(y3crv).withdraw(_y3crv);\n            _withdrawOne(IERC20(_3crv).balanceOf(address(this)));\n        }\n    }\n\n    function balanceOfWant() public view returns (uint256) {\n        return IERC20(want).balanceOf(address(this));\n    }\n\n    function balanceOf3CRV() public view returns (uint256) {\n        return IERC20(_3crv).balanceOf(address(this));\n    }\n\n    function balanceOf3CRVinWant() public view returns (uint256) {\n        return balanceOf3CRV().mul(ICurveFi(_3pool).get_virtual_price()).div(1e18);\n    }\n\n    function balanceOfy3CRV() public view returns (uint256) {\n        return IERC20(y3crv).balanceOf(address(this));\n    }\n\n    function balanceOfy3CRVin3CRV() public view returns (uint256) {\n        return balanceOfy3CRV().mul(yvERC20(y3crv).getPricePerFullShare()).div(1e18);\n    }\n\n    function balanceOfy3CRVinWant() public view returns (uint256) {\n        return balanceOfy3CRVin3CRV().mul(ICurveFi(_3pool).get_virtual_price()).div(1e18);\n    }\n\n    function balanceOf() public view returns (uint256) {\n        return balanceOfWant().add(balanceOfy3CRVinWant());\n    }\n\n    function migrate(address _strategy) external {\n        require(msg.sender == governance, \"!governance\");\n        require(IController(controller).approvedStrategies(want, _strategy), \"!stategyAllowed\");\n        IERC20(y3crv).safeTransfer(_strategy, IERC20(y3crv).balanceOf(address(this)));\n        IERC20(_3crv).safeTransfer(_strategy, IERC20(_3crv).balanceOf(address(this)));\n        IERC20(want).safeTransfer(_strategy, IERC20(want).balanceOf(address(this)));\n    }\n\n    function forceD(uint256 _amount) external isAuthorized {\n        IERC20(want).safeApprove(_3pool, 0);\n        IERC20(want).safeApprove(_3pool, _amount);\n        uint256 v = _amount.mul(1e18).div(ICurveFi(_3pool).get_virtual_price());\n        ICurveFi(_3pool).add_liquidity([_amount, 0, 0], v.mul(DENOMINATOR.sub(slip)).div(DENOMINATOR));\n        if (_amount < tank) tank = tank.sub(_amount);\n        else tank = 0;\n\n        uint256 _bal = IERC20(_3crv).balanceOf(address(this));\n        IERC20(_3crv).safeApprove(y3crv, 0);\n        IERC20(_3crv).safeApprove(y3crv, _bal);\n        yvERC20(y3crv).deposit(_bal);\n    }\n\n    function forceW(uint256 _amt) external isAuthorized {\n        uint256 _before = IERC20(_3crv).balanceOf(address(this));\n        yvERC20(y3crv).withdraw(_amt);\n        uint256 _after = IERC20(_3crv).balanceOf(address(this));\n        _amt = _after.sub(_before);\n\n        IERC20(_3crv).safeApprove(_3pool, 0);\n        IERC20(_3crv).safeApprove(_3pool, _amt);\n        _before = IERC20(want).balanceOf(address(this));\n        ICurveFi(_3pool).remove_liquidity_one_coin(_amt, 0, _amt.mul(DENOMINATOR.sub(slip)).div(DENOMINATOR));\n        _after = IERC20(want).balanceOf(address(this));\n        tank = tank.add(_after.sub(_before));\n    }\n\n    function drip() public isAuthorized {\n        uint256 _p = yvERC20(y3crv).getPricePerFullShare();\n        _p = _p.mul(ICurveFi(_3pool).get_virtual_price()).div(1e18);\n        require(_p >= p, \"backward\");\n        uint256 _r = (_p.sub(p)).mul(balanceOfy3CRV()).div(1e18);\n        uint256 _s = _r.mul(strategistReward).div(DENOMINATOR);\n        IERC20(y3crv).safeTransfer(strategist, _s.mul(1e18).div(_p));\n        uint256 _t = _r.mul(treasuryFee).div(DENOMINATOR);\n        IERC20(y3crv).safeTransfer(IController(controller).rewards(), _t.mul(1e18).div(_p));\n        p = _p;\n    }\n\n    function tick() public view returns (uint256 _t, uint256 _c) {\n        _t = ICurveFi(_3pool).balances(0).mul(threshold).div(DENOMINATOR);\n        _c = balanceOfy3CRVinWant();\n    }\n\n    function rebalance() public isAuthorized {\n        drip();\n        (uint256 _t, uint256 _c) = tick();\n        if (_c > _t) {\n            _withdrawSome(_c.sub(_t));\n            tank = IERC20(want).balanceOf(address(this));\n        }\n    }\n\n    function setGovernance(address _governance) external {\n        require(msg.sender == governance, \"!governance\");\n        governance = _governance;\n    }\n\n    function setController(address _controller) external {\n        require(msg.sender == governance, \"!governance\");\n        controller = _controller;\n    }\n\n    function setStrategist(address _strategist) external {\n        require(msg.sender == governance || msg.sender == strategist, \"!gs\");\n        strategist = _strategist;\n    }\n\n    function setWithdrawalFee(uint256 _withdrawalFee) external {\n        require(msg.sender == governance, \"!governance\");\n        withdrawalFee = _withdrawalFee;\n    }\n\n    function setTreasuryFee(uint256 _treasuryFee) external {\n        require(msg.sender == governance, \"!governance\");\n        treasuryFee = _treasuryFee;\n    }\n\n    function setStrategistReward(uint256 _strategistReward) external {\n        require(msg.sender == governance, \"!governance\");\n        strategistReward = _strategistReward;\n    }\n\n    function setThreshold(uint256 _threshold) external {\n        require(msg.sender == strategist || msg.sender == governance, \"!sg\");\n        threshold = _threshold;\n    }\n\n    function setSlip(uint256 _slip) external {\n        require(msg.sender == strategist || msg.sender == governance, \"!sg\");\n        slip = _slip;\n    }\n}\n",
  "sourcePath": "/Users/sbacha/yearn-protocol-nodejs/contracts/strategies/StrategyDAI3pool.sol",
  "compiler": {
    "name": "solc",
    "version": "0.5.17+commit.d19bba13.Emscripten.clang"
  },
  "schemaVersion": "3.3.4",
  "updatedAt": "2021-02-12T05:40:28.157Z",
  "devdoc": {
    "methods": {}
  },
  "userdoc": {
    "methods": {}
  }
}