{
  "contractName": "StrategyCurveBTCVoterProxy",
  "abi": [
    {
      "inputs": [
        {
          "internalType": "address",
          "name": "_controller",
          "type": "address"
        }
      ],
      "payable": false,
      "stateMutability": "nonpayable",
      "type": "constructor"
    },
    {
      "anonymous": false,
      "inputs": [
        {
          "indexed": false,
          "internalType": "uint256",
          "name": "wantEarned",
          "type": "uint256"
        },
        {
          "indexed": false,
          "internalType": "uint256",
          "name": "lifetimeEarned",
          "type": "uint256"
        }
      ],
      "name": "Harvested",
      "type": "event"
    },
    {
      "constant": true,
      "inputs": [],
      "name": "controller",
      "outputs": [
        {
          "internalType": "address",
          "name": "",
          "type": "address"
        }
      ],
      "payable": false,
      "stateMutability": "view",
      "type": "function"
    },
    {
      "constant": true,
      "inputs": [],
      "name": "crv",
      "outputs": [
        {
          "internalType": "address",
          "name": "",
          "type": "address"
        }
      ],
      "payable": false,
      "stateMutability": "view",
      "type": "function"
    },
    {
      "constant": true,
      "inputs": [],
      "name": "curve",
      "outputs": [
        {
          "internalType": "address",
          "name": "",
          "type": "address"
        }
      ],
      "payable": false,
      "stateMutability": "view",
      "type": "function"
    },
    {
      "constant": true,
      "inputs": [],
      "name": "earned",
      "outputs": [
        {
          "internalType": "uint256",
          "name": "",
          "type": "uint256"
        }
      ],
      "payable": false,
      "stateMutability": "view",
      "type": "function"
    },
    {
      "constant": true,
      "inputs": [],
      "name": "gauge",
      "outputs": [
        {
          "internalType": "address",
          "name": "",
          "type": "address"
        }
      ],
      "payable": false,
      "stateMutability": "view",
      "type": "function"
    },
    {
      "constant": true,
      "inputs": [],
      "name": "governance",
      "outputs": [
        {
          "internalType": "address",
          "name": "",
          "type": "address"
        }
      ],
      "payable": false,
      "stateMutability": "view",
      "type": "function"
    },
    {
      "constant": true,
      "inputs": [],
      "name": "keepCRV",
      "outputs": [
        {
          "internalType": "uint256",
          "name": "",
          "type": "uint256"
        }
      ],
      "payable": false,
      "stateMutability": "view",
      "type": "function"
    },
    {
      "constant": true,
      "inputs": [],
      "name": "keepCRVMax",
      "outputs": [
        {
          "internalType": "uint256",
          "name": "",
          "type": "uint256"
        }
      ],
      "payable": false,
      "stateMutability": "view",
      "type": "function"
    },
    {
      "constant": true,
      "inputs": [],
      "name": "performanceFee",
      "outputs": [
        {
          "internalType": "uint256",
          "name": "",
          "type": "uint256"
        }
      ],
      "payable": false,
      "stateMutability": "view",
      "type": "function"
    },
    {
      "constant": true,
      "inputs": [],
      "name": "performanceMax",
      "outputs": [
        {
          "internalType": "uint256",
          "name": "",
          "type": "uint256"
        }
      ],
      "payable": false,
      "stateMutability": "view",
      "type": "function"
    },
    {
      "constant": true,
      "inputs": [],
      "name": "proxy",
      "outputs": [
        {
          "internalType": "address",
          "name": "",
          "type": "address"
        }
      ],
      "payable": false,
      "stateMutability": "view",
      "type": "function"
    },
    {
      "constant": true,
      "inputs": [],
      "name": "strategist",
      "outputs": [
        {
          "internalType": "address",
          "name": "",
          "type": "address"
        }
      ],
      "payable": false,
      "stateMutability": "view",
      "type": "function"
    },
    {
      "constant": true,
      "inputs": [],
      "name": "uni",
      "outputs": [
        {
          "internalType": "address",
          "name": "",
          "type": "address"
        }
      ],
      "payable": false,
      "stateMutability": "view",
      "type": "function"
    },
    {
      "constant": true,
      "inputs": [],
      "name": "voter",
      "outputs": [
        {
          "internalType": "address",
          "name": "",
          "type": "address"
        }
      ],
      "payable": false,
      "stateMutability": "view",
      "type": "function"
    },
    {
      "constant": true,
      "inputs": [],
      "name": "want",
      "outputs": [
        {
          "internalType": "address",
          "name": "",
          "type": "address"
        }
      ],
      "payable": false,
      "stateMutability": "view",
      "type": "function"
    },
    {
      "constant": true,
      "inputs": [],
      "name": "wbtc",
      "outputs": [
        {
          "internalType": "address",
          "name": "",
          "type": "address"
        }
      ],
      "payable": false,
      "stateMutability": "view",
      "type": "function"
    },
    {
      "constant": true,
      "inputs": [],
      "name": "weth",
      "outputs": [
        {
          "internalType": "address",
          "name": "",
          "type": "address"
        }
      ],
      "payable": false,
      "stateMutability": "view",
      "type": "function"
    },
    {
      "constant": true,
      "inputs": [],
      "name": "withdrawalFee",
      "outputs": [
        {
          "internalType": "uint256",
          "name": "",
          "type": "uint256"
        }
      ],
      "payable": false,
      "stateMutability": "view",
      "type": "function"
    },
    {
      "constant": true,
      "inputs": [],
      "name": "withdrawalMax",
      "outputs": [
        {
          "internalType": "uint256",
          "name": "",
          "type": "uint256"
        }
      ],
      "payable": false,
      "stateMutability": "view",
      "type": "function"
    },
    {
      "constant": true,
      "inputs": [],
      "name": "getName",
      "outputs": [
        {
          "internalType": "string",
          "name": "",
          "type": "string"
        }
      ],
      "payable": false,
      "stateMutability": "pure",
      "type": "function"
    },
    {
      "constant": false,
      "inputs": [
        {
          "internalType": "address",
          "name": "_strategist",
          "type": "address"
        }
      ],
      "name": "setStrategist",
      "outputs": [],
      "payable": false,
      "stateMutability": "nonpayable",
      "type": "function"
    },
    {
      "constant": false,
      "inputs": [
        {
          "internalType": "uint256",
          "name": "_keepCRV",
          "type": "uint256"
        }
      ],
      "name": "setKeepCRV",
      "outputs": [],
      "payable": false,
      "stateMutability": "nonpayable",
      "type": "function"
    },
    {
      "constant": false,
      "inputs": [
        {
          "internalType": "uint256",
          "name": "_withdrawalFee",
          "type": "uint256"
        }
      ],
      "name": "setWithdrawalFee",
      "outputs": [],
      "payable": false,
      "stateMutability": "nonpayable",
      "type": "function"
    },
    {
      "constant": false,
      "inputs": [
        {
          "internalType": "uint256",
          "name": "_performanceFee",
          "type": "uint256"
        }
      ],
      "name": "setPerformanceFee",
      "outputs": [],
      "payable": false,
      "stateMutability": "nonpayable",
      "type": "function"
    },
    {
      "constant": false,
      "inputs": [
        {
          "internalType": "address",
          "name": "_proxy",
          "type": "address"
        }
      ],
      "name": "setProxy",
      "outputs": [],
      "payable": false,
      "stateMutability": "nonpayable",
      "type": "function"
    },
    {
      "constant": false,
      "inputs": [],
      "name": "deposit",
      "outputs": [],
      "payable": false,
      "stateMutability": "nonpayable",
      "type": "function"
    },
    {
      "constant": false,
      "inputs": [
        {
          "internalType": "uint256",
          "name": "_amount",
          "type": "uint256"
        }
      ],
      "name": "withdraw",
      "outputs": [],
      "payable": false,
      "stateMutability": "nonpayable",
      "type": "function"
    },
    {
      "constant": false,
      "inputs": [
        {
          "internalType": "contract IERC20",
          "name": "_asset",
          "type": "address"
        }
      ],
      "name": "withdraw",
      "outputs": [
        {
          "internalType": "uint256",
          "name": "balance",
          "type": "uint256"
        }
      ],
      "payable": false,
      "stateMutability": "nonpayable",
      "type": "function"
    },
    {
      "constant": false,
      "inputs": [],
      "name": "withdrawAll",
      "outputs": [
        {
          "internalType": "uint256",
          "name": "balance",
          "type": "uint256"
        }
      ],
      "payable": false,
      "stateMutability": "nonpayable",
      "type": "function"
    },
    {
      "constant": false,
      "inputs": [],
      "name": "harvest",
      "outputs": [],
      "payable": false,
      "stateMutability": "nonpayable",
      "type": "function"
    },
    {
      "constant": true,
      "inputs": [],
      "name": "balanceOfWant",
      "outputs": [
        {
          "internalType": "uint256",
          "name": "",
          "type": "uint256"
        }
      ],
      "payable": false,
      "stateMutability": "view",
      "type": "function"
    },
    {
      "constant": true,
      "inputs": [],
      "name": "balanceOfPool",
      "outputs": [
        {
          "internalType": "uint256",
          "name": "",
          "type": "uint256"
        }
      ],
      "payable": false,
      "stateMutability": "view",
      "type": "function"
    },
    {
      "constant": true,
      "inputs": [],
      "name": "balanceOf",
      "outputs": [
        {
          "internalType": "uint256",
          "name": "",
          "type": "uint256"
        }
      ],
      "payable": false,
      "stateMutability": "view",
      "type": "function"
    },
    {
      "constant": false,
      "inputs": [
        {
          "internalType": "address",
          "name": "_governance",
          "type": "address"
        }
      ],
      "name": "setGovernance",
      "outputs": [],
      "payable": false,
      "stateMutability": "nonpayable",
      "type": "function"
    },
    {
      "constant": false,
      "inputs": [
        {
          "internalType": "address",
          "name": "_controller",
          "type": "address"
        }
      ],
      "name": "setController",
      "outputs": [],
      "payable": false,
      "stateMutability": "nonpayable",
      "type": "function"
    }
  ],
  "bytecode": "0x60806040526103e86000556101f4600155603260025534801561002157600080fd5b5060405161218e38038061218e8339818101604052602081101561004457600080fd5b505160048054336001600160a01b03199182168117909255600680548216909217909155600580549091166001600160a01b039092169190911790556120ff8061008f6000396000f3fe608060405234801561001057600080fd5b50600436106102115760003560e01c8063853828b611610125578063c1a3d44c116100ad578063d6f192621161007c578063d6f192621461048d578063e9751f6b1461037b578063ec55688914610495578063edc9af951461049d578063f77c4791146104a557610211565b8063c1a3d44c14610457578063c7b9d5301461045f578063d0e30db014610485578063d5c1ff731461037b57610211565b8063955383bd116100f4578063955383bd146103c957806397107d6d146103e6578063a6f19c841461040c578063ab033ea914610414578063ac1e50251461043a57610211565b8063853828b61461038b57806387788782146103935780638bc7e8c41461039b57806392eefe9b146103a357610211565b806346c96aac116101a857806370897b231161017757806370897b231461034e5780637165485d1461036b578063722713f7146103735780637cc791131461037b5780637fef901a1461038357610211565b806346c96aac1461031057806351cff8d9146103185780635aa6e6751461033e5780636a4874a11461034657610211565b80632e1a7d4d116101e45780632e1a7d4d146102d95780633cdc5389146102f85780633fc8cef3146103005780634641257d1461030857610211565b8063115880861461021657806317d7de7c146102305780631f1fcd51146102ad5780631fe4a686146102d1575b600080fd5b61021e6104ad565b60408051918252519081900360200190f35b61023861053d565b6040805160208082528351818301528351919283929083019185019080838360005b8381101561027257818101518382015260200161025a565b50505050905090810190601f16801561029f5780820380516001836020036101000a031916815260200191505b509250505060405180910390f35b6102b5610574565b604080516001600160a01b039092168252519081900360200190f35b6102b5610586565b6102f6600480360360208110156102ef57600080fd5b5035610595565b005b6102b5610859565b6102b5610871565b6102f6610889565b6102b561100e565b61021e6004803603602081101561032e57600080fd5b50356001600160a01b0316611026565b6102b5611218565b6102b5611227565b6102f66004803603602081101561036457600080fd5b503561123f565b6102b5611291565b61021e6112a9565b61021e6112cf565b61021e6112d5565b61021e6112db565b61021e61149e565b61021e6114a4565b6102f6600480360360208110156103b957600080fd5b50356001600160a01b03166114aa565b6102f6600480360360208110156103df57600080fd5b5035611519565b6102f6600480360360208110156103fc57600080fd5b50356001600160a01b031661156b565b6102b56115da565b6102f66004803603602081101561042a57600080fd5b50356001600160a01b03166115f2565b6102f66004803603602081101561045057600080fd5b5035611661565b61021e6116b3565b6102f66004803603602081101561047557600080fd5b50356001600160a01b0316611702565b6102f6611771565b61021e6118b0565b6102b56118b6565b6102b56118c5565b6102b56118dd565b600354604080516370a0823160e01b815273705350c4bcd35c9441419ddd5d2f097d7a55410f600482015290516000926001600160a01b0316916370a08231916024808301926020929190829003018186803b15801561050c57600080fd5b505afa158015610520573d6000803e3d6000fd5b505050506040513d602081101561053657600080fd5b5051905090565b60408051808201909152601a81527f53747261746567794375727665425443566f74657250726f7879000000000000602082015290565b60008051602061204b83398151915281565b6006546001600160a01b031681565b6005546001600160a01b031633146105e2576040805162461bcd60e51b815260206004820152600b60248201526a10b1b7b73a3937b63632b960a91b604482015290519081900360640190fd5b604080516370a0823160e01b8152306004820152905160009160008051602061204b833981519152916370a0823191602480820192602092909190829003018186803b15801561063157600080fd5b505afa158015610645573d6000803e3d6000fd5b505050506040513d602081101561065b57600080fd5b50519050818110156106945761067f61067a838363ffffffff6118ec16565b611937565b9150610691828263ffffffff6119e416565b91505b60006106bd6127106106b160025486611a3e90919063ffffffff16565b9063ffffffff611a9716565b9050610758600560009054906101000a90046001600160a01b03166001600160a01b0316639ec5a8946040518163ffffffff1660e01b815260040160206040518083038186803b15801561071057600080fd5b505afa158015610724573d6000803e3d6000fd5b505050506040513d602081101561073a57600080fd5b505160008051602061204b833981519152908363ffffffff611ad916565b60055460408051632988bb9f60e21b815260008051602061204b833981519152600482015290516000926001600160a01b03169163a622ee7c916024808301926020929190829003018186803b1580156107b157600080fd5b505afa1580156107c5573d6000803e3d6000fd5b505050506040513d60208110156107db57600080fd5b505190506001600160a01b038116610823576040805162461bcd60e51b8152602060048201526006602482015265085d985d5b1d60d21b604482015290519081900360640190fd5b61085381610837868563ffffffff6118ec16565b60008051602061204b833981519152919063ffffffff611ad916565b50505050565b732260fac5e5542a773aa44fbcfedf7c193bc2c59981565b73c02aaa39b223fe8d0a0e5c4f27ead9083c756cc281565b6006546001600160a01b03163314806108ac57506004546001600160a01b031633145b6108eb576040805162461bcd60e51b815260206004820152600b60248201526a08585d5d1a1bdc9a5e995960aa1b604482015290519081900360640190fd5b6003546040805163072e008f60e11b815273705350c4bcd35c9441419ddd5d2f097d7a55410f600482015290516001600160a01b0390921691630e5c011e9160248082019260009290919082900301818387803b15801561094b57600080fd5b505af115801561095f573d6000803e3d6000fd5b5050604080516370a0823160e01b815230600482015290516000935073d533a949740bb3306d119cc777fa900ba034cd5292506370a0823191602480820192602092909190829003018186803b1580156109b857600080fd5b505afa1580156109cc573d6000803e3d6000fd5b505050506040513d60208110156109e257600080fd5b505190508015610c97576000610a096127106106b160005485611a3e90919063ffffffff16565b9050610a4473d533a949740bb3306d119cc777fa900ba034cd5273f147b8125d2ef93fb6965db97d6746952a1339348363ffffffff611ad916565b610a54828263ffffffff6118ec16565b9150610a9073d533a949740bb3306d119cc777fa900ba034cd52737a250d5630b4cf539739df2c5dacb4c659f2488d600063ffffffff611b3016565b610ac973d533a949740bb3306d119cc777fa900ba034cd52737a250d5630b4cf539739df2c5dacb4c659f2488d8463ffffffff611b3016565b6040805160038082526080820190925260609160208201838038833901905050905073d533a949740bb3306d119cc777fa900ba034cd5281600081518110610b0d57fe5b60200260200101906001600160a01b031690816001600160a01b03168152505073c02aaa39b223fe8d0a0e5c4f27ead9083c756cc281600181518110610b4f57fe5b60200260200101906001600160a01b031690816001600160a01b031681525050732260fac5e5542a773aa44fbcfedf7c193bc2c59981600281518110610b9157fe5b6001600160a01b0390921660209283029190910190910152737a250d5630b4cf539739df2c5dacb4c659f2488d6338ed17398460008430610bda4261070863ffffffff6119e416565b6040518663ffffffff1660e01b81526004018086815260200185815260200180602001846001600160a01b03166001600160a01b03168152602001838152602001828103825285818151815260200191508051906020019060200280838360005b83811015610c53578181015183820152602001610c3b565b505050509050019650505050505050600060405180830381600087803b158015610c7c57600080fd5b505af1158015610c90573d6000803e3d6000fd5b5050505050505b604080516370a0823160e01b81523060048201529051600091732260fac5e5542a773aa44fbcfedf7c193bc2c599916370a0823191602480820192602092909190829003018186803b158015610cec57600080fd5b505afa158015610d00573d6000803e3d6000fd5b505050506040513d6020811015610d1657600080fd5b505190508015610e5057610d5a732260fac5e5542a773aa44fbcfedf7c193bc2c599737fc77b5c7614e1533320ea6ddc2eb61fa00a9714600063ffffffff611b3016565b610d93732260fac5e5542a773aa44fbcfedf7c193bc2c599737fc77b5c7614e1533320ea6ddc2eb61fa00a97148363ffffffff611b3016565b737fc77b5c7614e1533320ea6ddc2eb61fa00a97146001600160a01b0316634515cef3604051806060016040528060008152602001848152602001600081525060006040518363ffffffff1660e01b81526004018083600360200280838360005b83811015610e0c578181015183820152602001610df4565b5050505090500182815260200192505050600060405180830381600087803b158015610e3757600080fd5b505af1158015610e4b573d6000803e3d6000fd5b505050505b604080516370a0823160e01b8152306004820152905160009160008051602061204b833981519152916370a0823191602480820192602092909190829003018186803b158015610e9f57600080fd5b505afa158015610eb3573d6000803e3d6000fd5b505050506040513d6020811015610ec957600080fd5b505190508015610f4d576000610ef06127106106b160015485611a3e90919063ffffffff16565b9050610f43600560009054906101000a90046001600160a01b03166001600160a01b0316639ec5a8946040518163ffffffff1660e01b815260040160206040518083038186803b15801561071057600080fd5b610f4b611771565b505b600360009054906101000a90046001600160a01b03166001600160a01b031663f83d08ba6040518163ffffffff1660e01b8152600401600060405180830381600087803b158015610f9d57600080fd5b505af1158015610fb1573d6000803e3d6000fd5b5050600754610fc9925090508263ffffffff6119e416565b600781905560408051838152602081019290925280517ffa07446fad45314351eb89109a154880278451332bb87f1824d435fe58da59399281900390910190a1505050565b73f147b8125d2ef93fb6965db97d6746952a13393481565b6005546000906001600160a01b03163314611076576040805162461bcd60e51b815260206004820152600b60248201526a10b1b7b73a3937b63632b960a91b604482015290519081900360640190fd5b60008051602061204b8339815191526001600160a01b03831614156110cb576040805162461bcd60e51b815260206004808301919091526024820152631dd85b9d60e21b604482015290519081900360640190fd5b73d533a949740bb3306d119cc777fa900ba034cd526001600160a01b0383161415611123576040805162461bcd60e51b815260206004820152600360248201526231b93b60e91b604482015290519081900360640190fd5b732260fac5e5542a773aa44fbcfedf7c193bc2c5996001600160a01b038316141561117e576040805162461bcd60e51b815260206004808301919091526024820152637762746360e01b604482015290519081900360640190fd5b604080516370a0823160e01b815230600482015290516001600160a01b038416916370a08231916024808301926020929190829003018186803b1580156111c457600080fd5b505afa1580156111d8573d6000803e3d6000fd5b505050506040513d60208110156111ee57600080fd5b5051600554909150611213906001600160a01b0384811691168363ffffffff611ad916565b919050565b6004546001600160a01b031681565b73d533a949740bb3306d119cc777fa900ba034cd5281565b6004546001600160a01b0316331461128c576040805162461bcd60e51b815260206004820152600b60248201526a21676f7665726e616e636560a81b604482015290519081900360640190fd5b600155565b737fc77b5c7614e1533320ea6ddc2eb61fa00a971481565b60006112ca6112b66104ad565b6112be6116b3565b9063ffffffff6119e416565b905090565b61271081565b60005481565b6005546000906001600160a01b0316331461132b576040805162461bcd60e51b815260206004820152600b60248201526a10b1b7b73a3937b63632b960a91b604482015290519081900360640190fd5b611333611c43565b604080516370a0823160e01b8152306004820152905160008051602061204b833981519152916370a08231916024808301926020929190829003018186803b15801561137e57600080fd5b505afa158015611392573d6000803e3d6000fd5b505050506040513d60208110156113a857600080fd5b505160055460408051632988bb9f60e21b815260008051602061204b833981519152600482015290519293506000926001600160a01b039092169163a622ee7c91602480820192602092909190829003018186803b15801561140957600080fd5b505afa15801561141d573d6000803e3d6000fd5b505050506040513d602081101561143357600080fd5b505190506001600160a01b03811661147b576040805162461bcd60e51b8152602060048201526006602482015265085d985d5b1d60d21b604482015290519081900360640190fd5b61149a60008051602061204b833981519152828463ffffffff611ad916565b5090565b60015481565b60025481565b6004546001600160a01b031633146114f7576040805162461bcd60e51b815260206004820152600b60248201526a21676f7665726e616e636560a81b604482015290519081900360640190fd5b600580546001600160a01b0319166001600160a01b0392909216919091179055565b6004546001600160a01b03163314611566576040805162461bcd60e51b815260206004820152600b60248201526a21676f7665726e616e636560a81b604482015290519081900360640190fd5b600055565b6004546001600160a01b031633146115b8576040805162461bcd60e51b815260206004820152600b60248201526a21676f7665726e616e636560a81b604482015290519081900360640190fd5b600380546001600160a01b0319166001600160a01b0392909216919091179055565b73705350c4bcd35c9441419ddd5d2f097d7a55410f81565b6004546001600160a01b0316331461163f576040805162461bcd60e51b815260206004820152600b60248201526a21676f7665726e616e636560a81b604482015290519081900360640190fd5b600480546001600160a01b0319166001600160a01b0392909216919091179055565b6004546001600160a01b031633146116ae576040805162461bcd60e51b815260206004820152600b60248201526a21676f7665726e616e636560a81b604482015290519081900360640190fd5b600255565b604080516370a0823160e01b8152306004820152905160009160008051602061204b833981519152916370a0823191602480820192602092909190829003018186803b15801561050c57600080fd5b6004546001600160a01b0316331461174f576040805162461bcd60e51b815260206004820152600b60248201526a21676f7665726e616e636560a81b604482015290519081900360640190fd5b600680546001600160a01b0319166001600160a01b0392909216919091179055565b604080516370a0823160e01b8152306004820152905160009160008051602061204b833981519152916370a0823191602480820192602092909190829003018186803b1580156117c057600080fd5b505afa1580156117d4573d6000803e3d6000fd5b505050506040513d60208110156117ea57600080fd5b5051905080156118ad576003546118209060008051602061204b833981519152906001600160a01b03168363ffffffff611ad916565b60035460408051631f2c13e160e31b815273705350c4bcd35c9441419ddd5d2f097d7a55410f600482015260008051602061204b833981519152602482015290516001600160a01b039092169163f9609f089160448082019260009290919082900301818387803b15801561189457600080fd5b505af11580156118a8573d6000803e3d6000fd5b505050505b50565b60075481565b6003546001600160a01b031681565b737a250d5630b4cf539739df2c5dacb4c659f2488d81565b6005546001600160a01b031681565b600061192e83836040518060400160405280601e81526020017f536166654d6174683a207375627472616374696f6e206f766572666c6f770000815250611d39565b90505b92915050565b60035460408051636ce5768960e11b815273705350c4bcd35c9441419ddd5d2f097d7a55410f600482015260008051602061204b83398151915260248201526044810184905290516000926001600160a01b03169163d9caed1291606480830192602092919082900301818787803b1580156119b257600080fd5b505af11580156119c6573d6000803e3d6000fd5b505050506040513d60208110156119dc57600080fd5b505192915050565b60008282018381101561192e576040805162461bcd60e51b815260206004820152601b60248201527f536166654d6174683a206164646974696f6e206f766572666c6f770000000000604482015290519081900360640190fd5b600082611a4d57506000611931565b82820282848281611a5a57fe5b041461192e5760405162461bcd60e51b815260040180806020018281038252602181526020018061202a6021913960400191505060405180910390fd5b600061192e83836040518060400160405280601a81526020017f536166654d6174683a206469766973696f6e206279207a65726f000000000000815250611dd0565b604080516001600160a01b038416602482015260448082018490528251808303909101815260649091019091526020810180516001600160e01b031663a9059cbb60e01b179052611b2b908490611e35565b505050565b801580611bb6575060408051636eb1769f60e11b81523060048201526001600160a01b03848116602483015291519185169163dd62ed3e91604480820192602092909190829003018186803b158015611b8857600080fd5b505afa158015611b9c573d6000803e3d6000fd5b505050506040513d6020811015611bb257600080fd5b5051155b611bf15760405162461bcd60e51b81526004018080602001828103825260368152602001806120956036913960400191505060405180910390fd5b604080516001600160a01b038416602482015260448082018490528251808303909101815260649091019091526020810180516001600160e01b031663095ea7b360e01b179052611b2b908490611e35565b6000611c4d6112a9565b600354604080516301395c5960e31b815273705350c4bcd35c9441419ddd5d2f097d7a55410f600482015260008051602061204b833981519152602482015290519293506001600160a01b03909116916309cae2c8916044808201926020929091908290030181600087803b158015611cc557600080fd5b505af1158015611cd9573d6000803e3d6000fd5b505050506040513d6020811015611cef57600080fd5b50611cfa90506112a9565b81146118ad576040805162461bcd60e51b815260206004820152600960248201526821736c69707061676560b81b604482015290519081900360640190fd5b60008184841115611dc85760405162461bcd60e51b81526004018080602001828103825283818151815260200191508051906020019080838360005b83811015611d8d578181015183820152602001611d75565b50505050905090810190601f168015611dba5780820380516001836020036101000a031916815260200191505b509250505060405180910390fd5b505050900390565b60008183611e1f5760405162461bcd60e51b8152602060048201818152835160248401528351909283926044909101919085019080838360008315611d8d578181015183820152602001611d75565b506000838581611e2b57fe5b0495945050505050565b611e47826001600160a01b0316611fed565b611e98576040805162461bcd60e51b815260206004820152601f60248201527f5361666545524332303a2063616c6c20746f206e6f6e2d636f6e747261637400604482015290519081900360640190fd5b60006060836001600160a01b0316836040518082805190602001908083835b60208310611ed65780518252601f199092019160209182019101611eb7565b6001836020036101000a0380198251168184511680821785525050505050509050019150506000604051808303816000865af19150503d8060008114611f38576040519150601f19603f3d011682016040523d82523d6000602084013e611f3d565b606091505b509150915081611f94576040805162461bcd60e51b815260206004820181905260248201527f5361666545524332303a206c6f772d6c6576656c2063616c6c206661696c6564604482015290519081900360640190fd5b80511561085357808060200190516020811015611fb057600080fd5b50516108535760405162461bcd60e51b815260040180806020018281038252602a81526020018061206b602a913960400191505060405180910390fd5b6000813f7fc5d2460186f7233c927e7db2dcc703c0e500b653ca82273b7bfad8045d85a47081811480159061202157508115155b94935050505056fe536166654d6174683a206d756c7469706c69636174696f6e206f766572666c6f77000000000000000000000000075b1bb99792c9e1041ba13afef80c91a1e70fb35361666545524332303a204552433230206f7065726174696f6e20646964206e6f7420737563636565645361666545524332303a20617070726f76652066726f6d206e6f6e2d7a65726f20746f206e6f6e2d7a65726f20616c6c6f77616e6365a265627a7a723158201403df2b281be709e4303237c6b4cf3e73004391f4476a343ba1e752451f803264736f6c63430005110032",
  "source": "// SPDX-License-Identifier: MIT\n\npragma solidity ^0.5.17;\n\nimport \"@openzeppelinV2/contracts/token/ERC20/IERC20.sol\";\nimport \"@openzeppelinV2/contracts/math/SafeMath.sol\";\nimport \"@openzeppelinV2/contracts/utils/Address.sol\";\nimport \"@openzeppelinV2/contracts/token/ERC20/SafeERC20.sol\";\n\nimport \"../../interfaces/yearn/IController.sol\";\nimport \"../../interfaces/curve/Gauge.sol\";\nimport \"../../interfaces/curve/Mintr.sol\";\nimport \"../../interfaces/uniswap/Uni.sol\";\nimport \"../../interfaces/curve/Curve.sol\";\nimport \"../../interfaces/yearn/IToken.sol\";\nimport \"../../interfaces/yearn/IVoterProxy.sol\";\n\ncontract StrategyCurveBTCVoterProxy {\n    using SafeERC20 for IERC20;\n    using Address for address;\n    using SafeMath for uint256;\n\n    address public constant want = address(0x075b1bb99792c9E1041bA13afEf80C91a1e70fB3);\n    address public constant crv = address(0xD533a949740bb3306d119CC777fa900bA034cd52);\n    address public constant uni = address(0x7a250d5630B4cF539739dF2C5dAcb4c659F2488D);\n    address public constant weth = address(0xC02aaA39b223FE8D0A0e5C4F27eAD9083C756Cc2); // used for crv <> weth <> wbtc route\n\n    address public constant wbtc = address(0x2260FAC5E5542a773Aa44fBCfeDf7C193bc2C599);\n    address public constant curve = address(0x7fC77b5c7614E1533320Ea6DDc2Eb61fa00A9714);\n\n    address public constant gauge = address(0x705350c4BcD35c9441419DdD5d2f097d7a55410F);\n    address public constant voter = address(0xF147b8125d2ef93FB6965Db97D6746952a133934);\n\n    uint256 public keepCRV = 1000;\n    uint256 public constant keepCRVMax = 10000;\n\n    uint256 public performanceFee = 500;\n    uint256 public constant performanceMax = 10000;\n\n    uint256 public withdrawalFee = 50;\n    uint256 public constant withdrawalMax = 10000;\n\n    address public proxy;\n\n    address public governance;\n    address public controller;\n    address public strategist;\n\n    uint256 public earned; // lifetime strategy earnings denominated in `want` token\n\n    event Harvested(uint256 wantEarned, uint256 lifetimeEarned);\n\n    constructor(address _controller) public {\n        governance = msg.sender;\n        strategist = msg.sender;\n        controller = _controller;\n    }\n\n    function getName() external pure returns (string memory) {\n        return \"StrategyCurveBTCVoterProxy\";\n    }\n\n    function setStrategist(address _strategist) external {\n        require(msg.sender == governance, \"!governance\");\n        strategist = _strategist;\n    }\n\n    function setKeepCRV(uint256 _keepCRV) external {\n        require(msg.sender == governance, \"!governance\");\n        keepCRV = _keepCRV;\n    }\n\n    function setWithdrawalFee(uint256 _withdrawalFee) external {\n        require(msg.sender == governance, \"!governance\");\n        withdrawalFee = _withdrawalFee;\n    }\n\n    function setPerformanceFee(uint256 _performanceFee) external {\n        require(msg.sender == governance, \"!governance\");\n        performanceFee = _performanceFee;\n    }\n\n    function setProxy(address _proxy) external {\n        require(msg.sender == governance, \"!governance\");\n        proxy = _proxy;\n    }\n\n    function deposit() public {\n        uint256 _want = IERC20(want).balanceOf(address(this));\n        if (_want > 0) {\n            IERC20(want).safeTransfer(proxy, _want);\n            IVoterProxy(proxy).deposit(gauge, want);\n        }\n    }\n\n    // Controller only function for creating additional rewards from dust\n    function withdraw(IERC20 _asset) external returns (uint256 balance) {\n        require(msg.sender == controller, \"!controller\");\n        require(want != address(_asset), \"want\");\n        require(crv != address(_asset), \"crv\");\n        require(wbtc != address(_asset), \"wbtc\");\n        balance = _asset.balanceOf(address(this));\n        _asset.safeTransfer(controller, balance);\n    }\n\n    // Withdraw partial funds, normally used with a vault withdrawal\n    function withdraw(uint256 _amount) external {\n        require(msg.sender == controller, \"!controller\");\n        uint256 _balance = IERC20(want).balanceOf(address(this));\n        if (_balance < _amount) {\n            _amount = _withdrawSome(_amount.sub(_balance));\n            _amount = _amount.add(_balance);\n        }\n\n        uint256 _fee = _amount.mul(withdrawalFee).div(withdrawalMax);\n\n        IERC20(want).safeTransfer(IController(controller).rewards(), _fee);\n        address _vault = IController(controller).vaults(address(want));\n        require(_vault != address(0), \"!vault\"); // additional protection so we don't burn the funds\n\n        IERC20(want).safeTransfer(_vault, _amount.sub(_fee));\n    }\n\n    // Withdraw all funds, normally used when migrating strategies\n    function withdrawAll() external returns (uint256 balance) {\n        require(msg.sender == controller, \"!controller\");\n        _withdrawAll();\n\n        balance = IERC20(want).balanceOf(address(this));\n\n        address _vault = IController(controller).vaults(address(want));\n        require(_vault != address(0), \"!vault\"); // additional protection so we don't burn the funds\n        IERC20(want).safeTransfer(_vault, balance);\n    }\n\n    function _withdrawAll() internal {\n        uint256 _before = balanceOf();\n        IVoterProxy(proxy).withdrawAll(gauge, want);\n        require(_before == balanceOf(), \"!slippage\");\n    }\n\n    function harvest() public {\n        require(msg.sender == strategist || msg.sender == governance, \"!authorized\");\n        IVoterProxy(proxy).harvest(gauge);\n        uint256 _crv = IERC20(crv).balanceOf(address(this));\n        if (_crv > 0) {\n            uint256 _keepCRV = _crv.mul(keepCRV).div(keepCRVMax);\n            IERC20(crv).safeTransfer(voter, _keepCRV);\n            _crv = _crv.sub(_keepCRV);\n\n            IERC20(crv).safeApprove(uni, 0);\n            IERC20(crv).safeApprove(uni, _crv);\n\n            address[] memory path = new address[](3);\n            path[0] = crv;\n            path[1] = weth;\n            path[2] = wbtc;\n\n            Uni(uni).swapExactTokensForTokens(_crv, uint256(0), path, address(this), now.add(1800));\n        }\n        uint256 _wbtc = IERC20(wbtc).balanceOf(address(this));\n        if (_wbtc > 0) {\n            IERC20(wbtc).safeApprove(curve, 0);\n            IERC20(wbtc).safeApprove(curve, _wbtc);\n            ICurveFi(curve).add_liquidity([0, _wbtc, 0], 0);\n        }\n        uint256 _want = IERC20(want).balanceOf(address(this));\n        if (_want > 0) {\n            uint256 _fee = _want.mul(performanceFee).div(performanceMax);\n            IERC20(want).safeTransfer(IController(controller).rewards(), _fee);\n            deposit();\n        }\n        IVoterProxy(proxy).lock();\n        earned = earned.add(_want);\n        emit Harvested(_want, earned);\n    }\n\n    function _withdrawSome(uint256 _amount) internal returns (uint256) {\n        return IVoterProxy(proxy).withdraw(gauge, want, _amount);\n    }\n\n    function balanceOfWant() public view returns (uint256) {\n        return IERC20(want).balanceOf(address(this));\n    }\n\n    function balanceOfPool() public view returns (uint256) {\n        return IVoterProxy(proxy).balanceOf(gauge);\n    }\n\n    function balanceOf() public view returns (uint256) {\n        return balanceOfWant().add(balanceOfPool());\n    }\n\n    function setGovernance(address _governance) external {\n        require(msg.sender == governance, \"!governance\");\n        governance = _governance;\n    }\n\n    function setController(address _controller) external {\n        require(msg.sender == governance, \"!governance\");\n        controller = _controller;\n    }\n}\n",
  "sourcePath": "/Users/sbacha/yearn-protocol-nodejs/contracts/strategies/StrategyCurveBTCVoterProxy.sol",
  "compiler": {
    "name": "solc",
    "version": "0.5.17+commit.d19bba13.Emscripten.clang"
  },
  "schemaVersion": "3.3.4",
  "updatedAt": "2021-02-12T05:40:28.053Z",
  "devdoc": {
    "methods": {}
  },
  "userdoc": {
    "methods": {}
  }
}