{
    "contractName": "StrategyCurvemUSDVoterProxy",
    "abi": [
        {
            "inputs": [
                {
                    "internalType": "address",
                    "name": "_controller",
                    "type": "address"
                }
            ],
            "payable": false,
            "stateMutability": "nonpayable",
            "type": "constructor"
        },
        {
            "anonymous": false,
            "inputs": [
                {
                    "indexed": false,
                    "internalType": "uint256",
                    "name": "wantEarned",
                    "type": "uint256"
                },
                {
                    "indexed": false,
                    "internalType": "uint256",
                    "name": "lifetimeEarned",
                    "type": "uint256"
                }
            ],
            "name": "Harvested",
            "type": "event"
        },
        {
            "constant": true,
            "inputs": [],
            "name": "FEE_DENOMINATOR",
            "outputs": [
                {
                    "internalType": "uint256",
                    "name": "",
                    "type": "uint256"
                }
            ],
            "payable": false,
            "stateMutability": "view",
            "type": "function"
        },
        {
            "constant": true,
            "inputs": [],
            "name": "controller",
            "outputs": [
                {
                    "internalType": "address",
                    "name": "",
                    "type": "address"
                }
            ],
            "payable": false,
            "stateMutability": "view",
            "type": "function"
        },
        {
            "constant": true,
            "inputs": [],
            "name": "crv",
            "outputs": [
                {
                    "internalType": "address",
                    "name": "",
                    "type": "address"
                }
            ],
            "payable": false,
            "stateMutability": "view",
            "type": "function"
        },
        {
            "constant": true,
            "inputs": [],
            "name": "curve",
            "outputs": [
                {
                    "internalType": "address",
                    "name": "",
                    "type": "address"
                }
            ],
            "payable": false,
            "stateMutability": "view",
            "type": "function"
        },
        {
            "constant": true,
            "inputs": [],
            "name": "dai",
            "outputs": [
                {
                    "internalType": "address",
                    "name": "",
                    "type": "address"
                }
            ],
            "payable": false,
            "stateMutability": "view",
            "type": "function"
        },
        {
            "constant": true,
            "inputs": [],
            "name": "dex",
            "outputs": [
                {
                    "internalType": "address",
                    "name": "",
                    "type": "address"
                }
            ],
            "payable": false,
            "stateMutability": "view",
            "type": "function"
        },
        {
            "constant": true,
            "inputs": [],
            "name": "earned",
            "outputs": [
                {
                    "internalType": "uint256",
                    "name": "",
                    "type": "uint256"
                }
            ],
            "payable": false,
            "stateMutability": "view",
            "type": "function"
        },
        {
            "constant": true,
            "inputs": [],
            "name": "gauge",
            "outputs": [
                {
                    "internalType": "address",
                    "name": "",
                    "type": "address"
                }
            ],
            "payable": false,
            "stateMutability": "view",
            "type": "function"
        },
        {
            "constant": true,
            "inputs": [],
            "name": "governance",
            "outputs": [
                {
                    "internalType": "address",
                    "name": "",
                    "type": "address"
                }
            ],
            "payable": false,
            "stateMutability": "view",
            "type": "function"
        },
        {
            "constant": true,
            "inputs": [],
            "name": "keepCRV",
            "outputs": [
                {
                    "internalType": "uint256",
                    "name": "",
                    "type": "uint256"
                }
            ],
            "payable": false,
            "stateMutability": "view",
            "type": "function"
        },
        {
            "constant": true,
            "inputs": [],
            "name": "keeper",
            "outputs": [
                {
                    "internalType": "address",
                    "name": "",
                    "type": "address"
                }
            ],
            "payable": false,
            "stateMutability": "view",
            "type": "function"
        },
        {
            "constant": true,
            "inputs": [],
            "name": "proxy",
            "outputs": [
                {
                    "internalType": "address",
                    "name": "",
                    "type": "address"
                }
            ],
            "payable": false,
            "stateMutability": "view",
            "type": "function"
        },
        {
            "constant": true,
            "inputs": [],
            "name": "strategist",
            "outputs": [
                {
                    "internalType": "address",
                    "name": "",
                    "type": "address"
                }
            ],
            "payable": false,
            "stateMutability": "view",
            "type": "function"
        },
        {
            "constant": true,
            "inputs": [],
            "name": "strategistReward",
            "outputs": [
                {
                    "internalType": "uint256",
                    "name": "",
                    "type": "uint256"
                }
            ],
            "payable": false,
            "stateMutability": "view",
            "type": "function"
        },
        {
            "constant": true,
            "inputs": [],
            "name": "sushiswap",
            "outputs": [
                {
                    "internalType": "address",
                    "name": "",
                    "type": "address"
                }
            ],
            "payable": false,
            "stateMutability": "view",
            "type": "function"
        },
        {
            "constant": true,
            "inputs": [],
            "name": "treasuryFee",
            "outputs": [
                {
                    "internalType": "uint256",
                    "name": "",
                    "type": "uint256"
                }
            ],
            "payable": false,
            "stateMutability": "view",
            "type": "function"
        },
        {
            "constant": true,
            "inputs": [],
            "name": "uniswap",
            "outputs": [
                {
                    "internalType": "address",
                    "name": "",
                    "type": "address"
                }
            ],
            "payable": false,
            "stateMutability": "view",
            "type": "function"
        },
        {
            "constant": true,
            "inputs": [],
            "name": "voter",
            "outputs": [
                {
                    "internalType": "address",
                    "name": "",
                    "type": "address"
                }
            ],
            "payable": false,
            "stateMutability": "view",
            "type": "function"
        },
        {
            "constant": true,
            "inputs": [],
            "name": "want",
            "outputs": [
                {
                    "internalType": "address",
                    "name": "",
                    "type": "address"
                }
            ],
            "payable": false,
            "stateMutability": "view",
            "type": "function"
        },
        {
            "constant": true,
            "inputs": [],
            "name": "weth",
            "outputs": [
                {
                    "internalType": "address",
                    "name": "",
                    "type": "address"
                }
            ],
            "payable": false,
            "stateMutability": "view",
            "type": "function"
        },
        {
            "constant": true,
            "inputs": [],
            "name": "withdrawalFee",
            "outputs": [
                {
                    "internalType": "uint256",
                    "name": "",
                    "type": "uint256"
                }
            ],
            "payable": false,
            "stateMutability": "view",
            "type": "function"
        },
        {
            "constant": true,
            "inputs": [],
            "name": "getName",
            "outputs": [
                {
                    "internalType": "string",
                    "name": "",
                    "type": "string"
                }
            ],
            "payable": false,
            "stateMutability": "pure",
            "type": "function"
        },
        {
            "constant": false,
            "inputs": [
                {
                    "internalType": "address",
                    "name": "_strategist",
                    "type": "address"
                }
            ],
            "name": "setStrategist",
            "outputs": [],
            "payable": false,
            "stateMutability": "nonpayable",
            "type": "function"
        },
        {
            "constant": false,
            "inputs": [
                {
                    "internalType": "address",
                    "name": "_keeper",
                    "type": "address"
                }
            ],
            "name": "setKeeper",
            "outputs": [],
            "payable": false,
            "stateMutability": "nonpayable",
            "type": "function"
        },
        {
            "constant": false,
            "inputs": [
                {
                    "internalType": "uint256",
                    "name": "_keepCRV",
                    "type": "uint256"
                }
            ],
            "name": "setKeepCRV",
            "outputs": [],
            "payable": false,
            "stateMutability": "nonpayable",
            "type": "function"
        },
        {
            "constant": false,
            "inputs": [
                {
                    "internalType": "uint256",
                    "name": "_withdrawalFee",
                    "type": "uint256"
                }
            ],
            "name": "setWithdrawalFee",
            "outputs": [],
            "payable": false,
            "stateMutability": "nonpayable",
            "type": "function"
        },
        {
            "constant": false,
            "inputs": [
                {
                    "internalType": "uint256",
                    "name": "_treasuryFee",
                    "type": "uint256"
                }
            ],
            "name": "setTreasuryFee",
            "outputs": [],
            "payable": false,
            "stateMutability": "nonpayable",
            "type": "function"
        },
        {
            "constant": false,
            "inputs": [
                {
                    "internalType": "uint256",
                    "name": "_strategistReward",
                    "type": "uint256"
                }
            ],
            "name": "setStrategistReward",
            "outputs": [],
            "payable": false,
            "stateMutability": "nonpayable",
            "type": "function"
        },
        {
            "constant": false,
            "inputs": [
                {
                    "internalType": "address",
                    "name": "_proxy",
                    "type": "address"
                }
            ],
            "name": "setProxy",
            "outputs": [],
            "payable": false,
            "stateMutability": "nonpayable",
            "type": "function"
        },
        {
            "constant": false,
            "inputs": [
                {
                    "internalType": "bool",
                    "name": "isUniswap",
                    "type": "bool"
                }
            ],
            "name": "switchDex",
            "outputs": [],
            "payable": false,
            "stateMutability": "nonpayable",
            "type": "function"
        },
        {
            "constant": false,
            "inputs": [],
            "name": "deposit",
            "outputs": [],
            "payable": false,
            "stateMutability": "nonpayable",
            "type": "function"
        },
        {
            "constant": false,
            "inputs": [
                {
                    "internalType": "uint256",
                    "name": "_amount",
                    "type": "uint256"
                }
            ],
            "name": "withdraw",
            "outputs": [],
            "payable": false,
            "stateMutability": "nonpayable",
            "type": "function"
        },
        {
            "constant": false,
            "inputs": [
                {
                    "internalType": "contract IERC20",
                    "name": "_asset",
                    "type": "address"
                }
            ],
            "name": "withdraw",
            "outputs": [
                {
                    "internalType": "uint256",
                    "name": "balance",
                    "type": "uint256"
                }
            ],
            "payable": false,
            "stateMutability": "nonpayable",
            "type": "function"
        },
        {
            "constant": false,
            "inputs": [],
            "name": "withdrawAll",
            "outputs": [
                {
                    "internalType": "uint256",
                    "name": "balance",
                    "type": "uint256"
                }
            ],
            "payable": false,
            "stateMutability": "nonpayable",
            "type": "function"
        },
        {
            "constant": false,
            "inputs": [],
            "name": "harvest",
            "outputs": [],
            "payable": false,
            "stateMutability": "nonpayable",
            "type": "function"
        },
        {
            "constant": true,
            "inputs": [],
            "name": "balanceOfWant",
            "outputs": [
                {
                    "internalType": "uint256",
                    "name": "",
                    "type": "uint256"
                }
            ],
            "payable": false,
            "stateMutability": "view",
            "type": "function"
        },
        {
            "constant": true,
            "inputs": [],
            "name": "balanceOfPool",
            "outputs": [
                {
                    "internalType": "uint256",
                    "name": "",
                    "type": "uint256"
                }
            ],
            "payable": false,
            "stateMutability": "view",
            "type": "function"
        },
        {
            "constant": true,
            "inputs": [],
            "name": "balanceOf",
            "outputs": [
                {
                    "internalType": "uint256",
                    "name": "",
                    "type": "uint256"
                }
            ],
            "payable": false,
            "stateMutability": "view",
            "type": "function"
        },
        {
            "constant": false,
            "inputs": [
                {
                    "internalType": "address",
                    "name": "_governance",
                    "type": "address"
                }
            ],
            "name": "setGovernance",
            "outputs": [],
            "payable": false,
            "stateMutability": "nonpayable",
            "type": "function"
        },
        {
            "constant": false,
            "inputs": [
                {
                    "internalType": "address",
                    "name": "_controller",
                    "type": "address"
                }
            ],
            "name": "setController",
            "outputs": [],
            "payable": false,
            "stateMutability": "nonpayable",
            "type": "function"
        }
    ],
    "bytecode": "0x60806040526103e86000556103e86001556103e8600255600060035534801561002757600080fd5b506040516124ae3803806124ae8339818101604052602081101561004a57600080fd5b5051600680546001600160a01b03199081163390811790925560088054821683179055600980548216909217909155600780546001600160a01b039093169282169290921790915560048054821673c17adf949f524213a540609c386035d7d685b16f1790556005805490911673d9e1ce17f2641f24ae83637ab66a2cca9c378b9f1790556123d0806100de6000396000f3fe608060405234801561001057600080fd5b50600436106102485760003560e01c80638158676e1161013b578063aced1661116100b8578063d6f192621161007c578063d6f192621461053e578063d73792a914610546578063ec5568891461054e578063f4b9fa7514610556578063f77c47911461055e57610248565b8063aced1661146104f8578063c1a3d44c14610500578063c7b9d53014610508578063cc32d1761461052e578063d0e30db01461053657610248565b806397107d6d116100ff57806397107d6d1461047f5780639be28785146104a5578063a6f19c84146104ad578063ab033ea9146104b5578063ac1e5025146104db57610248565b80638158676e14610424578063853828b61461042c5780638bc7e8c41461043457806392eefe9b1461043c578063955383bd1461046257610248565b806351cff8d9116101c95780637165485d1161018d5780637165485d146103c9578063722713f7146103d1578063748747e6146103d957806377e741c7146103ff5780637fef901a1461041c57610248565b806351cff8d91461036c5780635aa6e67514610392578063692058c21461039a5780636a4874a1146103a25780636bc55876146103aa57610248565b80632681f7e4116102105780632681f7e41461032f5780632e1a7d4d146103375780633fc8cef3146103545780634641257d1461035c57806346c96aac1461036457610248565b80630d596cdf1461024d578063115880861461026c57806317d7de7c146102865780631f1fcd51146103035780631fe4a68614610327575b600080fd5b61026a6004803603602081101561026357600080fd5b5035610566565b005b6102746105b8565b60408051918252519081900360200190f35b61028e61064c565b6040805160208082528351818301528351919283929083019185019080838360005b838110156102c85781810151838201526020016102b0565b50505050905090810190601f1680156102f55780820380516001836020036101000a031916815260200191505b509250505060405180910390f35b61030b610683565b604080516001600160a01b039092168252519081900360200190f35b61030b610695565b61030b6106a4565b61026a6004803603602081101561034d57600080fd5b50356106bc565b61030b610980565b61026a610998565b61030b61119e565b6102746004803603602081101561038257600080fd5b50356001600160a01b03166111b6565b61030b6113a5565b61030b6113b4565b61030b6113c3565b61026a600480360360208110156103c057600080fd5b503515156113db565b61030b611498565b6102746114b0565b61026a600480360360208110156103ef57600080fd5b50356001600160a01b03166114d6565b61026a6004803603602081101561041557600080fd5b503561155a565b6102746115ac565b6102746115b2565b6102746115b8565b61027461177b565b61026a6004803603602081101561045257600080fd5b50356001600160a01b0316611781565b61026a6004803603602081101561047857600080fd5b50356117f0565b61026a6004803603602081101561049557600080fd5b50356001600160a01b0316611842565b61030b6118b1565b61030b6118c9565b61026a600480360360208110156104cb57600080fd5b50356001600160a01b03166118e1565b61026a600480360360208110156104f157600080fd5b5035611950565b61030b6119a2565b6102746119b1565b61026a6004803603602081101561051e57600080fd5b50356001600160a01b0316611a00565b610274611a84565b61026a611a8a565b610274611bc9565b610274611bcf565b61030b611bd5565b61030b611be4565b61030b611bfc565b6006546001600160a01b031633146105b3576040805162461bcd60e51b815260206004820152600b60248201526a21676f7665726e616e636560a81b604482015290519081900360640190fd5b600255565b60048054604080516370a0823160e01b8152735f626c30ec1215f4edcc9982265e8b1f411d135293810193909352516000926001600160a01b03909216916370a08231916024808301926020929190829003018186803b15801561061b57600080fd5b505afa15801561062f573d6000803e3d6000fd5b505050506040513d602081101561064557600080fd5b5051905090565b60408051808201909152601b81527f537472617465677943757276656d555344566f74657250726f78790000000000602082015290565b60008051602061231c83398151915281565b6008546001600160a01b031681565b737a250d5630b4cf539739df2c5dacb4c659f2488d81565b6007546001600160a01b03163314610709576040805162461bcd60e51b815260206004820152600b60248201526a10b1b7b73a3937b63632b960a91b604482015290519081900360640190fd5b604080516370a0823160e01b8152306004820152905160009160008051602061231c833981519152916370a0823191602480820192602092909190829003018186803b15801561075857600080fd5b505afa15801561076c573d6000803e3d6000fd5b505050506040513d602081101561078257600080fd5b50519050818110156107bb576107a66107a1838363ffffffff611c0b16565b611c56565b91506107b8828263ffffffff611d0716565b91505b60006107e46127106107d860035486611d6190919063ffffffff16565b9063ffffffff611dba16565b905061087f600760009054906101000a90046001600160a01b03166001600160a01b0316639ec5a8946040518163ffffffff1660e01b815260040160206040518083038186803b15801561083757600080fd5b505afa15801561084b573d6000803e3d6000fd5b505050506040513d602081101561086157600080fd5b505160008051602061231c833981519152908363ffffffff611dfc16565b60075460408051632988bb9f60e21b815260008051602061231c833981519152600482015290516000926001600160a01b03169163a622ee7c916024808301926020929190829003018186803b1580156108d857600080fd5b505afa1580156108ec573d6000803e3d6000fd5b505050506040513d602081101561090257600080fd5b505190506001600160a01b03811661094a576040805162461bcd60e51b8152602060048201526006602482015265085d985d5b1d60d21b604482015290519081900360640190fd5b61097a8161095e868563ffffffff611c0b16565b60008051602061231c833981519152919063ffffffff611dfc16565b50505050565b73c02aaa39b223fe8d0a0e5c4f27ead9083c756cc281565b6009546001600160a01b03163314806109bb57506008546001600160a01b031633145b806109d057506006546001600160a01b031633145b610a0c576040805162461bcd60e51b8152602060048201526008602482015267216b65657065727360c01b604482015290519081900360640190fd5b600480546040805163072e008f60e11b8152735f626c30ec1215f4edcc9982265e8b1f411d135293810193909352516001600160a01b0390911691630e5c011e91602480830192600092919082900301818387803b158015610a6d57600080fd5b505af1158015610a81573d6000803e3d6000fd5b5050604080516370a0823160e01b815230600482015290516000935073d533a949740bb3306d119cc777fa900ba034cd5292506370a0823191602480820192602092909190829003018186803b158015610ada57600080fd5b505afa158015610aee573d6000803e3d6000fd5b505050506040513d6020811015610b0457600080fd5b505190508015610d99576000610b2b6127106107d860005485611d6190919063ffffffff16565b9050610b6673d533a949740bb3306d119cc777fa900ba034cd5273f147b8125d2ef93fb6965db97d6746952a1339348363ffffffff611dfc16565b610b76828263ffffffff611c0b16565b600554909250610bac9073d533a949740bb3306d119cc777fa900ba034cd52906001600160a01b0316600063ffffffff611e5316565b600554610bde9073d533a949740bb3306d119cc777fa900ba034cd52906001600160a01b03168463ffffffff611e5316565b6040805160038082526080820190925260609160208201838038833901905050905073d533a949740bb3306d119cc777fa900ba034cd5281600081518110610c2257fe5b60200260200101906001600160a01b031690816001600160a01b03168152505073c02aaa39b223fe8d0a0e5c4f27ead9083c756cc281600181518110610c6457fe5b60200260200101906001600160a01b031690816001600160a01b031681525050736b175474e89094c44da98b954eedeac495271d0f81600281518110610ca657fe5b6001600160a01b039283166020918202929092010152600554166338ed17398460008430610cdc4261070863ffffffff611d0716565b6040518663ffffffff1660e01b81526004018086815260200185815260200180602001846001600160a01b03166001600160a01b03168152602001838152602001828103825285818151815260200191508051906020019060200280838360005b83811015610d55578181015183820152602001610d3d565b505050509050019650505050505050600060405180830381600087803b158015610d7e57600080fd5b505af1158015610d92573d6000803e3d6000fd5b5050505050505b604080516370a0823160e01b81523060048201529051600091736b175474e89094c44da98b954eedeac495271d0f916370a0823191602480820192602092909190829003018186803b158015610dee57600080fd5b505afa158015610e02573d6000803e3d6000fd5b505050506040513d6020811015610e1857600080fd5b505190508015610f5957610e5c736b175474e89094c44da98b954eedeac495271d0f7378cf256256c8089d68cde634cf7cdefb39286470600063ffffffff611e5316565b610e95736b175474e89094c44da98b954eedeac495271d0f7378cf256256c8089d68cde634cf7cdefb392864708363ffffffff611e5316565b7378cf256256c8089d68cde634cf7cdefb392864706001600160a01b031663029b2f3460405180608001604052806000815260200184815260200160008152602001600081525060006040518363ffffffff1660e01b81526004018083600460200280838360005b83811015610f15578181015183820152602001610efd565b5050505090500182815260200192505050600060405180830381600087803b158015610f4057600080fd5b505af1158015610f54573d6000803e3d6000fd5b505050505b604080516370a0823160e01b8152306004820152905160009160008051602061231c833981519152916370a0823191602480820192602092909190829003018186803b158015610fa857600080fd5b505afa158015610fbc573d6000803e3d6000fd5b505050506040513d6020811015610fd257600080fd5b5051905080156110ea576000610ff96127106107d860015485611d6190919063ffffffff16565b905060006110186127106107d860025486611d6190919063ffffffff16565b90506110b3600760009054906101000a90046001600160a01b03166001600160a01b0316639ec5a8946040518163ffffffff1660e01b815260040160206040518083038186803b15801561106b57600080fd5b505afa15801561107f573d6000803e3d6000fd5b505050506040513d602081101561109557600080fd5b505160008051602061231c833981519152908463ffffffff611dfc16565b6008546110df9060008051602061231c833981519152906001600160a01b03168363ffffffff611dfc16565b6110e7611a8a565b50505b6004805460408051637c1e845d60e11b815290516001600160a01b039092169263f83d08ba92828201926000929082900301818387803b15801561112d57600080fd5b505af1158015611141573d6000803e3d6000fd5b5050600a54611159925090508263ffffffff611d0716565b600a81905560408051838152602081019290925280517ffa07446fad45314351eb89109a154880278451332bb87f1824d435fe58da59399281900390910190a1505050565b73f147b8125d2ef93fb6965db97d6746952a13393481565b6007546000906001600160a01b03163314611206576040805162461bcd60e51b815260206004820152600b60248201526a10b1b7b73a3937b63632b960a91b604482015290519081900360640190fd5b60008051602061231c8339815191526001600160a01b038316141561125b576040805162461bcd60e51b815260206004808301919091526024820152631dd85b9d60e21b604482015290519081900360640190fd5b73d533a949740bb3306d119cc777fa900ba034cd526001600160a01b03831614156112b3576040805162461bcd60e51b815260206004820152600360248201526231b93b60e91b604482015290519081900360640190fd5b736b175474e89094c44da98b954eedeac495271d0f6001600160a01b038316141561130b576040805162461bcd60e51b815260206004820152600360248201526264616960e81b604482015290519081900360640190fd5b604080516370a0823160e01b815230600482015290516001600160a01b038416916370a08231916024808301926020929190829003018186803b15801561135157600080fd5b505afa158015611365573d6000803e3d6000fd5b505050506040513d602081101561137b57600080fd5b50516007549091506113a0906001600160a01b0384811691168363ffffffff611dfc16565b919050565b6006546001600160a01b031681565b6005546001600160a01b031681565b73d533a949740bb3306d119cc777fa900ba034cd5281565b6008546001600160a01b03163314806113fe57506006546001600160a01b031633145b61143d576040805162461bcd60e51b815260206004820152600b60248201526a08585d5d1a1bdc9a5e995960aa1b604482015290519081900360640190fd5b801561146e57600580546001600160a01b031916737a250d5630b4cf539739df2c5dacb4c659f2488d179055611495565b600580546001600160a01b03191673d9e1ce17f2641f24ae83637ab66a2cca9c378b9f1790555b50565b7378cf256256c8089d68cde634cf7cdefb3928647081565b60006114d16114bd6105b8565b6114c56119b1565b9063ffffffff611d0716565b905090565b6008546001600160a01b03163314806114f957506006546001600160a01b031633145b611538576040805162461bcd60e51b815260206004820152600b60248201526a08585d5d1a1bdc9a5e995960aa1b604482015290519081900360640190fd5b600980546001600160a01b0319166001600160a01b0392909216919091179055565b6006546001600160a01b031633146115a7576040805162461bcd60e51b815260206004820152600b60248201526a21676f7665726e616e636560a81b604482015290519081900360640190fd5b600155565b60005481565b60025481565b6007546000906001600160a01b03163314611608576040805162461bcd60e51b815260206004820152600b60248201526a10b1b7b73a3937b63632b960a91b604482015290519081900360640190fd5b611610611f66565b604080516370a0823160e01b8152306004820152905160008051602061231c833981519152916370a08231916024808301926020929190829003018186803b15801561165b57600080fd5b505afa15801561166f573d6000803e3d6000fd5b505050506040513d602081101561168557600080fd5b505160075460408051632988bb9f60e21b815260008051602061231c833981519152600482015290519293506000926001600160a01b039092169163a622ee7c91602480820192602092909190829003018186803b1580156116e657600080fd5b505afa1580156116fa573d6000803e3d6000fd5b505050506040513d602081101561171057600080fd5b505190506001600160a01b038116611758576040805162461bcd60e51b8152602060048201526006602482015265085d985d5b1d60d21b604482015290519081900360640190fd5b61177760008051602061231c833981519152828463ffffffff611dfc16565b5090565b60035481565b6006546001600160a01b031633146117ce576040805162461bcd60e51b815260206004820152600b60248201526a21676f7665726e616e636560a81b604482015290519081900360640190fd5b600780546001600160a01b0319166001600160a01b0392909216919091179055565b6006546001600160a01b0316331461183d576040805162461bcd60e51b815260206004820152600b60248201526a21676f7665726e616e636560a81b604482015290519081900360640190fd5b600055565b6006546001600160a01b0316331461188f576040805162461bcd60e51b815260206004820152600b60248201526a21676f7665726e616e636560a81b604482015290519081900360640190fd5b600480546001600160a01b0319166001600160a01b0392909216919091179055565b73d9e1ce17f2641f24ae83637ab66a2cca9c378b9f81565b735f626c30ec1215f4edcc9982265e8b1f411d135281565b6006546001600160a01b0316331461192e576040805162461bcd60e51b815260206004820152600b60248201526a21676f7665726e616e636560a81b604482015290519081900360640190fd5b600680546001600160a01b0319166001600160a01b0392909216919091179055565b6006546001600160a01b0316331461199d576040805162461bcd60e51b815260206004820152600b60248201526a21676f7665726e616e636560a81b604482015290519081900360640190fd5b600355565b6009546001600160a01b031681565b604080516370a0823160e01b8152306004820152905160009160008051602061231c833981519152916370a0823191602480820192602092909190829003018186803b15801561061b57600080fd5b6008546001600160a01b0316331480611a2357506006546001600160a01b031633145b611a62576040805162461bcd60e51b815260206004820152600b60248201526a08585d5d1a1bdc9a5e995960aa1b604482015290519081900360640190fd5b600880546001600160a01b0319166001600160a01b0392909216919091179055565b60015481565b604080516370a0823160e01b8152306004820152905160009160008051602061231c833981519152916370a0823191602480820192602092909190829003018186803b158015611ad957600080fd5b505afa158015611aed573d6000803e3d6000fd5b505050506040513d6020811015611b0357600080fd5b50519050801561149557600454611b399060008051602061231c833981519152906001600160a01b03168363ffffffff611dfc16565b6004805460408051631f2c13e160e31b8152735f626c30ec1215f4edcc9982265e8b1f411d13529381019390935260008051602061231c8339815191526024840152516001600160a01b039091169163f9609f0891604480830192600092919082900301818387803b158015611bae57600080fd5b505af1158015611bc2573d6000803e3d6000fd5b5050505050565b600a5481565b61271081565b6004546001600160a01b031681565b736b175474e89094c44da98b954eedeac495271d0f81565b6007546001600160a01b031681565b6000611c4d83836040518060400160405280601e81526020017f536166654d6174683a207375627472616374696f6e206f766572666c6f77000081525061200a565b90505b92915050565b6004805460408051636ce5768960e11b8152735f626c30ec1215f4edcc9982265e8b1f411d13529381019390935260008051602061231c833981519152602484015260448301849052516000926001600160a01b039092169163d9caed1291606480830192602092919082900301818787803b158015611cd557600080fd5b505af1158015611ce9573d6000803e3d6000fd5b505050506040513d6020811015611cff57600080fd5b505192915050565b600082820183811015611c4d576040805162461bcd60e51b815260206004820152601b60248201527f536166654d6174683a206164646974696f6e206f766572666c6f770000000000604482015290519081900360640190fd5b600082611d7057506000611c50565b82820282848281611d7d57fe5b0414611c4d5760405162461bcd60e51b81526004018080602001828103825260218152602001806122fb6021913960400191505060405180910390fd5b6000611c4d83836040518060400160405280601a81526020017f536166654d6174683a206469766973696f6e206279207a65726f0000000000008152506120a1565b604080516001600160a01b038416602482015260448082018490528251808303909101815260649091019091526020810180516001600160e01b031663a9059cbb60e01b179052611e4e908490612106565b505050565b801580611ed9575060408051636eb1769f60e11b81523060048201526001600160a01b03848116602483015291519185169163dd62ed3e91604480820192602092909190829003018186803b158015611eab57600080fd5b505afa158015611ebf573d6000803e3d6000fd5b505050506040513d6020811015611ed557600080fd5b5051155b611f145760405162461bcd60e51b81526004018080602001828103825260368152602001806123666036913960400191505060405180910390fd5b604080516001600160a01b038416602482015260448082018490528251808303909101815260649091019091526020810180516001600160e01b031663095ea7b360e01b179052611e4e908490612106565b60048054604080516301395c5960e31b8152735f626c30ec1215f4edcc9982265e8b1f411d13529381019390935260008051602061231c8339815191526024840152516001600160a01b03909116916309cae2c89160448083019260209291908290030181600087803b158015611fdc57600080fd5b505af1158015611ff0573d6000803e3d6000fd5b505050506040513d602081101561200657600080fd5b5050565b600081848411156120995760405162461bcd60e51b81526004018080602001828103825283818151815260200191508051906020019080838360005b8381101561205e578181015183820152602001612046565b50505050905090810190601f16801561208b5780820380516001836020036101000a031916815260200191505b509250505060405180910390fd5b505050900390565b600081836120f05760405162461bcd60e51b815260206004820181815283516024840152835190928392604490910191908501908083836000831561205e578181015183820152602001612046565b5060008385816120fc57fe5b0495945050505050565b612118826001600160a01b03166122be565b612169576040805162461bcd60e51b815260206004820152601f60248201527f5361666545524332303a2063616c6c20746f206e6f6e2d636f6e747261637400604482015290519081900360640190fd5b60006060836001600160a01b0316836040518082805190602001908083835b602083106121a75780518252601f199092019160209182019101612188565b6001836020036101000a0380198251168184511680821785525050505050509050019150506000604051808303816000865af19150503d8060008114612209576040519150601f19603f3d011682016040523d82523d6000602084013e61220e565b606091505b509150915081612265576040805162461bcd60e51b815260206004820181905260248201527f5361666545524332303a206c6f772d6c6576656c2063616c6c206661696c6564604482015290519081900360640190fd5b80511561097a5780806020019051602081101561228157600080fd5b505161097a5760405162461bcd60e51b815260040180806020018281038252602a81526020018061233c602a913960400191505060405180910390fd5b6000813f7fc5d2460186f7233c927e7db2dcc703c0e500b653ca82273b7bfad8045d85a4708181148015906122f257508115155b94935050505056fe536166654d6174683a206d756c7469706c69636174696f6e206f766572666c6f770000000000000000000000001aef73d49dedc4b1778d0706583995958dc862e65361666545524332303a204552433230206f7065726174696f6e20646964206e6f7420737563636565645361666545524332303a20617070726f76652066726f6d206e6f6e2d7a65726f20746f206e6f6e2d7a65726f20616c6c6f77616e6365a265627a7a72315820ed2409be6a3ad891a0a39ad22538f6915d9ff586bc03ee480bee6c898344858e64736f6c63430005110032",
    "source": "// SPDX-License-Identifier: MIT\n\npragma solidity ^0.5.17;\n\nimport \"@openzeppelin/contracts/token/ERC20/IERC20.sol\";\nimport \"@openzeppelin/contracts/math/SafeMath.sol\";\nimport \"@openzeppelin/contracts/utils/Address.sol\";\nimport \"@openzeppelin/contracts/token/ERC20/SafeERC20.sol\";\n\nimport \"../../interfaces/yearn/IController.sol\";\nimport \"../../interfaces/curve/Gauge.sol\";\nimport \"../../interfaces/curve/Mintr.sol\";\nimport \"../../interfaces/uniswap/Uni.sol\";\nimport \"../../interfaces/curve/Curve.sol\";\nimport \"../../interfaces/yearn/IVoterProxy.sol\";\n\ncontract StrategyCurvemUSDVoterProxy {\n    using SafeERC20 for IERC20;\n    using Address for address;\n    using SafeMath for uint256;\n\n    address public constant want = address(0x1AEf73d49Dedc4b1778d0706583995958Dc862e6);\n    address public constant crv = address(0xD533a949740bb3306d119CC777fa900bA034cd52);\n\n    address public constant curve = address(0x78CF256256C8089d68Cde634Cf7cDEFb39286470);\n    address public constant gauge = address(0x5f626c30EC1215f4EdCc9982265E8b1F411D1352);\n    address public constant voter = address(0xF147b8125d2ef93FB6965Db97D6746952a133934);\n\n    address public constant uniswap = address(0x7a250d5630B4cF539739dF2C5dAcb4c659F2488D);\n    address public constant sushiswap = address(0xd9e1cE17f2641f24aE83637ab66a2cca9C378B9F);\n    address public constant dai = address(0x6B175474E89094C44Da98b954EedeAC495271d0F);\n    address public constant weth = address(0xC02aaA39b223FE8D0A0e5C4F27eAD9083C756Cc2); // used for crv <> weth <> dai route\n\n    uint256 public keepCRV = 1000;\n    uint256 public treasuryFee = 1000;\n    uint256 public strategistReward = 1000;\n    uint256 public withdrawalFee = 0;\n    uint256 public constant FEE_DENOMINATOR = 10000;\n\n    address public proxy;\n    address public dex;\n\n    address public governance;\n    address public controller;\n    address public strategist;\n    address public keeper;\n\n    uint256 public earned; // lifetime strategy earnings denominated in `want` token\n\n    event Harvested(uint256 wantEarned, uint256 lifetimeEarned);\n\n    constructor(address _controller) public {\n        governance = msg.sender;\n        strategist = msg.sender;\n        keeper = msg.sender;\n        controller = _controller;\n        // standardize constructor\n        proxy = address(0xC17ADf949f524213a540609c386035D7D685B16F);\n        dex = sushiswap;\n    }\n\n    function getName() external pure returns (string memory) {\n        return \"StrategyCurvemUSDVoterProxy\";\n    }\n\n    function setStrategist(address _strategist) external {\n        require(msg.sender == strategist || msg.sender == governance, \"!authorized\");\n        strategist = _strategist;\n    }\n\n    function setKeeper(address _keeper) external {\n        require(msg.sender == strategist || msg.sender == governance, \"!authorized\");\n        keeper = _keeper;\n    }\n\n    function setKeepCRV(uint256 _keepCRV) external {\n        require(msg.sender == governance, \"!governance\");\n        keepCRV = _keepCRV;\n    }\n\n    function setWithdrawalFee(uint256 _withdrawalFee) external {\n        require(msg.sender == governance, \"!governance\");\n        withdrawalFee = _withdrawalFee;\n    }\n\n    function setTreasuryFee(uint256 _treasuryFee) external {\n        require(msg.sender == governance, \"!governance\");\n        treasuryFee = _treasuryFee;\n    }\n\n    function setStrategistReward(uint256 _strategistReward) external {\n        require(msg.sender == governance, \"!governance\");\n        strategistReward = _strategistReward;\n    }\n\n    function setProxy(address _proxy) external {\n        require(msg.sender == governance, \"!governance\");\n        proxy = _proxy;\n    }\n\n    function switchDex(bool isUniswap) external {\n        require(msg.sender == strategist || msg.sender == governance, \"!authorized\");\n        if (isUniswap) {\n            dex = uniswap;\n        } else {\n            dex = sushiswap;\n        }\n    }\n\n    function deposit() public {\n        uint256 _want = IERC20(want).balanceOf(address(this));\n        if (_want > 0) {\n            IERC20(want).safeTransfer(proxy, _want);\n            IVoterProxy(proxy).deposit(gauge, want);\n        }\n    }\n\n    // Controller only function for creating additional rewards from dust\n    function withdraw(IERC20 _asset) external returns (uint256 balance) {\n        require(msg.sender == controller, \"!controller\");\n        require(want != address(_asset), \"want\");\n        require(crv != address(_asset), \"crv\");\n        require(dai != address(_asset), \"dai\");\n        balance = _asset.balanceOf(address(this));\n        _asset.safeTransfer(controller, balance);\n    }\n\n    // Withdraw partial funds, normally used with a vault withdrawal\n    function withdraw(uint256 _amount) external {\n        require(msg.sender == controller, \"!controller\");\n        uint256 _balance = IERC20(want).balanceOf(address(this));\n        if (_balance < _amount) {\n            _amount = _withdrawSome(_amount.sub(_balance));\n            _amount = _amount.add(_balance);\n        }\n\n        uint256 _fee = _amount.mul(withdrawalFee).div(FEE_DENOMINATOR);\n\n        IERC20(want).safeTransfer(IController(controller).rewards(), _fee);\n        address _vault = IController(controller).vaults(address(want));\n        require(_vault != address(0), \"!vault\"); // additional protection so we don't burn the funds\n        IERC20(want).safeTransfer(_vault, _amount.sub(_fee));\n    }\n\n    function _withdrawSome(uint256 _amount) internal returns (uint256) {\n        return IVoterProxy(proxy).withdraw(gauge, want, _amount);\n    }\n\n    // Withdraw all funds, normally used when migrating strategies\n    function withdrawAll() external returns (uint256 balance) {\n        require(msg.sender == controller, \"!controller\");\n        _withdrawAll();\n\n        balance = IERC20(want).balanceOf(address(this));\n\n        address _vault = IController(controller).vaults(address(want));\n        require(_vault != address(0), \"!vault\"); // additional protection so we don't burn the funds\n        IERC20(want).safeTransfer(_vault, balance);\n    }\n\n    function _withdrawAll() internal {\n        IVoterProxy(proxy).withdrawAll(gauge, want);\n    }\n\n    function harvest() public {\n        require(msg.sender == keeper || msg.sender == strategist || msg.sender == governance, \"!keepers\");\n        IVoterProxy(proxy).harvest(gauge);\n        uint256 _crv = IERC20(crv).balanceOf(address(this));\n        if (_crv > 0) {\n            uint256 _keepCRV = _crv.mul(keepCRV).div(FEE_DENOMINATOR);\n            IERC20(crv).safeTransfer(voter, _keepCRV);\n            _crv = _crv.sub(_keepCRV);\n\n            IERC20(crv).safeApprove(dex, 0);\n            IERC20(crv).safeApprove(dex, _crv);\n\n            address[] memory path = new address[](3);\n            path[0] = crv;\n            path[1] = weth;\n            path[2] = dai;\n\n            Uni(dex).swapExactTokensForTokens(_crv, uint256(0), path, address(this), now.add(1800));\n        }\n        uint256 _dai = IERC20(dai).balanceOf(address(this));\n        if (_dai > 0) {\n            IERC20(dai).safeApprove(curve, 0);\n            IERC20(dai).safeApprove(curve, _dai);\n            ICurveFi(curve).add_liquidity([0, _dai, 0, 0], 0);\n        }\n        uint256 _want = IERC20(want).balanceOf(address(this));\n        if (_want > 0) {\n            uint256 _fee = _want.mul(treasuryFee).div(FEE_DENOMINATOR);\n            uint256 _reward = _want.mul(strategistReward).div(FEE_DENOMINATOR);\n            IERC20(want).safeTransfer(IController(controller).rewards(), _fee);\n            IERC20(want).safeTransfer(strategist, _reward);\n            deposit();\n        }\n        IVoterProxy(proxy).lock();\n        earned = earned.add(_want);\n        emit Harvested(_want, earned);\n    }\n\n    function balanceOfWant() public view returns (uint256) {\n        return IERC20(want).balanceOf(address(this));\n    }\n\n    function balanceOfPool() public view returns (uint256) {\n        return IVoterProxy(proxy).balanceOf(gauge);\n    }\n\n    function balanceOf() public view returns (uint256) {\n        return balanceOfWant().add(balanceOfPool());\n    }\n\n    function setGovernance(address _governance) external {\n        require(msg.sender == governance, \"!governance\");\n        governance = _governance;\n    }\n\n    function setController(address _controller) external {\n        require(msg.sender == governance, \"!governance\");\n        controller = _controller;\n    }\n}\n",
    "sourcePath": "/Users/sbacha/yearn-protocol-nodejs/contracts/strategies/StrategyCurvemUSDVoterProxy.sol",
    "compiler": {
        "name": "solc",
        "version": "0.5.17+commit.d19bba13.Emscripten.clang"
    },
    "schemaVersion": "3.3.3",
    "updatedAt": "2021-01-01T09:28:49.124Z",
    "devdoc": {
        "methods": {}
    },
    "userdoc": {
        "methods": {}
    }
}