{
  "contractName": "StrategyTUSDypool",
  "abi": [
    {
      "inputs": [
        {
          "internalType": "address",
          "name": "_controller",
          "type": "address"
        }
      ],
      "payable": false,
      "stateMutability": "nonpayable",
      "type": "constructor"
    },
    {
      "anonymous": false,
      "inputs": [
        {
          "indexed": true,
          "internalType": "address",
          "name": "strategy",
          "type": "address"
        }
      ],
      "name": "Threshold",
      "type": "event"
    },
    {
      "constant": true,
      "inputs": [],
      "name": "DENOMINATOR",
      "outputs": [
        {
          "internalType": "uint256",
          "name": "",
          "type": "uint256"
        }
      ],
      "payable": false,
      "stateMutability": "view",
      "type": "function"
    },
    {
      "constant": true,
      "inputs": [],
      "name": "controller",
      "outputs": [
        {
          "internalType": "address",
          "name": "",
          "type": "address"
        }
      ],
      "payable": false,
      "stateMutability": "view",
      "type": "function"
    },
    {
      "constant": true,
      "inputs": [],
      "name": "dai",
      "outputs": [
        {
          "internalType": "address",
          "name": "",
          "type": "address"
        }
      ],
      "payable": false,
      "stateMutability": "view",
      "type": "function"
    },
    {
      "constant": true,
      "inputs": [],
      "name": "governance",
      "outputs": [
        {
          "internalType": "address",
          "name": "",
          "type": "address"
        }
      ],
      "payable": false,
      "stateMutability": "view",
      "type": "function"
    },
    {
      "constant": true,
      "inputs": [],
      "name": "p",
      "outputs": [
        {
          "internalType": "uint256",
          "name": "",
          "type": "uint256"
        }
      ],
      "payable": false,
      "stateMutability": "view",
      "type": "function"
    },
    {
      "constant": true,
      "inputs": [],
      "name": "slip",
      "outputs": [
        {
          "internalType": "uint256",
          "name": "",
          "type": "uint256"
        }
      ],
      "payable": false,
      "stateMutability": "view",
      "type": "function"
    },
    {
      "constant": true,
      "inputs": [],
      "name": "strategist",
      "outputs": [
        {
          "internalType": "address",
          "name": "",
          "type": "address"
        }
      ],
      "payable": false,
      "stateMutability": "view",
      "type": "function"
    },
    {
      "constant": true,
      "inputs": [],
      "name": "strategistReward",
      "outputs": [
        {
          "internalType": "uint256",
          "name": "",
          "type": "uint256"
        }
      ],
      "payable": false,
      "stateMutability": "view",
      "type": "function"
    },
    {
      "constant": true,
      "inputs": [],
      "name": "tank",
      "outputs": [
        {
          "internalType": "uint256",
          "name": "",
          "type": "uint256"
        }
      ],
      "payable": false,
      "stateMutability": "view",
      "type": "function"
    },
    {
      "constant": true,
      "inputs": [],
      "name": "threshold",
      "outputs": [
        {
          "internalType": "uint256",
          "name": "",
          "type": "uint256"
        }
      ],
      "payable": false,
      "stateMutability": "view",
      "type": "function"
    },
    {
      "constant": true,
      "inputs": [],
      "name": "treasuryFee",
      "outputs": [
        {
          "internalType": "uint256",
          "name": "",
          "type": "uint256"
        }
      ],
      "payable": false,
      "stateMutability": "view",
      "type": "function"
    },
    {
      "constant": true,
      "inputs": [],
      "name": "tusd",
      "outputs": [
        {
          "internalType": "address",
          "name": "",
          "type": "address"
        }
      ],
      "payable": false,
      "stateMutability": "view",
      "type": "function"
    },
    {
      "constant": true,
      "inputs": [],
      "name": "usdc",
      "outputs": [
        {
          "internalType": "address",
          "name": "",
          "type": "address"
        }
      ],
      "payable": false,
      "stateMutability": "view",
      "type": "function"
    },
    {
      "constant": true,
      "inputs": [],
      "name": "usdt",
      "outputs": [
        {
          "internalType": "address",
          "name": "",
          "type": "address"
        }
      ],
      "payable": false,
      "stateMutability": "view",
      "type": "function"
    },
    {
      "constant": true,
      "inputs": [],
      "name": "want",
      "outputs": [
        {
          "internalType": "address",
          "name": "",
          "type": "address"
        }
      ],
      "payable": false,
      "stateMutability": "view",
      "type": "function"
    },
    {
      "constant": true,
      "inputs": [],
      "name": "withdrawalFee",
      "outputs": [
        {
          "internalType": "uint256",
          "name": "",
          "type": "uint256"
        }
      ],
      "payable": false,
      "stateMutability": "view",
      "type": "function"
    },
    {
      "constant": true,
      "inputs": [],
      "name": "ycrv",
      "outputs": [
        {
          "internalType": "address",
          "name": "",
          "type": "address"
        }
      ],
      "payable": false,
      "stateMutability": "view",
      "type": "function"
    },
    {
      "constant": true,
      "inputs": [],
      "name": "ydai",
      "outputs": [
        {
          "internalType": "address",
          "name": "",
          "type": "address"
        }
      ],
      "payable": false,
      "stateMutability": "view",
      "type": "function"
    },
    {
      "constant": true,
      "inputs": [],
      "name": "ypool",
      "outputs": [
        {
          "internalType": "address",
          "name": "",
          "type": "address"
        }
      ],
      "payable": false,
      "stateMutability": "view",
      "type": "function"
    },
    {
      "constant": true,
      "inputs": [],
      "name": "ytusd",
      "outputs": [
        {
          "internalType": "address",
          "name": "",
          "type": "address"
        }
      ],
      "payable": false,
      "stateMutability": "view",
      "type": "function"
    },
    {
      "constant": true,
      "inputs": [],
      "name": "yusdc",
      "outputs": [
        {
          "internalType": "address",
          "name": "",
          "type": "address"
        }
      ],
      "payable": false,
      "stateMutability": "view",
      "type": "function"
    },
    {
      "constant": true,
      "inputs": [],
      "name": "yusdt",
      "outputs": [
        {
          "internalType": "address",
          "name": "",
          "type": "address"
        }
      ],
      "payable": false,
      "stateMutability": "view",
      "type": "function"
    },
    {
      "constant": true,
      "inputs": [],
      "name": "yycrv",
      "outputs": [
        {
          "internalType": "address",
          "name": "",
          "type": "address"
        }
      ],
      "payable": false,
      "stateMutability": "view",
      "type": "function"
    },
    {
      "constant": true,
      "inputs": [],
      "name": "getName",
      "outputs": [
        {
          "internalType": "string",
          "name": "",
          "type": "string"
        }
      ],
      "payable": false,
      "stateMutability": "pure",
      "type": "function"
    },
    {
      "constant": false,
      "inputs": [],
      "name": "deposit",
      "outputs": [],
      "payable": false,
      "stateMutability": "nonpayable",
      "type": "function"
    },
    {
      "constant": false,
      "inputs": [
        {
          "internalType": "uint256",
          "name": "_amount",
          "type": "uint256"
        }
      ],
      "name": "withdraw",
      "outputs": [],
      "payable": false,
      "stateMutability": "nonpayable",
      "type": "function"
    },
    {
      "constant": false,
      "inputs": [
        {
          "internalType": "contract IERC20",
          "name": "_asset",
          "type": "address"
        }
      ],
      "name": "withdraw",
      "outputs": [
        {
          "internalType": "uint256",
          "name": "balance",
          "type": "uint256"
        }
      ],
      "payable": false,
      "stateMutability": "nonpayable",
      "type": "function"
    },
    {
      "constant": false,
      "inputs": [],
      "name": "withdrawAll",
      "outputs": [
        {
          "internalType": "uint256",
          "name": "balance",
          "type": "uint256"
        }
      ],
      "payable": false,
      "stateMutability": "nonpayable",
      "type": "function"
    },
    {
      "constant": true,
      "inputs": [],
      "name": "balanceOfWant",
      "outputs": [
        {
          "internalType": "uint256",
          "name": "",
          "type": "uint256"
        }
      ],
      "payable": false,
      "stateMutability": "view",
      "type": "function"
    },
    {
      "constant": true,
      "inputs": [],
      "name": "balanceOfYCRV",
      "outputs": [
        {
          "internalType": "uint256",
          "name": "",
          "type": "uint256"
        }
      ],
      "payable": false,
      "stateMutability": "view",
      "type": "function"
    },
    {
      "constant": true,
      "inputs": [],
      "name": "balanceOfYCRVinWant",
      "outputs": [
        {
          "internalType": "uint256",
          "name": "",
          "type": "uint256"
        }
      ],
      "payable": false,
      "stateMutability": "view",
      "type": "function"
    },
    {
      "constant": true,
      "inputs": [],
      "name": "balanceOfYYCRV",
      "outputs": [
        {
          "internalType": "uint256",
          "name": "",
          "type": "uint256"
        }
      ],
      "payable": false,
      "stateMutability": "view",
      "type": "function"
    },
    {
      "constant": true,
      "inputs": [],
      "name": "balanceOfYYCRVinYCRV",
      "outputs": [
        {
          "internalType": "uint256",
          "name": "",
          "type": "uint256"
        }
      ],
      "payable": false,
      "stateMutability": "view",
      "type": "function"
    },
    {
      "constant": true,
      "inputs": [],
      "name": "balanceOfYYCRVinWant",
      "outputs": [
        {
          "internalType": "uint256",
          "name": "",
          "type": "uint256"
        }
      ],
      "payable": false,
      "stateMutability": "view",
      "type": "function"
    },
    {
      "constant": true,
      "inputs": [],
      "name": "balanceOf",
      "outputs": [
        {
          "internalType": "uint256",
          "name": "",
          "type": "uint256"
        }
      ],
      "payable": false,
      "stateMutability": "view",
      "type": "function"
    },
    {
      "constant": false,
      "inputs": [
        {
          "internalType": "address",
          "name": "_strategy",
          "type": "address"
        }
      ],
      "name": "migrate",
      "outputs": [],
      "payable": false,
      "stateMutability": "nonpayable",
      "type": "function"
    },
    {
      "constant": false,
      "inputs": [
        {
          "internalType": "uint256",
          "name": "_amount",
          "type": "uint256"
        }
      ],
      "name": "forceD",
      "outputs": [],
      "payable": false,
      "stateMutability": "nonpayable",
      "type": "function"
    },
    {
      "constant": false,
      "inputs": [
        {
          "internalType": "uint256",
          "name": "_amt",
          "type": "uint256"
        }
      ],
      "name": "forceW",
      "outputs": [],
      "payable": false,
      "stateMutability": "nonpayable",
      "type": "function"
    },
    {
      "constant": false,
      "inputs": [],
      "name": "drip",
      "outputs": [],
      "payable": false,
      "stateMutability": "nonpayable",
      "type": "function"
    },
    {
      "constant": true,
      "inputs": [],
      "name": "tick",
      "outputs": [
        {
          "internalType": "uint256",
          "name": "_t",
          "type": "uint256"
        },
        {
          "internalType": "uint256",
          "name": "_c",
          "type": "uint256"
        }
      ],
      "payable": false,
      "stateMutability": "view",
      "type": "function"
    },
    {
      "constant": false,
      "inputs": [],
      "name": "rebalance",
      "outputs": [],
      "payable": false,
      "stateMutability": "nonpayable",
      "type": "function"
    },
    {
      "constant": false,
      "inputs": [
        {
          "internalType": "address",
          "name": "_governance",
          "type": "address"
        }
      ],
      "name": "setGovernance",
      "outputs": [],
      "payable": false,
      "stateMutability": "nonpayable",
      "type": "function"
    },
    {
      "constant": false,
      "inputs": [
        {
          "internalType": "address",
          "name": "_controller",
          "type": "address"
        }
      ],
      "name": "setController",
      "outputs": [],
      "payable": false,
      "stateMutability": "nonpayable",
      "type": "function"
    },
    {
      "constant": false,
      "inputs": [
        {
          "internalType": "address",
          "name": "_strategist",
          "type": "address"
        }
      ],
      "name": "setStrategist",
      "outputs": [],
      "payable": false,
      "stateMutability": "nonpayable",
      "type": "function"
    },
    {
      "constant": false,
      "inputs": [
        {
          "internalType": "uint256",
          "name": "_withdrawalFee",
          "type": "uint256"
        }
      ],
      "name": "setWithdrawalFee",
      "outputs": [],
      "payable": false,
      "stateMutability": "nonpayable",
      "type": "function"
    },
    {
      "constant": false,
      "inputs": [
        {
          "internalType": "uint256",
          "name": "_treasuryFee",
          "type": "uint256"
        }
      ],
      "name": "setTreasuryFee",
      "outputs": [],
      "payable": false,
      "stateMutability": "nonpayable",
      "type": "function"
    },
    {
      "constant": false,
      "inputs": [
        {
          "internalType": "uint256",
          "name": "_strategistReward",
          "type": "uint256"
        }
      ],
      "name": "setStrategistReward",
      "outputs": [],
      "payable": false,
      "stateMutability": "nonpayable",
      "type": "function"
    },
    {
      "constant": false,
      "inputs": [
        {
          "internalType": "uint256",
          "name": "_threshold",
          "type": "uint256"
        }
      ],
      "name": "setThreshold",
      "outputs": [],
      "payable": false,
      "stateMutability": "nonpayable",
      "type": "function"
    },
    {
      "constant": false,
      "inputs": [
        {
          "internalType": "uint256",
          "name": "_slip",
          "type": "uint256"
        }
      ],
      "name": "setSlip",
      "outputs": [],
      "payable": false,
      "stateMutability": "nonpayable",
      "type": "function"
    }
  ],
  "bytecode": "0x60806040526101f46003556000600455603260055561177060065560646007556000600855600060095534801561003557600080fd5b506040516141263803806141268339818101604052602081101561005857600080fd5b505160008054336001600160a01b0319918216811783556002805483169091179055600180549091166001600160a01b03909316929092179091556140839081906100a390396000f3fe608060405234801561001057600080fd5b50600436106102bb5760003560e01c80637d7c2a1c11610182578063b7f01bfc116100e9578063d0e30db0116100a2578063f3eb5b311161007c578063f3eb5b311461061c578063f4b9fa7514610624578063f77c47911461062c578063faf5bb9814610634576102bb565b8063d0e30db0146105ef578063da275505146105f7578063dfb84f6514610614576102bb565b8063b7f01bfc14610583578063c1a3d44c1461058b578063c7b9d53014610593578063ca6cf001146105b9578063cc32d176146105c1578063ce5494bb146105c9576102bb565b8063960bfe041161013b578063960bfe041461050b5780639752b711146105285780639ae8886a146105305780639f678cca14610538578063ab033ea914610540578063ac1e502514610566576102bb565b80637d7c2a1c146104bd5780638158676e146104c5578063853828b6146104cd5780638bc7e8c4146104d5578063918f8674146104dd57806392eefe9b146104e5576102bb565b8063366cd4f31161022657806351cff8d9116101df57806351cff8d914610462578063598f2f50146104885780635aa6e67514610490578063722713f71461049857806375b5be2d146103d457806377e741c7146104a0576102bb565b8063366cd4f314610419578063392c731f146104215780633e413bee146104295780633eaf5d9f14610431578063422edc7b1461045257806342cde4e81461045a576102bb565b80631f1fcd51116102785780631f1fcd51146103d45780631fe4a686146103dc5780632aa05b1a146103e45780632e1a7d4d146103ec5780632f48ab7d1461040957806332bd678f14610411576102bb565b8063029148f3146102c05780630d596cdf146102da57806313b857b4146102f957806313d8fdbc1461031657806317d7de7c1461033357806317e3a3d5146103b0575b600080fd5b6102c861063c565b60408051918252519081900360200190f35b6102f7600480360360208110156102f057600080fd5b50356106e5565b005b6102f76004803603602081101561030f57600080fd5b5035610737565b6102f76004803603602081101561032c57600080fd5b5035610799565b61033b610cac565b6040805160208082528351818301528351919283929083019185019080838360005b8381101561037557818101518382015260200161035d565b50505050905090810190601f1680156103a25780820380516001836020036101000a031916815260200191505b509250505060405180910390f35b6103b8610cd7565b604080516001600160a01b039092168252519081900360200190f35b6103b8610ce9565b6103b8610cfc565b6103b8610d0b565b6102f76004803603602081101561040257600080fd5b5035610d1d565b6103b861100e565b6103b8611026565b6103b861103e565b6102c8611056565b6103b861105c565b610439611074565b6040805192835260208301919091528051918290030190f35b6103b8611198565b6102c86111aa565b6102c86004803603602081101561047857600080fd5b50356001600160a01b03166111b0565b6103b8611399565b6103b86113ab565b6102c86113ba565b6102f7600480360360208110156104b657600080fd5b50356113db565b6102f761142d565b6102c861158c565b6102c8611592565b6102c8611758565b6102c861175e565b6102f7600480360360208110156104fb57600080fd5b50356001600160a01b0316611764565b6102f76004803603602081101561052157600080fd5b50356117d3565b6102c8611835565b6102c86118c1565b6102f76118c7565b6102f76004803603602081101561055657600080fd5b50356001600160a01b0316611beb565b6102f76004803603602081101561057c57600080fd5b5035611c5a565b6102c8611cac565b6102c8611cb2565b6102f7600480360360208110156105a957600080fd5b50356001600160a01b0316611d33565b6102c8611daf565b6102c8611dfe565b6102f7600480360360208110156105df57600080fd5b50356001600160a01b0316611e04565b6102f76120f2565b6102f76004803603602081101561060d57600080fd5b5035612638565b6103b8612956565b6102c861296e565b6103b86129bd565b6103b86129d5565b6102c86129e4565b60006106e0670de0b6b3a76400006106d460008051602061402f8339815191526001600160a01b031663bb7b8b806040518163ffffffff1660e01b815260040160206040518083038186803b15801561069457600080fd5b505afa1580156106a8573d6000803e3d6000fd5b505050506040513d60208110156106be57600080fd5b50516106c8611835565b9063ffffffff612a7016565b9063ffffffff612ad216565b905090565b6000546001600160a01b03163314610732576040805162461bcd60e51b815260206004820152600b60248201526a21676f7665726e616e636560a81b604482015290519081900360640190fd5b600555565b6002546001600160a01b031633148061075a57506000546001600160a01b031633145b610794576040805162461bcd60e51b81526020600480830191909152602482015263216b736760e01b604482015290519081900360640190fd5b600755565b6000546001600160a01b03163314806107bc57506002546001600160a01b031633145b806107d157506001546001600160a01b031633145b806107db57503330145b61081a576040805162461bcd60e51b815260206004820152600b60248201526a08585d5d1a1bdc9a5e995960aa1b604482015290519081900360640190fd5b6108496e085d4780b73119b644ae5ecd22b376600080516020613faf833981519152600063ffffffff612b1416565b6108776e085d4780b73119b644ae5ecd22b376600080516020613faf8339815191528363ffffffff612b1416565b600080516020613faf8339815191526001600160a01b031663b6b55f25826040518263ffffffff1660e01b815260040180828152602001915050600060405180830381600087803b1580156108cb57600080fd5b505af11580156108df573d6000803e3d6000fd5b5050604080516370a0823160e01b8152306004820152905160009350600080516020613faf83398151915292506370a0823191602480820192602092909190829003018186803b15801561093257600080fd5b505afa158015610946573d6000803e3d6000fd5b505050506040513d602081101561095c57600080fd5b5051905061098e600080516020613faf83398151915260008051602061402f833981519152600063ffffffff612b1416565b6109bb600080516020613faf83398151915260008051602061402f8339815191528363ffffffff612b1416565b6000610a4b60008051602061402f8339815191526001600160a01b031663bb7b8b806040518163ffffffff1660e01b815260040160206040518083038186803b158015610a0757600080fd5b505afa158015610a1b573d6000803e3d6000fd5b505050506040513d6020811015610a3157600080fd5b50516106d485670de0b6b3a764000063ffffffff612a7016565b905060008051602061402f8339815191526001600160a01b031663029b2f34604051806080016040528060008152602001600081526020016000815260200185815250610abb6127106106d4610aae600754612710612c2790919063ffffffff16565b879063ffffffff612a7016565b6040516001600160e01b031960e085901b1681526004018083608080838360005b83811015610af4578181015183820152602001610adc565b5050505090500182815260200192505050600060405180830381600087803b158015610b1f57600080fd5b505af1158015610b33573d6000803e3d6000fd5b5050604080516370a0823160e01b8152306004820152905160009350600080516020613f4e83398151915292506370a0823191602480820192602092909190829003018186803b158015610b8657600080fd5b505afa158015610b9a573d6000803e3d6000fd5b505050506040513d6020811015610bb057600080fd5b50519050610be2600080516020613f4e833981519152600080516020613f8f833981519152600063ffffffff612b1416565b610c0f600080516020613f4e833981519152600080516020613f8f8339815191528363ffffffff612b1416565b600080516020613f8f8339815191526001600160a01b031663b6b55f25826040518263ffffffff1660e01b815260040180828152602001915050600060405180830381600087803b158015610c6357600080fd5b505af1158015610c77573d6000803e3d6000fd5b50505050600854841015610ca057600854610c98908563ffffffff612c2716565b600855610ca6565b60006008555b50505050565b60408051808201909152601181527014dd1c985d1959de551554d11e5c1bdbdb607a1b602082015290565b600080516020613f4e83398151915281565b6e085d4780b73119b644ae5ecd22b37681565b6002546001600160a01b031681565b600080516020613faf83398151915281565b6001546001600160a01b03163314610d6a576040805162461bcd60e51b815260206004820152600b60248201526a10b1b7b73a3937b63632b960a91b604482015290519081900360640190fd5b610d7261142d565b604080516370a0823160e01b815230600482015290516000916e085d4780b73119b644ae5ecd22b376916370a0823191602480820192602092909190829003018186803b158015610dc257600080fd5b505afa158015610dd6573d6000803e3d6000fd5b505050506040513d6020811015610dec57600080fd5b5051905081811015610e2e57610e10610e0b838363ffffffff612c2716565b612c69565b9150610e22828263ffffffff612ecd16565b60006008559150610e58565b8160085410610e5257600854610e4a908363ffffffff612c2716565b600855610e58565b60006008555b60015460408051632988bb9f60e21b81526e085d4780b73119b644ae5ecd22b376600482015290516000926001600160a01b03169163a622ee7c916024808301926020929190829003018186803b158015610eb257600080fd5b505afa158015610ec6573d6000803e3d6000fd5b505050506040513d6020811015610edc57600080fd5b505190506001600160a01b038116610f24576040805162461bcd60e51b8152602060048201526006602482015265085d985d5b1d60d21b604482015290519081900360640190fd5b6000610f416127106106d460045487612a7090919063ffffffff16565b9050610fdd600160009054906101000a90046001600160a01b03166001600160a01b0316639ec5a8946040518163ffffffff1660e01b815260040160206040518083038186803b158015610f9457600080fd5b505afa158015610fa8573d6000803e3d6000fd5b505050506040513d6020811015610fbe57600080fd5b50516e085d4780b73119b644ae5ecd22b376908363ffffffff612f2716565b610ca682610ff1868463ffffffff612c2716565b6e085d4780b73119b644ae5ecd22b376919063ffffffff612f2716565b73dac17f958d2ee523a2206206994597c13d831ec781565b73d6ad7a6750a7593e092a9b218d66c0a814a3436e81565b7316de59092dae5ccf4a1e6439d611fd0653f0bd0181565b60075481565b73a0b86991c6218b36c1d19d4a2e9eb0ce3606eb4881565b6000806111886127106106d46006546106c8670de0b6b3a76400006106d4600080516020613faf8339815191526001600160a01b03166377c7b8fc6040518163ffffffff1660e01b815260040160206040518083038186803b1580156110d957600080fd5b505afa1580156110ed573d6000803e3d6000fd5b505050506040513d602081101561110357600080fd5b50516040805162cb501b60e31b815260036004820152905160008051602061402f8339815191529163065a80d8916024808301926020929190829003018186803b15801561115057600080fd5b505afa158015611164573d6000803e3d6000fd5b505050506040513d602081101561117a57600080fd5b50519063ffffffff612a7016565b915061119261063c565b90509091565b60008051602061402f83398151915281565b60065481565b6001546000906001600160a01b03163314611200576040805162461bcd60e51b815260206004820152600b60248201526a10b1b7b73a3937b63632b960a91b604482015290519081900360640190fd5b6e085d4780b73119b644ae5ecd22b3766001600160a01b0383161415611256576040805162461bcd60e51b815260206004808301919091526024820152631dd85b9d60e21b604482015290519081900360640190fd5b600080516020613f4e8339815191526001600160a01b03831614156112ab576040805162461bcd60e51b815260206004808301919091526024820152633cb1b93b60e11b604482015290519081900360640190fd5b600080516020613f8f8339815191526001600160a01b03831614156112ff576040805162461bcd60e51b81526020600482015260056024820152643cbcb1b93b60d91b604482015290519081900360640190fd5b604080516370a0823160e01b815230600482015290516001600160a01b038416916370a08231916024808301926020929190829003018186803b15801561134557600080fd5b505afa158015611359573d6000803e3d6000fd5b505050506040513d602081101561136f57600080fd5b5051600154909150611394906001600160a01b0384811691168363ffffffff612f2716565b919050565b600080516020613f8f83398151915281565b6000546001600160a01b031681565b60006106e06113c761063c565b6113cf611cb2565b9063ffffffff612ecd16565b6000546001600160a01b03163314611428576040805162461bcd60e51b815260206004820152600b60248201526a21676f7665726e616e636560a81b604482015290519081900360640190fd5b600355565b6000546001600160a01b031633148061145057506002546001600160a01b031633145b8061146557506001546001600160a01b031633145b8061146f57503330145b6114ae576040805162461bcd60e51b815260206004820152600b60248201526a08585d5d1a1bdc9a5e995960aa1b604482015290519081900360640190fd5b6114b66118c7565b6000806114c1611074565b9150915081811115611588576114e0610e0b828463ffffffff612c2716565b50604080516370a0823160e01b815230600482015290516e085d4780b73119b644ae5ecd22b376916370a08231916024808301926020929190829003018186803b15801561152d57600080fd5b505afa158015611541573d6000803e3d6000fd5b505050506040513d602081101561155757600080fd5b505160085560405130907f03fbec337411757d01c2da1b25d2ebb49aabdc8cdab4816d2307ea3bb00bc20a90600090a25b5050565b60055481565b6001546000906001600160a01b031633146115e2576040805162461bcd60e51b815260206004820152600b60248201526a10b1b7b73a3937b63632b960a91b604482015290519081900360640190fd5b6115ea612f79565b604080516370a0823160e01b815230600482015290516e085d4780b73119b644ae5ecd22b376916370a08231916024808301926020929190829003018186803b15801561163657600080fd5b505afa15801561164a573d6000803e3d6000fd5b505050506040513d602081101561166057600080fd5b505160015460408051632988bb9f60e21b81526e085d4780b73119b644ae5ecd22b376600482015290519293506000926001600160a01b039092169163a622ee7c91602480820192602092909190829003018186803b1580156116c257600080fd5b505afa1580156116d6573d6000803e3d6000fd5b505050506040513d60208110156116ec57600080fd5b505190506001600160a01b038116611734576040805162461bcd60e51b8152602060048201526006602482015265085d985d5b1d60d21b604482015290519081900360640190fd5b6117546e085d4780b73119b644ae5ecd22b376828463ffffffff612f2716565b5090565b60045481565b61271081565b6000546001600160a01b031633146117b1576040805162461bcd60e51b815260206004820152600b60248201526a21676f7665726e616e636560a81b604482015290519081900360640190fd5b600180546001600160a01b0319166001600160a01b0392909216919091179055565b6002546001600160a01b03163314806117f657506000546001600160a01b031633145b611830576040805162461bcd60e51b81526020600480830191909152602482015263216b736760e01b604482015290519081900360640190fd5b600655565b60006106e0670de0b6b3a76400006106d4600080516020613f8f8339815191526001600160a01b03166377c7b8fc6040518163ffffffff1660e01b815260040160206040518083038186803b15801561188d57600080fd5b505afa1580156118a1573d6000803e3d6000fd5b505050506040513d60208110156118b757600080fd5b50516106c861296e565b60095481565b6000546001600160a01b03163314806118ea57506002546001600160a01b031633145b806118ff57506001546001600160a01b031633145b8061190957503330145b611948576040805162461bcd60e51b815260206004820152600b60248201526a08585d5d1a1bdc9a5e995960aa1b604482015290519081900360640190fd5b6000600080516020613f8f8339815191526001600160a01b03166377c7b8fc6040518163ffffffff1660e01b815260040160206040518083038186803b15801561199157600080fd5b505afa1580156119a5573d6000803e3d6000fd5b505050506040513d60208110156119bb57600080fd5b505160408051630176f71760e71b81529051919250611a5091670de0b6b3a7640000916106d49160008051602061402f8339815191529163bb7b8b80916004808301926020929190829003018186803b158015611a1757600080fd5b505afa158015611a2b573d6000803e3d6000fd5b505050506040513d6020811015611a4157600080fd5b5051849063ffffffff612a7016565b9050600954811015611a94576040805162461bcd60e51b8152602060048201526008602482015267189858daddd85c9960c21b604482015290519081900360640190fd5b6000611ac1670de0b6b3a76400006106d4611aad61296e565b6009546106c890879063ffffffff612c2716565b90506000611ae06127106106d460055485612a7090919063ffffffff16565b600254909150611b2b906001600160a01b0316611b0f856106d485670de0b6b3a764000063ffffffff612a7016565b600080516020613f8f833981519152919063ffffffff612f2716565b6000611b486127106106d460035486612a7090919063ffffffff16565b9050611be3600160009054906101000a90046001600160a01b03166001600160a01b0316639ec5a8946040518163ffffffff1660e01b815260040160206040518083038186803b158015611b9b57600080fd5b505afa158015611baf573d6000803e3d6000fd5b505050506040513d6020811015611bc557600080fd5b5051611b0f866106d485670de0b6b3a764000063ffffffff612a7016565b505050600955565b6000546001600160a01b03163314611c38576040805162461bcd60e51b815260206004820152600b60248201526a21676f7665726e616e636560a81b604482015290519081900360640190fd5b600080546001600160a01b0319166001600160a01b0392909216919091179055565b6000546001600160a01b03163314611ca7576040805162461bcd60e51b815260206004820152600b60248201526a21676f7665726e616e636560a81b604482015290519081900360640190fd5b600455565b60085481565b604080516370a0823160e01b815230600482015290516000916e085d4780b73119b644ae5ecd22b376916370a0823191602480820192602092909190829003018186803b158015611d0257600080fd5b505afa158015611d16573d6000803e3d6000fd5b505050506040513d6020811015611d2c57600080fd5b5051905090565b6000546001600160a01b0316331480611d5657506002546001600160a01b031633145b611d8d576040805162461bcd60e51b815260206004820152600360248201526221677360e81b604482015290519081900360640190fd5b600280546001600160a01b0319166001600160a01b0392909216919091179055565b604080516370a0823160e01b81523060048201529051600091600080516020613f4e833981519152916370a0823191602480820192602092909190829003018186803b158015611d0257600080fd5b60035481565b6000546001600160a01b03163314611e51576040805162461bcd60e51b815260206004820152600b60248201526a21676f7665726e616e636560a81b604482015290519081900360640190fd5b600154604080516350abc5b560e11b81526e085d4780b73119b644ae5ecd22b37660048201526001600160a01b0384811660248301529151919092169163a1578b6a916044808301926020929190829003018186803b158015611eb357600080fd5b505afa158015611ec7573d6000803e3d6000fd5b505050506040513d6020811015611edd57600080fd5b5051611f22576040805162461bcd60e51b815260206004820152600f60248201526e085cdd185d1959de505b1b1bddd959608a1b604482015290519081900360640190fd5b604080516370a0823160e01b81523060048201529051611fbb918391600080516020613f8f833981519152916370a08231916024808301926020929190829003018186803b158015611f7357600080fd5b505afa158015611f87573d6000803e3d6000fd5b505050506040513d6020811015611f9d57600080fd5b5051600080516020613f8f833981519152919063ffffffff612f2716565b604080516370a0823160e01b81523060048201529051612054918391600080516020613f4e833981519152916370a08231916024808301926020929190829003018186803b15801561200c57600080fd5b505afa158015612020573d6000803e3d6000fd5b505050506040513d602081101561203657600080fd5b5051600080516020613f4e833981519152919063ffffffff612f2716565b604080516370a0823160e01b815230600482015290516120ef9183916e085d4780b73119b644ae5ecd22b376916370a08231916024808301926020929190829003018186803b1580156120a657600080fd5b505afa1580156120ba573d6000803e3d6000fd5b505050506040513d60208110156120d057600080fd5b50516e085d4780b73119b644ae5ecd22b376919063ffffffff612f2716565b50565b6000546001600160a01b031633148061211557506002546001600160a01b031633145b8061212a57506001546001600160a01b031633145b8061213457503330145b612173576040805162461bcd60e51b815260206004820152600b60248201526a08585d5d1a1bdc9a5e995960aa1b604482015290519081900360640190fd5b61217b61142d565b600854604080516370a0823160e01b8152306004820152905160009261220b9290916e085d4780b73119b644ae5ecd22b376916370a08231916024808301926020929190829003018186803b1580156121d357600080fd5b505afa1580156121e7573d6000803e3d6000fd5b505050506040513d60208110156121fd57600080fd5b50519063ffffffff612c2716565b905080156122dd576122426e085d4780b73119b644ae5ecd22b376600080516020613faf833981519152600063ffffffff612b1416565b6122706e085d4780b73119b644ae5ecd22b376600080516020613faf8339815191528363ffffffff612b1416565b600080516020613faf8339815191526001600160a01b031663b6b55f25826040518263ffffffff1660e01b815260040180828152602001915050600060405180830381600087803b1580156122c457600080fd5b505af11580156122d8573d6000803e3d6000fd5b505050505b604080516370a0823160e01b81523060048201529051600091600080516020613faf833981519152916370a0823191602480820192602092909190829003018186803b15801561232c57600080fd5b505afa158015612340573d6000803e3d6000fd5b505050506040513d602081101561235657600080fd5b5051905080156124e85761238e600080516020613faf83398151915260008051602061402f833981519152600063ffffffff612b1416565b6123bb600080516020613faf83398151915260008051602061402f8339815191528363ffffffff612b1416565b600061240760008051602061402f8339815191526001600160a01b031663bb7b8b806040518163ffffffff1660e01b815260040160206040518083038186803b158015610a0757600080fd5b905060008051602061402f8339815191526001600160a01b031663029b2f3460405180608001604052806000815260200160008152602001600081526020018581525061246a6127106106d4610aae600754612710612c2790919063ffffffff16565b6040516001600160e01b031960e085901b1681526004018083608080838360005b838110156124a357818101518382015260200161248b565b5050505090500182815260200192505050600060405180830381600087803b1580156124ce57600080fd5b505af11580156124e2573d6000803e3d6000fd5b50505050505b604080516370a0823160e01b81523060048201529051600091600080516020613f4e833981519152916370a0823191602480820192602092909190829003018186803b15801561253757600080fd5b505afa15801561254b573d6000803e3d6000fd5b505050506040513d602081101561256157600080fd5b50519050801561263357612599600080516020613f4e833981519152600080516020613f8f833981519152600063ffffffff612b1416565b6125c6600080516020613f4e833981519152600080516020613f8f8339815191528363ffffffff612b1416565b600080516020613f8f8339815191526001600160a01b031663b6b55f25826040518263ffffffff1660e01b815260040180828152602001915050600060405180830381600087803b15801561261a57600080fd5b505af115801561262e573d6000803e3d6000fd5b505050505b505050565b6000546001600160a01b031633148061265b57506002546001600160a01b031633145b8061267057506001546001600160a01b031633145b8061267a57503330145b6126b9576040805162461bcd60e51b815260206004820152600b60248201526a08585d5d1a1bdc9a5e995960aa1b604482015290519081900360640190fd5b604080516370a0823160e01b81523060048201529051600091600080516020613f4e833981519152916370a0823191602480820192602092909190829003018186803b15801561270857600080fd5b505afa15801561271c573d6000803e3d6000fd5b505050506040513d602081101561273257600080fd5b505160408051632e1a7d4d60e01b8152600481018590529051919250600080516020613f8f83398151915291632e1a7d4d9160248082019260009290919082900301818387803b15801561278557600080fd5b505af1158015612799573d6000803e3d6000fd5b5050604080516370a0823160e01b8152306004820152905160009350600080516020613f4e83398151915292506370a0823191602480820192602092909190829003018186803b1580156127ec57600080fd5b505afa158015612800573d6000803e3d6000fd5b505050506040513d602081101561281657600080fd5b5051905061282a818363ffffffff612c2716565b604080516370a0823160e01b815230600482015290519194506e085d4780b73119b644ae5ecd22b376916370a0823191602480820192602092909190829003018186803b15801561287a57600080fd5b505afa15801561288e573d6000803e3d6000fd5b505050506040513d60208110156128a457600080fd5b505191506128b1836130e5565b50604080516370a0823160e01b815230600482015290516e085d4780b73119b644ae5ecd22b376916370a08231916024808301926020929190829003018186803b1580156128fe57600080fd5b505afa158015612912573d6000803e3d6000fd5b505050506040513d602081101561292857600080fd5b5051905061294e61293f828463ffffffff612c2716565b6008549063ffffffff612ecd16565b600855505050565b7383f798e925bcd4017eb265844fddabb448f1707d81565b604080516370a0823160e01b81523060048201529051600091600080516020613f8f833981519152916370a0823191602480820192602092909190829003018186803b158015611d0257600080fd5b736b175474e89094c44da98b954eedeac495271d0f81565b6001546001600160a01b031681565b60006106e0670de0b6b3a76400006106d460008051602061402f8339815191526001600160a01b031663bb7b8b806040518163ffffffff1660e01b815260040160206040518083038186803b158015612a3c57600080fd5b505afa158015612a50573d6000803e3d6000fd5b505050506040513d6020811015612a6657600080fd5b50516106c8611daf565b600082612a7f57506000612acc565b82820282848281612a8c57fe5b0414612ac95760405162461bcd60e51b8152600401808060200182810382526021815260200180613f6e6021913960400191505060405180910390fd5b90505b92915050565b6000612ac983836040518060400160405280601a81526020017f536166654d6174683a206469766973696f6e206279207a65726f000000000000815250613c5d565b801580612b9a575060408051636eb1769f60e11b81523060048201526001600160a01b03848116602483015291519185169163dd62ed3e91604480820192602092909190829003018186803b158015612b6c57600080fd5b505afa158015612b80573d6000803e3d6000fd5b505050506040513d6020811015612b9657600080fd5b5051155b612bd55760405162461bcd60e51b8152600401808060200182810382526036815260200180613ff96036913960400191505060405180910390fd5b604080516001600160a01b038416602482015260448082018490528251808303909101815260649091019091526020810180516001600160e01b031663095ea7b360e01b179052612633908490613cff565b6000612ac983836040518060400160405280601e81526020017f536166654d6174683a207375627472616374696f6e206f766572666c6f770000815250613eb7565b600080612cb660008051602061402f8339815191526001600160a01b031663bb7b8b806040518163ffffffff1660e01b815260040160206040518083038186803b158015610a0757600080fd5b90506000612d48600080516020613f8f8339815191526001600160a01b03166377c7b8fc6040518163ffffffff1660e01b815260040160206040518083038186803b158015612d0457600080fd5b505afa158015612d18573d6000803e3d6000fd5b505050506040513d6020811015612d2e57600080fd5b50516106d484670de0b6b3a764000063ffffffff612a7016565b604080516370a0823160e01b81523060048201529051919250600091600080516020613f4e833981519152916370a08231916024808301926020929190829003018186803b158015612d9957600080fd5b505afa158015612dad573d6000803e3d6000fd5b505050506040513d6020811015612dc357600080fd5b505160408051632e1a7d4d60e01b8152600481018590529051919250600080516020613f8f83398151915291632e1a7d4d9160248082019260009290919082900301818387803b158015612e1657600080fd5b505af1158015612e2a573d6000803e3d6000fd5b5050604080516370a0823160e01b8152306004820152905160009350600080516020613f4e83398151915292506370a0823191602480820192602092909190829003018186803b158015612e7d57600080fd5b505afa158015612e91573d6000803e3d6000fd5b505050506040513d6020811015612ea757600080fd5b50519050612ec3612ebe828463ffffffff612c2716565b6130e5565b9695505050505050565b600082820183811015612ac9576040805162461bcd60e51b815260206004820152601b60248201527f536166654d6174683a206164646974696f6e206f766572666c6f770000000000604482015290519081900360640190fd5b604080516001600160a01b038416602482015260448082018490528251808303909101815260649091019091526020810180516001600160e01b031663a9059cbb60e01b179052612633908490613cff565b604080516370a0823160e01b81523060048201529051600091600080516020613f8f833981519152916370a0823191602480820192602092909190829003018186803b158015612fc857600080fd5b505afa158015612fdc573d6000803e3d6000fd5b505050506040513d6020811015612ff257600080fd5b5051905080156120ef57600080516020613f8f8339815191526001600160a01b0316632e1a7d4d826040518263ffffffff1660e01b815260040180828152602001915050600060405180830381600087803b15801561305057600080fd5b505af1158015613064573d6000803e3d6000fd5b5050604080516370a0823160e01b815230600482015290516115889350600080516020613f4e83398151915292506370a0823191602480820192602092909190829003018186803b1580156130b857600080fd5b505afa1580156130cc573d6000803e3d6000fd5b505050506040513d60208110156130e257600080fd5b50515b6000613114600080516020613f4e83398151915260008051602061402f8339815191528363ffffffff612b1416565b613141600080516020613f4e83398151915260008051602061402f8339815191528463ffffffff612b1416565b60006131706127106106d4613163600754612710612c2790919063ffffffff16565b869063ffffffff612a7016565b90506000600080516020613f4e8339815191526001600160a01b03166318160ddd6040518163ffffffff1660e01b815260040160206040518083038186803b1580156131bb57600080fd5b505afa1580156131cf573d6000803e3d6000fd5b505050506040513d60208110156131e557600080fd5b5051604080516080810180835262cb501b60e31b905260006084820152905191925060008051602061402f83398151915291637d49d87591879181906132529087906106d4908a90899063065a80d89060a480890191602091818b03018186803b15801561115057600080fd5b81526020016132b5866106d48960008051602061402f8339815191526001600160a01b031663065a80d860016040518263ffffffff1660e01b81526004018082600f0b815260200191505060206040518083038186803b15801561115057600080fd5b8152602001613318866106d48960008051602061402f8339815191526001600160a01b031663065a80d860026040518263ffffffff1660e01b81526004018082600f0b815260200191505060206040518083038186803b15801561115057600080fd5b815260200161337b866106d48960008051602061402f8339815191526001600160a01b031663065a80d860036040518263ffffffff1660e01b81526004018082600f0b815260200191505060206040518083038186803b15801561115057600080fd5b90526040516001600160e01b031960e085901b168152600481018381529060240182608080838360005b838110156133bd5781810151838201526020016133a5565b5050505090500192505050600060405180830381600087803b1580156133e257600080fd5b505af11580156133f6573d6000803e3d6000fd5b5050604080516370a0823160e01b81523060048201529051600093507316de59092dae5ccf4a1e6439d611fd0653f0bd0192506370a0823191602480820192602092909190829003018186803b15801561344f57600080fd5b505afa158015613463573d6000803e3d6000fd5b505050506040513d602081101561347957600080fd5b5051604080516370a0823160e01b8152306004820152905191925060009173d6ad7a6750a7593e092a9b218d66c0a814a3436e916370a08231916024808301926020929190829003018186803b1580156134d257600080fd5b505afa1580156134e6573d6000803e3d6000fd5b505050506040513d60208110156134fc57600080fd5b5051604080516370a0823160e01b815230600482015290519192506000917383f798e925bcd4017eb265844fddabb448f1707d916370a08231916024808301926020929190829003018186803b15801561355557600080fd5b505afa158015613569573d6000803e3d6000fd5b505050506040513d602081101561357f57600080fd5b5051905060008315613730576135bf7316de59092dae5ccf4a1e6439d611fd0653f0bd0160008051602061402f833981519152600063ffffffff612b1416565b6135f27316de59092dae5ccf4a1e6439d611fd0653f0bd0160008051602061402f8339815191528663ffffffff612b1416565b60408051635e0d443f60e01b8152600060048201526003602482015260448101869052905160008051602061402f83398151915291635e0d443f916064808301926020929190829003018186803b15801561364c57600080fd5b505afa158015613660573d6000803e3d6000fd5b505050506040513d602081101561367657600080fd5b505160075490915060008051602061402f83398151915290633df021249060009060039088906136c690612710906106d4906136b990839063ffffffff612c2716565b899063ffffffff612a7016565b6040518563ffffffff1660e01b81526004018085600f0b815260200184600f0b8152602001838152602001828152602001945050505050600060405180830381600087803b15801561371757600080fd5b505af115801561372b573d6000803e3d6000fd5b505050505b82156138ce5761376a73d6ad7a6750a7593e092a9b218d66c0a814a3436e60008051602061402f833981519152600063ffffffff612b1416565b61379d73d6ad7a6750a7593e092a9b218d66c0a814a3436e60008051602061402f8339815191528563ffffffff612b1416565b60408051635e0d443f60e01b8152600160048201526003602482015260448101859052905160008051602061402f83398151915291635e0d443f916064808301926020929190829003018186803b1580156137f757600080fd5b505afa15801561380b573d6000803e3d6000fd5b505050506040513d602081101561382157600080fd5b505160075490915060008051602061402f83398151915290633df0212490600190600390879061386490612710906106d4906136b990839063ffffffff612c2716565b6040518563ffffffff1660e01b81526004018085600f0b815260200184600f0b8152602001838152602001828152602001945050505050600060405180830381600087803b1580156138b557600080fd5b505af11580156138c9573d6000803e3d6000fd5b505050505b8115613a6c576139087383f798e925bcd4017eb265844fddabb448f1707d60008051602061402f833981519152600063ffffffff612b1416565b61393b7383f798e925bcd4017eb265844fddabb448f1707d60008051602061402f8339815191528463ffffffff612b1416565b60408051635e0d443f60e01b8152600260048201526003602482015260448101849052905160008051602061402f83398151915291635e0d443f916064808301926020929190829003018186803b15801561399557600080fd5b505afa1580156139a9573d6000803e3d6000fd5b505050506040513d60208110156139bf57600080fd5b505160075490915060008051602061402f83398151915290633df02124906002906003908690613a0290612710906106d4906136b990839063ffffffff612c2716565b6040518563ffffffff1660e01b81526004018085600f0b815260200184600f0b8152602001838152602001828152602001945050505050600060405180830381600087803b158015613a5357600080fd5b505af1158015613a67573d6000803e3d6000fd5b505050505b604080516370a0823160e01b815230600482015290516000916e085d4780b73119b644ae5ecd22b376916370a0823191602480820192602092909190829003018186803b158015613abc57600080fd5b505afa158015613ad0573d6000803e3d6000fd5b505050506040513d6020811015613ae657600080fd5b5051604080516370a0823160e01b81523060048201529051919250600080516020613faf83398151915291632e1a7d4d9183916370a0823191602480820192602092909190829003018186803b158015613b3f57600080fd5b505afa158015613b53573d6000803e3d6000fd5b505050506040513d6020811015613b6957600080fd5b5051604080516001600160e01b031960e085901b168152600481019290925251602480830192600092919082900301818387803b158015613ba957600080fd5b505af1158015613bbd573d6000803e3d6000fd5b5050604080516370a0823160e01b81523060048201529051600093506e085d4780b73119b644ae5ecd22b37692506370a0823191602480820192602092909190829003018186803b158015613c1157600080fd5b505afa158015613c25573d6000803e3d6000fd5b505050506040513d6020811015613c3b57600080fd5b50519050613c4f818363ffffffff612c2716565b9a9950505050505050505050565b60008183613ce95760405162461bcd60e51b81526004018080602001828103825283818151815260200191508051906020019080838360005b83811015613cae578181015183820152602001613c96565b50505050905090810190601f168015613cdb5780820380516001836020036101000a031916815260200191505b509250505060405180910390fd5b506000838581613cf557fe5b0495945050505050565b613d11826001600160a01b0316613f11565b613d62576040805162461bcd60e51b815260206004820152601f60248201527f5361666545524332303a2063616c6c20746f206e6f6e2d636f6e747261637400604482015290519081900360640190fd5b60006060836001600160a01b0316836040518082805190602001908083835b60208310613da05780518252601f199092019160209182019101613d81565b6001836020036101000a0380198251168184511680821785525050505050509050019150506000604051808303816000865af19150503d8060008114613e02576040519150601f19603f3d011682016040523d82523d6000602084013e613e07565b606091505b509150915081613e5e576040805162461bcd60e51b815260206004820181905260248201527f5361666545524332303a206c6f772d6c6576656c2063616c6c206661696c6564604482015290519081900360640190fd5b805115610ca657808060200190516020811015613e7a57600080fd5b5051610ca65760405162461bcd60e51b815260040180806020018281038252602a815260200180613fcf602a913960400191505060405180910390fd5b60008184841115613f095760405162461bcd60e51b8152602060048201818152835160248401528351909283926044909101919085019080838360008315613cae578181015183820152602001613c96565b505050900390565b6000813f7fc5d2460186f7233c927e7db2dcc703c0e500b653ca82273b7bfad8045d85a470818114801590613f4557508115155b94935050505056fe000000000000000000000000df5e0e81dff6faf3a7e52ba697820c5e32d806a8536166654d6174683a206d756c7469706c69636174696f6e206f766572666c6f770000000000000000000000005dbcf33d8c2e976c6b560249878e6f1491bca25c00000000000000000000000073a052500105205d34daf004eab301916da8190f5361666545524332303a204552433230206f7065726174696f6e20646964206e6f7420737563636565645361666545524332303a20617070726f76652066726f6d206e6f6e2d7a65726f20746f206e6f6e2d7a65726f20616c6c6f77616e636500000000000000000000000045f783cce6b7ff23b2ab2d70e416cdb7d6055f51a265627a7a723158209fdc832322ab8c45eb2ff340a823baf553dffc6ba66d82c02a3658772bdd432264736f6c63430005110032",
  "source": "/**\n *Submitted for verification at Etherscan.io on 2020-11-16\n */\n\npragma solidity ^0.5.17;\n\nimport \"@openzeppelin/contracts/token/ERC20/IERC20.sol\";\nimport \"@openzeppelin/contracts/math/SafeMath.sol\";\nimport \"@openzeppelin/contracts/utils/Address.sol\";\nimport \"@openzeppelin/contracts/token/ERC20/SafeERC20.sol\";\n\nimport \"../../interfaces/yearn/IController.sol\";\nimport \"../../interfaces/curve/Curve.sol\";\n\ninterface yvERC20 {\n    function deposit(uint256) external;\n\n    function withdraw(uint256) external;\n\n    function getPricePerFullShare() external view returns (uint256);\n}\n\n/*\n\n A strategy must implement the following calls;\n \n - deposit()\n - withdraw(address) must exclude any tokens used in the yield - Controller role - withdraw should return to Controller\n - withdraw(uint) - Controller | Vault role - withdraw should always return to vault\n - withdrawAll() - Controller | Vault role - withdraw should always return to vault\n - balanceOf()\n \n Where possible, strategies must remain as immutable as possible, instead of updating variables, we update the contract by linking it in the controller\n \n*/\n\ncontract StrategyTUSDypool {\n    using SafeERC20 for IERC20;\n    using Address for address;\n    using SafeMath for uint256;\n\n    address public constant want = address(0x0000000000085d4780B73119b644AE5ecd22b376);\n    address public constant ypool = address(0x45F783CCE6B7FF23B2ab2D70e416cdb7D6055f51);\n    address public constant ycrv = address(0xdF5e0e81Dff6FAF3A7e52BA697820c5e32D806A8);\n    address public constant yycrv = address(0x5dbcF33D8c2E976c6b560249878e6F1491Bca25c);\n\n    address public constant dai = address(0x6B175474E89094C44Da98b954EedeAC495271d0F);\n    address public constant ydai = address(0x16de59092dAE5CcF4A1E6439D611fd0653f0Bd01);\n    address public constant usdc = address(0xA0b86991c6218b36c1d19D4a2e9Eb0cE3606eB48);\n    address public constant yusdc = address(0xd6aD7a6750A7593E092a9B218d66C0A814a3436e);\n    address public constant usdt = address(0xdAC17F958D2ee523a2206206994597C13D831ec7);\n    address public constant yusdt = address(0x83f798e925BcD4017Eb265844FDDAbb448f1707D);\n    address public constant tusd = address(0x0000000000085d4780B73119b644AE5ecd22b376);\n    address public constant ytusd = address(0x73a052500105205d34Daf004eAb301916DA8190f);\n\n    address public governance;\n    address public controller;\n    address public strategist;\n\n    uint256 public constant DENOMINATOR = 10000;\n    uint256 public treasuryFee = 500;\n    uint256 public withdrawalFee = 0;\n    uint256 public strategistReward = 50;\n    uint256 public threshold = 6000;\n    uint256 public slip = 100;\n    uint256 public tank = 0;\n    uint256 public p = 0;\n\n    event Threshold(address indexed strategy);\n\n    modifier isAuthorized() {\n        require(msg.sender == governance || msg.sender == strategist || msg.sender == controller || msg.sender == address(this), \"!authorized\");\n        _;\n    }\n\n    constructor(address _controller) public {\n        governance = msg.sender;\n        strategist = msg.sender;\n        controller = _controller;\n    }\n\n    function getName() external pure returns (string memory) {\n        return \"StrategyTUSDypool\";\n    }\n\n    function deposit() public isAuthorized {\n        rebalance();\n        uint256 _want = (IERC20(want).balanceOf(address(this))).sub(tank);\n        if (_want > 0) {\n            IERC20(want).safeApprove(ytusd, 0);\n            IERC20(want).safeApprove(ytusd, _want);\n            yvERC20(ytusd).deposit(_want);\n        }\n        uint256 _y = IERC20(ytusd).balanceOf(address(this));\n        if (_y > 0) {\n            IERC20(ytusd).safeApprove(ypool, 0);\n            IERC20(ytusd).safeApprove(ypool, _y);\n            uint256 v = _want.mul(1e18).div(ICurveFi(ypool).get_virtual_price());\n            ICurveFi(ypool).add_liquidity([0, 0, 0, _y], v.mul(DENOMINATOR.sub(slip)).div(DENOMINATOR));\n        }\n        uint256 _bal = IERC20(ycrv).balanceOf(address(this));\n        if (_bal > 0) {\n            IERC20(ycrv).safeApprove(yycrv, 0);\n            IERC20(ycrv).safeApprove(yycrv, _bal);\n            yvERC20(yycrv).deposit(_bal);\n        }\n    }\n\n    // Controller only function for creating additional rewards from dust\n    function withdraw(IERC20 _asset) external returns (uint256 balance) {\n        require(msg.sender == controller, \"!controller\");\n        require(want != address(_asset), \"want\");\n        require(ycrv != address(_asset), \"ycrv\");\n        require(yycrv != address(_asset), \"yycrv\");\n        balance = _asset.balanceOf(address(this));\n        _asset.safeTransfer(controller, balance);\n    }\n\n    // Withdraw partial funds, normally used with a vault withdrawal\n    function withdraw(uint256 _amount) external {\n        require(msg.sender == controller, \"!controller\");\n\n        rebalance();\n        uint256 _balance = IERC20(want).balanceOf(address(this));\n        if (_balance < _amount) {\n            _amount = _withdrawSome(_amount.sub(_balance));\n            _amount = _amount.add(_balance);\n            tank = 0;\n        } else {\n            if (tank >= _amount) tank = tank.sub(_amount);\n            else tank = 0;\n        }\n\n        address _vault = IController(controller).vaults(address(want));\n        require(_vault != address(0), \"!vault\"); // additional protection so we don't burn the funds\n        uint256 _fee = _amount.mul(withdrawalFee).div(DENOMINATOR);\n        IERC20(want).safeTransfer(IController(controller).rewards(), _fee);\n        IERC20(want).safeTransfer(_vault, _amount.sub(_fee));\n    }\n\n    function _withdrawSome(uint256 _amount) internal returns (uint256) {\n        uint256 _amnt = _amount.mul(1e18).div(ICurveFi(ypool).get_virtual_price());\n        uint256 _amt = _amnt.mul(1e18).div(yvERC20(yycrv).getPricePerFullShare());\n        uint256 _before = IERC20(ycrv).balanceOf(address(this));\n        yvERC20(yycrv).withdraw(_amt);\n        uint256 _after = IERC20(ycrv).balanceOf(address(this));\n        return _withdrawOne(_after.sub(_before));\n    }\n\n    function _withdrawOne(uint256 _amnt) internal returns (uint256) {\n        IERC20(ycrv).safeApprove(ypool, 0);\n        IERC20(ycrv).safeApprove(ypool, _amnt);\n\n        uint256 _aux = _amnt.mul(DENOMINATOR.sub(slip)).div(DENOMINATOR);\n        uint256 _t = IERC20(ycrv).totalSupply();\n        ICurveFi(ypool).remove_liquidity(\n            _amnt,\n            [\n                ICurveFi(ypool).balances(0).mul(_aux).div(_t),\n                ICurveFi(ypool).balances(1).mul(_aux).div(_t),\n                ICurveFi(ypool).balances(2).mul(_aux).div(_t),\n                ICurveFi(ypool).balances(3).mul(_aux).div(_t)\n            ]\n        );\n\n        uint256 _ydai = IERC20(ydai).balanceOf(address(this));\n        uint256 _yusdc = IERC20(yusdc).balanceOf(address(this));\n        uint256 _yusdt = IERC20(yusdt).balanceOf(address(this));\n\n        uint256 tmp;\n        if (_ydai > 0) {\n            IERC20(ydai).safeApprove(ypool, 0);\n            IERC20(ydai).safeApprove(ypool, _ydai);\n            tmp = ICurveFi(ypool).get_dy(0, 3, _ydai);\n            ICurveFi(ypool).exchange(0, 3, _ydai, tmp.mul(DENOMINATOR.sub(slip)).div(DENOMINATOR));\n        }\n        if (_yusdc > 0) {\n            IERC20(yusdc).safeApprove(ypool, 0);\n            IERC20(yusdc).safeApprove(ypool, _yusdc);\n            tmp = ICurveFi(ypool).get_dy(1, 3, _yusdc);\n            ICurveFi(ypool).exchange(1, 3, _yusdc, tmp.mul(DENOMINATOR.sub(slip)).div(DENOMINATOR));\n        }\n        if (_yusdt > 0) {\n            IERC20(yusdt).safeApprove(ypool, 0);\n            IERC20(yusdt).safeApprove(ypool, _yusdt);\n            tmp = ICurveFi(ypool).get_dy(2, 3, _yusdt);\n            ICurveFi(ypool).exchange(2, 3, _yusdt, tmp.mul(DENOMINATOR.sub(slip)).div(DENOMINATOR));\n        }\n\n        uint256 _before = IERC20(want).balanceOf(address(this));\n        yvERC20(ytusd).withdraw(IERC20(ytusd).balanceOf(address(this)));\n        uint256 _after = IERC20(want).balanceOf(address(this));\n\n        return _after.sub(_before);\n    }\n\n    // Withdraw all funds, normally used when migrating strategies\n    function withdrawAll() external returns (uint256 balance) {\n        require(msg.sender == controller, \"!controller\");\n        _withdrawAll();\n\n        balance = IERC20(want).balanceOf(address(this));\n\n        address _vault = IController(controller).vaults(address(want));\n        require(_vault != address(0), \"!vault\"); // additional protection so we don't burn the funds\n        IERC20(want).safeTransfer(_vault, balance);\n    }\n\n    function _withdrawAll() internal {\n        uint256 _yycrv = IERC20(yycrv).balanceOf(address(this));\n        if (_yycrv > 0) {\n            yvERC20(yycrv).withdraw(_yycrv);\n            _withdrawOne(IERC20(ycrv).balanceOf(address(this)));\n        }\n    }\n\n    function balanceOfWant() public view returns (uint256) {\n        return IERC20(want).balanceOf(address(this));\n    }\n\n    function balanceOfYCRV() public view returns (uint256) {\n        return IERC20(ycrv).balanceOf(address(this));\n    }\n\n    function balanceOfYCRVinWant() public view returns (uint256) {\n        return balanceOfYCRV().mul(ICurveFi(ypool).get_virtual_price()).div(1e18);\n    }\n\n    function balanceOfYYCRV() public view returns (uint256) {\n        return IERC20(yycrv).balanceOf(address(this));\n    }\n\n    function balanceOfYYCRVinYCRV() public view returns (uint256) {\n        return balanceOfYYCRV().mul(yvERC20(yycrv).getPricePerFullShare()).div(1e18);\n    }\n\n    function balanceOfYYCRVinWant() public view returns (uint256) {\n        return balanceOfYYCRVinYCRV().mul(ICurveFi(ypool).get_virtual_price()).div(1e18);\n    }\n\n    function balanceOf() public view returns (uint256) {\n        return balanceOfWant().add(balanceOfYYCRVinWant());\n    }\n\n    function migrate(address _strategy) external {\n        require(msg.sender == governance, \"!governance\");\n        require(IController(controller).approvedStrategies(want, _strategy), \"!stategyAllowed\");\n        IERC20(yycrv).safeTransfer(_strategy, IERC20(yycrv).balanceOf(address(this)));\n        IERC20(ycrv).safeTransfer(_strategy, IERC20(ycrv).balanceOf(address(this)));\n        IERC20(want).safeTransfer(_strategy, IERC20(want).balanceOf(address(this)));\n    }\n\n    function forceD(uint256 _amount) external isAuthorized {\n        IERC20(want).safeApprove(ytusd, 0);\n        IERC20(want).safeApprove(ytusd, _amount);\n        yvERC20(ytusd).deposit(_amount);\n\n        uint256 _y = IERC20(ytusd).balanceOf(address(this));\n        IERC20(ytusd).safeApprove(ypool, 0);\n        IERC20(ytusd).safeApprove(ypool, _y);\n        uint256 v = _amount.mul(1e18).div(ICurveFi(ypool).get_virtual_price());\n        ICurveFi(ypool).add_liquidity([0, 0, 0, _y], v.mul(DENOMINATOR.sub(slip)).div(DENOMINATOR));\n\n        uint256 _bal = IERC20(ycrv).balanceOf(address(this));\n        IERC20(ycrv).safeApprove(yycrv, 0);\n        IERC20(ycrv).safeApprove(yycrv, _bal);\n        yvERC20(yycrv).deposit(_bal);\n\n        if (_amount < tank) tank = tank.sub(_amount);\n        else tank = 0;\n    }\n\n    function forceW(uint256 _amt) external isAuthorized {\n        uint256 _before = IERC20(ycrv).balanceOf(address(this));\n        yvERC20(yycrv).withdraw(_amt);\n        uint256 _after = IERC20(ycrv).balanceOf(address(this));\n        _amt = _after.sub(_before);\n\n        _before = IERC20(want).balanceOf(address(this));\n        _withdrawOne(_amt);\n        _after = IERC20(want).balanceOf(address(this));\n        tank = tank.add(_after.sub(_before));\n    }\n\n    function drip() public isAuthorized {\n        uint256 _p = yvERC20(yycrv).getPricePerFullShare();\n        _p = _p.mul(ICurveFi(ypool).get_virtual_price()).div(1e18);\n        require(_p >= p, \"backward\");\n        uint256 _r = (_p.sub(p)).mul(balanceOfYYCRV()).div(1e18);\n        uint256 _s = _r.mul(strategistReward).div(DENOMINATOR);\n        IERC20(yycrv).safeTransfer(strategist, _s.mul(1e18).div(_p));\n        uint256 _t = _r.mul(treasuryFee).div(DENOMINATOR);\n        IERC20(yycrv).safeTransfer(IController(controller).rewards(), _t.mul(1e18).div(_p));\n        p = _p;\n    }\n\n    function tick() public view returns (uint256 _t, uint256 _c) {\n        _t = ICurveFi(ypool).balances(3).mul(yvERC20(ytusd).getPricePerFullShare()).div(1e18).mul(threshold).div(DENOMINATOR);\n        _c = balanceOfYYCRVinWant();\n    }\n\n    function rebalance() public isAuthorized {\n        drip();\n        (uint256 _t, uint256 _c) = tick();\n        if (_c > _t) {\n            _withdrawSome(_c.sub(_t));\n            tank = IERC20(want).balanceOf(address(this));\n            emit Threshold(address(this));\n        }\n    }\n\n    function setGovernance(address _governance) external {\n        require(msg.sender == governance, \"!governance\");\n        governance = _governance;\n    }\n\n    function setController(address _controller) external {\n        require(msg.sender == governance, \"!governance\");\n        controller = _controller;\n    }\n\n    function setStrategist(address _strategist) external {\n        require(msg.sender == governance || msg.sender == strategist, \"!gs\");\n        strategist = _strategist;\n    }\n\n    function setWithdrawalFee(uint256 _withdrawalFee) external {\n        require(msg.sender == governance, \"!governance\");\n        withdrawalFee = _withdrawalFee;\n    }\n\n    function setTreasuryFee(uint256 _treasuryFee) external {\n        require(msg.sender == governance, \"!governance\");\n        treasuryFee = _treasuryFee;\n    }\n\n    function setStrategistReward(uint256 _strategistReward) external {\n        require(msg.sender == governance, \"!governance\");\n        strategistReward = _strategistReward;\n    }\n\n    function setThreshold(uint256 _threshold) external {\n        require(msg.sender == strategist || msg.sender == governance, \"!ksg\");\n        threshold = _threshold;\n    }\n\n    function setSlip(uint256 _slip) external {\n        require(msg.sender == strategist || msg.sender == governance, \"!ksg\");\n        slip = _slip;\n    }\n}\n",
  "sourcePath": "/Users/sbacha/yearn-protocol-nodejs/contracts/strategies/StrategyTUSDypool.sol",
  "compiler": {
    "name": "solc",
    "version": "0.5.17+commit.d19bba13.Emscripten.clang"
  },
  "schemaVersion": "3.3.3",
  "updatedAt": "2021-01-01T09:28:49.254Z",
  "devdoc": {
    "methods": {}
  },
  "userdoc": {
    "methods": {}
  }
}