{
  "contractName": "StrategyDForceUSDC",
  "abi": [
    {
      "inputs": [
        {
          "internalType": "address",
          "name": "_controller",
          "type": "address"
        }
      ],
      "payable": false,
      "stateMutability": "nonpayable",
      "type": "constructor"
    },
    {
      "constant": true,
      "inputs": [],
      "name": "controller",
      "outputs": [
        {
          "internalType": "address",
          "name": "",
          "type": "address"
        }
      ],
      "payable": false,
      "stateMutability": "view",
      "type": "function"
    },
    {
      "constant": true,
      "inputs": [],
      "name": "df",
      "outputs": [
        {
          "internalType": "address",
          "name": "",
          "type": "address"
        }
      ],
      "payable": false,
      "stateMutability": "view",
      "type": "function"
    },
    {
      "constant": true,
      "inputs": [],
      "name": "dusdc",
      "outputs": [
        {
          "internalType": "address",
          "name": "",
          "type": "address"
        }
      ],
      "payable": false,
      "stateMutability": "view",
      "type": "function"
    },
    {
      "constant": true,
      "inputs": [],
      "name": "governance",
      "outputs": [
        {
          "internalType": "address",
          "name": "",
          "type": "address"
        }
      ],
      "payable": false,
      "stateMutability": "view",
      "type": "function"
    },
    {
      "constant": true,
      "inputs": [],
      "name": "performanceFee",
      "outputs": [
        {
          "internalType": "uint256",
          "name": "",
          "type": "uint256"
        }
      ],
      "payable": false,
      "stateMutability": "view",
      "type": "function"
    },
    {
      "constant": true,
      "inputs": [],
      "name": "performanceMax",
      "outputs": [
        {
          "internalType": "uint256",
          "name": "",
          "type": "uint256"
        }
      ],
      "payable": false,
      "stateMutability": "view",
      "type": "function"
    },
    {
      "constant": true,
      "inputs": [],
      "name": "pool",
      "outputs": [
        {
          "internalType": "address",
          "name": "",
          "type": "address"
        }
      ],
      "payable": false,
      "stateMutability": "view",
      "type": "function"
    },
    {
      "constant": true,
      "inputs": [],
      "name": "strategist",
      "outputs": [
        {
          "internalType": "address",
          "name": "",
          "type": "address"
        }
      ],
      "payable": false,
      "stateMutability": "view",
      "type": "function"
    },
    {
      "constant": true,
      "inputs": [],
      "name": "uni",
      "outputs": [
        {
          "internalType": "address",
          "name": "",
          "type": "address"
        }
      ],
      "payable": false,
      "stateMutability": "view",
      "type": "function"
    },
    {
      "constant": true,
      "inputs": [],
      "name": "want",
      "outputs": [
        {
          "internalType": "address",
          "name": "",
          "type": "address"
        }
      ],
      "payable": false,
      "stateMutability": "view",
      "type": "function"
    },
    {
      "constant": true,
      "inputs": [],
      "name": "weth",
      "outputs": [
        {
          "internalType": "address",
          "name": "",
          "type": "address"
        }
      ],
      "payable": false,
      "stateMutability": "view",
      "type": "function"
    },
    {
      "constant": true,
      "inputs": [],
      "name": "withdrawalFee",
      "outputs": [
        {
          "internalType": "uint256",
          "name": "",
          "type": "uint256"
        }
      ],
      "payable": false,
      "stateMutability": "view",
      "type": "function"
    },
    {
      "constant": true,
      "inputs": [],
      "name": "withdrawalMax",
      "outputs": [
        {
          "internalType": "uint256",
          "name": "",
          "type": "uint256"
        }
      ],
      "payable": false,
      "stateMutability": "view",
      "type": "function"
    },
    {
      "constant": true,
      "inputs": [],
      "name": "getName",
      "outputs": [
        {
          "internalType": "string",
          "name": "",
          "type": "string"
        }
      ],
      "payable": false,
      "stateMutability": "pure",
      "type": "function"
    },
    {
      "constant": false,
      "inputs": [
        {
          "internalType": "address",
          "name": "_strategist",
          "type": "address"
        }
      ],
      "name": "setStrategist",
      "outputs": [],
      "payable": false,
      "stateMutability": "nonpayable",
      "type": "function"
    },
    {
      "constant": false,
      "inputs": [
        {
          "internalType": "uint256",
          "name": "_withdrawalFee",
          "type": "uint256"
        }
      ],
      "name": "setWithdrawalFee",
      "outputs": [],
      "payable": false,
      "stateMutability": "nonpayable",
      "type": "function"
    },
    {
      "constant": false,
      "inputs": [
        {
          "internalType": "uint256",
          "name": "_performanceFee",
          "type": "uint256"
        }
      ],
      "name": "setPerformanceFee",
      "outputs": [],
      "payable": false,
      "stateMutability": "nonpayable",
      "type": "function"
    },
    {
      "constant": false,
      "inputs": [],
      "name": "deposit",
      "outputs": [],
      "payable": false,
      "stateMutability": "nonpayable",
      "type": "function"
    },
    {
      "constant": false,
      "inputs": [
        {
          "internalType": "uint256",
          "name": "_amount",
          "type": "uint256"
        }
      ],
      "name": "withdraw",
      "outputs": [],
      "payable": false,
      "stateMutability": "nonpayable",
      "type": "function"
    },
    {
      "constant": false,
      "inputs": [
        {
          "internalType": "contract IERC20",
          "name": "_asset",
          "type": "address"
        }
      ],
      "name": "withdraw",
      "outputs": [
        {
          "internalType": "uint256",
          "name": "balance",
          "type": "uint256"
        }
      ],
      "payable": false,
      "stateMutability": "nonpayable",
      "type": "function"
    },
    {
      "constant": false,
      "inputs": [],
      "name": "withdrawAll",
      "outputs": [
        {
          "internalType": "uint256",
          "name": "balance",
          "type": "uint256"
        }
      ],
      "payable": false,
      "stateMutability": "nonpayable",
      "type": "function"
    },
    {
      "constant": false,
      "inputs": [],
      "name": "harvest",
      "outputs": [],
      "payable": false,
      "stateMutability": "nonpayable",
      "type": "function"
    },
    {
      "constant": true,
      "inputs": [],
      "name": "balanceOfWant",
      "outputs": [
        {
          "internalType": "uint256",
          "name": "",
          "type": "uint256"
        }
      ],
      "payable": false,
      "stateMutability": "view",
      "type": "function"
    },
    {
      "constant": true,
      "inputs": [],
      "name": "balanceOfPool",
      "outputs": [
        {
          "internalType": "uint256",
          "name": "",
          "type": "uint256"
        }
      ],
      "payable": false,
      "stateMutability": "view",
      "type": "function"
    },
    {
      "constant": true,
      "inputs": [],
      "name": "getExchangeRate",
      "outputs": [
        {
          "internalType": "uint256",
          "name": "",
          "type": "uint256"
        }
      ],
      "payable": false,
      "stateMutability": "view",
      "type": "function"
    },
    {
      "constant": true,
      "inputs": [],
      "name": "balanceOfDUSDC",
      "outputs": [
        {
          "internalType": "uint256",
          "name": "",
          "type": "uint256"
        }
      ],
      "payable": false,
      "stateMutability": "view",
      "type": "function"
    },
    {
      "constant": true,
      "inputs": [],
      "name": "balanceOf",
      "outputs": [
        {
          "internalType": "uint256",
          "name": "",
          "type": "uint256"
        }
      ],
      "payable": false,
      "stateMutability": "view",
      "type": "function"
    },
    {
      "constant": false,
      "inputs": [
        {
          "internalType": "address",
          "name": "_governance",
          "type": "address"
        }
      ],
      "name": "setGovernance",
      "outputs": [],
      "payable": false,
      "stateMutability": "nonpayable",
      "type": "function"
    },
    {
      "constant": false,
      "inputs": [
        {
          "internalType": "address",
          "name": "_controller",
          "type": "address"
        }
      ],
      "name": "setController",
      "outputs": [],
      "payable": false,
      "stateMutability": "nonpayable",
      "type": "function"
    }
  ],
  "bytecode": "0x60806040526113886000556101f460015534801561001c57600080fd5b5060405161228e38038061228e8339818101604052602081101561003f57600080fd5b505160028054336001600160a01b03199182168117909255600480548216909217909155600380549091166001600160a01b039092169190911790556122048061008a6000396000f3fe608060405234801561001057600080fd5b50600436106101cf5760003560e01c8063853828b611610104578063c1a3d44c116100a2578063e6aa216c11610071578063e6aa216c146103f0578063edc9af95146103f8578063f77c479114610400578063fb86d50314610408576101cf565b8063c1a3d44c146103ba578063c7b9d530146103c2578063d0e30db0146103e8578063d5c1ff7314610329576101cf565b806392eefe9b116100de57806392eefe9b146103495780639d35f5941461036f578063ab033ea914610377578063ac1e50251461039d576101cf565b8063853828b61461033157806387788782146103395780638bc7e8c414610341576101cf565b80633fc8cef3116101715780635aa6e6751161014b5780635aa6e675146102fc57806370897b2314610304578063722713f7146103215780637cc7911314610329576101cf565b80633fc8cef3146102c65780634641257d146102ce57806351cff8d9146102d6576101cf565b80631f1fcd51116101ad5780631f1fcd511461028f5780631fe4a686146102975780632e1a7d4d1461029f578063356ed45a146102be576101cf565b806311588086146101d457806316f0115b146101ee57806317d7de7c14610212575b600080fd5b6101dc610410565b60408051918252519081900360200190f35b6101f661052e565b604080516001600160a01b039092168252519081900360200190f35b61021a610546565b6040805160208082528351818301528351919283929083019185019080838360005b8381101561025457818101518382015260200161023c565b50505050905090810190601f1680156102815780820380516001836020036101000a031916815260200191505b509250505060405180910390f35b6101f6610572565b6101f6610584565b6102bc600480360360208110156102b557600080fd5b5035610593565b005b6101dc61084b565b6101f66108cb565b6102bc6108e3565b6101dc600480360360208110156102ec57600080fd5b50356001600160a01b0316610d70565b6101f6610f03565b6102bc6004803603602081101561031a57600080fd5b5035610f12565b6101dc610f64565b6101dc610f90565b6101dc610f96565b6101dc611159565b6101dc61115f565b6102bc6004803603602081101561035f57600080fd5b50356001600160a01b0316611165565b6101f66111d4565b6102bc6004803603602081101561038d57600080fd5b50356001600160a01b03166111ec565b6102bc600480360360208110156103b357600080fd5b503561125b565b6101dc6112ad565b6102bc600480360360208110156103d857600080fd5b50356001600160a01b03166112fc565b6102bc61136b565b6101dc611615565b6101f661165e565b6101f6611676565b6101f6611685565b6000610529670de0b6b3a764000061051d6000805160206121508339815191526001600160a01b031663e6aa216c6040518163ffffffff1660e01b815260040160206040518083038186803b15801561046857600080fd5b505afa15801561047c573d6000803e3d6000fd5b505050506040513d602081101561049257600080fd5b5051604080516370a0823160e01b8152306004820152905173b71defdd6240c45746ec58314a01dd6d833fd3b5916370a08231916024808301926020929190829003018186803b1580156104e557600080fd5b505afa1580156104f9573d6000803e3d6000fd5b505050506040513d602081101561050f57600080fd5b50519063ffffffff61169716565b9063ffffffff6116f916565b905090565b73b71defdd6240c45746ec58314a01dd6d833fd3b581565b604080518082019091526012815271537472617465677944466f7263655553444360701b602082015290565b60008051602061213083398151915281565b6004546001600160a01b031681565b6003546001600160a01b031633146105e0576040805162461bcd60e51b815260206004820152600b60248201526a10b1b7b73a3937b63632b960a91b604482015290519081900360640190fd5b604080516370a0823160e01b81523060048201529051600091600080516020612130833981519152916370a0823191602480820192602092909190829003018186803b15801561062f57600080fd5b505afa158015610643573d6000803e3d6000fd5b505050506040513d602081101561065957600080fd5b50519050818110156106925761067d610678838363ffffffff61173b16565b61177d565b915061068f828263ffffffff611b0616565b91505b60006106af61271061051d6001548661169790919063ffffffff16565b905061074a600360009054906101000a90046001600160a01b03166001600160a01b0316639ec5a8946040518163ffffffff1660e01b815260040160206040518083038186803b15801561070257600080fd5b505afa158015610716573d6000803e3d6000fd5b505050506040513d602081101561072c57600080fd5b5051600080516020612130833981519152908363ffffffff611b6016565b60035460408051632988bb9f60e21b8152600080516020612130833981519152600482015290516000926001600160a01b03169163a622ee7c916024808301926020929190829003018186803b1580156107a357600080fd5b505afa1580156107b7573d6000803e3d6000fd5b505050506040513d60208110156107cd57600080fd5b505190506001600160a01b038116610815576040805162461bcd60e51b8152602060048201526006602482015265085d985d5b1d60d21b604482015290519081900360640190fd5b61084581610829868563ffffffff61173b16565b600080516020612130833981519152919063ffffffff611b6016565b50505050565b60408051633aecd0e360e01b8152306004820152905160009160008051602061215083398151915291633aecd0e391602480820192602092909190829003018186803b15801561089a57600080fd5b505afa1580156108ae573d6000803e3d6000fd5b505050506040513d60208110156108c457600080fd5b5051905090565b73c02aaa39b223fe8d0a0e5c4f27ead9083c756cc281565b6004546001600160a01b031633148061090657506002546001600160a01b031633145b610945576040805162461bcd60e51b815260206004820152600b60248201526a08585d5d1a1bdc9a5e995960aa1b604482015290519081900360640190fd5b73b71defdd6240c45746ec58314a01dd6d833fd3b56001600160a01b0316633d18b9126040518163ffffffff1660e01b8152600401600060405180830381600087803b15801561099457600080fd5b505af11580156109a8573d6000803e3d6000fd5b5050604080516370a0823160e01b815230600482015290516000935073431ad2ff6a9c365805ebad47ee021148d6f7dbe092506370a0823191602480820192602092909190829003018186803b158015610a0157600080fd5b505afa158015610a15573d6000803e3d6000fd5b505050506040513d6020811015610a2b57600080fd5b505190508015610c6f57610a6f73431ad2ff6a9c365805ebad47ee021148d6f7dbe0737a250d5630b4cf539739df2c5dacb4c659f2488d600063ffffffff611bb216565b610aa873431ad2ff6a9c365805ebad47ee021148d6f7dbe0737a250d5630b4cf539739df2c5dacb4c659f2488d8363ffffffff611bb216565b6040805160038082526080820190925260609160208201838038833901905050905073431ad2ff6a9c365805ebad47ee021148d6f7dbe081600081518110610aec57fe5b60200260200101906001600160a01b031690816001600160a01b03168152505073c02aaa39b223fe8d0a0e5c4f27ead9083c756cc281600181518110610b2e57fe5b60200260200101906001600160a01b031690816001600160a01b03168152505060008051602061213083398151915281600281518110610b6a57fe5b6001600160a01b0390921660209283029190910190910152737a250d5630b4cf539739df2c5dacb4c659f2488d6338ed17398360008430610bb34261070863ffffffff611b0616565b6040518663ffffffff1660e01b81526004018086815260200185815260200180602001846001600160a01b03166001600160a01b03168152602001838152602001828103825285818151815260200191508051906020019060200280838360005b83811015610c2c578181015183820152602001610c14565b505050509050019650505050505050600060405180830381600087803b158015610c5557600080fd5b505af1158015610c69573d6000803e3d6000fd5b50505050505b604080516370a0823160e01b81523060048201529051600091600080516020612130833981519152916370a0823191602480820192602092909190829003018186803b158015610cbe57600080fd5b505afa158015610cd2573d6000803e3d6000fd5b505050506040513d6020811015610ce857600080fd5b505190508015610d6c576000610d0f61271061051d6000548561169790919063ffffffff16565b9050610d62600360009054906101000a90046001600160a01b03166001600160a01b0316639ec5a8946040518163ffffffff1660e01b815260040160206040518083038186803b15801561070257600080fd5b610d6a61136b565b505b5050565b6003546000906001600160a01b03163314610dc0576040805162461bcd60e51b815260206004820152600b60248201526a10b1b7b73a3937b63632b960a91b604482015290519081900360640190fd5b6000805160206121308339815191526001600160a01b0383161415610e15576040805162461bcd60e51b815260206004808301919091526024820152631dd85b9d60e21b604482015290519081900360640190fd5b6000805160206121508339815191526001600160a01b0383161415610e69576040805162461bcd60e51b8152602060048201526005602482015264647573646360d81b604482015290519081900360640190fd5b604080516370a0823160e01b815230600482015290516001600160a01b038416916370a08231916024808301926020929190829003018186803b158015610eaf57600080fd5b505afa158015610ec3573d6000803e3d6000fd5b505050506040513d6020811015610ed957600080fd5b5051600354909150610efe906001600160a01b0384811691168363ffffffff611b6016565b919050565b6002546001600160a01b031681565b6002546001600160a01b03163314610f5f576040805162461bcd60e51b815260206004820152600b60248201526a21676f7665726e616e636560a81b604482015290519081900360640190fd5b600055565b6000610529610f71610410565b610f84610f7c61084b565b610f846112ad565b9063ffffffff611b0616565b61271081565b6003546000906001600160a01b03163314610fe6576040805162461bcd60e51b815260206004820152600b60248201526a10b1b7b73a3937b63632b960a91b604482015290519081900360640190fd5b610fee611cc5565b604080516370a0823160e01b81523060048201529051600080516020612130833981519152916370a08231916024808301926020929190829003018186803b15801561103957600080fd5b505afa15801561104d573d6000803e3d6000fd5b505050506040513d602081101561106357600080fd5b505160035460408051632988bb9f60e21b8152600080516020612130833981519152600482015290519293506000926001600160a01b039092169163a622ee7c91602480820192602092909190829003018186803b1580156110c457600080fd5b505afa1580156110d8573d6000803e3d6000fd5b505050506040513d60208110156110ee57600080fd5b505190506001600160a01b038116611136576040805162461bcd60e51b8152602060048201526006602482015265085d985d5b1d60d21b604482015290519081900360640190fd5b611155600080516020612130833981519152828463ffffffff611b6016565b5090565b60005481565b60015481565b6002546001600160a01b031633146111b2576040805162461bcd60e51b815260206004820152600b60248201526a21676f7665726e616e636560a81b604482015290519081900360640190fd5b600380546001600160a01b0319166001600160a01b0392909216919091179055565b73431ad2ff6a9c365805ebad47ee021148d6f7dbe081565b6002546001600160a01b03163314611239576040805162461bcd60e51b815260206004820152600b60248201526a21676f7665726e616e636560a81b604482015290519081900360640190fd5b600280546001600160a01b0319166001600160a01b0392909216919091179055565b6002546001600160a01b031633146112a8576040805162461bcd60e51b815260206004820152600b60248201526a21676f7665726e616e636560a81b604482015290519081900360640190fd5b600155565b604080516370a0823160e01b81523060048201529051600091600080516020612130833981519152916370a0823191602480820192602092909190829003018186803b15801561089a57600080fd5b6002546001600160a01b03163314611349576040805162461bcd60e51b815260206004820152600b60248201526a21676f7665726e616e636560a81b604482015290519081900360640190fd5b600480546001600160a01b0319166001600160a01b0392909216919091179055565b604080516370a0823160e01b81523060048201529051600091600080516020612130833981519152916370a0823191602480820192602092909190829003018186803b1580156113ba57600080fd5b505afa1580156113ce573d6000803e3d6000fd5b505050506040513d60208110156113e457600080fd5b5051905080156114b55761141c600080516020612130833981519152600080516020612150833981519152600063ffffffff611bb216565b6114496000805160206121308339815191526000805160206121508339815191528363ffffffff611bb216565b604080516340c10f1960e01b8152306004820152602481018390529051600080516020612150833981519152916340c10f1991604480830192600092919082900301818387803b15801561149c57600080fd5b505af11580156114b0573d6000803e3d6000fd5b505050505b604080516370a0823160e01b81523060048201529051600091600080516020612150833981519152916370a0823191602480820192602092909190829003018186803b15801561150457600080fd5b505afa158015611518573d6000803e3d6000fd5b505050506040513d602081101561152e57600080fd5b505190508015610d6c5761156c60008051602061215083398151915273b71defdd6240c45746ec58314a01dd6d833fd3b5600063ffffffff611bb216565b61159f60008051602061215083398151915273b71defdd6240c45746ec58314a01dd6d833fd3b58363ffffffff611bb216565b73b71defdd6240c45746ec58314a01dd6d833fd3b56001600160a01b031663a694fc3a826040518263ffffffff1660e01b815260040180828152602001915050600060405180830381600087803b1580156115f957600080fd5b505af115801561160d573d6000803e3d6000fd5b505050505050565b60006000805160206121508339815191526001600160a01b031663e6aa216c6040518163ffffffff1660e01b815260040160206040518083038186803b15801561089a57600080fd5b737a250d5630b4cf539739df2c5dacb4c659f2488d81565b6003546001600160a01b031681565b60008051602061215083398151915281565b6000826116a6575060006116f3565b828202828482816116b357fe5b04146116f05760405162461bcd60e51b815260040180806020018281038252602181526020018061210f6021913960400191505060405180910390fd5b90505b92915050565b60006116f083836040518060400160405280601a81526020017f536166654d6174683a206469766973696f6e206279207a65726f000000000000815250611e1e565b60006116f083836040518060400160405280601e81526020017f536166654d6174683a207375627472616374696f6e206f766572666c6f770000815250611ec0565b60008061180e6000805160206121508339815191526001600160a01b031663e6aa216c6040518163ffffffff1660e01b815260040160206040518083038186803b1580156117ca57600080fd5b505afa1580156117de573d6000803e3d6000fd5b505050506040513d60208110156117f457600080fd5b505161051d85670de0b6b3a764000063ffffffff61169716565b604080516370a0823160e01b81523060048201529051919250600091600080516020612150833981519152916370a08231916024808301926020929190829003018186803b15801561185f57600080fd5b505afa158015611873573d6000803e3d6000fd5b505050506040513d602081101561188957600080fd5b505160408051632e1a7d4d60e01b815260048101859052905191925073b71defdd6240c45746ec58314a01dd6d833fd3b591632e1a7d4d9160248082019260009290919082900301818387803b1580156118e257600080fd5b505af11580156118f6573d6000803e3d6000fd5b5050604080516370a0823160e01b815230600482015290516000935060008051602061215083398151915292506370a0823191602480820192602092909190829003018186803b15801561194957600080fd5b505afa15801561195d573d6000803e3d6000fd5b505050506040513d602081101561197357600080fd5b505190506000611989828463ffffffff61173b16565b604080516370a0823160e01b81523060048201529051919250600080516020612130833981519152916370a0823191602480820192602092909190829003018186803b1580156119d857600080fd5b505afa1580156119ec573d6000803e3d6000fd5b505050506040513d6020811015611a0257600080fd5b5051604080516301e9a69560e41b815230600482015260248101849052905191945060008051602061215083398151915291631e9a69509160448082019260009290919082900301818387803b158015611a5b57600080fd5b505af1158015611a6f573d6000803e3d6000fd5b5050604080516370a0823160e01b8152306004820152905160008051602061213083398151915293506370a0823192506024808301926020929190829003018186803b158015611abe57600080fd5b505afa158015611ad2573d6000803e3d6000fd5b505050506040513d6020811015611ae857600080fd5b50519150611afc828463ffffffff61173b16565b9695505050505050565b6000828201838110156116f0576040805162461bcd60e51b815260206004820152601b60248201527f536166654d6174683a206164646974696f6e206f766572666c6f770000000000604482015290519081900360640190fd5b604080516001600160a01b038416602482015260448082018490528251808303909101815260649091019091526020810180516001600160e01b031663a9059cbb60e01b179052610d6a908490611f1a565b801580611c38575060408051636eb1769f60e11b81523060048201526001600160a01b03848116602483015291519185169163dd62ed3e91604480820192602092909190829003018186803b158015611c0a57600080fd5b505afa158015611c1e573d6000803e3d6000fd5b505050506040513d6020811015611c3457600080fd5b5051155b611c735760405162461bcd60e51b815260040180806020018281038252603681526020018061219a6036913960400191505060405180910390fd5b604080516001600160a01b038416602482015260448082018490528251808303909101815260649091019091526020810180516001600160e01b031663095ea7b360e01b179052610d6a908490611f1a565b73b71defdd6240c45746ec58314a01dd6d833fd3b56001600160a01b031663e9fad8ee6040518163ffffffff1660e01b8152600401600060405180830381600087803b158015611d1457600080fd5b505af1158015611d28573d6000803e3d6000fd5b5050604080516370a0823160e01b815230600482015290516000935060008051602061215083398151915292506370a0823191602480820192602092909190829003018186803b158015611d7b57600080fd5b505afa158015611d8f573d6000803e3d6000fd5b505050506040513d6020811015611da557600080fd5b505190508015611e1b57604080516301e9a69560e41b815230600482015260248101839052905160008051602061215083398151915291631e9a695091604480830192600092919082900301818387803b158015611e0257600080fd5b505af1158015611e16573d6000803e3d6000fd5b505050505b50565b60008183611eaa5760405162461bcd60e51b81526004018080602001828103825283818151815260200191508051906020019080838360005b83811015611e6f578181015183820152602001611e57565b50505050905090810190601f168015611e9c5780820380516001836020036101000a031916815260200191505b509250505060405180910390fd5b506000838581611eb657fe5b0495945050505050565b60008184841115611f125760405162461bcd60e51b8152602060048201818152835160248401528351909283926044909101919085019080838360008315611e6f578181015183820152602001611e57565b505050900390565b611f2c826001600160a01b03166120d2565b611f7d576040805162461bcd60e51b815260206004820152601f60248201527f5361666545524332303a2063616c6c20746f206e6f6e2d636f6e747261637400604482015290519081900360640190fd5b60006060836001600160a01b0316836040518082805190602001908083835b60208310611fbb5780518252601f199092019160209182019101611f9c565b6001836020036101000a0380198251168184511680821785525050505050509050019150506000604051808303816000865af19150503d806000811461201d576040519150601f19603f3d011682016040523d82523d6000602084013e612022565b606091505b509150915081612079576040805162461bcd60e51b815260206004820181905260248201527f5361666545524332303a206c6f772d6c6576656c2063616c6c206661696c6564604482015290519081900360640190fd5b8051156108455780806020019051602081101561209557600080fd5b50516108455760405162461bcd60e51b815260040180806020018281038252602a815260200180612170602a913960400191505060405180910390fd5b6000813f7fc5d2460186f7233c927e7db2dcc703c0e500b653ca82273b7bfad8045d85a47081811480159061210657508115155b94935050505056fe536166654d6174683a206d756c7469706c69636174696f6e206f766572666c6f77000000000000000000000000a0b86991c6218b36c1d19d4a2e9eb0ce3606eb4800000000000000000000000016c9cf62d8dac4a38fb50ae5fa5d51e9170f31795361666545524332303a204552433230206f7065726174696f6e20646964206e6f7420737563636565645361666545524332303a20617070726f76652066726f6d206e6f6e2d7a65726f20746f206e6f6e2d7a65726f20616c6c6f77616e6365a265627a7a72315820c30b47a72b61fbee2f3e7617c010e29224466a24ae4b1a52f1fb1d756a6cef3064736f6c63430005110032",
  "source": "// SPDX-License-Identifier: MIT\n\npragma solidity ^0.5.17;\n\nimport \"@openzeppelin/contracts/token/ERC20/IERC20.sol\";\nimport \"@openzeppelin/contracts/math/SafeMath.sol\";\nimport \"@openzeppelin/contracts/utils/Address.sol\";\nimport \"@openzeppelin/contracts/token/ERC20/SafeERC20.sol\";\n\nimport \"../../interfaces/dforce/Rewards.sol\";\nimport \"../../interfaces/dforce/Token.sol\";\nimport \"../../interfaces/uniswap/Uni.sol\";\n\nimport \"../../interfaces/yearn/IController.sol\";\n\ncontract StrategyDForceUSDC {\n    using SafeERC20 for IERC20;\n    using Address for address;\n    using SafeMath for uint256;\n\n    address public constant want = address(0xA0b86991c6218b36c1d19D4a2e9Eb0cE3606eB48); // USDC\n    address public constant dusdc = address(0x16c9cF62d8daC4a38FB50Ae5fa5d51E9170F3179);\n    address public constant pool = address(0xB71dEFDd6240c45746EC58314a01dd6D833fD3b5);\n    address public constant df = address(0x431ad2ff6a9C365805eBaD47Ee021148d6f7DBe0);\n    address public constant uni = address(0x7a250d5630B4cF539739dF2C5dAcb4c659F2488D);\n    address public constant weth = address(0xC02aaA39b223FE8D0A0e5C4F27eAD9083C756Cc2); // used for df <> weth <> usdc route\n\n    uint256 public performanceFee = 5000;\n    uint256 public constant performanceMax = 10000;\n\n    uint256 public withdrawalFee = 500;\n    uint256 public constant withdrawalMax = 10000;\n\n    address public governance;\n    address public controller;\n    address public strategist;\n\n    constructor(address _controller) public {\n        governance = msg.sender;\n        strategist = msg.sender;\n        controller = _controller;\n    }\n\n    function getName() external pure returns (string memory) {\n        return \"StrategyDForceUSDC\";\n    }\n\n    function setStrategist(address _strategist) external {\n        require(msg.sender == governance, \"!governance\");\n        strategist = _strategist;\n    }\n\n    function setWithdrawalFee(uint256 _withdrawalFee) external {\n        require(msg.sender == governance, \"!governance\");\n        withdrawalFee = _withdrawalFee;\n    }\n\n    function setPerformanceFee(uint256 _performanceFee) external {\n        require(msg.sender == governance, \"!governance\");\n        performanceFee = _performanceFee;\n    }\n\n    function deposit() public {\n        uint256 _want = IERC20(want).balanceOf(address(this));\n        if (_want > 0) {\n            IERC20(want).safeApprove(dusdc, 0);\n            IERC20(want).safeApprove(dusdc, _want);\n            dERC20(dusdc).mint(address(this), _want);\n        }\n\n        uint256 _dusdc = IERC20(dusdc).balanceOf(address(this));\n        if (_dusdc > 0) {\n            IERC20(dusdc).safeApprove(pool, 0);\n            IERC20(dusdc).safeApprove(pool, _dusdc);\n            dRewards(pool).stake(_dusdc);\n        }\n    }\n\n    // Controller only function for creating additional rewards from dust\n    function withdraw(IERC20 _asset) external returns (uint256 balance) {\n        require(msg.sender == controller, \"!controller\");\n        require(want != address(_asset), \"want\");\n        require(dusdc != address(_asset), \"dusdc\");\n        balance = _asset.balanceOf(address(this));\n        _asset.safeTransfer(controller, balance);\n    }\n\n    // Withdraw partial funds, normally used with a vault withdrawal\n    function withdraw(uint256 _amount) external {\n        require(msg.sender == controller, \"!controller\");\n        uint256 _balance = IERC20(want).balanceOf(address(this));\n        if (_balance < _amount) {\n            _amount = _withdrawSome(_amount.sub(_balance));\n            _amount = _amount.add(_balance);\n        }\n\n        uint256 _fee = _amount.mul(withdrawalFee).div(withdrawalMax);\n\n        IERC20(want).safeTransfer(IController(controller).rewards(), _fee);\n        address _vault = IController(controller).vaults(address(want));\n        require(_vault != address(0), \"!vault\"); // additional protection so we don't burn the funds\n\n        IERC20(want).safeTransfer(_vault, _amount.sub(_fee));\n    }\n\n    // Withdraw all funds, normally used when migrating strategies\n    function withdrawAll() external returns (uint256 balance) {\n        require(msg.sender == controller, \"!controller\");\n        _withdrawAll();\n\n        balance = IERC20(want).balanceOf(address(this));\n\n        address _vault = IController(controller).vaults(address(want));\n        require(_vault != address(0), \"!vault\"); // additional protection so we don't burn the funds\n        IERC20(want).safeTransfer(_vault, balance);\n    }\n\n    function _withdrawAll() internal {\n        dRewards(pool).exit();\n        uint256 _dusdc = IERC20(dusdc).balanceOf(address(this));\n        if (_dusdc > 0) {\n            dERC20(dusdc).redeem(address(this), _dusdc);\n        }\n    }\n\n    function harvest() public {\n        require(msg.sender == strategist || msg.sender == governance, \"!authorized\");\n        dRewards(pool).getReward();\n        uint256 _df = IERC20(df).balanceOf(address(this));\n        if (_df > 0) {\n            IERC20(df).safeApprove(uni, 0);\n            IERC20(df).safeApprove(uni, _df);\n\n            address[] memory path = new address[](3);\n            path[0] = df;\n            path[1] = weth;\n            path[2] = want;\n\n            Uni(uni).swapExactTokensForTokens(_df, uint256(0), path, address(this), now.add(1800));\n        }\n        uint256 _want = IERC20(want).balanceOf(address(this));\n        if (_want > 0) {\n            uint256 _fee = _want.mul(performanceFee).div(performanceMax);\n            IERC20(want).safeTransfer(IController(controller).rewards(), _fee);\n            deposit();\n        }\n    }\n\n    function _withdrawSome(uint256 _amount) internal returns (uint256) {\n        uint256 _dusdc = _amount.mul(1e18).div(dERC20(dusdc).getExchangeRate());\n        uint256 _before = IERC20(dusdc).balanceOf(address(this));\n        dRewards(pool).withdraw(_dusdc);\n        uint256 _after = IERC20(dusdc).balanceOf(address(this));\n        uint256 _withdrew = _after.sub(_before);\n        _before = IERC20(want).balanceOf(address(this));\n        dERC20(dusdc).redeem(address(this), _withdrew);\n        _after = IERC20(want).balanceOf(address(this));\n        _withdrew = _after.sub(_before);\n        return _withdrew;\n    }\n\n    function balanceOfWant() public view returns (uint256) {\n        return IERC20(want).balanceOf(address(this));\n    }\n\n    function balanceOfPool() public view returns (uint256) {\n        return (dRewards(pool).balanceOf(address(this))).mul(dERC20(dusdc).getExchangeRate()).div(1e18);\n    }\n\n    function getExchangeRate() public view returns (uint256) {\n        return dERC20(dusdc).getExchangeRate();\n    }\n\n    function balanceOfDUSDC() public view returns (uint256) {\n        return dERC20(dusdc).getTokenBalance(address(this));\n    }\n\n    function balanceOf() public view returns (uint256) {\n        return balanceOfWant().add(balanceOfDUSDC()).add(balanceOfPool());\n    }\n\n    function setGovernance(address _governance) external {\n        require(msg.sender == governance, \"!governance\");\n        governance = _governance;\n    }\n\n    function setController(address _controller) external {\n        require(msg.sender == governance, \"!governance\");\n        controller = _controller;\n    }\n}\n",
  "sourcePath": "/Users/sbacha/yearn-protocol-nodejs/contracts/strategies/StrategyDForceUSDC.sol",
  "compiler": {
    "name": "solc",
    "version": "0.5.17+commit.d19bba13.Emscripten.clang"
  },
  "schemaVersion": "3.3.3",
  "updatedAt": "2021-01-01T09:28:49.153Z",
  "devdoc": {
    "methods": {}
  },
  "userdoc": {
    "methods": {}
  }
}