{
  "contractName": "yDelegatedVault",
  "abi": [
    {
      "inputs": [
        {
          "internalType": "address",
          "name": "_token",
          "type": "address"
        },
        {
          "internalType": "address",
          "name": "_controller",
          "type": "address"
        }
      ],
      "payable": false,
      "stateMutability": "nonpayable",
      "type": "constructor"
    },
    {
      "anonymous": false,
      "inputs": [
        {
          "indexed": true,
          "internalType": "address",
          "name": "owner",
          "type": "address"
        },
        {
          "indexed": true,
          "internalType": "address",
          "name": "spender",
          "type": "address"
        },
        {
          "indexed": false,
          "internalType": "uint256",
          "name": "value",
          "type": "uint256"
        }
      ],
      "name": "Approval",
      "type": "event"
    },
    {
      "anonymous": false,
      "inputs": [
        {
          "indexed": true,
          "internalType": "address",
          "name": "from",
          "type": "address"
        },
        {
          "indexed": true,
          "internalType": "address",
          "name": "to",
          "type": "address"
        },
        {
          "indexed": false,
          "internalType": "uint256",
          "name": "value",
          "type": "uint256"
        }
      ],
      "name": "Transfer",
      "type": "event"
    },
    {
      "constant": true,
      "inputs": [],
      "name": "aave",
      "outputs": [
        {
          "internalType": "address",
          "name": "",
          "type": "address"
        }
      ],
      "payable": false,
      "stateMutability": "view",
      "type": "function"
    },
    {
      "constant": true,
      "inputs": [
        {
          "internalType": "address",
          "name": "owner",
          "type": "address"
        },
        {
          "internalType": "address",
          "name": "spender",
          "type": "address"
        }
      ],
      "name": "allowance",
      "outputs": [
        {
          "internalType": "uint256",
          "name": "",
          "type": "uint256"
        }
      ],
      "payable": false,
      "stateMutability": "view",
      "type": "function"
    },
    {
      "constant": false,
      "inputs": [
        {
          "internalType": "address",
          "name": "spender",
          "type": "address"
        },
        {
          "internalType": "uint256",
          "name": "amount",
          "type": "uint256"
        }
      ],
      "name": "approve",
      "outputs": [
        {
          "internalType": "bool",
          "name": "",
          "type": "bool"
        }
      ],
      "payable": false,
      "stateMutability": "nonpayable",
      "type": "function"
    },
    {
      "constant": true,
      "inputs": [
        {
          "internalType": "address",
          "name": "account",
          "type": "address"
        }
      ],
      "name": "balanceOf",
      "outputs": [
        {
          "internalType": "uint256",
          "name": "",
          "type": "uint256"
        }
      ],
      "payable": false,
      "stateMutability": "view",
      "type": "function"
    },
    {
      "constant": true,
      "inputs": [],
      "name": "controller",
      "outputs": [
        {
          "internalType": "address",
          "name": "",
          "type": "address"
        }
      ],
      "payable": false,
      "stateMutability": "view",
      "type": "function"
    },
    {
      "constant": true,
      "inputs": [],
      "name": "decimals",
      "outputs": [
        {
          "internalType": "uint8",
          "name": "",
          "type": "uint8"
        }
      ],
      "payable": false,
      "stateMutability": "view",
      "type": "function"
    },
    {
      "constant": false,
      "inputs": [
        {
          "internalType": "address",
          "name": "spender",
          "type": "address"
        },
        {
          "internalType": "uint256",
          "name": "subtractedValue",
          "type": "uint256"
        }
      ],
      "name": "decreaseAllowance",
      "outputs": [
        {
          "internalType": "bool",
          "name": "",
          "type": "bool"
        }
      ],
      "payable": false,
      "stateMutability": "nonpayable",
      "type": "function"
    },
    {
      "constant": true,
      "inputs": [],
      "name": "governance",
      "outputs": [
        {
          "internalType": "address",
          "name": "",
          "type": "address"
        }
      ],
      "payable": false,
      "stateMutability": "view",
      "type": "function"
    },
    {
      "constant": true,
      "inputs": [],
      "name": "healthFactor",
      "outputs": [
        {
          "internalType": "uint256",
          "name": "",
          "type": "uint256"
        }
      ],
      "payable": false,
      "stateMutability": "view",
      "type": "function"
    },
    {
      "constant": false,
      "inputs": [
        {
          "internalType": "address",
          "name": "spender",
          "type": "address"
        },
        {
          "internalType": "uint256",
          "name": "addedValue",
          "type": "uint256"
        }
      ],
      "name": "increaseAllowance",
      "outputs": [
        {
          "internalType": "bool",
          "name": "",
          "type": "bool"
        }
      ],
      "payable": false,
      "stateMutability": "nonpayable",
      "type": "function"
    },
    {
      "constant": true,
      "inputs": [],
      "name": "insurance",
      "outputs": [
        {
          "internalType": "uint256",
          "name": "",
          "type": "uint256"
        }
      ],
      "payable": false,
      "stateMutability": "view",
      "type": "function"
    },
    {
      "constant": true,
      "inputs": [],
      "name": "ltv",
      "outputs": [
        {
          "internalType": "uint256",
          "name": "",
          "type": "uint256"
        }
      ],
      "payable": false,
      "stateMutability": "view",
      "type": "function"
    },
    {
      "constant": true,
      "inputs": [],
      "name": "max",
      "outputs": [
        {
          "internalType": "uint256",
          "name": "",
          "type": "uint256"
        }
      ],
      "payable": false,
      "stateMutability": "view",
      "type": "function"
    },
    {
      "constant": true,
      "inputs": [],
      "name": "name",
      "outputs": [
        {
          "internalType": "string",
          "name": "",
          "type": "string"
        }
      ],
      "payable": false,
      "stateMutability": "view",
      "type": "function"
    },
    {
      "constant": true,
      "inputs": [],
      "name": "symbol",
      "outputs": [
        {
          "internalType": "string",
          "name": "",
          "type": "string"
        }
      ],
      "payable": false,
      "stateMutability": "view",
      "type": "function"
    },
    {
      "constant": true,
      "inputs": [],
      "name": "token",
      "outputs": [
        {
          "internalType": "contract IERC20",
          "name": "",
          "type": "address"
        }
      ],
      "payable": false,
      "stateMutability": "view",
      "type": "function"
    },
    {
      "constant": true,
      "inputs": [],
      "name": "totalSupply",
      "outputs": [
        {
          "internalType": "uint256",
          "name": "",
          "type": "uint256"
        }
      ],
      "payable": false,
      "stateMutability": "view",
      "type": "function"
    },
    {
      "constant": false,
      "inputs": [
        {
          "internalType": "address",
          "name": "recipient",
          "type": "address"
        },
        {
          "internalType": "uint256",
          "name": "amount",
          "type": "uint256"
        }
      ],
      "name": "transfer",
      "outputs": [
        {
          "internalType": "bool",
          "name": "",
          "type": "bool"
        }
      ],
      "payable": false,
      "stateMutability": "nonpayable",
      "type": "function"
    },
    {
      "constant": false,
      "inputs": [
        {
          "internalType": "address",
          "name": "sender",
          "type": "address"
        },
        {
          "internalType": "address",
          "name": "recipient",
          "type": "address"
        },
        {
          "internalType": "uint256",
          "name": "amount",
          "type": "uint256"
        }
      ],
      "name": "transferFrom",
      "outputs": [
        {
          "internalType": "bool",
          "name": "",
          "type": "bool"
        }
      ],
      "payable": false,
      "stateMutability": "nonpayable",
      "type": "function"
    },
    {
      "constant": true,
      "inputs": [],
      "name": "debt",
      "outputs": [
        {
          "internalType": "uint256",
          "name": "",
          "type": "uint256"
        }
      ],
      "payable": false,
      "stateMutability": "view",
      "type": "function"
    },
    {
      "constant": true,
      "inputs": [],
      "name": "credit",
      "outputs": [
        {
          "internalType": "uint256",
          "name": "",
          "type": "uint256"
        }
      ],
      "payable": false,
      "stateMutability": "view",
      "type": "function"
    },
    {
      "constant": true,
      "inputs": [],
      "name": "locked",
      "outputs": [
        {
          "internalType": "uint256",
          "name": "",
          "type": "uint256"
        }
      ],
      "payable": false,
      "stateMutability": "view",
      "type": "function"
    },
    {
      "constant": true,
      "inputs": [
        {
          "internalType": "address",
          "name": "_lp",
          "type": "address"
        }
      ],
      "name": "debtShare",
      "outputs": [
        {
          "internalType": "uint256",
          "name": "",
          "type": "uint256"
        }
      ],
      "payable": false,
      "stateMutability": "view",
      "type": "function"
    },
    {
      "constant": true,
      "inputs": [],
      "name": "getAave",
      "outputs": [
        {
          "internalType": "address",
          "name": "",
          "type": "address"
        }
      ],
      "payable": false,
      "stateMutability": "view",
      "type": "function"
    },
    {
      "constant": true,
      "inputs": [],
      "name": "getAaveCore",
      "outputs": [
        {
          "internalType": "address",
          "name": "",
          "type": "address"
        }
      ],
      "payable": false,
      "stateMutability": "view",
      "type": "function"
    },
    {
      "constant": false,
      "inputs": [
        {
          "internalType": "uint256",
          "name": "_hf",
          "type": "uint256"
        }
      ],
      "name": "setHealthFactor",
      "outputs": [],
      "payable": false,
      "stateMutability": "nonpayable",
      "type": "function"
    },
    {
      "constant": false,
      "inputs": [],
      "name": "activate",
      "outputs": [],
      "payable": false,
      "stateMutability": "nonpayable",
      "type": "function"
    },
    {
      "constant": false,
      "inputs": [
        {
          "internalType": "address",
          "name": "reserve",
          "type": "address"
        },
        {
          "internalType": "uint256",
          "name": "amount",
          "type": "uint256"
        }
      ],
      "name": "repay",
      "outputs": [],
      "payable": false,
      "stateMutability": "nonpayable",
      "type": "function"
    },
    {
      "constant": false,
      "inputs": [],
      "name": "repayAll",
      "outputs": [],
      "payable": false,
      "stateMutability": "nonpayable",
      "type": "function"
    },
    {
      "constant": false,
      "inputs": [
        {
          "internalType": "address",
          "name": "reserve",
          "type": "address"
        },
        {
          "internalType": "uint256",
          "name": "amount",
          "type": "uint256"
        }
      ],
      "name": "harvest",
      "outputs": [],
      "payable": false,
      "stateMutability": "nonpayable",
      "type": "function"
    },
    {
      "constant": true,
      "inputs": [],
      "name": "balance",
      "outputs": [
        {
          "internalType": "uint256",
          "name": "",
          "type": "uint256"
        }
      ],
      "payable": false,
      "stateMutability": "view",
      "type": "function"
    },
    {
      "constant": false,
      "inputs": [
        {
          "internalType": "address",
          "name": "_governance",
          "type": "address"
        }
      ],
      "name": "setGovernance",
      "outputs": [],
      "payable": false,
      "stateMutability": "nonpayable",
      "type": "function"
    },
    {
      "constant": false,
      "inputs": [
        {
          "internalType": "address",
          "name": "_controller",
          "type": "address"
        }
      ],
      "name": "setController",
      "outputs": [],
      "payable": false,
      "stateMutability": "nonpayable",
      "type": "function"
    },
    {
      "constant": true,
      "inputs": [],
      "name": "getAaveOracle",
      "outputs": [
        {
          "internalType": "address",
          "name": "",
          "type": "address"
        }
      ],
      "payable": false,
      "stateMutability": "view",
      "type": "function"
    },
    {
      "constant": true,
      "inputs": [
        {
          "internalType": "address",
          "name": "reserve",
          "type": "address"
        }
      ],
      "name": "getReservePriceETH",
      "outputs": [
        {
          "internalType": "uint256",
          "name": "",
          "type": "uint256"
        }
      ],
      "payable": false,
      "stateMutability": "view",
      "type": "function"
    },
    {
      "constant": true,
      "inputs": [],
      "name": "shouldRebalance",
      "outputs": [
        {
          "internalType": "bool",
          "name": "",
          "type": "bool"
        }
      ],
      "payable": false,
      "stateMutability": "view",
      "type": "function"
    },
    {
      "constant": true,
      "inputs": [
        {
          "internalType": "uint256",
          "name": "_amount",
          "type": "uint256"
        }
      ],
      "name": "getUnderlyingPriceETH",
      "outputs": [
        {
          "internalType": "uint256",
          "name": "",
          "type": "uint256"
        }
      ],
      "payable": false,
      "stateMutability": "view",
      "type": "function"
    },
    {
      "constant": true,
      "inputs": [
        {
          "internalType": "uint256",
          "name": "_amount",
          "type": "uint256"
        }
      ],
      "name": "over",
      "outputs": [
        {
          "internalType": "uint256",
          "name": "",
          "type": "uint256"
        }
      ],
      "payable": false,
      "stateMutability": "view",
      "type": "function"
    },
    {
      "constant": true,
      "inputs": [],
      "name": "over",
      "outputs": [
        {
          "internalType": "uint256",
          "name": "",
          "type": "uint256"
        }
      ],
      "payable": false,
      "stateMutability": "view",
      "type": "function"
    },
    {
      "constant": false,
      "inputs": [],
      "name": "rebalance",
      "outputs": [],
      "payable": false,
      "stateMutability": "nonpayable",
      "type": "function"
    },
    {
      "constant": false,
      "inputs": [],
      "name": "claimInsurance",
      "outputs": [],
      "payable": false,
      "stateMutability": "nonpayable",
      "type": "function"
    },
    {
      "constant": true,
      "inputs": [],
      "name": "maxSafeETH",
      "outputs": [
        {
          "internalType": "uint256",
          "name": "maxBorrowsETH",
          "type": "uint256"
        },
        {
          "internalType": "uint256",
          "name": "totalBorrowsETH",
          "type": "uint256"
        },
        {
          "internalType": "uint256",
          "name": "availableBorrowsETH",
          "type": "uint256"
        }
      ],
      "payable": false,
      "stateMutability": "view",
      "type": "function"
    },
    {
      "constant": true,
      "inputs": [],
      "name": "shouldBorrow",
      "outputs": [
        {
          "internalType": "bool",
          "name": "",
          "type": "bool"
        }
      ],
      "payable": false,
      "stateMutability": "view",
      "type": "function"
    },
    {
      "constant": true,
      "inputs": [],
      "name": "availableToBorrowETH",
      "outputs": [
        {
          "internalType": "uint256",
          "name": "",
          "type": "uint256"
        }
      ],
      "payable": false,
      "stateMutability": "view",
      "type": "function"
    },
    {
      "constant": true,
      "inputs": [],
      "name": "availableToBorrowReserve",
      "outputs": [
        {
          "internalType": "uint256",
          "name": "",
          "type": "uint256"
        }
      ],
      "payable": false,
      "stateMutability": "view",
      "type": "function"
    },
    {
      "constant": true,
      "inputs": [],
      "name": "getReservePrice",
      "outputs": [
        {
          "internalType": "uint256",
          "name": "",
          "type": "uint256"
        }
      ],
      "payable": false,
      "stateMutability": "view",
      "type": "function"
    },
    {
      "constant": true,
      "inputs": [],
      "name": "getUnderlyingPrice",
      "outputs": [
        {
          "internalType": "uint256",
          "name": "",
          "type": "uint256"
        }
      ],
      "payable": false,
      "stateMutability": "view",
      "type": "function"
    },
    {
      "constant": false,
      "inputs": [],
      "name": "earn",
      "outputs": [],
      "payable": false,
      "stateMutability": "nonpayable",
      "type": "function"
    },
    {
      "constant": false,
      "inputs": [],
      "name": "depositAll",
      "outputs": [],
      "payable": false,
      "stateMutability": "nonpayable",
      "type": "function"
    },
    {
      "constant": false,
      "inputs": [
        {
          "internalType": "uint256",
          "name": "_amount",
          "type": "uint256"
        }
      ],
      "name": "deposit",
      "outputs": [],
      "payable": false,
      "stateMutability": "nonpayable",
      "type": "function"
    },
    {
      "constant": true,
      "inputs": [],
      "name": "reserve",
      "outputs": [
        {
          "internalType": "address",
          "name": "",
          "type": "address"
        }
      ],
      "payable": false,
      "stateMutability": "view",
      "type": "function"
    },
    {
      "constant": true,
      "inputs": [],
      "name": "underlying",
      "outputs": [
        {
          "internalType": "address",
          "name": "",
          "type": "address"
        }
      ],
      "payable": false,
      "stateMutability": "view",
      "type": "function"
    },
    {
      "constant": false,
      "inputs": [],
      "name": "withdrawAll",
      "outputs": [],
      "payable": false,
      "stateMutability": "nonpayable",
      "type": "function"
    },
    {
      "constant": true,
      "inputs": [
        {
          "internalType": "address",
          "name": "account",
          "type": "address"
        }
      ],
      "name": "maxWithdrawal",
      "outputs": [
        {
          "internalType": "uint256",
          "name": "",
          "type": "uint256"
        }
      ],
      "payable": false,
      "stateMutability": "view",
      "type": "function"
    },
    {
      "constant": false,
      "inputs": [],
      "name": "safeWithdraw",
      "outputs": [],
      "payable": false,
      "stateMutability": "nonpayable",
      "type": "function"
    },
    {
      "constant": false,
      "inputs": [
        {
          "internalType": "uint256",
          "name": "_shares",
          "type": "uint256"
        }
      ],
      "name": "withdraw",
      "outputs": [],
      "payable": false,
      "stateMutability": "nonpayable",
      "type": "function"
    },
    {
      "constant": true,
      "inputs": [],
      "name": "getPricePerFullShare",
      "outputs": [
        {
          "internalType": "uint256",
          "name": "",
          "type": "uint256"
        }
      ],
      "payable": false,
      "stateMutability": "view",
      "type": "function"
    }
  ],
  "bytecode": "0x608060405260046009556041600a556064600b553480156200002057600080fd5b5060405162002e2e38038062002e2e833981810160405260408110156200004657600080fd5b508051602090910151604080516306fdde0360e01b815290516001600160a01b038416916306fdde03916004808301926000929190829003018186803b1580156200009057600080fd5b505afa158015620000a5573d6000803e3d6000fd5b505050506040513d6000823e601f3d908101601f191682016040526020811015620000cf57600080fd5b8101908080516040519392919084640100000000821115620000f057600080fd5b9083019060208201858111156200010657600080fd5b82516401000000008111828201881017156200012157600080fd5b82525081516020918201929091019080838360005b838110156200015057818101518382015260200162000136565b50505050905090810190601f1680156200017e5780820380516001836020036101000a031916815260200191505b5060405250505060405160200180806503cb2b0b937160d51b81525060060182805190602001908083835b60208310620001ca5780518252601f199092019160209182019101620001a9565b6001836020036101000a038019825116818451168082178552505050505050905001915050604051602081830303815290604052826001600160a01b03166395d89b416040518163ffffffff1660e01b815260040160006040518083038186803b1580156200023857600080fd5b505afa1580156200024d573d6000803e3d6000fd5b505050506040513d6000823e601f3d908101601f1916820160405260208110156200027757600080fd5b81019080805160405193929190846401000000008211156200029857600080fd5b908301906020820185811115620002ae57600080fd5b8251640100000000811182820188101715620002c957600080fd5b82525081516020918201929091019080838360005b83811015620002f8578181015183820152602001620002de565b50505050905090810190601f168015620003265780820380516001836020036101000a031916815260200191505b506040525050506040516020018080607960f81b81525060010182805190602001908083835b602083106200036d5780518252601f1990920191602091820191016200034c565b6001836020036101000a038019825116818451168082178552505050505050905001915050604051602081830303815290604052836001600160a01b031663313ce5676040518163ffffffff1660e01b815260040160206040518083038186803b158015620003db57600080fd5b505afa158015620003f0573d6000803e3d6000fd5b505050506040513d60208110156200040757600080fd5b505182516200041e9060039060208601906200048f565b508151620004349060049060208501906200048f565b506005805460ff191660ff9290921691909117610100600160a81b0319166101006001600160a01b0396871602179055505060068054336001600160a01b031991821617909155600780549091169190921617905562000534565b828054600181600116156101000203166002900490600052602060002090601f016020900481019282601f10620004d257805160ff191683800117855562000502565b8280016001018555821562000502579182015b8281111562000502578251825591602001919060010190620004e5565b506200051092915062000514565b5090565b6200053191905b808211156200051057600081556001016200051b565b90565b6128ea80620005446000396000f3fe608060405234801561001057600080fd5b50600436106103835760003560e01c80637fd42617116101de578063b040785a1161010f578063dd90a791116100ad578063f7c1ec771161007c578063f7c1ec7714610866578063f82ce27d1461086e578063fa3ae6dc14610876578063fc0c546a1461087e57610383565b8063dd90a79114610831578063de5f62681461084e578063f072232214610856578063f77c47911461085e57610383565b8063cd3293de116100e9578063cd3293de146107eb578063cf309012146107f3578063d389800f146107fb578063dd62ed3e1461080357610383565b8063b040785a146107be578063b69ef8a8146107c6578063b6b55f25146107ce57610383565b80639f287e161161017c578063a75ac60811610156578063a75ac6081461075c578063a9059cbb14610764578063ab033ea914610790578063ae2c1d5f146107b657610383565b80639f287e1614610720578063a06d083c14610728578063a457c2d71461073057610383565b806389cf3204116101b857806389cf3204146106e2578063929c8849146106ea57806392eefe9b146106f257806395d89b411461071857610383565b80637fd42617146106ca578063819faf7b146106d2578063853828b6146106da57610383565b806331111708116102b85780636ad4e2511161025657806370a082311161023057806370a082311461068c57806377c7b8fc146106b25780637d7c2a1c146106ba5780637eaef50c146106c257610383565b80636ad4e2511461065f5780636f307dc31461067c5780636fb49d731461068457610383565b8063468f02d211610292578063468f02d2146106055780635aa6e6751461060d57806362f5548d146106315780636ac5db191461065757610383565b8063311117081461059e578063313ce567146105bb57806339509351146105d957610383565b80631b93e5b01161032557806323b872dd116102ff57806323b872dd146104ff57806327afd028146105355780632851e2e01461055b5780632e1a7d4d1461058157610383565b80631b93e5b0146104c357806322841f01146104cb57806322867d78146104d357610383565b80630dca59c1116103615780630dca59c1146104735780630f15f4c01461048d57806311dddca41461049557806318160ddd146104bb57610383565b8063018ee9b71461038857806306fdde03146103b6578063095ea7b314610433575b600080fd5b6103b46004803603604081101561039e57600080fd5b506001600160a01b038135169060200135610886565b005b6103be610947565b6040805160208082528351818301528351919283929083019185019080838360005b838110156103f85781810151838201526020016103e0565b50505050905090810190601f1680156104255780820380516001836020036101000a031916815260200191505b509250505060405180910390f35b61045f6004803603604081101561044957600080fd5b506001600160a01b0381351690602001356109de565b604080519115158252519081900360200190f35b61047b6109fc565b60408051918252519081900360200190f35b6103b4610b0d565b61047b600480360360208110156104ab57600080fd5b50356001600160a01b0316610b92565b61047b610c25565b61045f610c2b565b61047b610c3c565b6103b4600480360360408110156104e957600080fd5b506001600160a01b038135169060200135610c42565b61045f6004803603606081101561051557600080fd5b506001600160a01b03813581169160208101359091169060400135610de7565b61047b6004803603602081101561054b57600080fd5b50356001600160a01b0316610e74565b61047b6004803603602081101561057157600080fd5b50356001600160a01b0316610f09565b6103b46004803603602081101561059757600080fd5b5035610f36565b6103b4600480360360208110156105b457600080fd5b5035610f80565b6105c3610fd2565b6040805160ff9092168252519081900360200190f35b61045f600480360360408110156105ef57600080fd5b506001600160a01b038135169060200135610fdb565b61047b61102f565b610615611046565b604080516001600160a01b039092168252519081900360200190f35b610639611055565b60408051938452602084019290925282820152519081900360600190f35b61047b61112d565b61047b6004803603602081101561067557600080fd5b5035611133565b61061561125d565b61047b6112de565b61047b600480360360208110156106a257600080fd5b50356001600160a01b03166112e4565b61047b6112ff565b6103b4611320565b61047b61132c565b6103b461133c565b61061561134d565b6103b4611365565b61047b611371565b61047b611377565b6103b46004803603602081101561070857600080fd5b50356001600160a01b03166113f1565b6103be611460565b6106156114c1565b61047b611510565b61045f6004803603604081101561074657600080fd5b506001600160a01b03813516906020013561155b565b6103b46115c9565b61045f6004803603604081101561077a57600080fd5b506001600160a01b038135169060200135611643565b6103b4600480360360208110156107a657600080fd5b50356001600160a01b0316611657565b61045f6116c6565b61047b6116d1565b61047b611740565b6103b4600480360360208110156107e457600080fd5b50356117eb565b610615611897565b61047b6118e2565b6103b4611903565b61047b6004803603604081101561081957600080fd5b506001600160a01b0381358116916020013516611ab2565b61047b6004803603602081101561084757600080fd5b5035611add565b6103b4611b90565b61047b611c12565b610615611c1f565b610615611c2e565b610615611c7d565b6103b4611ccc565b610615611d5a565b6007546001600160a01b031633146108d3576040805162461bcd60e51b815260206004820152600b60248201526a10b1b7b73a3937b63632b960a91b604482015290519081900360640190fd5b6005546001600160a01b03838116610100909204161415610923576040805162461bcd60e51b81526020600482015260056024820152643a37b5b2b760d91b604482015290519081900360640190fd5b600754610943906001600160a01b0384811691168363ffffffff611d6e16565b5050565b60038054604080516020601f60026000196101006001881615020190951694909404938401819004810282018101909252828152606093909290918301828280156109d35780601f106109a8576101008083540402835291602001916109d3565b820191906000526020600020905b8154815290600101906020018083116109b657829003601f168201915b505050505090505b90565b60006109f26109eb611dc0565b8484611dc4565b5060015b92915050565b60075460408051637572458960e01b8152306004820152905160009283926001600160a01b0390911691637572458991602480820192602092909190829003018186803b158015610a4c57600080fd5b505afa158015610a60573d6000803e3d6000fd5b505050506040513d6020811015610a7657600080fd5b505190506000610a84611c2e565b604080516328dd2d0160e01b81526001600160a01b038581166004830152306024830152915192909116916328dd2d019160448082019261014092909190829003018186803b158015610ad657600080fd5b505afa158015610aea573d6000803e3d6000fd5b505050506040513d610140811015610b0157600080fd5b50602001519250505090565b610b15611c2e565b6001600160a01b0316635a3b74b9610b2b61125d565b604080516001600160e01b031960e085901b1681526001600160a01b0390921660048301526001602483015251604480830192600092919082900301818387803b158015610b7857600080fd5b505af1158015610b8c573d6000803e3d6000fd5b50505050565b6000610b9c6114c1565b6001600160a01b031663b3596f07836040518263ffffffff1660e01b815260040180826001600160a01b03166001600160a01b0316815260200191505060206040518083038186803b158015610bf157600080fd5b505afa158015610c05573d6000803e3d6000fd5b505050506040513d6020811015610c1b57600080fd5b505190505b919050565b60025490565b600080610c36611377565b11905090565b60095481565b816001600160a01b031663095ea7b3610c59611c7d565b60006040518363ffffffff1660e01b815260040180836001600160a01b03166001600160a01b0316815260200182815260200192505050602060405180830381600087803b158015610caa57600080fd5b505af1158015610cbe573d6000803e3d6000fd5b505050506040513d6020811015610cd457600080fd5b50506001600160a01b03821663095ea7b3610ced611c7d565b836040518363ffffffff1660e01b815260040180836001600160a01b03166001600160a01b0316815260200182815260200192505050602060405180830381600087803b158015610d3d57600080fd5b505af1158015610d51573d6000803e3d6000fd5b505050506040513d6020811015610d6757600080fd5b50610d729050611c2e565b6040805163173aba7160e21b81526001600160a01b0385811660048301526024820185905230604483015291519290911691635ceae9c49160648082019260009290919082900301818387803b158015610dcb57600080fd5b505af1158015610ddf573d6000803e3d6000fd5b505050505050565b6000610df4848484611eb0565b610e6a84610e00611dc0565b610e65856040518060600160405280602881526020016127d5602891396001600160a01b038a16600090815260016020526040812090610e3e611dc0565b6001600160a01b03168152602081019190915260400160002054919063ffffffff61200c16565b611dc4565b5060019392505050565b600080610e80836112e4565b90506000610eb4670de0b6b3a7640000610ea8610e9b6118e2565b859063ffffffff6120a316565b9063ffffffff61210316565b905081811115610ec657509050610c20565b6000610ed8838363ffffffff61214516565b9050610eff610ef2600954836120a390919063ffffffff16565b849063ffffffff61214516565b9350505050610c20565b60006109f6610f16610c25565b610f2a610f22856112e4565b610f2a6109fc565b9063ffffffff6120a316565b6000610f4f610f43610c25565b610ea884610f2a611740565b9050610f5b3383612187565b610f6481612283565b6005546109439061010090046001600160a01b03163383611d6e565b6006546001600160a01b03163314610fcd576040805162461bcd60e51b815260206004820152600b60248201526a21676f7665726e616e636560a81b604482015290519081900360640190fd5b600955565b60055460ff1690565b60006109f2610fe8611dc0565b84610e658560016000610ff9611dc0565b6001600160a01b03908116825260208083019390935260409182016000908120918c16815292529020549063ffffffff61232916565b600061104161103c61125d565b610b92565b905090565b6006546001600160a01b031681565b6000806000806000611065611c2e565b6001600160a01b031663bf92857c306040518263ffffffff1660e01b815260040180826001600160a01b03166001600160a01b031681526020019150506101006040518083038186803b1580156110bb57600080fd5b505afa1580156110cf573d6000803e3d6000fd5b505050506040513d6101008110156110e657600080fd5b50604081015160809091015190925090506000611109838363ffffffff61232916565b90506111206009548261210390919063ffffffff16565b9550919350915050909192565b600b5481565b60008061113e611897565b9050600061114b84611add565b9050600080611158611055565b5090925090506111746064610ea884606963ffffffff6120a316565b915081831115611187576000915061119a565b611197828463ffffffff61214516565b91505b808210156112505760006111bb82610ea8610e9b828763ffffffff61214516565b90506112436111c8611c12565b610ea8876001600160a01b031663313ce5676040518163ffffffff1660e01b815260040160206040518083038186803b15801561120457600080fd5b505afa158015611218573d6000803e3d6000fd5b505050506040513d602081101561122e57600080fd5b5051849060ff16600a0a63ffffffff6120a316565b9550610c20945050505050565b6000945050505050610c20565b6000600560019054906101000a90046001600160a01b03166001600160a01b03166389d1a0fc6040518163ffffffff1660e01b815260040160206040518083038186803b1580156112ad57600080fd5b505afa1580156112c1573d6000803e3d6000fd5b505050506040513d60208110156112d757600080fd5b5051905090565b600a5481565b6001600160a01b031660009081526020819052604090205490565b600061104161130c610c25565b610ea8670de0b6b3a7640000610f2a611740565b61132a6000612283565b565b60006113386000611133565b5090565b61132a61134833610e74565b610f36565b7324a42fd28c976a61df5d00d0599c34c4f90748c881565b61132a611348336112e4565b60085481565b600080611382611897565b9050600061138e6116d1565b905080156113e6576113dd6113a1611c12565b610ea8846001600160a01b031663313ce5676040518163ffffffff1660e01b815260040160206040518083038186803b15801561120457600080fd5b925050506109db565b6000925050506109db565b6006546001600160a01b0316331461143e576040805162461bcd60e51b815260206004820152600b60248201526a21676f7665726e616e636560a81b604482015290519081900360640190fd5b600780546001600160a01b0319166001600160a01b0392909216919091179055565b60048054604080516020601f60026000196101006001881615020190951694909404938401819004810282018101909252828152606093909290918301828280156109d35780601f106109a8576101008083540402835291602001916109d3565b60007324a42fd28c976a61df5d00d0599c34c4f90748c86001600160a01b031663fca513a86040518163ffffffff1660e01b815260040160206040518083038186803b1580156112ad57600080fd5b600754604080516370a0823160e01b815230600482015290516000926001600160a01b0316916370a08231916024808301926020929190829003018186803b1580156112ad57600080fd5b60006109f2611568611dc0565b84610e65856040518060600160405280602581526020016128916025913960016000611592611dc0565b6001600160a01b03908116825260208083019390935260409182016000908120918d1681529252902054919063ffffffff61200c16565b6007546001600160a01b03163314611616576040805162461bcd60e51b815260206004820152600b60248201526a10b1b7b73a3937b63632b960a91b604482015290519081900360640190fd5b60075460085460055461163c926001600160a01b03610100909204821692911690611d6e565b6000600855565b60006109f2611650611dc0565b8484611eb0565b6006546001600160a01b031633146116a4576040805162461bcd60e51b815260206004820152600b60248201526a21676f7665726e616e636560a81b604482015290519081900360640190fd5b600680546001600160a01b0319166001600160a01b0392909216919091179055565b600080610c3661132c565b6000806000806116df611055565b919450925090506116fc6064610ea885605f63ffffffff6120a316565b9250818311156117345761172a81610ea861171d868663ffffffff61214516565b849063ffffffff6120a316565b93505050506109db565b600093505050506109db565b6000611041600854600560019054906101000a90046001600160a01b03166001600160a01b03166370a08231306040518263ffffffff1660e01b815260040180826001600160a01b03166001600160a01b0316815260200191505060206040518083038186803b1580156117b357600080fd5b505afa1580156117c7573d6000803e3d6000fd5b505050506040513d60208110156117dd57600080fd5b50519063ffffffff61214516565b60006117f5611740565b6005549091506118159061010090046001600160a01b0316333085612383565b600061182e612710610ea885603263ffffffff6120a316565b9050611840838263ffffffff61214516565b600854909350611856908263ffffffff61232916565b6008556000611863610c25565b61186e57508261188d565b61188a83610ea861187d610c25565b879063ffffffff6120a316565b90505b610b8c33826123dd565b60075460408051637572458960e01b815230600482015290516000926001600160a01b0316916375724589916024808301926020929190829003018186803b1580156112ad57600080fd5b60006110416118ef6109fc565b610ea8670de0b6b3a7640000610f2a611510565b600061190d611897565b90506000611919611377565b905080156119a357611929611c2e565b6040805163c858f5f960e01b81526001600160a01b0385811660048301526024820185905260026044830152600760648301529151929091169163c858f5f99160848082019260009290919082900301818387803b15801561198a57600080fd5b505af115801561199e573d6000803e3d6000fd5b505050505b604080516370a0823160e01b815230600482015290516000916001600160a01b038516916370a0823191602480820192602092909190829003018186803b1580156119ed57600080fd5b505afa158015611a01573d6000803e3d6000fd5b505050506040513d6020811015611a1757600080fd5b505190508015611aad57600754611a41906001600160a01b0385811691168363ffffffff611d6e16565b6007546040805163b02bf4b960e01b81523060048201526024810184905290516001600160a01b039092169163b02bf4b99160448082019260009290919082900301818387803b158015611a9457600080fd5b505af1158015611aa8573d6000803e3d6000fd5b505050505b505050565b6001600160a01b03918216600090815260016020908152604080832093909416825291909152205490565b6000611b6d600560019054906101000a90046001600160a01b03166001600160a01b031663313ce5676040518163ffffffff1660e01b815260040160206040518083038186803b158015611b3057600080fd5b505afa158015611b44573d6000803e3d6000fd5b505050506040513d6020811015611b5a57600080fd5b505160ff16600a0a610ea8610e9b61102f565b91506109f6600954610ea8600b54610ea8600a54876120a390919063ffffffff16565b600554604080516370a0823160e01b8152336004820152905161132a9261010090046001600160a01b0316916370a08231916024808301926020929190829003018186803b158015611be157600080fd5b505afa158015611bf5573d6000803e3d6000fd5b505050506040513d6020811015611c0b57600080fd5b50516117eb565b600061104161103c611897565b6007546001600160a01b031681565b60007324a42fd28c976a61df5d00d0599c34c4f90748c86001600160a01b0316630261bf8b6040518163ffffffff1660e01b815260040160206040518083038186803b1580156112ad57600080fd5b60007324a42fd28c976a61df5d00d0599c34c4f90748c86001600160a01b031663ed6ff7606040518163ffffffff1660e01b815260040160206040518083038186803b1580156112ad57600080fd5b6000611cd6611897565b604080516370a0823160e01b815230600482015290519192506000916001600160a01b038416916370a08231916024808301926020929190829003018186803b158015611d2257600080fd5b505afa158015611d36573d6000803e3d6000fd5b505050506040513d6020811015611d4c57600080fd5b505190506109438282610c42565b60055461010090046001600160a01b031681565b604080516001600160a01b038416602482015260448082018490528251808303909101815260649091019091526020810180516001600160e01b031663a9059cbb60e01b179052611aad9084906124cd565b3390565b6001600160a01b038316611e095760405162461bcd60e51b81526004018080602001828103825260248152602001806128436024913960400191505060405180910390fd5b6001600160a01b038216611e4e5760405162461bcd60e51b815260040180806020018281038252602281526020018061276c6022913960400191505060405180910390fd5b6001600160a01b03808416600081815260016020908152604080832094871680845294825291829020859055815185815291517f8c5be1e5ebec7d5bd14f71427d1e84f3dd0314c0f7b2291e5b200ac8c7c3b9259281900390910190a3505050565b6001600160a01b038316611ef55760405162461bcd60e51b815260040180806020018281038252602581526020018061281e6025913960400191505060405180910390fd5b6001600160a01b038216611f3a5760405162461bcd60e51b81526004018080602001828103825260238152602001806127276023913960400191505060405180910390fd5b611f7d8160405180606001604052806026815260200161278e602691396001600160a01b038616600090815260208190526040902054919063ffffffff61200c16565b6001600160a01b038085166000908152602081905260408082209390935590841681522054611fb2908263ffffffff61232916565b6001600160a01b038084166000818152602081815260409182902094909455805185815290519193928716927fddf252ad1be2c89b69c2b068fc378daa952ba7f163c4a11628f55a4df523b3ef92918290030190a3505050565b6000818484111561209b5760405162461bcd60e51b81526004018080602001828103825283818151815260200191508051906020019080838360005b83811015612060578181015183820152602001612048565b50505050905090810190601f16801561208d5780820380516001836020036101000a031916815260200191505b509250505060405180910390fd5b505050900390565b6000826120b2575060006109f6565b828202828482816120bf57fe5b04146120fc5760405162461bcd60e51b81526004018080602001828103825260218152602001806127b46021913960400191505060405180910390fd5b9392505050565b60006120fc83836040518060400160405280601a81526020017f536166654d6174683a206469766973696f6e206279207a65726f000000000000815250612685565b60006120fc83836040518060400160405280601e81526020017f536166654d6174683a207375627472616374696f6e206f766572666c6f77000081525061200c565b6001600160a01b0382166121cc5760405162461bcd60e51b81526004018080602001828103825260218152602001806127fd6021913960400191505060405180910390fd5b61220f8160405180606001604052806022815260200161274a602291396001600160a01b038516600090815260208190526040902054919063ffffffff61200c16565b6001600160a01b03831660009081526020819052604090205560025461223b908263ffffffff61214516565b6002556040805182815290516000916001600160a01b038516917fddf252ad1be2c89b69c2b068fc378daa952ba7f163c4a11628f55a4df523b3ef9181900360200190a35050565b600061228e82611133565b905080156109435761229e611510565b8111156122b0576122ad611510565b90505b8015610943576007546040805163f3fef3a360e01b81523060048201526024810184905290516001600160a01b039092169163f3fef3a39160448082019260009290919082900301818387803b15801561230957600080fd5b505af115801561231d573d6000803e3d6000fd5b50505050610943611ccc565b6000828201838110156120fc576040805162461bcd60e51b815260206004820152601b60248201527f536166654d6174683a206164646974696f6e206f766572666c6f770000000000604482015290519081900360640190fd5b604080516001600160a01b0385811660248301528416604482015260648082018490528251808303909101815260849091019091526020810180516001600160e01b03166323b872dd60e01b179052610b8c9085906124cd565b6001600160a01b038216612438576040805162461bcd60e51b815260206004820152601f60248201527f45524332303a206d696e7420746f20746865207a65726f206164647265737300604482015290519081900360640190fd5b60025461244b908263ffffffff61232916565b6002556001600160a01b038216600090815260208190526040902054612477908263ffffffff61232916565b6001600160a01b0383166000818152602081815260408083209490945583518581529351929391927fddf252ad1be2c89b69c2b068fc378daa952ba7f163c4a11628f55a4df523b3ef9281900390910190a35050565b6124df826001600160a01b03166126ea565b612530576040805162461bcd60e51b815260206004820152601f60248201527f5361666545524332303a2063616c6c20746f206e6f6e2d636f6e747261637400604482015290519081900360640190fd5b60006060836001600160a01b0316836040518082805190602001908083835b6020831061256e5780518252601f19909201916020918201910161254f565b6001836020036101000a0380198251168184511680821785525050505050509050019150506000604051808303816000865af19150503d80600081146125d0576040519150601f19603f3d011682016040523d82523d6000602084013e6125d5565b606091505b50915091508161262c576040805162461bcd60e51b815260206004820181905260248201527f5361666545524332303a206c6f772d6c6576656c2063616c6c206661696c6564604482015290519081900360640190fd5b805115610b8c5780806020019051602081101561264857600080fd5b5051610b8c5760405162461bcd60e51b815260040180806020018281038252602a815260200180612867602a913960400191505060405180910390fd5b600081836126d45760405162461bcd60e51b8152602060048201818152835160248401528351909283926044909101919085019080838360008315612060578181015183820152602001612048565b5060008385816126e057fe5b0495945050505050565b6000813f7fc5d2460186f7233c927e7db2dcc703c0e500b653ca82273b7bfad8045d85a47081811480159061271e57508115155b94935050505056fe45524332303a207472616e7366657220746f20746865207a65726f206164647265737345524332303a206275726e20616d6f756e7420657863656564732062616c616e636545524332303a20617070726f766520746f20746865207a65726f206164647265737345524332303a207472616e7366657220616d6f756e7420657863656564732062616c616e6365536166654d6174683a206d756c7469706c69636174696f6e206f766572666c6f7745524332303a207472616e7366657220616d6f756e74206578636565647320616c6c6f77616e636545524332303a206275726e2066726f6d20746865207a65726f206164647265737345524332303a207472616e736665722066726f6d20746865207a65726f206164647265737345524332303a20617070726f76652066726f6d20746865207a65726f20616464726573735361666545524332303a204552433230206f7065726174696f6e20646964206e6f74207375636365656445524332303a2064656372656173656420616c6c6f77616e63652062656c6f77207a65726fa265627a7a723158205cea22962af1d550ec33eb0e9e9b5b56bdbb545477057c4bb649ab34cc983db064736f6c63430005110032",
  "source": "pragma solidity ^0.5.17;\n\nimport \"@openzeppelinV2/contracts/token/ERC20/IERC20.sol\";\nimport \"@openzeppelinV2/contracts/math/SafeMath.sol\";\nimport \"@openzeppelinV2/contracts/utils/Address.sol\";\nimport \"@openzeppelinV2/contracts/token/ERC20/SafeERC20.sol\";\nimport \"@openzeppelinV2/contracts/token/ERC20/ERC20.sol\";\nimport \"@openzeppelinV2/contracts/token/ERC20/ERC20Detailed.sol\";\nimport \"@openzeppelinV2/contracts/ownership/Ownable.sol\";\n\nimport \"../../interfaces/aave/Aave.sol\";\nimport \"../../interfaces/aave/AaveToken.sol\";\nimport \"../../interfaces/aave/Oracle.sol\";\nimport \"../../interfaces/aave/LendingPoolAddressesProvider.sol\";\nimport \"../../interfaces/yearn/IController.sol\";\n\ncontract yDelegatedVault is ERC20, ERC20Detailed {\n    using SafeERC20 for IERC20;\n    using Address for address;\n    using SafeMath for uint256;\n\n    IERC20 public token;\n\n    address public governance;\n    address public controller;\n    uint256 public insurance;\n    uint256 public healthFactor = 4;\n\n    uint256 public ltv = 65;\n    uint256 public max = 100;\n\n    address public constant aave = address(0x24a42fD28C976A61Df5D00D0599C34c4f90748c8);\n\n    constructor(address _token, address _controller)\n        public\n        ERC20Detailed(\n            string(abi.encodePacked(\"yearn \", ERC20Detailed(_token).name())),\n            string(abi.encodePacked(\"y\", ERC20Detailed(_token).symbol())),\n            ERC20Detailed(_token).decimals()\n        )\n    {\n        token = IERC20(_token);\n        governance = msg.sender;\n        controller = _controller;\n    }\n\n    function debt() public view returns (uint256) {\n        address _reserve = IController(controller).want(address(this));\n        (, uint256 currentBorrowBalance, , , , , , , , ) = Aave(getAave()).getUserReserveData(_reserve, address(this));\n        return currentBorrowBalance;\n    }\n\n    function credit() public view returns (uint256) {\n        return IController(controller).balanceOf(address(this));\n    }\n\n    // % of tokens locked and cannot be withdrawn per user\n    // this is impermanent locked, unless the debt out accrues the strategy\n    function locked() public view returns (uint256) {\n        return credit().mul(1e18).div(debt());\n    }\n\n    function debtShare(address _lp) public view returns (uint256) {\n        return debt().mul(balanceOf(_lp)).mul(totalSupply());\n    }\n\n    function getAave() public view returns (address) {\n        return LendingPoolAddressesProvider(aave).getLendingPool();\n    }\n\n    function getAaveCore() public view returns (address) {\n        return LendingPoolAddressesProvider(aave).getLendingPoolCore();\n    }\n\n    function setHealthFactor(uint256 _hf) external {\n        require(msg.sender == governance, \"!governance\");\n        healthFactor = _hf;\n    }\n\n    function activate() public {\n        Aave(getAave()).setUserUseReserveAsCollateral(underlying(), true);\n    }\n\n    function repay(address reserve, uint256 amount) public {\n        // Required for certain stable coins (USDT for example)\n        IERC20(reserve).approve(address(getAaveCore()), 0);\n        IERC20(reserve).approve(address(getAaveCore()), amount);\n        Aave(getAave()).repay(reserve, amount, address(uint160(address(this))));\n    }\n\n    function repayAll() public {\n        address _reserve = reserve();\n        uint256 _amount = IERC20(_reserve).balanceOf(address(this));\n        repay(_reserve, _amount);\n    }\n\n    // Used to swap any borrowed reserve over the debt limit to liquidate to 'token'\n    function harvest(address reserve, uint256 amount) external {\n        require(msg.sender == controller, \"!controller\");\n        require(reserve != address(token), \"token\");\n        IERC20(reserve).safeTransfer(controller, amount);\n    }\n\n    // Ignore insurance fund for balance calculations\n    function balance() public view returns (uint256) {\n        return token.balanceOf(address(this)).sub(insurance);\n    }\n\n    function setGovernance(address _governance) external {\n        require(msg.sender == governance, \"!governance\");\n        governance = _governance;\n    }\n\n    function setController(address _controller) external {\n        require(msg.sender == governance, \"!governance\");\n        controller = _controller;\n    }\n\n    function getAaveOracle() public view returns (address) {\n        return LendingPoolAddressesProvider(aave).getPriceOracle();\n    }\n\n    function getReservePriceETH(address reserve) public view returns (uint256) {\n        return Oracle(getAaveOracle()).getAssetPrice(reserve);\n    }\n\n    function shouldRebalance() external view returns (bool) {\n        return (over() > 0);\n    }\n\n    function over() public view returns (uint256) {\n        over(0);\n    }\n\n    function getUnderlyingPriceETH(uint256 _amount) public view returns (uint256) {\n        _amount = _amount.mul(getUnderlyingPrice()).div(uint256(10)**ERC20Detailed(address(token)).decimals()); // Calculate the amount we are withdrawing in ETH\n        return _amount.mul(ltv).div(max).div(healthFactor);\n    }\n\n    function over(uint256 _amount) public view returns (uint256) {\n        address _reserve = reserve();\n        uint256 _eth = getUnderlyingPriceETH(_amount);\n        (uint256 _maxSafeETH, uint256 _totalBorrowsETH, ) = maxSafeETH();\n        _maxSafeETH = _maxSafeETH.mul(105).div(100); // 5% buffer so we don't go into a earn/rebalance loop\n        if (_eth > _maxSafeETH) {\n            _maxSafeETH = 0;\n        } else {\n            _maxSafeETH = _maxSafeETH.sub(_eth); // Add the ETH we are withdrawing\n        }\n        if (_maxSafeETH < _totalBorrowsETH) {\n            uint256 _over = _totalBorrowsETH.mul(_totalBorrowsETH.sub(_maxSafeETH)).div(_totalBorrowsETH);\n            _over = _over.mul(uint256(10)**ERC20Detailed(_reserve).decimals()).div(getReservePrice());\n            return _over;\n        } else {\n            return 0;\n        }\n    }\n\n    function _rebalance(uint256 _amount) internal {\n        uint256 _over = over(_amount);\n        if (_over > 0) {\n            if (_over > credit()) {\n                _over = credit();\n            }\n            if (_over > 0) {\n                IController(controller).withdraw(address(this), _over);\n                repayAll();\n            }\n        }\n    }\n\n    function rebalance() external {\n        _rebalance(0);\n    }\n\n    function claimInsurance() external {\n        require(msg.sender == controller, \"!controller\");\n        token.safeTransfer(controller, insurance);\n        insurance = 0;\n    }\n\n    function maxSafeETH()\n        public\n        view\n        returns (\n            uint256 maxBorrowsETH,\n            uint256 totalBorrowsETH,\n            uint256 availableBorrowsETH\n        )\n    {\n        (, , uint256 _totalBorrowsETH, , uint256 _availableBorrowsETH, , , ) = Aave(getAave()).getUserAccountData(address(this));\n        uint256 _maxBorrowETH = (_totalBorrowsETH.add(_availableBorrowsETH));\n        return (_maxBorrowETH.div(healthFactor), _totalBorrowsETH, _availableBorrowsETH);\n    }\n\n    function shouldBorrow() external view returns (bool) {\n        return (availableToBorrowReserve() > 0);\n    }\n\n    function availableToBorrowETH() public view returns (uint256) {\n        (uint256 _maxSafeETH, uint256 _totalBorrowsETH, uint256 _availableBorrowsETH) = maxSafeETH();\n        _maxSafeETH = _maxSafeETH.mul(95).div(100); // 5% buffer so we don't go into a earn/rebalance loop\n        if (_maxSafeETH > _totalBorrowsETH) {\n            return _availableBorrowsETH.mul(_maxSafeETH.sub(_totalBorrowsETH)).div(_availableBorrowsETH);\n        } else {\n            return 0;\n        }\n    }\n\n    function availableToBorrowReserve() public view returns (uint256) {\n        address _reserve = reserve();\n        uint256 _available = availableToBorrowETH();\n        if (_available > 0) {\n            return _available.mul(uint256(10)**ERC20Detailed(_reserve).decimals()).div(getReservePrice());\n        } else {\n            return 0;\n        }\n    }\n\n    function getReservePrice() public view returns (uint256) {\n        return getReservePriceETH(reserve());\n    }\n\n    function getUnderlyingPrice() public view returns (uint256) {\n        return getReservePriceETH(underlying());\n    }\n\n    function earn() external {\n        address _reserve = reserve();\n        uint256 _borrow = availableToBorrowReserve();\n        if (_borrow > 0) {\n            Aave(getAave()).borrow(_reserve, _borrow, 2, 7);\n        }\n        //rebalance here\n        uint256 _balance = IERC20(_reserve).balanceOf(address(this));\n        if (_balance > 0) {\n            IERC20(_reserve).safeTransfer(controller, _balance);\n            IController(controller).earn(address(this), _balance);\n        }\n    }\n\n    function depositAll() external {\n        deposit(token.balanceOf(msg.sender));\n    }\n\n    function deposit(uint256 _amount) public {\n        uint256 _pool = balance();\n        token.safeTransferFrom(msg.sender, address(this), _amount);\n\n        // 0.5% of deposits go into an insurance fund incase of negative profits to protect withdrawals\n        // At a 4 health factor, this is a -2% position\n        uint256 _insurance = _amount.mul(50).div(10000);\n        _amount = _amount.sub(_insurance);\n        insurance = insurance.add(_insurance);\n\n        //Controller can claim insurance to liquidate to cover interest\n\n        uint256 shares = 0;\n        if (totalSupply() == 0) {\n            shares = _amount;\n        } else {\n            shares = (_amount.mul(totalSupply())).div(_pool);\n        }\n        _mint(msg.sender, shares);\n    }\n\n    function reserve() public view returns (address) {\n        return IController(controller).want(address(this));\n    }\n\n    function underlying() public view returns (address) {\n        return AaveToken(address(token)).underlyingAssetAddress();\n    }\n\n    function withdrawAll() public {\n        withdraw(balanceOf(msg.sender));\n    }\n\n    // Calculates in impermanent lock due to debt\n    function maxWithdrawal(address account) public view returns (uint256) {\n        uint256 _balance = balanceOf(account);\n        uint256 _safeWithdraw = _balance.mul(locked()).div(1e18);\n        if (_safeWithdraw > _balance) {\n            return _balance;\n        } else {\n            uint256 _diff = _balance.sub(_safeWithdraw);\n            return _balance.sub(_diff.mul(healthFactor)); // technically 150%, not 200%, but adding buffer\n        }\n    }\n\n    function safeWithdraw() external {\n        withdraw(maxWithdrawal(msg.sender));\n    }\n\n    // No rebalance implementation for lower fees and faster swaps\n    function withdraw(uint256 _shares) public {\n        uint256 r = (balance().mul(_shares)).div(totalSupply());\n        _burn(msg.sender, _shares);\n        _rebalance(r);\n        token.safeTransfer(msg.sender, r);\n    }\n\n    function getPricePerFullShare() external view returns (uint256) {\n        return balance().mul(1e18).div(totalSupply());\n    }\n}\n",
  "sourcePath": "/Users/sbacha/yearn-protocol-nodejs/contracts/vaults/yDelegatedVault.sol",
  "compiler": {
    "name": "solc",
    "version": "0.5.17+commit.d19bba13.Emscripten.clang"
  },
  "schemaVersion": "3.3.4",
  "updatedAt": "2021-02-12T05:40:28.387Z",
  "devdoc": {
    "methods": {
      "allowance(address,address)": {
        "details": "See {IERC20-allowance}."
      },
      "approve(address,uint256)": {
        "details": "See {IERC20-approve}.     * Requirements:     * - `spender` cannot be the zero address."
      },
      "balanceOf(address)": {
        "details": "See {IERC20-balanceOf}."
      },
      "decimals()": {
        "details": "Returns the number of decimals used to get its user representation. For example, if `decimals` equals `2`, a balance of `505` tokens should be displayed to a user as `5,05` (`505 / 10 ** 2`).     * Tokens usually opt for a value of 18, imitating the relationship between Ether and Wei.     * NOTE: This information is only used for _display_ purposes: it in no way affects any of the arithmetic of the contract, including {IERC20-balanceOf} and {IERC20-transfer}."
      },
      "decreaseAllowance(address,uint256)": {
        "details": "Atomically decreases the allowance granted to `spender` by the caller.     * This is an alternative to {approve} that can be used as a mitigation for problems described in {IERC20-approve}.     * Emits an {Approval} event indicating the updated allowance.     * Requirements:     * - `spender` cannot be the zero address. - `spender` must have allowance for the caller of at least `subtractedValue`."
      },
      "increaseAllowance(address,uint256)": {
        "details": "Atomically increases the allowance granted to `spender` by the caller.     * This is an alternative to {approve} that can be used as a mitigation for problems described in {IERC20-approve}.     * Emits an {Approval} event indicating the updated allowance.     * Requirements:     * - `spender` cannot be the zero address."
      },
      "name()": {
        "details": "Returns the name of the token."
      },
      "symbol()": {
        "details": "Returns the symbol of the token, usually a shorter version of the name."
      },
      "totalSupply()": {
        "details": "See {IERC20-totalSupply}."
      },
      "transfer(address,uint256)": {
        "details": "See {IERC20-transfer}.     * Requirements:     * - `recipient` cannot be the zero address. - the caller must have a balance of at least `amount`."
      },
      "transferFrom(address,address,uint256)": {
        "details": "See {IERC20-transferFrom}.     * Emits an {Approval} event indicating the updated allowance. This is not required by the EIP. See the note at the beginning of {ERC20};     * Requirements: - `sender` and `recipient` cannot be the zero address. - `sender` must have a balance of at least `amount`. - the caller must have allowance for `sender`'s tokens of at least `amount`."
      }
    }
  },
  "userdoc": {
    "methods": {}
  }
}