{
  "contractName": "YRegistry",
  "abi": [
    {
      "inputs": [
        {
          "internalType": "address",
          "name": "_governance",
          "type": "address"
        }
      ],
      "payable": false,
      "stateMutability": "nonpayable",
      "type": "constructor"
    },
    {
      "constant": true,
      "inputs": [],
      "name": "governance",
      "outputs": [
        {
          "internalType": "address",
          "name": "",
          "type": "address"
        }
      ],
      "payable": false,
      "stateMutability": "view",
      "type": "function"
    },
    {
      "constant": true,
      "inputs": [
        {
          "internalType": "address",
          "name": "",
          "type": "address"
        }
      ],
      "name": "isDelegatedVault",
      "outputs": [
        {
          "internalType": "bool",
          "name": "",
          "type": "bool"
        }
      ],
      "payable": false,
      "stateMutability": "view",
      "type": "function"
    },
    {
      "constant": true,
      "inputs": [],
      "name": "pendingGovernance",
      "outputs": [
        {
          "internalType": "address",
          "name": "",
          "type": "address"
        }
      ],
      "payable": false,
      "stateMutability": "view",
      "type": "function"
    },
    {
      "constant": true,
      "inputs": [],
      "name": "getName",
      "outputs": [
        {
          "internalType": "string",
          "name": "",
          "type": "string"
        }
      ],
      "payable": false,
      "stateMutability": "pure",
      "type": "function"
    },
    {
      "constant": false,
      "inputs": [
        {
          "internalType": "address",
          "name": "_vault",
          "type": "address"
        }
      ],
      "name": "addVault",
      "outputs": [],
      "payable": false,
      "stateMutability": "nonpayable",
      "type": "function"
    },
    {
      "constant": false,
      "inputs": [
        {
          "internalType": "address",
          "name": "_vault",
          "type": "address"
        }
      ],
      "name": "addWrappedVault",
      "outputs": [],
      "payable": false,
      "stateMutability": "nonpayable",
      "type": "function"
    },
    {
      "constant": false,
      "inputs": [
        {
          "internalType": "address",
          "name": "_vault",
          "type": "address"
        }
      ],
      "name": "addDelegatedVault",
      "outputs": [],
      "payable": false,
      "stateMutability": "nonpayable",
      "type": "function"
    },
    {
      "constant": false,
      "inputs": [
        {
          "internalType": "address",
          "name": "_vault",
          "type": "address"
        }
      ],
      "name": "removeVault",
      "outputs": [],
      "payable": false,
      "stateMutability": "nonpayable",
      "type": "function"
    },
    {
      "constant": true,
      "inputs": [
        {
          "internalType": "uint256",
          "name": "index",
          "type": "uint256"
        }
      ],
      "name": "getVault",
      "outputs": [
        {
          "internalType": "address",
          "name": "vault",
          "type": "address"
        }
      ],
      "payable": false,
      "stateMutability": "view",
      "type": "function"
    },
    {
      "constant": true,
      "inputs": [],
      "name": "getVaultsLength",
      "outputs": [
        {
          "internalType": "uint256",
          "name": "",
          "type": "uint256"
        }
      ],
      "payable": false,
      "stateMutability": "view",
      "type": "function"
    },
    {
      "constant": true,
      "inputs": [],
      "name": "getVaults",
      "outputs": [
        {
          "internalType": "address[]",
          "name": "",
          "type": "address[]"
        }
      ],
      "payable": false,
      "stateMutability": "view",
      "type": "function"
    },
    {
      "constant": true,
      "inputs": [
        {
          "internalType": "address",
          "name": "_vault",
          "type": "address"
        }
      ],
      "name": "getVaultInfo",
      "outputs": [
        {
          "internalType": "address",
          "name": "controller",
          "type": "address"
        },
        {
          "internalType": "address",
          "name": "token",
          "type": "address"
        },
        {
          "internalType": "address",
          "name": "strategy",
          "type": "address"
        },
        {
          "internalType": "bool",
          "name": "isWrapped",
          "type": "bool"
        },
        {
          "internalType": "bool",
          "name": "isDelegated",
          "type": "bool"
        }
      ],
      "payable": false,
      "stateMutability": "view",
      "type": "function"
    },
    {
      "constant": true,
      "inputs": [],
      "name": "getVaultsInfo",
      "outputs": [
        {
          "internalType": "address[]",
          "name": "vaultsAddresses",
          "type": "address[]"
        },
        {
          "internalType": "address[]",
          "name": "controllerArray",
          "type": "address[]"
        },
        {
          "internalType": "address[]",
          "name": "tokenArray",
          "type": "address[]"
        },
        {
          "internalType": "address[]",
          "name": "strategyArray",
          "type": "address[]"
        },
        {
          "internalType": "bool[]",
          "name": "isWrappedArray",
          "type": "bool[]"
        },
        {
          "internalType": "bool[]",
          "name": "isDelegatedArray",
          "type": "bool[]"
        }
      ],
      "payable": false,
      "stateMutability": "view",
      "type": "function"
    },
    {
      "constant": false,
      "inputs": [
        {
          "internalType": "address",
          "name": "_pendingGovernance",
          "type": "address"
        }
      ],
      "name": "setPendingGovernance",
      "outputs": [],
      "payable": false,
      "stateMutability": "nonpayable",
      "type": "function"
    },
    {
      "constant": false,
      "inputs": [],
      "name": "acceptGovernance",
      "outputs": [],
      "payable": false,
      "stateMutability": "nonpayable",
      "type": "function"
    }
  ],
  "bytecode": "0x608060405234801561001057600080fd5b5060405161176b38038061176b8339818101604052602081101561003357600080fd5b50516001600160a01b038116610085576040805162461bcd60e51b81526020600482015260126024820152714d697373696e6720476f7665726e616e636560701b604482015290519081900360640190fd5b600080546001600160a01b039092166001600160a01b03199092169190911790556116b6806100b56000396000f3fe608060405234801561001057600080fd5b50600436106100f55760003560e01c806344d00f821161009757806390229af71161006657806390229af71461049e5780639403b63414610500578063ceb68c231461051d578063f39c38a014610543576100f5565b806344d00f82146102475780635aa6e6751461029f57806361de8389146102c35780636b708788146102e9576100f5565b8063238efcbc116100d3578063238efcbc146101c5578063256b5a02146101cd57806344064be7146101f357806344b19dfc1461022d576100f5565b80630abb6035146100fa57806317d7de7c146101225780632019c75a1461019f575b600080fd5b6101206004803603602081101561011057600080fd5b50356001600160a01b031661054b565b005b61012a6105b6565b6040805160208082528351818301528351919283929083019185019080838360005b8381101561016457818101518382015260200161014c565b50505050905090810190601f1680156101915780820380516001836020036101000a031916815260200191505b509250505060405180910390f35b610120600480360360208110156101b557600080fd5b50356001600160a01b03166105d9565b610120610652565b610120600480360360208110156101e357600080fd5b50356001600160a01b03166106af565b6102196004803603602081101561020957600080fd5b50356001600160a01b0316610701565b604080519115158252519081900360200190f35b610235610716565b60408051918252519081900360200190f35b61024f610727565b60408051602080825283518183015283519192839290830191858101910280838360005b8381101561028b578181015183820152602001610273565b505050509050019250505060405180910390f35b6102a76107b7565b604080516001600160a01b039092168252519081900360200190f35b610120600480360360208110156102d957600080fd5b50356001600160a01b03166107c6565b6102f16108aa565b6040518080602001806020018060200180602001806020018060200187810387528d818151815260200191508051906020019060200280838360005b8381101561034557818101518382015260200161032d565b5050505090500187810386528c818151815260200191508051906020019060200280838360005b8381101561038457818101518382015260200161036c565b5050505090500187810385528b818151815260200191508051906020019060200280838360005b838110156103c35781810151838201526020016103ab565b5050505090500187810384528a818151815260200191508051906020019060200280838360005b838110156104025781810151838201526020016103ea565b50505050905001878103835289818151815260200191508051906020019060200280838360005b83811015610441578181015183820152602001610429565b50505050905001878103825288818151815260200191508051906020019060200280838360005b83811015610480578181015183820152602001610468565b505050509050019c5050505050505050505050505060405180910390f35b6104c4600480360360208110156104b457600080fd5b50356001600160a01b0316610b46565b604080516001600160a01b0396871681529486166020860152929094168383015215156060830152911515608082015290519081900360a00190f35b6102a76004803603602081101561051657600080fd5b5035610b69565b6101206004803603602081101561053357600080fd5b50356001600160a01b0316610b82565b6102a7610bdc565b6000546001600160a01b031633146105945760405162461bcd60e51b815260040180806020018281038252602781526020018061165b6027913960400191505060405180910390fd5b600180546001600160a01b0319166001600160a01b0392909216919091179055565b60408051808201909152600981526859526567697374727960b81b602082015290565b6000546001600160a01b031633146106225760405162461bcd60e51b815260040180806020018281038252602781526020018061165b6027913960400191505060405180910390fd5b61062b81610beb565b61063481610cb9565b600061063f82610cdd565b50505050905061064e81611304565b5050565b6001546001600160a01b0316331461069b5760405162461bcd60e51b815260040180806020018281038252602e815260200180611606602e913960400191505060405180910390fd5b600080546001600160a01b03191633179055565b6000546001600160a01b031633146106f85760405162461bcd60e51b815260040180806020018281038252602781526020018061165b6027913960400191505060405180910390fd5b61063481610beb565b60076020526000908152604090205460ff1681565b6000610722600261132d565b905090565b606080610734600261132d565b60405190808252806020026020018201604052801561075d578160200160208202803883390190505b50905060005b61076d600261132d565b8110156107b15761078560028263ffffffff61133416565b82828151811061079157fe5b6001600160a01b0390921660209283029190910190910152600101610763565b50905090565b6000546001600160a01b031681565b6000546001600160a01b0316331461080f5760405162461bcd60e51b815260040180806020018281038252602781526020018061165b6027913960400191505060405180910390fd5b61081881610beb565b6000816001600160a01b031663fbfa77cf6040518163ffffffff1660e01b815260040160206040518083038186803b15801561085357600080fd5b505afa158015610867573d6000803e3d6000fd5b505050506040513d602081101561087d57600080fd5b5051905061088b8282611361565b600061089683610cdd565b5050505090506108a581611304565b505050565b6060806060806060806108bd600261132d565b6040519080825280602002602001820160405280156108e6578160200160208202803883390190505b5095506108f3600261132d565b60405190808252806020026020018201604052801561091c578160200160208202803883390190505b509450610929600261132d565b604051908082528060200260200182016040528015610952578160200160208202803883390190505b50935061095f600261132d565b604051908082528060200260200182016040528015610988578160200160208202803883390190505b509250610995600261132d565b6040519080825280602002602001820160405280156109be578160200160208202803883390190505b5091506109cb600261132d565b6040519080825280602002602001820160405280156109f4578160200160208202803883390190505b50905060005b610a04600261132d565b811015610b3d57610a1c60028263ffffffff61133416565b878281518110610a2857fe5b6001600160a01b0390921660209283029190910190910152600080808080610a5f610a5a60028863ffffffff61133416565b610cdd565b94509450945094509450848b8781518110610a7657fe5b60200260200101906001600160a01b031690816001600160a01b031681525050838a8781518110610aa357fe5b60200260200101906001600160a01b031690816001600160a01b03168152505082898781518110610ad057fe5b60200260200101906001600160a01b031690816001600160a01b03168152505081888781518110610afd57fe5b60200260200101901515908115158152505080878781518110610b1c57fe5b911515602092830291909101909101525050600190930192506109fa915050565b50909192939495565b6000806000806000610b5786610cdd565b939a9299509097509550909350915050565b6000610b7c60028363ffffffff61133416565b92915050565b6000546001600160a01b03163314610bcb5760405162461bcd60e51b815260040180806020018281038252602781526020018061165b6027913960400191505060405180910390fd5b61064e60028263ffffffff6113f216565b6001546001600160a01b031681565b610bfd816001600160a01b0316611505565b610c4e576040805162461bcd60e51b815260206004820152601760248201527f5661756c74206973206e6f74206120636f6e7472616374000000000000000000604482015290519081900360640190fd5b610c5f60028263ffffffff61154116565b15610ca8576040805162461bcd60e51b81526020600482015260146024820152735661756c7420616c72656164792065786973747360601b604482015290519081900360640190fd5b61064e60028263ffffffff61155f16565b6001600160a01b03166000908152600760205260409020805460ff19166001179055565b6001600160a01b03808216600090815260066020526040812054909182918291161580159082908690610d2757506001600160a01b03808716600090815260066020526040902054165b6001600160a01b03811660008181526007602090815260409182902054825163f77c479160e01b8152925160ff909116955063f77c4791926004808201939291829003018186803b158015610d7b57600080fd5b505afa158015610d8f573d6000803e3d6000fd5b505050506040513d6020811015610da557600080fd5b50519550828015610e2d575060006001600160a01b0316816001600160a01b0316636f307dc36040518163ffffffff1660e01b815260040160206040518083038186803b158015610df557600080fd5b505afa158015610e09573d6000803e3d6000fd5b505050506040513d6020811015610e1f57600080fd5b50516001600160a01b031614155b15610e9e57866001600160a01b031663fc0c546a6040518163ffffffff1660e01b815260040160206040518083038186803b158015610e6b57600080fd5b505afa158015610e7f573d6000803e3d6000fd5b505050506040513d6020811015610e9557600080fd5b50519450610f06565b806001600160a01b031663fc0c546a6040518163ffffffff1660e01b815260040160206040518083038186803b158015610ed757600080fd5b505afa158015610eeb573d6000803e3d6000fd5b505050506040513d6020811015610f0157600080fd5b505194505b8115610f9557856001600160a01b03166339ebf823826040518263ffffffff1660e01b815260040180826001600160a01b03166001600160a01b0316815260200191505060206040518083038186803b158015610f6257600080fd5b505afa158015610f76573d6000803e3d6000fd5b505050506040513d6020811015610f8c57600080fd5b5051935061101a565b856001600160a01b03166339ebf823866040518263ffffffff1660e01b815260040180826001600160a01b03166001600160a01b0316815260200191505060206040518083038186803b158015610feb57600080fd5b505afa158015610fff573d6000803e3d6000fd5b505050506040513d602081101561101557600080fd5b505193505b600082156110ab57866001600160a01b031663a622ee7c866040518263ffffffff1660e01b815260040180826001600160a01b03166001600160a01b0316815260200191505060206040518083038186803b15801561107857600080fd5b505afa15801561108c573d6000803e3d6000fd5b505050506040513d60208110156110a257600080fd5b50519050611130565b866001600160a01b031663a622ee7c876040518263ffffffff1660e01b815260040180826001600160a01b03166001600160a01b0316815260200191505060206040518083038186803b15801561110157600080fd5b505afa158015611115573d6000803e3d6000fd5b505050506040513d602081101561112b57600080fd5b505190505b816001600160a01b0316816001600160a01b0316146111805760405162461bcd60e51b81526004018080602001828103825260278152602001806116346027913960400191505060405180910390fd5b831561123f576000826001600160a01b0316636f307dc36040518163ffffffff1660e01b815260040160206040518083038186803b1580156111c157600080fd5b505afa1580156111d5573d6000803e3d6000fd5b505050506040513d60208110156111eb57600080fd5b505190506001600160a01b03808216908816146112395760405162461bcd60e51b81526004018080602001828103825260298152602001806115dd6029913960400191505060405180910390fd5b506112f9565b826112f9576000856001600160a01b0316631f1fcd516040518163ffffffff1660e01b815260040160206040518083038186803b15801561127f57600080fd5b505afa158015611293573d6000803e3d6000fd5b505050506040513d60208110156112a957600080fd5b505190506001600160a01b03878116908216146112f75760405162461bcd60e51b81526004018080602001828103825260258152602001806115b86025913960400191505060405180910390fd5b505b505091939590929450565b61131560048263ffffffff61154116565b61132a5761064e60048263ffffffff61155f16565b50565b6001015490565b600082600101828154811061134557fe5b6000918252602090912001546001600160a01b03169392505050565b611373816001600160a01b0316611505565b6113c4576040805162461bcd60e51b815260206004820152601e60248201527f577261707065645661756c74206973206e6f74206120636f6e74726163740000604482015290519081900360640190fd5b6001600160a01b03918216600090815260066020526040902080546001600160a01b03191691909216179055565b60006113fe8383611541565b156114fd576001600160a01b038216600090815260208490526040902054600184015460001991820191018082146114a957600085600101828154811061144157fe5b6000918252602090912001546001870180546001600160a01b03909216925082918590811061146c57fe5b600091825260208083209190910180546001600160a01b0319166001600160a01b0394851617905592909116815290869052604090206001830190555b6001600160a01b038416600090815260208690526040812055600185018054806114cf57fe5b600082815260209020810160001990810180546001600160a01b03191690550190555060019150610b7c9050565b506000610b7c565b6000813f7fc5d2460186f7233c927e7db2dcc703c0e500b653ca82273b7bfad8045d85a47081811480159061153957508115155b949350505050565b6001600160a01b031660009081526020919091526040902054151590565b600061156b8383611541565b6114fd5750600182810180548083018083556000928352602080842090920180546001600160a01b0319166001600160a01b038716908117909155835290859052604090912055610b7c56fe537472617465677920746f6b656e206164647265737320646f6573206e6f74206d61746368577261707065645661756c7420746f6b656e206164647265737320646f6573206e6f74206d617463684f6e6c792070656e64696e67476f7665726e616e63652063616e2063616c6c20746869732066756e6374696f6e2e436f6e74726f6c6c6572207661756c74206164647265737320646f6573206e6f74206d617463684f6e6c7920676f7665726e616e63652063616e2063616c6c20746869732066756e6374696f6e2ea265627a7a72315820fd7fa11d61a8d92cb803e5227bc53d90225d9ce74022ec1740dce97c4a3a463864736f6c63430005110032",
  "source": "// SPDX-License-Identifier: MIT\n\npragma solidity ^0.5.17;\n\nimport \"@openzeppelinV2/contracts/math/SafeMath.sol\";\nimport \"@openzeppelinV2/contracts/utils/Address.sol\";\nimport \"@openzeppelinV2/contracts/utils/EnumerableSet.sol\";\n\nimport \"../../interfaces/yearn/IController.sol\";\nimport \"../../interfaces/yearn/IStrategy.sol\";\nimport \"../../interfaces/yearn/IVault.sol\";\nimport \"../../interfaces/yearn/IWrappedVault.sol\";\n\ncontract YRegistry {\n    using Address for address;\n    using SafeMath for uint256;\n    using EnumerableSet for EnumerableSet.AddressSet;\n\n    address public governance;\n    address public pendingGovernance;\n\n    EnumerableSet.AddressSet private vaults;\n    EnumerableSet.AddressSet private controllers;\n\n    mapping(address => address) private wrappedVaults;\n\n    mapping(address => bool) public isDelegatedVault;\n\n    constructor(address _governance) public {\n        require(_governance != address(0), \"Missing Governance\");\n        governance = _governance;\n    }\n\n    function getName() external pure returns (string memory) {\n        return \"YRegistry\";\n    }\n\n    function addVault(address _vault) public onlyGovernance {\n        setVault(_vault);\n\n        (address controller, , , , ) = getVaultData(_vault);\n\n        setController(controller);\n    }\n\n    function addWrappedVault(address _vault) public onlyGovernance {\n        setVault(_vault);\n        address wrappedVault = IWrappedVault(_vault).vault();\n        setWrappedVault(_vault, wrappedVault);\n\n        (address controller, , , , ) = getVaultData(_vault);\n\n        // Adds to controllers array\n        setController(controller);\n        // TODO Add and track tokens and strategies? [historical]\n        // (current ones can be obtained via getVaults + getVaultInfo)\n    }\n\n    function addDelegatedVault(address _vault) public onlyGovernance {\n        setVault(_vault);\n        setDelegatedVault(_vault);\n\n        (address controller, , , , ) = getVaultData(_vault);\n\n        // Adds to controllers array\n        setController(controller);\n        // TODO Add and track tokens and strategies? [historical]\n        // (current ones can be obtained via getVaults + getVaultInfo)\n    }\n\n    function setVault(address _vault) internal {\n        require(_vault.isContract(), \"Vault is not a contract\");\n        // Checks if vault is already on the array\n        require(!vaults.contains(_vault), \"Vault already exists\");\n        // Adds unique _vault to vaults array\n        vaults.add(_vault);\n    }\n\n    function setWrappedVault(address _vault, address _wrappedVault) internal {\n        require(_wrappedVault.isContract(), \"WrappedVault is not a contract\");\n        wrappedVaults[_vault] = _wrappedVault;\n    }\n\n    function setDelegatedVault(address _vault) internal {\n        // TODO Is there any way to check if a vault is delegated\n        isDelegatedVault[_vault] = true;\n    }\n\n    function setController(address _controller) internal {\n        // Adds Controller to controllers array\n        if (!controllers.contains(_controller)) {\n            controllers.add(_controller);\n        }\n    }\n\n    function removeVault(address _vault) public onlyGovernance {\n        vaults.remove(_vault);\n    }\n\n    function getVaultData(address _vault)\n        internal\n        view\n        returns (\n            address controller,\n            address token,\n            address strategy,\n            bool isWrapped,\n            bool isDelegated\n        )\n    {\n        address vault = _vault;\n        isWrapped = wrappedVaults[_vault] != address(0);\n        if (isWrapped) {\n            vault = wrappedVaults[_vault];\n        }\n        isDelegated = isDelegatedVault[vault];\n\n        // Get values from controller\n        controller = IVault(vault).controller();\n        if (isWrapped && IVault(vault).underlying() != address(0)) {\n            token = IVault(_vault).token(); // Use non-wrapped vault\n        } else {\n            token = IVault(vault).token();\n        }\n\n        if (isDelegated) {\n            strategy = IController(controller).strategies(vault);\n        } else {\n            strategy = IController(controller).strategies(token);\n        }\n\n        // Check if vault is set on controller for token\n        address controllerVault = address(0);\n        if (isDelegated) {\n            controllerVault = IController(controller).vaults(strategy);\n        } else {\n            controllerVault = IController(controller).vaults(token);\n        }\n        require(controllerVault == vault, \"Controller vault address does not match\"); // Might happen on Proxy Vaults\n\n        // Check if strategy has the same token as vault\n        if (isWrapped) {\n            address underlying = IVault(vault).underlying();\n            require(underlying == token, \"WrappedVault token address does not match\"); // Might happen?\n        } else if (!isDelegated) {\n            address strategyToken = IStrategy(strategy).want();\n            require(token == strategyToken, \"Strategy token address does not match\"); // Might happen?\n        }\n\n        return (controller, token, strategy, isWrapped, isDelegated);\n    }\n\n    // Vaults getters\n    function getVault(uint256 index) external view returns (address vault) {\n        return vaults.get(index);\n    }\n\n    function getVaultsLength() external view returns (uint256) {\n        return vaults.length();\n    }\n\n    function getVaults() external view returns (address[] memory) {\n        address[] memory vaultsArray = new address[](vaults.length());\n        for (uint256 i = 0; i < vaults.length(); i++) {\n            vaultsArray[i] = vaults.get(i);\n        }\n        return vaultsArray;\n    }\n\n    function getVaultInfo(address _vault)\n        external\n        view\n        returns (\n            address controller,\n            address token,\n            address strategy,\n            bool isWrapped,\n            bool isDelegated\n        )\n    {\n        (controller, token, strategy, isWrapped, isDelegated) = getVaultData(_vault);\n        return (controller, token, strategy, isWrapped, isDelegated);\n    }\n\n    function getVaultsInfo()\n        external\n        view\n        returns (\n            address[] memory vaultsAddresses,\n            address[] memory controllerArray,\n            address[] memory tokenArray,\n            address[] memory strategyArray,\n            bool[] memory isWrappedArray,\n            bool[] memory isDelegatedArray\n        )\n    {\n        vaultsAddresses = new address[](vaults.length());\n        controllerArray = new address[](vaults.length());\n        tokenArray = new address[](vaults.length());\n        strategyArray = new address[](vaults.length());\n        isWrappedArray = new bool[](vaults.length());\n        isDelegatedArray = new bool[](vaults.length());\n\n        for (uint256 i = 0; i < vaults.length(); i++) {\n            vaultsAddresses[i] = vaults.get(i);\n            (address _controller, address _token, address _strategy, bool _isWrapped, bool _isDelegated) = getVaultData(vaults.get(i));\n            controllerArray[i] = _controller;\n            tokenArray[i] = _token;\n            strategyArray[i] = _strategy;\n            isWrappedArray[i] = _isWrapped;\n            isDelegatedArray[i] = _isDelegated;\n        }\n    }\n\n    // Governance setters\n    function setPendingGovernance(address _pendingGovernance) external onlyGovernance {\n        pendingGovernance = _pendingGovernance;\n    }\n\n    function acceptGovernance() external onlyPendingGovernance {\n        governance = msg.sender;\n    }\n\n    modifier onlyGovernance {\n        require(msg.sender == governance, \"Only governance can call this function.\");\n        _;\n    }\n    modifier onlyPendingGovernance {\n        require(msg.sender == pendingGovernance, \"Only pendingGovernance can call this function.\");\n        _;\n    }\n}\n",
  "sourcePath": "/Users/sbacha/yearn-protocol-nodejs/contracts/registries/YRegistry.sol",
  "compiler": {
    "name": "solc",
    "version": "0.5.17+commit.d19bba13.Emscripten.clang"
  },
  "schemaVersion": "3.3.4",
  "updatedAt": "2021-02-12T05:40:27.995Z",
  "devdoc": {
    "methods": {}
  },
  "userdoc": {
    "methods": {}
  }
}