{
  "contractName": "YRegistry",
  "abi": [
    {
      "inputs": [
        {
          "internalType": "address",
          "name": "_governance",
          "type": "address"
        }
      ],
      "payable": false,
      "stateMutability": "nonpayable",
      "type": "constructor"
    },
    {
      "constant": true,
      "inputs": [],
      "name": "governance",
      "outputs": [
        {
          "internalType": "address",
          "name": "",
          "type": "address"
        }
      ],
      "payable": false,
      "stateMutability": "view",
      "type": "function"
    },
    {
      "constant": true,
      "inputs": [
        {
          "internalType": "address",
          "name": "",
          "type": "address"
        }
      ],
      "name": "isDelegatedVault",
      "outputs": [
        {
          "internalType": "bool",
          "name": "",
          "type": "bool"
        }
      ],
      "payable": false,
      "stateMutability": "view",
      "type": "function"
    },
    {
      "constant": true,
      "inputs": [],
      "name": "pendingGovernance",
      "outputs": [
        {
          "internalType": "address",
          "name": "",
          "type": "address"
        }
      ],
      "payable": false,
      "stateMutability": "view",
      "type": "function"
    },
    {
      "constant": true,
      "inputs": [],
      "name": "getName",
      "outputs": [
        {
          "internalType": "string",
          "name": "",
          "type": "string"
        }
      ],
      "payable": false,
      "stateMutability": "pure",
      "type": "function"
    },
    {
      "constant": false,
      "inputs": [
        {
          "internalType": "address",
          "name": "_vault",
          "type": "address"
        }
      ],
      "name": "addVault",
      "outputs": [],
      "payable": false,
      "stateMutability": "nonpayable",
      "type": "function"
    },
    {
      "constant": false,
      "inputs": [
        {
          "internalType": "address",
          "name": "_vault",
          "type": "address"
        }
      ],
      "name": "addWrappedVault",
      "outputs": [],
      "payable": false,
      "stateMutability": "nonpayable",
      "type": "function"
    },
    {
      "constant": false,
      "inputs": [
        {
          "internalType": "address",
          "name": "_vault",
          "type": "address"
        }
      ],
      "name": "addDelegatedVault",
      "outputs": [],
      "payable": false,
      "stateMutability": "nonpayable",
      "type": "function"
    },
    {
      "constant": true,
      "inputs": [
        {
          "internalType": "uint256",
          "name": "index",
          "type": "uint256"
        }
      ],
      "name": "getVault",
      "outputs": [
        {
          "internalType": "address",
          "name": "vault",
          "type": "address"
        }
      ],
      "payable": false,
      "stateMutability": "view",
      "type": "function"
    },
    {
      "constant": true,
      "inputs": [],
      "name": "getVaultsLength",
      "outputs": [
        {
          "internalType": "uint256",
          "name": "",
          "type": "uint256"
        }
      ],
      "payable": false,
      "stateMutability": "view",
      "type": "function"
    },
    {
      "constant": true,
      "inputs": [],
      "name": "getVaults",
      "outputs": [
        {
          "internalType": "address[]",
          "name": "",
          "type": "address[]"
        }
      ],
      "payable": false,
      "stateMutability": "view",
      "type": "function"
    },
    {
      "constant": true,
      "inputs": [
        {
          "internalType": "address",
          "name": "_vault",
          "type": "address"
        }
      ],
      "name": "getVaultInfo",
      "outputs": [
        {
          "internalType": "address",
          "name": "controller",
          "type": "address"
        },
        {
          "internalType": "address",
          "name": "token",
          "type": "address"
        },
        {
          "internalType": "address",
          "name": "strategy",
          "type": "address"
        },
        {
          "internalType": "bool",
          "name": "isWrapped",
          "type": "bool"
        },
        {
          "internalType": "bool",
          "name": "isDelegated",
          "type": "bool"
        }
      ],
      "payable": false,
      "stateMutability": "view",
      "type": "function"
    },
    {
      "constant": true,
      "inputs": [],
      "name": "getVaultsInfo",
      "outputs": [
        {
          "internalType": "address[]",
          "name": "controllerArray",
          "type": "address[]"
        },
        {
          "internalType": "address[]",
          "name": "tokenArray",
          "type": "address[]"
        },
        {
          "internalType": "address[]",
          "name": "strategyArray",
          "type": "address[]"
        },
        {
          "internalType": "bool[]",
          "name": "isWrappedArray",
          "type": "bool[]"
        },
        {
          "internalType": "bool[]",
          "name": "isDelegatedArray",
          "type": "bool[]"
        }
      ],
      "payable": false,
      "stateMutability": "view",
      "type": "function"
    },
    {
      "constant": false,
      "inputs": [
        {
          "internalType": "address",
          "name": "_pendingGovernance",
          "type": "address"
        }
      ],
      "name": "setPendingGovernance",
      "outputs": [],
      "payable": false,
      "stateMutability": "nonpayable",
      "type": "function"
    },
    {
      "constant": false,
      "inputs": [],
      "name": "acceptGovernance",
      "outputs": [],
      "payable": false,
      "stateMutability": "nonpayable",
      "type": "function"
    }
  ],
  "bytecode": "0x608060405234801561001057600080fd5b506040516115233803806115238339818101604052602081101561003357600080fd5b50516001600160a01b038116610085576040805162461bcd60e51b81526020600482015260126024820152714d697373696e6720476f7665726e616e636560701b604482015290519081900360640190fd5b600080546001600160a01b039092166001600160a01b031990921691909117905561146e806100b56000396000f3fe608060405234801561001057600080fd5b50600436106100ea5760003560e01c806344d00f821161008c5780636b708788116100665780636b708788146102de57806390229af71461044e5780639403b634146104b0578063f39c38a0146104cd576100ea565b806344d00f821461023c5780635aa6e6751461029457806361de8389146102b8576100ea565b8063238efcbc116100c8578063238efcbc146101ba578063256b5a02146101c257806344064be7146101e857806344b19dfc14610222576100ea565b80630abb6035146100ef57806317d7de7c146101175780632019c75a14610194575b600080fd5b6101156004803603602081101561010557600080fd5b50356001600160a01b03166104d5565b005b61011f610540565b6040805160208082528351818301528351919283929083019185019080838360005b83811015610159578181015183820152602001610141565b50505050905090810190601f1680156101865780820380516001836020036101000a031916815260200191505b509250505060405180910390f35b610115600480360360208110156101aa57600080fd5b50356001600160a01b0316610563565b6101156105dc565b610115600480360360208110156101d857600080fd5b50356001600160a01b0316610639565b61020e600480360360208110156101fe57600080fd5b50356001600160a01b031661068b565b604080519115158252519081900360200190f35b61022a6106a0565b60408051918252519081900360200190f35b6102446106b1565b60408051602080825283518183015283519192839290830191858101910280838360005b83811015610280578181015183820152602001610268565b505050509050019250505060405180910390f35b61029c610741565b604080516001600160a01b039092168252519081900360200190f35b610115600480360360208110156102ce57600080fd5b50356001600160a01b0316610750565b6102e6610834565b60405180806020018060200180602001806020018060200186810386528b818151815260200191508051906020019060200280838360005b8381101561033657818101518382015260200161031e565b5050505090500186810385528a818151815260200191508051906020019060200280838360005b8381101561037557818101518382015260200161035d565b50505050905001868103845289818151815260200191508051906020019060200280838360005b838110156103b457818101518382015260200161039c565b50505050905001868103835288818151815260200191508051906020019060200280838360005b838110156103f35781810151838201526020016103db565b50505050905001868103825287818151815260200191508051906020019060200280838360005b8381101561043257818101518382015260200161041a565b505050509050019a505050505050505050505060405180910390f35b6104746004803603602081101561046457600080fd5b50356001600160a01b0316610a63565b604080516001600160a01b0396871681529486166020860152929094168383015215156060830152911515608082015290519081900360a00190f35b61029c600480360360208110156104c657600080fd5b5035610a86565b61029c610a9f565b6000546001600160a01b0316331461051e5760405162461bcd60e51b81526004018080602001828103825260278152602001806114136027913960400191505060405180910390fd5b600180546001600160a01b0319166001600160a01b0392909216919091179055565b60408051808201909152600981526859526567697374727960b81b602082015290565b6000546001600160a01b031633146105ac5760405162461bcd60e51b81526004018080602001828103825260278152602001806114136027913960400191505060405180910390fd5b6105b581610aae565b6105be81610b7c565b60006105c982610ba0565b5050505090506105d8816111c7565b5050565b6001546001600160a01b031633146106255760405162461bcd60e51b815260040180806020018281038252602e8152602001806113be602e913960400191505060405180910390fd5b600080546001600160a01b03191633179055565b6000546001600160a01b031633146106825760405162461bcd60e51b81526004018080602001828103825260278152602001806114136027913960400191505060405180910390fd5b6105be81610aae565b60076020526000908152604090205460ff1681565b60006106ac60026111f0565b905090565b6060806106be60026111f0565b6040519080825280602002602001820160405280156106e7578160200160208202803883390190505b50905060005b6106f760026111f0565b81101561073b5761070f60028263ffffffff6111f716565b82828151811061071b57fe5b6001600160a01b03909216602092830291909101909101526001016106ed565b50905090565b6000546001600160a01b031681565b6000546001600160a01b031633146107995760405162461bcd60e51b81526004018080602001828103825260278152602001806114136027913960400191505060405180910390fd5b6107a281610aae565b6000816001600160a01b031663fbfa77cf6040518163ffffffff1660e01b815260040160206040518083038186803b1580156107dd57600080fd5b505afa1580156107f1573d6000803e3d6000fd5b505050506040513d602081101561080757600080fd5b505190506108158282611224565b600061082083610ba0565b50505050905061082f816111c7565b505050565b606080606080606061084660026111f0565b60405190808252806020026020018201604052801561086f578160200160208202803883390190505b50945061087c60026111f0565b6040519080825280602002602001820160405280156108a5578160200160208202803883390190505b5093506108b260026111f0565b6040519080825280602002602001820160405280156108db578160200160208202803883390190505b5092506108e860026111f0565b604051908082528060200260200182016040528015610911578160200160208202803883390190505b50915061091e60026111f0565b604051908082528060200260200182016040528015610947578160200160208202803883390190505b50905060005b61095760026111f0565b811015610a5b5760008080808061097d61097860028863ffffffff6111f716565b610ba0565b94509450945094509450848b878151811061099457fe5b60200260200101906001600160a01b031690816001600160a01b031681525050838a87815181106109c157fe5b60200260200101906001600160a01b031690816001600160a01b031681525050828987815181106109ee57fe5b60200260200101906001600160a01b031690816001600160a01b03168152505081888781518110610a1b57fe5b60200260200101901515908115158152505080878781518110610a3a57fe5b9115156020928302919091019091015250506001909301925061094d915050565b509091929394565b6000806000806000610a7486610ba0565b939a9299509097509550909350915050565b6000610a9960028363ffffffff6111f716565b92915050565b6001546001600160a01b031681565b610ac0816001600160a01b03166112b5565b610b11576040805162461bcd60e51b815260206004820152601760248201527f5661756c74206973206e6f74206120636f6e7472616374000000000000000000604482015290519081900360640190fd5b610b2260028263ffffffff6112f116565b15610b6b576040805162461bcd60e51b81526020600482015260146024820152735661756c7420616c72656164792065786973747360601b604482015290519081900360640190fd5b6105d860028263ffffffff61130f16565b6001600160a01b03166000908152600760205260409020805460ff19166001179055565b6001600160a01b03808216600090815260066020526040812054909182918291161580159082908690610bea57506001600160a01b03808716600090815260066020526040902054165b6001600160a01b03811660008181526007602090815260409182902054825163f77c479160e01b8152925160ff909116955063f77c4791926004808201939291829003018186803b158015610c3e57600080fd5b505afa158015610c52573d6000803e3d6000fd5b505050506040513d6020811015610c6857600080fd5b50519550828015610cf0575060006001600160a01b0316816001600160a01b0316636f307dc36040518163ffffffff1660e01b815260040160206040518083038186803b158015610cb857600080fd5b505afa158015610ccc573d6000803e3d6000fd5b505050506040513d6020811015610ce257600080fd5b50516001600160a01b031614155b15610d6157866001600160a01b031663fc0c546a6040518163ffffffff1660e01b815260040160206040518083038186803b158015610d2e57600080fd5b505afa158015610d42573d6000803e3d6000fd5b505050506040513d6020811015610d5857600080fd5b50519450610dc9565b806001600160a01b031663fc0c546a6040518163ffffffff1660e01b815260040160206040518083038186803b158015610d9a57600080fd5b505afa158015610dae573d6000803e3d6000fd5b505050506040513d6020811015610dc457600080fd5b505194505b8115610e5857856001600160a01b03166339ebf823826040518263ffffffff1660e01b815260040180826001600160a01b03166001600160a01b0316815260200191505060206040518083038186803b158015610e2557600080fd5b505afa158015610e39573d6000803e3d6000fd5b505050506040513d6020811015610e4f57600080fd5b50519350610edd565b856001600160a01b03166339ebf823866040518263ffffffff1660e01b815260040180826001600160a01b03166001600160a01b0316815260200191505060206040518083038186803b158015610eae57600080fd5b505afa158015610ec2573d6000803e3d6000fd5b505050506040513d6020811015610ed857600080fd5b505193505b60008215610f6e57866001600160a01b031663a622ee7c866040518263ffffffff1660e01b815260040180826001600160a01b03166001600160a01b0316815260200191505060206040518083038186803b158015610f3b57600080fd5b505afa158015610f4f573d6000803e3d6000fd5b505050506040513d6020811015610f6557600080fd5b50519050610ff3565b866001600160a01b031663a622ee7c876040518263ffffffff1660e01b815260040180826001600160a01b03166001600160a01b0316815260200191505060206040518083038186803b158015610fc457600080fd5b505afa158015610fd8573d6000803e3d6000fd5b505050506040513d6020811015610fee57600080fd5b505190505b816001600160a01b0316816001600160a01b0316146110435760405162461bcd60e51b81526004018080602001828103825260278152602001806113ec6027913960400191505060405180910390fd5b8315611102576000826001600160a01b0316636f307dc36040518163ffffffff1660e01b815260040160206040518083038186803b15801561108457600080fd5b505afa158015611098573d6000803e3d6000fd5b505050506040513d60208110156110ae57600080fd5b505190506001600160a01b03808216908816146110fc5760405162461bcd60e51b81526004018080602001828103825260298152602001806113956029913960400191505060405180910390fd5b506111bc565b826111bc576000856001600160a01b0316631f1fcd516040518163ffffffff1660e01b815260040160206040518083038186803b15801561114257600080fd5b505afa158015611156573d6000803e3d6000fd5b505050506040513d602081101561116c57600080fd5b505190506001600160a01b03878116908216146111ba5760405162461bcd60e51b81526004018080602001828103825260258152602001806113706025913960400191505060405180910390fd5b505b505091939590929450565b6111d860048263ffffffff6112f116565b6111ed576105d860048263ffffffff61130f16565b50565b6001015490565b600082600101828154811061120857fe5b6000918252602090912001546001600160a01b03169392505050565b611236816001600160a01b03166112b5565b611287576040805162461bcd60e51b815260206004820152601e60248201527f577261707065645661756c74206973206e6f74206120636f6e74726163740000604482015290519081900360640190fd5b6001600160a01b03918216600090815260066020526040902080546001600160a01b03191691909216179055565b6000813f7fc5d2460186f7233c927e7db2dcc703c0e500b653ca82273b7bfad8045d85a4708181148015906112e957508115155b949350505050565b6001600160a01b031660009081526020919091526040902054151590565b600061131b83836112f1565b6113675750600182810180548083018083556000928352602080842090920180546001600160a01b0319166001600160a01b038716908117909155835290859052604090912055610a99565b506000610a9956fe537472617465677920746f6b656e206164647265737320646f6573206e6f74206d61746368577261707065645661756c7420746f6b656e206164647265737320646f6573206e6f74206d617463684f6e6c792070656e64696e67476f7665726e616e63652063616e2063616c6c20746869732066756e6374696f6e2e436f6e74726f6c6c6572207661756c74206164647265737320646f6573206e6f74206d617463684f6e6c7920676f7665726e616e63652063616e2063616c6c20746869732066756e6374696f6e2ea265627a7a723158201283d526ff7eaa5f2f2c243577de09d9c4183902229bcd49a5e4e7a2438a87fe64736f6c63430005110032",
  "source": "// SPDX-License-Identifier: MIT\n\npragma solidity ^0.5.17;\n\nimport \"@openzeppelin/contracts/math/SafeMath.sol\";\nimport \"@openzeppelin/contracts/utils/Address.sol\";\nimport \"@openzeppelin/contracts/utils/EnumerableSet.sol\";\n\nimport \"../../interfaces/yearn/IController.sol\";\nimport \"../../interfaces/yearn/IStrategy.sol\";\nimport \"../../interfaces/yearn/IVault.sol\";\nimport \"../../interfaces/yearn/IWrappedVault.sol\";\n\ncontract YRegistry {\n    using Address for address;\n    using SafeMath for uint256;\n    using EnumerableSet for EnumerableSet.AddressSet;\n\n    address public governance;\n    address public pendingGovernance;\n\n    EnumerableSet.AddressSet private vaults;\n    EnumerableSet.AddressSet private controllers;\n\n    mapping(address => address) private wrappedVaults;\n\n    mapping(address => bool) public isDelegatedVault;\n\n    constructor(address _governance) public {\n        require(_governance != address(0), \"Missing Governance\");\n        governance = _governance;\n    }\n\n    function getName() external pure returns (string memory) {\n        return \"YRegistry\";\n    }\n\n    function addVault(address _vault) public onlyGovernance {\n        setVault(_vault);\n\n        (address controller, , , , ) = getVaultData(_vault);\n\n        setController(controller);\n    }\n\n    function addWrappedVault(address _vault) public onlyGovernance {\n        setVault(_vault);\n        address wrappedVault = IWrappedVault(_vault).vault();\n        setWrappedVault(_vault, wrappedVault);\n\n        (address controller, , , , ) = getVaultData(_vault);\n\n        // Adds to controllers array\n        setController(controller);\n        // TODO Add and track tokens and strategies? [historical]\n        // (current ones can be obtained via getVaults + getVaultInfo)\n    }\n\n    function addDelegatedVault(address _vault) public onlyGovernance {\n        setVault(_vault);\n        setDelegatedVault(_vault);\n\n        (address controller, , , , ) = getVaultData(_vault);\n\n        // Adds to controllers array\n        setController(controller);\n        // TODO Add and track tokens and strategies? [historical]\n        // (current ones can be obtained via getVaults + getVaultInfo)\n    }\n\n    function setVault(address _vault) internal {\n        require(_vault.isContract(), \"Vault is not a contract\");\n        // Checks if vault is already on the array\n        require(!vaults.contains(_vault), \"Vault already exists\");\n        // Adds unique _vault to vaults array\n        vaults.add(_vault);\n    }\n\n    function setWrappedVault(address _vault, address _wrappedVault) internal {\n        require(_wrappedVault.isContract(), \"WrappedVault is not a contract\");\n        wrappedVaults[_vault] = _wrappedVault;\n    }\n\n    function setDelegatedVault(address _vault) internal {\n        // TODO Is there any way to check if a vault is delegated\n        isDelegatedVault[_vault] = true;\n    }\n\n    function setController(address _controller) internal {\n        // Adds Controller to controllers array\n        if (!controllers.contains(_controller)) {\n            controllers.add(_controller);\n        }\n    }\n\n    function getVaultData(address _vault)\n        internal\n        view\n        returns (\n            address controller,\n            address token,\n            address strategy,\n            bool isWrapped,\n            bool isDelegated\n        )\n    {\n        address vault = _vault;\n        isWrapped = wrappedVaults[_vault] != address(0);\n        if (isWrapped) {\n            vault = wrappedVaults[_vault];\n        }\n        isDelegated = isDelegatedVault[vault];\n\n        // Get values from controller\n        controller = IVault(vault).controller();\n        if (isWrapped && IVault(vault).underlying() != address(0)) {\n            token = IVault(_vault).token(); // Use non-wrapped vault\n        } else {\n            token = IVault(vault).token();\n        }\n\n        if (isDelegated) {\n            strategy = IController(controller).strategies(vault);\n        } else {\n            strategy = IController(controller).strategies(token);\n        }\n\n        // Check if vault is set on controller for token\n        address controllerVault = address(0);\n        if (isDelegated) {\n            controllerVault = IController(controller).vaults(strategy);\n        } else {\n            controllerVault = IController(controller).vaults(token);\n        }\n        require(controllerVault == vault, \"Controller vault address does not match\"); // Might happen on Proxy Vaults\n\n        // Check if strategy has the same token as vault\n        if (isWrapped) {\n            address underlying = IVault(vault).underlying();\n            require(underlying == token, \"WrappedVault token address does not match\"); // Might happen?\n        } else if (!isDelegated) {\n            address strategyToken = IStrategy(strategy).want();\n            require(token == strategyToken, \"Strategy token address does not match\"); // Might happen?\n        }\n\n        return (controller, token, strategy, isWrapped, isDelegated);\n    }\n\n    // Vaults getters\n    function getVault(uint256 index) external view returns (address vault) {\n        return vaults.get(index);\n    }\n\n    function getVaultsLength() external view returns (uint256) {\n        return vaults.length();\n    }\n\n    function getVaults() external view returns (address[] memory) {\n        address[] memory vaultsArray = new address[](vaults.length());\n        for (uint256 i = 0; i < vaults.length(); i++) {\n            vaultsArray[i] = vaults.get(i);\n        }\n        return vaultsArray;\n    }\n\n    function getVaultInfo(address _vault)\n        external\n        view\n        returns (\n            address controller,\n            address token,\n            address strategy,\n            bool isWrapped,\n            bool isDelegated\n        )\n    {\n        (controller, token, strategy, isWrapped, isDelegated) = getVaultData(_vault);\n        return (controller, token, strategy, isWrapped, isDelegated);\n    }\n\n    function getVaultsInfo()\n        external\n        view\n        returns (\n            address[] memory controllerArray,\n            address[] memory tokenArray,\n            address[] memory strategyArray,\n            bool[] memory isWrappedArray,\n            bool[] memory isDelegatedArray\n        )\n    {\n        controllerArray = new address[](vaults.length());\n        tokenArray = new address[](vaults.length());\n        strategyArray = new address[](vaults.length());\n        isWrappedArray = new bool[](vaults.length());\n        isDelegatedArray = new bool[](vaults.length());\n\n        for (uint256 i = 0; i < vaults.length(); i++) {\n            (address _controller, address _token, address _strategy, bool _isWrapped, bool _isDelegated) = getVaultData(vaults.get(i));\n            controllerArray[i] = _controller;\n            tokenArray[i] = _token;\n            strategyArray[i] = _strategy;\n            isWrappedArray[i] = _isWrapped;\n            isDelegatedArray[i] = _isDelegated;\n        }\n    }\n\n    // Governance setters\n    function setPendingGovernance(address _pendingGovernance) external onlyGovernance {\n        pendingGovernance = _pendingGovernance;\n    }\n\n    function acceptGovernance() external onlyPendingGovernance {\n        governance = msg.sender;\n    }\n\n    modifier onlyGovernance {\n        require(msg.sender == governance, \"Only governance can call this function.\");\n        _;\n    }\n    modifier onlyPendingGovernance {\n        require(msg.sender == pendingGovernance, \"Only pendingGovernance can call this function.\");\n        _;\n    }\n}\n",
  "sourcePath": "/Users/sbacha/yearn-protocol-nodejs/contracts/registries/YRegistry.sol",
  "compiler": {
    "name": "solc",
    "version": "0.5.17+commit.d19bba13.Emscripten.clang"
  },
  "schemaVersion": "3.3.3",
  "updatedAt": "2021-01-01T09:28:49.025Z",
  "devdoc": {
    "methods": {}
  },
  "userdoc": {
    "methods": {}
  }
}