{
  "contractName": "yVault",
  "abi": [
    {
      "inputs": [
        {
          "internalType": "address",
          "name": "_token",
          "type": "address"
        },
        {
          "internalType": "address",
          "name": "_controller",
          "type": "address"
        }
      ],
      "payable": false,
      "stateMutability": "nonpayable",
      "type": "constructor"
    },
    {
      "anonymous": false,
      "inputs": [
        {
          "indexed": true,
          "internalType": "address",
          "name": "owner",
          "type": "address"
        },
        {
          "indexed": true,
          "internalType": "address",
          "name": "spender",
          "type": "address"
        },
        {
          "indexed": false,
          "internalType": "uint256",
          "name": "value",
          "type": "uint256"
        }
      ],
      "name": "Approval",
      "type": "event"
    },
    {
      "anonymous": false,
      "inputs": [
        {
          "indexed": true,
          "internalType": "address",
          "name": "from",
          "type": "address"
        },
        {
          "indexed": true,
          "internalType": "address",
          "name": "to",
          "type": "address"
        },
        {
          "indexed": false,
          "internalType": "uint256",
          "name": "value",
          "type": "uint256"
        }
      ],
      "name": "Transfer",
      "type": "event"
    },
    {
      "constant": true,
      "inputs": [
        {
          "internalType": "address",
          "name": "owner",
          "type": "address"
        },
        {
          "internalType": "address",
          "name": "spender",
          "type": "address"
        }
      ],
      "name": "allowance",
      "outputs": [
        {
          "internalType": "uint256",
          "name": "",
          "type": "uint256"
        }
      ],
      "payable": false,
      "stateMutability": "view",
      "type": "function"
    },
    {
      "constant": false,
      "inputs": [
        {
          "internalType": "address",
          "name": "spender",
          "type": "address"
        },
        {
          "internalType": "uint256",
          "name": "amount",
          "type": "uint256"
        }
      ],
      "name": "approve",
      "outputs": [
        {
          "internalType": "bool",
          "name": "",
          "type": "bool"
        }
      ],
      "payable": false,
      "stateMutability": "nonpayable",
      "type": "function"
    },
    {
      "constant": true,
      "inputs": [
        {
          "internalType": "address",
          "name": "account",
          "type": "address"
        }
      ],
      "name": "balanceOf",
      "outputs": [
        {
          "internalType": "uint256",
          "name": "",
          "type": "uint256"
        }
      ],
      "payable": false,
      "stateMutability": "view",
      "type": "function"
    },
    {
      "constant": true,
      "inputs": [],
      "name": "controller",
      "outputs": [
        {
          "internalType": "address",
          "name": "",
          "type": "address"
        }
      ],
      "payable": false,
      "stateMutability": "view",
      "type": "function"
    },
    {
      "constant": true,
      "inputs": [],
      "name": "decimals",
      "outputs": [
        {
          "internalType": "uint8",
          "name": "",
          "type": "uint8"
        }
      ],
      "payable": false,
      "stateMutability": "view",
      "type": "function"
    },
    {
      "constant": false,
      "inputs": [
        {
          "internalType": "address",
          "name": "spender",
          "type": "address"
        },
        {
          "internalType": "uint256",
          "name": "subtractedValue",
          "type": "uint256"
        }
      ],
      "name": "decreaseAllowance",
      "outputs": [
        {
          "internalType": "bool",
          "name": "",
          "type": "bool"
        }
      ],
      "payable": false,
      "stateMutability": "nonpayable",
      "type": "function"
    },
    {
      "constant": true,
      "inputs": [],
      "name": "governance",
      "outputs": [
        {
          "internalType": "address",
          "name": "",
          "type": "address"
        }
      ],
      "payable": false,
      "stateMutability": "view",
      "type": "function"
    },
    {
      "constant": false,
      "inputs": [
        {
          "internalType": "address",
          "name": "spender",
          "type": "address"
        },
        {
          "internalType": "uint256",
          "name": "addedValue",
          "type": "uint256"
        }
      ],
      "name": "increaseAllowance",
      "outputs": [
        {
          "internalType": "bool",
          "name": "",
          "type": "bool"
        }
      ],
      "payable": false,
      "stateMutability": "nonpayable",
      "type": "function"
    },
    {
      "constant": true,
      "inputs": [],
      "name": "max",
      "outputs": [
        {
          "internalType": "uint256",
          "name": "",
          "type": "uint256"
        }
      ],
      "payable": false,
      "stateMutability": "view",
      "type": "function"
    },
    {
      "constant": true,
      "inputs": [],
      "name": "min",
      "outputs": [
        {
          "internalType": "uint256",
          "name": "",
          "type": "uint256"
        }
      ],
      "payable": false,
      "stateMutability": "view",
      "type": "function"
    },
    {
      "constant": true,
      "inputs": [],
      "name": "name",
      "outputs": [
        {
          "internalType": "string",
          "name": "",
          "type": "string"
        }
      ],
      "payable": false,
      "stateMutability": "view",
      "type": "function"
    },
    {
      "constant": true,
      "inputs": [],
      "name": "symbol",
      "outputs": [
        {
          "internalType": "string",
          "name": "",
          "type": "string"
        }
      ],
      "payable": false,
      "stateMutability": "view",
      "type": "function"
    },
    {
      "constant": true,
      "inputs": [],
      "name": "token",
      "outputs": [
        {
          "internalType": "contract IERC20",
          "name": "",
          "type": "address"
        }
      ],
      "payable": false,
      "stateMutability": "view",
      "type": "function"
    },
    {
      "constant": true,
      "inputs": [],
      "name": "totalSupply",
      "outputs": [
        {
          "internalType": "uint256",
          "name": "",
          "type": "uint256"
        }
      ],
      "payable": false,
      "stateMutability": "view",
      "type": "function"
    },
    {
      "constant": false,
      "inputs": [
        {
          "internalType": "address",
          "name": "recipient",
          "type": "address"
        },
        {
          "internalType": "uint256",
          "name": "amount",
          "type": "uint256"
        }
      ],
      "name": "transfer",
      "outputs": [
        {
          "internalType": "bool",
          "name": "",
          "type": "bool"
        }
      ],
      "payable": false,
      "stateMutability": "nonpayable",
      "type": "function"
    },
    {
      "constant": false,
      "inputs": [
        {
          "internalType": "address",
          "name": "sender",
          "type": "address"
        },
        {
          "internalType": "address",
          "name": "recipient",
          "type": "address"
        },
        {
          "internalType": "uint256",
          "name": "amount",
          "type": "uint256"
        }
      ],
      "name": "transferFrom",
      "outputs": [
        {
          "internalType": "bool",
          "name": "",
          "type": "bool"
        }
      ],
      "payable": false,
      "stateMutability": "nonpayable",
      "type": "function"
    },
    {
      "constant": true,
      "inputs": [],
      "name": "balance",
      "outputs": [
        {
          "internalType": "uint256",
          "name": "",
          "type": "uint256"
        }
      ],
      "payable": false,
      "stateMutability": "view",
      "type": "function"
    },
    {
      "constant": false,
      "inputs": [
        {
          "internalType": "uint256",
          "name": "_min",
          "type": "uint256"
        }
      ],
      "name": "setMin",
      "outputs": [],
      "payable": false,
      "stateMutability": "nonpayable",
      "type": "function"
    },
    {
      "constant": false,
      "inputs": [
        {
          "internalType": "address",
          "name": "_governance",
          "type": "address"
        }
      ],
      "name": "setGovernance",
      "outputs": [],
      "payable": false,
      "stateMutability": "nonpayable",
      "type": "function"
    },
    {
      "constant": false,
      "inputs": [
        {
          "internalType": "address",
          "name": "_controller",
          "type": "address"
        }
      ],
      "name": "setController",
      "outputs": [],
      "payable": false,
      "stateMutability": "nonpayable",
      "type": "function"
    },
    {
      "constant": true,
      "inputs": [],
      "name": "available",
      "outputs": [
        {
          "internalType": "uint256",
          "name": "",
          "type": "uint256"
        }
      ],
      "payable": false,
      "stateMutability": "view",
      "type": "function"
    },
    {
      "constant": false,
      "inputs": [],
      "name": "earn",
      "outputs": [],
      "payable": false,
      "stateMutability": "nonpayable",
      "type": "function"
    },
    {
      "constant": false,
      "inputs": [],
      "name": "depositAll",
      "outputs": [],
      "payable": false,
      "stateMutability": "nonpayable",
      "type": "function"
    },
    {
      "constant": false,
      "inputs": [
        {
          "internalType": "uint256",
          "name": "_amount",
          "type": "uint256"
        }
      ],
      "name": "deposit",
      "outputs": [],
      "payable": false,
      "stateMutability": "nonpayable",
      "type": "function"
    },
    {
      "constant": false,
      "inputs": [],
      "name": "withdrawAll",
      "outputs": [],
      "payable": false,
      "stateMutability": "nonpayable",
      "type": "function"
    },
    {
      "constant": false,
      "inputs": [
        {
          "internalType": "address",
          "name": "reserve",
          "type": "address"
        },
        {
          "internalType": "uint256",
          "name": "amount",
          "type": "uint256"
        }
      ],
      "name": "harvest",
      "outputs": [],
      "payable": false,
      "stateMutability": "nonpayable",
      "type": "function"
    },
    {
      "constant": false,
      "inputs": [
        {
          "internalType": "uint256",
          "name": "_shares",
          "type": "uint256"
        }
      ],
      "name": "withdraw",
      "outputs": [],
      "payable": false,
      "stateMutability": "nonpayable",
      "type": "function"
    },
    {
      "constant": true,
      "inputs": [],
      "name": "getPricePerFullShare",
      "outputs": [
        {
          "internalType": "uint256",
          "name": "",
          "type": "uint256"
        }
      ],
      "payable": false,
      "stateMutability": "view",
      "type": "function"
    }
  ],
  "bytecode": "0x608060405261251c6006553480156200001757600080fd5b50604051620020e9380380620020e9833981810160405260408110156200003d57600080fd5b508051602090910151604080516306fdde0360e01b815290516001600160a01b038416916306fdde03916004808301926000929190829003018186803b1580156200008757600080fd5b505afa1580156200009c573d6000803e3d6000fd5b505050506040513d6000823e601f3d908101601f191682016040526020811015620000c657600080fd5b8101908080516040519392919084640100000000821115620000e757600080fd5b908301906020820185811115620000fd57600080fd5b82516401000000008111828201881017156200011857600080fd5b82525081516020918201929091019080838360005b83811015620001475781810151838201526020016200012d565b50505050905090810190601f168015620001755780820380516001836020036101000a031916815260200191505b5060405250505060405160200180806503cb2b0b937160d51b81525060060182805190602001908083835b60208310620001c15780518252601f199092019160209182019101620001a0565b6001836020036101000a038019825116818451168082178552505050505050905001915050604051602081830303815290604052826001600160a01b03166395d89b416040518163ffffffff1660e01b815260040160006040518083038186803b1580156200022f57600080fd5b505afa15801562000244573d6000803e3d6000fd5b505050506040513d6000823e601f3d908101601f1916820160405260208110156200026e57600080fd5b81019080805160405193929190846401000000008211156200028f57600080fd5b908301906020820185811115620002a557600080fd5b8251640100000000811182820188101715620002c057600080fd5b82525081516020918201929091019080838360005b83811015620002ef578181015183820152602001620002d5565b50505050905090810190601f1680156200031d5780820380516001836020036101000a031916815260200191505b506040525050506040516020018080607960f81b81525060010182805190602001908083835b60208310620003645780518252601f19909201916020918201910162000343565b6001836020036101000a038019825116818451168082178552505050505050905001915050604051602081830303815290604052836001600160a01b031663313ce5676040518163ffffffff1660e01b815260040160206040518083038186803b158015620003d257600080fd5b505afa158015620003e7573d6000803e3d6000fd5b505050506040513d6020811015620003fe57600080fd5b505182516200041590600390602086019062000486565b5081516200042b90600490602085019062000486565b506005805460ff191660ff9290921691909117610100600160a81b0319166101006001600160a01b0396871602179055505060078054336001600160a01b03199182161790915560088054909116919092161790556200052b565b828054600181600116156101000203166002900490600052602060002090601f016020900481019282601f10620004c957805160ff1916838001178555620004f9565b82800160010185558215620004f9579182015b82811115620004f9578251825591602001919060010190620004dc565b50620005079291506200050b565b5090565b6200052891905b8082111562000507576000815560010162000512565b90565b611bae806200053b6000396000f3fe608060405234801561001057600080fd5b50600436106101c45760003560e01c8063853828b6116100f9578063b6b55f2511610097578063de5f626811610071578063de5f6268146104f9578063f77c479114610501578063f889794514610509578063fc0c546a14610511576101c4565b8063b6b55f25146104a6578063d389800f146104c3578063dd62ed3e146104cb576101c4565b8063a457c2d7116100d3578063a457c2d714610420578063a9059cbb1461044c578063ab033ea914610478578063b69ef8a81461049e576101c4565b8063853828b6146103ea57806392eefe9b146103f257806395d89b4114610418576101c4565b806339509351116101665780635aa6e675116101405780635aa6e675146103905780636ac5db19146103b457806370a08231146103bc57806377c7b8fc146103e2576101c4565b8063395093511461033f57806345dc3dd81461036b57806348a0d75414610388576101c4565b806318160ddd116101a257806318160ddd146102b457806323b872dd146102ce5780632e1a7d4d14610304578063313ce56714610321576101c4565b8063018ee9b7146101c957806306fdde03146101f7578063095ea7b314610274575b600080fd5b6101f5600480360360408110156101df57600080fd5b506001600160a01b038135169060200135610519565b005b6101ff6105da565b6040805160208082528351818301528351919283929083019185019080838360005b83811015610239578181015183820152602001610221565b50505050905090810190601f1680156102665780820380516001836020036101000a031916815260200191505b509250505060405180910390f35b6102a06004803603604081101561028a57600080fd5b506001600160a01b038135169060200135610670565b604080519115158252519081900360200190f35b6102bc61068e565b60408051918252519081900360200190f35b6102a0600480360360608110156102e457600080fd5b506001600160a01b03813581169160208101359091169060400135610694565b6101f56004803603602081101561031a57600080fd5b5035610721565b610329610940565b6040805160ff9092168252519081900360200190f35b6102a06004803603604081101561035557600080fd5b506001600160a01b038135169060200135610949565b6101f56004803603602081101561038157600080fd5b503561099d565b6102bc6109ef565b610398610aa5565b604080516001600160a01b039092168252519081900360200190f35b6102bc610ab4565b6102bc600480360360208110156103d257600080fd5b50356001600160a01b0316610aba565b6102bc610ad5565b6101f5610af6565b6101f56004803603602081101561040857600080fd5b50356001600160a01b0316610b09565b6101ff610b78565b6102a06004803603604081101561043657600080fd5b506001600160a01b038135169060200135610bd9565b6102a06004803603604081101561046257600080fd5b506001600160a01b038135169060200135610c47565b6101f56004803603602081101561048e57600080fd5b50356001600160a01b0316610c5b565b6102bc610cca565b6101f5600480360360208110156104bc57600080fd5b5035610dd6565b6101f5610f56565b6102bc600480360360408110156104e157600080fd5b506001600160a01b0381358116916020013516610ffc565b6101f5611027565b6103986110a9565b6102bc6110b8565b6103986110be565b6008546001600160a01b03163314610566576040805162461bcd60e51b815260206004820152600b60248201526a10b1b7b73a3937b63632b960a91b604482015290519081900360640190fd5b6005546001600160a01b038381166101009092041614156105b6576040805162461bcd60e51b81526020600482015260056024820152643a37b5b2b760d91b604482015290519081900360640190fd5b6008546105d6906001600160a01b0384811691168363ffffffff6110d216565b5050565b60038054604080516020601f60026000196101006001881615020190951694909404938401819004810282018101909252828152606093909290918301828280156106665780601f1061063b57610100808354040283529160200191610666565b820191906000526020600020905b81548152906001019060200180831161064957829003601f168201915b5050505050905090565b600061068461067d611124565b8484611128565b5060015b92915050565b60025490565b60006106a1848484611214565b610717846106ad611124565b61071285604051806060016040528060288152602001611a99602891396001600160a01b038a166000908152600160205260408120906106eb611124565b6001600160a01b03168152602081019190915260400160002054919063ffffffff61137016565b611128565b5060019392505050565b600061075261072e61068e565b6107468461073a610cca565b9063ffffffff61140716565b9063ffffffff61146716565b905061075e33836114a9565b600554604080516370a0823160e01b8152306004820152905160009261010090046001600160a01b0316916370a08231916024808301926020929190829003018186803b1580156107ae57600080fd5b505afa1580156107c2573d6000803e3d6000fd5b505050506040513d60208110156107d857600080fd5b505190508181101561091f5760006107f6838363ffffffff6115a516565b6008546005546040805163f3fef3a360e01b81526001600160a01b036101009093048316600482015260248101859052905193945091169163f3fef3a39160448082019260009290919082900301818387803b15801561085557600080fd5b505af1158015610869573d6000803e3d6000fd5b5050600554604080516370a0823160e01b81523060048201529051600094506101009092046001600160a01b031692506370a08231916024808301926020929190829003018186803b1580156108be57600080fd5b505afa1580156108d2573d6000803e3d6000fd5b505050506040513d60208110156108e857600080fd5b5051905060006108fe828563ffffffff6115a516565b90508281101561091b57610918848263ffffffff6115e716565b94505b5050505b60055461093b9061010090046001600160a01b031633846110d2565b505050565b60055460ff1690565b6000610684610956611124565b846107128560016000610967611124565b6001600160a01b03908116825260208083019390935260409182016000908120918c16815292529020549063ffffffff6115e716565b6007546001600160a01b031633146109ea576040805162461bcd60e51b815260206004820152600b60248201526a21676f7665726e616e636560a81b604482015290519081900360640190fd5b600655565b6000610aa0612710610746600654600560019054906101000a90046001600160a01b03166001600160a01b03166370a08231306040518263ffffffff1660e01b815260040180826001600160a01b03166001600160a01b0316815260200191505060206040518083038186803b158015610a6857600080fd5b505afa158015610a7c573d6000803e3d6000fd5b505050506040513d6020811015610a9257600080fd5b50519063ffffffff61140716565b905090565b6007546001600160a01b031681565b61271081565b6001600160a01b031660009081526020819052604090205490565b6000610aa0610ae261068e565b610746670de0b6b3a764000061073a610cca565b610b07610b0233610aba565b610721565b565b6007546001600160a01b03163314610b56576040805162461bcd60e51b815260206004820152600b60248201526a21676f7665726e616e636560a81b604482015290519081900360640190fd5b600880546001600160a01b0319166001600160a01b0392909216919091179055565b60048054604080516020601f60026000196101006001881615020190951694909404938401819004810282018101909252828152606093909290918301828280156106665780601f1061063b57610100808354040283529160200191610666565b6000610684610be6611124565b8461071285604051806060016040528060258152602001611b556025913960016000610c10611124565b6001600160a01b03908116825260208083019390935260409182016000908120918d1681529252902054919063ffffffff61137016565b6000610684610c54611124565b8484611214565b6007546001600160a01b03163314610ca8576040805162461bcd60e51b815260206004820152600b60248201526a21676f7665726e616e636560a81b604482015290519081900360640190fd5b600780546001600160a01b0319166001600160a01b0392909216919091179055565b600854600554604080516370a0823160e01b81526001600160a01b03610100909304831660048201529051600093610aa09316916370a08231916024808301926020929190829003018186803b158015610d2357600080fd5b505afa158015610d37573d6000803e3d6000fd5b505050506040513d6020811015610d4d57600080fd5b5051600554604080516370a0823160e01b815230600482015290516101009092046001600160a01b0316916370a0823191602480820192602092909190829003018186803b158015610d9e57600080fd5b505afa158015610db2573d6000803e3d6000fd5b505050506040513d6020811015610dc857600080fd5b50519063ffffffff6115e716565b6000610de0610cca565b600554604080516370a0823160e01b815230600482015290519293506000926101009092046001600160a01b0316916370a0823191602480820192602092909190829003018186803b158015610e3557600080fd5b505afa158015610e49573d6000803e3d6000fd5b505050506040513d6020811015610e5f57600080fd5b5051600554909150610e819061010090046001600160a01b0316333086611641565b600554604080516370a0823160e01b8152306004820152905160009261010090046001600160a01b0316916370a08231916024808301926020929190829003018186803b158015610ed157600080fd5b505afa158015610ee5573d6000803e3d6000fd5b505050506040513d6020811015610efb57600080fd5b50519050610f0f818363ffffffff6115a516565b93506000610f1b61068e565b610f26575083610f45565b610f4284610746610f3561068e565b889063ffffffff61140716565b90505b610f4f33826116a1565b5050505050565b6000610f606109ef565b600854600554919250610f8b9161010090046001600160a01b0390811691168363ffffffff6110d216565b6008546005546040805163b02bf4b960e01b81526101009092046001600160a01b03908116600484015260248301859052905192169163b02bf4b99160448082019260009290919082900301818387803b158015610fe857600080fd5b505af1158015610f4f573d6000803e3d6000fd5b6001600160a01b03918216600090815260016020908152604080832093909416825291909152205490565b600554604080516370a0823160e01b81523360048201529051610b079261010090046001600160a01b0316916370a08231916024808301926020929190829003018186803b15801561107857600080fd5b505afa15801561108c573d6000803e3d6000fd5b505050506040513d60208110156110a257600080fd5b5051610dd6565b6008546001600160a01b031681565b60065481565b60055461010090046001600160a01b031681565b604080516001600160a01b038416602482015260448082018490528251808303909101815260649091019091526020810180516001600160e01b031663a9059cbb60e01b17905261093b908490611791565b3390565b6001600160a01b03831661116d5760405162461bcd60e51b8152600401808060200182810382526024815260200180611b076024913960400191505060405180910390fd5b6001600160a01b0382166111b25760405162461bcd60e51b8152600401808060200182810382526022815260200180611a306022913960400191505060405180910390fd5b6001600160a01b03808416600081815260016020908152604080832094871680845294825291829020859055815185815291517f8c5be1e5ebec7d5bd14f71427d1e84f3dd0314c0f7b2291e5b200ac8c7c3b9259281900390910190a3505050565b6001600160a01b0383166112595760405162461bcd60e51b8152600401808060200182810382526025815260200180611ae26025913960400191505060405180910390fd5b6001600160a01b03821661129e5760405162461bcd60e51b81526004018080602001828103825260238152602001806119eb6023913960400191505060405180910390fd5b6112e181604051806060016040528060268152602001611a52602691396001600160a01b038616600090815260208190526040902054919063ffffffff61137016565b6001600160a01b038085166000908152602081905260408082209390935590841681522054611316908263ffffffff6115e716565b6001600160a01b038084166000818152602081815260409182902094909455805185815290519193928716927fddf252ad1be2c89b69c2b068fc378daa952ba7f163c4a11628f55a4df523b3ef92918290030190a3505050565b600081848411156113ff5760405162461bcd60e51b81526004018080602001828103825283818151815260200191508051906020019080838360005b838110156113c45781810151838201526020016113ac565b50505050905090810190601f1680156113f15780820380516001836020036101000a031916815260200191505b509250505060405180910390fd5b505050900390565b60008261141657506000610688565b8282028284828161142357fe5b04146114605760405162461bcd60e51b8152600401808060200182810382526021815260200180611a786021913960400191505060405180910390fd5b9392505050565b600061146083836040518060400160405280601a81526020017f536166654d6174683a206469766973696f6e206279207a65726f000000000000815250611949565b6001600160a01b0382166114ee5760405162461bcd60e51b8152600401808060200182810382526021815260200180611ac16021913960400191505060405180910390fd5b61153181604051806060016040528060228152602001611a0e602291396001600160a01b038516600090815260208190526040902054919063ffffffff61137016565b6001600160a01b03831660009081526020819052604090205560025461155d908263ffffffff6115a516565b6002556040805182815290516000916001600160a01b038516917fddf252ad1be2c89b69c2b068fc378daa952ba7f163c4a11628f55a4df523b3ef9181900360200190a35050565b600061146083836040518060400160405280601e81526020017f536166654d6174683a207375627472616374696f6e206f766572666c6f770000815250611370565b600082820183811015611460576040805162461bcd60e51b815260206004820152601b60248201527f536166654d6174683a206164646974696f6e206f766572666c6f770000000000604482015290519081900360640190fd5b604080516001600160a01b0385811660248301528416604482015260648082018490528251808303909101815260849091019091526020810180516001600160e01b03166323b872dd60e01b17905261169b908590611791565b50505050565b6001600160a01b0382166116fc576040805162461bcd60e51b815260206004820152601f60248201527f45524332303a206d696e7420746f20746865207a65726f206164647265737300604482015290519081900360640190fd5b60025461170f908263ffffffff6115e716565b6002556001600160a01b03821660009081526020819052604090205461173b908263ffffffff6115e716565b6001600160a01b0383166000818152602081815260408083209490945583518581529351929391927fddf252ad1be2c89b69c2b068fc378daa952ba7f163c4a11628f55a4df523b3ef9281900390910190a35050565b6117a3826001600160a01b03166119ae565b6117f4576040805162461bcd60e51b815260206004820152601f60248201527f5361666545524332303a2063616c6c20746f206e6f6e2d636f6e747261637400604482015290519081900360640190fd5b60006060836001600160a01b0316836040518082805190602001908083835b602083106118325780518252601f199092019160209182019101611813565b6001836020036101000a0380198251168184511680821785525050505050509050019150506000604051808303816000865af19150503d8060008114611894576040519150601f19603f3d011682016040523d82523d6000602084013e611899565b606091505b5091509150816118f0576040805162461bcd60e51b815260206004820181905260248201527f5361666545524332303a206c6f772d6c6576656c2063616c6c206661696c6564604482015290519081900360640190fd5b80511561169b5780806020019051602081101561190c57600080fd5b505161169b5760405162461bcd60e51b815260040180806020018281038252602a815260200180611b2b602a913960400191505060405180910390fd5b600081836119985760405162461bcd60e51b81526020600482018181528351602484015283519092839260449091019190850190808383600083156113c45781810151838201526020016113ac565b5060008385816119a457fe5b0495945050505050565b6000813f7fc5d2460186f7233c927e7db2dcc703c0e500b653ca82273b7bfad8045d85a4708181148015906119e257508115155b94935050505056fe45524332303a207472616e7366657220746f20746865207a65726f206164647265737345524332303a206275726e20616d6f756e7420657863656564732062616c616e636545524332303a20617070726f766520746f20746865207a65726f206164647265737345524332303a207472616e7366657220616d6f756e7420657863656564732062616c616e6365536166654d6174683a206d756c7469706c69636174696f6e206f766572666c6f7745524332303a207472616e7366657220616d6f756e74206578636565647320616c6c6f77616e636545524332303a206275726e2066726f6d20746865207a65726f206164647265737345524332303a207472616e736665722066726f6d20746865207a65726f206164647265737345524332303a20617070726f76652066726f6d20746865207a65726f20616464726573735361666545524332303a204552433230206f7065726174696f6e20646964206e6f74207375636365656445524332303a2064656372656173656420616c6c6f77616e63652062656c6f77207a65726fa265627a7a72315820fda46196ffe476f5f5ab8e80a351f12335ad1dff97989fbcd0b67a866bfbf30164736f6c63430005110032",
  "source": "pragma solidity ^0.5.17;\n\nimport \"@openzeppelinV2/contracts/token/ERC20/IERC20.sol\";\nimport \"@openzeppelinV2/contracts/math/SafeMath.sol\";\nimport \"@openzeppelinV2/contracts/utils/Address.sol\";\nimport \"@openzeppelinV2/contracts/token/ERC20/SafeERC20.sol\";\nimport \"@openzeppelinV2/contracts/token/ERC20/ERC20.sol\";\nimport \"@openzeppelinV2/contracts/token/ERC20/ERC20Detailed.sol\";\nimport \"@openzeppelinV2/contracts/ownership/Ownable.sol\";\n\nimport \"../../interfaces/yearn/IController.sol\";\n\ncontract yVault is ERC20, ERC20Detailed {\n    using SafeERC20 for IERC20;\n    using Address for address;\n    using SafeMath for uint256;\n\n    IERC20 public token;\n\n    uint256 public min = 9500;\n    uint256 public constant max = 10000;\n\n    address public governance;\n    address public controller;\n\n    constructor(address _token, address _controller)\n        public\n        ERC20Detailed(\n            string(abi.encodePacked(\"yearn \", ERC20Detailed(_token).name())),\n            string(abi.encodePacked(\"y\", ERC20Detailed(_token).symbol())),\n            ERC20Detailed(_token).decimals()\n        )\n    {\n        token = IERC20(_token);\n        governance = msg.sender;\n        controller = _controller;\n    }\n\n    function balance() public view returns (uint256) {\n        return token.balanceOf(address(this)).add(IController(controller).balanceOf(address(token)));\n    }\n\n    function setMin(uint256 _min) external {\n        require(msg.sender == governance, \"!governance\");\n        min = _min;\n    }\n\n    function setGovernance(address _governance) public {\n        require(msg.sender == governance, \"!governance\");\n        governance = _governance;\n    }\n\n    function setController(address _controller) public {\n        require(msg.sender == governance, \"!governance\");\n        controller = _controller;\n    }\n\n    // Custom logic in here for how much the vault allows to be borrowed\n    // Sets minimum required on-hand to keep small withdrawals cheap\n    function available() public view returns (uint256) {\n        return token.balanceOf(address(this)).mul(min).div(max);\n    }\n\n    function earn() public {\n        uint256 _bal = available();\n        token.safeTransfer(controller, _bal);\n        IController(controller).earn(address(token), _bal);\n    }\n\n    function depositAll() external {\n        deposit(token.balanceOf(msg.sender));\n    }\n\n    function deposit(uint256 _amount) public {\n        uint256 _pool = balance();\n        uint256 _before = token.balanceOf(address(this));\n        token.safeTransferFrom(msg.sender, address(this), _amount);\n        uint256 _after = token.balanceOf(address(this));\n        _amount = _after.sub(_before); // Additional check for deflationary tokens\n        uint256 shares = 0;\n        if (totalSupply() == 0) {\n            shares = _amount;\n        } else {\n            shares = (_amount.mul(totalSupply())).div(_pool);\n        }\n        _mint(msg.sender, shares);\n    }\n\n    function withdrawAll() external {\n        withdraw(balanceOf(msg.sender));\n    }\n\n    // Used to swap any borrowed reserve over the debt limit to liquidate to 'token'\n    function harvest(address reserve, uint256 amount) external {\n        require(msg.sender == controller, \"!controller\");\n        require(reserve != address(token), \"token\");\n        IERC20(reserve).safeTransfer(controller, amount);\n    }\n\n    // No rebalance implementation for lower fees and faster swaps\n    function withdraw(uint256 _shares) public {\n        uint256 r = (balance().mul(_shares)).div(totalSupply());\n        _burn(msg.sender, _shares);\n\n        // Check balance\n        uint256 b = token.balanceOf(address(this));\n        if (b < r) {\n            uint256 _withdraw = r.sub(b);\n            IController(controller).withdraw(address(token), _withdraw);\n            uint256 _after = token.balanceOf(address(this));\n            uint256 _diff = _after.sub(b);\n            if (_diff < _withdraw) {\n                r = b.add(_diff);\n            }\n        }\n\n        token.safeTransfer(msg.sender, r);\n    }\n\n    function getPricePerFullShare() public view returns (uint256) {\n        return balance().mul(1e18).div(totalSupply());\n    }\n}\n",
  "sourcePath": "/Users/sbacha/V2yearn/contracts/vaults/yVault.sol",
  "compiler": {
    "name": "solc",
    "version": "0.5.17+commit.d19bba13.Emscripten.clang"
  },
  "schemaVersion": "3.1.0",
  "updatedAt": "2020-11-01T01:33:12.888Z",
  "devdoc": {
    "methods": {
      "allowance(address,address)": {
        "details": "See {IERC20-allowance}."
      },
      "approve(address,uint256)": {
        "details": "See {IERC20-approve}.     * Requirements:     * - `spender` cannot be the zero address."
      },
      "balanceOf(address)": {
        "details": "See {IERC20-balanceOf}."
      },
      "decimals()": {
        "details": "Returns the number of decimals used to get its user representation. For example, if `decimals` equals `2`, a balance of `505` tokens should be displayed to a user as `5,05` (`505 / 10 ** 2`).     * Tokens usually opt for a value of 18, imitating the relationship between Ether and Wei.     * NOTE: This information is only used for _display_ purposes: it in no way affects any of the arithmetic of the contract, including {IERC20-balanceOf} and {IERC20-transfer}."
      },
      "decreaseAllowance(address,uint256)": {
        "details": "Atomically decreases the allowance granted to `spender` by the caller.     * This is an alternative to {approve} that can be used as a mitigation for problems described in {IERC20-approve}.     * Emits an {Approval} event indicating the updated allowance.     * Requirements:     * - `spender` cannot be the zero address. - `spender` must have allowance for the caller of at least `subtractedValue`."
      },
      "increaseAllowance(address,uint256)": {
        "details": "Atomically increases the allowance granted to `spender` by the caller.     * This is an alternative to {approve} that can be used as a mitigation for problems described in {IERC20-approve}.     * Emits an {Approval} event indicating the updated allowance.     * Requirements:     * - `spender` cannot be the zero address."
      },
      "name()": {
        "details": "Returns the name of the token."
      },
      "symbol()": {
        "details": "Returns the symbol of the token, usually a shorter version of the name."
      },
      "totalSupply()": {
        "details": "See {IERC20-totalSupply}."
      },
      "transfer(address,uint256)": {
        "details": "See {IERC20-transfer}.     * Requirements:     * - `recipient` cannot be the zero address. - the caller must have a balance of at least `amount`."
      },
      "transferFrom(address,address,uint256)": {
        "details": "See {IERC20-transferFrom}.     * Emits an {Approval} event indicating the updated allowance. This is not required by the EIP. See the note at the beginning of {ERC20};     * Requirements: - `sender` and `recipient` cannot be the zero address. - `sender` must have a balance of at least `amount`. - the caller must have allowance for `sender`'s tokens of at least `amount`."
      }
    }
  },
  "userdoc": {
    "methods": {}
  }
}