{
  "contractName": "yWETH",
  "abi": [
    {
      "inputs": [
        {
          "internalType": "address",
          "name": "_token",
          "type": "address"
        },
        {
          "internalType": "address",
          "name": "_controller",
          "type": "address"
        }
      ],
      "payable": false,
      "stateMutability": "nonpayable",
      "type": "constructor"
    },
    {
      "anonymous": false,
      "inputs": [
        {
          "indexed": true,
          "internalType": "address",
          "name": "owner",
          "type": "address"
        },
        {
          "indexed": true,
          "internalType": "address",
          "name": "spender",
          "type": "address"
        },
        {
          "indexed": false,
          "internalType": "uint256",
          "name": "value",
          "type": "uint256"
        }
      ],
      "name": "Approval",
      "type": "event"
    },
    {
      "anonymous": false,
      "inputs": [
        {
          "indexed": true,
          "internalType": "address",
          "name": "from",
          "type": "address"
        },
        {
          "indexed": true,
          "internalType": "address",
          "name": "to",
          "type": "address"
        },
        {
          "indexed": false,
          "internalType": "uint256",
          "name": "value",
          "type": "uint256"
        }
      ],
      "name": "Transfer",
      "type": "event"
    },
    {
      "payable": true,
      "stateMutability": "payable",
      "type": "fallback"
    },
    {
      "constant": true,
      "inputs": [
        {
          "internalType": "address",
          "name": "owner",
          "type": "address"
        },
        {
          "internalType": "address",
          "name": "spender",
          "type": "address"
        }
      ],
      "name": "allowance",
      "outputs": [
        {
          "internalType": "uint256",
          "name": "",
          "type": "uint256"
        }
      ],
      "payable": false,
      "stateMutability": "view",
      "type": "function"
    },
    {
      "constant": false,
      "inputs": [
        {
          "internalType": "address",
          "name": "spender",
          "type": "address"
        },
        {
          "internalType": "uint256",
          "name": "amount",
          "type": "uint256"
        }
      ],
      "name": "approve",
      "outputs": [
        {
          "internalType": "bool",
          "name": "",
          "type": "bool"
        }
      ],
      "payable": false,
      "stateMutability": "nonpayable",
      "type": "function"
    },
    {
      "constant": true,
      "inputs": [
        {
          "internalType": "address",
          "name": "account",
          "type": "address"
        }
      ],
      "name": "balanceOf",
      "outputs": [
        {
          "internalType": "uint256",
          "name": "",
          "type": "uint256"
        }
      ],
      "payable": false,
      "stateMutability": "view",
      "type": "function"
    },
    {
      "constant": true,
      "inputs": [],
      "name": "controller",
      "outputs": [
        {
          "internalType": "address",
          "name": "",
          "type": "address"
        }
      ],
      "payable": false,
      "stateMutability": "view",
      "type": "function"
    },
    {
      "constant": true,
      "inputs": [],
      "name": "decimals",
      "outputs": [
        {
          "internalType": "uint8",
          "name": "",
          "type": "uint8"
        }
      ],
      "payable": false,
      "stateMutability": "view",
      "type": "function"
    },
    {
      "constant": false,
      "inputs": [
        {
          "internalType": "address",
          "name": "spender",
          "type": "address"
        },
        {
          "internalType": "uint256",
          "name": "subtractedValue",
          "type": "uint256"
        }
      ],
      "name": "decreaseAllowance",
      "outputs": [
        {
          "internalType": "bool",
          "name": "",
          "type": "bool"
        }
      ],
      "payable": false,
      "stateMutability": "nonpayable",
      "type": "function"
    },
    {
      "constant": true,
      "inputs": [],
      "name": "governance",
      "outputs": [
        {
          "internalType": "address",
          "name": "",
          "type": "address"
        }
      ],
      "payable": false,
      "stateMutability": "view",
      "type": "function"
    },
    {
      "constant": false,
      "inputs": [
        {
          "internalType": "address",
          "name": "spender",
          "type": "address"
        },
        {
          "internalType": "uint256",
          "name": "addedValue",
          "type": "uint256"
        }
      ],
      "name": "increaseAllowance",
      "outputs": [
        {
          "internalType": "bool",
          "name": "",
          "type": "bool"
        }
      ],
      "payable": false,
      "stateMutability": "nonpayable",
      "type": "function"
    },
    {
      "constant": true,
      "inputs": [],
      "name": "max",
      "outputs": [
        {
          "internalType": "uint256",
          "name": "",
          "type": "uint256"
        }
      ],
      "payable": false,
      "stateMutability": "view",
      "type": "function"
    },
    {
      "constant": true,
      "inputs": [],
      "name": "min",
      "outputs": [
        {
          "internalType": "uint256",
          "name": "",
          "type": "uint256"
        }
      ],
      "payable": false,
      "stateMutability": "view",
      "type": "function"
    },
    {
      "constant": true,
      "inputs": [],
      "name": "name",
      "outputs": [
        {
          "internalType": "string",
          "name": "",
          "type": "string"
        }
      ],
      "payable": false,
      "stateMutability": "view",
      "type": "function"
    },
    {
      "constant": true,
      "inputs": [],
      "name": "symbol",
      "outputs": [
        {
          "internalType": "string",
          "name": "",
          "type": "string"
        }
      ],
      "payable": false,
      "stateMutability": "view",
      "type": "function"
    },
    {
      "constant": true,
      "inputs": [],
      "name": "token",
      "outputs": [
        {
          "internalType": "contract IERC20",
          "name": "",
          "type": "address"
        }
      ],
      "payable": false,
      "stateMutability": "view",
      "type": "function"
    },
    {
      "constant": true,
      "inputs": [],
      "name": "totalSupply",
      "outputs": [
        {
          "internalType": "uint256",
          "name": "",
          "type": "uint256"
        }
      ],
      "payable": false,
      "stateMutability": "view",
      "type": "function"
    },
    {
      "constant": false,
      "inputs": [
        {
          "internalType": "address",
          "name": "recipient",
          "type": "address"
        },
        {
          "internalType": "uint256",
          "name": "amount",
          "type": "uint256"
        }
      ],
      "name": "transfer",
      "outputs": [
        {
          "internalType": "bool",
          "name": "",
          "type": "bool"
        }
      ],
      "payable": false,
      "stateMutability": "nonpayable",
      "type": "function"
    },
    {
      "constant": false,
      "inputs": [
        {
          "internalType": "address",
          "name": "sender",
          "type": "address"
        },
        {
          "internalType": "address",
          "name": "recipient",
          "type": "address"
        },
        {
          "internalType": "uint256",
          "name": "amount",
          "type": "uint256"
        }
      ],
      "name": "transferFrom",
      "outputs": [
        {
          "internalType": "bool",
          "name": "",
          "type": "bool"
        }
      ],
      "payable": false,
      "stateMutability": "nonpayable",
      "type": "function"
    },
    {
      "constant": true,
      "inputs": [],
      "name": "balance",
      "outputs": [
        {
          "internalType": "uint256",
          "name": "",
          "type": "uint256"
        }
      ],
      "payable": false,
      "stateMutability": "view",
      "type": "function"
    },
    {
      "constant": false,
      "inputs": [
        {
          "internalType": "uint256",
          "name": "_min",
          "type": "uint256"
        }
      ],
      "name": "setMin",
      "outputs": [],
      "payable": false,
      "stateMutability": "nonpayable",
      "type": "function"
    },
    {
      "constant": false,
      "inputs": [
        {
          "internalType": "address",
          "name": "_governance",
          "type": "address"
        }
      ],
      "name": "setGovernance",
      "outputs": [],
      "payable": false,
      "stateMutability": "nonpayable",
      "type": "function"
    },
    {
      "constant": false,
      "inputs": [
        {
          "internalType": "address",
          "name": "_controller",
          "type": "address"
        }
      ],
      "name": "setController",
      "outputs": [],
      "payable": false,
      "stateMutability": "nonpayable",
      "type": "function"
    },
    {
      "constant": true,
      "inputs": [],
      "name": "available",
      "outputs": [
        {
          "internalType": "uint256",
          "name": "",
          "type": "uint256"
        }
      ],
      "payable": false,
      "stateMutability": "view",
      "type": "function"
    },
    {
      "constant": false,
      "inputs": [],
      "name": "earn",
      "outputs": [],
      "payable": false,
      "stateMutability": "nonpayable",
      "type": "function"
    },
    {
      "constant": false,
      "inputs": [],
      "name": "depositAll",
      "outputs": [],
      "payable": false,
      "stateMutability": "nonpayable",
      "type": "function"
    },
    {
      "constant": false,
      "inputs": [
        {
          "internalType": "uint256",
          "name": "_amount",
          "type": "uint256"
        }
      ],
      "name": "deposit",
      "outputs": [],
      "payable": false,
      "stateMutability": "nonpayable",
      "type": "function"
    },
    {
      "constant": false,
      "inputs": [],
      "name": "depositETH",
      "outputs": [],
      "payable": true,
      "stateMutability": "payable",
      "type": "function"
    },
    {
      "constant": false,
      "inputs": [],
      "name": "withdrawAll",
      "outputs": [],
      "payable": false,
      "stateMutability": "nonpayable",
      "type": "function"
    },
    {
      "constant": false,
      "inputs": [],
      "name": "withdrawAllETH",
      "outputs": [],
      "payable": false,
      "stateMutability": "nonpayable",
      "type": "function"
    },
    {
      "constant": false,
      "inputs": [
        {
          "internalType": "address",
          "name": "reserve",
          "type": "address"
        },
        {
          "internalType": "uint256",
          "name": "amount",
          "type": "uint256"
        }
      ],
      "name": "harvest",
      "outputs": [],
      "payable": false,
      "stateMutability": "nonpayable",
      "type": "function"
    },
    {
      "constant": false,
      "inputs": [
        {
          "internalType": "uint256",
          "name": "_shares",
          "type": "uint256"
        }
      ],
      "name": "withdraw",
      "outputs": [],
      "payable": false,
      "stateMutability": "nonpayable",
      "type": "function"
    },
    {
      "constant": false,
      "inputs": [
        {
          "internalType": "uint256",
          "name": "_shares",
          "type": "uint256"
        }
      ],
      "name": "withdrawETH",
      "outputs": [],
      "payable": false,
      "stateMutability": "nonpayable",
      "type": "function"
    },
    {
      "constant": true,
      "inputs": [],
      "name": "getPricePerFullShare",
      "outputs": [
        {
          "internalType": "uint256",
          "name": "",
          "type": "uint256"
        }
      ],
      "payable": false,
      "stateMutability": "view",
      "type": "function"
    }
  ],
  "bytecode": "0x60806040526127066006553480156200001757600080fd5b506040516200270c3803806200270c833981810160405260408110156200003d57600080fd5b508051602090910151604080516306fdde0360e01b815290516001600160a01b038416916306fdde03916004808301926000929190829003018186803b1580156200008757600080fd5b505afa1580156200009c573d6000803e3d6000fd5b505050506040513d6000823e601f3d908101601f191682016040526020811015620000c657600080fd5b8101908080516040519392919084640100000000821115620000e757600080fd5b908301906020820185811115620000fd57600080fd5b82516401000000008111828201881017156200011857600080fd5b82525081516020918201929091019080838360005b83811015620001475781810151838201526020016200012d565b50505050905090810190601f168015620001755780820380516001836020036101000a031916815260200191505b5060405250505060405160200180806503cb2b0b937160d51b81525060060182805190602001908083835b60208310620001c15780518252601f199092019160209182019101620001a0565b6001836020036101000a038019825116818451168082178552505050505050905001915050604051602081830303815290604052826001600160a01b03166395d89b416040518163ffffffff1660e01b815260040160006040518083038186803b1580156200022f57600080fd5b505afa15801562000244573d6000803e3d6000fd5b505050506040513d6000823e601f3d908101601f1916820160405260208110156200026e57600080fd5b81019080805160405193929190846401000000008211156200028f57600080fd5b908301906020820185811115620002a557600080fd5b8251640100000000811182820188101715620002c057600080fd5b82525081516020918201929091019080838360005b83811015620002ef578181015183820152602001620002d5565b50505050905090810190601f1680156200031d5780820380516001836020036101000a031916815260200191505b506040525050506040516020018080607960f81b81525060010182805190602001908083835b60208310620003645780518252601f19909201916020918201910162000343565b6001836020036101000a038019825116818451168082178552505050505050905001915050604051602081830303815290604052836001600160a01b031663313ce5676040518163ffffffff1660e01b815260040160206040518083038186803b158015620003d257600080fd5b505afa158015620003e7573d6000803e3d6000fd5b505050506040513d6020811015620003fe57600080fd5b505182516200041590600390602086019062000486565b5081516200042b90600490602085019062000486565b506005805460ff191660ff9290921691909117610100600160a81b0319166101006001600160a01b0396871602179055505060078054336001600160a01b03199182161790915560088054909116919092161790556200052b565b828054600181600116156101000203166002900490600052602060002090601f016020900481019282601f10620004c957805160ff1916838001178555620004f9565b82800160010185558215620004f9579182015b82811115620004f9578251825591602001919060010190620004dc565b50620005079291506200050b565b5090565b6200052891905b8082111562000507576000815560010162000512565b90565b6121d1806200053b6000396000f3fe6080604052600436106101d85760003560e01c806390386bbf11610102578063d389800f11610095578063f6326fb311610064578063f6326fb3146106b3578063f77c4791146106bb578063f8897945146106d0578063fc0c546a146106e5576101d8565b8063d389800f14610624578063dd62ed3e14610639578063de5f626814610674578063f14210a614610689576101d8565b8063a9059cbb116100d1578063a9059cbb14610579578063ab033ea9146105b2578063b69ef8a8146105e5578063b6b55f25146105fa576101d8565b806390386bbf146104e357806392eefe9b146104f857806395d89b411461052b578063a457c2d714610540576101d8565b8063395093511161017a5780636ac5db19116101495780636ac5db191461047157806370a082311461048657806377c7b8fc146104b9578063853828b6146104ce576101d8565b806339509351146103c857806345dc3dd81461040157806348a0d7541461042b5780635aa6e67514610440576101d8565b806318160ddd116101b657806318160ddd1461030957806323b872dd146103305780632e1a7d4d14610373578063313ce5671461039d576101d8565b8063018ee9b7146101f957806306fdde0314610232578063095ea7b3146102bc575b60055461010090046001600160a01b031633146101f7576101f76106fa565b005b34801561020557600080fd5b506101f76004803603604081101561021c57600080fd5b506001600160a01b0381351690602001356108d1565b34801561023e57600080fd5b50610247610992565b6040805160208082528351818301528351919283929083019185019080838360005b83811015610281578181015183820152602001610269565b50505050905090810190601f1680156102ae5780820380516001836020036101000a031916815260200191505b509250505060405180910390f35b3480156102c857600080fd5b506102f5600480360360408110156102df57600080fd5b506001600160a01b038135169060200135610a28565b604080519115158252519081900360200190f35b34801561031557600080fd5b5061031e610a46565b60408051918252519081900360200190f35b34801561033c57600080fd5b506102f56004803603606081101561035357600080fd5b506001600160a01b03813581169160208101359091169060400135610a4c565b34801561037f57600080fd5b506101f76004803603602081101561039657600080fd5b5035610ad9565b3480156103a957600080fd5b506103b2610cec565b6040805160ff9092168252519081900360200190f35b3480156103d457600080fd5b506102f5600480360360408110156103eb57600080fd5b506001600160a01b038135169060200135610cf5565b34801561040d57600080fd5b506101f76004803603602081101561042457600080fd5b5035610d49565b34801561043757600080fd5b5061031e610d9b565b34801561044c57600080fd5b50610455610e51565b604080516001600160a01b039092168252519081900360200190f35b34801561047d57600080fd5b5061031e610e60565b34801561049257600080fd5b5061031e600480360360208110156104a957600080fd5b50356001600160a01b0316610e66565b3480156104c557600080fd5b5061031e610e81565b3480156104da57600080fd5b506101f7610ea2565b3480156104ef57600080fd5b506101f7610eb5565b34801561050457600080fd5b506101f76004803603602081101561051b57600080fd5b50356001600160a01b0316610ec6565b34801561053757600080fd5b50610247610f35565b34801561054c57600080fd5b506102f56004803603604081101561056357600080fd5b506001600160a01b038135169060200135610f96565b34801561058557600080fd5b506102f56004803603604081101561059c57600080fd5b506001600160a01b038135169060200135611004565b3480156105be57600080fd5b506101f7600480360360208110156105d557600080fd5b50356001600160a01b0316611018565b3480156105f157600080fd5b5061031e611087565b34801561060657600080fd5b506101f76004803603602081101561061d57600080fd5b5035611193565b34801561063057600080fd5b506101f76112ff565b34801561064557600080fd5b5061031e6004803603604081101561065c57600080fd5b506001600160a01b03813581169160200135166113a5565b34801561068057600080fd5b506101f76113d0565b34801561069557600080fd5b506101f7600480360360208110156106ac57600080fd5b5035611452565b6101f76106fa565b3480156106c757600080fd5b506104556116d2565b3480156106dc57600080fd5b5061031e6116e1565b3480156106f157600080fd5b506104556116e7565b6000610704611087565b600554604080516370a0823160e01b815230600482015290519293506000926101009092046001600160a01b0316916370a0823191602480820192602092909190829003018186803b15801561075957600080fd5b505afa15801561076d573d6000803e3d6000fd5b505050506040513d602081101561078357600080fd5b505160055460408051630d0e30db60e41b8152905192935034926101009092046001600160a01b03169163d0e30db0918491600480830192600092919082900301818588803b1580156107d557600080fd5b505af11580156107e9573d6000803e3d6000fd5b5050600554604080516370a0823160e01b81523060048201529051600095506101009092046001600160a01b031693506370a082319250602480820192602092909190829003018186803b15801561084057600080fd5b505afa158015610854573d6000803e3d6000fd5b505050506040513d602081101561086a57600080fd5b5051905061087e818463ffffffff6116fb16565b9150600061088a610a46565b6108955750816108c0565b6108bd856108b16108a4610a46565b869063ffffffff61174416565b9063ffffffff61179d16565b90505b6108ca33826117df565b5050505050565b6008546001600160a01b0316331461091e576040805162461bcd60e51b815260206004820152600b60248201526a10b1b7b73a3937b63632b960a91b604482015290519081900360640190fd5b6005546001600160a01b0383811661010090920416141561096e576040805162461bcd60e51b81526020600482015260056024820152643a37b5b2b760d91b604482015290519081900360640190fd5b60085461098e906001600160a01b0384811691168363ffffffff6118cf16565b5050565b60038054604080516020601f6002600019610100600188161502019095169490940493840181900481028201810190925282815260609390929091830182828015610a1e5780601f106109f357610100808354040283529160200191610a1e565b820191906000526020600020905b815481529060010190602001808311610a0157829003601f168201915b5050505050905090565b6000610a3c610a35611921565b8484611925565b5060015b92915050565b60025490565b6000610a59848484611a11565b610acf84610a65611921565b610aca856040518060600160405280602881526020016120bc602891396001600160a01b038a16600090815260016020526040812090610aa3611921565b6001600160a01b03168152602081019190915260400160002054919063ffffffff611b6d16565b611925565b5060019392505050565b6000610afe610ae6610a46565b6108b184610af2611087565b9063ffffffff61174416565b9050610b0a3383611c04565b600554604080516370a0823160e01b8152306004820152905160009261010090046001600160a01b0316916370a08231916024808301926020929190829003018186803b158015610b5a57600080fd5b505afa158015610b6e573d6000803e3d6000fd5b505050506040513d6020811015610b8457600080fd5b5051905081811015610ccb576000610ba2838363ffffffff6116fb16565b6008546005546040805163f3fef3a360e01b81526001600160a01b036101009093048316600482015260248101859052905193945091169163f3fef3a39160448082019260009290919082900301818387803b158015610c0157600080fd5b505af1158015610c15573d6000803e3d6000fd5b5050600554604080516370a0823160e01b81523060048201529051600094506101009092046001600160a01b031692506370a08231916024808301926020929190829003018186803b158015610c6a57600080fd5b505afa158015610c7e573d6000803e3d6000fd5b505050506040513d6020811015610c9457600080fd5b505190506000610caa828563ffffffff6116fb16565b905082811015610cc757610cc4848263ffffffff611d0016565b94505b5050505b600554610ce79061010090046001600160a01b031633846118cf565b505050565b60055460ff1690565b6000610a3c610d02611921565b84610aca8560016000610d13611921565b6001600160a01b03908116825260208083019390935260409182016000908120918c16815292529020549063ffffffff611d0016565b6007546001600160a01b03163314610d96576040805162461bcd60e51b815260206004820152600b60248201526a21676f7665726e616e636560a81b604482015290519081900360640190fd5b600655565b6000610e4c6127106108b1600654600560019054906101000a90046001600160a01b03166001600160a01b03166370a08231306040518263ffffffff1660e01b815260040180826001600160a01b03166001600160a01b0316815260200191505060206040518083038186803b158015610e1457600080fd5b505afa158015610e28573d6000803e3d6000fd5b505050506040513d6020811015610e3e57600080fd5b50519063ffffffff61174416565b905090565b6007546001600160a01b031681565b61271081565b6001600160a01b031660009081526020819052604090205490565b6000610e4c610e8e610a46565b6108b1670de0b6b3a7640000610af2611087565b610eb3610eae33610e66565b610ad9565b565b610eb3610ec133610e66565b611452565b6007546001600160a01b03163314610f13576040805162461bcd60e51b815260206004820152600b60248201526a21676f7665726e616e636560a81b604482015290519081900360640190fd5b600880546001600160a01b0319166001600160a01b0392909216919091179055565b60048054604080516020601f6002600019610100600188161502019095169490940493840181900481028201810190925282815260609390929091830182828015610a1e5780601f106109f357610100808354040283529160200191610a1e565b6000610a3c610fa3611921565b84610aca856040518060600160405280602581526020016121786025913960016000610fcd611921565b6001600160a01b03908116825260208083019390935260409182016000908120918d1681529252902054919063ffffffff611b6d16565b6000610a3c611011611921565b8484611a11565b6007546001600160a01b03163314611065576040805162461bcd60e51b815260206004820152600b60248201526a21676f7665726e616e636560a81b604482015290519081900360640190fd5b600780546001600160a01b0319166001600160a01b0392909216919091179055565b600854600554604080516370a0823160e01b81526001600160a01b03610100909304831660048201529051600093610e4c9316916370a08231916024808301926020929190829003018186803b1580156110e057600080fd5b505afa1580156110f4573d6000803e3d6000fd5b505050506040513d602081101561110a57600080fd5b5051600554604080516370a0823160e01b815230600482015290516101009092046001600160a01b0316916370a0823191602480820192602092909190829003018186803b15801561115b57600080fd5b505afa15801561116f573d6000803e3d6000fd5b505050506040513d602081101561118557600080fd5b50519063ffffffff611d0016565b600061119d611087565b600554604080516370a0823160e01b815230600482015290519293506000926101009092046001600160a01b0316916370a0823191602480820192602092909190829003018186803b1580156111f257600080fd5b505afa158015611206573d6000803e3d6000fd5b505050506040513d602081101561121c57600080fd5b505160055490915061123e9061010090046001600160a01b0316333086611d5a565b600554604080516370a0823160e01b8152306004820152905160009261010090046001600160a01b0316916370a08231916024808301926020929190829003018186803b15801561128e57600080fd5b505afa1580156112a2573d6000803e3d6000fd5b505050506040513d60208110156112b857600080fd5b505190506112cc818363ffffffff6116fb16565b935060006112d8610a46565b6112e35750836108c0565b6108bd846108b16112f2610a46565b889063ffffffff61174416565b6000611309610d9b565b6008546005549192506113349161010090046001600160a01b0390811691168363ffffffff6118cf16565b6008546005546040805163b02bf4b960e01b81526101009092046001600160a01b03908116600484015260248301859052905192169163b02bf4b99160448082019260009290919082900301818387803b15801561139157600080fd5b505af11580156108ca573d6000803e3d6000fd5b6001600160a01b03918216600090815260016020908152604080832093909416825291909152205490565b600554604080516370a0823160e01b81523360048201529051610eb39261010090046001600160a01b0316916370a08231916024808301926020929190829003018186803b15801561142157600080fd5b505afa158015611435573d6000803e3d6000fd5b505050506040513d602081101561144b57600080fd5b5051611193565b600061145f610ae6610a46565b905061146b3383611c04565b600554604080516370a0823160e01b8152306004820152905160009261010090046001600160a01b0316916370a08231916024808301926020929190829003018186803b1580156114bb57600080fd5b505afa1580156114cf573d6000803e3d6000fd5b505050506040513d60208110156114e557600080fd5b505190508181101561162c576000611503838363ffffffff6116fb16565b6008546005546040805163f3fef3a360e01b81526001600160a01b036101009093048316600482015260248101859052905193945091169163f3fef3a39160448082019260009290919082900301818387803b15801561156257600080fd5b505af1158015611576573d6000803e3d6000fd5b5050600554604080516370a0823160e01b81523060048201529051600094506101009092046001600160a01b031692506370a08231916024808301926020929190829003018186803b1580156115cb57600080fd5b505afa1580156115df573d6000803e3d6000fd5b505050506040513d60208110156115f557600080fd5b50519050600061160b828563ffffffff6116fb16565b90508281101561162857611625848263ffffffff611d0016565b94505b5050505b600560019054906101000a90046001600160a01b03166001600160a01b0316632e1a7d4d836040518263ffffffff1660e01b815260040180828152602001915050600060405180830381600087803b15801561168757600080fd5b505af115801561169b573d6000803e3d6000fd5b505060405133925084156108fc02915084906000818181858888f193505050501580156116cc573d6000803e3d6000fd5b50505050565b6008546001600160a01b031681565b60065481565b60055461010090046001600160a01b031681565b600061173d83836040518060400160405280601e81526020017f536166654d6174683a207375627472616374696f6e206f766572666c6f770000815250611b6d565b9392505050565b60008261175357506000610a40565b8282028284828161176057fe5b041461173d5760405162461bcd60e51b815260040180806020018281038252602181526020018061209b6021913960400191505060405180910390fd5b600061173d83836040518060400160405280601a81526020017f536166654d6174683a206469766973696f6e206279207a65726f000000000000815250611db4565b6001600160a01b03821661183a576040805162461bcd60e51b815260206004820152601f60248201527f45524332303a206d696e7420746f20746865207a65726f206164647265737300604482015290519081900360640190fd5b60025461184d908263ffffffff611d0016565b6002556001600160a01b038216600090815260208190526040902054611879908263ffffffff611d0016565b6001600160a01b0383166000818152602081815260408083209490945583518581529351929391927fddf252ad1be2c89b69c2b068fc378daa952ba7f163c4a11628f55a4df523b3ef9281900390910190a35050565b604080516001600160a01b038416602482015260448082018490528251808303909101815260649091019091526020810180516001600160e01b031663a9059cbb60e01b179052610ce7908490611e19565b3390565b6001600160a01b03831661196a5760405162461bcd60e51b815260040180806020018281038252602481526020018061212a6024913960400191505060405180910390fd5b6001600160a01b0382166119af5760405162461bcd60e51b81526004018080602001828103825260228152602001806120536022913960400191505060405180910390fd5b6001600160a01b03808416600081815260016020908152604080832094871680845294825291829020859055815185815291517f8c5be1e5ebec7d5bd14f71427d1e84f3dd0314c0f7b2291e5b200ac8c7c3b9259281900390910190a3505050565b6001600160a01b038316611a565760405162461bcd60e51b81526004018080602001828103825260258152602001806121056025913960400191505060405180910390fd5b6001600160a01b038216611a9b5760405162461bcd60e51b815260040180806020018281038252602381526020018061200e6023913960400191505060405180910390fd5b611ade81604051806060016040528060268152602001612075602691396001600160a01b038616600090815260208190526040902054919063ffffffff611b6d16565b6001600160a01b038085166000908152602081905260408082209390935590841681522054611b13908263ffffffff611d0016565b6001600160a01b038084166000818152602081815260409182902094909455805185815290519193928716927fddf252ad1be2c89b69c2b068fc378daa952ba7f163c4a11628f55a4df523b3ef92918290030190a3505050565b60008184841115611bfc5760405162461bcd60e51b81526004018080602001828103825283818151815260200191508051906020019080838360005b83811015611bc1578181015183820152602001611ba9565b50505050905090810190601f168015611bee5780820380516001836020036101000a031916815260200191505b509250505060405180910390fd5b505050900390565b6001600160a01b038216611c495760405162461bcd60e51b81526004018080602001828103825260218152602001806120e46021913960400191505060405180910390fd5b611c8c81604051806060016040528060228152602001612031602291396001600160a01b038516600090815260208190526040902054919063ffffffff611b6d16565b6001600160a01b038316600090815260208190526040902055600254611cb8908263ffffffff6116fb16565b6002556040805182815290516000916001600160a01b038516917fddf252ad1be2c89b69c2b068fc378daa952ba7f163c4a11628f55a4df523b3ef9181900360200190a35050565b60008282018381101561173d576040805162461bcd60e51b815260206004820152601b60248201527f536166654d6174683a206164646974696f6e206f766572666c6f770000000000604482015290519081900360640190fd5b604080516001600160a01b0385811660248301528416604482015260648082018490528251808303909101815260849091019091526020810180516001600160e01b03166323b872dd60e01b1790526116cc908590611e19565b60008183611e035760405162461bcd60e51b8152602060048201818152835160248401528351909283926044909101919085019080838360008315611bc1578181015183820152602001611ba9565b506000838581611e0f57fe5b0495945050505050565b611e2b826001600160a01b0316611fd1565b611e7c576040805162461bcd60e51b815260206004820152601f60248201527f5361666545524332303a2063616c6c20746f206e6f6e2d636f6e747261637400604482015290519081900360640190fd5b60006060836001600160a01b0316836040518082805190602001908083835b60208310611eba5780518252601f199092019160209182019101611e9b565b6001836020036101000a0380198251168184511680821785525050505050509050019150506000604051808303816000865af19150503d8060008114611f1c576040519150601f19603f3d011682016040523d82523d6000602084013e611f21565b606091505b509150915081611f78576040805162461bcd60e51b815260206004820181905260248201527f5361666545524332303a206c6f772d6c6576656c2063616c6c206661696c6564604482015290519081900360640190fd5b8051156116cc57808060200190516020811015611f9457600080fd5b50516116cc5760405162461bcd60e51b815260040180806020018281038252602a81526020018061214e602a913960400191505060405180910390fd5b6000813f7fc5d2460186f7233c927e7db2dcc703c0e500b653ca82273b7bfad8045d85a47081811480159061200557508115155b94935050505056fe45524332303a207472616e7366657220746f20746865207a65726f206164647265737345524332303a206275726e20616d6f756e7420657863656564732062616c616e636545524332303a20617070726f766520746f20746865207a65726f206164647265737345524332303a207472616e7366657220616d6f756e7420657863656564732062616c616e6365536166654d6174683a206d756c7469706c69636174696f6e206f766572666c6f7745524332303a207472616e7366657220616d6f756e74206578636565647320616c6c6f77616e636545524332303a206275726e2066726f6d20746865207a65726f206164647265737345524332303a207472616e736665722066726f6d20746865207a65726f206164647265737345524332303a20617070726f76652066726f6d20746865207a65726f20616464726573735361666545524332303a204552433230206f7065726174696f6e20646964206e6f74207375636365656445524332303a2064656372656173656420616c6c6f77616e63652062656c6f77207a65726fa265627a7a72315820df56a9f4bb4d58e97dc81fe57c8ff4be1e5cc56de6b38ce4e733927831a50b0d64736f6c63430005110032",
  "source": "pragma solidity ^0.5.17;\n\nimport \"@openzeppelinV2/contracts/token/ERC20/IERC20.sol\";\nimport \"@openzeppelinV2/contracts/math/SafeMath.sol\";\nimport \"@openzeppelinV2/contracts/utils/Address.sol\";\nimport \"@openzeppelinV2/contracts/token/ERC20/SafeERC20.sol\";\nimport \"@openzeppelinV2/contracts/token/ERC20/ERC20.sol\";\nimport \"@openzeppelinV2/contracts/token/ERC20/ERC20Detailed.sol\";\nimport \"@openzeppelinV2/contracts/ownership/Ownable.sol\";\n\nimport \"../../interfaces/weth/WETH.sol\";\nimport \"../../interfaces/yearn/IController.sol\";\n\n// NOTE: The name of this contract was modified from yVault so as not to conflict with yVault.sol\ncontract yWETH is ERC20, ERC20Detailed {\n    using SafeERC20 for IERC20;\n    using Address for address;\n    using SafeMath for uint256;\n\n    IERC20 public token;\n\n    uint256 public min = 9990;\n    uint256 public constant max = 10000;\n\n    address public governance;\n    address public controller;\n\n    constructor(address _token, address _controller)\n        public\n        ERC20Detailed(\n            string(abi.encodePacked(\"yearn \", ERC20Detailed(_token).name())),\n            string(abi.encodePacked(\"y\", ERC20Detailed(_token).symbol())),\n            ERC20Detailed(_token).decimals()\n        )\n    {\n        token = IERC20(_token);\n        governance = msg.sender;\n        controller = _controller;\n    }\n\n    function balance() public view returns (uint256) {\n        return token.balanceOf(address(this)).add(IController(controller).balanceOf(address(token)));\n    }\n\n    function setMin(uint256 _min) external {\n        require(msg.sender == governance, \"!governance\");\n        min = _min;\n    }\n\n    function setGovernance(address _governance) public {\n        require(msg.sender == governance, \"!governance\");\n        governance = _governance;\n    }\n\n    function setController(address _controller) public {\n        require(msg.sender == governance, \"!governance\");\n        controller = _controller;\n    }\n\n    // Custom logic in here for how much the vault allows to be borrowed\n    // Sets minimum required on-hand to keep small withdrawals cheap\n    function available() public view returns (uint256) {\n        return token.balanceOf(address(this)).mul(min).div(max);\n    }\n\n    function earn() public {\n        uint256 _bal = available();\n        token.safeTransfer(controller, _bal);\n        IController(controller).earn(address(token), _bal);\n    }\n\n    function depositAll() external {\n        deposit(token.balanceOf(msg.sender));\n    }\n\n    function deposit(uint256 _amount) public {\n        uint256 _pool = balance();\n        uint256 _before = token.balanceOf(address(this));\n        token.safeTransferFrom(msg.sender, address(this), _amount);\n        uint256 _after = token.balanceOf(address(this));\n        _amount = _after.sub(_before); // Additional check for deflationary tokens\n        uint256 shares = 0;\n        if (totalSupply() == 0) {\n            shares = _amount;\n        } else {\n            shares = (_amount.mul(totalSupply())).div(_pool);\n        }\n        _mint(msg.sender, shares);\n    }\n\n    function depositETH() public payable {\n        uint256 _pool = balance();\n        uint256 _before = token.balanceOf(address(this));\n        uint256 _amount = msg.value;\n        WETH(address(token)).deposit.value(_amount)();\n        uint256 _after = token.balanceOf(address(this));\n        _amount = _after.sub(_before); // Additional check for deflationary tokens\n        uint256 shares = 0;\n        if (totalSupply() == 0) {\n            shares = _amount;\n        } else {\n            shares = (_amount.mul(totalSupply())).div(_pool);\n        }\n        _mint(msg.sender, shares);\n    }\n\n    function withdrawAll() external {\n        withdraw(balanceOf(msg.sender));\n    }\n\n    function withdrawAllETH() external {\n        withdrawETH(balanceOf(msg.sender));\n    }\n\n    // Used to swap any borrowed reserve over the debt limit to liquidate to 'token'\n    function harvest(address reserve, uint256 amount) external {\n        require(msg.sender == controller, \"!controller\");\n        require(reserve != address(token), \"token\");\n        IERC20(reserve).safeTransfer(controller, amount);\n    }\n\n    // No rebalance implementation for lower fees and faster swaps\n    function withdraw(uint256 _shares) public {\n        uint256 r = (balance().mul(_shares)).div(totalSupply());\n        _burn(msg.sender, _shares);\n\n        // Check balance\n        uint256 b = token.balanceOf(address(this));\n        if (b < r) {\n            uint256 _withdraw = r.sub(b);\n            IController(controller).withdraw(address(token), _withdraw);\n            uint256 _after = token.balanceOf(address(this));\n            uint256 _diff = _after.sub(b);\n            if (_diff < _withdraw) {\n                r = b.add(_diff);\n            }\n        }\n\n        token.safeTransfer(msg.sender, r);\n    }\n\n    // No rebalance implementation for lower fees and faster swaps\n    function withdrawETH(uint256 _shares) public {\n        uint256 r = (balance().mul(_shares)).div(totalSupply());\n        _burn(msg.sender, _shares);\n\n        // Check balance\n        uint256 b = token.balanceOf(address(this));\n        if (b < r) {\n            uint256 _withdraw = r.sub(b);\n            IController(controller).withdraw(address(token), _withdraw);\n            uint256 _after = token.balanceOf(address(this));\n            uint256 _diff = _after.sub(b);\n            if (_diff < _withdraw) {\n                r = b.add(_diff);\n            }\n        }\n\n        WETH(address(token)).withdraw(r);\n        address(msg.sender).transfer(r);\n    }\n\n    function getPricePerFullShare() public view returns (uint256) {\n        return balance().mul(1e18).div(totalSupply());\n    }\n\n    function() external payable {\n        if (msg.sender != address(token)) {\n            depositETH();\n        }\n    }\n}\n",
  "sourcePath": "/Users/sbacha/yearn-protocol-nodejs/contracts/vaults/yWETH.sol",
  "compiler": {
    "name": "solc",
    "version": "0.5.17+commit.d19bba13.Emscripten.clang"
  },
  "schemaVersion": "3.3.4",
  "updatedAt": "2021-02-12T05:40:28.405Z",
  "devdoc": {
    "methods": {
      "allowance(address,address)": {
        "details": "See {IERC20-allowance}."
      },
      "approve(address,uint256)": {
        "details": "See {IERC20-approve}.     * Requirements:     * - `spender` cannot be the zero address."
      },
      "balanceOf(address)": {
        "details": "See {IERC20-balanceOf}."
      },
      "decimals()": {
        "details": "Returns the number of decimals used to get its user representation. For example, if `decimals` equals `2`, a balance of `505` tokens should be displayed to a user as `5,05` (`505 / 10 ** 2`).     * Tokens usually opt for a value of 18, imitating the relationship between Ether and Wei.     * NOTE: This information is only used for _display_ purposes: it in no way affects any of the arithmetic of the contract, including {IERC20-balanceOf} and {IERC20-transfer}."
      },
      "decreaseAllowance(address,uint256)": {
        "details": "Atomically decreases the allowance granted to `spender` by the caller.     * This is an alternative to {approve} that can be used as a mitigation for problems described in {IERC20-approve}.     * Emits an {Approval} event indicating the updated allowance.     * Requirements:     * - `spender` cannot be the zero address. - `spender` must have allowance for the caller of at least `subtractedValue`."
      },
      "increaseAllowance(address,uint256)": {
        "details": "Atomically increases the allowance granted to `spender` by the caller.     * This is an alternative to {approve} that can be used as a mitigation for problems described in {IERC20-approve}.     * Emits an {Approval} event indicating the updated allowance.     * Requirements:     * - `spender` cannot be the zero address."
      },
      "name()": {
        "details": "Returns the name of the token."
      },
      "symbol()": {
        "details": "Returns the symbol of the token, usually a shorter version of the name."
      },
      "totalSupply()": {
        "details": "See {IERC20-totalSupply}."
      },
      "transfer(address,uint256)": {
        "details": "See {IERC20-transfer}.     * Requirements:     * - `recipient` cannot be the zero address. - the caller must have a balance of at least `amount`."
      },
      "transferFrom(address,address,uint256)": {
        "details": "See {IERC20-transferFrom}.     * Emits an {Approval} event indicating the updated allowance. This is not required by the EIP. See the note at the beginning of {ERC20};     * Requirements: - `sender` and `recipient` cannot be the zero address. - `sender` must have a balance of at least `amount`. - the caller must have allowance for `sender`'s tokens of at least `amount`."
      }
    }
  },
  "userdoc": {
    "methods": {}
  }
}